:0D1E3500544F5252004559000000000000BB
:071BB6004400D7000000000D
:101E2500E4F59A759B20759C05759D03759E0422A6
:10164B0078007C007D017BFF7A1E793D7E007F0553
:10165B0012061890000512078F0000000090000979
:10166B0012078F000000007592F0E4F5937594BF9C
:10167B00F5957596EEF5975392DF43932075800C95
:10168B0075904075A011438020121C417FF47E01A0
:10169B00121D657BFF7A1E79357D011213877FF44E
:1016AB007E01121D657BFF7A1E793A7D021213872C
:1016BB007FF47E01121D65121E255390DF4390109F
:1016CB00121E427F327E00121D65E4FF12114A90FA
:1016DB000005120783438020121DBFAC06AD07E443
:1016EB001203137B3A7A077954783C1200FB900073
:1016FB0009120783900005E0FCA3E0FDA3E0FEA325
:10170B00E0FF9000117402F0E4A3F01218139000A4
:10171B0009E0FCA3E0FDA3E0FEA3E0FF9000117441
:0A172B0002F0A314F01218138099C5
:101DBF00E4FFFE75AB09E5AB20E20843AB04E5ABEE
:0A1DCF0020E2FBAFAC7E0053ABF73F
:011DD90022E7
:101CCC0025362E306C660025352E306C6600253797
:101CDC002E316C660025362E316C660025372E327F
:101CEC006C660025362E326C660025372E336C66FA
:101CFC000025362E336C660000000000000000004A
:101BBD004A00625F503D79726B6F517F735C00809C
:101BCD00776E0F7C2F276F76505C360E00645F3773
:0C1BDD0073246B2E5E4C0000723D200053
:091E0D0053A0FB121E1643A004B1
:0E1E1600E4FFFE0FBF00010EEF64054E70F5F5
:011E2400229B
:101C410043A00243A00443A008121E16121E16E46C
:101C510090006CF0A304F078217C00FDFB7A007900
:101C61006C7E001219DF90006D7403F01219D1908F
:101C7100006D7428F01219D190006D7429F01219B9
:081C8100D11219B4E4FEFF22A8
:021D8500AD07A8
:101D8700E4FCED20E70553A0F7800343A008121EEB
:0A1D97000DED25E0FD0CECB408E8AA
:011DA100221F
:1019B40090006C7401F0E490007EF0A37410F07D4C
:1019C400007E00FF7B017A00796E1208067E0078A3
:1019D400217C007D017B017A00796C7F141206184A
:1019E400E4FB43A00243A00443A008121E1653A024
:1019F400FD121E16121E0D53A0F7121E0D9000218B
:101A0400E0700553A0F7800343A008121E0D900058
:101A140021E0700BA3E0FF121D85121E0D8048E427
:101A2400900033F0FB53A0FB900033E020E7055314
:101A3400A0F7800343A008121E10900033E025E0B5
:101A4400F00BEBB406DFE4FBEBFFC3740F9FFFE482
:101A54009400FE74232FF58274003EF583E0FF1298
:101A64001D850BEBB410E143A00243A00843A0047E
:031A7400021E1639
:101DA2001219B4E490006CF0A37402F01219D1E499
:0D1DB20090006DF0FE1219D37E007F01221B
:081E42001219B47E007F012299
:101DF40090006C7401F0E490007EF0A37410F07D08
:091E0400FF1219C57E007F0122C6
:0C1C8900E0FF90001EE0FDA3E0FB14F063
:101C9500E4FEEDB40100EDB402027E0BED70027EB0
:101CA50005C374059B2EFD3395E0FC746E2DF582FE
:101CB50074003CF583E05480F0746E2DF582740059
:061CC5003CF583E04FF046
:011CCB0022F6
:101A7700AC07ED7003021AFD24FE60400460030208
:101A87001B27ECB40311EB90006FB40106E0448010
:101A9700F08004E0547FF0ECB40211EB900070B4D6
:101AA7000106E04480F08004E0547FF0EC640170AC
:101AB7006FEB900071B40102805C8060ECB403119D
:101AC700EB90007AB40106E04480F08004E0547F94
:101AD700F0ECB40211EB90007BB40106E04480F017
:101AE7008004E0547FF0EC64017035EB90007CB427
:101AF700010280228026ECB40211EB900075B4013C
:101B070006E04480F08004E0547FF0ECB40111EB70
:101B1700900076B40106E04480F08004E0547FF042
:031B2700021DDAC2
:10154100EF24FEB40900400302163990155A75F0D4
:1015510003A4C58325F0C583730215B20215A60243
:1015610015BD0215C80215D302158202158E02158A
:101571009A021575ED900073B40103021605021667
:1015810035ED900077B40102807A021635ED9000B6
:1015910074B40102806E021635ED900078B4010238
:1015A1008062021635ED900072B401028056021677
:1015B10035ED90006EB40102804A8078ED90007D97
:1015C100B40102803F806DED900079B40102803456
:1015D1008062ED64019000737030E04480F090000F
:1015E10077E04480F0900074E04480F0900078E06F
:1015F1004480F090006EE04480F0900079E04480F7
:10160100F090007DE04480F0802EE0547FF0900067
:1016110077E0547FF0900074E0547FF0900078E020
:10162100547FF090006EE0547FF0900079E0547F99
:10163100F090007DE0547FF090006C7401F0E49034
:0A164100007EF0A37410F0021DDA21
:0618130090000D12078396
:1018190078137C007D017BFF7A1D79047E007F08A7
:10182900120618900011E014602E14604C14606ABE
:10183900240360030218E0900012E090001E700C6F
:1018490074FFF0A3741CF0A374CC806D74FFF0A333
:10185900741CF0A374D38061900012E090001E7094
:101869000C74FFF0A3741CF0A374DA800A74FFF0FF
:10187900A3741CF0A374E18040900012E090001E54
:10188900700C74FFF0A3741CF0A374E8800A74FF51
:10189900F0A3741CF0A374EF801F900012E0900075
:1018A9001E700C74FFF0A3741CF0A374F6800A7404
:1018B900FFF0A3741CF0A374FDF090000DE0FCA3ED
:1018C900E0FDA3E0FEA3E0FF9000211207837B0166
:1018D9007A0079131208E37B017A007913900012D8
:0518E900E0FD02138781
:0E13870090001BEBF0A3EAF0A3E9F0A3EDF059
:10139500A37405F0E4A3F0ED700C900075E0547FA4
:1013A500F0A3E0547FF090001EE0FDB40211900020
:1013B5007AE0547FF0A3E0547FF0A3E0547FF0ED92
:1013C500B4011190006FE0547FF0A3E0547FF0A3C7
:1013D500E0547FF090001BE0FBA3E0FAA3E0F912D4
:1013E500063EFF700302152FC3648094B0401AD3E4
:1013F500EF648094B95012EF3395E0FE74322FF507
:101405008274003EF583121C8990001BE0FBA3E06B
:10141500FAA3E0F912063EB42D0690009A121C8933
:1014250090001BE0FBA3E0FAA3E0F912063EB4200E
:101435001390001EE0FDA3E0FBE4FF121C95900055
:101445001FE014F090001BE0FBA3E0FAA3E0F91203
:10145500063EFFC3648094C1402AD3EF648094DACA
:101465005022EF3395E0FE743F2FF58274003EF570
:1014750083E0FF90001EE0FDA3E0FB121C959000A9
:101485001FE014F090001BE0FBA3E0FAA3E0F912C3
:10149500063E642E600302151C90001EE0FC6402EB
:1014A5007028900020E0FEB4020790007AE04480A6
:1014B500F0EEB4030790007BE04480F0900020E05C
:1014C500B4040790007CE04480F0EC64017028903F
:1014D5000020E0FDB4020790006FE04480F0EDB419
:1014E5000307900070E04480F0900020E0B404070A
:1014F500900071E04480F090001EE0701A9000208A
:10150500E0FDB40407900076E04480F0EDB40307F5
:10151500900075E04480F0900020E004F090001CFD
:10152500E475F0011206B80213D990006C7401F04D
:0C153500E490007EF0A37410F0021DDAB8
:101DDA0090006C7401F078217C00FDFB7A00796C2C
:0A1DEA007E007F141206180219E4AF
:041BE9004100DB00DC
:101D6500E4FDFCC3ED9FEC9E5015E4FBFA0BBB00B4
:0F1D7500010AEB64A44A70F50DBD00010C80E477
:011D8400223C
:1018EE00E4F99000D6F0D281D280D290D291D292E9
:1018FE00E97002C281E9B40102C280E9B40202C2F7
:10190E0090E9B40302C291E9B40402C2927F017E4F
:10191E0000121D6520820AE925E025E0049000D61C
:10192E00F020A40BE925E025E024029000D6F0205B
:10193E00A00BE925E025E024039000D6F020960BBD
:10194E00E925E025E024049000D6F009E96405704D
:10195E00959000DCE0FF700E9000D6E060089000DD
:10196E00DB7401F080379000D6E0FEB5070BEE6019
:10197E00089000DB7402F080249000DCE0600E9092
:10198E0000D6E070089000DB7403F080109000DC4D
:10199E00E0700A9000D6E070049000DBF09000D664
:0519AE00E09000DCF0F8
:0119B3002211
:101D0C0000000000000000000000000000000000C7
:101D1C0000000000000000000000000000000000B7
:101D2C0000000000000000000000000000000000A7
:021D3C000000A5
:101BED004400A0000000004200AB00004200A9002C
:101BFD00004100AD01602800AE00000000000000B3
:101C0D0000000000000000000000000000000000C7
:101C1D0000000000000000000000000000000000B7
:101C2D00004400A40000000044009C00000000419E
:031C3D0000A800FC
:0B0D0100900025EEF0A3EFF0A3EDF052
:100D0C0078287C007D017BFF7A1D790C7E007F2882
:100D1C0012061890005012078F4064CCCD900054EE
:100D2C0012078F00000000900025E0FCA3E0FDE41A
:100D3C0012031390005B12078390005F7406F0E4BB
:100D4C00A3F0A3F090005804F0A37400F0A374AEC9
:100D5C00F0900050E0FCA3E0FDA3E0FEA3E0FF90C8
:100D6C00009CE0F8A3E0F9A3E0FAA3E0FB12000A70
:100D7C0090005BE0F8A3E0F9A3E0FAA3E0FB120219
:100D8C00A160025032900050E0F8A3E0F9A3E0FA21
:100D9C00A3E0FB90009CE0FCA3E0FDA3E0FEA3E03D
:100DAC00FF12000690005BE0F8A3E0F9A3E0FAA3C1
:100DBC00E0FB1202A1505C900027E070569000A856
:100DCC00E0FF04F0EFD394024046E4F0900060F0B2
:100DDC0090005FE014FFA3E0C39F4003020F21903B
:100DEC00005BE0FCA3E0FDA3E0FEA3E0FF90005855
:100DFC00E0FBA3E0FAA3E0F9900060E075F004A436
:100E0C00F58285F08312075F900060E004F080C0EB
:100E1C0002113B900027E0640170469000A8F0900E
:100E2C000060F090005FE014FFA3E0C39F4003025A
:100E3C000F21900025E0FCA3E0FDE41203139000C9
:100E4C0058E0FBA3E0FAA3E0F9900060E075F00431
:100E5C00A4F58285F08312075F900060E004F080B7
:100E6C00C2900027E064027055900060F090005F23
:100E7C00E014FFA3E0FEC39F4003020F21EE240108
:100E8C00FFE433FEEF7802C333CE33CED8F9FF90B4
:100E9C000058E0FBA3E0FAA3E0F98F828E831207DF
:100EAC002F900058A3A3900060E075F004A4F58285
:100EBC0085F08312075F900060E004F080AFE4904F
:100ECC0000A8F0900060F090005FE014FFA3E0FE3B
:100EDC00C39F5041EE2401FFE433FEEF7802C3338D
:100EEC00CE33CED8F9FF900058E0FBA3E0FAA3E094
:100EFC00F98F828E8312072F900058A3A390006065
:100F0C00E075F004A4F58285F08312075F90006011
:100F1C00E004F080B290005BE0FCA3E0FDA3E0FEF7
:100F2C00A3E0FFC004C005C006C007A3E024FFFF78
:100F3C00E434FFFEEF7802C333CE33CED8F9FF9002
:100F4C000058E0FBA3E0FAA3E0F98F828E83D00770
:100F5C00D006D005D00412075FE4900060F090003A
:100F6C005FE0FFA3E0C39F5037900058E0FBA3E085
:100F7C00FAA3E0F9900060E075F004A4F58285F026
:100F8C008312072F900060E025E025E02428F582ED
:100F9C00E43400F583120783900060E004F080BE17
:100FAC00E4900060F090005FE014FFA3E0FEC39FAC
:100FBC004003021094EE04A3F090005FE0FF900059
:100FCC0061E0FEC39F400302108B900060E025E0BF
:100FDC0025E02428F582E43400F583E0F8A3E0F959
:100FEC00A3E0FAA3E0FBEE25E025E02428F582E45B
:100FFC003400F583E0FCA3E0FDA3E0FEA3E0FF12C8
:10100C0002A160724070900061E0FB25E025E024B5
:10101C0028F582E43400F583E0FCA3E0FDA3E0FEB8
:10102C00A3E0FF900054120783900060E0FA25E0E3
:10103C0025E02428F582E43400F583E0FCA3E0FDF0
:10104C00A3E0FEA3E0FFEB25E025E02428F582E4F5
:10105C003400F583120783900054E0FCA3E0FDA359
:10106C00E0FEA3E0FFEA25E025E02428F582E43445
:10107C0000F583120783900061E004F0020FC59025
:10108C000060E004F0020FB190009C12078F00008A
:10109C0000009000607401F090005FE014FFA3E08A
:1010AC00FEC39F503890009CE0F8A3E0F9A3E0FA4F
:1010BC00A3E0FBEE25E025E02428F582E43400F5DE
:1010CC0083E0FCA3E0FDA3E0FEA3E0FF12000A9086
:1010DC00009C120783900060E004F080BB90009CA1
:1010EC00E0FCA3E0FDA3E0FEA3E0FFC004C005C04C
:1010FC0006C00790005FE024FEFDE434FFFCE41220
:10110C000313A804A905AA06AB07D007D006D0057F
:10111C00D00412020490009C12078390009CE0FC07
:10112C00A3E0FDA3E0FEA3E0FF9000A412078390D0
:0D113C00009CE0FCA3E0FDA3E0FEA3E0FFAB
:011149002283
:05114A0090000DEFF024
:10114F00E4900011F0A3F0A3F0A3F0A3F0A3F0A399
:10115F00F0A3F0A3F0A3F0781B7C007D017BFF7A56
:10116F001D7934FE7F0A12061890000E7401F0A349
:10117F007400F0A37411F0E4900017F0A3F0A3F043
:10118F00A37478F030834D7F017E00121D659000AF
:10119F0018E004F07006900017E004F0900019E0DA
:1011AF00FEA3E0FFC3900018E09F900017E09E4061
:1011BF00D39000A9E475F0011206CEFED3E5F094AA
:1011CF0005EE6480948040099000A9E4F0A37405B3
:1011DF00F0021378E4900017F0A3F0C3900018E02A
:1011EF009405900017E0940050757F017E00121D4A
:1011FF0065900018E004F07006900017E004F030DE
:10120F0083D9E4900017F0A3F0A304F0A374F4F0D3
:10121F00900019E0FEA3E0FFC3900018E09F90003C
:10122F0017E09E50177F017E00121D65900018E099
:10123F0004F070DC900017E004F080D49000A9E473
:10124F0075F0011206CEFED3E5F09402EE648094A1
:10125F008040099000A9E4F0A37402F0021378D340
:10126F009000AAE094009000A9E064809480400F61
:10127F00A3E024FFF09000A9E034FFF00213787B85
:10128F00017A00791B12173590001DE0FF90000EB8
:10129F00E0FBA3E475F0011206CEA9F0FAEF1206F7
:1012AF008490001CE0FF90000EE0FBA3E475F001BA
:1012BF001206CEA9F0FAEF12068490001BE0FF9001
:1012CF00000EE0FBA3E475F0011206CEA9F0FAEFD1
:1012DF0012068490000EE0FBA3E0FAA3E0F9E412FB
:1012EF000684900011E0FEA3E07807CEC313CE135F
:1012FF00D8F9FF900013EEF0A3EFF0E4FCFD7BFFB5
:10130F007AFFF9F8C31206F26049900013E0FEA3CA
:10131F00E0FFE4FCFD7BFF7AFFF9F8C31206F25001
:10132F0024900013E0FEA3E0FFC3E49FFFE49EFEC2
:10133F00900013F0A3EFF0C374F49FF0747E9E90AF
:10134F000013F0800E900014E024F4F0900013E0EE
:10135F00347EF0900013E0FEA3E0FF90000DE0FD5F
:10136F00120D019000A01207839000A0E0FCA3E0F3
:07137F00FDA3E0FEA3E0FF67
:011386002244
:0B173500900025EBF0A3EAF0A3E9F020
:10174000A312078F00000000E490002CF0A3F0909B
:101750000028E0FCA3E0FDA3E0FEA3E0FF78011277
:10176000071C900028120783D284900028E0F8A379
:10177000E0F9A3E0FAA3E0FBA283E433FFEB4FFF21
:10178000EAFEE9FDE8FC900028120783C28490007D
:101790002DE004F0700690002CE004F090002CE0A6
:1017A0007004A3E0641870A7E4FFFE0FBF00010EF1
:1017B000EF64074E70F5D284E4FEFF0FBF00010E08
:1017C000EF64064E70F5C284900028A3A3A3E0FF47
:1017D000900025E0FBA3E0FAA3E0F9900002EF12ED
:1017E0000696900028E0FCA3E0FDA3E0FEA3E0FF46
:1017F0007808120708900001EF120696900028E082
:10180000FCA3E0FDA3E0FEA3E0FF7810120708EFC1
:0318100002068449
:10000300020381E86480F8E933E83360110460F0A7
:10001300ED33EC337009E8FCE9FDEAFEEBFF220463
:1000230060DED3EB9FEA9EE99DE8C2E78CF0C2F75E
:1000330095F0400CE8CCF8E9CDF9EACEFAEBCFFB2A
:1000430012034C85D0F05804700320D5B3E8047034
:10005300075002B2D502038B92D5EC0460F7E4CCCF
:10006300C0E0C398F8603B94186008400DD0E0FBF3
:10007300020363E4FBFAC9FC8028E830E406E4C920
:10008300FBE4CAFCE830E305E4C9CACBFCE8540747
:100093006010F8C3E913F9EA13FAEB13FBEC13FC52
:1000A300D8F130F52FC3E49CFCEF9BFFEE9AFEEDF5
:1000B30099FDD0E0FBEF4E4D4C701222DB0302039F
:1000C30088EC2CFCEF33FFEE33FEED33FDED30E730
:1000D300EB020363EF2BFFEE3AFEED39FDD0E0FBBD
:1000E30050130BBB000302038BED13FDEE13FEEF66
:0800F30013FFEC13FC02036390
:1000FB00EC4D6011E8497017ED33EC3304600DE4FF
:10010B00FCFFFEFD22E933E8330470F80203811291
:10011B00034C58046009E4CC248150062850090292
:10012B00038B284003020388C0E0EB4A7044B9807C
:10013B0006D0E0FB020377EF4E701CBD8008EBFF8F
:10014B00EAFEE9FD80EBE98DF0A4FEE5F00201E4A7
:10015B00E9CDF9EAFEEBFFEF89F0A4FCE5F0CE89DF
:10016B00F0A42EFFE435F0CD89F0A42DFEE435F09C
:10017B008067EF4E7005BD80D780C3EF8BF0A4ACCA
:10018B00F0EE8BF0A42CFCE435F0F8EF8AF0A42C05
:10019B00E5F038FCE433CB8DF0A42CFCE5F03BF818
:1001AB00EE8AF0A42CFCE5F038F8E433CF89F0A408
:1001BB002CFCE5F038CF3400CE89F0A42FFFE5F00E
:1001CB003EFEE433C98DF0A42EFEE5F039CD8AF066
:1001DB00A42FFFE5F03EFEE43DFD33D0E0FB5007DE
:1001EB000BBB000F02038BEC2CFCEF33FFEE33FE4B
:0601FB00ED33FD02036379
:1002010002038BEC5D046005E8590470030203816D
:1002110012034C580460F6EC4860F2EC7004FDFEE9
:10022100FF22C860DB2481C85009C39860025006D0
:100231000203889850CAF582E9294B4A7005AB82BE
:1002410002037775F0007C1A7880C3EF9BEE9AED7C
:1002510099400DC3EF9BFFEE9AFEED99FDE842F048
:10026100DC23ACF0D0E0FFD0E0FED0E0FDAB82209B
:10027100E7101BEB60BAEC2CFCEF33FFEE33FEED25
:1002810033FD020363E803F830E705C0F075F000C1
:10029100EF2FFFEE33FEED33FD40B830E7C280AA09
:1002A10074F8CC6480CCC86480C8F582046043C310
:1002B100EB9FF5F0EA9E42F0E99D42F0E89C45F0A3
:1002C10060305018E5825FFFE582F42B5582FB50C8
:1002D100210ABA001D09B90019088016E5825BFBE5
:1002E100E582F42F5582FF50090EBE00050DBD00B9
:1002F100010CC3EB9FF5F0EA9E42F0E99D42F0E864
:0D0301009C45F06007CC4820E701B3EC22DA
:10030E0075F020800E75F010800575F0087D007E6A
:10031E00007F003392D530D5031206E4EC33401043
:10032E00EF33FFEE33FEED33FDEC33FCD5F0ED2273
:0E033E00E5F0247EA2D513CC92E7CDCEFF22AF
:10087E00E508241EF582E43400F583E00508229095
:10088E00001B30070390001EE475F0011207C00232
:10089E00063E2000E97F2ED2008018EF540F2490E0
:1008AE00D43440D4FF30040BEF24BFB41A005003ED
:1008BE002461FFE50960021509050CE50C700205BF
:1008CE000B30070E90001BE475F0011207C0EF020B
:1008DE000684021D3E7403D2078003E4C207F508A6
:1008EE0090001B1207D7E4F509F50BF50CE509602E
:1008FE00077F201208C180F5750AFFC201C200C22F
:10090E0002C203C205C206C20812088DFF700D3066
:10091E0007057F001208D2AF0CAE0B22B4255FC2C2
:10092E00D5C20412088DFF24D0B40A00501A75F0F7
:10093E000A780930D50508B6FF0106C6A426F620AA
:10094E00D5047002D20380D924CFB41A00EF50041C
:10095E00C2E5D204020BC4D20180C6D20080C0D23E
:10096E000280BCD2D580BAD20580B47F201208C1D5
:10097E002002077401B5090040F112087EFF12082B
:10098E00C10208FBD208D206809512087EFB12081F
:10099E007EFA12087EF94A4B700679C27A0C7BFFFA
:1009AE0020022EE509602A7E008E827583001206D3
:1009BE005760060EEE650A70F0C2D5EBC0E0EAC0D5
:1009CE00E0E9C0E0EE120C25D0E0F9D0E0FAD0E07C
:1009DE00FB12063EFF60AAEBC0E0EAC0E0E9C0E011
:1009EE001208C1D0E02401F9D0E03400FAD0E0FBC7
:1009FE00E50A0460DCD50AD98087D20280A2120CE7
:100A0E000760F7E50A700104120396A90A600DE566
:100A1E000A600914F50A120CAFEF60F3EA30E70230
:100A2E00F404C3995079EAF4250A0430E701E4048A
:100A3E00F50A800D120C0760C1EA050A250A120399
:100A4E0096EA90004AF030E701E4250A04D50A043C
:100A5E0020050114120C25E4C0E0120CAF90004AE0
:100A6E00E0601320E70714F01208A9802204F0D0EA
:100A7E00E014C0E07F001208A9E50A60071208A082
:100A8E00150A800B3005031208A0D0E00208FBD037
:100A9E00E00480C4120C07609EE50A0412039690CF
:100AAE00004AEAF0E50A2005026001042404120C53
:010ABE002512
:100ABF0074FF04C0E0120CAF1208A9E50A2005026A
:100ACF0060031208A0D0E0B50AE87F451208B39082
:100ADF00004AE07F2B30E7047F2DF404C0E01208BA
:100AEF00C1D0E075F00A84C0F01208AAD0E0120855
:100AFF00AA0208FB791080027908C206C208800892
:100B0F00D2D5790A8004790AC2D5E50A047002F5B4
:100B1F000AE4FAFDFEFF12087EFC7B082001131287
:100B2F00087EFD7B1030000A12087EFE12087EFF41
:100B3F007B20EC3382D592D55013C3E43000069F4F
:100B4F00FFE49EFEE42001039DFDE49CFCE4CBF852
:100B5F00C201EC700CCFCECDCCE824F8F870F38046
:100B6F0017C3EF33FFEE33FEED33FDEC33FCEB3306
:100B7F00FB994002FB0FD8E9EB300105F8D0E0C438
:100B8F0048B201C0E00AEC4D4E4F78207B0070C296
:100B9F00EAB50A0040BCC0E0120C27D0F0D0E0202C
:100BAF000104C4C0E0C4B201C0F01208AAD0F0D54D
:100BBF00F0EB0208FB1207E00998530B0358096981
:100BCF004C0965420B074F0B0F440B0F49097E432E
:100BDF000B15550A42460AA2450A0C470CE250096A
:100BEF006D2D09712E09942B0975230992200CCBB9
:100BFF002A092D480000098CE50AB4FF03750A067F
:100C0F0012087EFC12087EFD12087EFE12087EFF7F
:100C1F009000430203D3790AA2D5200314300509AB
:100C2F00B910020404B9080104A2D520060250012C
:100C3F00042002689202B509005034C0E07F2030D2
:100C4F0003197F30A20272067205500F120C7EC27A
:100C5F0002C206C205C2087F30800F300503E9C00B
:100C6F00E01208C1300503D0E0F9D0E0B509CC306F
:100C7F0005177F30B9100C1208C17F583004077F59
:100C8F00788003B908031208C13002057F2D0208CE
:100C9F00C17F202008F87F2B2006F322920280CFFD
:100CAF007F00B40700500B2443F582E43400F58332
:100CBF00E0FF22286E756C6C2900D20112087E307D
:100CCF0001F8C201780930D50108F602092D2D501F
:100CDF0043495812087E2403B405004001E4900CE8
:100CEF00DD931208B2743A1208B2D20375090402E6
:020CFF000B03E5
:10034C00E9D2E7C933E833F892D5EDD2E7CD33ECF7
:07035C0033FC5002B2D52270
:10036300EC30E7100FBF000C0EBE00080DBD0004FB
:100373000BEB6014A2D5EB13FCED92E7FD2274FFA7
:10038300FCFDFEFF22E480F8A2D574FF13FC7D8000
:03039300E480EF14
:10039600F920E73624F950037907E4F42402FBE553
:1003A60082158270021583DBF6E024FB501BE960A0
:1003B60014E4F0E582158270021583E004F0B40AB5
:0D03C60008E4F0D9EE7401F00A22C2D5223D
:1003D300ED33EC3392D5FA602AB4FF33EDC2E77BF9
:1003E300FF60067A0379F8E4227A04790120D504C0
:1003F3007A0379FC224E614E002B494E46002D496B
:100403004E4600E47A08F0A3DAFC7B00740722C0AE
:1004130083C082ECC0E0EDC0E0EEC0E0EFC0E0EAF4
:1004230075F010A4CAABF075F04DA42BFBE435F0C6
:10043300FCEA2410FAEB34C5FBEC34D9FCEDC2E73B
:10044300FF75F056A4F42411C5F0F434C58FF0A45D
:100453002AE5F03BE43CF020E714120508D0E0FF66
:10046300D0E0FED0E0FDD0E0FC1202048014F404DE
:10047300120508D0E0FFD0E0FED0E0FDD0E0FC1292
:1004830000FBD082D083E0FAEDD2E7CD33EC332406
:1004930082FBE4C3CF33CFCE33CECD33CD33DBF3C7
:1004A3007B0775F00A846004F0A31B0AE5F0F0A350
:1004B3008FF0740AA4FFACF08EF0740AA42CFEAC87
:1004C300F050010C8DF0740AA42CFDE435F0F0A378
:0504D300DBDE740722CE
:1004D8003F8000004120000042C80000447A00002C
:1004E800461C400047C35000497424004B189680AE
:1004F8004CBEBC205A0E1BCA6753C21C749DC5AEA5
:10050800FB60065407601C2323120536EB54386041
:10051800091205221205311200FBECF8EDF9EEFA8A
:10052800EFCB22EB12053180F1543803241C9004E0
:10053800D8FE93FC0EEE93FD0EEE930ECE93FF22A3
:03000000021B2AB6
:0C1B2A00787FE4F6D8FD758121021B7164
:10054800E709F608DFFA8046E709F208DFFA803E95
:1005580088828C83E709F0A3DFFA8032E309F60882
:10056800DFFA8078E309F208DFFA807088828C83EA
:10057800E309F0A3DFFA806489828A83E0A3F6089E
:10058800DFFA805889828A83E0A3F208DFFA804C78
:1005980080D280FA80C680D4806980F2803380104F
:1005A80080A680EA809A80A880DA80E280CA8033B8
:1005B80089828A83ECFAE493A3C8C582C8CCC58330
:1005C800CCF0A3C8C582C8CCC583CCDFE9DEE78000
:1005D8000D89828A83E493A3F608DFF9ECFAA9F07F
:1005E800EDFB2289828A83ECFAE0A3C8C582C8CCD5
:1005F800C583CCF0A3C8C582C8CCC583CCDFEADEEE
:10060800E880DB89828A83E493A3F208DFF980CC4F
:1006180088F0EF60010E4E60C388F0ED2402B40448
:100628000050B9F582EB2402B4040050AF232345EF
:0606380082239005987377
:10063E00BB010689828A83E0225002E722BBFE02BA
:09064E00E32289828A83E49322ED
:10065700BB010CE58229F582E5833AF583E0225058
:1006670006E92582F8E622BBFE06E92582F8E222A2
:0D067700E58229F582E5833AF583E49322BC
:10068400BB010689828A83F0225002F722BBFE0155
:02069400F3224F
:10069600F8BB010DE58229F582E5833AF583E8F09A
:1006A600225006E92582C8F622BBFE05E92582C846
:0206B600F2222E
:1006B800C5F0F8A3E028F0C5F0F8E58215827002CD
:0606C8001583E038F0226A
:1006CE00A3F8E0C5F025F0F0E582158270021583DF
:0606DE00E0C838F0E8223C
:0E06E400C3E49FFFE49EFEE49DFDE49CFC2227
:1006F200EB9FF5F0EA9E42F0E99D42F0EC6480C87F
:0607020064809845F0221E
:10070800E86010ECA2E713FCED13FDEE13FEEF1307
:04071800FFD8F022F4
:10071C00E8600FEFC333FFEE33FEED33FDEC33FC3B
:03072C00D8F122DF
:10072F00BB010DE58229F582E5833AF58302083E88
:10073F005007E92582F8020832BBFE07E92582F847
:10074F0002084AE58229F582E5833AF583020856C5
:10075F00BB010DE58229F582E5833AF58302078314
:10076F005007E92582F8020866BBFE07E92582F8E3
:04077F0002087222D8
:0C078300ECF0A3EDF0A3EEF0A3EFF022E9
:10078F00A8828583F0D083D0821207A61207A61203
:10079F0007A61207A6E473E493A3C583C5F0C58328
:1007AF00C8C582C8F0A3C583C5F0C583C8C582C8B4
:0107BF002217
:1007C000F8E0FBA3A3E0F925F0F0E58215827002C2
:0707D0001583E0FA38F02266
:0907D700EBF0A3EAF0A3E9F02223
:1007E000D083D082F8E4937012740193700DA3A3A8
:1007F00093F8740193F5828883E4737402936860BC
:06080000EFA3A3A380DFBB
:101D3E00EFB40A07740D121D49740A309811A89950
:101D4E00B8130CC2983098FDA899C298B811F63005
:071D5E0099FDC299F59922DD
:10080600EF4E6012EF60010EEDBB010B89828A8309
:10081600F0A3DFFCDEFA2289F05007F709DFFCA916
:0C082600F022BBFEFCF309DFFCA9F0226D
:101B360002164BE493A3F8E493A34003F68001F264
:101B460008DFF48029E493A3F85407240CC8C333B0
:101B5600C4540F4420C8834004F456800146F6DF7F
:101B6600E4800B0102040810204080901BB6E47E3E
:101B7600019360BCA3FF543F30E509541FFEE49374
:101B8600A360010ECF54C025E060A840B8E493A33B
:101B9600FAE493A3F8E493A3C8C582C8CAC583CA66
:101BA600F0A3C8C582C8CAC583CADFE9DEE780BE1E
:011C400000A3
:0C083200E6FC08E6FD08E6FE08E6FF22F2
:0C083E00E0FCA3E0FDA3E0FEA3E0FF222D
:0C084A00E2FC08E2FD08E2FE08E2FF22EA
:10085600E493FC740193FD740293FE740393FF22E8
:0C086600ECF608EDF608EEF608EFF622BE
:0C087200ECF208EDF208EEF208EFF222C2
:00000001FF
