:101CA300544F525200455900256620202000000061
:031CB3000000002E
:0B190F004400E9000000004100E80077
:101CB600E4F59A759B20759C05759D03759E042217
:1012E50078007C007D017BFF7A1C79B17E007F054B
:1012F50012062390000512076900000000900009FE
:10130500120769000000007592F0E4F5937594BF2B
:10131500F5957596EEF5975392DF43932043942008
:101325005395DF4392025393FD75800C759040757C
:10133500A01143802075A88275B802F589F58A75D4
:101345008C7F758E04121AB17FF47E01121BE37B2C
:10135500FF7A1C79A37D0112112B7FF47E01121BEC
:10136500E37BFF7A1C79A87D0212112B7FF47E01A5
:10137500121BE3121CB65390DF43901043881012E2
:1013850000037F327E00121BE3E4FF1214FA900083
:101395000512075D90001074FFF0A3741CF0A37490
:1013A500ABF0900005E0FCA3E0FDA3E0FEA3E0FFA9
:1013B50090001312075D7B017A0079001208BD7B4E
:1013C500017A0079007D0112112B438020121C3D0A
:1013D500AC06AD07E412031E7B3A7A077954783CD4
:0B13E50012010690000912075D8097BE
:101C3D00E4FFFE75AB09E5AB20E20843AB04E5AB71
:0A1C4D0020E2FBAFAC7E0053ABF7C2
:011C5700226A
:03000B00021CC60E
:0A1CC600638002758ACF758CAF327F
:101B3C0025362E306C660025352E306C6600253728
:101B4C002E316C660025362E316C660025372E3210
:101B5C006C660025362E326C660025372E336C668B
:101B6C000025362E336C66000000000000000000DB
:10191A004A00655F503D79726B6F517F735C00833B
:10192A00776E0F7C2F276F76505C360E00645F3718
:0C193A0073246B2E5E4C0000723D2000F8
:091C8B0053A0FB121C9443A004B9
:0E1C9400E4FFFE0FBF00010EEF64054E70F579
:011CA200221F
:101AB10043A00243A00443A008121C94121C94E406
:101AC10090006FF0A304F078137C00FDFB7A00799D
:101AD1006F7E001217C49000707403F01217B69055
:101AE10000707428F01217B69000707429F0121764
:081AF100B6121799E4FEFF2272
:021C0300AD072B
:101C0500E4FCED20E70553A0F7800343A008121C70
:0A1C15008BED25E0FD0CECB408E8AF
:011C1F0022A2
:1017990090006F7401F0E4900081F0A37410F07D63
:1017A900007E00FF7B017A0079711207E07E0078E4
:1017B900137C007D017B017A00796F7F1412062367
:1017C900E4FB43A00243A00443A008121C9453A0C5
:1017D900FD121C94121C8B53A0F7121C8B90001342
:1017E900E0700553A0F7800343A008121C8B9000FA
:1017F90013E0700BA3E0FF121C03121C8B8048E45A
:10180900900025F0FB53A0FB900025E020E705534D
:10181900A0F7800343A008121C8E900025E025E064
:10182900F00BEBB406DFE4FBEBFFC3740F9FFFE49F
:101839009400FE74152FF58274003EF583E0FF12C3
:101849001C030BEBB410E143A00243A00843A0041E
:03185900021C94DA
:101C2000121799E490006FF0A37402F01217B6E453
:0D1C3000900070F0FE1217B87E007F0122B8
:080003001217997E007F012213
:101C720090006F7401F0E4900081F0A37410F07D85
:091C8200FF1217AA7E007F012267
:0C1AF900E0FF900010E0FDA3E0FB14F003
:101B0500E4FEEDB40100EDB402027E0BED70027E41
:101B150005C374059B2EFD3395E0FC74712DF5828C
:101B250074003CF583E05480F074712DF5827400E7
:061B35003CF583E04FF0D7
:011B3B002287
:10185C00AC07ED70030218E224FE60400460030242
:10186C00190CECB40311EB900072B40106E0448047
:10187C00F08004E0547FF0ECB40211EB900073B4F0
:10188C000106E04480F08004E0547FF0EC640170C9
:10189C006FEB900074B40102805C8060ECB40311B7
:1018AC00EB90007DB40106E04480F08004E0547FAE
:1018BC00F0ECB40211EB90007EB40106E04480F031
:1018CC008004E0547FF0EC64017035EB90007FB441
:1018DC00010280228026ECB40211EB900078B40156
:1018EC0006E04480F08004E0547FF0ECB40111EB8E
:1018FC00900079B40106E04480F08004E0547FF05D
:03190C00021C5862
:1013F000EF24FEB4090040030214E890140975F0CC
:1014000003A4C58325F0C583730214610214550239
:10141000146C02147702148202143102143D021477
:1014200049021424ED900076B401030214B40214AE
:10143000E4ED90007AB40102807A0214E4ED9000A9
:1014400077B40102806E0214E4ED90007BB40102D7
:1014500080620214E4ED900075B40102805602141B
:10146000E4ED900071B40102804A8078ED90008034
:10147000B40102803F806DED90007CB401028034A5
:101480008062ED64019000767030E04480F090005E
:101490007AE04480F0900077E04480F090007BE0B8
:1014A0004480F0900071E04480F090007CE0448043
:1014B000F0900080E04480F0802EE0547FF09000B7
:1014C0007AE0547FF0900077E0547FF090007BE06A
:1014D000547FF0900071E0547FF090007CE0547FE6
:1014E000F0900080E0547FF090006F7401F0E49081
:0A14F0000081F0A37410F0021C58F4
:0615F8009000D912075D0E
:1015FE0078DF7C007D017BFF7A1B79747E007F088B
:10160E001206239000DDE014602E14604C14606A04
:10161E00240360030216C59000DEE0900010700CEB
:10162E0074FFF0A3741BF0A3743C806D74FFF0A3E1
:10163E00741BF0A3744380619000DEE09000107084
:10164E000C74FFF0A3741BF0A3744A800A74FFF0AD
:10165E00A3741BF0A3745180409000DEE090001044
:10166E00700C74FFF0A3741BF0A37458800A74FFFF
:10167E00F0A3741BF0A3745F801F9000DEE0900057
:10168E0010700C74FFF0A3741BF0A37466800A74C0
:10169E00FFF0A3741BF0A3746DF09000D9E0FCA3CF
:1016AE00E0FDA3E0FEA3E0FF90001312075D7B01B7
:1016BE007A0079DF1208BD7B017A0079DF9000DEB7
:0516CE00E0FD02112BFC
:0E112B0090000DEBF0A3EAF0A3E9F0A3EDF0C5
:10113900A37405F0E4A3F0ED700C900078E0547FFF
:10114900F0A3E0547FF0900010E0FDB4021190008C
:101159007DE0547FF0A3E0547FF0A3E0547FF0EDED
:10116900B40111900072E0547FF0A3E0547FF0A322
:10117900E0547FF090000DE0FBA3E0FAA3E0F91240
:101189000649FF70030212D3C3648094B0401AD396
:10119900EF648094B95012EF3395E0FE74352FF562
:1011A9008274003EF583121AF990000DE0FBA3E06A
:1011B900FAA3E0F9120649B42D0690009D121AF916
:1011C90090000DE0FBA3E0FAA3E0F9120649B42070
:1011D90013900010E0FDA3E0FBE4FF121B05900053
:1011E90011E014F090000DE0FBA3E0FAA3E0F9127E
:1011F9000649FFC3648094C1402AD3EF648094DA1E
:101209005022EF3395E0FE74422FF58274003EF5CB
:1012190083E0FF900010E0FDA3E0FB121B059000A6
:1012290011E014F090000DE0FBA3E0FAA3E0F9123D
:101239000649642E60030212C0900010E0FC6402AB
:101249007028900012E0FEB4020790007DE044800F
:10125900F0EEB4030790007EE04480F0900012E0C5
:10126900B4040790007FE04480F0EC64017028909A
:101279000012E0FDB40207900072E04480F0EDB482
:101289000307900073E04480F0900012E0B4040773
:10129900900074E04480F0900010E0701A90001201
:1012A900E0FDB40407900079E04480F0EDB4030751
:1012B900900078E04480F0900012E004F090000E75
:1012C900E475F0011206A102117D90006F7401F01E
:0C12D900E4900081F0A37410F0021C5897
:101C580090006F7401F078137C00FDFB7A00796FB7
:0A1C68007E007F141206230217C944
:041946004100ED006F
:101BE300E4FDFCC3ED9FEC9E5015E4FBFA0BBB0038
:0F1BF300010AEB64A44A70F50DBD00010C80E4FB
:011C020022BF
:1016D300E4F99000E7F0D281D280D290D291D292F5
:1016E300E97002C281E9B40102C280E9B40202C214
:1016F30090E9B40302C291E9B40402C2927F017E6D
:1017030000121BE320820AE925E025E0049000E7AC
:10171300F020A40BE925E025E024029000E7F02067
:10172300A00BE925E025E024039000E7F020960BC9
:10173300E925E025E024049000E7F009E964057059
:10174300959000EEE0FF700E9000E7E060089000D7
:10175300ED7401F080379000E7E0FEB5070BEE6013
:10176300089000ED7402F080249000EEE0600E908B
:1017730000E7E070089000ED7403F080109000EE35
:10178300E0700A9000E7E070049000EDF09000E74D
:05179300E09000EEF003
:01179800222E
:101B7C000000000000000000000000000000000059
:101B8C000000000000000000000000000000000049
:101B9C000000000000000000000000000000000039
:101BAC000000000000000000000000000000000029
:10194A004400A3000000004200AE00004200AC00C8
:10195A00004100B001602800B10000000000000052
:10196A00000000000000000000000000000000006D
:10197A00000000000000000000000000000000005D
:10198A00004400A70000000044009F00000000413E
:03199A0000AB009F
:060CDB0090002612075DE7
:100CE100782B7C007D017BFF7A1B797C7E007F283D
:100CF10012062390005312076940886E55900057E1
:100D010012076900000000900026E0FCA3E0FDA3AB
:100D1100E0FEA3E0FFE412031990005E12075D906C
:100D210000627406F0E4A3F0A3F090005B04F0A36A
:100D31007400F0A374B1F0900053E0FCA3E0FDA3B4
:100D4100E0FEA3E0FF90009FE0F8A3E0F9A3E0FA42
:100D5100A3E0FB12001590005EE0F8A3E0F9A3E028
:100D6100FAA3E0FB1202AC60025032900053E0F8AB
:100D7100A3E0F9A3E0FAA3E0FB90009FE0FCA3E06D
:100D8100FDA3E0FEA3E0FF12001190005EE0F8A3D6
:100D9100E0F9A3E0FAA3E0FB1202AC505C90002A58
:100DA100E070569000ABE0FF04F0EFD394024046B0
:100DB100E4F0900063F0900062E014FFA3E0C39FB1
:100DC1004003020F0290005EE0FCA3E0FDA3E0FE01
:100DD100A3E0FF90005BE0FBA3E0FAA3E0F9900041
:100DE10063E075F004A4F58285F083120739900061
:100DF10063E004F080C002111C90002AE0640170DD
:100E01004C9000ABF0900063F0900062E014FFA3FF
:100E1100E0C39F4003020F02900026E0FCA3E0FD27
:100E2100A3E0FEA3E0FFE412031990005BE0FBA343
:100E3100E0FAA3E0F9900063E075F004A4F582857F
:100E4100F083120739900063E004F080BC90002A1F
:100E5100E064027055900063F0900062E014FFA31B
:100E6100E0FEC39F4003020F02EE2401FFE433FEC4
:100E7100EF7802C333CE33CED8F9FF90005BE0FBAD
:100E8100A3E0FAA3E0F98F828E8312070990005B39
:100E9100A3A3900063E075F004A4F58285F08312AA
:100EA1000739900063E004F080AFE49000ABF0906C
:100EB1000063F0900062E014FFA3E0FEC39F504185
:100EC100EE2401FFE433FEEF7802C333CE33CED8F4
:100ED100F9FF90005BE0FBA3E0FAA3E0F98F828EBB
:100EE1008312070990005BA3A3900063E075F004EF
:100EF100A4F58285F083120739900063E004F08045
:100F0100B290005EE0FCA3E0FDA3E0FEA3E0FFC021
:100F110004C005C006C007A3E024FFFFE434FFFEC0
:100F2100EF7802C333CE33CED8F9FF90005BE0FBFC
:100F3100A3E0FAA3E0F98F828E83D007D006D00513
:100F4100D004120739E4900063F0900062E0FFA33F
:100F5100E0C39F503790005BE0FBA3E0FAA3E0F908
:100F6100900063E075F004A4F58285F0831207090F
:100F7100900063E025E025E0242BF582E43400F5C0
:100F81008312075D900063E004F080BEE49000638B
:100F9100F0900062E014FFA3E0FEC39F4003021043
:100FA10075EE04A3F0900062E0FF900064E0FEC3E0
:100FB1009F400302106C900063E025E025E0242BA4
:100FC100F582E43400F583E0F8A3E0F9A3E0FAA3A5
:100FD100E0FBEE25E025E0242BF582E43400F583E7
:100FE100E0FCA3E0FDA3E0FEA3E0FF1202AC60720F
:100FF1004070900064E0FB25E025E0242BF582E4BD
:101001003400F583E0FCA3E0FDA3E0FEA3E0FF9044
:10101100005712075D900063E0FA25E025E0242BDC
:10102100F582E43400F583E0FCA3E0FDA3E0FEA338
:10103100E0FFEB25E025E0242BF582E43400F58385
:1010410012075D900057E0FCA3E0FDA3E0FEA3E0E2
:10105100FFEA25E025E0242BF582E43400F5831234
:10106100075D900064E004F0020FA6900063E004C5
:10107100F0020F9290009F1207690000000090009B
:10108100637401F0900062E014FFA3E0FEC39F507F
:101091003890009FE0F8A3E0F9A3E0FAA3E0FBEEAB
:1010A10025E025E0242BF582E43400F583E0FCA360
:1010B100E0FDA3E0FEA3E0FF12001590009F1207E0
:1010C1005D900063E004F080BB90009FE0FCA3E032
:1010D100FDA3E0FEA3E0FFC004C005C006C0079069
:1010E1000062E024FEFDE434FFFCE412031EA804C8
:1010F100A905AA06AB07D007D006D005D004120275
:101101000F90009F12075D90009FE0FCA3E0FDA3FC
:10111100E0FEA3E0FF9000A712075D90009FE0FCB6
:09112100A3E0FDA3E0FEA3E0FF42
:01112A0022A2
:0514FA0090000DEFF071
:1014FF00A31207690000000078127C007D017BFFBA
:10150F007A1B79A47E007F14120623308303021501
:10151F00E9121A2A90000E12075D90000EE0FCA34C
:10152F00E0FDA3E0FEA3E0FF78071206D690000EC1
:10153F0012075DE47FFF7EFFFDFC90000EE0F8A335
:10154F00E0F9A3E0FAA3E0FBC31206C5606DE47FE8
:10155F00FF7EFFFDFC90000EE0F8A3E0F9A3E0FA98
:10156F00A3E0FBD31206C590000EE04032F8E49BD7
:10157F00FFE49AFE740299FDE498FC90000E1207A6
:10158F005D90000EE0F8A3E0F9A3E0FAA3E0FBC33F
:10159F0074F49BFF747E9AFEE499FDE4988015FC29
:1015AF00A3E0FDA3E0FEA3E024F4FFEE347EFEE40F
:1015BF003DFDE43CFC90000E12075D90000EE0FC38
:1015CF00A3E0FDA3E0FEA3E0FF90000DE090002A52
:1015DF00F0120CDB9000A312075D9000A3E0FCA3B8
:0815EF00E0FDA3E0FEA3E0FF14
:0115F70022D1
:101A2A0078297C007D017BFF7A1B79B87E007F04D0
:101A3A001206239000267401F0A37400F0A37429FF
:101A4A00F0208362E4FDFCD284EDAE047803CEC3B9
:101A5A0013CE13D8F9FF242AF58274003EF583E0E9
:101A6A00FB25E0F0C284742A2FF58274003EF583C8
:101A7A00E0FFA283E433FEEF4EF00DBD00010CED52
:101A8A0064184C70C2D284EDAE047805C333CE33E9
:101A9A00CED8F9FDAC06C284900026E0FBA3E0FA9A
:061AAA00A3E0F91206E9B9
:011AB0002213
:10000E0002038CE86480F8E933E83360110460F091
:10001E00ED33EC337009E8FCE9FDEAFEEBFF220458
:10002E0060DED3EB9FEA9EE99DE8C2E78CF0C2F753
:10003E0095F0400CE8CCF8E9CDF9EACEFAEBCFFB1F
:10004E0012035785D0F05804700320D5B3E804701E
:10005E00075002B2D502039692D5EC0460F7E4CCB9
:10006E00C0E0C398F8603B94186008400DD0E0FBE8
:10007E0002036EE4FBFAC9FC8028E830E406E4C90A
:10008E00FBE4CAFCE830E305E4C9CACBFCE854073C
:10009E006010F8C3E913F9EA13FAEB13FBEC13FC47
:1000AE00D8F130F52FC3E49CFCEF9BFFEE9AFEEDEA
:1000BE0099FDD0E0FBEF4E4D4C701222DB03020394
:1000CE0093EC2CFCEF33FFEE33FEED33FDED30E71A
:1000DE00EB02036EEF2BFFEE3AFEED39FDD0E0FBA7
:1000EE0050130BBB0003020396ED13FDEE13FEEF50
:0800FE0013FFEC13FC02036E7A
:10010600EC4D6011E8497017ED33EC3304600DE4F3
:10011600FCFFFEFD22E933E8330470F802038C127B
:10012600035758046009E4CC24815006285009027C
:100136000396284003020393C0E0EB4A7044B9805B
:1001460006D0E0FB020382EF4E701CBD8008EBFF79
:10015600EAFEE9FD80EBE98DF0A4FEE5F00201EF91
:10016600E9CDF9EAFEEBFFEF89F0A4FCE5F0CE89D4
:10017600F0A42EFFE435F0CD89F0A42DFEE435F091
:100186008067EF4E7005BD80D780C3EF8BF0A4ACBF
:10019600F0EE8BF0A42CFCE435F0F8EF8AF0A42CFA
:1001A600E5F038FCE433CB8DF0A42CFCE5F03BF80D
:1001B600EE8AF0A42CFCE5F038F8E433CF89F0A4FD
:1001C6002CFCE5F038CF3400CE89F0A42FFFE5F003
:1001D6003EFEE433C98DF0A42EFEE5F039CD8AF05B
:1001E600A42FFFE5F03EFEE43DFD33D0E0FB5007D3
:1001F6000BBB000F020396EC2CFCEF33FFEE33FE35
:06020600ED33FD02036E62
:10020C00020396EC5D046005E85904700302038C4C
:10021C00120357580460F6EC4860F2EC7004FDFED3
:10022C00FF22C860DB2481C85009C39860025006C5
:10023C000203939850CAF582E9294B4A7005AB82A8
:10024C0002038275F0007C1A7880C3EF9BEE9AED66
:10025C0099400DC3EF9BFFEE9AFEED99FDE842F03D
:10026C00DC23ACF0D0E0FFD0E0FED0E0FDAB822090
:10027C00E7101BEB60BAEC2CFCEF33FFEE33FEED1A
:10028C0033FD02036EE803F830E705C0F075F000AB
:10029C00EF2FFFEE33FEED33FD40B830E7C280AAFE
:1002AC0074F8CC6480CCC86480C8F582046043C305
:1002BC00EB9FF5F0EA9E42F0E99D42F0E89C45F098
:1002CC0060305018E5825FFFE582F42B5582FB50BD
:1002DC00210ABA001D09B90019088016E5825BFBDA
:1002EC00E582F42F5582FF50090EBE00050DBD00AE
:1002FC00010CC3EB9FF5F0EA9E42F0E99D42F0E859
:0D030C009C45F06007CC4820E701B3EC22CF
:1003190075F020800E75F010800575F0087D007E5F
:10032900007F003392D530D5031206B7EC33401065
:10033900EF33FFEE33FEED33FDEC33FCD5F0ED2268
:0E034900E5F0247EA2D513CC92E7CDCEFF22A4
:10085800E5082410F582E43400F583E005082290C9
:10086800000D300703900010E475F00112079A029A
:1008780006492000E97F2ED2008018EF540F2490FB
:10088800D43440D4FF30040BEF24BFB41A00500313
:100898002461FFE50960021509050CE50C700205E5
:1008A8000B30070E90000DE475F00112079AEF0265
:1008B800068F021BBC7403D2078003E4C207F50845
:1008C80090000D1207B1E4F509F50BF50CE5096088
:1008D800077F2012089B80F5750AFFC201C200C27B
:1008E80002C203C205C206C208120867FF700D30B3
:1008F80007057F001208ACAF0CAE0B22B4255FC20F
:10090800D5C204120867FF24D0B40A00501A75F043
:100918000A780930D50508B6FF0106C6A426F620D0
:10092800D5047002D20380D924CFB41A00EF500442
:10093800C2E5D204020B9ED20180C6D20080C0D28A
:100948000280BCD2D580BAD20580B47F2012089B21
:100958002002077401B5090040F1120858FF120877
:100968009B0208D5D208D2068095120858FB1208B7
:1009780058FA120858F94A4B7006799C7A0C7BFF92
:1009880020022EE509602A7E008E827583001206F9
:100998006260060EEE650A70F0C2D5EBC0E0EAC0F0
:1009A800E0E9C0E0EE120BFFD0E0F9D0E0FAD0E0C9
:1009B800FB120649FF60AAEBC0E0EAC0E0E9C0E02C
:1009C80012089BD0E02401F9D0E03400FAD0E0FB13
:1009D800E50A0460DCD50AD98087D20280A2120B0E
:1009E800E160F7E50A7001041203A1A90A600DE5A8
:1009F8000A600914F50A120C89EF60F3EA30E7027D
:100A0800F404C3995079EAF4250A0430E701E404B0
:100A1800F50A800D120BE160C1EA050A250A1203E6
:100A2800A1EA90003CF030E701E4250A04D50A0465
:100A380020050114120BFFE4C0E0120C8990003C61
:100A4800E0601320E70714F0120883802204F0D036
:100A5800E014C0E07F00120883E50A600712087AF4
:100A6800150A800B30050312087AD0E00208D5D0A9
:100A7800E00480C4120BE1609EE50A041203A19011
:100A8800003CEAF0E50A2005026001042404120B88
:010A9800FF5E
:100A990074FF04C0E0120C89120883E50A200502DC
:100AA900600312087AD0E0B50AE87F4512088D90F4
:100AB900003CE07F2B30E7047F2DF404C0E01208EE
:100AC9009BD0E075F00A84C0F0120884D0E01208C7
:100AD900840208D5791080027908C206C208800804
:100AE900D2D5790A8004790AC2D5E50A047002F5DB
:100AF9000AE4FAFDFEFF120858FC7B0820011312D4
:100B09000858FD7B1030000A120858FE120858FFD9
:100B19007B20EC3382D592D55013C3E43000069F75
:100B2900FFE49EFEE42001039DFDE49CFCE4CBF878
:100B3900C201EC700CCFCECDCCE824F8F870F3806C
:100B490017C3EF33FFEE33FEED33FDEC33FCEB332C
:100B5900FB994002FB0FD8E9EB300105F8D0E0C45E
:100B690048B201C0E00AEC4D4E4F78207B0070C2BC
:100B7900EAB50A0040BCC0E0120C01D0F0D0E02078
:100B89000104C4C0E0C4B201C0F0120884D0F0D599
:100B9900F0EB0208D51207BA0972530ADD58094366
:100BA9004C093F420AE14F0AE9440AE94909584315
:100BB9000AEF550A1C460A7C4509E6470CBC500950
:100BC900472D094B2E096E2B094F23096C200CA5C3
:100BD9002A09074800000966E50AB4FF03750A06F1
:100BE900120858FC120858FD120858FE120858FF3E
:100BF9009000350203DE790AA2D5200314300509D5
:100C0900B910020404B9080104A2D5200602500152
:100C1900042002689202B509005034C0E07F2030F8
:100C290003197F30A20272067205500F120C58C2C6
:100C390002C206C205C2087F30800F300503E9C031
:100C4900E012089B300503D0E0F9D0E0B509CC30BB
:100C590005177F30B9100C12089B7F583004077FA5
:100C6900788003B9080312089B3002057F2D02081A
:100C79009B7F202008F87F2B2006F322920280CF49
:100C89007F00B40700500B2435F582E43400F58366
:100C9900E0FF22286E756C6C2900D20112085830C9
:100CA90001F8C201780930D50108F60209072D506B
:100CB9004349581208582403B405004001E4900C34
:100CC900B79312088C743A12088CD203750904027E
:020CD9000ADD32
:10035700E9D2E7C933E833F892D5EDD2E7CD33ECEC
:0703670033FC5002B2D52265
:10036E00EC30E7100FBF000C0EBE00080DBD0004F0
:10037E000BEB6014A2D5EB13FCED92E7FD2274FF9C
:10038E00FCFDFEFF22E480F8A2D574FF13FC7D80F5
:03039E00E480EF09
:1003A100F920E73624F950037907E4F42402FBE548
:1003B10082158270021583DBF6E024FB501BE96095
:1003C10014E4F0E582158270021583E004F0B40AAA
:0D03D10008E4F0D9EE7401F00A22C2D52232
:1003DE00ED33EC3392D5FA602AB4FF33EDC2E77BEE
:1003EE00FF60067A047903E4227A04790C20D5049E
:1003FE007A047907224E614E002B494E46002D4954
:10040E004E4600E47A08F0A3DAFC7B00740722C0A3
:10041E0083C082ECC0E0EDC0E0EEC0E0EFC0E0EAE9
:10042E0075F010A4CAABF075F04DA42BFBE435F0BB
:10043E00FCEA2410FAEB34C5FBEC34D9FCEDC2E730
:10044E00FF75F056A4F42411C5F0F434C58FF0A452
:10045E002AE5F03BE43CF020E714120513D0E0FF50
:10046E00D0E0FED0E0FDD0E0FC12020F8014F404C8
:10047E00120513D0E0FFD0E0FED0E0FDD0E0FC127C
:10048E000106D082D083E0FAEDD2E7CD33EC3324EF
:10049E0082FBE4C3CF33CFCE33CECD33CD33DBF3BC
:1004AE007B0775F00A846004F0A31B0AE5F0F0A345
:1004BE008FF0740AA4FFACF08EF0740AA42CFEAC7C
:1004CE00F050010C8DF0740AA42CFDE435F0F0A36D
:0504DE00DBDE740722C3
:1004E3003F8000004120000042C80000447A000021
:1004F300461C400047C35000497424004B189680A3
:100503004CBEBC205A0E1BCA6753C21C749DC5AE99
:10051300FB60065407601C2323120541EB5438602B
:100523000912052D12053C120106ECF8EDF9EEFA5D
:10053300EFCB22EB12053C80F1543803241C9004CA
:10054300E3FE93FC0EEE93FD0EEE930ECE93FF228D
:0300000002199E44
:0C199E00787FE4F6D8FD7581210219E580
:10055300E709F608DFFA8046E709F208DFFA803E8A
:1005630088828C83E709F0A3DFFA8032E309F60877
:10057300DFFA8078E309F208DFFA807088828C83DF
:10058300E309F0A3DFFA806489828A83E0A3F60893
:10059300DFFA805889828A83E0A3F208DFFA804C6D
:1005A30080D280FA80C680D4806980F28033801044
:1005B30080A680EA809A80A880DA80E280CA8033AD
:1005C30089828A83ECFAE493A3C8C582C8CCC58325
:1005D300CCF0A3C8C582C8CCC583CCDFE9DEE780F5
:1005E3000D89828A83E493A3F608DFF9ECFAA9F074
:1005F300EDFB2289828A83ECFAE0A3C8C582C8CCCA
:10060300C583CCF0A3C8C582C8CCC583CCDFEADEE2
:10061300E880DB89828A83E493A3F208DFF980CC44
:1006230088F0EF60010E4E60C388F0ED2402B4043D
:100633000050B9F582EB2402B4040050AF232345E4
:0606430082239005A37361
:10064900BB010689828A83E0225002E722BBFE02AF
:09065900E32289828A83E49322E2
:10066200BB010CE58229F582E5833AF583E022504D
:1006720006E92582F8E622BBFE06E92582F8E22297
:0D068200E58229F582E5833AF583E49322B1
:10068F00BB010689828A83F0225002F722BBFE014A
:02069F00F32244
:1006A100C5F0F8A3E028F0C5F0F8E58215827002E4
:0606B1001583E038F02281
:0E06B700C3E49FFFE49EFEE49DFDE49CFC2254
:1006C500EB9FF5F0EA9E42F0E99D42F0E89C45F08B
:0106D5002202
:1006D600E8600FECC313FCED13FDEE13FEEF13FF02
:0306E600D8F12226
:1006E900BB010789828A830208185005E9F80208C4
:1006F9000CBBFE05E9F802082489828A83020830C6
:10070900BB010DE58229F582E5833AF583020818D4
:100719005007E92582F802080CBBFE07E92582F893
:10072900020824E58229F582E5833AF58302083037
:10073900BB010DE58229F582E5833AF58302075D60
:100749005007E92582F8020840BBFE07E92582F82F
:0407590002084C2224
:0C075D00ECF0A3EDF0A3EEF0A3EFF0220F
:10076900A8828583F0D083D0821207801207801275
:100779000780120780E473E493A3C583C5F0C5839A
:10078900C8C582C8F0A3C583C5F0C583C8C582C8DA
:01079900223D
:10079A00F8E0FBA3A3E0F925F0F0E58215827002E8
:0707AA001583E0FA38F0228C
:0907B100EBF0A3EAF0A3E9F02249
:1007BA00D083D082F8E4937012740193700DA3A3CE
:1007CA0093F8740193F5828883E4737402936860E2
:0607DA00EFA3A3A380DFE2
:101BBC00EFB40A07740D121BC7740A309811A89958
:101BCC00B8130CC2983098FDA899C298B811F63089
:071BDC0099FDC299F5992261
:1007E000EF4E6012EF60010EEDBB010B89828A8330
:1007F000F0A3DFFCDEFA2289F05007F709DFFCA93D
:0C080000F022BBFEFCF309DFFCA9F02293
:1019AA000212E5E493A3F8E493A34003F68001F25C
:1019BA0008DFF48029E493A3F85407240CC8C3333E
:1019CA00C4540F4420C8834004F456800146F6DF0D
:1019DA00E4800B010204081020408090190FE47E75
:1019EA00019360BCA3FF543F30E509541FFEE49302
:1019FA00A360010ECF54C025E060A840B8E493A3C9
:101A0A00FAE493A3F8E493A3C8C582C8CAC583CAF3
:101A1A00F0A3C8C582C8CAC583CADFE9DEE780BEAB
:01199D000049
:0C080C00E6FC08E6FD08E6FE08E6FF2218
:0C081800E0FCA3E0FDA3E0FEA3E0FF2253
:0C082400E2FC08E2FD08E2FE08E2FF2210
:10083000E493FC740193FD740293FE740393FF220E
:0C084000ECF608EDF608EEF608EFF622E4
:0C084C00ECF208EDF208EEF208EFF222E8
:00000001FF
