:104E63002D202D202D002D2D2D2D2D002D2D2D2DE3
:034E73002D2D00E2
:104BFE00124E37124E03124EA4124DCC124E4E12BE
:104C0E004A097BFF7A4E79637D011235177BFF7A55
:104C1E004E79697D021235177BFF7A4E796FE4FD6E
:0B4C2E00123517121B711240D580FBDD
:104DCC005390DF5390EF4394205395DFE4F59A759D
:0C4DDC009BA0759C6C759D50759E042278
:104E3700C2AF75AA0575AA0A75A91FD2AF75AA05CB
:074E470075AA0A75A91F22DC
:104E030075800C75904075A0117592F0E4F593755B
:0A4E130094BFF5957596EEF5972211
:0A4EA4005392DF4393204380202245
:104E4E0075A88275B802E4F589F58A758C7F758E22
:054E5E0004438810224E
:104DE800E4FFFE75AB09E5AB20E20843AB04E5AB95
:0A4DF80020E2FBAFAC7E0053ABF7E6
:014E0200228D
:03000B000246BBEF
:1046BB00C0E0C083C082C0D075D000C006C00790D8
:1046CB0001D4E060129001E8E4F0A374C8F090010B
:1046DB00D57401F0A3E4F09001D5E060369001D4DD
:1046EB00E0B40105E4F0439010D39001E9E09400AD
:1046FB009001E8E064809480400EA3E024FFF090EA
:10470B0001E8E034FFF0800B9001D5E4F0A304F056
:10471B005390EF9001EAE0FEA3E0FFD39400EE94F8
:10472B00004013EF9488EE9413500BE004F07006E6
:10473B009001EAE004F0758ACF758CB5438810D0F0
:0C474B0007D006D0D0D082D083D0E0325E
:1031DF0090022A7474F0A3E4F09002301209263D95
:1031EF00F5C28FE4900234F0A3F090025B74AAF062
:1031FF0090025C7455F0E4FFFE7D707C41900230CC
:10320F00E0F8A3E0F9A3E0FAA3E0FB1202AC40035D
:10321F00023374900234E4F0A304F0900234E0FE21
:10322F00A3E0FFC3940BEE940050CBEF7802C333AF
:10323F00CE33CED8F9FF90022BE02FFF90022AE079
:10324F003EFEC006C007900230E0FCA3E0FDA3E005
:10325F00FEA3E0FF9000D712091AD007D006124440
:10326F0032900234E0FEA3E07802C333CE33CED8DF
:10327F00F9FF90022BE02FFF90022AE03ECF24FCB3
:10328F00CF34FFFE124AFF90022C12091A90022C23
:10329F00E0FCA3E0FDA3E0FEA3E0FF9000F07402CA
:1032AF00F0A314F0123EB5900234E0FEA3E07802D2
:1032BF00C333CE33CED8F9FF90022BE02FFF90020D
:1032CF002AE03EFE124AFF90022C12091A90022C9D
:1032DF00E0FCA3E0FDA3E0FEA3E0FF9000F074028A
:1032EF00F0E4A3F0123EB5900234E0FEA3E07802C2
:1032FF00C333CE33CED8F9FF90022BE02FFF9002CD
:10330F002AE03ECF2404CF3400FE124AFF90022C55
:10331F0012091A90022CE0FCA3E0FDA3E0FEA3E04B
:10332F00FF9000F07402F0A3F0123EB5900230E06F
:10333F00FCA3E0FDA3E0FEA3E0FFE4FBFA798078B5
:10334F003F12001590023012091A7FE87E03124DCA
:10335F0042900235E004F0600302322A900234E01A
:10336F0004F002322AE490025BF090025CF0024C0F
:01337F00C489
:104C390025362E30660025352E306600464C4F410C
:104C4900540025362E31660025372E32660025366A
:104C59002E32660025372E33660025362E33660040
:10461D004A016A5F503D79726B6F517F735C018601
:10462D00776E0F7C2F276F76505C360E00645F37E8
:0C463D0073246B2E5E4C0000723D2000C8
:094E880053A0FB124E9143A0045B
:074E9100E4FF0FEFB405FB85
:014E980022F7
:024D9200AE076A
:104D9400E4FDEE20E70553A0F7800343A008124E7C
:0A4DA40088EE25E0FE0DEDB408E8EE
:014DAE0022E2
:104A090043A00243A00443A008124E91124E91E420
:104A1900900174F0A304F0FDFB1245837403124561
:104A29007B742812457B900175742912457E90018B
:104A3900747401F07E007F107D00FB7A0179761293
:104A49000A8678FF7C007D017B017A0179747E00FA
:084A59007F121206D202459201
:10457B00900175F07D017B0178FF7C007A017974E5
:07458B007E007F121206D230
:10459200E4FCFE43A00243A00443A008124E915340
:1045A200A0FD124E91124E8853A0F7124E88900031
:1045B200FFE0700553A0F7800343A008124E8890D5
:1045C20000FFE0700BA3E0FF124D92124E88803F75
:1045D200E4FEFC53A0FBEE20E70553A0F780034363
:1045E200A008124E8BEE25E0FE0CECB406E5E4FCCE
:1045F200ECFFC3740F9FFFE49400FE74012FF58259
:1046020074013EF583E0FF124D920CECB410E143CD
:0B461200A00243A00843A004024E9148
:104BC2009001747401F07E007F107D00FB7A017900
:104BD20076120A8612457FE4900174F0A3740212E1
:104BE200457EE4900175F078FF7C007D017B017ABF
:0C4BF200017974FE7F121206D202459277
:104CC4009001747401F07E007F107D00FB7A0179FD
:104CD40076120A8678FF7C007D017B017A01797463
:0A4CE4007E007F121206D2024592F4
:104CEE009001747401F07E007F107DFFFB7A0179D4
:104CFE0076120A8678FF7C007D017B017A01797439
:0A4D0E007E007F121206D2024592C9
:0B4B8500E0FFAD049000FDE0FB14F029
:104B9000E4FEEDB40100EDB402027E0BED70027E86
:104BA00005C374059B2EFE2476F582E43401F5835B
:104BB000E05480F074762EF582E43401F583E04F02
:014BC000F004
:014BC10022D1
:10437F00AC07ED700302440524FE604004600302A5
:10438F00442FECB40311EB900177B40106E04480A5
:10439F00F08004E0547FF0ECB40211EB900178B49C
:1043AF000106E04480F08004E0547FF0EC6401707B
:1043BF006FEB900179B40102805C8060ECB4031163
:1043CF00EB900182B40106E04480F08004E0547F5A
:1043DF00F0ECB40211EB900183B40106E04480F0DD
:1043EF008004E0547FF0EC64017035EB900184B4ED
:1043FF00010280228026ECB40211EB90017DB40102
:10440F0006E04480F08004E0547FF0ECB40111EB3F
:10441F0090017EB40106E04480F08004E0547FF008
:03442F00024E1D1D
:103FD400EF24FEB4090040030240CC903FED75F09D
:103FE40003A4C58325F0C58373024045024039020A
:103FF400405002405B0240660240150240210240EC
:104004002D024008ED90017BB40103024098024068
:10401400C8ED90017FB40102807A0240C8ED90019E
:104024007CB40102806E0240C8ED900180B40102AC
:1040340080620240C8ED90017AB4010280560240C9
:10404400C8ED900176B40102804A8078ED90018534
:10405400B40102803F806DED900181B4010280348F
:104064008062ED640190017B7030E04480F0900147
:104074007FE04480F090017CE04480F0900180E097
:104084004480F0900176E04480F0900181E0448027
:10409400F0900185E04480F0802EE0547FF09001A0
:1040A4007FE0547FF090017CE0547FF0900180E049
:1040B400547FF0900176E0547FF0900181E0547FCA
:1040C400F0900185E0547FF09001747401F0024E89
:0140D4001DCE
:063EB5009000EC12091A56
:103EBB009000F0E0703BA3E09000FD700C74FFF0FD
:103ECB00A3744CF0A37439800A74FFF0A3744CF004
:103EDB00A3743FF09000ECE0FCA3E0FDA3E0FEA395
:103EEB00E0FF90010012091A7B017A0079F2120BA4
:103EFB00539000F0E06401703CA3E09000FD700D66
:103F0B0074FFF0A3744CF0A37445F0801F74FFF0A2
:103F1B00A3744CF0A3744BF09000ECE0FCA3E0FD19
:103F2B00A3E0FEA3E0FF90010012091A7B017A00C7
:103F3B0079F2120B539000F0E06402703BA3E09017
:103F4B0000FD700C74FFF0A3744CF0A37451800A45
:103F5B0074FFF0A3744CF0A37457F09000ECE0FCEA
:103F6B00A3E0FDA3E0FEA3E0FF90010012091A7B82
:103F7B00017A0079F2120B539000F0E06403703B6E
:103F8B00A3E09000FD700C74FFF0A3744CF0A374CD
:103F9B005D800A74FFF0A3744CF0A37463F090007F
:103FAB00ECE0FCA3E0FDA3E0FEA3E0FF9001001218
:103FBB00091A7B017A0079F2120B537B017A007993
:093FCB00F29000F1E0FD0235174F
:0D3517009000FAEBF0A3EAF0A3E9F0AC0598
:10352400A37405F0E4A3F0EC700C90017DE0547FEB
:10353400F0A3E0547FF0ECB40211900182E0547FD8
:10354400F0A3E0547FF0A3E0547FF0ECB4011190B9
:103554000177E0547FF0A3E0547FF0A3E0547FF0C0
:103564009000FAE0FBA3E0FAA3E0F91206F8FF707A
:103574000302369CC394304013EFD39439500D7436
:103584003A2FF582E43401F583124B859000FAE07A
:10359400FBA3E0FAA3E0F91206F8B42D069001A00B
:1035A400124B859000FAE0FBA3E0FAA3E0F91206BF
:1035B400F8B42012AD049000FDE0FBE4FF124B9040
:1035C4009000FDE014F09000FAE0FBA3E0FAA3E021
:1035D400F91206F8FFC394414022EFD3945A501CC9
:1035E40074452FF582E43401F583E0FFAD049000C7
:1035F400FDE0FB124B909000FDE014F09000FAE027
:10360400FBA3E0FAA3E0F91206F8642E7077EC64E9
:103614000270289000FEE0FFB40207900182E044AB
:1036240080F0EFB40307900183E04480F09000FE43
:10363400E0B40407900184E04480F0EC6401702855
:103644009000FEE0FFB40207900177E04480F0EFC1
:10365400B40307900178E04480F09000FEE0B404E5
:1036640007900179E04480F0EC701A9000FEE0FFCE
:10367400B4040790017EE04480F0EFB403079001A6
:103684007DE04480F09000FEE004F09000FBE475DF
:10369400F0011207B70235649001747401F0024E10
:0136A4001D08
:104E1D009001747401F078FF7C00FDFB7A017974C8
:0A4E2D007E007F121206D2024592A9
:044649004101D20059
:1040D500E49000D5F09001D1F09000D5F09000D596
:1040E500E0FFC39405507AD281D280D290D291D28A
:1040F50092EF7002C281EFB40102C280EFB40202F6
:10410500C290EFB40302C291EFB40402C2927F01E0
:104115007E00124D4220820D9000D5E025E025E07D
:10412500049001D1F020A40E9000D5E025E025E013
:1041350024029001D1F020A00E9000D5E025E025C5
:10414500E024039001D1F020960E9000D5E025E003
:1041550025E024049001D1F09000D5E004F0024060
:10416500E29001D3E0FF700C9001D1E06006A374EA
:1041750001F080319001D1E0FEB50709EE6006A39C
:104185007402F080209001D3E0600C9001D1E070C2
:1041950006A37403F0800E9001D3E070089001D15E
:1041A500E07002A3F09001D1E09001D3F0600A9095
:1041B50001D2E0B40103124E9975AA0575AA0A75D4
:0241C500A91F30
:0141C70022D5
:0B4E9900E49001D6F09001D404F02258
:0100060022D7
:030003007F002259
:104DAF00E49000D5F0F0124E997FFA7E00124D423A
:0C4DBF009000D5E004F0E0C3940340EA4B
:014DCB0022C5
:104D4200E4FDFCC3ED9FEC9E501E75AA0575AA0AF0
:104D520075A91FE4FBFA0BBB00010AEB64C84A7099
:084D6200F50DBD00010C80DB22
:014D6A002226
:104C9800000000000000000000000000000000000C
:104CA80000000000000000000000000000000000FC
:0C4CB800000000000000000000000000F0
:10464D004401340000000042013F000042013D00E2
:10465D0000410141016028014200000000000000FE
:10466D00000000000000000000000000000000003D
:10467D00000000000000000000000000000000002D
:10468D0000440138000000004401300000000041EA
:03469D00013C00DD
:060F71009000F112091AC4
:100F770078F67C007D017BFF7A4C79987E007F288C
:100F87001206D290011E12092640886E5590012242
:100F9700120926000000009000F1E0FCA3E0FDA389
:100FA700E0FEA3E0FFE412031990012912091A9049
:100FB700012D7406F0E4A3F0A3F090012604F0A33A
:100FC7007401F0A37442F090011EE0FCA3E0FDA3BE
:100FD700E0FEA3E0FF900130E0F8A3E0F9A3E0FA18
:100FE700A3E0FB120015900129E0F8A3E0F9A3E0C4
:100FF700FAA3E0FB1202AC6002503290011EE0F847
:10100700A3E0F9A3E0FAA3E0FB900130E0FCA3E042
:10101700FDA3E0FEA3E0FF120011900129E0F8A371
:10102700E0F9A3E0FAA3E0FB1202AC505C9000F5F4
:10103700E0705690013CE0FF04F0EFD39402404685
:10104700E4F090012EF090012DE014FFA3E0C39F80
:101057004003021198900129E0FCA3E0FDA3E0FE04
:10106700A3E0FF900126E0FBA3E0FAA3E0F99001DB
:101077002EE075F004A4F58285F0831208CA90016A
:101087002EE004F080C00213B29000F5E064017016
:101097004C90013CF090012EF090012DE014FFA33D
:1010A700E0C39F40030211989000F1E0FCA3E0FD2C
:1010B700A3E0FEA3E0FFE4120319900126E0FBA3DF
:1010C700E0FAA3E0F990012EE075F004A4F582851B
:1010D700F0831208CA90012EE004F080BC9000F55E
:1010E700E06402705590012EF090012DE014FFA3EB
:1010F700E0FEC39F4003021198EE2401FFE433FE94
:10110700EF7802C333CE33CED8F9FF900126E0FB48
:10111700A3E0FAA3E0F98F828E8312089A90012642
:10112700A3A390012EE075F004A4F58285F0831245
:1011370008CA90012EE004F080AFE490013CF090E3
:10114700012EF090012DE014FFA3E0FEC39F504154
:10115700EE2401FFE433FEEF7802C333CE33CED85B
:10116700F9FF900126E0FBA3E0FAA3E0F98F828E56
:101177008312089A900126A3A390012EE075F0042C
:10118700A4F58285F0831208CA90012EE004F0804E
:10119700B2900129E0FCA3E0FDA3E0FEA3E0FFC0BD
:1011A70004C005C006C007A3E024FFFFE434FFFE28
:1011B700EF7802C333CE33CED8F9FF900126E0FB98
:1011C700A3E0FAA3E0F98F828E83D007D006D0057B
:1011D700D0041208CAE490012EF090012DE0FFA37D
:1011E700E0C39F5037900126E0FBA3E0FAA3E0F9A4
:1011F70090012EE075F004A4F58285F08312089A19
:1012070090012EE025E025E024F6F582E43400F590
:101217008312091A90012EE004F080BEE490012E9B
:10122700F090012DE014FFA3E0FEC39F40030213DB
:101237000BEE04A3F090012DE0FF90012FE0FEC319
:101247009F400302130290012EE025E025E024F6DB
:10125700F582E43400F583E0F8A3E0F9A3E0FAA30C
:10126700E0FBEE25E025E024F6F582E43400F58383
:10127700E0FCA3E0FDA3E0FEA3E0FF1202AC607276
:10128700407090012FE0FB25E025E024F6F582E48D
:101297003400F583E0FCA3E0FDA3E0FEA3E0FF90AC
:1012A700012212091A90012EE0FA25E025E024F622
:1012B700F582E43400F583E0FCA3E0FDA3E0FEA3A0
:1012C700E0FFEB25E025E024F6F582E43400F58322
:1012D70012091A900122E0FCA3E0FDA3E0FEA3E0BF
:1012E700FFEA25E025E024F6F582E43400F58312D1
:1012F700091A90012FE004F002123C90012EE0043D
:10130700F002122890013012092600000000900117
:101317002E7401F090012DE014FFA3E0FEC39F504F
:1013270038900130E0F8A3E0F9A3E0FAA3E0FBEE80
:1013370025E025E024F6F582E43400F583E0FCA3FC
:10134700E0FDA3E0FEA3E0FF1200159001301209B3
:101357001A90012EE004F080BB900130E0FCA3E07E
:10136700FDA3E0FEA3E0FFC004C005C006C00790D0
:10137700012DE024FEFDE434FFFCE412031EA80463
:10138700A905AA06AB07D007D006D005D0041202DC
:101397000F90013012091A900130E0FCA3E0FDA381
:1013A700E0FEA3E0FF90013812091A900130E0FC3B
:0913B700A3E0FDA3E0FEA3E0FFAA
:0113C000220A
:053C5C009000ECEFF008
:103C6100A312092600000000308342E47FFAFEFD22
:103C7100FC9000EDE0F8A3E0F9A3E0FAA3E0FBC3B8
:103C810012085650287F017E00124D429000EDE04F
:103C9100FCA3E0FDA3E0FEA3E02401FFE43EFEE47B
:103CA1003DFDE43CFC9000ED12091A80BB3083031A
:103CB100023D7D1249079000ED12091A9000EDE0D6
:103CC100FCA3E0FDA3E0FEA3E0FF780712086790E4
:103CD10000ED12091AE47FFF7EFFFDFC9000EDE08C
:103CE100F8A3E0F9A3E0FAA3E0FBC3120856606D64
:103CF100E47FFF7EFFFDFC9000EDE0F8A3E0F9A377
:103D0100E0FAA3E0FBD31208569000EDE04032F850
:103D1100E49BFFE49AFE740299FDE498FC9000EDA7
:103D210012091A9000EDE0F8A3E0F9A3E0FAA3E08C
:103D3100FBC374F49BFF747E9AFEE499FDE49880C2
:103D410015FCA3E0FDA3E0FEA3E024F4FFEE347E26
:103D5100FEE43DFDE43CFC9000ED12091A9000EDFB
:103D6100E0FCA3E0FDA3E0FEA3E0FF9000ECE09007
:103D710000F5F0120F7190013412091A900134E02C
:0A3D8100FCA3E0FDA3E0FEA3E0FFB9
:013D8B002215
:1049070078F47C007D017BFF7A4C79C07E007F04C0
:104917001206D29000F17401F0A37400F0A374F4AE
:10492700F0208362E4FDFCD284EDAE047803CEC3AD
:1049370013CE13D8F9FF24F5F58274003EF583E012
:10494700FB25E0F0C28474F52FF58274003EF583F1
:10495700E0FFA283E433FEEF4EF00DBD00010CED46
:1049670064184C70C2D284EDAE047805C333CE33DD
:10497700CED8F9FDAC06C2849000F1E0FBA3E0FAC3
:06498700A3E0F912087A1A
:01498D002207
:0100070022D6
:0A4E7600E475F0011207CDAFF0FE65
:074E80008F828E83E493FF93
:014E87002208
:084B45009000DEEEF0A3EFF09A
:104B4D009000E27401F0A37400F0A374E0F0E4FDB2
:104B5D009000DE124E769000E2E0FBA3E475F001CA
:104B6D001207CDA9F0FAEF12073E0DEDB402E19058
:074B7D0000E0E0FEA3E0FFF1
:014B8400220E
:084AB900900236EEF0A3EFF0CD
:104AC10090023C7401F0A37402F0A37438F0E4FD89
:104AD100900236124E7690023CE0FBA3E475F001A1
:104AE1001207CDA9F0FAEF12073E0DEDB404E190E3
:0D4AF1000238E0FCA3E0FDA3E0FEA3E0FF1F
:014AFE002295
:084AFF009000E2EEF0A3EFF0DD
:104B07009000E87401F0A37400F0A374E4F0E4FDEE
:104B17009000E2124E769000E8E0FBA3E475F00106
:104B27001207CDA9F0FAEF12073E0DEDB404E1909C
:0D4B370000E4E0FCA3E0FDA3E0FEA3E0FF2E
:014B4400224E
:10498E00AFF0FEE0FBA3E475F0011207CDA9F0FA3B
:04499E001206F8FD08
:1049A200E49000EDF075AA0575AA0A75A91F90009A
:1049B200EBEEF0A3EFF0A2AF9200C2AF9000EBE0FB
:1049C200F5C3A3E0F5C2AF058FC1E4F5C4F5C5F5A3
:1049D200C690025BE0B4AA08A3E0B4550375C7030E
:1049E20012000775C40575C50A75C60990025BE019
:1049F200B4AA08A3E0B4550375C703E4F5C4F5C52A
:064A0200F5C6A20092AF10
:014A0800228B
:104D18009000D7EDF09000D5EEF0A3EFF0124E80A2
:104D2800EFF460089000D57D01123B1F9000D5E09C
:0A4D3800FEA3E0FFA3E0FD0249A284
:10487D009000D7ECF0A3EDF09000D5EEF0A3EFF0A3
:10488D00124B459000DCEEF0A3EFF09000D97401CF
:10489D00F0A37400F0A374DCF09000D9E0FBA3E466
:1048AD0075F0011207CDA9F0FA1206F8B4FF1690B3
:1048BD0000D9E0FBA3E475F0011207CDA9F0FA12BF
:1048CD0006F8F4600F9000D5E0FEA3E0FF7D027CBA
:1048DD0000123B269000D97401F0A37400F0A3746C
:1048ED00D7F0E4FC9000D5E475F0011207CD9000EF
:0948FD00D912498E0CECB402EB57
:01490600228E
:0844D80090021DEEF0A3EFF0CD
:1044E000124AB990022612091A9002237401F0A30D
:1044F0007402F0A37426F0900223E0FBA3E475F0AD
:10450000011207CDA9F0FA1206F8B4FF4290022377
:10451000E0FBA3E475F0011207CDA9F0FA1206F84A
:10452000B4FF2C900223E0FBA3E475F0011207CD49
:10453000A9F0FA1206F8B4FF16900223E0FBA3E4F8
:1045400075F0011207CDA9F0FA1206F8B4FF069033
:10455000021D123B1D9002237401F0A37402F0A30C
:10456000741FF0E4FC90021DE475F0011207CD9079
:0A457000022312498E0CECB404EB98
:01457A00221E
:084432009000D5EEF0A3EFF0BD
:10443A00124AFF9000DE12091A9000DB7401F0A301
:10444A007400F0A374DEF09000DBE0FBA3E475F0E7
:10445A00011207CDA9F0FA1206F8B4FF429000DB68
:10446A00E0FBA3E475F0011207CDA9F0FA1206F8F1
:10447A00B4FF2C9000DBE0FBA3E475F0011207CD3A
:10448A00A9F0FA1206F8B4FF169000DBE0FBA3E4E9
:10449A0075F0011207CDA9F0FA1206F8B4FF0690DA
:1044AA0000D5123B1D9000DB7401F0A37400F0A349
:1044BA0074D7F0E4FC9000D5E475F0011207CDAF93
:0D44CA00F0FE9000DB1249910CECB404E808
:0144D70022C2
:104A6100E49000EBF0A3EEF0A3EFF0A2AF9200C24E
:104A7100AF9000ECE0F5C3A3E0F5C2E4F5C4F5C5E1
:104A8100F5C690025BE0B4AA08A3E0B4550375C76C
:104A91000312000775C40575C50A75C60990025B46
:104AA100E0B4AA08A3E0B4550375C70CE4F5C4F556
:074AB100C5F5C6A20092AF9B
:014AB80022DB
:093B1D007D04E0FEA3E0FF7C0042
:103B26009000E4ECF0A3EDF09000E2EEF0A3EFF0ED
:103B3600E49000E6F0A3F0A3F0A37404F0A3E4F08D
:103B4600FD7C041207627D007C04120750AA06ABB6
:103B560007E49000E7F0A3F09000E7E0FEA3E0FFA3
:103B6600C3940AEE94005025E42FFFEE3468FE124B
:103B76004E80EFF460077F007E68124A619000E88D
:103B8600E004F070D39000E7E004F080CBE490000E
:103B9600E7F0A3F09000E9E0FEA3E0FF9000E7E085
:103BA600FCA3E0FDC39FEC9E5056ED2BFFEC3AFEC6
:103BB6009000E2E0B50617A3E0B50712A3E0FEA366
:103BC600E0FF9000E8E02FF09000E7E03EF0900084
:103BD600E8E02BFF9000E7E03AFE124E80AD07903A
:103BE60000E8E02400FF9000E7E03468FE1249A2F6
:103BF6009000E8E004F0709C9000E7E004F0809408
:103C0600AF03AE02124A61E49000E7F0A3F0900021
:103C1600E9E0FEA3E0FF9000E7E0FCA3E0FDC39F20
:103C2600EC9E502BE42DFFEC3468FE124E80AD075F
:103C36009000E8E02BFF9000E7E03AFE1249A290E0
:103C460000E8E004F070C79000E7E004F080BF7F72
:063C5600007E68024A61D5
:1042B300303030303000303030303030002020208B
:1042C300554E00535441424C45002020504C53005E
:1042D300554E4C4F41440048454C502000505245E8
:1042E3005353005245462030004300204C4F414475
:1042F300004320202000464143544F005200202019
:10430300454E440053415645440020204F46460045
:104313002D2D2D2D2D00202020202D00202020208C
:10432300202D0020202D2D2D002020202D2D2D008F
:1043330020202020202000534F425245002050458A
:10434300534F004F56455220002D2D2D2D2D2D005E
:1043530020202020203000202D452D20002D2D2D24
:104363002D2D2D2D2D2D2D2000202020203000003F
:0C4373000000000000000000000000003E
:1046A0004400060000000044000000000000440038
:0A46B000900000000042000400002A
:103012007F017E6C124AFF90002A12091A7F057EF8
:103022006C124AFF90002612091A7F097E6C124A1E
:10303200FF90002E12091A90001E120926000000AD
:10304200007F667E6C124E8090006DEFF07F0D7EE9
:103052006C124E8090006EEFF07F0E7E6C124E80EE
:1030620090006FEFF07F1A7E6C124E8090008CEF12
:10307200F07F0F7E6C124B45900056EEF0A3EFF0FE
:103082007F117E6C124B45900059EEF0A3EFF07F5A
:10309200137E6C124B4590005BEEF0A3EFF07F6461
:1030A2007E6C124B4590005DEEF0A3EFF07F6B7EDD
:1030B2006C124B4590005FEEF0A3EFF07F157E6C33
:1030C200124E80900070EFF07F167E6C124E809050
:1030D2000071EFF07F287E6C124E8090008FEFF02F
:1030E200900071E090007370057405F08003740124
:1030F200F07F177E6C124E80900072EFF090007499
:1031020070057405F080037401F07F187E6C124E16
:1031120080900075EFF0E4900077F07F1B7E6C12D8
:103122004E80900078EFF07F1C7E6C124E809000F3
:1031320079EFF07F267E6C124E8090007AEFF07F5E
:103142001D7E70124B45900067EEF0A3EFF07F1FDB
:103152007E70124B45900069EEF0A3EFF07F2A7E5D
:103162006C124E8090007DEFF07F2B7E6C124B45EF
:10317200900061EEF0A3EFF07F377E6C124E8090EC
:10318200007FEFF07F3C7E6C124E8090008DEFF05E
:103192007F3D7E70124B4590006BEEF0A3EFF07F07
:1031A2003F7E70124AFF90003E12091A7F547E6CD5
:1031B200124E80900058EFF07F627E6C124E80902B
:1031C200008BEFF07F637E70124E809000BAEFF0BA
:0D31D2007F677E70124AFF90004E02091ABE
:1028430090025B74AAF090025C7455F0EF12097762
:1028530028E1002878012ADC022A56042A68062A7D
:102863003D0A28D40B2A2F0C2A8F0D2AC20E2AF9CF
:102873000F00002B057D017F007E6C124D18900028
:102883002AE0FCA3E0FDA3E0FEA3E0FF9000D71243
:10289300091A7F017E6C124432900026E0FCA3E00B
:1028A300FDA3E0FEA3E0FF9000D712091A7F057E87
:1028B3006C12443290002EE0FCA3E0FDA3E0FEA3E3
:1028C300E0FF9000D712091A7F097E6C1244328010
:1028D30000900067E0FCA3E0FD7F1D022A39900011
:1028E3006EE0FD7F0D7E6C124D1890006FE0FD7F52
:1028F3000E7E6C124D18900056E0FCA3E0FD7F0F96
:102903007E6C12487D900059E0FCA3E0FD7F117EB0
:102913006C12487D90005BE0FCA3E0FD7F137E6CAE
:1029230012487D90005DE0FCA3E0FD7F647E6C12A5
:10293300487D90005FE0FCA3E0FD7F6B7E6C124856
:102943007D900070E0FD7F157E6C124D1890007134
:10295300E0FD7F167E6C124D18900075E0FD7F1828
:102963007E6C124D18900077E0FD7F197E6C124D3E
:1029730018900078E0FD7F1B7E6C124D1890007953
:10298300E0FD7F1C7E6C124D1890007AE0FD7F26DF
:102993007E6C124D1890007DE0FD7F2A7E6C124DF7
:1029A30018900069E0FCA3E0FD7F1F7E7012487D54
:1029B30090007FE0FD7F377E6C124D1890008DE014
:1029C300FD7F3C7E6C124D1890006BE0FCA3E0FD94
:1029D3007F3D7E7012487D90003EE0FCA3E0FDA3A6
:1029E300E0FEA3E0FF9000D712091A7F3F7E70122A
:1029F3004432900058E0FD7F547E6C124D189000D5
:102A03008BE0FD7F627E6C124D189000BAE0FD7F73
:102A1300637E70124D1890006DE0FD7F667E6C1230
:102A23004D1890008CE0FD7F1A022B00900069E0A6
:102A3300FCA3E0FD7F1F7E708025900026E0FCA3B1
:102A4300E0FDA3E0FEA3E0FF9000D712091A7F0583
:102A5300022AD8900061E0FCA3E0FD7F2B7E6C127C
:102A6300487D022B0590006BE0FCA3E0FD7F3D7EDB
:102A73007012487D90003EE0FCA3E0FDA3E0FEA3BE
:102A8300E0FF9000D712091A7F3F8063900042E075
:102A9300FCA3E0FDA3E0FEA3E0FF9000D712091A18
:102AA3007F5A7E6C124432900046E0FCA3E0FDA303
:102AB300E0FEA3E0FF9000D712091A7F5E80169014
:102AC300004AE0FCA3E0FDA3E0FEA3E0FF9000D7F3
:102AD30012091A7F567E6C801890004EE0FCA3E02A
:102AE300FDA3E0FEA3E0FF9000D712091A7F677EE3
:102AF30070124432800C90008FE0FD7F287E6C12B0
:0C2B03004D18E490025BF090025CF022A0
:062568007B01E4FD7F0190
:0D256E009000D6EDF0A3EBF09000D5EFF05B
:10257B00E49000D8F0A3F0FCFDFEA312091A900022
:10258B00DE120926000000009000E212092600006E
:10259B00000090007FE0FCE41203239000E6120998
:1025AB001AE49000EAF0A3F09000D9F09000D7E085
:1025BB00FF70069000D97402F0123C5C9000E2129E
:1025CB00091A9000D7E0FF123C5C9000E212091A46
:1025DB009000D7E0FF123C5C9000E212091A9000C9
:1025EB00D7E0FF123C5C9000E212091A74FFFFFE69
:1025FB00FDFC9000DAE0F8A3E0F9A3E0FAA3E0FB1E
:10260B00D3120840500302282E1200039000D6E08C
:10261B00640160030226CF9000DAE0FCA3E0FDA387
:10262B00E0FEA3E0FFEC4D4E4F70237BFF7A427927
:10263B00B37D011235177BFF7A4279B37D021235D8
:10264B00177BFF7A4279B9E4FD1235178076E47F68
:10265B00677E2BFDFC9000DAE0F8A3E0F9A3E0FA2B
:10266B00A3E0FB1207E3EC120319E49000F0F0A3D4
:10267B0004F0123EB5E47F677E2BFDFC9000DAE0A0
:10268B00F8A3E0F9A3E0FAA3E0FB1207E3EC1203D3
:10269B0019E49000F0F0A37402F0123EB57F077EB0
:1026AB00B27D017C009000DAE0F8A3E0F9A3E0FA38
:1026BB00A3E0FB1207E3EC120319E49000F0F0A384
:1026CB00F0123EB59000D7E0FF123C5C9000DE129A
:1026DB00091A9000E6E0F8A3E0F9A3E0FAA3E0FB07
:1026EB009000E2E0FCA3E0FDA3E0FEA3E0FF1200FC
:1026FB00119000DEE0F8A3E0F9A3E0FAA3E0FB12EF
:10270B0002AC40749000E6E0FCA3E0FDA3E0FEA366
:10271B00E0FF9000E2E0F8A3E0F9A3E0FAA3E0FB0E
:10272B001200159000DEE0F8A3E0F9A3E0FAA3E0B5
:10273B00FB1202AC600250409000D8E004F0A3E022
:10274B00FF9000D8E0D39F50030225F79000DAE00A
:10275B00FCA3E0FDA3E0FEA3E0FFEF24FFFFEE34BC
:10276B00FFFEED34FFFDEC34FFFC9000DA12091A8A
:10277B00E49000D8F00225F79000D6E06401706C6D
:10278B00124CC47BFF7A4279C07D021235177BFF56
:10279B007A4279C6E4FD1235179000DA1209260049
:1027AB00000000E47F2C7E01FDFC9000DAE0F8A332
:1027BB00E0F9A3E0FAA3E0FBC3120840502E7F0A16
:1027CB007E00124D429000DAE0FCA3E0FDA3E0FE98
:1027DB00A3E0FFE4FAF9F8EF2401FFEA3EFEE93D3E
:1027EB00FDE83CFC9000DA12091A80B7E49000D89F
:1027FB00F09000D5E0FFE4FCFDFE9000DA12091A20
:10280B009000D7E0FF123C5C9000E212091A900096
:10281B00D7E070030225F7E49000B8F0FFFE7DC807
:10282B007CC2229000B87401F09000E2E0FCA3E0BF
:07283B00FDA3E0FEA3E0FF96
:012842002273
:1036A50090023F12092600000000900243120926ED
:1036B50000000000E4FBFDFF12256E900243120995
:1036C5001A900094E070037F0222900026E0F8A390
:1036D500E0F9A3E0FAA3E0FB900243E0FCA3E0FDE0
:1036E500A3E0FEA3E0FF12001190023F12091A9019
:1036F5000078E070030237B27FCD7ECC7D4C7C3EF6
:1037050090002AE0F8A3E0F9A3E0FAA3E0FB120198
:103715000690023FE0F8A3E0F9A3E0FAA3E0FB126C
:1037250002AC602C402AE4FFFEFD7C3F90002AE0BD
:10373500F8A3E0F9A3E0FAA3E0FB12010690023F2B
:10374500E0F8A3E0F9A3E0FAA3E0FB1202AC402CF9
:103755007FCD7ECC7D4C7CBE90002AE0F8A3E0F9BD
:10376500A3E0FAA3E0FB12010690023FE0F8A3E014
:10377500F9A3E0FAA3E0FB1202AC5031124CC47B72
:10378500FF7A4279CD7D011235177BFF7A4279D3D5
:10379500E4FD12351775AA0575AA0A75A91F9000CB
:1037A500A3E07006900094E070EB7F0222E4FFFE38
:1037B500FD7C3F90002AE0F8A3E0F9A3E0FAA3E03E
:1037C500FB12010690023FE0F8A3E0F9A3E0FAA39B
:1037D500E0FB1202AC4040E4FFFEFDFC90023FE03E
:1037E500F8A3E0F9A3E0FAA3E0FB1202AC602840DD
:1037F50026124CC47BFF7A4279DA7D0212351775A1
:10380500AA0575AA0A75A91F9000A3E07006900085
:1038150094E070EB7F0222900243E0FCA3E0FDA35D
:0D382500E0FEA3E0FF90003212091A7F00C0
:013832002273
:06222F0090020512091ADD
:102235009002091209260000000090020D120926DD
:102245000000000090021112092600000000900213
:102255001512092600000000900219120926000037
:10226500000012256890021512091A9000B8E06462
:10227500016003022567FFFEFDFC900205E0F8A35F
:10228500E0F9A3E0FAA3E0FB1202AC6002500302FE
:10229500239D90009BE0600302232190006FE07076
:1022A5003F900022E0FCA3E0FDA3E0FEA3E0FF12C7
:1022B50013F2C004C005C006C007900056E0FCA399
:1022C500E0FDE412031EA804A905AA06AB07D00782
:1022D500D006D005D0041202AC5003022567802138
:1022E500900022E0FCA3E0FDA3E0FEA3E0FF1213B3
:1022F500F27BE77AFB791F78411202AC5003022585
:1023050067900022E0FCA3E0FDA3E0FEA3E0FF90C0
:10231500001E12091A90009B7401F02290006FE0D4
:10232500703F900022E0FCA3E0FDA3E0FEA3E0FFE8
:102335001213F2C004C005C006C007900056E0FCA9
:10234500A3E0FDE412031EA804A905AA06AB07D065
:1023550007D006D005D0041202AC500302256780D1
:1023650023900022E0FCA3E0FDA3E0FEA3E0FF1222
:1023750013F27BE77AFB791F78411202AC600250B9
:1023850003022567900022E0FCA3E0FDA3E0FEA385
:10239500E0FF90001E02091AE4FFFEFDFC90020515
:1023A500E0F8A3E0F9A3E0FAA3E0FB1202AC4003D6
:1023B50002256790009BE07003022567900205E007
:1023C500FCA3E0FDA3E0FEA3E0FFE4FBFA7980783F
:1023D500BF12010690020512091A90006DE0640112
:1023E50060030224A47FCD7ECC7D4C7C3E90002AE8
:1023F500E0F8A3E0F9A3E0FAA3E0FB1201069000E0
:102405001EE0F8A3E0F9A3E0FAA3E0FB1202AC603A
:1024150002507790005BE0FCA3E0FDE412031EA8E8
:1024250004A905AA06AB0790002EE0FCA3E0FDA3D6
:10243500E0FEA3E0FF12020F90021912091A9002A2
:1024450019E0F8A3E0F9A3E0FAA3E0FBC000C0019E
:10245500C002C00390005DE0FCA3E0FDE412031E92
:10246500D003D002D001D000120106900219120942
:102475001A9002191213C490020D12091AE4FFFEF4
:102485007D407C409002190224B71213C190020DC1
:1024950012091AE4FFFE7D407C4090002E80131245
:1024A50013C190020D12091AE4FFFE7D407C409095
:1024B500002EE0F8A3E0F9A3E0FAA3E0FB12010681
:1024C50090001EE0F8A3E0F9A3E0FAA3E0FB1200F8
:1024D500151213F290021112091A90020DE0FCA3D5
:1024E500E0FDA3E0FEA3E0FF900205E0F8A3E0F91C
:1024F500A3E0FAA3E0FB1202AC4067900211E0FCF6
:10250500A3E0FDA3E0FEA3E0FF900205E0F8A3E051
:10251500F9A3E0FAA3E0FB1202AC60025044E4FD2B
:102525007F03123FD490001E12092600000000E42C
:1025350090009BF090000EE0FCA3E0FDA3E0FEA35D
:10254500E0FF90003212091A900215E0FCA3E0FDAD
:10255500A3E0FEA3E0FF1203579000F57401F0120B
:022565000F71F4
:012567002251
:104C69009002571209260000000012256890025789
:104C790012091A9000B8E0B40114900257E0FCA39D
:0E4C8900E0FDA3E0FEA3E0FF90003212091A46
:014C970022FA
:0B383300E0FCA3E0FDA3E0FEA3E0FF2B
:06383E0090024712091A76
:1038440090024B1209260000000090006DE0B401C4
:103854005A90005BE0FCA3E0FDE412031EA804A957
:1038640005AA06AB0790002EE0FCA3E0FDA3E0FE52
:10387400A3E0FF12020F90024B12091A90024BE0D0
:10388400F8A3E0F9A3E0FAA3E0FBC000C001C00282
:10389400C00390005FE0FCA3E0FDE412031ED0032C
:1038A400D002D001D000120106800E90002EE0FC60
:1038B400A3E0FDA3E0FEA3E0FF90024B12091A90DF
:1038C400024BE0FCA3E0FDA3E0FEA3E0FFE4FBFA6F
:1038D400F9784012020F90024B12091AE4FFFEFD20
:1038E400FC90024BE0F8A3E0F9A3E0FAA3E0FB129A
:1038F40002AC501E90024BE0FCA3E0FDA3E0FEA34B
:10390400E0FFE4FBFA798078BF12010690024B12C3
:10391400091A90024BE0F8A3E0F9A3E0FAA3E0FB54
:10392400900032E0FCA3E0FDA3E0FEA3E0FF120060
:1039340011900247E0F8A3E0F9A3E0FAA3E0FB1238
:1039440002AC6067406590024BE0FCA3E0FDA3E09D
:10395400FEA3E0FF900032E0F8A3E0F9A3E0FAA3AD
:10396400E0FB120015900247E0F8A3E0F9A3E0FAA7
:10397400A3E0FB1202AC5033900005E004F07006A3
:10398400900004E004F0C3900005E0940F9000045C
:10399400E064809480401B900247E0FCA3E0FDA318
:1039A400E0FEA3E0FF90003202091AE4900004F064
:0239B400A3F07E
:0139B60022EE
:101B71009000C5120926000000009000C912092634
:101B8100000000009000CD12092600000000900026
:101B9100D112092600000000900068E004F07006F0
:101BA100900067E004F07F01122843124CC47BFFD0
:101BB1007A4279E07D011235177BFF7A4279E6E4BA
:101BC100FD1235177BFF7A4279EC7D02123517E45D
:101BD1009001D1F09001D1E0640C60051240D580F4
:101BE100F3E49001D1F09001D1E0B40C051240D59D
:101BF10080F47FF47E01124D42E4FB7D017F0512EA
:101C0100256E90002612091A900026E0FCA3E0FD43
:101C1100A3E0FEA3E0FF9000F07402F0E4A3F01251
:101C21003EB57F887E13124D42900026E0FCA3E072
:101C3100FDA3E0FEA3E0FF9000C912091A124CC4F3
:101C41007BFF7A4279E07D011235177BFF7A427979
:101C5100EEE4FD1235177BFF7A4279F47D021235ED
:101C610017E49001D1F09001D1E0640C60051240BD
:101C7100D580F3E4FB7D017F0512256E90002A12C9
:101C8100091A90002AE0FCA3E0FDA3E0FEA3E0FF17
:101C91009000F07402F0E4A3F0123EB57F887E1349
:101CA100124D4290002AE0FCA3E0FDA3E0FEA3E078
:101CB100FF9000CD12091A9000C9E0F8A3E0F9A342
:101CC100E0FAA3E0FBA3E0FCA3E0FDA3E0FEA3E0B8
:101CD100FF1200119000D112091A9000D1E0F8A36F
:101CE100E0F9A3E0FAA3E0FBC000C001C002C00319
:101CF100900059E0FCA3E0FD7E007F64120762AC16
:101D010006AD07E412031ED003D002D001D00012A9
:101D110001069000D112091A90002AE0FCA3E0FD0F
:101D2100A3E0FEA3E0FF900026E0F8A3E0F9A3E022
:101D3100FAA3E0FB12001190002A12091A90002A5E
:101D4100E0F8A3E0F9A3E0FAA3E0FBC000C001C002
:101D510002C003900059E0FCA3E0FD7E007F641205
:101D61000762AC06AD07E412031ED003D002D00116
:101D7100D00012010690002A12091A90002AE0FCF4
:101D8100A3E0FDA3E0FEA3E0FFA312091A90005611
:101D9100E0FCA3E0FDE412031E9000C512091A90B5
:101DA10000C5E0F8A3E0F9A3E0FAA3E0FBC000C09E
:101DB10001C002C003900058E0FCE412032390002C
:101DC100D912091A7F007E007D207C411239B7D0DB
:101DD10003D002D001D0001201069000C512091AE9
:101DE1009000C5E0FCA3E0FDA3E0FEA3E0FFC0047A
:101DF100C005C006C00790005BE0FCA3E0FDE41253
:101E0100031EA804A905AA06AB07D007D006D00572
:101E1100D00412020F9000C512091A90002EE0FCA6
:101E2100A3E0FDA3E0FEA3E0FF9000C5E0F8A3E07E
:101E3100F9A3E0FAA3E0FB12020F90002E12091A97
:101E4100E4FFFEFDFC90002AE0F8A3E0F9A3E0FA2C
:101E5100A3E0FB1202AC501E90002AE0FCA3E0FDBF
:101E6100A3E0FEA3E0FFE4FBFA798078BF1201064C
:101E710090002A12091A124CC47BFF7A4279F97D2B
:101E81000112351790002EE0FCA3E0FDA3E0FEA3B4
:101E9100E0FF9000F07402F0E4A3F0123EB57BFF86
:101EA1007A4279FFE4FD1235177B01E4FD7F0212CE
:101EB100437F7BFF7A4379017D021235177F01123F
:101EC10028437F0D1228437F0E122843124DAF1273
:0C1ED1004DAF7F887E13124D42024CC4BE
:052B0F0090025DEFF0F3
:102B1400E4A3F09001DC04F0124CC490006D740145
:102B2400F0A3F090025DE07009900056F0A3740FDA
:102B3400803190025DE0B4010A900056E4F0A37481
:102B440014802090025DE0B4020A900056E4F0A3E1
:102B5400741E806990025DE0B40520900056E4F094
:102B6400A3741EF090005BE4F0A37405F0A3E4F0FA
:102B7400A37402F0A3E4F0A304802B90025DE0B4FC
:102B8400062C900056E4F0A3741EF090005BE4F071
:102B9400A37402F0A3E4F0A37402F0A3E4F0A3741A
:102BA40002F0E490006DF09000587403802B9002C2
:102BB4005DE0B40339900056E4F0A37428F090006B
:102BC4005BE4F0A3740AF0A3E4F0A37405F0A3E4B7
:102BD400F0A37402F090005804F090006F7401F0B8
:102BE400FDE4FF123FD490008D7401F08036900212
:102BF4005DE0B4042F900056E4F0A3743CF0900020
:102C04005BE4F0A37402F0900058F0E490006FF0DD
:102C140090006EF07D017F01123FD4E490008DF0AE
:102C240090006DF0900056E0FCA3E0FDE412031E5A
:102C3400900058E09000F0F0A37401F0123EB590BB
:102C44000059E4F0A37464F09000707402F0A314CB
:102C5400F09000757403F0E4900074F09000770431
:102C6400F0A3F0A3F090007DF0E4A3F0A37405F0CA
:102C7400E490006BF0A3F090003E120926000000DF
:102C840000E490008BF0A37402F0E490007CF090D8
:102C94000042120926000000009000461209260096
:102CA40000000090002A120926000000009000266F
:102CB4001209260000000090002E120926000000D0
:102CC400009000BA7401F090004A12092600000036
:102CD4000090004E12092600000000E4900067F006
:102CE400A3F0A3F0A3F09001EAF0A304F0801790FE
:102CF40001D1E064086014C39001EBE09488900172
:102D0400EAE0941350051240D580E4C39001EBE04F
:102D140094889001EAE094134003024CC47F0E129D
:102D240028437F0D122843E4FF1228437F01122811
:102D3400437F021228437BFF7A4379077D021235D1
:102D440017124DAF124DAFE49001E2F09001E00490
:102D5400F01240D59001D1E0640860199001E2E0DE
:102D6400701375AA0575AA0A75A91F1240D590009B
:102D740094E070E022124CC47BFF7A43790D7D020B
:102D84001235179001EAE4F0A304F0C39001EBE0DC
:0F2D940094889001EAE0941350051240D580EC2A
:012DA300220D
:102DA400EFB401031200069000A4E0B4010E9000F9
:102DB40079E0B40107E4900094F0FF22900097E0DA
:102DC400B401037F002290009EE07011900099E00E
:102DD40070047D018002E4FD7F05123FD4E490007D
:102DE4009FF09000B3E0640160089000B2E06401D9
:102DF400701E7BFF7A4379137D011235177BFF7AAE
:102E04004379197D021235177BFF7A43791F802499
:102E14009000B4E06401702B7BFF7A4379137D0149
:102E24001235177BFF7A4379267D021235177BFF13
:102E34007A43792CE4FD123517E4FD7F06123FD462
:102E44007F002290009EE06003022F039000ABE01D
:102E54006401703D900077E064017035FFFEFDFC75
:102E6400900006E0F8A3E0F9A3E0FAA3E0FB120265
:102E7400AC701E90008BE0B40117900099E06011D3
:102E840090009BE0700B1217BF900094E07002FF5B
:102E94002290009DE060047D018002E4FD7F041225
:102EA4003FD490006FE0B401067D01E4FF800A90F6
:102EB400006FE070077D017F01123FD47F6F7E12A7
:102EC4007D037CBA900006E0F8A3E0F9A3E0FAA33E
:102ED400E0FB1202AC6021401F7F6F7E127D037CF9
:102EE4003A900006E0F8A3E0F9A3E0FAA3E0FB12AD
:102EF40002AC50047D018002E4FD7F02123FD4E461
:102F04009000ADF09000A9E06002801DE4FFFEFD9A
:102F1400FC900006E0F8A3E0F9A3E0FAA3E0FB12BA
:102F240002AC50051241C88003121EDD90009BE0E4
:102F34006066E4FFFE7DA07C4190002EE0F8A3E0F3
:102F4400F9A3E0FAA3E0FB12010690001EE0F8A347
:102F5400E0F9A3E0FAA3E0FB120015900090E0F87A
:102F6400A3E0F9A3E0FAA3E0FB1202AC401790003F
:102F740096E0701190008FE0606F9000A27401F0F1
:102F84004390208064900099E0700302300F900118
:102F9400E5E064017075806BE4FFFE7DA07C4190E8
:102FA400002EE0F8A3E0F9A3E0FAA3E0FB12010687
:102FB400900032E0F8A3E0F9A3E0FAA3E0FB1200EA
:102FC40015900090E0F8A3E0F9A3E0FAA3E0FB1267
:102FD40002AC4021900096E0701B90008FE06009E5
:102FE4009000A27401F04390209001E77401F090E6
:102FF40000A2F08016900099E060109001E5E0B422
:0E3004000109E49000A2F05390DFF07F00225B
:101EDD0090024F12092600000000900058E0FCE42B
:101EED001203239000D912091A7F007E007D207CF9
:101EFD00411239B7C004C005C006C00790005BE0B1
:101F0D00FCA3E0FDE412031ED003D002D001D000EB
:101F1D0012020FE4FBFA79107841120106C004C0D9
:101F2D0005C006C007900056E0FCA3E0FDE41203D7
:101F3D001ED003D002D001D0001200159002531212
:101F4D00091A900036E0F8A3E0F9A3E0FAA3E0FB4C
:101F5D0090000EE0FCA3E0FDA3E0FEA3E0FF120065
:101F6D001190024F12091A900012E0FCA3E0FDA39C
:101F7D00E0FEA3E0FF90024FE0F8A3E0F9A3E0FA42
:101F8D00A3E0FB1202AC60025026900253E0FCA3CA
:101F9D00E0FDA3E0FEA3E0FF90000AE0F8A3E0F966
:101FAD00A3E0FAA3E0FB1202AC600250030220A3EF
:101FBD009000A8E060030220A390009EE0701390B3
:101FCD00006CE004F0700690006BE004F07F0612E8
:101FDD00284390009E7401F0120000E4FD7F06126C
:101FED003FD47BFF7A437933E4FD12351790006EB1
:101FFD00E07BFFB401117A43793A7D011235177BED
:10200D00FF7A437940800F7A4379467D0112351767
:10201D007BFF7A4279EE7D021235179001D474015F
:10202D00F0E49001D6F09001D6E0700B75AA05751D
:10203D00AA0A75A91F80EF900036E0F8A3E0F9A376
:10204D00E0FAA3E0FB90000EE0FCA3E0FDA3E0FEB0
:10205D00A3E0FF12001190003EE0F8A3E0F9A3E029
:10206D00FAA3E0FB1202AC400302222E900036E0F0
:10207D00F8A3E0F9A3E0FAA3E0FB90000EE0FCA3C7
:10208D00E0FDA3E0FEA3E0FF12001190003E120957
:10209D001A7F06022843E490009EF090000AE0FCAF
:1020AD00A3E0FDA3E0FEA3E0FF900058E09000F058
:1020BD00F0A37401F0123EB590009DE07047FFFE55
:1020CD00FDFC90000AE0F8A3E0F9A3E0FAA3E0FB21
:1020DD001202AC7030FFFEFDFC900000E0F8A3E0B2
:1020ED00F9A3E0FAA3E0FB1202AC601940179000CF
:1020FD001612092600000000E4900076F09000A76B
:10210D00F0900076F090000AE0FCA3E0FDA3E0FE65
:10211D00A3E0FF90000012091AE4FFFEFDFC900001
:10212D000AE0F8A3E0F9A3E0FAA3E0FB1202AC7019
:10213D000E90009DE070089000B7E0700204F090E2
:10214D000075E0FBC39403900016E0FCA3E0FDA333
:10215D00E0FEA3E0FF50069000F0EB8007900076C4
:10216D00E09000F0F0A37402F0123EB590000AE08A
:10217D00FCA3E0FDA3E0FEA3E0FF900016E0F8A3B2
:10218D00E0F9A3E0FAA3E0FB12010690001A120990
:10219D001A900070E0FCE41203239000D912091A82
:1021AD007F007E007D207C411239B7A804A905AAC5
:1021BD0006AB077FF07E237D747C4912020F9000E1
:1021CD001AE0F8A3E0F9A3E0FAA3E0FB1202AC6079
:1021DD000D400B7BFF7A43794CE4FD023517E4FF8C
:1021ED00FEFDFC90001AE0F8A3E0F9A3E0FAA3E0ED
:1021FD00FB1202AC601D401B90001AE0FCA3E0FD39
:10220D00A3E0FEA3E0FF900070E09000F0F0E4A3E7
:10221D00F0800BE49000F0F0A3F0FFFEFDFC123E09
:01222D00B5FB
:01222E00228D
:1041C8009000AD7401F0E490009EF090009BE064D4
:1041D80001706790001EE0FCA3E0FDA3E0FEA3E0F1
:1041E800FF1213F2C004C005C006C007E4FFFE7D3D
:1041F800807CBF90000AE0F8A3E0F9A3E0FAA3E00E
:10420800FB120106A804A905AA06AB07D007D00629
:10421800D005D0041202AC6002501F90000AE0FCE6
:10422800A3E0FDA3E0FEA3E0FF900058E09000F0BB
:10423800F0A37401F0123EB5800B7BFF7A4379132B
:104248007D0112351790009DE060087BFF7A437965
:104258004C801F90001612092600000000E4900010
:1042680076F090001A120926000000007BFF7A43BE
:104278007953E4FD123517900075E0FBC394039061
:104288000016E0FCA3E0FDA3E0FEA3E0FF500690CB
:1042980000F0EB8007900076E09000F0F0A3740245
:0B42A800F0123EB5E4FD7F02023FD49F
:10338000E490025FF0A3F090009DE0900260600581
:103390007403F080037401F0E490025FF090026027
:1033A000E0FF90025FE0FEC3EF6480F8EE64809877
:1033B00050137F01123C5C90000612091A90025FC4
:1033C000E004F080D89000B3E0640160079000B2A0
:1033D000E0B4010B7BFF7A43795A7D0102351790E7
:1033E0000077E0B4010C90009BE07006900006129C
:1033F0003833900006E0FCA3E0FDA3E0FEA3E0FF6D
:1034000090000E12091A900006E0FCA3E0FDA3E074
:10341000FEA3E0FF90009012091A900006E0FCA3C2
:10342000E0FDA3E0FEA3E0FF900032E0F8A3E0F9A6
:10343000A3E0FAA3E0FB12001190000612091A9013
:103440000006E0FCA3E0FDA3E0FEA3E0FF90002265
:1034500012091A9000A9E0B4010590000E80509066
:10346000009BE0B40146900006E0FCA3E0FDA3E071
:10347000FEA3E0FF90009012091A900006E0FCA362
:10348000E0FDA3E0FEA3E0FF90001EE0F8A3E0F95A
:10349000A3E0FAA3E0FB12001190000612091A90B3
:1034A000009EE070077D017F03123FD4900006E08C
:1034B000FCA3E0FDA3E0FEA3E0FF1213F2900006E0
:1034C00012091AE4FFFEFDFC900006E0F8A3E0F903
:1034D000A3E0FAA3E0FB1202AC500D9000A9E0704B
:1034E0000790009F04F0801CE4FFFEFDFC900006A6
:1034F000E0F8A3E0F9A3E0FAA3E0FB1202AC700449
:1035000090009FF0900006E0FCA3E0FDA3E0FEA386
:06351000E0FFA312091AFE
:013516002292
:1013C10090002EE4FFFE7D407C40E0F8A3E0F9A30D
:1013D100E0FAA3E0FB120106A804A905AA06AB07DF
:1013E10090001EE0FCA3E0FDA3E0FEA3E0FF1200DD
:0113F10011EA
:0613F2009001EC12091A43
:1013F8009001F0120926000000009001F41209265D
:10140800000000009001F812092600000000900179
:10141800FC120926000000009002001209260000B4
:101428000000E4900204F0FFFEFDFC9001ECE0F8FF
:10143800A3E0F9A3E0FAA3E0FB1202AC5024900267
:10144800047401F09001ECE0FCA3E0FDA3E0FEA32E
:10145800E0FFE4FBFA798078BF1201069001EC12F4
:10146800091A90006DE07050900058E0FCE41203F7
:10147800239000D912091A7F007E007D207C41123A
:1014880039B7C004C005C006C00790005BE0FCA3E4
:10149800E0FDE412031ED003D002D001D0001202F6
:1014A8000F90020012091A90002EE0F8A3E0F9A3A9
:1014B800E0FAA3E0FB0216AC7FCD7ECC7DCC7C3D70
:1014C80090002AE0F8A3E0F9A3E0FAA3E0FB1201F8
:1014D800069001ECE0F8A3E0F9A3E0FAA3E0FB1220
:1014E80002AC600540030215959001F01209260030
:1014F80000000090005BE0FCA3E0FDE412031EC0C6
:1015080004C005C006C00790005FE0FCA3E0FDE44E
:1015180012031ED003D002D001D00012020F900196
:10152800F012091A900058E0FCE41203239000D945
:1015380012091A7F007E007D207C411239B7C00451
:10154800C005C006C00790005FE0FCA3E0FDE41200
:10155800031ED003D002D001D00012020F90020067
:1015680012091A9001F0E0FCA3E0FDA3E0FEA3E05D
:10157800FF90002EE0F8A3E0F9A3E0FAA3E0FB1245
:101588000106A804A905AA06AB070216AC7FCD7E02
:10159800CC7D4C7C3E90002AE0F8A3E0F9A3E0FA69
:1015A800A3E0FB1201069001ECE0F8A3E0F9A3E048
:1015B800FAA3E0FB1202AC6005400302165F90003C
:1015C8005BE0FCA3E0FDE412031EC004C005C006F6
:1015D800C00790005DE0FCA3E0FDE412031ED00309
:1015E800D002D001D00012020F9001F012091A9017
:1015F8000058E0FCE41203239000D912091A7F0076
:101608007E007D207C411239B7C004C005C006C0E9
:101618000790005DE0FCA3E0FDE412031ED003D0B8
:1016280002D001D00012020F90020012091A900194
:10163800F0E0FCA3E0FDA3E0FEA3E0FF90002EE0B5
:10164800F8A3E0F9A3E0FAA3E0FB120106A804A9B5
:1016580005AA06AB07804D900058E0FCE41203236E
:101668009000D912091A7F007E007D207C41123932
:10167800B7C004C005C006C00790005BE0FCA3E04B
:10168800FDE412031ED003D002D001D00012020FD5
:1016980090020012091A90002EE0F8A3E0F9A3E0E6
:1016A800FAA3E0FB9001ECE0FCA3E0FDA3E0FEA3BD
:1016B800E0FF12020F9001F812091A9001F8E0FCFD
:1016C800A3E0FDA3E0FEA3E0FF1203579001FC1284
:1016D800091A9001F8E0FCA3E0FDA3E0FEA3E0FFF7
:1016E800C004C005C006C007A3E0FCA3E0FDA3E05A
:1016F800FEA3E0FFEC120319A804A905AA06AB078C
:10170800D007D006D005D0041200119001F81209B4
:101718001A9001FCE0F8A3E0F9A3E0FAA3E0FBC00B
:1017280000C001C002C003E4FFFEFD7C409001F848
:10173800E0F8A3E0F9A3E0FAA3E0FB120106120324
:1017480057D003D002D001D000EB2FFFEA3EFEE9CC
:101758003DFDE83CFC9001FC12091A9001FCE0FCFC
:10176800A3E0FDA3E0FEA3E0FFEC12031990020042
:10177800E0F8A3E0F9A3E0FAA3E0FB120106900168
:10178800F412091A900204E0601E9001F4E0FCA330
:10179800E0FDA3E0FEA3E0FFE4FBFA798078BF1246
:1017A80001069001F412091A9001F4E0FCA3E0FD8F
:0617B800A3E0FEA3E0FF28
:0117BE002208
:1017BF009001A2120926000000009001A61209262E
:1017CF00000000009001AA12092600000000E4901A
:1017DF0001AEF0A3F0A304F078C17C01FD7BFF7A8A
:1017EF004379727E007F061206D278C77C017D0195
:1017FF007BFF7A4379787E007F071206D2E490014F
:10180F00CEF0A3F0A3F078B17C017D017BFF7A438A
:10181F007960120A6990002EE0FCA3E0FDA3E0FEC0
:10182F00A3E0FF1213F29001AA12091A9001D874C3
:10183F0001F0E49001DAF09001AEF0A3F09001AE68
:10184F00E0FEA3E0FFC3940BEE648094805061C36D
:10185F00EF9405EE6480948050199001AEA3E024BC
:10186F00B1F58274013EF583E0FD74C12FF58274EA
:10187F00018028C39001AFE0940B9001AEE064802B
:10188F009480501CE0FEA3E0FF24B1F58274013E6A
:10189F00F583E0FD74C22FF58274013EF583EDF000
:1018AF009001AFE004F070959001AEE004F0808DF0
:1018BF00E49000A2F05390DFFD7F06123FD47BFF30
:1018CF007A4379137D021235177BFF7A43794CE403
:1018DF00FD123517E49000F0F0A304F07F007E00B6
:1018EF007D007C00123EB59001B0E07003021B4DED
:1018FF00900094E070079001B0F0021B229001DA83
:10190F00E07003021B14E4FF123C5C9001A2120969
:10191F001A900077E0B4010C90009BE070069001E4
:10192F00A21238339001A2E0FCA3E0FDA3E0FEA3D6
:10193F00E0FF90000E12091A9001A2E0FCA3E0FD57
:10194F00A3E0FEA3E0FF900032E0F8A3E0F9A3E0EC
:10195F00FAA3E0FB1200119001A212091A9001A242
:10196F00E0FCA3E0FDA3E0FEA3E0FFA312091A90A1
:10197F0001A2E0FCA3E0FDA3E0FEA3E0FF1213F23F
:10198F009001A212091A9001AAE0FCA3E0FDA3E0C6
:10199F00FEA3E0FF9001A2E0F8A3E0F9A3E0FAA311
:1019AF00E0FB1202AC502BE4FFFE7D807CBF900168
:1019BF00AAE0F8A3E0F9A3E0FAA3E0FB1201069076
:1019CF0001A2E0F8A3E0F9A3E0FAA3E0FB1202AC56
:1019DF005007E49001B0F0800E120003EF6008E4AE
:1019EF009001B0F0124E999001B0E07003021B22EB
:1019FF001200009001D0EFF060051200008005E4A6
:101A0F009001B0F0900097E06003021B079001B1C6
:101A1F00E09001CEF0E49001AEF0A3F09001AEE0C3
:101A2F00FEA3E0FF24B2F58274013EF583E0FD745E
:101A3F00B12FF58274013EF583EDF09001AFE00414
:101A4F00F070069001AEE004F09001AEE07004A3D8
:101A5F00E0640E70C79001CEE09001BBF0E49001FE
:101A6F00AEF0A3F09001AEE0FEA3E0FFC3940BEE47
:101A7F00648094805061C3EF9405EE64809480502D
:101A8F00199001AEA3E024B1F58274013EF583E015
:101A9F00FD74C12FF58274018028C39001AFE094CB
:101AAF000B9001AEE064809480501CE0FEA3E0FF39
:101ABF0024B1F58274013EF583E0FD74C22FF582E7
:101ACF0074013EF583EDF09001AFE004F070959056
:101ADF0001AEE004F0808D7BFF7A43796C7D0112BB
:101AEF0035177B017A0179C17D021235177B017A97
:101AFF000179C7E4FD1235179001D87401F0E49015
:101B0F0001DAF0800E120003EF6008E49001B0F0EC
:101B1F00124E99900094E070049001B0F09000A4E0
:101B2F00E0640160030218F6900079E0640160033D
:101B3F000218F6900094F09001B0F00218F69000A1
:101B4F00A2E0600F90008FE060099000A27401F096
:101B5F004390209001A6E0FCA3E0FDA3E0FEA3E0EC
:011B6F00FF76
:011B70002252
:10000E000203C3E86480F8E933E83360110460F05A
:10001E00ED33EC337009E8FCE9FDEAFEEBFF220458
:10002E0060DED3EB9FEA9EE99DE8C2E78CF0C2F753
:10003E0095F0400CE8CCF8E9CDF9EACEFAEBCFFB1F
:10004E0012038E85D0F05804700320D5B3E80470E7
:10005E00075002B2D50203CD92D5EC0460F7E4CC82
:10006E00C0E0C398F8603B94186008400DD0E0FBE8
:10007E000203A5E4FBFAC9FC8028E830E406E4C9D3
:10008E00FBE4CAFCE830E305E4C9CACBFCE854073C
:10009E006010F8C3E913F9EA13FAEB13FBEC13FC47
:1000AE00D8F130F52FC3E49CFCEF9BFFEE9AFEEDEA
:1000BE0099FDD0E0FBEF4E4D4C701222DB03020394
:1000CE00CAEC2CFCEF33FFEE33FEED33FDED30E7E3
:1000DE00EB0203A5EF2BFFEE3AFEED39FDD0E0FB70
:1000EE0050130BBB00030203CDED13FDEE13FEEF19
:0800FE0013FFEC13FC0203A543
:10010600EC4D6011E8497017ED33EC3304600DE4F3
:10011600FCFFFEFD22E933E8330470F80203C31244
:10012600038E58046009E4CC248150062850090245
:1001360003CD2840030203CAC0E0EB4A7044B980ED
:1001460006D0E0FB0203B9EF4E701CBD8008EBFF42
:10015600EAFEE9FD80EBE98DF0A4FEE5F00201EF91
:10016600E9CDF9EAFEEBFFEF89F0A4FCE5F0CE89D4
:10017600F0A42EFFE435F0CD89F0A42DFEE435F091
:100186008067EF4E7005BD80D780C3EF8BF0A4ACBF
:10019600F0EE8BF0A42CFCE435F0F8EF8AF0A42CFA
:1001A600E5F038FCE433CB8DF0A42CFCE5F03BF80D
:1001B600EE8AF0A42CFCE5F038F8E433CF89F0A4FD
:1001C6002CFCE5F038CF3400CE89F0A42FFFE5F003
:1001D6003EFEE433C98DF0A42EFEE5F039CD8AF05B
:1001E600A42FFFE5F03EFEE43DFD33D0E0FB5007D3
:1001F6000BBB000F0203CDEC2CFCEF33FFEE33FEFE
:06020600ED33FD0203A52B
:10020C000203CDEC5D046005E8590470030203C3DE
:10021C0012038E580460F6EC4860F2EC7004FDFE9C
:10022C00FF22C860DB2481C85009C39860025006C5
:10023C000203CA9850CAF582E9294B4A7005AB8271
:10024C000203B975F0007C1A7880C3EF9BEE9AED2F
:10025C0099400DC3EF9BFFEE9AFEED99FDE842F03D
:10026C00DC23ACF0D0E0FFD0E0FED0E0FDAB822090
:10027C00E7101BEB60BAEC2CFCEF33FFEE33FEED1A
:10028C0033FD0203A5E803F830E705C0F075F00074
:10029C00EF2FFFEE33FEED33FD40B830E7C280AAFE
:1002AC0074F8CC6480CCC86480C8F582046043C305
:1002BC00EB9FF5F0EA9E42F0E99D42F0E89C45F098
:1002CC0060305018E5825FFFE582F42B5582FB50BD
:1002DC00210ABA001D09B90019088016E5825BFBDA
:1002EC00E582F42F5582FF50090EBE00050DBD00AE
:1002FC00010CC3EB9FF5F0EA9E42F0E99D42F0E859
:0D030C009C45F06007CC4820E701B3EC22CF
:1003190075F020800E75F010800575F0087D007E5F
:10032900007F003392D530D503120832EC334010E8
:10033900EF33FFEE33FEED33FDEC33FCD5F0ED2268
:0E034900E5F0247EA2D513CC92E7CDCEFF22A4
:10035700EDD2E7CD33EC3392D524814006E4FFFE9E
:10036700FDFC22FCE4CFCECDCC24E0501174FF80FD
:10037700EDC3CC13CCCD13CDCE13CECF13CF04709A
:07038700F030D5DE02083260
:100AEE00E50824FDF582E43400F583E00508229044
:100AFE0000FA3007039000FDE475F0011209570269
:100B0E0006F82000E97F2ED2008018EF540F2490B3
:100B1E00D43440D4FF30040BEF24BFB41A0050037A
:100B2E002461FFE50960021509050CE50C7002054C
:100B3E000B30070E9000FAE475F001120957EF0220
:100B4E00073E024D6B7403D2078003E4C207F5081B
:100B5E009000FA12096EE4F509F50BF50CE5096043
:100B6E00077F20120B3180F5750AFFC201C200C249
:100B7E0002C203C205C206C208120AFDFF700D3082
:100B8E0007057F00120B42AF0CAE0B22B4255FC2DD
:100B9E00D5C204120AFDFF24D0B40A00501A75F013
:100BAE000A780930D50508B6FF0106C6A426F62038
:100BBE00D5047002D20380D924CFB41A00EF5004AA
:100BCE00C2E5D204020E34D20180C6D20080C0D259
:100BDE000280BCD2D580BAD20580B47F20120B31F0
:100BEE002002077401B5090040F1120AEEFF120B44
:100BFE0031020B6BD208D2068095120AEEFB120A56
:100C0E00EEFA120AEEF94A4B700679327A0F7BFF32
:100C1E0020022EE509602A7E008E8275830012075F
:100C2E001160060EEE650A70F0C2D5EBC0E0EAC0A8
:100C3E00E0E9C0E0EE120E95D0E0F9D0E0FAD0E097
:100C4E00FB1206F8FF60AAEBC0E0EAC0E0E9C0E0E4
:100C5E00120B31D0E02401F9D0E03400FAD0E0FBE1
:100C6E00E50A0460DCD50AD98087D20280A2120E72
:100C7E007760F7E50A700104120403A90A600DE516
:100C8E000A600914F50A120F1FEF60F3EA30E7024B
:100C9E00F404C3995079EAF4250A0430E701E40418
:100CAE00F50A800D120E7760C1EA050A250A1204B4
:100CBE0003EA900129F030E701E4250A04D50A047D
:100CCE0020050114120E95E4C0E0120F1F900129A9
:100CDE00E0601320E70714F0120B19802204F0D005
:100CEE00E014C0E07F00120B19E50A6007120B102A
:100CFE00150A800B300503120B10D0E0020B6BD0DF
:100D0E00E00480C4120E77609EE50A04120403907C
:100D1E000129EAF0E50A2005026001042404120EFE
:010D2E00952F
:100D2F0074FF04C0E0120F1F120B19E50A20050211
:100D3F006003120B10D0E0B50AE87F45120B239029
:100D4F000129E07F2B30E7047F2DF404C0E0120B64
:100D5F0031D0E075F00A84C0F0120B1AD0E0120BFC
:100D6F001A020B6B791080027908C206C20880083C
:100D7F00D2D5790A8004790AC2D5E50A047002F542
:100D8F000AE4FAFDFEFF120AEEFC7B0820011312A3
:100D9F000AEEFD7B1030000A120AEEFE120AEEFF79
:100DAF007B20EC3382D592D55013C3E43000069FDD
:100DBF00FFE49EFEE42001039DFDE49CFCE4CBF8E0
:100DCF00C201EC700CCFCECDCCE824F8F870F380D4
:100DDF0017C3EF33FFEE33FEED33FDEC33FCEB3394
:100DEF00FB994002FB0FD8E9EB300105F8D0E0C4C6
:100DFF0048B201C0E00AEC4D4E4F78207B0070C224
:100E0F00EAB50A0040BCC0E0120E97D0F0D0E02047
:100E1F000104C4C0E0C4B201C0F0120B1AD0F0D567
:100E2F00F0EB020B6B1209770C08530D73580BD9AB
:100E3F004C0BD5420D774F0D7F440D7F490BEE4381
:100E4F000D85550CB2460D12450C7C470F52500BB9
:100E5F00DD2D0BE12E0C042B0BE5230C02200F3B99
:100E6F002A0B9D4800000BFCE50AB4FF03750A0628
:100E7F00120AEEFC120AEEFD120AEEFE120AEEFF45
:100E8F00900122020440790AA2D5200314300509EB
:100E9F00B910020404B9080104A2D52006025001BA
:100EAF00042002689202B509005034C0E07F203060
:100EBF0003197F30A20272067205500F120EEEC296
:100ECF0002C206C205C2087F30800F300503E9C099
:100EDF00E0120B31300503D0E0F9D0E0B509CC308A
:100EEF0005177F30B9100C120B317F583004077F74
:100EFF00788003B90803120B313002057F2D020BE6
:100F0F00317F202008F87F2B2006F322920280CF1A
:100F1F007F00B40700500B2422F582E43401F583DF
:100F2F00E0FF22286E756C6C2900D201120AEE3098
:100F3F0001F8C201780930D50108F6020B9D2D503A
:100F4F00434958120AEE2403B405004001E4900F00
:100F5F004D93120B22743A120B22D203750904021D
:020F6F000D7300
:1039B7009000D512091AE4FFFE7D807C3F9000D568
:1039C700E0F8A3E0F9A3E0FAA3E0FB1202AC70066B
:1039D7009000D5023B119000D5E0FCA3E0FDA3E0E9
:1039E700FEA3E0FF1203D8FBA3E0FCA3E0FDA3E0E6
:1039F700FEA3E0FF1203D8FFB40108E4FFFE7D80B9
:103A07007C3F22EF64046029EB64046024EBB4017B
:103A170030E4FFFEFDFC9000D9E0F8A3E0F9A3E055
:103A2700FAA3E0FB1202AC60084006E4FFFEFDFCCF
:103A3700229000D9120926FFFFFFFF9000D9023B11
:103A470011E49000DDF0A3F0FFFEFDFC9000D5E04F
:103A5700F8A3E0F9A3E0FAA3E0FB1202AC505F90F1
:103A670000D9E0FCA3E0FDA3E0FEA3E0FF120357AB
:103A77009000DDEEF0A3EFF0FDCCEECCEC12031ED0
:103A8700C8ECC8C9EDC9CAEECACBEFCB9000D9E0E4
:103A9700FCA3E0FDA3E0FEA3E0FF120011E4FBFAA4
:103AA700F9F81202AC708A9000D5E0FCA3E0FDA300
:103AB700E0FEA3E0FF1203F29000D512091A90006E
:103AC700D5E0FCA3E0FDA3E0FEA3E0FF123DC0901C
:103AD70000D9E0F8A3E0F9A3E0FAA3E0FB1201069E
:103AE70012478F9000D912091A9000DEE030E017D4
:103AF7009000D9E0FCA3E0FDA3E0FEA3E0FF1203E2
:103B0700F29000D912091A9000D9E0FCA3E0FDA3B6
:063B1700E0FEA3E0FF2226
:10038E00E9D2E7C933E833F892D5EDD2E7CD33ECB5
:07039E0033FC5002B2D5222E
:1003A500EC30E7100FBF000C0EBE00080DBD0004B9
:1003B5000BEB6014A2D5EB13FCED92E7FD2274FF65
:1003C500FCFDFEFF22E480F8A2D574FF13FC7D80BE
:0303D500E480EFD2
:1003D800ED33EC33601004700FED547F7005740238
:0A03E80092E0227404220422E422B1
:1003F200ED33EC33600A047003BD8004ECB2E7FC19
:0104020022D7
:10040300F920E73624F950037907E4F42402FBE5E5
:1004130082158270021583DBF6E024FB501BE96032
:1004230014E4F0E582158270021583E004F0B40A47
:0D04330008E4F0D9EE7401F00A22C2D522CF
:10044000ED33EC3392D5FA602AB4FF33EDC2E77B8B
:10045000FF60067A047965E4227A04796E20D50477
:100460007A047969224E614E002B494E46002D498F
:100470004E4600E47A08F0A3DAFC7B00740722C041
:1004800083C082ECC0E0EDC0E0EEC0E0EFC0E0EA87
:1004900075F010A4CAABF075F04DA42BFBE435F059
:1004A000FCEA2410FAEB34C5FBEC34D9FCEDC2E7CE
:1004B000FF75F056A4F42411C5F0F434C58FF0A4F0
:1004C0002AE5F03BE43CF020E714120575D0E0FF8C
:1004D000D0E0FED0E0FDD0E0FC12020F8014F40466
:1004E000120575D0E0FFD0E0FED0E0FDD0E0FC12B8
:1004F0000106D082D083E0FAEDD2E7CD33EC33248D
:1005000082FBE4C3CF33CFCE33CECD33CD33DBF359
:100510007B0775F00A846004F0A31B0AE5F0F0A3E2
:100520008FF0740AA4FFACF08EF0740AA42CFEAC19
:10053000F050010C8DF0740AA42CFDE435F0F0A30A
:05054000DBDE74072260
:1047570033DA929E35B16011377FE5FE39218489BE
:104767003AAEC3FF3C1D955B3D6358473E75FDF070
:104777003F3172183F800000C2D50203CD0203C348
:10478700BD80FA50F30203CAED33EC330460F17BCA
:104797003B7AAA79B8783F120106ED33EC3392D50C
:1047A700247B5011A2D570DB500BED4480240450BC
:1047B70004A2D580CEEFFBEEFAEDF9ECF812035721
:1047C700EFF582F404FC120323120015C082904710
:1047D7005774091205C4ED33CC33D0F092D525F0C8
:0A47E700A2D57001C313CC13FD220C
:103D8C003E9248DA3ECCCCCD3F2AAAAB4000000094
:103D9C003F8000003F9837F03FB504F33FD744FC19
:103DAC003E3172173EB172173F0515913EDE5BD95D
:103DBC00D2008002C200EDD2E7F8CD33EC330470B0
:103DCC000BBD800592D50203CD0203C340FBD31477
:103DDC0060F2F5F07C3FEE7A00C39496C8948B4069
:103DEC00230AC89469C8941A401A0AC89468C894DB
:103DFC001F40110AC8945AC89425400805F07A004F
:103E0C00CDC2E7CDC0F09000DF12091AEA2323C01F
:103E1C00E0249CF582E4343DF58312090A12001566
:103E2C00ECC0E0EDC0E0EEC0E0EFC0E01208EE90B8
:103E3C0000DF1208FE120011D0E0FBD0E0FAD0E057
:103E4C00F9D0E0B2E7F812020F9000DF12091A90D5
:103E5C003D8C74031205B59000DF1208FE120106AA
:103E6C00D0E0600F24A8F582E4343DF58312090AF2
:103E7C001200159000DF12091AD0E0C3947FFDE404
:103E8C009400FC12031E7B187A727931783F120170
:103E9C00069000DF1208FE12001530000B7BD97A59
:093EAC005B79DE783E120106226A
:100545003F8000004120000042C80000447A0000BE
:10055500461C400047C35000497424004B18968040
:100565004CBEBC205A0E1BCA6753C21C749DC5AE37
:10057500FB60065407601C23231205A3EB54386067
:100585000912058F12059E120106ECF8EDF9EEFA37
:10059500EFCB22EB12059E80F1543803241C900505
:1005A50045FE93FC0EEE93FD0EEE930ECE93FF22C9
:1005B500C0E0EFFBEEFAEDF9ECF8120106D0E0F53C
:1005C500F0EFFBEEFAEDF9ECF81208EEA3A3A3A306
:1005D500E8C0E0E9C0E0EAC0E0EBC0E0C0F012012D
:1005E5000612090AA3A3A3A3120015D0F0D0E0FBBD
:0D05F500D0E0FAD0E0F9D0E0F8D5F0D42243
:030000000247F1C3
:0C47F100787FE4F6D8FD7581210248387D
:10060200E709F608DFFA8046E709F208DFFA803EDA
:1006120088828C83E709F0A3DFFA8032E309F608C7
:10062200DFFA8078E309F208DFFA807088828C832F
:10063200E309F0A3DFFA806489828A83E0A3F608E3
:10064200DFFA805889828A83E0A3F208DFFA804CBD
:1006520080D280FA80C680D4806980F28033801094
:1006620080A680EA809A80A880DA80E280CA8033FD
:1006720089828A83ECFAE493A3C8C582C8CCC58375
:10068200CCF0A3C8C582C8CCC583CCDFE9DEE78045
:100692000D89828A83E493A3F608DFF9ECFAA9F0C4
:1006A200EDFB2289828A83ECFAE0A3C8C582C8CC1A
:1006B200C583CCF0A3C8C582C8CCC583CCDFEADE33
:1006C200E880DB89828A83E493A3F208DFF980CC95
:1006D20088F0EF60010E4E60C388F0ED2402B4048E
:1006E2000050B9F582EB2402B4040050AF23234535
:0606F20082239006527302
:1006F800BB010689828A83E0225002E722BBFE0200
:09070800E32289828A83E4932232
:10071100BB010CE58229F582E5833AF583E022509D
:1007210006E92582F8E622BBFE06E92582F8E222E7
:0D073100E58229F582E5833AF583E4932201
:10073E00BB010689828A83F0225002F722BBFE019A
:02074E00F32294
:10075000EF8DF0A4A8F0CF8CF0A428CE8DF0A42EBD
:02076000FE2277
:10076200BC000BBE0029EF8DF084FFADF022E4CC7B
:10077200F875F008EF2FFFEE33FEEC33FCEE9DEC44
:10078200984005FCEE9DFE0FD5F0E9E4CEFD22ED8A
:10079200F8F5F0EE8420D21CFEADF075F008EF2FD4
:1007A200FFED33FD4007985006D5F0F222C398FDC5
:0507B2000FD5F0EA2262
:1007B700C5F0F8A3E028F0C5F0F8E58215827002CD
:0607C7001583E038F0226A
:1007CD00A3F8E0C5F025F0F0E582158270021583DF
:0607DD00E0C838F0E8223C
:1007E300E88FF0A4CC8BF0A42CFCE98EF0A42CFCB5
:1007F3008AF0EDA42CFCEA8EF0A4CDA8F08BF0A433
:100803002DCC3825F0FDE98FF0A42CCD35F0FCEB91
:100813008EF0A4FEA9F0EB8FF0A4CFC5F02ECD3956
:0F082300FEE43CFCEAA42DCE35F0FDE43CFC22C3
:0E083200C3E49FFFE49EFEE49DFDE49CFC22D7
:10084000EB9FF5F0EA9E42F0E99D42F0EC6480C82F
:0608500064809845F022CF
:10085600EB9FF5F0EA9E42F0E99D42F0E89C45F0F8
:01086600226F
:10086700E8600FECC313FCED13FDEE13FEEF13FF6F
:03087700D8F12293
:10087A00BB010789828A83020ABE5005E9F8020A87
:10088A00B2BBFE05E9F8020ACA89828A830208EE27
:10089A00BB010DE58229F582E5833AF583020ABE9A
:1008AA005007E92582F8020AB2BBFE07E92582F859
:1008BA00020ACAE58229F582E5833AF5830208EE3F
:1008CA00BB010DE58229F582E5833AF58302091A0F
:1008DA005007E92582F8020AD6BBFE07E92582F805
:0408EA00020AE222FA
:1008EE00E493FC740193FD740293FE740393FF2250
:0C08FE00E0F8A3E0F9A3E0FAA3E0FB227D
:10090A00E493F8740193F9740293FA740393FB2243
:0C091A00ECF0A3EDF0A3EEF0A3EFF02250
:10092600A8828583F0D083D08212093D12093D1238
:10093600093D12093DE473E493A3C583C5F0C5835D
:10094600C8C582C8F0A3C583C5F0C583C8C582C81B
:01095600227E
:10095700F8E0FBA3A3E0F925F0F0E5821582700229
:070967001583E0FA38F022CD
:09096E00EBF0A3EAF0A3E9F0228A
:10097700D083D082F8E4937012740193700DA3A30F
:1009870093F8740193F5828883E473740293686023
:06099700EFA3A3A380DF23
:104D6B00EFB40A07740D124D76740A309811A89996
:104D7B00B8130CC2983098FDA899C298B811F630A8
:074D8B0099FDC299F5992280
:10099D00E709F60870FA8046E709F20870FA803E1A
:1009AD0088828C83E709F0A370FA807EE309F6084C
:1009BD0070FA8076E309F20870FA806E88828C8373
:1009CD00E309F0A370FA806289828A83E0A3F608B6
:1009DD0070FA805689828A83E0A3F20870FA804A01
:1009ED0080D280FA80C680D4806580F280318010FC
:1009FD0080A680EA809A80A880DA80E280CA803161
:100A0D0089828A83ECFAE493A3C8C582C8CCC583D6
:100A1D00CCF0A3C8C582C8CCC583CC70E9800D8944
:100A2D00828A83E493A3F60870F9ECFAA9F0EDFB42
:100A3D002289828A83ECFAE0A3C8C582C8CCC5831B
:100A4D00CCF0A3C8C582C8CCC583CC70EA80DD8943
:100A5D00828A83E493A3F20870F980CE88F0ED24A6
:100A6D0002B4040050C4F582EB2402B4040050BA61
:090A7D0023234582239009ED7347
:100A8600EF4E6012EF60010EEDBB010B89828A8387
:100A9600F0A3DFFCDEFA2289F05007F709DFFCA994
:0C0AA600F022BBFEFCF309DFFCA9F022EB
:1047FD00024BFEE493A3F8E493A34003F68001F289
:10480D0008DFF48029E493A3F85407240CC8C333BC
:10481D00C4540F4420C8834004F456800146F6DF8B
:10482D00E4800B010204081020408090461DE47EB8
:10483D00019360BCA3FF543F30E509541FFEE49380
:10484D00A360010ECF54C025E060A840B8E493A347
:10485D00FAE493A3F8E493A3C8C582C8CAC583CA72
:10486D00F0A3C8C582C8CAC583CADFE9DEE780BE2A
:0146BA0000FF
:0C0AB200E6FC08E6FD08E6FE08E6FF2270
:0C0ABE00E0FCA3E0FDA3E0FEA3E0FF22AB
:0C0ACA00E2FC08E2FD08E2FE08E2FF2268
:0C0AD600ECF608EDF608EEF608EFF6224C
:0C0AE200ECF208EDF208EEF208EFF22250
:00000001FF
