:10358700123B22123AD6123B60123A9F123B391273
:103597003706122182900052E0FCA3E0FDE41203FB
:1035A7001E9000EA7402F0E4A3F0122CF57FB87EB7
:1035B7000B123A14900052E07004A3E0641E6005F9
:1035C7007F02121F39E4FFFE7D807C3F90002EE0D2
:1035D700F8A3E0F9A3E0FAA3E0FB1202AC50031250
:0735E70016A612302380FB41
:103A9F005390DF5390EF4394205395DFE4F59A75DD
:0C3AAF009BA0759C6C759D50759E0422B8
:103B2200C2AF75AA0575AA0A75A91FD2AF75AA05F3
:073B320075AA0A75A91F2204
:103AD60075800C75904075A0117592F0E4F593759C
:0A3AE60094BFF5957596EEF5972252
:0A3B60005392DF439320438020229C
:103B390075A88275B802E4F589F58A758C7F758E4A
:053B4900044388102276
:103ABB00E4FFFE75AB09E5AB20E20843AB04E5ABD5
:0A3ACB0020E2FBAFAC7E0053ABF726
:013AD50022CE
:03000B0002341CA0
:10341C00C0E0C083C082C0D075D000C006C0079089
:10342C000190E0FEA3E0FFD39400EE9400402EEF59
:10343C0094C8EE94005026EF64014E700343901034
:10344C00900191E004F07006900190E004F090017E
:10345C0090E07004A3E064C870035390EF90019463
:10346C00E0FEA3E0FFD39400EE94004013EF9488A9
:10347C00EE9413500BE004F07006900194E004F00D
:10348C00758ACF758CB5438810D007D006D0D0D0B4
:06349C0082D083D0E03273
:1024E2009001817474F0A3E4F09001871209143D05
:1024F200F5C28FE490018BF0A3F09001A474AAF0CE
:102502009001A57455F0E4FFFE7D707C4190018737
:10251200E0F8A3E0F9A3E0FAA3E0FB1202AC400367
:1025220002267790018BE4F0A304F090018BE0FE89
:10253200A3E0FFC3940BEE940050CBEF7802C333B9
:10254200CE33CED8F9FF900182E02FFF900181E0D7
:102552003EFEC006C007900187E0FCA3E0FDA3E0B9
:10256200FEA3E0FF9000D1120908D007D006123571
:102572001D90018BE0FEA3E07802C333CE33CED8A8
:10258200F9FF900182E02FFF900181E03ECF24FC11
:10259200CF34FFFE12383B90018312090890018369
:1025A200E0FCA3E0FDA3E0FEA3E0FF9000EA7402DA
:1025B200F0A314F0122CF590018BE0FEA3E0780258
:1025C200C333CE33CED8F9FF900182E02FFF9001C2
:1025D20081E03EFE12383B9001831209089001838C
:1025E200E0FCA3E0FDA3E0FEA3E0FF9000EA74029A
:1025F200F0E4A3F0122CF590018BE0FEA3E0780248
:10260200C333CE33CED8F9FF900182E02FFF900181
:1026120081E03ECF2404CF3400FE12383B90018388
:10262200120908900183E0FCA3E0FDA3E0FEA3E011
:10263200FF9000EA7402F0A3F0122CF5900187E0FB
:10264200FCA3E0FDA3E0FEA3E0FFE4FBFA798078BF
:102652003F1200159001871209087FE87E03123AA3
:102662001490018CE004F0600302252D90018BE0B0
:1026720004F002252DE49001A4F09001A5F00239A6
:01268200C097
:1039640025362E30660025352E306600464C4F41F4
:10397400540025362E31660025372E326600253652
:103984002E32660025372E33660025362E33660028
:103A6400E4FEEF20E70553A0F7800343A00853A02A
:0D3A7400FB43A004EF25E0FF0EEEB408E5D3
:013A81002222
:1037060043A00243A00443A008E4900162F0A3048E
:10371600F0FDFB1231D174031231C974281231C97C
:1037260090016374291231CC9001627401F07E001D
:103736007F107D00FB7A01796412098B78F97C0091
:103746007D017B017A0179627E007F121206D20228
:0237560031E060
:1031C900900163F07D017B0178F97C007A017962D5
:0731D9007E007F121206D2F6
:1031E000E4FDFE43A00243A00443A00853A0FD5306
:1031F000A0FB43A00453A0F753A0FB43A0049000FE
:10320000F9E0FF700553A0F7800343A00853A0FB2B
:1032100043A004EF70109000FAE0FF123A6453A04C
:10322000FB43A004803FE4FEFD53A0FBEE20E70536
:1032300053A0F7800343A00843A004EE25E0FE0D51
:10324000EDB406E5E4FDEDFFC3740F9FFFE49400C9
:10325000FE74FB2FF58274003EF583E0FF123A64A2
:0E3260000DEDB410E143A00243A00843A0040A
:01326E00223D
:1038C1009001627401F07E007F107D00FB7A017926
:1038D1006412098B1231CDE4900162F0A3740212DB
:1038E10031CCE4900163F078F97C007D017B017AB1
:0C38F100017962FE7F121206D20231E063
:1039C0009001627401F07E007F107D00FB7A017926
:1039D0006412098B78F97C007D017B017A017962A0
:0A39E0007E007F121206D20231E0D1
:1039EA009001627401F07E007F107DFFFB7A0179FD
:1039FA006412098B78F97C007D017B017A01796276
:0A3A0A007E007F121206D20231E0A6
:10393200E4FEEDB40100EDB402027E0BED70027EF6
:1039420005C374059B2EFE2464F582E43401F583DD
:10395200E05480F074642EF582E43401F583E04F84
:01396200F074
:013963002241
:10311600AC07ED700302319C24FE6040046003029C
:1031260031C6ECB40311EB900165B40106E04480AE
:10313600F08004E0547FF0ECB40211EB900166B429
:103146000106E04480F08004E0547FF0EC640170F6
:103156006FEB900167B40102805C8060ECB40311F0
:10316600EB900170B40106E04480F08004E0547FE7
:10317600F0ECB40211EB900171B40106E04480F06A
:103186008004E0547FF0EC64017035EB900172B47A
:10319600010280228026ECB40211EB90016BB4018F
:1031A60006E04480F08004E0547FF0ECB40111EBBB
:1031B60090016CB40106E04480F08004E0547FF096
:0331C600023AF0DA
:102F2200EF24FEB40900400302301A902F3B75F0E3
:102F320003A4C58325F0C58373022F93022F870252
:102F42002F9E022FA9022FB4022F63022F6F022F8E
:102F52007B022F56ED900169B40103022FE6023085
:102F620016ED90016DB40102807A023016ED9001E7
:102F72006AB40102806E023016ED90016EB4010255
:102F82008062023016ED900168B401028056023070
:102F920016ED900164B40102804A8078ED900173CD
:102FA200B40102803F806DED90016FB40102803464
:102FB2008062ED64019001697030E04480F090011C
:102FC2006DE04480F090016AE04480F090016EE090
:102FD2004480F0900164E04480F090016FE044800E
:102FE200F0900173E04480F0802EE0547FF0900175
:102FF2006DE0547FF090016AE0547FF090016EE042
:10300200547FF0900164E0547FF090016FE0547FB0
:10301200F0900173E0547FF09001627401F0023A83
:01302200F0BD
:062CF5009000E612090840
:102CFB009000EAE0703BA3E09000F7700C74FFF0DB
:102D0B00A37439F0A37464800A74FFF0A37439F0D0
:102D1B00A3746AF09000E6E0FCA3E0FDA3E0FEA341
:102D2B00E0FF9000FA1209087B017A0079EC120A95
:102D3B00589000EAE06401703CA3E09000F7700D3E
:102D4B0074FFF0A37439F0A37470F0801F74FFF05C
:102D5B00A37439F0A37476F09000E6E0FCA3E0FDD9
:102D6B00A3E0FEA3E0FF9000FA1209087B017A00B2
:102D7B0079EC120A589000EAE06402703BA3E090F1
:102D8B0000F7700C74FFF0A37439F0A3747C800A05
:102D9B0074FFF0A37439F0A37482F09000E6E0FCAA
:102DAB00A3E0FDA3E0FEA3E0FF9000FA1209087B6D
:102DBB00017A0079EC120A589000EAE06403703B48
:102DCB00A3E09000F7700C74FFF0A37439F0A374B8
:102DDB0088800A74FFF0A37439F0A3748EF090000E
:102DEB00E6E0FCA3E0FDA3E0FEA3E0FF9000FA12F7
:102DFB0009087B017A0079EC120A587B017A007979
:092E0B00EC9000EBE0FD022E1436
:10268300EFB430037F5F22EFB431037F5022EFB406
:1026930032037F3D22EFB433037F7922EFB4340357
:1026A3007F7222EFB435037F6B22EFB436037F6F63
:1026B30022EFB437037F5122EFB438037F7F22EF39
:1026C300B439037F7322EF64616004EFB441037F85
:1026D3007722EF64626004EFB442037F6E22EF64FB
:1026E300636004EFB443037F0F22EF64646004EF7D
:1026F300B444037F7C22EF64656004EFB445037F39
:102703002F22EF64666004EFB446037F2722EF6451
:10271300676004EFB447037F6F22EF64686004EFE0
:10272300B448037F7622EF64696004EFB449037F02
:102733005022EF646A6004EFB44A037F5C22EF64C3
:102743006B6004EFB44B037F3622EF646C6004EFDD
:10275300B44C037F0E22EF646D6004EFB44D037F2E
:102763000022EF646E6004EFB44E037F6422EF64D3
:102773006F6004EFB44F037F5F22EF64706004EF78
:10278300B450037F3722EF64716004EFB451037FC9
:102793007322EF64726004EFB452037F2422EF6468
:1027A300736004EFB453037F6B22EF64746004EF30
:1027B300B454037F2E22EF64756004EFB455037F96
:1027C3005E22EF64766004EFB456037F4C22EF641D
:1027D300776004EFB457037F0022EF64786004EF5F
:1027E300B458037F0022EF64796004EFB459037F88
:1027F3007222EF647A6004EFB45A037F3D22EF64E0
:102803002D6004EFB45F037F2022EFB420027F002A
:0128130022A2
:0E2E14009000F4EBF0A3EAF0A3E9F0A3EDF0D8
:102E2200A37405F0E4FCED700C90016BE0547FF0AC
:102E3200A3E0547FF09000F7E0FEB402119001701D
:102E4200E0547FF0A3E0547FF0A3E0547FF0EEB4AF
:102E52000111900165E0547FF0A3E0547FF0A3E0FC
:102E6200547FF09000F4E0FBA3E0FAA3E0F912062D
:102E7200F8FF7003022F19642E601012268390004F
:102E8200F7E0FDA3E0FB14F01239329000F4E0FB0E
:102E9200A3E0FAA3E0F91206F8642E706C9000F732
:102EA200E0FF64027021ECB40207900170E04480FC
:102EB200F0ECB40307900171E04480F0ECB4040735
:102EC200900172E04480F0EF64017021ECB40207DB
:102ED200900165E04480F0ECB40307900166E044A1
:102EE20080F0ECB40407900167E04480F09000F7B2
:102EF200E07016ECB4040790016CE04480F0ECB48E
:102F0200030790016BE04480F00C9000F5E475F04B
:102F1200011207A5022E659001627401F0023AF0D7
:103AF0009001627401F078F97C00FDFB7A01796233
:0A3B00007E007F121206D20231E0AF
:0436550041018E00A1
:10302300E49000CFF090018DF09000CFF09000CFAE
:10303300E0FFC39405507AD281D280D290D291D24C
:1030430092EF7002C281EFB40102C280EFB40202B8
:10305300C290EFB40302C291EFB40402C2927F01A3
:103063007E00123A1420820D9000CFE025E025E087
:103073000490018DF020A40E9000CFE025E025E020
:10308300240290018DF020A00E9000CFE025E025D2
:10309300E0240390018DF020960E9000CFE025E010
:1030A30025E0240490018DF09000CFE004F002307D
:1030B3003090018FE0FF700C90018DE06006A374E7
:1030C30001F0803190018DE0FEB50709EE6006A3A3
:1030D3007402F0802090018FE0600C90018DE0700D
:1030E30006A37403F0800E90018FE0700890018DA9
:1030F300E07002A3F090018DE090018FF0600A90E0
:10310300018EE0B40103123B6A75AA0575AA0A751C
:02311300A91FF2
:013115002297
:093B6A00900190E4F0A304F022A4
:013B8E002214
:033B88007F002299
:103A8200E49000CFF0F0123B6A7FFA7E00123A1403
:0C3A92009000CFE004F0E0C3940340EA91
:013A9E002205
:103A1400E4FDFCC3ED9FEC9E501E75AA0575AA0A31
:103A240075A91FE4FBFA0BBB00010AEB64C84A70DA
:083A3400F50DBD00010C80DB63
:013A3C002267
:103B0A0000000000000000000000000000000000AB
:083B1A000000000000000000A3
:10365900440128000000004201330000420131000A
:1036690000540135000000000000000000000000C7
:10367900000000000000000044012C00000000448C
:0A36890001240000000041013000A0
:060E76009000EB120908D8
:100E7C0078F07C007D017BFF7A3B790A7E007F1441
:100E8C001206D2E4FFFEFD7C3F90002EE0F8A3E0BA
:100E9C00F9A3E0FAA3E0FB12010690010412090881
:100EAC00900108120914000000009000EBE0FCA374
:100EBC00E0FDA3E0FEA3E0FFE412031990010F1282
:100ECC0009089001137405F0E4A3F0A3F090010C51
:100EDC0004F0A37401F0A37435F0900104E0FCA3BA
:100EEC00E0FDA3E0FEA3E0FF900124E0F8A3E0F90D
:100EFC00A3E0FAA3E0FB12001590010FE0F8A3E0C9
:100F0C00F9A3E0FAA3E0FB1202AC600250329001AC
:100F1C0004E0F8A3E0F9A3E0FAA3E0FB900124E0DD
:100F2C00FCA3E0FDA3E0FEA3E0FF12001190010F73
:100F3C00E0F8A3E0F9A3E0FAA3E0FB1202AC505CEA
:100F4C009000EFE07056900130E0FF04F0EFD39486
:100F5C00024046E4F0900114F0900113E014FFA35A
:100F6C00E0C39F40030210B090010FE0FCA3E0FD32
:100F7C00A3E0FEA3E0FF90010CE0FBA3E0FAA3E0EA
:100F8C00F9900114E075F004A4F58285F083120841
:100F9C00B8900114E004F080C00212CA9000EFE097
:100FAC006401704C900130F0900114F0900113E04A
:100FBC0014FFA3E0C39F40030210B09000EBE0FCD1
:100FCC00A3E0FDA3E0FEA3E0FFE412031990010CE3
:100FDC00E0FBA3E0FAA3E0F9900114E075F004A49F
:100FEC00F58285F0831208B8900114E004F080BCFF
:100FFC009000EFE064027055900114F0900113E042
:10100C0014FFA3E0FEC39F40030210B0EE2401FFC7
:10101C00E433FEEF7802C333CE33CED8F9FF900120
:10102C000CE0FBA3E0FAA3E0F98F828E8312088810
:10103C0090010CA3A3900114E075F004A4F5828533
:10104C00F0831208B8900114E004F080AFE4900132
:10105C0030F0900114F0900113E014FFA3E0FEC3F4
:10106C009F5041EE2401FFE433FEEF7802C333CEF0
:10107C0033CED8F9FF90010CE0FBA3E0FAA3E0F922
:10108C008F828E8312088890010CA3A3900114E028
:10109C0075F004A4F58285F0831208B8900114E071
:1010AC0004F080B290010FE0FCA3E0FDA3E0FEA3EE
:1010BC00E0FFC004C005C006C007A3E024FFFFE4A6
:1010CC0034FFFEEF7802C333CE33CED8F9FF900154
:1010DC000CE0FBA3E0FAA3E0F98F828E83D007D05B
:1010EC0006D005D0041208B8E4900114F090011356
:1010FC00E0FFA3E0C39F503790010CE0FBA3E0FAA4
:10110C00A3E0F9900114E075F004A4F58285F08356
:10111C00120888900114E025E025E024F0F582E423
:10112C003400F583120908900114E004F080BEE449
:10113C00900114F0900113E014FFA3E0FEC39F4054
:10114C0003021223EE04A3F0900113E0FF900115AB
:10115C00E0FEC39F400302121A900114E025E02523
:10116C00E024F0F582E43400F583E0F8A3E0F9A381
:10117C00E0FAA3E0FBEE25E025E024F0F582E43470
:10118C0000F583E0FCA3E0FDA3E0FEA3E0FF120268
:10119C00AC60724070900115E0FB25E025E024F076
:1011AC00F582E43400F583E0FCA3E0FDA3E0FEA3AC
:1011BC00E0FF900108120908900114E0FA25E025DF
:1011CC00E024F0F582E43400F583E0FCA3E0FDA319
:1011DC00E0FEA3E0FFEB25E025E024F0F582E4340B
:1011EC0000F583120908900108E0FCA3E0FDA3E0E0
:1011FC00FEA3E0FFEA25E025E024F0F582E43400CC
:10120C00F583120908900115E004F00211549001C5
:10121C0014E004F0021140900124120914000000A3
:10122C00009001147401F0900113E014FFA3E0FE90
:10123C00C39F5038900124E0F8A3E0F9A3E0FAA38F
:10124C00E0FBEE25E025E024F0F582E43400F583A4
:10125C00E0FCA3E0FDA3E0FEA3E0FF12001590016B
:10126C0024120908900114E004F080BB900124E0E2
:10127C00FCA3E0FDA3E0FEA3E0FFC004C005C00694
:10128C00C007900113E024FEFDE434FFFCE41203DC
:10129C001EA804A905AA06AB07D007D006D005D016
:1012AC000412020F900124120908900124E0FCA3FF
:1012BC00E0FDA3E0FEA3E0FF90012C1209089001D1
:0C12CC0024E0FCA3E0FDA3E0FEA3E0FF93
:0112D80022F3
:05297A009000E6EFF003
:10297F00A312091400000000308342E47FFAFEFD29
:10298F00FC9000E7E0F8A3E0F9A3E0FAA3E0FBC3B3
:10299F0012084450287F017E00123A149000E7E09D
:1029AF00FCA3E0FDA3E0FEA3E02401FFE43EFEE470
:1029BF003DFDE43CFC9000E712090880BB30830327
:1029CF00022A9B1233959000E71209089000E7E066
:1029DF00FCA3E0FDA3E0FEA3E0FF780712085590EB
:1029EF0000E7120908E47FFF7EFFFDFC9000E7E09F
:1029FF00F8A3E0F9A3E0FAA3E0FBC3120844606D6B
:102A0F00E47FFF7EFFFDFC9000E7E0F8A3E0F9A371
:102A1F00E0FAA3E0FBD31208449000E7E04032F85D
:102A2F00E49BFFE49AFE740299FDE498FC9000E7A2
:102A3F001209089000E7E0F8A3E0F9A3E0FAA3E099
:102A4F00FBC374F49BFF747E9AFEE499FDE49880B7
:102A5F0015FCA3E0FDA3E0FEA3E024F4FFEE347E1B
:102A6F00FEE43DFDE43CFC9000E71209089000E70E
:102A7F00E0FCA3E0FDA3E0FEA3E0FF9000E6E09002
:102A8F0000EFF0120E76900128120908900128E04D
:0A2A9F00FCA3E0FDA3E0FEA3E0FFAE
:012AA900220A
:1033950078EE7C007D017BFF7A3B791E7E007F0401
:1033A5001206D29000EB7401F0A37400F0A374EE42
:1033B500F0208362E4FDFCD284EDAE047803CEC335
:1033C50013CE13D8F9FF24EFF58274003EF583E0A0
:1033D500FB25E0F0C28474EF2FF58274003EF5837F
:1033E500E0FFA283E433FEEF4EF00DBD00010CEDCE
:1033F50064184C70C2D284EDAE047805C333CE3365
:10340500CED8F9FDAC06C2849000EBE0FBA3E0FA50
:06341500A3E0F9120868B3
:01341B00228E
:013B8F002213
:0A3B4E00E475F0011207BBAFF0FEB2
:073B58008F828E83E493FFCE
:013B5F002243
:083881009000DEEEF0A3EFF071
:103889009000E27401F0A37400F0A374E0F0E4FD89
:103899009000DE123B4E9000E2E0FBA3E475F001DC
:1038A9001207BBA9F0FAEF12073E0DEDB402E19041
:0738B90000E0E0FEA3E0FFC8
:0138C00022E5
:0837F5009000E0EEF0A3EFF0FC
:1037FD009000E67401F0A37400F0A374E2F0E4FD10
:10380D009000E0123B4E9000E6E0FBA3E475F00162
:10381D001207BBA9F0FAEF12073E0DEDB404E190CB
:0D382D0000E2E0FCA3E0FDA3E0FEA3E0FF4D
:01383A00226B
:08383B009000BFEEF0A3EFF0D6
:103843009000C57401F0A37400F0A374C1F0E4FD0B
:103853009000BF123B4E9000C5E0FBA3E475F0015E
:103863001207BBA9F0FAEF12073E0DEDB404E19085
:0D38730000C1E0FCA3E0FDA3E0FEA3E0FF28
:013880002225
:1034A200AFF0FEE0FBA3E475F0011207BBA9F0FA4E
:0434B2001206F8FD09
:1034B600E49000E9F075AA0575AA0A75A91F90009F
:1034C600E7EEF0A3EFF0A2AF9200C2AF9000E7E004
:1034D600F5C3A3E0F5C2AF058FC1E4F5C4F5C5F5A4
:1034E600C69001A4E0B4AA08A3E0B4550375C703C7
:1034F600123B8F75C40575C50A75C6099001A4E00F
:10350600B4AA08A3E0B4550375C703E4F5C4F5C52A
:06351600F5C6A20092AF11
:01351C00228C
:0D3994009000D1EDF09000CFEEF0A3EFF029
:1039A100E4FD123B58EFF460089000CF7D01122B2B
:0F39B100D59000CFE0FEA3E0FFA3E0FD0234B607
:103758009000D1ECF0A3EDF09000CFEEF0A3EFF0E5
:10376800123881EFF47002EEF4600F9000CFE0FEA3
:10377800A3E0FF7D027C00122BDC9000D37401F0E3
:10378800A37400F0A374D1F0E4FC9000CFE475F0CA
:0F379800011207BB9000D31234A20CECB402EB69
:0137A70022FF
:0A35EE00900174EEF0FAA3EFF0FB79
:1035F80090017D12091400000000AF03AE021237DB
:10360800F590017D12090874FFFFFEFDFC90017D15
:10361800E0F8A3E0F9A3E0FAA3E0FBC312084460D2
:1036280006900174122BD390017A7401F0A37401EF
:10363800F0A37476F0E4FC900174E475F0011207CD
:0C364800BB90017A1234A20CECB404EB2D
:013654002253
:0A351D009000CFEEF0FAA3EFF0FBF0
:103527009000DC12091400000000AF03AE0212374E
:10353700F59000DC12090874FFFFFEFDFC9000DC2B
:10354700E0F8A3E0F9A3E0FAA3E0FBC312084460A4
:10355700069000CF122BD39000D57401F0A374000E
:10356700F0A374D1F0E4FC9000CFE475F0011207EA
:0F357700BBAFF0FE9000D51234A50CECB404E805
:013586002222
:1036AE00E49000E7F0A3EEF0A3EFF0A2AF9200C219
:1036BE00AF9000E8E0F5C3A3E0F5C2E4F5C4F5C5AC
:1036CE00F5C69001A4E0B4AA08A3E0B4550375C7EB
:1036DE0003123B8F75C40575C50A75C6099001A402
:1036EE00E0B4AA08A3E0B4550375C70CE4F5C4F51D
:0736FE00C5F5C6A20092AF62
:0137050022A1
:092BD3007D04E0FEA3E0FF7C009C
:0E2BDC009000E0EEF0A3EFF0A3ECF0A3EDF01C
:102BEA00E4A3F0A3F0A3F09000E0E01313543F7BBA
:102BFA000025E025E0FAE49000E5F0A3F09000E576
:102C0A00E0FEA3E0FFC3940AEE94005025E42FFFF0
:102C1A00EE3468FE123B58EFF460077F007E6812BC
:102C2A0036AE9000E6E004F070D39000E5E004F0E0
:102C3A0080CBE49000E5F0A3F09000E5E0FEA3E08D
:102C4A00FFC3EE94045056EF2BFFEE3AFE9000E0DD
:102C5A00E0B50617A3E0B50712A3E0FEA3E0FF90D4
:102C6A0000E6E02FF09000E5E03EF09000E6E02B71
:102C7A00FF9000E5E03AFE123B58AD079000E6E00F
:102C8A002400FF9000E5E03468FE1234B69000E6B6
:102C9A00E004F070A49000E5E004F0809CAF03AE7D
:102CAA00021236AEE49000E5F0A3F09000E5E0FEF3
:102CBA00A3E0FFC3EE9404502BE42FFFEE3468FE2A
:102CCA00123B58AD079000E6E02BFF9000E5E03A92
:102CDA00FE1234B69000E6E004F070CF9000E5E012
:0B2CEA0004F080C77F007E680236AE59
:1037A80030303030300030303030303000202020A1
:1037B800554E00535441424C450050524553530016
:1037C8005245462030004300204C4F4144004320DE
:1037D800202000464143544F0052002020454E44CB
:0D37E80000534156454400202D452D200082
:103693004400060000000044000000000000440055
:0A36A3008A0000000042000400004D
:102182007F017E6C12383B90002A1209087F057E7F
:102192006C12383B9000261209087F097E6C1238B7
:1021A2003B90002E12090890001E12091400000034
:1021B200007F347E6C123B58900067EFF07F0D7EFB
:1021C2006C123B58900068EFF07F0E7E6C123B5809
:1021D200900069EFF07F1A7E6C123B58900086EFF8
:1021E200F07F0F7E6C123881900052EEF0A3EFF078
:1021F2007F117E6C123881900055EEF0A3EFF07FD4
:10220200137E6C123881900057EEF0A3EFF07F320C
:102212007E6C123881900059EEF0A3EFF07F357E8C
:102222006C12388190005BEEF0A3EFF07F157E6CAC
:10223200123B5890006AEFF07F167E6C123B58906A
:10224200006BEFF07F1E7E6C123B58900089EFF01E
:1022520090006BE090006D70057405F080037401CE
:10226200F07F177E6C123B5890006CEFF090006E7E
:1022720070057405F080037401F07F187E6C123BC8
:102282005890006FEFF0E4900071F07F1B7E6C12AB
:102292003B58900072EFF07F1C7E6C123B5890000E
:1022A20073EFF07F1D7E6C123B58900074EFF07F4D
:1022B200007E70123881900061EEF0A3EFF07F0291
:1022C2007E70123881900063EEF0A3EFF07F1F7EE4
:1022D2006C123B58900077EFF07F207E6C123B58D7
:1022E200900079EFF07F227E6C123B58900087EFCE
:1022F200F07F047E70123881900065EEF0A3EFF05B
:102302007F067E7012383B90003E1209087F237EC2
:102312006C123B58900054EFF07F317E6C123B58A8
:10232200900085EFF07F0A7E70123B589000B4EF68
:0E233200F07F0B7E7012383B90004A020908C3
:101C9A009001A474AAF09001A57455F0EF12096599
:101CAA001D32001CC9011F06021EAA061E920A1D29
:101CBA00250B1E800C1ED10D1F230F00001F2F7D28
:101CCA00017F007E6C12399490002AE0FCA3E0FDAB
:101CDA00A3E0FEA3E0FF9000D11209087F017E6C09
:101CEA0012351D900026E0FCA3E0FDA3E0FEA3E070
:101CFA00FF9000D11209087F057E6C12351D9000F5
:101D0A002EE0FCA3E0FDA3E0FEA3E0FF9000D112C9
:101D1A0009087F097E6C12351D8000900061E0FC85
:101D2A00A3E0FD7F00021E8A900068E0FD7F0D7E21
:101D3A006C123994900069E0FD7F0E7E6C12399422
:101D4A00900052E0FCA3E0FD7F0F7E6C12375890A2
:101D5A000055E0FCA3E0FD7F117E6C12375890001D
:101D6A0057E0FCA3E0FD7F137E6C123758900059B0
:101D7A00E0FCA3E0FD7F327E6C12375890005BE0F6
:101D8A00FCA3E0FD7F357E6C12375890006AE0FDB7
:101D9A007F157E6C12399490006BE0FD7F167E6C85
:101DAA0012399490006FE0FD7F187E6C123994907E
:101DBA000071E0FD7F197E6C123994900072E0FD8B
:101DCA007F1B7E6C123994900073E0FD7F1C7E6C41
:101DDA00123994900074E0FD7F1D7E6C1239949044
:101DEA000077E0FD7F1F7E6C123994900063E0FC5F
:101DFA00A3E0FD7F027E70123758900079E0FD7FE4
:101E0A00207E6C123994900087E0FD7F227E6C124E
:101E1A003994900065E0FCA3E0FD7F047E701237E0
:101E2A005890003EE0FCA3E0FDA3E0FEA3E0FF9093
:101E3A0000D11209087F067E7012351D900054E009
:101E4A00FD7F237E6C123994900085E0FD7F317E00
:101E5A006C1239949000B4E0FD7F0A7E70123994B6
:101E6A00900067E0FD7F347E6C123994900086E022
:101E7A00FD7F1A021F2A900063E0FCA3E0FD7F02A7
:101E8A007E70123758021F2F900026E0FCA3E0FD57
:101E9A00A3E0FEA3E0FF9000D11209087F05805855
:101EAA00900065E0FCA3E0FD7F047E701237589035
:101EBA00003EE0FCA3E0FDA3E0FEA3E0FF9000D11A
:101ECA001209087F06804B900042E0FCA3E0FDA3C4
:101EDA00E0FEA3E0FF9000D11209087F297E6C1270
:101EEA00351D900046E0FCA3E0FDA3E0FEA3E0FF61
:101EFA009000D11209087F2D7E6C801890004AE06C
:101F0A00FCA3E0FDA3E0FEA3E0FF9000D1120908C4
:101F1A007F0B7E7012351D800C900089E0FD7F1EBC
:0F1F2A007E6C123994E49001A4F09001A5F0228E
:0619BF00E4FB7D017F0541
:0D19C5009000D0EDF0A3EBF09000CFEFF01C
:1019D200E49000D2F0A3F0FCFDFEA31209089000EF
:1019E200D8120914000000009000DC120914000053
:1019F2000000900079E0FCE41203239000E0120959
:101A020008E49000E4F0A3F09000D3F09000D1E05D
:101A1200FF70069000D37402F012297A9000DC1253
:101A220009089000D1E0FF12297A9000DC1209081F
:101A32009000D1E0FF12297A9000DC120908900090
:101A4200D1E0FF12297A9000DC12090874FFFFFE30
:101A5200FDFC9000D4E0F8A3E0F9A3E0FAA3E0FBD8
:101A6200D312082E5003021C85123B889000D0E04E
:101A720064016003021B269000D4E0FCA3E0FDA3F6
:101A8200E0FEA3E0FFEC4D4E4F70237BFF7A3779E7
:101A9200A87D01122E147BFF7A3779A87D02122EBF
:101AA200147BFF7A3779AEE4FD122E148076E47F40
:101AB200677E2BFDFC9000D4E0F8A3E0F9A3E0FAE6
:101AC200A3E0FB1207D1EC120319E49000EAF0A3A1
:101AD20004F0122CF5E47F677E2BFDFC9000D4E02D
:101AE200F8A3E0F9A3E0FAA3E0FB1207D1EC12039A
:101AF20019E49000EAF0A37402F0122CF57F077E3D
:101B0200B27D017C009000D4E0F8A3E0F9A3E0FAF2
:101B1200A3E0FB1207D1EC120319E49000EAF0A350
:101B2200F0122CF59000D1E0FF12297A9000D81221
:101B320009089000E0E0F8A3E0F9A3E0FAA3E0FBD3
:101B42009000DCE0FCA3E0FDA3E0FEA3E0FF1200B6
:101B5200119000D8E0F8A3E0F9A3E0FAA3E0FB12A9
:101B620002AC40749000E0E0FCA3E0FDA3E0FEA321
:101B7200E0FF9000DCE0F8A3E0F9A3E0FAA3E0FBC9
:101B82001200159000D8E0F8A3E0F9A3E0FAA3E070
:101B9200FB1202AC600250409000D2E004F0A3E0DD
:101BA200FF9000D2E0D39F5003021A4E9000D4E07F
:101BB200FCA3E0FDA3E0FEA3E0FFEF24FFFFEE3471
:101BC200FFFEED34FFFDEC34FFFC9000D412090857
:101BD200E49000D2F0021A4E9000D0E06401706CE2
:101BE2001239C07BFF7A3779B57D02122E147BFF42
:101BF2007A3779BBE4FD122E149000D41209140036
:101C0200000000E47FF47E01FDFC9000D4E0F8A324
:101C1200E0F9A3E0FAA3E0FBC312082E502E7F01E5
:101C22007E00123A149000D4E0FCA3E0FDA3E0FE93
:101C3200A3E0FFE4FAF9F8EF2401FFEA3EFEE93DF2
:101C4200FDE83CFC9000D412090880B7E49000D271
:101C5200F09000CFE0FFE4FCFDFE9000D4120908F2
:101C62009000D1E0FF12297A9000DC12090890005E
:101C7200D1E07003021A4EE49000B2F0FFFE7DC87C
:101C82007CC2229000B27401F09000DCE0FCA3E080
:071C9200FDA3E0FEA3E0FF4B
:011C99002228
:033B8B007F002296
:063B7C0090019802090807
:1038FD0090019C120914000000007B01E4FD7F0182
:10390D001219C590019C1209089000B2E0B401147F
:10391D0090019CE0FCA3E0FDA3E0FEA3E0FF90007E
:04392D003212090841
:013931002273
:063B82009001A0020908F9
:1016A6009000BF120914000000009000C312091434
:1016B600000000009000C71209140000000090000E
:1016C600CB12091400000000900062E004F07006DE
:1016D600900061E004F07F01121C9A1239C07BFF72
:1016E6007A3779C27D01122E147BFF7A3779C8E4E6
:1016F600FD122E147BFF7A3779CE7D02122E14E46A
:1017060090018DF090018DE0640C6005123023800D
:10171600F3E490018DF090018DE0B40C05123023B6
:1017260080F47FE87E03123A141219BF9000261245
:101736000908900026E0FCA3E0FDA3E0FEA3E0FF7D
:101746009000C31209081239C07BFF7A3779C27D2F
:1017560001122E147BFF7A3779D0E4FD122E147B0A
:10176600FF7A3779D67D02122E14E490018DF0901F
:10177600018DE0640C600512302380F31219BF90CE
:10178600002A12090890002AE0FCA3E0FDA3E0FE6F
:10179600A3E0FF9000C71209089000C3E0F8A3E099
:1017A600F9A3E0FAA3E0FBA3E0FCA3E0FDA3E0FEBF
:1017B600A3E0FF1200119000CB1209089000CBE0C5
:1017C600F8A3E0F9A3E0FAA3E0FBC000C001C00261
:1017D600C003900055E0FCA3E0FD7E007F64120785
:1017E60050AC06AD07E412031ED003D002D001D0E0
:1017F600001201069000CB12090890002AE0FCA313
:10180600E0FDA3E0FEA3E0FF900026E0F8A3E0F9E8
:10181600A3E0FAA3E0FB12001190002A1209089037
:10182600002AE0F8A3E0F9A3E0FAA3E0FBC000C0B9
:1018360001C002C003900055E0FCA3E0FD7E007FDE
:1018460064120750AC06AD07E412031ED003D002A3
:10185600D001D00012010690002A12090890002A31
:10186600E0FCA3E0FDA3E0FEA3E0FFA312090890BD
:101876000052E0FCA3E0FDE412031E9000BF120933
:10188600089000BFE0F8A3E0F9A3E0FAA3E0FBC0EC
:1018960000C001C002C003900054E0FCE412032320
:1018A6009000D31209087F007E007D207C4112281B
:1018B60014D003D002D001D0001201069000BF124E
:1018C60009089000BFE0FCA3E0FDA3E0FEA3E0FF53
:1018D600C004C005C006C007900057E0FCA3E0FDA9
:1018E600E412031EA804A905AA06AB07D007D00672
:1018F600D005D00412020F9000BF12090890002EE6
:10190600E0FCA3E0FDA3E0FEA3E0FF9000BFE0F84B
:10191600A3E0F9A3E0FAA3E0FB12020F90002E1257
:101926000908E4FFFEFDFC90002AE0F8A3E0F9A315
:10193600E0FAA3E0FB1202AC501E90002AE0FCA3E2
:10194600E0FDA3E0FEA3E0FFE4FBFA798078BF1296
:10195600010690002A1209081239C07BFF7A3779EE
:10196600DB7D01122E1490002EE0FCA3E0FDA3E027
:10197600FEA3E0FF9000EA7402F0E4A3F0122CF557
:101986007BFF7A3779E1E4FD122E147B01E4FD7FBB
:10199600021231167BFF7A3779E37D02122E147F0D
:1019A60001121C9A7F0D121C9A123A82123A827FF9
:0919B600887E13123A140239C0B4
:051F39009000BFEFF075
:101F3E00E4A3F01239C09000677401F0A3F0900092
:101F4E00BFE07009900052F0A3740F80319000BF73
:101F5E00E0B4010A900052E4F0A3741480209000C3
:101F6E00BFE0B4020A900052E4F0A3741E806990A0
:101F7E0000BFE0B40520900052E4F0A3741EF09070
:101F8E000057E4F0A37405F0A3E4F0A37402F0A3E9
:101F9E00E4F0A304802B9000BFE0B4062C90005216
:101FAE00E4F0A3741EF0900057E4F0A37402F0A3C3
:101FBE00E4F0A37402F0A3E4F0A37402F0E4900042
:101FCE0067F09000547403802B9000BFE0B4033987
:101FDE00900052E4F0A37428F0900057E4F0A3743C
:101FEE000AF0A3E4F0A37405F0A3E4F0A37402F0E6
:101FFE0090005404F09000697401F0FDE4FF122F7C
:10200E00229000877401F080369000BFE0B4042F58
:10201E00900052E4F0A3743CF0900057E4F0A374E7
:10202E0002F0900054F0E4900069F0900068F07DAA
:10203E00017F01122F22E4900087F0900067F0904C
:10204E000052E0FCA3E0FDE412031E900054E09069
:10205E0000EAF0A37401F0122CF5900055E4F0A301
:10206E007464F090006A7402F0A314F090006F7420
:10207E0003F0E490006EF090007104F0A3F0A3F072
:10208E00900077F0E4A3F0A37405F0E4900065F0FF
:10209E00A3F090003E12091400000000E4900085A9
:1020AE00F0A37402F0E4900076F09000421209144E
:1020BE00000000009000461209140000000090007D
:1020CE002A120914000000009000261209140000C4
:1020DE00000090002E120914000000009000B4744D
:1020EE0001F090004A12091400000000E490006113
:1020FE00F0A3F0A3F0A3F0900194F0A304F08017E6
:10210E0090018DE064086014C3900195E09488906E
:10211E000194E09413500512302380E4C39001958E
:10212E00E09488900194E09413400280437F0D1256
:10213E001C9A7F01121C9A7F02121C9AE4FF121C39
:10214E009A7BFF7A3779E97D02122E14123A8212A7
:10215E003A82801790018DE064086014C390019557
:10216E00E09488900194E09413500512302380E49B
:03217E001239C053
:01218100223B
:080003009001A8EFF07F00223C
:013B90002212
:013B91002211
:10234000E49001A6F0A3F0900097E09001A760054B
:102350007403F080037401F0E49001A6F09001A7EB
:10236000E0FF9001A6E0FEC3EF6480F8EE64809881
:1023700050137F0112297A9000061209089001A6D5
:10238000E004F080D89000ADE0640160079000ACFC
:10239000E0B4010B7BFF7A3779EF7D01022E1490B8
:1023A0000071E0B40117900095E07011900006E014
:1023B000FCA3E0FDA3E0FEA3E0FF123B8290000639
:1023C000E0FCA3E0FDA3E0FEA3E0FF90000E1209F5
:1023D00008900006E0FCA3E0FDA3E0FEA3E0FF9070
:1023E000008A120908900006E0FCA3E0FDA3E0FECD
:1023F000A3E0FF900032E0F8A3E0F9A3E0FAA3E045
:10240000FB120011900006120908900006E0FCA3E0
:10241000E0FDA3E0FEA3E0FF900022120908900077
:10242000A3E0B4010590000E8050900095E0B40147
:1024300046900006E0FCA3E0FDA3E0FEA3E0FF90D1
:10244000008A120908900006E0FCA3E0FDA3E0FE6C
:10245000A3E0FF90001EE0F8A3E0F9A3E0FAA3E0F8
:10246000FB120011900006120908900098E0700716
:102470007D017F03122F22900006E0FCA3E0FDA364
:10248000E0FEA3E0FF1212D9900006120908E4FF53
:10249000FEFDFC900006E0F8A3E0F9A3E0FAA3E05B
:1024A000FB1202AC500D9000A3E07007900099045D
:1024B000F0801CE4FFFEFDFC900006E0F8A3E0F9CC
:1024C000A3E0FAA3E0FB1202AC7004900099F09034
:1024D0000006E0FCA3E0FDA3E0FEA3E0FFA31209D9
:0124E00008F3
:0124E10022D8
:0612D90090014912090812
:1012DF0090014D12091400000000900151120914E1
:1012EF000000000090015512091400000000900149
:1012FF00591209140000000090015D12091400003A
:10130F000000E4900161F0FFFEFDFC900149E0F860
:10131F00A3E0F9A3E0FAA3E0FB1202AC5024900182
:10132F00617401F0900149E0FCA3E0FDA3E0FEA38E
:10133F00E0FFE4FBFA798078BF12010690014912B1
:10134F000908900067E07050900054E0FCE412032D
:10135F00239000D31209087F007E007D207C41126C
:10136F002814C004C005C006C007900057E0FCA3B6
:10137F00E0FDE412031ED003D002D001D000120210
:10138F000F90015D12090890002EE0F8A3E0F9A379
:10139F00E0FAA3E0FB0215937FCD7ECC7DCC7C3DA4
:1013AF0090002AE0F8A3E0F9A3E0FAA3E0FB120112
:1013BF0006900149E0F8A3E0F9A3E0FAA3E0FB12DD
:1013CF0002AC6005400302147C90014D1209140019
:1013DF00000000900057E0FCA3E0FDE412031EC0E4
:1013EF0004C005C006C00790005BE0FCA3E0FDE46D
:1013FF0012031ED003D002D001D00012020F9001B1
:10140F004D120908900054E0FCE41203239000D31E
:10141F001209087F007E007D207C41122814C00431
:10142F00C005C006C00790005BE0FCA3E0FDE4121E
:10143F00031ED003D002D001D00012020F90015D25
:10144F0012090890014DE0FCA3E0FDA3E0FEA3E02C
:10145F00FF90002EE0F8A3E0F9A3E0FAA3E0FB125F
:10146F000106A804A905AA06AB070215937FCD7E36
:10147F00CC7D4C7C3E90002AE0F8A3E0F9A3E0FA83
:10148F00A3E0FB120106900149E0F8A3E0F9A3E005
:10149F00FAA3E0FB1202AC60054003021546900070
:1014AF0057E0FCA3E0FDE412031EC004C005C00614
:1014BF00C007900059E0FCA3E0FDE412031ED00327
:1014CF00D002D001D00012020F90014D12090890E6
:1014DF000054E0FCE41203239000D31209087F00AC
:1014EF007E007D207C41122814C004C005C006C0B8
:1014FF0007900059E0FCA3E0FDE412031ED003D0D7
:10150F0002D001D00012020F90015D120908900164
:10151F004DE0FCA3E0FDA3E0FEA3E0FF90002EE072
:10152F00F8A3E0F9A3E0FAA3E0FB120106A804A9CF
:10153F0005AA06AB07804D900054E0FCE41203238C
:10154F009000D31209087F007E007D207C41122875
:10155F0014C004C005C006C007900057E0FCA3E00C
:10156F00FDE412031ED003D002D001D00012020FEF
:10157F0090015D12090890002EE0F8A3E0F9A3E0B6
:10158F00FAA3E0FB900149E0FCA3E0FDA3E0FEA37A
:10159F00E0FF12020F900155120908900155E0FC6F
:1015AF00A3E0FDA3E0FEA3E0FF1203579001591241
:1015BF000908900155E0FCA3E0FDA3E0FEA3E0FFC6
:1015CF00C004C005C006C007A3E0FCA3E0FDA3E074
:1015DF00FEA3E0FFEC120319A804A905AA06AB07A6
:1015EF00D007D006D005D004120011900155120972
:1015FF0008900159E0F8A3E0F9A3E0FAA3E0FBC0DB
:10160F0000C001C002C003E4FFFEFD7C4090015505
:10161F00E0F8A3E0F9A3E0FAA3E0FB12010612033E
:10162F0057D003D002D001D000EB2FFFEA3EFEE9E6
:10163F003DFDE83CFC900159120908900159E0FC6E
:10164F00A3E0FDA3E0FEA3E0FFEC12031990015D00
:10165F00E0F8A3E0F9A3E0FAA3E0FB120106900182
:10166F0051120908900161E0601E900151E0FCA346
:10167F00E0FDA3E0FEA3E0FFE4FBFA798078BF1260
:10168F000106900151120908900151E0FCA3E0FD01
:06169F00A3E0FEA3E0FF42
:0116A5002222
:083B73007F007E007D007C0054
:013B7B002227
:10000E000203C3E86480F8E933E83360110460F05A
:10001E00ED33EC337009E8FCE9FDEAFEEBFF220458
:10002E0060DED3EB9FEA9EE99DE8C2E78CF0C2F753
:10003E0095F0400CE8CCF8E9CDF9EACEFAEBCFFB1F
:10004E0012038E85D0F05804700320D5B3E80470E7
:10005E00075002B2D50203CD92D5EC0460F7E4CC82
:10006E00C0E0C398F8603B94186008400DD0E0FBE8
:10007E000203A5E4FBFAC9FC8028E830E406E4C9D3
:10008E00FBE4CAFCE830E305E4C9CACBFCE854073C
:10009E006010F8C3E913F9EA13FAEB13FBEC13FC47
:1000AE00D8F130F52FC3E49CFCEF9BFFEE9AFEEDEA
:1000BE0099FDD0E0FBEF4E4D4C701222DB03020394
:1000CE00CAEC2CFCEF33FFEE33FEED33FDED30E7E3
:1000DE00EB0203A5EF2BFFEE3AFEED39FDD0E0FB70
:1000EE0050130BBB00030203CDED13FDEE13FEEF19
:0800FE0013FFEC13FC0203A543
:10010600EC4D6011E8497017ED33EC3304600DE4F3
:10011600FCFFFEFD22E933E8330470F80203C31244
:10012600038E58046009E4CC248150062850090245
:1001360003CD2840030203CAC0E0EB4A7044B980ED
:1001460006D0E0FB0203B9EF4E701CBD8008EBFF42
:10015600EAFEE9FD80EBE98DF0A4FEE5F00201EF91
:10016600E9CDF9EAFEEBFFEF89F0A4FCE5F0CE89D4
:10017600F0A42EFFE435F0CD89F0A42DFEE435F091
:100186008067EF4E7005BD80D780C3EF8BF0A4ACBF
:10019600F0EE8BF0A42CFCE435F0F8EF8AF0A42CFA
:1001A600E5F038FCE433CB8DF0A42CFCE5F03BF80D
:1001B600EE8AF0A42CFCE5F038F8E433CF89F0A4FD
:1001C6002CFCE5F038CF3400CE89F0A42FFFE5F003
:1001D6003EFEE433C98DF0A42EFEE5F039CD8AF05B
:1001E600A42FFFE5F03EFEE43DFD33D0E0FB5007D3
:1001F6000BBB000F0203CDEC2CFCEF33FFEE33FEFE
:06020600ED33FD0203A52B
:10020C000203CDEC5D046005E8590470030203C3DE
:10021C0012038E580460F6EC4860F2EC7004FDFE9C
:10022C00FF22C860DB2481C85009C39860025006C5
:10023C000203CA9850CAF582E9294B4A7005AB8271
:10024C000203B975F0007C1A7880C3EF9BEE9AED2F
:10025C0099400DC3EF9BFFEE9AFEED99FDE842F03D
:10026C00DC23ACF0D0E0FFD0E0FED0E0FDAB822090
:10027C00E7101BEB60BAEC2CFCEF33FFEE33FEED1A
:10028C0033FD0203A5E803F830E705C0F075F00074
:10029C00EF2FFFEE33FEED33FD40B830E7C280AAFE
:1002AC0074F8CC6480CCC86480C8F582046043C305
:1002BC00EB9FF5F0EA9E42F0E99D42F0E89C45F098
:1002CC0060305018E5825FFFE582F42B5582FB50BD
:1002DC00210ABA001D09B90019088016E5825BFBDA
:1002EC00E582F42F5582FF50090EBE00050DBD00AE
:1002FC00010CC3EB9FF5F0EA9E42F0E99D42F0E859
:0D030C009C45F06007CC4820E701B3EC22CF
:1003190075F020800E75F010800575F0087D007E5F
:10032900007F003392D530D503120820EC334010FA
:10033900EF33FFEE33FEED33FDEC33FCD5F0ED2268
:0E034900E5F0247EA2D513CC92E7CDCEFF22A4
:10035700EDD2E7CD33EC3392D524814006E4FFFE9E
:10036700FDFC22FCE4CFCECDCC24E0501174FF80FD
:10037700EDC3CC13CCCD13CDCE13CECF13CF04709A
:07038700F030D5DE02082072
:1009F300E50824F7F582E43400F583E00508229046
:100A030000F43007039000F7E475F0011209450282
:100A130006F82000E97F2ED2008018EF540F2490AF
:100A2300D43440D4FF30040BEF24BFB41A00500376
:100A33002461FFE50960021509050CE50C70020548
:100A43000B30070E9000F4E475F001120945EF0234
:100A5300073E023A3D7403D2078003E4C207F50858
:100A63009000F412095CE4F509F50BF50CE5096057
:100A7300077F20120A3680F5750AFFC201C200C241
:100A830002C203C205C206C208120A02FF700D3079
:100A930007057F00120A47AF0CAE0B22B4255FC2D5
:100AA300D5C204120A02FF24D0B40A00501A75F00A
:100AB3000A780930D50508B6FF0106C6A426F62034
:100AC300D5047002D20380D924CFB41A00EF5004A6
:100AD300C2E5D204020D39D20180C6D20080C0D251
:100AE3000280BCD2D580BAD20580B47F20120A36E8
:100AF3002002077401B5090040F11209F3FF120A3D
:100B030036020A70D208D20680951209F3FB120945
:100B1300F3FA1209F3F94A4B700679377A0E7BFF21
:100B230020022EE509602A7E008E8275830012075B
:100B33001160060EEE650A70F0C2D5EBC0E0EAC0A4
:100B4300E0E9C0E0EE120D9AD0E0F9D0E0FAD0E08F
:100B5300FB1206F8FF60AAEBC0E0EAC0E0E9C0E0E0
:100B6300120A36D0E02401F9D0E03400FAD0E0FBD9
:100B7300E50A0460DCD50AD98087D20280A2120D6F
:100B83007C60F7E50A700104120403A90A600DE50D
:100B93000A600914F50A120E24EF60F3EA30E70243
:100BA300F404C3995079EAF4250A0430E701E40414
:100BB300F50A800D120D7C60C1EA050A250A1204AC
:100BC30003EA900123F030E701E4250A04D50A047F
:100BD30020050114120D9AE4C0E0120E24900123A3
:100BE300E0601320E70714F0120A1E802204F0D0FD
:100BF300E014C0E07F00120A1EE50A6007120A151E
:100C0300150A800B300503120A15D0E0020A70D0D2
:100C1300E00480C4120D7C609EE50A041204039074
:100C23000123EAF0E50A2005026001042404120D01
:010C33009A26
:100C340074FF04C0E0120E24120A1EE50A20050205
:100C44006003120A15D0E0B50AE87F45120A28901D
:100C54000123E07F2B30E7047F2DF404C0E0120A67
:100C640036D0E075F00A84C0F0120A1FD0E0120AF0
:100C74001F020A70791080027908C206C20880082F
:100C8400D2D5790A8004790AC2D5E50A047002F53E
:100C94000AE4FAFDFEFF1209F3FC7B08200113129B
:100CA40009F3FD7B1030000A1209F3FE1209F3FF69
:100CB4007B20EC3382D592D55013C3E43000069FD9
:100CC400FFE49EFEE42001039DFDE49CFCE4CBF8DC
:100CD400C201EC700CCFCECDCCE824F8F870F380D0
:100CE40017C3EF33FFEE33FEED33FDEC33FCEB3390
:100CF400FB994002FB0FD8E9EB300105F8D0E0C4C2
:100D040048B201C0E00AEC4D4E4F78207B0070C21F
:100D1400EAB50A0040BCC0E0120D9CD0F0D0E0203F
:100D24000104C4C0E0C4B201C0F0120A1FD0F0D55F
:100D3400F0EB020A701209650B0D530C78580ADEA9
:100D44004C0ADA420C7C4F0C84440C84490AF34369
:100D54000C8A550BB7460C17450B81470E57500AA2
:100D6400E22D0AE62E0B092B0AEA230B07200E407C
:100D74002A0AA24800000B01E50AB4FF03750A061B
:100D84001209F3FC1209F3FD1209F3FE1209F3FF31
:100D940090011C020440790AA2D5200314300509ED
:100DA400B910020404B9080104A2D52006025001B6
:100DB400042002689202B509005034C0E07F20305C
:100DC40003197F30A20272067205500F120DF3C28E
:100DD40002C206C205C2087F30800F300503E9C095
:100DE400E0120A36300503D0E0F9D0E0B509CC3082
:100DF40005177F30B9100C120A367F583004077F6C
:100E0400788003B90803120A363002057F2D020ADE
:100E1400367F202008F87F2B2006F322920280CF11
:100E24007F00B40700500B241CF582E43401F583E1
:100E3400E0FF22286E756C6C2900D2011209F33090
:100E440001F8C201780930D50108F6020AA22D5032
:100E54004349581209F32403B405004001E4900EF9
:100E64005293120A27743A120A27D203750904020C
:020E74000C78F8
:102814009000CF120908E4FFFE7D807C3F9000CF3A
:10282400E0F8A3E0F9A3E0FAA3E0FB1202AC70061F
:102834009000CF02296E9000CFE0FCA3E0FDA3E05E
:10284400FEA3E0FF1203D8FBA3E0FCA3E0FDA3E09A
:10285400FEA3E0FF1203D8FFB40108E4FFFE7D806D
:102864007C3F22EF64046029EB64046024EBB40130
:1028740030E4FFFEFDFC9000D3E0F8A3E0F9A3E010
:10288400FAA3E0FB1202AC60084006E4FFFEFDFC84
:10289400229000D3120914FFFFFFFF9000D30229F6
:1028A4006EE49000D7F0A3F0FFFEFDFC9000CFE0B3
:1028B400F8A3E0F9A3E0FAA3E0FB1202AC505F90A6
:1028C40000D3E0FCA3E0FDA3E0FEA3E0FF12035766
:1028D4009000D7EEF0A3EFF0FDCCEECCEC12031E8B
:1028E400C8ECC8C9EDC9CAEECACBEFCB9000D3E09F
:1028F400FCA3E0FDA3E0FEA3E0FF120011E4FBFA59
:10290400F9F81202AC708A9000CFE0FCA3E0FDA3BA
:10291400E0FEA3E0FF1203F29000CF12090890003A
:10292400CFE0FCA3E0FDA3E0FEA3E0FF122ADE90CB
:1029340000D3E0F8A3E0F9A3E0FAA3E0FB12010658
:102944001232A79000D31209089000D8E030E017A3
:102954009000D3E0FCA3E0FDA3E0FEA3E0FF12039C
:10296400F29000D31209089000D3E0FCA3E0FDA389
:06297400E0FEA3E0FF22DB
:10038E00E9D2E7C933E833F892D5EDD2E7CD33ECB5
:07039E0033FC5002B2D5222E
:1003A500EC30E7100FBF000C0EBE00080DBD0004B9
:1003B5000BEB6014A2D5EB13FCED92E7FD2274FF65
:1003C500FCFDFEFF22E480F8A2D574FF13FC7D80BE
:0303D500E480EFD2
:1003D800ED33EC33601004700FED547F7005740238
:0A03E80092E0227404220422E422B1
:1003F200ED33EC33600A047003BD8004ECB2E7FC19
:0104020022D7
:10040300F920E73624F950037907E4F42402FBE5E5
:1004130082158270021583DBF6E024FB501BE96032
:1004230014E4F0E582158270021583E004F0B40A47
:0D04330008E4F0D9EE7401F00A22C2D522CF
:10044000ED33EC3392D5FA602AB4FF33EDC2E77B8B
:10045000FF60067A047965E4227A04796E20D50477
:100460007A047969224E614E002B494E46002D498F
:100470004E4600E47A08F0A3DAFC7B00740722C041
:1004800083C082ECC0E0EDC0E0EEC0E0EFC0E0EA87
:1004900075F010A4CAABF075F04DA42BFBE435F059
:1004A000FCEA2410FAEB34C5FBEC34D9FCEDC2E7CE
:1004B000FF75F056A4F42411C5F0F434C58FF0A4F0
:1004C0002AE5F03BE43CF020E714120575D0E0FF8C
:1004D000D0E0FED0E0FDD0E0FC12020F8014F40466
:1004E000120575D0E0FFD0E0FED0E0FDD0E0FC12B8
:1004F0000106D082D083E0FAEDD2E7CD33EC33248D
:1005000082FBE4C3CF33CFCE33CECD33CD33DBF359
:100510007B0775F00A846004F0A31B0AE5F0F0A3E2
:100520008FF0740AA4FFACF08EF0740AA42CFEAC19
:10053000F050010C8DF0740AA42CFDE435F0F0A30A
:05054000DBDE74072260
:10326F0033DA929E35B16011377FE5FE39218489BB
:10327F003AAEC3FF3C1D955B3D6358473E75FDF06D
:10328F003F3172183F800000C2D50203CD0203C345
:10329F00BD80FA50F30203CAED33EC330460F17BC7
:1032AF003B7AAA79B8783F120106ED33EC3392D509
:1032BF00247B5011A2D570DB500BED4480240450B9
:1032CF0004A2D580CEEFFBEEFAEDF9ECF81203571E
:1032DF00EFF582F404FC120323120015C082903222
:1032EF006F74091205C4ED33CC33D0F092D525F0AD
:0A32FF00A2D57001C313CC13FD2209
:102AAA003E9248DA3ECCCCCD3F2AAAAB4000000089
:102ABA003F8000003F9837F03FB504F33FD744FC0E
:102ACA003E3172173EB172173F0515913EDE5BD952
:102ADA00D2008002C200EDD2E7F8CD33EC330470A5
:102AEA000BBD800592D50203CD0203C340FBD3146C
:102AFA0060F2F5F07C3FEE7A00C39496C8948B405E
:102B0A00230AC89469C8941A401A0AC89468C894CF
:102B1A001F40110AC8945AC89425400805F07A0043
:102B2A00CDC2E7CDC0F09000D9120908EA2323C02C
:102B3A00E024BAF582E4342AF5831208F812001563
:102B4A00ECC0E0EDC0E0EEC0E0EFC0E01208DC90BF
:102B5A0000D91208EC120011D0E0FBD0E0FAD0E064
:102B6A00F9D0E0B2E7F812020F9000D912090890E2
:102B7A002AAA74031205B59000D91208EC120106AC
:102B8A00D0E0600F24C6F582E4342AF5831208F8EF
:102B9A001200159000D9120908D0E0C3947FFDE411
:102BAA009400FC12031E7B187A727931783F120165
:102BBA00069000D91208EC12001530000B7BD97A66
:092BCA005B79DE783E120106225F
:100545003F8000004120000042C80000447A0000BE
:10055500461C400047C35000497424004B18968040
:100565004CBEBC205A0E1BCA6753C21C749DC5AE37
:10057500FB60065407601C23231205A3EB54386067
:100585000912058F12059E120106ECF8EDF9EEFA37
:10059500EFCB22EB12059E80F1543803241C900505
:1005A50045FE93FC0EEE93FD0EEE930ECE93FF22C9
:1005B500C0E0EFFBEEFAEDF9ECF8120106D0E0F53C
:1005C500F0EFFBEEFAEDF9ECF81208DCA3A3A3A318
:1005D500E8C0E0E9C0E0EAC0E0EBC0E0C0F012012D
:1005E500061208F8A3A3A3A3120015D0F0D0E0FBD0
:0D05F500D0E0FAD0E0F9D0E0F8D5F0D42243
:03000000023309BF
:0C330900787FE4F6D8FD75812102335076
:10060200E709F608DFFA8046E709F208DFFA803EDA
:1006120088828C83E709F0A3DFFA8032E309F608C7
:10062200DFFA8078E309F208DFFA807088828C832F
:10063200E309F0A3DFFA806489828A83E0A3F608E3
:10064200DFFA805889828A83E0A3F208DFFA804CBD
:1006520080D280FA80C680D4806980F28033801094
:1006620080A680EA809A80A880DA80E280CA8033FD
:1006720089828A83ECFAE493A3C8C582C8CCC58375
:10068200CCF0A3C8C582C8CCC583CCDFE9DEE78045
:100692000D89828A83E493A3F608DFF9ECFAA9F0C4
:1006A200EDFB2289828A83ECFAE0A3C8C582C8CC1A
:1006B200C583CCF0A3C8C582C8CCC583CCDFEADE33
:1006C200E880DB89828A83E493A3F208DFF980CC95
:1006D20088F0EF60010E4E60C388F0ED2402B4048E
:1006E2000050B9F582EB2402B4040050AF23234535
:0606F20082239006527302
:1006F800BB010689828A83E0225002E722BBFE0200
:09070800E32289828A83E4932232
:10071100BB010CE58229F582E5833AF583E022509D
:1007210006E92582F8E622BBFE06E92582F8E222E7
:0D073100E58229F582E5833AF583E4932201
:10073E00BB010689828A83F0225002F722BBFE019A
:02074E00F32294
:10075000BC000BBE0029EF8DF084FFADF022E4CC8D
:10076000F875F008EF2FFFEE33FEEC33FCEE9DEC56
:10077000984005FCEE9DFE0FD5F0E9E4CEFD22ED9C
:10078000F8F5F0EE8420D21CFEADF075F008EF2FE6
:10079000FFED33FD4007985006D5F0F222C398FDD7
:0507A0000FD5F0EA2274
:1007A500C5F0F8A3E028F0C5F0F8E58215827002DF
:0607B5001583E038F0227C
:1007BB00A3F8E0C5F025F0F0E582158270021583F1
:0607CB00E0C838F0E8224E
:1007D100E88FF0A4CC8BF0A42CFCE98EF0A42CFCC7
:1007E1008AF0EDA42CFCEA8EF0A4CDA8F08BF0A445
:1007F1002DCC3825F0FDE98FF0A42CCD35F0FCEBA4
:100801008EF0A4FEA9F0EB8FF0A4CFC5F02ECD3968
:0F081100FEE43CFCEAA42DCE35F0FDE43CFC22D5
:0E082000C3E49FFFE49EFEE49DFDE49CFC22E9
:10082E00EB9FF5F0EA9E42F0E99D42F0EC6480C841
:06083E0064809845F022E1
:10084400EB9FF5F0EA9E42F0E99D42F0E89C45F00A
:010854002281
:10085500E8600FECC313FCED13FDEE13FEEF13FF81
:03086500D8F122A5
:10086800BB010789828A830209C35005E9F8020996
:10087800B7BBFE05E9F80209CF89828A830208DC42
:10088800BB010DE58229F582E5833AF5830209C3A8
:100898005007E92582F80209B7BBFE07E92582F867
:1008A8000209CFE58229F582E5833AF5830208DC5F
:1008B800BB010DE58229F582E5833AF58302090833
:1008C8005007E92582F80209DBBBFE07E92582F813
:0408D8000209E72208
:1008DC00E493FC740193FD740293FE740393FF2262
:0C08EC00E0F8A3E0F9A3E0FAA3E0FB228F
:1008F800E493F8740193F9740293FA740393FB2256
:0C090800ECF0A3EDF0A3EEF0A3EFF02262
:10091400A8828583F0D083D08212092B12092B126E
:10092400092B12092BE473E493A3C583C5F0C58393
:10093400C8C582C8F0A3C583C5F0C583C8C582C82D
:010944002290
:10094500F8E0FBA3A3E0F925F0F0E582158270023B
:070955001583E0FA38F022DF
:09095C00EBF0A3EAF0A3E9F0229C
:10096500D083D082F8E4937012740193700DA3A321
:1009750093F8740193F5828883E473740293686035
:06098500EFA3A3A380DF35
:103A3D00EFB40A07740D123A48740A309811A89918
:103A4D00B8130CC2983098FDA899C298B811F630E9
:073A5D0099FDC299F59922C1
:10098B00EF4E6012EF60010EEDBB010B89828A8383
:10099B00F0A3DFFCDEFA2289F05007F709DFFCA990
:0C09AB00F022BBFEFCF309DFFCA9F022E7
:10331500023587E493A3F8E493A34003F68001F212
:1033250008DFF48029E493A3F85407240CC8C333B9
:10333500C4540F4420C8834004F456800146F6DF88
:10334500E4800B0102040810204080903655E47E8D
:10335500019360BCA3FF543F30E509541FFEE4937D
:10336500A360010ECF54C025E060A840B8E493A344
:10337500FAE493A3F8E493A3C8C582C8CAC583CA6F
:10338500F0A3C8C582C8CAC583CADFE9DEE780BE27
:0136AD00001C
:0C09B700E6FC08E6FD08E6FE08E6FF226C
:0C09C300E0FCA3E0FDA3E0FEA3E0FF22A7
:0C09CF00E2FC08E2FD08E2FE08E2FF2264
:0C09DB00ECF608EDF608EEF608EFF62248
:0C09E700ECF208EDF208EEF208EFF2224C
:00000001FF
