:10251900413120413200622E332E202E622E342E7C
:092529000020313233342E35005C
:1020BC001225321224E512258C1224921225491273
:1020CC0021291225811223B47FE87E0312240812E1
:1020DC00238A7BFF7A2579197D021218687BFF7A97
:1020EC0025791F7D011218687BFF7A25792AE4FD7A
:1020FC001218687BFF7A25791F7D021218687F8879
:10210C007E131224089000047402F0E4A3F0FF7E06
:0D211C00507D9A7C44121749121A7780FBFF
:102492005390DF5390EF4394205395DFE4F59A7500
:0C24A2009BA0759C6C759D50759E0422DB
:10253200C2AF75AA0575AA0A75A91FD2AF75AA05F9
:0725420075AA0A75A91F220A
:1024E50075800C75904075A0117592F0E4F59375A3
:0A24F50094BFF5957596EEF5972259
:0A258C005392DF4393204380202286
:1025490075A88275B802E4F589F58A758C7F758E50
:0525590004438810227C
:1024CA00E4FFFE75AB09E5AB20E20843AB04E5ABDC
:0A24DA0020E2FBAFAC7E0053ABF72D
:0124E40022D5
:03000B00021E08CA
:101E0800C0E0C083C082C0D075D000C006C00790B3
:101E1800009AE060129000AEE4F0A374C8F090005D
:101E28009B7401F0A3E4F090009BE0603690009A68
:101E3800E0B40105E4F0439010D39000AFE09400C3
:101E48009000AEE064809480400EA3E024FFF09000
:101E580000AEE034FFF0800B90009BE4F0A304F0A8
:101E68005390EF9000B0E0FEA3E0FFD39400EE940F
:101E7800004013EF9488EE9413500BE004F07006C2
:101E88009000B0E004F0758ACF758CB5438810D007
:0C1E980007D006D0D0D082D083D0E0323A
:1011A8009000DE7474F0A3E4F09000E41207E63DCA
:1011B800F5C28FE49000E8F0A3F090012A74AAF039
:1011C80090012B7455F0E4FFFE7D707C419000E4A3
:1011D800E0F8A3E0F9A3E0FAA3E0FB1201A64003BC
:1011E80002133D9000E8E4F0A304F09000E8E0FE6C
:1011F800A3E0FFC3940BEE940050CBEF7802C33307
:10120800CE33CED8F9FF9000DFE02FFF9000DEE06C
:101218003EFEC006C0079000E4E0FCA3E0FDA3E0AA
:10122800FEA3E0FF9000D31207DAD007D006121C05
:101238001D9000E8E0FEA3E07802C333CE33CED899
:10124800F9FF9000DFE02FFF9000DEE03ECF24FCA6
:10125800CF34FFFE1222669000E01207DA9000E019
:10126800E0FCA3E0FDA3E0FEA3E0FF90000474020D
:10127800F0A314F01217499000E8E0FEA3E078020A
:10128800C333CE33CED8F9FF9000DFE02FFF9000B4
:10129800DEE03EFE1222669000E01207DA9000E0DF
:1012A800E0FCA3E0FDA3E0FEA3E0FF9000047402CD
:1012B800F0E4A3F01217499000E8E0FEA3E07802FA
:1012C800C333CE33CED8F9FF9000DFE02FFF900074
:1012D800DEE03ECF2404CF3400FE1222669000E008
:1012E8001207DA9000E0E0FCA3E0FDA3E0FEA3E033
:1012F800FF9000047402F0A3F01217499000E4E094
:10130800FCA3E0FDA3E0FEA3E0FFE4FBFA7980780C
:101318003F1200159000E41207DA7FE87E031224DA
:10132800089000E9E004F060030211F39000E8E09F
:1013380004F00211F3E490012AF090012BF002234B
:011348008A1A
:10235A0025362E30660025352E306600464C4F4114
:10236A00540025362E31660025372E326600253672
:10237A002E32660025372E33660025362E33660048
:0925700053A0FB12257943A004DD
:07257900E4FF0FEFB405FBC6
:012580002238
:02245800AE07CD
:10245A00E4FDEE20E70553A0F7800343A008122508
:0A246A0070EE25E0FE0DEDB408E869
:012474002245
:1021290043A00243A00443A008122579122579E4AB
:102139009000B2F0A304F0FDFB121D6E7403121D92
:10214900667428121D669000B37429121D699000E7
:10215900B27401F07E007F107D00FB7A0079B41221
:10216900085D78137C007D017B017A0079B27E00DD
:082179007F12120623021D7DF6
:101D66009000B3F07D017B0178137C007A0079B294
:071D76007E007F121206231C
:101D7D00E4FCFE43A00243A00443A00812257953BE
:101D8D00A0FD12257912257053A0F7122570900031
:101D9D0013E0700553A0F7800343A008122570903F
:101DAD000013E0700BA3E0FF122458122570803F42
:101DBD00E4FEFC53A0FBEE20E70553A0F7800343A0
:101DCD00A008122573EE25E0FE0CECB406E5E4FC4C
:101DDD00ECFFC3740F9FFFE49400FE74152FF58282
:101DED0074003EF583E0FF1224580CECB410E1436F
:0B1DFD00A00243A00843A004022579C7
:1022EC009000B27401F07E007F107D00FB7A0079C3
:1022FC00B412085D121D6AE49000B2F0A3740212CD
:10230C001D69E49000B3F078137C007D017B017AA9
:0C231C000079B2FE7F12120623021D7D24
:10238A009000B27401F07E007F107D00FB7A007924
:10239A00B412085D78137C007D017B017A0079B262
:0A23AA007E007F12120623021D7D43
:1023B4009000B27401F07E007F107DFFFB7A0079FB
:1023C400B412085D78137C007D017B017A0079B238
:0A23D4007E007F12120623021D7D19
:10232800E4FEEDB40100EDB402027E0BED70027E16
:1023380005C374059B2EFE24B4F582E43400F583AE
:10234800E05480F074B42EF582E43400F583E04F55
:01235800F094
:012359002261
:101B6A00AC07ED7003021BF024FE60400460030220
:101B7A001C1AECB40311EB9000B5B40106E04480E2
:101B8A00F08004E0547FF0ECB40211EB9000B6B49C
:101B9A000106E04480F08004E0547FF0EC640170B8
:101BAA006FEB9000B7B40102805C8060ECB4031163
:101BBA00EB9000C0B40106E04480F08004E0547F5A
:101BCA00F0ECB40211EB9000C1B40106E04480F0DD
:101BDA008004E0547FF0EC64017035EB9000C2B4ED
:101BEA00010280228026ECB40211EB9000BBB40102
:101BFA0006E04480F08004E0547FF0ECB40111EB7D
:101C0A009000BCB40106E04480F08004E0547FF008
:031C1A000224FFA2
:10197600EF24FEB409004003021A6E90198F75F029
:1019860003A4C58325F0C583730219E70219DB0298
:1019960019F20219FD021A080219B70219C302192F
:1019A600CF0219AAED9000B9B40103021A3A021A3D
:1019B6006AED9000BDB40102807A021A6AED9000C9
:1019C600BAB40102806E021A6AED9000BEB401023A
:1019D6008062021A6AED9000B8B401028056021ABB
:1019E6006AED9000B4B40102804A8078ED9000C39D
:1019F600B40102803F806DED9000BFB401028034D7
:101A06008062ED64019000B97030E04480F090008F
:101A1600BDE04480F09000BAE04480F09000BEE063
:101A26004480F09000B4E04480F09000BFE0448031
:101A3600F09000C3E04480F0802EE0547FF09000E8
:101A4600BDE0547FF09000BAE0547FF09000BEE015
:101A5600547FF09000B4E0547FF09000BFE0547FD4
:101A6600F09000C3E0547FF09000B27401F00224BD
:011A7600FF70
:061749009000001207DA17
:10174F00900004E0703BA3E0900011700C74FFF068
:10175F00A37423F0A3745A800A74FFF0A37423F0C8
:10176F00A37460F0900000E0FCA3E0FDA3E0FEA3F3
:10177F00E0FF9000141207DA7B017A007906120954
:10178F003A900004E06401703CA3E0900011700DEA
:10179F0074FFF0A37423F0A37466F0801F74FFF03E
:1017AF00A37423F0A3746CF0900000E0FCA3E0FDA1
:1017BF00A3E0FEA3E0FF9000141207DA7B017A008A
:1017CF00790612093A900004E06402703BA3E0909E
:1017DF000011700C74FFF0A37423F0A37472800ACD
:1017EF0074FFF0A37423F0A37478F0900000E0FC72
:1017FF00A3E0FDA3E0FEA3E0FF9000141207DA7B45
:10180F00017A00790612093A900004E06403703BF4
:10181F00A3E0900011700C74FFF0A37423F0A37475
:10182F007E800A74FFF0A37423F0A37484F09000F9
:10183F0000E0FCA3E0FDA3E0FEA3E0FF9000141284
:10184F0007DA7B017A00790612093A7B017A00796F
:09185F0006900005E0FD02186886
:10134900EFB430037F5F22EFB431037F5022EFB453
:1013590032037F3D22EFB433037F7922EFB43403A4
:101369007F7222EFB435037F6B22EFB436037F6FB0
:1013790022EFB437037F5122EFB438037F7F22EF86
:10138900B439037F7322EF64616004EFB441037FD2
:101399007722EF64626004EFB442037F6E22EF6448
:1013A900636004EFB443037F0F22EF64646004EFCA
:1013B900B444037F7C22EF64656004EFB445037F86
:1013C9002F22EF64666004EFB446037F2722EF649F
:1013D900676004EFB447037F6F22EF64686004EF2E
:1013E900B448037F7622EF64696004EFB449037F50
:1013F9005022EF646A6004EFB44A037F5C22EF6411
:101409006B6004EFB44B037F3622EF646C6004EF2A
:10141900B44C037F0E22EF646D6004EFB44D037F7B
:101429000022EF646E6004EFB44E037F6422EF6420
:101439006F6004EFB44F037F5F22EF64706004EFC5
:10144900B450037F3722EF64716004EFB451037F16
:101459007322EF64726004EFB452037F2422EF64B5
:10146900736004EFB453037F6B22EF64746004EF7D
:10147900B454037F2E22EF64756004EFB455037FE3
:101489005E22EF64766004EFB456037F4C22EF646A
:10149900776004EFB457037F0022EF64786004EFAC
:1014A900B458037F0022EF64796004EFB459037FD5
:1014B9007222EF647A6004EFB45A037F3D22EF642D
:1014C9002D6004EFB45F037F2022EFB420027F0078
:0114D90022F0
:0E18680090000EEBF0A3EAF0A3E9F0A3EDF080
:10187600A37405F0E4FCED700C9000BBE0547FF01F
:10188600A3E0547FF0900011E0FEB402119000C076
:10189600E0547FF0A3E0547FF0A3E0547FF0EEB471
:1018A60001119000B5E0547FF0A3E0547FF0A3E06F
:1018B600547FF090000EE0FBA3E0FAA3E0F91206D5
:1018C60049FF700302196D642E60101213499000CF
:1018D60011E0FDA3E0FB14F012232890000EE0FBBC
:1018E600A3E0FAA3E0F9120649642E706C90001189
:1018F600E0FF64027021ECB402079000C0E044806F
:10190600F0ECB403079000C1E04480F0ECB40407A7
:101916009000C2E04480F0EF64017021ECB402074D
:101926009000B5E04480F0ECB403079000B6E044C4
:1019360080F0ECB404079000B7E04480F09000110A
:10194600E07016ECB404079000BCE04480F0ECB400
:1019560003079000BBE04480F00C90000FE475F0A4
:10196600011207080218B99000B27401F00224FFB0
:1024FF009000B27401F078137C00FDFB7A0079B282
:0A250F007E007F12120623021D7DDC
:0421D9004100980029
:101A7700E4900000F0900097F0900000F0900000D4
:101A8700E0FFC39405507AD281D280D290D291D20E
:101A970092EF7002C281EFB40102C280EFB402027A
:101AA700C290EFB40302C291EFB40402C2927F0165
:101AB7007E0012240820820D900000E025E025E03A
:101AC70004900097F020A40E900000E025E025E0A8
:101AD7002402900097F020A00E900000E025E0255A
:101AE700E02403900097F020960E900000E025E098
:101AF70025E02404900097F0900000E004F0021A1B
:101B070084900099E0FF700C900097E06006A37442
:101B170001F08031900097E0FEB50709EE6006A35B
:101B27007402F08020900099E0600C900097E070BC
:101B370006A37403F0800E900099E0700890009758
:101B4700E07002A3F0900097E0900099F0600A908F
:101B57000098E0B4010312258175AA0575AA0A75D4
:021B6700A91FB4
:011B69002259
:0B258100E490009CF090009A04F0220F
:0100060022D7
:030003007F002259
:10247500E490012CF0F01225817FFA7E00122408E9
:0C24850090012CE004F0E0C3940340EA56
:012491002228
:10240800E4FDFCC3ED9FEC9E501E75AA0575AA0A53
:1024180075A91FE4FBFA0BBB00010AEB64C84A70FC
:08242800F50DBD00010C80DB85
:012430002289
:1024AE00000000000000000000000000000000001E
:0C24BE0000000000000000000000000012
:1021DD004400710000000042007C000042007A00C3
:1021ED000041007E0158007F00000000000000004B
:1021FD0000000000000000000000000000000000D2
:10220D004400750000000044006D00000000410016
:02221D00790046
:060D580090003E1207DAD4
:100D5E0078437C007D017BFF7A2479AE7E007F187C
:100D6E0012062390005B1207E640886E5590005FD6
:100D7E001207E60000000090003EE0FCA3E0FDA399
:100D8E00E0FEA3E0FFE41202139000661207DA9071
:100D9E00006A7405F0E4A3F0A3F090006304F0A3DE
:100DAE007400F0A3747FF090005BE0FCA3E0FDA361
:100DBE00E0FEA3E0FF90006DE0F8A3E0F9A3E0FAF7
:100DCE00A3E0FB120015900066E0F8A3E0F9A3E0A3
:100DDE00FAA3E0FB1201A66002503290005BE0F82D
:100DEE00A3E0F9A3E0FAA3E0FB90006DE0FCA3E022
:100DFE00FDA3E0FEA3E0FF120011900066E0F8A351
:100E0E00E0F9A3E0FAA3E0FB1201A6505C900042C9
:100E1E00E07056900079E0FF04F0EFD39402404664
:100E2E00E4F090006BF090006AE014FFA3E0C39F23
:100E3E004003020F7F900066E0FCA3E0FDA3E0FEFE
:100E4E00A3E0FF900063E0FBA3E0FAA3E0F99000BB
:100E5E006BE075F004A4F58285F0831207B690005E
:100E6E006BE004F080C0021199900042E0640170C2
:100E7E004C900079F090006BF090006AE014FFA3A4
:100E8E00E0C39F4003020F7F90003EE0FCA3E0FD15
:100E9E00A3E0FEA3E0FFE4120213900063E0FBA3C5
:100EAE00E0FAA3E0F990006BE075F004A4F58285FA
:100EBE00F0831207B690006BE004F080BC90004205
:100ECE00E06402705590006BF090006AE014FFA38E
:100EDE00E0FEC39F4003020F7FEE2401FFE433FECA
:100EEE00EF7802C333CE33CED8F9FF900063E0FB28
:100EFE00A3E0FAA3E0F98F828E8312078690006337
:100F0E00A3A390006BE075F004A4F58285F0831224
:100F1E0007B690006BE004F080AFE4900079F0909B
:100F2E00006BF090006AE014FFA3E0FEC39F5041F7
:100F3E00EE2401FFE433FEEF7802C333CE33CED876
:100F4E00F9FF900063E0FBA3E0FAA3E0F98F828E35
:100F5E0083120786900063A3A390006BE075F004E4
:100F6E00A4F58285F0831207B690006BE004F08042
:100F7E00B2900066E0FCA3E0FDA3E0FEA3E0FFC09C
:100F8E0004C005C006C007A3E024FFFFE434FFFE43
:100F9E00EF7802C333CE33CED8F9FF900063E0FB77
:100FAE00A3E0FAA3E0F98F828E83D007D006D00596
:100FBE00D0041207B6E490006BF090006AE0FFA335
:100FCE00E0C39F5037900063E0FBA3E0FAA3E0F983
:100FDE0090006BE075F004A4F58285F0831207860D
:100FEE0090006BE025E025E02443F582E43400F523
:100FFE00831207DA90006BE004F080BEE490006B81
:10100E00F090006AE014FFA3E0FEC39F40030210BD
:10101E00F2EE04A3F090006AE0FF90006CE0FEC3D5
:10102E009F40030210E990006BE025E025E0244389
:10103E00F582E43400F583E0F8A3E0F9A3E0FAA327
:10104E00E0FBEE25E025E02443F582E43400F58351
:10105E00E0FCA3E0FDA3E0FEA3E0FF1201A6607298
:10106E00407090006CE0FB25E025E02443F582E41F
:10107E003400F583E0FCA3E0FDA3E0FEA3E0FF90C7
:10108E00005F1207DA90006BE0FA25E025E02443BA
:10109E00F582E43400F583E0FCA3E0FDA3E0FEA3BB
:1010AE00E0FFEB25E025E02443F582E43400F583F0
:1010BE001207DA90005FE0FCA3E0FDA3E0FEA3E0E0
:1010CE00FFEA25E025E02443F582E43400F583129F
:1010DE0007DA90006CE004F002102390006BE0043D
:1010EE00F002100F90006D1207E600000000900055
:1010FE006B7401F090006AE014FFA3E0FEC39F50F2
:10110E003890006DE0F8A3E0F9A3E0FAA3E0FBEE5F
:10111E0025E025E02443F582E43400F583E0FCA3CA
:10112E00E0FDA3E0FEA3E0FF12001590006D120794
:10113E00DA90006BE004F080BB90006DE0FCA3E061
:10114E00FDA3E0FEA3E0FFC004C005C006C00790EB
:10115E00006AE024FEFDE434FFFCE4120218A80449
:10116E00A905AA06AB07D007D006D005D0041201F8
:10117E000990006D1207DA90006DE0FCA3E0FDA36C
:10118E00E0FEA3E0FF9000751207DA90006DE0FC20
:09119E00A3E0FDA3E0FEA3E0FFC5
:0111A7002225
:0516190090011CEFF040
:10161E00A31207E600000000308342E47FFAFEFDCD
:10162E00FC90011DE0F8A3E0F9A3E0FAA3E0FBC3F0
:10163E0012074250287F017E0012240890011DE0FF
:10164E00FCA3E0FDA3E0FEA3E02401FFE43EFEE4E4
:10165E003DFDE43CFC90011D1207DA80BB30830394
:10166E0002173A121FBA90011D1207DA90011DE0FF
:10167E00FCA3E0FDA3E0FEA3E0FF78071207539062
:10168E00011D1207DAE47FFF7EFFFDFC90011DE0D5
:10169E00F8A3E0F9A3E0FAA3E0FBC3120742606DE2
:1016AE00E47FFF7EFFFDFC90011DE0F8A3E0F9A3AF
:1016BE00E0FAA3E0FBD312074290011DE04032F89E
:1016CE00E49BFFE49AFE740299FDE498FC90011DE0
:1016DE001207DA90011DE0F8A3E0F9A3E0FAA3E007
:1016EE00FBC374F49BFF747E9AFEE499FDE498802C
:1016FE0015FCA3E0FDA3E0FEA3E024F4FFEE347E90
:10170E00FEE43DFDE43CFC90011D1207DA90011D44
:10171E00E0FCA3E0FDA3E0FEA3E0FF90011CE0903F
:10172E000042F0120D589000711207DA900071E02D
:0A173E00FCA3E0FDA3E0FEA3E0FF22
:01174800227E
:101FBA0078117C017D017BFF7A2479C67E007F043B
:101FCA0012062390010E7401F0A37401F0A3741198
:101FDA00F0208362E4FDFCD284EDAE047803CEC324
:101FEA0013CE13D8F9FF2412F58274013EF583E06B
:101FFA00FB25E0F0C28474122FF58274013EF5834A
:10200A00E0FFA283E433FEEF4EF00DBD00010CEDBC
:10201A0064184C70C2D284EDAE047805C333CE3353
:10202A00CED8F9FDAC06C28490010EE0FBA3E0FA1B
:06203A00A3E0F9120766A5
:01204000227D
:0100070022D6
:0A255E00E475F00112071EAFF0FE55
:072568008F828E83E493FFD4
:01256F002249
:0822AC00900115EEF0A3EFF024
:1022B4009001197401F0A37401F0A37417F0E4FD04
:1022C40090011512255E900119E0FBA3E475F0015D
:1022D40012071EA9F0FAEF12068F0DEDB402E19079
:0722E4000117E0FEA3E0FF7B
:0122EB0022D0
:082220009000EAEEF0A3EFF0DC
:102228009000F07401F0A37400F0A374ECF0E4FDE6
:102238009000EA12255E9000F0E0FBA3E475F0013F
:1022480012071EA9F0FAEF12068F0DEDB404E19003
:0D22580000ECE0FCA3E0FDA3E0FEA3E0FF2E
:012265002256
:082266009000F3EEF0A3EFF08D
:10226E009000F97401F0A37400F0A374F5F0E4FD8E
:10227E009000F312255E9000F9E0FBA3E475F001E7
:10228E0012071EA9F0FAEF12068F0DEDB404E190BD
:0D229E0000F5E0FCA3E0FDA3E0FEA3E0FFDF
:0122AB002210
:10204100AFF0FEE0FBA3E475F00112071EA9F0FA60
:04205100120649FD2D
:10205500E4900123F075AA0575AA0A75A91F9001D8
:1020650021EEF0A3EFF0A2AF9209C2AF900121E0FB
:10207500F5C3A3E0F5C2AF058FC1E4F5C4F5C5F519
:10208500C690012AE0B4AA08A3E0B4550375C703B6
:1020950012000775C40575C50A75C60990012AE0C1
:1020A500B4AA08A3E0B4550375C703E4F5C4F5C5A0
:0620B500F5C6A20992AF7E
:0120BB002202
:1023DE00900126EDF0900124EEF0A3EFF0122568A7
:1023EE00EFF460089001247D011214DC900124E0CA
:0A23FE00FEA3E0FFA3E0FD0220555E
:101F30009000FEECF0A3EDF09000FCEEF0A3EFF0CB
:101F40001222AC900103EEF0A3EFF09001007401B7
:101F5000F0A37401F0A37403F0900100E0FBA3E48C
:101F600075F00112071EA9F0FA120649B4FF169087
:101F70000100E0FBA3E475F00112071EA9F0FA12BC
:101F80000649F4600F9000FCE0FEA3E0FF7D027CB8
:101F9000001214E39001007401F0A37400F0A37424
:101FA000FEF0E4FC9000FCE475F00112071E9001C5
:091FB000001220410CECB402EB1C
:011FB9002205
:081CC3009000C4EEF0A3EFF065
:101CCB001222209000CD1207DA9000CA7401F0A303
:101CDB007400F0A374CDF09000CAE0FBA3E475F0A0
:101CEB000112071EA9F0FA120649B4FF429000CA6E
:101CFB00E0FBA3E475F00112071EA9F0FA120649E6
:101D0B00B4FF2C9000CAE0FBA3E475F00112071E90
:101D1B00A9F0FA120649B4FF169000CAE0FBA3E43F
:101D2B0075F00112071EA9F0FA120649B4FF0690CE
:101D3B0000C41214DA9000CA7401F0A37400F0A36B
:101D4B0074C6F0E4FC9000C4E475F00112071E9019
:0A1D5B0000CA1220410CECB404EBA6
:011D6500225B
:081C1D009000D1EEF0A3EFF0FE
:101C25001222669000DA1207DA9000D77401F0A349
:101C35007400F0A374DAF09000D7E0FBA3E475F02C
:101C45000112071EA9F0FA120649B4FF429000D707
:101C5500E0FBA3E475F00112071EA9F0FA1206498C
:101C6500B4FF2C9000D7E0FBA3E475F00112071E2A
:101C7500A9F0FA120649B4FF169000D7E0FBA3E4D9
:101C850075F00112071EA9F0FA120649B4FF069075
:101C950000D11214DA9000D77401F0A37400F0A3F8
:101CA50074D3F0E4FC9000D1E475F00112071EAF87
:0D1CB500F0FE9000D71220440CECB404E8BF
:011CC20022FF
:10218100E4900127F0A3EEF0A3EFF0A2AF920AC210
:10219100AF900128E0F5C3A3E0F5C2E4F5C4F5C5AD
:1021A100F5C690012AE0B4AA08A3E0B4550375C7A7
:1021B1000312000775C40575C50A75C60990012A81
:1021C100E0B4AA08A3E0B4550375C70CE4F5C4F55F
:0721D100C5F5C6A20A92AF9A
:0121D80022E4
:0914DA007D04E0FEA3E0FF7C00AC
:1014E300900107ECF0A3EDF0900105EEF0A3EFF00F
:1014F300E4900109F0A3F0A3F0A37404F0A3E4F0D3
:10150300FD7C041206B37D007C041206A1AA06AB7F
:1015130007E490010AF0A3F090010AE0FEA3E0FFC4
:10152300C3940AEE94005025E42FFFEE3468FE12B4
:101533002568EFF460077F007E6812218190010B1C
:10154300E004F070D390010AE004F080CBE4900152
:101553000AF0A3F090010CE0FEA3E0FF90010AE083
:10156300FCA3E0FDC39FEC9E5056ED2BFFEC3AFE2F
:10157300900105E0B50617A3E0B50712A3E0FEA3AB
:10158300E0FF90010BE02FF090010AE03EF09001A4
:101593000BE02BFF90010AE03AFE122568AD07909D
:1015A300010BE02400FF90010AE03468FE1220558D
:1015B30090010BE004F0709C90010AE004F0809429
:1015C300AF03AE02122181E490010AF0A3F090016F
:1015D3000CE0FEA3E0FF90010AE0FCA3E0FDC39F43
:1015E300EC9E502BE42DFFEC3468FE122568AD070A
:1015F30090010BE02BFF90010AE03AFE1220559078
:10160300010BE004F070C790010AE004F080BF7F93
:06161300007E6802218147
:10000E00020286E86480F8E933E83360110460F098
:10001E00ED33EC337009E8FCE9FDEAFEEBFF220458
:10002E0060DED3EB9FEA9EE99DE8C2E78CF0C2F753
:10003E0095F0400CE8CCF8E9CDF9EACEFAEBCFFB1F
:10004E0012025185D0F05804700320D5B3E8047025
:10005E00075002B2D502029092D5EC0460F7E4CCC0
:10006E00C0E0C398F8603B94186008400DD0E0FBE8
:10007E00020268E4FBFAC9FC8028E830E406E4C911
:10008E00FBE4CAFCE830E305E4C9CACBFCE854073C
:10009E006010F8C3E913F9EA13FAEB13FBEC13FC47
:1000AE00D8F130F52FC3E49CFCEF9BFFEE9AFEEDEA
:1000BE0099FDD0E0FBEF4E4D4C701222DB03020295
:1000CE008DEC2CFCEF33FFEE33FEED33FDED30E720
:1000DE00EB020268EF2BFFEE3AFEED39FDD0E0FBAE
:1000EE0050130BBB0003020290ED13FDEE13FEEF57
:0800FE0013FFEC13FC02026881
:10010600020290EC5D046005E85904700302028661
:10011600120251580460F6EC4860F2EC7004FDFEE1
:10012600FF22C860DB2481C85009C39860025006CC
:1001360002028D9850CAF582E9294B4A7005AB82B6
:1001460002027C75F0007C1A7880C3EF9BEE9AED74
:1001560099400DC3EF9BFFEE9AFEED99FDE842F044
:10016600DC23ACF0D0E0FFD0E0FED0E0FDAB822097
:10017600E7101BEB60BAEC2CFCEF33FFEE33FEED21
:1001860033FD020268E803F830E705C0F075F000B9
:10019600EF2FFFEE33FEED33FD40B830E7C280AA05
:1001A60074F8CC6480CCC86480C8F582046043C30C
:1001B600EB9FF5F0EA9E42F0E99D42F0E89C45F09F
:1001C60060305018E5825FFFE582F42B5582FB50C4
:1001D600210ABA001D09B90019088016E5825BFBE1
:1001E600E582F42F5582FF50090EBE00050DBD00B5
:1001F600010CC3EB9FF5F0EA9E42F0E99D42F0E860
:0D0206009C45F06007CC4820E701B3EC22D6
:1002130075F020800E75F010800575F0087D007E66
:10022300007F003392D530D503120734EC334010EE
:10023300EF33FFEE33FEED33FDEC33FCD5F0ED226F
:0E024300E5F0247EA2D513CC92E7CDCEFF22AB
:1008D500E5082411F582E43400F583E0050822904B
:1008E500000E300703900011E475F001120817029D
:1008F50006492000E97F2ED2008018EF540F24907E
:10090500D43440D4FF30040BEF24BFB41A00500395
:100915002461FFE50960021509050CE50C70020567
:100925000B30070E90000EE475F001120817EF0268
:10093500068F0224317403D2078003E4C207F50849
:1009450090000E12082EE4F509F50BF50CE509608B
:10095500077F2012091880F5750AFFC201C200C27F
:1009650002C203C205C206C2081208E4FF700D30B8
:1009750007057F00120929AF0CAE0B22B4255FC213
:10098500D5C2041208E4FF24D0B40A00501A75F049
:100995000A780930D50508B6FF0106C6A426F62053
:1009A500D5047002D20380D924CFB41A00EF5004C5
:1009B500C2E5D204020C1BD20180C6D20080C0D28F
:1009C5000280BCD2D580BAD20580B47F2012091826
:1009D5002002077401B5090040F11208D5FF12097C
:1009E50018020952D208D20680951208D5FB1208C2
:1009F500D5FA1208D5F94A4B700679197A0D7BFF9D
:100A050020022EE509602A7E008E8275830012067B
:100A15006260060EEE650A70F0C2D5EBC0E0EAC072
:100A2500E0E9C0E0EE120C7CD0E0F9D0E0FAD0E0CD
:100A3500FB120649FF60AAEBC0E0EAC0E0E9C0E0AE
:100A4500120918D0E02401F9D0E03400FAD0E0FB17
:100A5500E50A0460DCD50AD98087D20280A2120C8F
:100A65005E60F7E50A70010412029BA90A600DE5B4
:100A75000A600914F50A120D06EF60F3EA30E70281
:100A8500F404C3995079EAF4250A0430E701E40433
:100A9500F50A800D120C5E60C1EA050A250A1202EC
:100AA5009BEA90003DF030E701E4250A04D50A04ED
:100AB50020050114120C7CE4C0E0120D0690003DE7
:100AC500E0601320E70714F0120900802204F0D03B
:100AD500E014C0E07F00120900E50A60071208F77C
:100AE500150A800B3005031208F7D0E0020952D031
:100AF500E00480C4120C5E609EE50A0412029B901D
:100B0500003DEAF0E50A2005026001042404120C08
:010B15007C63
:100B160074FF04C0E0120D06120900E50A20050262
:100B260060031208F7D0E0B50AE87F4512090A907B
:100B3600003DE07F2B30E7047F2DF404C0E012096E
:100B460018D0E075F00A84C0F0120901D0E012094D
:100B560001020952791080027908C206C20880088B
:100B6600D2D5790A8004790AC2D5E50A047002F55D
:100B76000AE4FAFDFEFF1208D5FC7B0820011312D9
:100B860008D5FD7B1030000A1208D5FE1208D5FFE5
:100B96007B20EC3382D592D55013C3E43000069FF8
:100BA600FFE49EFEE42001039DFDE49CFCE4CBF8FB
:100BB600C201EC700CCFCECDCCE824F8F870F380EF
:100BC60017C3EF33FFEE33FEED33FDEC33FCEB33AF
:100BD600FB994002FB0FD8E9EB300105F8D0E0C4E1
:100BE60048B201C0E00AEC4D4E4F78207B0070C23F
:100BF600EAB50A0040BCC0E0120C7ED0F0D0E0207E
:100C06000104C4C0E0C4B201C0F0120901D0F0D59D
:100C1600F0EB02095212083709EF530B5A5809C074
:100C26004C09BC420B5E4F0B66440B664909D54323
:100C36000B6C550A99460AF9450A63470D3950095E
:100C4600C42D09C82E09EB2B09CC2309E9200D2256
:100C56002A098448000009E3E50AB4FF03750A0679
:100C66001208D5FC1208D5FD1208D5FE1208D5FFCC
:100C76009000360202D8790AA2D52003143005095D
:100C8600B910020404B9080104A2D52006025001D5
:100C9600042002689202B509005034C0E07F20307B
:100CA60003197F30A20272067205500F120CD5C2CC
:100CB60002C206C205C2087F30800F300503E9C0B4
:100CC600E0120918300503D0E0F9D0E0B509CC30C0
:100CD60005177F30B9100C1209187F583004077FAA
:100CE600788003B908031209183002057F2D02091E
:100CF600187F202008F87F2B2006F322920280CF4F
:100D06007F00B40700500B2436F582E43400F583E7
:100D1600E0FF22286E756C6C2900D2011208D530CE
:100D260001F8C201780930D50108F60209842D5070
:100D36004349581208D52403B405004001E4900D38
:100D46003493120909743A120909D2037509040287
:020D56000B5A36
:10025100E9D2E7C933E833F892D5EDD2E7CD33ECF3
:0702610033FC5002B2D5226C
:10026800EC30E7100FBF000C0EBE00080DBD0004F7
:100278000BEB6014A2D5EB13FCED92E7FD2274FFA3
:10028800FCFDFEFF22E480F8A2D574FF13FC7D80FC
:03029800E480EF10
:10029B00F920E73624F950037907E4F42402FBE54F
:1002AB0082158270021583DBF6E024FB501BE9609C
:1002BB0014E4F0E582158270021583E004F0B40AB1
:0D02CB0008E4F0D9EE7401F00A22C2D52239
:1002D800ED33EC3392D5FA602AB4FF33EDC2E77BF5
:1002E800FF60067A0279FDE4227A03790620D504B4
:1002F8007A037901224E614E002B494E46002D4962
:100308004E4600E47A08F0A3DAFC7B00740722C0AA
:1003180083C082ECC0E0EDC0E0EEC0E0EFC0E0EAF0
:1003280075F010A4CAABF075F04DA42BFBE435F0C2
:10033800FCEA2410FAEB34C5FBEC34D9FCEDC2E737
:10034800FF75F056A4F42411C5F0F434C58FF0A459
:100358002AE5F03BE43CF020E714120513D0E0FF57
:10036800D0E0FED0E0FDD0E0FC1201098014F404D6
:10037800120513D0E0FFD0E0FED0E0FDD0E0FC1283
:1003880003DDD082D083E0FAEDD2E7CD33EC33241D
:1003980082FBE4C3CF33CFCE33CECD33CD33DBF3C3
:1003A8007B0775F00A846004F0A31B0AE5F0F0A34C
:1003B8008FF0740AA4FFACF08EF0740AA42CFEAC83
:1003C800F050010C8DF0740AA42CFDE435F0F0A374
:0503D800DBDE740722CA
:1003DD00EC4D6011E8497017ED33EC3304600DE41A
:1003ED00FCFFFEFD22E933E8330470F802028612A9
:1003FD00025158046009E4CC2481500628500902AA
:10040D00029028400302028DC0E0EB4A7044B9808F
:10041D0006D0E0FB02027CEF4E701CBD8008EBFFA6
:10042D00EAFEE9FD80EBE98DF0A4FEE5F00204C6DD
:10043D00E9CDF9EAFEEBFFEF89F0A4FCE5F0CE89FA
:10044D00F0A42EFFE435F0CD89F0A42DFEE435F0B7
:10045D008067EF4E7005BD80D780C3EF8BF0A4ACE5
:10046D00F0EE8BF0A42CFCE435F0F8EF8AF0A42C20
:10047D00E5F038FCE433CB8DF0A42CFCE5F03BF833
:10048D00EE8AF0A42CFCE5F038F8E433CF89F0A423
:10049D002CFCE5F038CF3400CE89F0A42FFFE5F029
:1004AD003EFEE433C98DF0A42EFEE5F039CD8AF081
:1004BD00A42FFFE5F03EFEE43DFD33D0E0FB5007F9
:1004CD000BBB000F020290EC2CFCEF33FFEE33FE62
:0604DD00ED33FD02026890
:1004E3003F8000004120000042C80000447A000021
:1004F300461C400047C35000497424004B189680A3
:100503004CBEBC205A0E1BCA6753C21C749DC5AE99
:10051300FB60065407601C2323120541EB5438602B
:100523000912052D12053C1203DDECF8EDF9EEFA84
:10053300EFCB22EB12053C80F1543803241C9004CA
:10054300E3FE93FC0EEE93FD0EEE930ECE93FF228D
:03000000021EA439
:0C1EA400787FE4F6D8FD758121021EEB6A
:10055300E709F608DFFA8046E709F208DFFA803E8A
:1005630088828C83E709F0A3DFFA8032E309F60877
:10057300DFFA8078E309F208DFFA807088828C83DF
:10058300E309F0A3DFFA806489828A83E0A3F60893
:10059300DFFA805889828A83E0A3F208DFFA804C6D
:1005A30080D280FA80C680D4806980F28033801044
:1005B30080A680EA809A80A880DA80E280CA8033AD
:1005C30089828A83ECFAE493A3C8C582C8CCC58325
:1005D300CCF0A3C8C582C8CCC583CCDFE9DEE780F5
:1005E3000D89828A83E493A3F608DFF9ECFAA9F074
:1005F300EDFB2289828A83ECFAE0A3C8C582C8CCCA
:10060300C583CCF0A3C8C582C8CCC583CCDFEADEE2
:10061300E880DB89828A83E493A3F208DFF980CC44
:1006230088F0EF60010E4E60C388F0ED2402B4043D
:100633000050B9F582EB2402B4040050AF232345E4
:0606430082239005A37361
:10064900BB010689828A83E0225002E722BBFE02AF
:09065900E32289828A83E49322E2
:10066200BB010CE58229F582E5833AF583E022504D
:1006720006E92582F8E622BBFE06E92582F8E22297
:0D068200E58229F582E5833AF583E49322B1
:10068F00BB010689828A83F0225002F722BBFE014A
:02069F00F32244
:1006A100EF8DF0A4A8F0CF8CF0A428CE8DF0A42E6D
:0206B100FE2227
:1006B300BC000BBE0029EF8DF084FFADF022E4CC2B
:1006C300F875F008EF2FFFEE33FEEC33FCEE9DECF4
:1006D300984005FCEE9DFE0FD5F0E9E4CEFD22ED3A
:1006E300F8F5F0EE8420D21CFEADF075F008EF2F84
:1006F300FFED33FD4007985006D5F0F222C398FD75
:050703000FD5F0EA2211
:10070800C5F0F8A3E028F0C5F0F8E582158270027C
:060718001583E038F02219
:10071E00A3F8E0C5F025F0F0E5821582700215838E
:06072E00E0C838F0E822EB
:0E073400C3E49FFFE49EFEE49DFDE49CFC22D6
:10074200EB9FF5F0EA9E42F0E99D42F0E89C45F00D
:010752002284
:10075300E8600FECC313FCED13FDEE13FEEF13FF84
:03076300D8F122A8
:10076600BB010789828A830208955005E9F80208C9
:1007760089BBFE05E9F80208A189828A830208ADD1
:10078600BB010DE58229F582E5833AF583020895DA
:100796005007E92582F8020889BBFE07E92582F899
:1007A6000208A1E58229F582E5833AF5830208ADC0
:1007B600BB010DE58229F582E5833AF5830207DA66
:1007C6005007E92582F80208BDBBFE07E92582F835
:0407D6000208C9222A
:0C07DA00ECF0A3EDF0A3EEF0A3EFF02292
:1007E600A8828583F0D083D0821207FD1207FD12FE
:1007F60007FD1207FDE473E493A3C583C5F0C58323
:10080600C8C582C8F0A3C583C5F0C583C8C582C85C
:0108160022BF
:10081700F8E0FBA3A3E0F925F0F0E582158270026A
:070827001583E0FA38F0220E
:09082E00EBF0A3EAF0A3E9F022CB
:10083700D083D082F8E4937012740193700DA3A350
:1008470093F8740193F5828883E473740293686064
:06085700EFA3A3A380DF64
:10243100EFB40A07740D12243C740A309811A8995C
:10244100B8130CC2983098FDA899C298B811F6300B
:0724510099FDC299F59922E3
:10085D00EF4E6012EF60010EEDBB010B89828A83B2
:10086D00F0A3DFFCDEFA2289F05007F709DFFCA9BF
:0C087D00F022BBFEFCF309DFFCA9F02216
:101EB0000220BCE493A3F8E493A34003F68001F26C
:101EC00008DFF48029E493A3F85407240CC8C33333
:101ED000C4540F4420C8834004F456800146F6DF02
:101EE000E4800B01020408102040809021D9E47E98
:101EF000019360BCA3FF543F30E509541FFEE493F7
:101F0000A360010ECF54C025E060A840B8E493A3BD
:101F1000FAE493A3F8E493A3C8C582C8CAC583CAE8
:101F2000F0A3C8C582C8CAC583CADFE9DEE780BEA0
:01221F0000BE
:0C088900E6FC08E6FD08E6FE08E6FF229B
:0C089500E0FCA3E0FDA3E0FEA3E0FF22D6
:0C08A100E2FC08E2FD08E2FE08E2FF2293
:1008AD00E493FC740193FD740293FE740393FF2291
:0C08BD00ECF608EDF608EEF608EFF62267
:0C08C900ECF208EDF208EEF208EFF2226B
:00000001FF
