:100C2C002D544F52520045592D003230323200258E
:070C3C00640000000000004D
:040B9D007FF47E0162
:100BA100E4FDFCC3ED9FEC9E5015E4FBFA0BBB008A
:0F0BB100010AEB64A44A70F50DBD00010C80E44D
:010BC0002212
:100C5700E4F59A759B20759C05759D03759E042286
:10087D00785D7C007D007BFF7A0C793E7E007F05E4
:10088D0012042F7594FFE4F5957596FFF597F5A075
:10089D00F590120AEA120B9D7BFF7A0C792C7D01E3
:1008AD00120553120B9D7BFF7A0C79327D021205D6
:1008BD0053120B9D7BFF7A0C7936E4FD1205531212
:1008CD000B9D120C575390DF43901012000075656D
:1008DD00FF75660C75673B8508687B007A00795D4E
:1008ED0012005F7B007A00795DE4FD1205537F32C3
:0708FD007E00120BA180D464
:100B4B000A235F503D79726B6F517F731C41776E37
:100B5B000F7C2F276F76505C360E00645F37732443
:0A0B6B006B2E5E4C0000723D20006E
:090C140053A0FB120C1D43A004C7
:0E0C1D00E4FFFE0FBF00010EEF64054E70F500
:010C2B0022A6
:100AEA0043A00243A00443A008120C1D120C1DE4EB
:100AFA00F52D752E01FDFBFE120767752E031207F1
:100B0A0061752E28120761752E2912076112074C8A
:040B1A00E4FEFF22D4
:020BDF00AD0760
:100BE100E4FCED20E70553A0F7800343A008120CB5
:090BF10014ED25E0FD0CBC08E93F
:010BFA0022D8
:10074C00752D01E4F53F754010FEFD7F10FB7A001E
:10075C00792F1204B27D007B007E0078677C007AD2
:08076C0000792D7F1412042F07
:10077400E4FB43A00243A00443A008120C1D53A0B1
:10078400FD120C1D120C1453A0F7120C14E5677023
:100794000553A0F7800343A008120C14E567700A00
:1007A400AF68120BDF120C148037E4F579FB53A009
:1007B400FBE57920E70553A0F7800343A008120C5A
:1007C40017E57925E0F5790BBB06E3E4FBEBFFC302
:1007D400740F9FFF74692FF8E6FF120BDF0BBB1039
:0D07E400EC43A00243A00843A004020C1D3A
:100B1E0012074CE4F52D752E0278677C00FDFB7AEA
:100B2E0000792DFE12076FE4F52E78677C00FDFB31
:0D0B3E007A00792DFE12076F7E007F0122E4
:080C670012074C7E007F012200
:100C4300752D01E4F53F754010FE7DFF1207577EB9
:040C5300007F0122FB
:070C77008F127E007F0122B5
:100BC100E4FEBD0100BD02027E0BED70027E05C395
:0D0BD10074059B2E242FF8E65480F64FF695
:010BDE0022F4
:10090400ED606324FE6031047078BF030BBB010506
:10091400433080800353307FBF020BBB010543315A
:1009240080800353317FEF64017057BB010543326C
:1009340080804F53327F804ABF030BBB0105433B8A
:10094400808003533B7FBF020BBB0105433C808087
:1009540003533C7FEF64017029BB0105433D808054
:1009640021533D7F801CBF020BBB010543368080B1
:100974000353367FBF010BBB01054337808003530C
:05098400377F020BFBB0
:10067700EF24FEB40900400302074090069075F08E
:1006870003A4C58325F0C583730206EE0206E102C3
:1006970006FB02070202070F0206BA0206C7020696
:1006A700D40206ABBD010643348002074053347FB2
:1006B700020740BD0105433880807E53387F80792B
:1006C700BD0105433580807153357F806CBD0105C1
:1006D700433980806453397F805FBD010543338090
:1006E700805753337F8052BD0105432F80804A5383
:1006F7002F7F8045BD01028026803BBD0105433A1F
:10070700808036533A7F8031ED640170174334801F
:10071700433880433580433980432F80433A8043B1
:100727003E80801553347F53387F53357F53397F4D
:10073700532F7F533A7F533E7F752D01E4F53F7565
:050747004010020BFB55
:080553008B628A638964AC0528
:10055B00756505E4F566EC700653367F53377FBC43
:10056B000209533B7F533C7F533D7FBC0109533002
:10057B007F53317F53327FAB62AA63A96412045558
:10058B00FF700302066BC3648094B04017D3EF6413
:10059B008094B9500F74F32FF8E6FFAD04AB6515DB
:1005AB0065120BC1AB62AA63A964120455B42D0B7F
:1005BB00AD04AB651565AF5B120BC1AB62AA63A94A
:1005CB0064120455B4200BAD04AB65E4FF120BC1F0
:1005DB001565AB62AA63A964120455FFC3648094CA
:1005EB00C14017D3EF648094DA500F74002FF8E6F4
:1005FB00FFAD04AB65120BC11565AB62AA63A964B1
:10060B00120455642E7049BC0218E566B40203430C
:10061B003B80E566B40303433C80E566B4040343C7
:10062B003D80BC0118E566B40203433080E566B437
:10063B000303433180E566B40403433280EC70104E
:10064B00E566B40403433780E566B40303433680A1
:10065B00056674012564F564E43563F56302058270
:0C066B00752D01E4F53F754010020BFBFB
:100BFB00752D0178677C007D007B007A00792D7E56
:090C0B00007F1412042F0207748B
:070C6F008F828E83E493FFE6
:010C7600225B
:100A4E008E0C8F0DA2AF9211C2AF850CC3850DC255
:100A5E008DC1E4F5C4F5C5F5C690000BE0FFB4AA50
:100A6E000A90000CE0B4550375C7030075C40575F4
:100A7E00C50A75C609EFB4AA0A90000CE0B4550376
:0E0A8E0075C703E4F5C4F5C5F5C6A21192AF15
:010A9C002237
:100A9D008E0E8F0FA2AF9212C2AF850EC3850FC2FD
:100AAD00E4F5C4F5C5F5C690000BE0FFB4AA0A90B5
:100ABD00000CE0B4550375C7030075C40575C50A70
:100ACD0075C609EFB4AA0A90000CE0B4550375C7BA
:0C0ADD000CE4F5C4F5C5F5C6A21292AFFA
:010AE90022EA
:070C7E0000D28200C28222B5
:1009F200781312049900000000E4FB7813120481BA
:100A0200780112046E781312048D120C7E30801756
:100A12007813120481EF2401FFE43EFEE43DFDE47D
:100A22003CFC781312048D0BBB18D078131204818E
:100A3200ED6480FDEC781312048D120C7E120C7E94
:0B0A4200120C7E30090500D282C209B0
:010A4D002286
:10098900E4F510F511F508751001C282C2A4C2A0E0
:10099900C296751001D282751002D2A4751003D2C5
:1009A900A0751004D296308103851008308006E5C1
:1009B9001025E0F508309008E51075F003A4F50856
:1009C900309108E51025E025E0F508309208E5109A
:1009D90075F005A4F5087F057E00120BA10510D35B
:0809E900E5106480948440A233
:0109F10022E3
:030000000207F103
:0C07F100787FE4F6D8FD75817A020838A4
:10035F00E709F608DFFA8046E709F208DFFA803E80
:10036F0088828C83E709F0A3DFFA8032E309F6086D
:10037F00DFFA8078E309F208DFFA807088828C83D5
:10038F00E309F0A3DFFA806489828A83E0A3F60889
:10039F00DFFA805889828A83E0A3F208DFFA804C63
:1003AF0080D280FA80C680D4806980F2803380103A
:1003BF0080A680EA809A80A880DA80E280CA8033A3
:1003CF0089828A83ECFAE493A3C8C582C8CCC5831B
:1003DF00CCF0A3C8C582C8CCC583CCDFE9DEE780EB
:1003EF000D89828A83E493A3F608DFF9ECFAA9F06A
:1003FF00EDFB2289828A83ECFAE0A3C8C582C8CCC0
:10040F00C583CCF0A3C8C582C8CCC583CCDFEADED8
:10041F00E880DB89828A83E493A3F208DFF980CC3A
:10042F0088F0EF60010E4E60C388F0ED2402B40433
:10043F000050B9F582EB2402B4040050AF232345DA
:06044F0082239003AF734D
:10045500BB010689828A83E0225002E722BBFE02A5
:09046500E32289828A83E49322D8
:10046E00E8600FEFC333FFEE33FEED33FDEC33FCEC
:03047E00D8F12290
:0C048100E6FC08E6FD08E6FE08E6FF22A7
:0C048D00ECF608EDF608EEF608EFF6229B
:10049900D083D082E493F608740193F6087402932A
:0904A900F608740393F674047361
:10000300E5712465F8E605712278623007027865A8
:10001300E475F00112051D0204552000EB7F2ED27A
:10002300008018EF540F2490D43440D4FF30040BD5
:10003300EF24BFB41A0050032461FFE57260021578
:10004300720575E5757002057430070D7862E47505
:10005300F00112051DEF02050B020B767403D207A4
:100063008003E4C207F5718B628A638964E4F572E5
:10007300F574F575E57260077F2012003E80F57513
:1000830073FFC201C200C202C203C205C206C20894
:1000930012000CFF700D3007057F0012004FAF7583
:1000A300AE7422B4255FC2D5C20412000CFF24D063
:1000B300B40A00501A75F00A787230D50508B6FFF5
:1000C3000106C6A426F620D5047002D20380D924E3
:1000D300CFB41A00EF5004C2E5D20402024FD2019A
:1000E30080C6D20080C0D20280BCD2D580BAD205ED
:1000F30080B47F2012003E2002077401B5720040D5
:10010300F1120003FF12003E020077D208D20680EC
:1001130095120003FB120003FA120003F94A4B7015
:100123000679207A037BFF20022EE572602A7E0087
:100133008E827583001204DE60060EEE657370F026
:10014300C2D5EBC0E0EAC0E0E9C0E0EE120296D00F
:10015300E0F9D0E0FAD0E0FB120455FF60AAEBC04F
:10016300E0EAC0E0E9C0E012003ED0E02401F9D0AB
:10017300E03400FAD0E0FBE5730460DCD573D9808A
:10018300877BFF7A027992D202809C791080027970
:1001930008C206C2088008D2D5790A8004790AC247
:1001A300D5E573047002F573E4FAFDFEFF12000354
:1001B300FC7B08200113120003FD7B1030000A12A0
:1001C3000003FE120003FF7B20EC3382D592D5504F
:1001D30013C3E43000069FFFE49EFEE42001039D69
:1001E300FDE49CFCE4CBF8C201EC700CCFCECDCC8B
:1001F300E824F8F870F38017C3EF33FFEE33FEED16
:1002030033FDEC33FCEB33FB994002FB0FD8E9EBF6
:10021300300105F8D0E0C448B201C0E00AEC4D4E0D
:100223004F78207B0070C2EAB5730040BCC0E01277
:100233000298D0F0D0E0200104C4C0E0C4B201C0F1
:10024300F0120027D0F0D5F0EB02007712052D0154
:100253001453018E5800E54C00E14201924F019A7C
:0F02630044019A4900FA4301A0550184460184E1
:100272004501844703405000E92D00ED2E01102B6B
:1002820000F123010E2003292A00A94800000108D9
:100292003F3F3F00790AA2D5200314300509B91067
:1002A200020404B9080104A2D52006025001042068
:1002B20002689202B572005034C0E07F2030031908
:1002C2007F30A20272067205500F1202EFC202C202
:1002D20006C205C2087F30800F300503E9C0E01274
:1002E200003E300503D0E0F9D0E0B572CC300517FE
:1002F2007F30B9100C12003E7F583004077F78809F
:1003020003B9080312003E3002057F2D02003E7F32
:10031200202008F87F2B2006F322920280CF286E3D
:10032200756C6C2900D2011200033001F8C2017809
:100332007230D50108F60200A92D50434958120027
:10034200032403B405004001E490033B9312002F01
:0D035200743A12002FD20375720402018E5E
:1004B200EF4E6012EF60010EEDBB010B89828A8361
:1004C200F0A3DFFCDEFA2289F05007F709DFFCA96E
:0C04D200F022BBFEFCF309DFFCA9F022C5
:1007FD0002087DE493A3F8E493A34003F68001F28D
:10080D0008DFF48029E493A3F85407240CC8C333FC
:10081D00C4540F4420C8834004F456800146F6DFCB
:10082D00E4800B0102040810204080900B4BE47E05
:10083D00019360BCA3FF543F30E509541FFEE493C0
:10084D00A360010ECF54C025E060A840B8E493A387
:10085D00FAE493A3F8E493A3C8C582C8CAC583CAB2
:10086D00F0A3C8C582C8CAC583CADFE9DEE780BE6A
:010B7500007F
:1004DE00BB010CE58229F582E5833AF583E02250D3
:1004EE0006E92582F8E622BBFE06E92582F8E2221D
:0D04FE00E58229F582E5833AF583E4932237
:10050B00BB010689828A83F0225002F722BBFE01CF
:02051B00F322C9
:10051D00FAE6FB0808E6F925F0F618E6CA3AF622DF
:10052D00D083D082F8E4937012740193700DA3A35D
:10053D0093F8740193F5828883E473740293686071
:06054D00EFA3A3A380DF71
:100B7600EFB40A07740D120B81740A309811A89904
:100B8600B8130CC2983098FDA899C298B811F630DF
:070B960099FDC299F59922B7
:00000001FF
