:0E092100544F525245590059003230323200C4
:10087200E4FDFCC3ED9FEC9E5015E4FBFA0BBB00BC
:0F088200010AEB64A44A70F50DBD00010C80E47F
:010891002244
:10091100E4F59A759B20759C05759D03759E0422CF
:1007A8007594FFE4F5957596FFF597F5A0F5901209
:1007B80007E67BFF7A0979217D011203017BFF7A25
:1007C8000979287D021203017BFF7A09792AE4FD61
:0E07D8001203011209115390DF43901080FEAE
:100847000A225F503D79726B6F517F731C40776E40
:100857000F7C2F276F76505C360E00645F3773244A
:0A0867006B2E5E4C0000723D200075
:0908E50053A0FB1208EE43A0042D
:0E08EE00E4FFFE0FBF00010EEF64054E70F533
:0108FC0022D9
:1007E60043A00243A00443A0081208EE1208EEE458
:1007F600F52C752D01FDFBFE120515752D03120551
:100806000F752D2812050F752D2912050F1204FAE2
:04081600E4FEFF22DB
:0208B000AD0792
:1008B200E4FCED20E70553A0F7800343A0081208EB
:0908C200E5ED25E0FD0CBC08E9A0
:0108CB00220A
:1004FA00752C01E4F53E753F10FEFD7F10FB7A0076
:10050A00792E1202D57D007B007E0078617C007A0C
:08051A0000792C7F141202523B
:10052200E4FB43A00243A00443A0081208EE53A038
:10053200FD1208EE1208E553A0F71208E5E5617016
:100542000553A0F7800343A0081208E5E561700A8D
:10055200AF621208B01208E58037E4F573FB53A0CE
:10056200FBE57320E70553A0F7800343A0081208B8
:10057200E8E57325E0F5730BBB06E3E4FBEBFFC391
:10058200740F9FFF74632FF8E6FF1208B00BBB10C5
:0D059200EC43A00243A00843A0040208EEC1
:10081A001204FAE4F52C752D0278617C00FDFB7A4E
:10082A0000792CFE12051DE4F52D78617C00FDFB94
:0D083A007A00792CFE12051D7E007F012240
:08092F001204FA7E007F012290
:1008FD00752C01E4F53E753F10FE7DFF1205057E5A
:04090D00007F012244
:07093F008F107E007F0122F2
:10089200E4FEBD0100BD02027E0BED70027E05C3C7
:0D08A20074059B2E242EF8E65480F64FF6C8
:0108AF002226
:10062B00ED606324FE6031047078BF030BBB0105E2
:10063B00432F808003532F7FBF020BBB0105433039
:10064B0080800353307FEF64017057BB010543314A
:10065B0080804F53317F804ABF030BBB0105433A68
:10066B00808003533A7FBF020BBB0105433B808065
:10067B0003533B7FEF64017029BB0105433C808032
:10068B0021533C7F801CBF020BBB0105433580808F
:10069B000353357FBF010BBB0105433680800353EA
:0506AB00367F0208CCBF
:10042500EF24FEB4090040030204EE90043E75F08B
:1004350003A4C58325F0C5837302049C02048F02BF
:1004450004A90204B00204BD020468020475020492
:1004550082020459BD01064333800204EE53337F03
:100465000204EEBD0105433780807E53377F8079D6
:10047500BD0105433480807153347F806CBD010517
:10048500433880806453387F805FBD0105433280E7
:10049500805753327F8052BD0105432E80804A53D9
:1004A5002E7F8045BD01028026803BBD0105433975
:1004B50080803653397F8031ED6401701743338076
:1004C500433780433480433880432E80433980430B
:1004D5003D80801553337F53377F53347F53387FA7
:1004E500532E7F53397F533D7F752C01E4F53E75BF
:0504F5003F100208CCDD
:080301008B5C8A5D895EAC058E
:10030900755F05E4F560EC700653357F53367FBCA5
:100319000209533A7F533B7F533C7FBC0109532F5A
:100329007F53307F53317FAB5CAA5DA95E1202789F
:10033900FF7003020419C3648094B04017D3EF64BB
:100349008094B9500F74F22FF8E6FFAD04AB5F1536
:100359005F120892AB5CAA5DA95E120278B42D0BFC
:10036900AD04AB5F155FAF5A120892AB5CAA5DA9E9
:100379005E120278B4200BAD04AB5FE4FF12089261
:10038900155FAB5CAA5DA95E120278FFC364809415
:10039900C14017D3EF648094DA500F74FF2FF8E649
:1003A900FFAD04AB5F120892155FAB5CAA5DA95E55
:1003B900120278642E7049BC0218E560B402034346
:1003C9003A80E560B40303433B80E560B40403432A
:1003D9003C80BC0118E560B40203432F80E560B49A
:1003E9000303433080E560B40403433180EC7010AB
:1003F900E560B40403433680E560B4030343358004
:1004090005607401255EF55EE4355DF55D02033036
:0C041900752C01E4F53E753F100208CC84
:1008CC00752C0178617C007D007B007A00792C7E90
:0908DC00007F14120252020522F1
:10000300C2AF7F057E001208725396F05397F043F8
:10001300921A5393E54394405395BF4396105397D5
:10002300EFC284C2A4C283C296C281E4FFFE120857
:100033007230A20C30A10930A30630A00302015E86
:10004300D284D2A4D283D296D281E4FFFE12087264
:1000530020A205750805801B20A1057508048013DF
:1000630020A305750806800B20A00575080A8003E8
:100073007508FFE508F4702AC281FFFE120872209A
:10008300A205750802801B20A105750801801320B5
:10009300A305750803800B20A00575080C80037564
:1000A30008FFE508F4702AC296FFFE12087220A228
:1000B3000575080E801B20A105E4F508801320A315
:1000C3000575080F800B20A00575080D80037508C2
:1000D300FFE508F4702AC283FFFE12087220A2050E
:1000E300750808801B20A105750807801320A30548
:1000F300750809800B20A00575080B80037508FFA0
:10010300E508F4702AC2A4FFFE12087220A2057546
:100113000817801B20A105750816801320A30575F9
:100123000818800B20A00575081980037508FFE5E2
:1001330008F4702AC284FFFE12087220A205750813
:1001430013801B20A105750812801320A3057508D1
:1001530014800B20A00575081580037508FFC205E0
:100163005392E543931A5394BF4395405396E04308
:0F017300971FD284D2A4D283D296D281D2AF2248
:070937008F828E83E493FF21
:01093E002296
:10070C008E0C8F0DA2AF9208C2AF850CC3850DC2A3
:10071C008DC1E4F5C4F5C5F5C690000BE0FFB4AA95
:10072C000A90000CE0B4550375C7030075C4057539
:10073C00C50A75C609EFB4AA0A90000CE0B45503BB
:0E074C0075C703E4F5C4F5C5F5C6A20892AF63
:01075A00227C
:10075B008E0E8F0FA2AF9209C2AF850EC3850FC24B
:10076B00E4F5C4F5C5F5C690000BE0FFB4AA0A90FA
:10077B00000CE0B4550375C7030075C40575C50AB5
:10078B0075C609EFB4AA0A90000CE0B4550375C7FF
:0C079B000CE4F5C4F5C5F5C6A20992AF48
:0107A700222F
:0709460000D28200C28222F0
:1006B00078111202BC00000000E4FB78111202A4C1
:1006C000780112029178111202B012094630801797
:1006D00078111202A4EF2401FFE43EFEE43DFDE4A4
:1006E0003CFC78111202B00BBB18D078111202A496
:1006F000ED6480FDEC78111202B012094612094631
:0B07000012094630000500D282C20042
:01070B0022CB
:0300000002059F57
:0C059F00787FE4F6D8FD7581740205E653
:10018200E709F608DFFA8046E709F208DFFA803E5F
:1001920088828C83E709F0A3DFFA8032E309F6084C
:1001A200DFFA8078E309F208DFFA807088828C83B4
:1001B200E309F0A3DFFA806489828A83E0A3F60868
:1001C200DFFA805889828A83E0A3F208DFFA804C42
:1001D20080D280FA80C680D4806980F28033801019
:1001E20080A680EA809A80A880DA80E280CA803382
:1001F20089828A83ECFAE493A3C8C582C8CCC583FA
:10020200CCF0A3C8C582C8CCC583CCDFE9DEE780C9
:100212000D89828A83E493A3F608DFF9ECFAA9F048
:10022200EDFB2289828A83ECFAE0A3C8C582C8CC9E
:10023200C583CCF0A3C8C582C8CCC583CCDFEADEB7
:10024200E880DB89828A83E493A3F208DFF980CC19
:1002520088F0EF60010E4E60C388F0ED2402B40412
:100262000050B9F582EB2402B4040050AF232345B9
:0602720082239001D2730B
:10027800BB010689828A83E0225002E722BBFE0284
:09028800E32289828A83E49322B7
:10029100E8600FEFC333FFEE33FEED33FDEC33FCCB
:0302A100D8F1226F
:0C02A400E6FC08E6FD08E6FE08E6FF2286
:0C02B000ECF608EDF608EEF608EFF6227A
:1002BC00D083D082E493F608740193F60874029309
:0902CC00F608740393F674047340
:1002D500EF4E6012EF60010EEDBB010B89828A8340
:1002E500F0A3DFFCDEFA2289F05007F709DFFCA94D
:0C02F500F022BBFEFCF309DFFCA9F022A4
:1005AB000207A8E493A3F8E493A34003F68001F2B7
:1005BB0008DFF48029E493A3F85407240CC8C33351
:1005CB00C4540F4420C8834004F456800146F6DF20
:1005DB00E4800B0102040810204080900847E47E61
:1005EB00019360BCA3FF543F30E509541FFEE49315
:1005FB00A360010ECF54C025E060A840B8E493A3DC
:10060B00FAE493A3F8E493A3C8C582C8CAC583CA06
:10061B00F0A3C8C582C8CAC583CADFE9DEE780BEBE
:010871000086
:00000001FF
