:0D1E5400544F52520045590000000000009C
:0B1B45004400D8000000004100D70061
:101E4400E4F59A759B20759C05759D03759E042287
:1016560078007C007D017BFF7A1E795C7E007F0529
:1016660012062390000512079A0000000090000958
:1016760012079A000000007592F0E4F5937594BF86
:10168600F5957596EEF5975392DF43932043942094
:101696005395DF75800C75904075A01143802075B9
:1016A600A88275B802F589F58A758C7F758E041245
:1016B6001C607FF47E01121D847BFF7A1E79547DA7
:1016C600011213927FF47E01121D847BFF7A1E792C
:1016D600597D021213927FF47E01121D84438810F5
:1016E6001200037F327E00121D84E4FF1211559012
:1016F600000512078E438020121DDEAC06AD07E4FE
:1017060012031E7B3A7A077954783C120106900040
:101716000912078E900005E0FCA3E0FDA3E0FEA3FE
:10172600E0FF9000117402F0E4A3F012182E90006E
:1017360009E0FCA3E0FDA3E0FEA3E0FF9000117426
:0A17460002F0A314F012182E80998F
:101DDE00E4FFFE75AB09E5AB20E20843AB04E5ABCF
:0A1DEE0020E2FBAFAC7E0053ABF720
:011DF80022C8
:03000B00021E6171
:0A1E6100639020758ACF758CAF32B4
:101CEB0025362E306C660025352E306C6600253778
:101CFB002E316C660025362E316C660025372E3260
:101D0B006C660025362E326C660025372E336C66DA
:101D1B000025362E336C660000000000000000002A
:101B50004A00625F503D79726B6F517F735C008009
:101B6000776E0F7C2F276F76505C360E00645F37E0
:0C1B700073246B2E5E4C0000723D2000C0
:091E2C0053A0FB121E3543A00473
:0E1E3500E4FFFE0FBF00010EEF64054E70F5D6
:011E4300227C
:101C600043A00243A00443A008121E35121E35E40F
:101C700090006CF0A304F078217C00FDFB7A0079E1
:101C80006C7E001219FA90006D7403F01219EC903A
:101C9000006D7428F01219EC90006D7429F012197F
:081CA000EC1219CFE4FEFF2253
:021DA400AD0789
:101DA600E4FCED20E70553A0F7800343A008121ECC
:0A1DB6002CED25E0FD0CECB408E86C
:011DC0002200
:1019CF0090006C7401F0E490007EF0A37410F07D31
:1019DF00007E00FF7B017A00796E1208117E00787D
:1019EF00217C007D017B017A00796C7F1412062324
:1019FF00E4FB43A00243A00443A008121E3553A0EA
:101A0F00FD121E35121E2C53A0F7121E2C90002112
:101A1F00E0700553A0F7800343A008121E2C90001E
:101A2F0021E0700BA3E0FF121DA4121E2C8048E4CE
:101A3F00900033F0FB53A0FB900033E020E70553F9
:101A4F00A0F7800343A008121E2F900033E025E07B
:101A5F00F00BEBB406DFE4FBEBFFC3740F9FFFE467
:101A6F009400FE74232FF58274003EF583E0FF127D
:101A7F001DA40BEBB410E143A00243A00843A00444
:031A8F00021E35FF
:101DC1001219CFE490006CF0A37402F01219ECE444
:0D1DD10090006DF0FE1219EE7E007F0122E1
:080003001219CF7E007F0122DB
:101E130090006C7401F0E490007EF0A37410F07DE8
:091E2300FF1219E07E007F01228C
:0C1CA800E0FF90001EE0FDA3E0FB14F044
:101CB400E4FEEDB40100EDB402027E0BED70027E91
:101CC40005C374059B2EFD3395E0FC746E2DF582DF
:101CD40074003CF583E05480F0746E2DF58274003A
:061CE4003CF583E04FF027
:011CEA0022D7
:101A9200AC07ED7003021B1824FE604004600302D1
:101AA2001B42ECB40311EB90006FB40106E04480DA
:101AB200F08004E0547FF0ECB40211EB900070B4BB
:101AC2000106E04480F08004E0547FF0EC64017091
:101AD2006FEB900071B40102805C8060ECB4031182
:101AE200EB90007AB40106E04480F08004E0547F79
:101AF200F0ECB40211EB90007BB40106E04480F0FC
:101B02008004E0547FF0EC64017035EB90007CB40B
:101B1200010280228026ECB40211EB900075B40120
:101B220006E04480F08004E0547FF0ECB40111EB55
:101B3200900076B40106E04480F08004E0547FF027
:031B4200021DF988
:10154C00EF24FEB40900400302164490156575F0B3
:10155C0003A4C58325F0C583730215BD0215B10222
:10156C0015C80215D30215DE02158D021599021548
:10157C00A5021580ED900073B4010302161002163B
:10158C0040ED900077B40102807A021640ED900095
:10159C0074B40102806E021640ED900078B4010222
:1015AC008062021640ED900072B401028056021661
:1015BC0040ED90006EB40102804A8078ED90007D81
:1015CC00B40102803F806DED900079B4010280344B
:1015DC008062ED64019000737030E04480F0900004
:1015EC0077E04480F0900074E04480F0900078E064
:1015FC004480F090006EE04480F0900079E04480EC
:10160C00F090007DE04480F0802EE0547FF090005C
:10161C0077E0547FF0900074E0547FF0900078E015
:10162C00547FF090006EE0547FF0900079E0547F8E
:10163C00F090007DE0547FF090006C7401F0E49029
:0A164C00007EF0A37410F0021DF9F7
:06182E0090000D12078E70
:1018340078137C007D017BFF7A1D79237E007F086D
:10184400120623900011E014602E14604C14606A98
:10185400240360030218FB900012E090001E700C39
:1018640074FFF0A3741CF0A374EB806D74FFF0A3F9
:10187400741CF0A374F28061900012E090001E705A
:101884000C74FFF0A3741CF0A374F9800A74FFF0C5
:10189400A3741DF0A374008040900012E090001E19
:1018A400700C74FFF0A3741DF0A37407800A74FF16
:1018B400F0A3741DF0A3740E801F900012E090003A
:1018C4001E700C74FFF0A3741DF0A37415800A74C9
:1018D400FFF0A3741DF0A3741CF090000DE0FCA3B2
:1018E400E0FDA3E0FEA3E0FF90002112078E7B0140
:1018F4007A0079131208EE7B017A007913900012B2
:05190400E0FD0213925A
:0E13920090001BEBF0A3EAF0A3E9F0A3EDF04E
:1013A000A37405F0E4A3F0ED700C900075E0547F99
:1013B000F0A3E0547FF090001EE0FDB40211900015
:1013C0007AE0547FF0A3E0547FF0A3E0547FF0ED87
:1013D000B4011190006FE0547FF0A3E0547FF0A3BC
:1013E000E0547FF090001BE0FBA3E0FAA3E0F912C9
:1013F0000649FF700302153AC3648094B0401AD3C3
:10140000EF648094B95012EF3395E0FE74322FF5FB
:101410008274003EF583121CA890001BE0FBA3E041
:10142000FAA3E0F9120649B42D0690009A121CA8FE
:1014300090001BE0FBA3E0FAA3E0F9120649B420F8
:101440001390001EE0FDA3E0FBE4FF121CB490002B
:101450001FE014F090001BE0FBA3E0FAA3E0F912F8
:101460000649FFC3648094C1402AD3EF648094DAB4
:101470005022EF3395E0FE743F2FF58274003EF565
:1014800083E0FF90001EE0FDA3E0FB121CB490007F
:101490001FE014F090001BE0FBA3E0FAA3E0F912B8
:1014A0000649642E600302152790001EE0FC6402CA
:1014B0007028900020E0FEB4020790007AE044809B
:1014C000F0EEB4030790007BE04480F0900020E051
:1014D000B4040790007CE04480F0EC640170289034
:1014E0000020E0FDB4020790006FE04480F0EDB40E
:1014F0000307900070E04480F0900020E0B40407FF
:10150000900071E04480F090001EE0701A9000207E
:10151000E0FDB40407900076E04480F0EDB40307EA
:10152000900075E04480F0900020E004F090001CF2
:10153000E475F0011206C30213E490006C7401F02C
:0C154000E490007EF0A37410F0021DF98E
:101DF90090006C7401F078217C00FDFB7A00796C0D
:0A1E09007E007F141206230219FF69
:041B7C004100DC0048
:101D8400E4FDFCC3ED9FEC9E5015E4FBFA0BBB0095
:0F1D9400010AEB64A44A70F50DBD00010C80E458
:011DA300221D
:10190900E4F99000D6F0D281D280D290D291D292CD
:10191900E97002C281E9B40102C280E9B40202C2DB
:1019290090E9B40302C291E9B40402C2927F017E34
:1019390000121D8420820AE925E025E0049000D6E2
:10194900F020A40BE925E025E024029000D6F02040
:10195900A00BE925E025E024039000D6F020960BA2
:10196900E925E025E024049000D6F009E964057032
:10197900959000DDE0FF700E9000D6E060089000C1
:10198900DC7401F080379000D6E0FEB5070BEE60FD
:10199900089000DC7402F080249000DDE0600E9075
:1019A90000D6E070089000DC7403F080109000DD30
:1019B900E0700A9000D6E070049000DCF09000D648
:0519C900E09000DDF0DC
:0119CE0022F6
:101D2B0000000000000000000000000000000000A8
:101D3B000000000000000000000000000000000098
:101D4B000000000000000000000000000000000088
:021D5B00000086
:101B80004400A0000000004200AB00004200A90099
:101B9000004100AD01602800AE0000000000000020
:101BA0000000000000000000000000000000000035
:101BB0000000000000000000000000000000000025
:101BC000004400A40000000044009C00000000410C
:031BD00000A8006A
:0B0D0C00900025EEF0A3EFF0A3EDF047
:100D170078287C007D017BFF7A1D792B7E007F2858
:100D270012062390005012079A4064CCCD900054CD
:100D370012079A00000000900025E0FCA3E0FDE404
:100D470012031E90005B12078E90005F7406F0E49A
:100D5700A3F0A3F090005804F0A37400F0A374AEBE
:100D6700F0900050E0FCA3E0FDA3E0FEA3E0FF90BD
:100D7700009CE0F8A3E0F9A3E0FAA3E0FB1200155A
:100D870090005BE0F8A3E0F9A3E0FAA3E0FB12020E
:100D9700AC60025032900050E0F8A3E0F9A3E0FA0B
:100DA700A3E0FB90009CE0FCA3E0FDA3E0FEA3E032
:100DB700FF12001190005BE0F8A3E0F9A3E0FAA3AB
:100DC700E0FB1202AC505C900027E070569000A840
:100DD700E0FF04F0EFD394024046E4F0900060F0A7
:100DE70090005FE014FFA3E0C39F4003020F2C9025
:100DF700005BE0FCA3E0FDA3E0FEA3E0FF9000584A
:100E0700E0FBA3E0FAA3E0F9900060E075F004A42A
:100E1700F58285F08312076A900060E004F080C0D5
:100E2700021146900027E0640170469000A8F090F8
:100E37000060F090005FE014FFA3E0C39F4003024F
:100E47000F2C900025E0FCA3E0FDE412031E9000A8
:100E570058E0FBA3E0FAA3E0F9900060E075F00426
:100E6700A4F58285F08312076A900060E004F080A1
:100E7700C2900027E064027055900060F090005F18
:100E8700E014FFA3E0FEC39F4003020F2CEE2401F2
:100E9700FFE433FEEF7802C333CE33CED8F9FF90A9
:100EA7000058E0FBA3E0FAA3E0F98F828E831207D4
:100EB7003A900058A3A3900060E075F004A4F5826F
:100EC70085F08312076A900060E004F080AFE49039
:100ED70000A8F0900060F090005FE014FFA3E0FE30
:100EE700C39F5041EE2401FFE433FEEF7802C33382
:100EF700CE33CED8F9FF900058E0FBA3E0FAA3E089
:100F0700F98F828E8312073A900058A3A39000604E
:100F1700E075F004A4F58285F08312076A900060FB
:100F2700E004F080B290005BE0FCA3E0FDA3E0FEEC
:100F3700A3E0FFC004C005C006C007A3E024FFFF6D
:100F4700E434FFFEEF7802C333CE33CED8F9FF90F7
:100F57000058E0FBA3E0FAA3E0F98F828E83D00765
:100F6700D006D005D00412076AE4900060F0900024
:100F77005FE0FFA3E0C39F5037900058E0FBA3E07A
:100F8700FAA3E0F9900060E075F004A4F58285F01B
:100F97008312073A900060E025E025E02428F582D7
:100FA700E43400F58312078E900060E004F080BE01
:100FB700E4900060F090005FE014FFA3E0FEC39FA1
:100FC700400302109FEE04A3F090005FE0FF900043
:100FD70061E0FEC39F4003021096900060E025E0A9
:100FE70025E02428F582E43400F583E0F8A3E0F94E
:100FF700A3E0FAA3E0FBEE25E025E02428F582E450
:101007003400F583E0FCA3E0FDA3E0FEA3E0FF12BC
:1010170002AC60724070900061E0FB25E025E0249F
:1010270028F582E43400F583E0FCA3E0FDA3E0FEAD
:10103700A3E0FF90005412078E900060E0FA25E0CD
:1010470025E02428F582E43400F583E0FCA3E0FDE5
:10105700A3E0FEA3E0FFEB25E025E02428F582E4EA
:101067003400F58312078E900054E0FCA3E0FDA343
:10107700E0FEA3E0FFEA25E025E02428F582E4343A
:1010870000F58312078E900061E004F0020FD09004
:101097000060E004F0020FBC90009C12079A000069
:1010A70000009000607401F090005FE014FFA3E07F
:1010B700FEC39F503890009CE0F8A3E0F9A3E0FA44
:1010C700A3E0FBEE25E025E02428F582E43400F5D3
:1010D70083E0FCA3E0FDA3E0FEA3E0FF1200159070
:1010E700009C12078E900060E004F080BB90009C8B
:1010F700E0FCA3E0FDA3E0FEA3E0FFC004C005C041
:1011070006C00790005FE024FEFDE434FFFCE41214
:10111700031EA804A905AA06AB07D007D006D00569
:10112700D00412020F90009C12078E90009CE0FCE6
:10113700A3E0FDA3E0FEA3E0FF9000A412078E90BA
:0D114700009CE0FCA3E0FDA3E0FEA3E0FFA0
:011154002278
:0511550090000DEFF019
:10115A00E4900011F0A3F0A3F0A3F0A3F0A3F0A38E
:10116A00F0A3F0A3F0A3F0781B7C007D017BFF7A4B
:10117A001D7953FE7F0A12062390000E7401F0A314
:10118A007400F0A37411F0E4900017F0A3F0A3F038
:10119A00A37478F030834D7F017E00121D84900085
:1011AA0018E004F07006900017E004F0900019E0CF
:1011BA00FEA3E0FFC3900018E09F900017E09E4056
:1011CA00D39000A9E475F0011206D9FED3E5F09494
:1011DA0005EE6480948040099000A9E4F0A37405A8
:1011EA00F0021383E4900017F0A3F0C3900018E014
:1011FA009405900017E0940050757F017E00121D3F
:10120A0084900018E004F07006900017E004F030B3
:10121A0083D9E4900017F0A3F0A304F0A374F4F0C8
:10122A00900019E0FEA3E0FFC3900018E09F900031
:10123A0017E09E50177F017E00121D84900018E06F
:10124A0004F070DC900017E004F080D49000A9E468
:10125A0075F0011206D9FED3E5F09402EE6480948B
:10126A008040099000A9E4F0A37402F0021383D32A
:10127A009000AAE094009000A9E064809480400F56
:10128A00A3E024FFF09000A9E034FFF00213837B6F
:10129A00017A00791B12175090001DE0FF90000E92
:1012AA00E0FBA3E475F0011206D9A9F0FAEF1206E1
:1012BA008F90001CE0FF90000EE0FBA3E475F001A4
:1012CA001206D9A9F0FAEF12068F90001BE0FF90E0
:1012DA00000EE0FBA3E475F0011206D9A9F0FAEFBB
:1012EA0012068F90000EE0FBA3E0FAA3E0F9E412E5
:1012FA00068F900011E0FEA3E07807CEC313CE1349
:10130A00D8F9FF900013EEF0A3EFF0E4FCFD7BFFA9
:10131A007AFFF9F8C31206FD6049900013E0FEA3B4
:10132A00E0FFE4FCFD7BFF7AFFF9F8C31206FD50EB
:10133A0024900013E0FEA3E0FFC3E49FFFE49EFEB7
:10134A00900013F0A3EFF0C374F49FF0747E9E90A4
:10135A000013F0800E900014E024F4F0900013E0E3
:10136A00347EF0900013E0FEA3E0FF90000DE0FD54
:10137A00120D0C9000A012078E9000A0E0FCA3E0D2
:07138A00FDA3E0FEA3E0FF5C
:011391002239
:0B175000900025EBF0A3EAF0A3E9F005
:10175B00A312079A00000000E490002CF0A3F09075
:10176B000028E0FCA3E0FDA3E0FEA3E0FF7801125C
:10177B00072790002812078ED284900028E0F8A348
:10178B00E0F9A3E0FAA3E0FBA283E433FFEB4FFF06
:10179B00EAFEE9FDE8FC90002812078EC284900057
:1017AB002DE004F0700690002CE004F090002CE08B
:1017BB007004A3E0641870A7E4FFFE0FBF00010ED6
:1017CB00EF64074E70F5D284E4FEFF0FBF00010EED
:1017DB00EF64064E70F5C284900028A3A3A3E0FF2C
:1017EB00900025E0FBA3E0FAA3E0F9900002EF12D2
:1017FB0006A1900028E0FCA3E0FDA3E0FEA3E0FF20
:10180B007808120713900001EF1206A1900028E050
:10181B00FCA3E0FDA3E0FEA3E0FF7810120713EF9B
:03182B0002068F23
:10000E0002038CE86480F8E933E83360110460F091
:10001E00ED33EC337009E8FCE9FDEAFEEBFF220458
:10002E0060DED3EB9FEA9EE99DE8C2E78CF0C2F753
:10003E0095F0400CE8CCF8E9CDF9EACEFAEBCFFB1F
:10004E0012035785D0F05804700320D5B3E804701E
:10005E00075002B2D502039692D5EC0460F7E4CCB9
:10006E00C0E0C398F8603B94186008400DD0E0FBE8
:10007E0002036EE4FBFAC9FC8028E830E406E4C90A
:10008E00FBE4CAFCE830E305E4C9CACBFCE854073C
:10009E006010F8C3E913F9EA13FAEB13FBEC13FC47
:1000AE00D8F130F52FC3E49CFCEF9BFFEE9AFEEDEA
:1000BE0099FDD0E0FBEF4E4D4C701222DB03020394
:1000CE0093EC2CFCEF33FFEE33FEED33FDED30E71A
:1000DE00EB02036EEF2BFFEE3AFEED39FDD0E0FBA7
:1000EE0050130BBB0003020396ED13FDEE13FEEF50
:0800FE0013FFEC13FC02036E7A
:10010600EC4D6011E8497017ED33EC3304600DE4F3
:10011600FCFFFEFD22E933E8330470F802038C127B
:10012600035758046009E4CC24815006285009027C
:100136000396284003020393C0E0EB4A7044B9805B
:1001460006D0E0FB020382EF4E701CBD8008EBFF79
:10015600EAFEE9FD80EBE98DF0A4FEE5F00201EF91
:10016600E9CDF9EAFEEBFFEF89F0A4FCE5F0CE89D4
:10017600F0A42EFFE435F0CD89F0A42DFEE435F091
:100186008067EF4E7005BD80D780C3EF8BF0A4ACBF
:10019600F0EE8BF0A42CFCE435F0F8EF8AF0A42CFA
:1001A600E5F038FCE433CB8DF0A42CFCE5F03BF80D
:1001B600EE8AF0A42CFCE5F038F8E433CF89F0A4FD
:1001C6002CFCE5F038CF3400CE89F0A42FFFE5F003
:1001D6003EFEE433C98DF0A42EFEE5F039CD8AF05B
:1001E600A42FFFE5F03EFEE43DFD33D0E0FB5007D3
:1001F6000BBB000F020396EC2CFCEF33FFEE33FE35
:06020600ED33FD02036E62
:10020C00020396EC5D046005E85904700302038C4C
:10021C00120357580460F6EC4860F2EC7004FDFED3
:10022C00FF22C860DB2481C85009C39860025006C5
:10023C000203939850CAF582E9294B4A7005AB82A8
:10024C0002038275F0007C1A7880C3EF9BEE9AED66
:10025C0099400DC3EF9BFFEE9AFEED99FDE842F03D
:10026C00DC23ACF0D0E0FFD0E0FED0E0FDAB822090
:10027C00E7101BEB60BAEC2CFCEF33FFEE33FEED1A
:10028C0033FD02036EE803F830E705C0F075F000AB
:10029C00EF2FFFEE33FEED33FD40B830E7C280AAFE
:1002AC0074F8CC6480CCC86480C8F582046043C305
:1002BC00EB9FF5F0EA9E42F0E99D42F0E89C45F098
:1002CC0060305018E5825FFFE582F42B5582FB50BD
:1002DC00210ABA001D09B90019088016E5825BFBDA
:1002EC00E582F42F5582FF50090EBE00050DBD00AE
:1002FC00010CC3EB9FF5F0EA9E42F0E99D42F0E859
:0D030C009C45F06007CC4820E701B3EC22CF
:1003190075F020800E75F010800575F0087D007E5F
:10032900007F003392D530D5031206EFEC3340102D
:10033900EF33FFEE33FEED33FDEC33FCD5F0ED2268
:0E034900E5F0247EA2D513CC92E7CDCEFF22A4
:10088900E508241EF582E43400F583E0050822908A
:10089900001B30070390001EE475F0011207CB021C
:1008A90006492000E97F2ED2008018EF540F2490CA
:1008B900D43440D4FF30040BEF24BFB41A005003E2
:1008C9002461FFE50960021509050CE50C700205B4
:1008D9000B30070E90001BE475F0011207CBEF02F5
:1008E900068F021D5D7403D2078003E4C207F50871
:1008F90090001B1207E2E4F509F50BF50CE5096018
:10090900077F201208CC80F5750AFFC201C200C218
:1009190002C203C205C206C208120898FF700D3050
:1009290007057F001208DDAF0CAE0B22B4255FC2AC
:10093900D5C204120898FF24D0B40A00501A75F0E1
:100949000A780930D50508B6FF0106C6A426F6209F
:10095900D5047002D20380D924CFB41A00EF500411
:10096900C2E5D204020BCFD20180C6D20080C0D228
:100979000280BCD2D580BAD20580B47F201208CCBF
:100989002002077401B5090040F1120889FF120815
:10099900CC020906D208D2068095120889FB1208F2
:1009A90089FA120889F94A4B700679CD7A0C7BFFCE
:1009B90020022EE509602A7E008E827583001206C8
:1009C9006260060EEE650A70F0C2D5EBC0E0EAC0BF
:1009D900E0E9C0E0EE120C30D0E0F9D0E0FAD0E066
:1009E900FB120649FF60AAEBC0E0EAC0E0E9C0E0FB
:1009F9001208CCD0E02401F9D0E03400FAD0E0FBB1
:100A0900E50A0460DCD50AD98087D20280A2120CDB
:100A19001260F7E50A7001041203A1A90A600DE545
:100A29000A600914F50A120CBAEF60F3EA30E7021A
:100A3900F404C3995079EAF4250A0430E701E4047F
:100A4900F50A800D120C1260C1EA050A250A120383
:100A5900A1EA90004AF030E701E4250A04D50A0426
:100A690020050114120C30E4C0E0120CBA90004ABF
:100A7900E0601320E70714F01208B4802204F0D0D4
:100A8900E014C0E07F001208B4E50A60071208AB61
:100A9900150A800B3005031208ABD0E0020906D015
:100AA900E00480C4120C12609EE50A041203A190AE
:100AB900004AEAF0E50A2005026001042404120C48
:010AC90030FC
:100ACA0074FF04C0E0120CBA1208B4E50A20050249
:100ADA0060031208ABD0E0B50AE87F451208BE9061
:100AEA00004AE07F2B30E7047F2DF404C0E01208AF
:100AFA00CCD0E075F00A84C0F01208B5D0E0120834
:100B0A00B5020906791080027908C206C20880086F
:100B1A00D2D5790A8004790AC2D5E50A047002F5A9
:100B2A000AE4FAFDFEFF120889FC7B082001131271
:100B3A000889FD7B1030000A120889FE120889FF15
:100B4A007B20EC3382D592D55013C3E43000069F44
:100B5A00FFE49EFEE42001039DFDE49CFCE4CBF847
:100B6A00C201EC700CCFCECDCCE824F8F870F3803B
:100B7A0017C3EF33FFEE33FEED33FDEC33FCEB33FB
:100B8A00FB994002FB0FD8E9EB300105F8D0E0C42D
:100B9A0048B201C0E00AEC4D4E4F78207B0070C28B
:100BAA00EAB50A0040BCC0E0120C32D0F0D0E02016
:100BBA000104C4C0E0C4B201C0F01208B5D0F0D537
:100BCA00F0EB0209061207EB09A3530B0E5809743E
:100BDA004C0970420B124F0B1A440B1A49098943EC
:100BEA000B20550A4D460AAD450A17470CED500928
:100BFA00782D097C2E099F2B098023099D200CD66C
:100C0A002A09384800000997E50AB4FF03750A065D
:100C1A00120889FC120889FD120889FE120889FF48
:100C2A009000430203DE790AA2D520031430050995
:100C3A00B910020404B9080104A2D5200602500121
:100C4A00042002689202B509005034C0E07F2030C7
:100C5A0003197F30A20272067205500F120C89C264
:100C6A0002C206C205C2087F30800F300503E9C000
:100C7A00E01208CC300503D0E0F9D0E0B509CC3059
:100C8A0005177F30B9100C1208CC7F583004077F43
:100C9A00788003B908031208CC3002057F2D0208B8
:100CAA00CC7F202008F87F2B2006F322920280CFE7
:100CBA007F00B40700500B2443F582E43400F58327
:100CCA00E0FF22286E756C6C2900D2011208893067
:100CDA0001F8C201780930D50108F60209382D5009
:100CEA004349581208892403B405004001E4900CD2
:100CFA00E8931208BD743A1208BDD20375090402BA
:020D0A000B0ECE
:10035700E9D2E7C933E833F892D5EDD2E7CD33ECEC
:0703670033FC5002B2D52265
:10036E00EC30E7100FBF000C0EBE00080DBD0004F0
:10037E000BEB6014A2D5EB13FCED92E7FD2274FF9C
:10038E00FCFDFEFF22E480F8A2D574FF13FC7D80F5
:03039E00E480EF09
:1003A100F920E73624F950037907E4F42402FBE548
:1003B10082158270021583DBF6E024FB501BE96095
:1003C10014E4F0E582158270021583E004F0B40AAA
:0D03D10008E4F0D9EE7401F00A22C2D52232
:1003DE00ED33EC3392D5FA602AB4FF33EDC2E77BEE
:1003EE00FF60067A047903E4227A04790C20D5049E
:1003FE007A047907224E614E002B494E46002D4954
:10040E004E4600E47A08F0A3DAFC7B00740722C0A3
:10041E0083C082ECC0E0EDC0E0EEC0E0EFC0E0EAE9
:10042E0075F010A4CAABF075F04DA42BFBE435F0BB
:10043E00FCEA2410FAEB34C5FBEC34D9FCEDC2E730
:10044E00FF75F056A4F42411C5F0F434C58FF0A452
:10045E002AE5F03BE43CF020E714120513D0E0FF50
:10046E00D0E0FED0E0FDD0E0FC12020F8014F404C8
:10047E00120513D0E0FFD0E0FED0E0FDD0E0FC127C
:10048E000106D082D083E0FAEDD2E7CD33EC3324EF
:10049E0082FBE4C3CF33CFCE33CECD33CD33DBF3BC
:1004AE007B0775F00A846004F0A31B0AE5F0F0A345
:1004BE008FF0740AA4FFACF08EF0740AA42CFEAC7C
:1004CE00F050010C8DF0740AA42CFDE435F0F0A36D
:0504DE00DBDE740722C3
:1004E3003F8000004120000042C80000447A000021
:1004F300461C400047C35000497424004B189680A3
:100503004CBEBC205A0E1BCA6753C21C749DC5AE99
:10051300FB60065407601C2323120541EB5438602B
:100523000912052D12053C120106ECF8EDF9EEFA5D
:10053300EFCB22EB12053C80F1543803241C9004CA
:10054300E3FE93FC0EEE93FD0EEE930ECE93FF228D
:03000000021BD40C
:0C1BD400787FE4F6D8FD758121021C1B0F
:10055300E709F608DFFA8046E709F208DFFA803E8A
:1005630088828C83E709F0A3DFFA8032E309F60877
:10057300DFFA8078E309F208DFFA807088828C83DF
:10058300E309F0A3DFFA806489828A83E0A3F60893
:10059300DFFA805889828A83E0A3F208DFFA804C6D
:1005A30080D280FA80C680D4806980F28033801044
:1005B30080A680EA809A80A880DA80E280CA8033AD
:1005C30089828A83ECFAE493A3C8C582C8CCC58325
:1005D300CCF0A3C8C582C8CCC583CCDFE9DEE780F5
:1005E3000D89828A83E493A3F608DFF9ECFAA9F074
:1005F300EDFB2289828A83ECFAE0A3C8C582C8CCCA
:10060300C583CCF0A3C8C582C8CCC583CCDFEADEE2
:10061300E880DB89828A83E493A3F208DFF980CC44
:1006230088F0EF60010E4E60C388F0ED2402B4043D
:100633000050B9F582EB2402B4040050AF232345E4
:0606430082239005A37361
:10064900BB010689828A83E0225002E722BBFE02AF
:09065900E32289828A83E49322E2
:10066200BB010CE58229F582E5833AF583E022504D
:1006720006E92582F8E622BBFE06E92582F8E22297
:0D068200E58229F582E5833AF583E49322B1
:10068F00BB010689828A83F0225002F722BBFE014A
:02069F00F32244
:1006A100F8BB010DE58229F582E5833AF583E8F08F
:1006B100225006E92582C8F622BBFE05E92582C83B
:0206C100F22223
:1006C300C5F0F8A3E028F0C5F0F8E58215827002C2
:0606D3001583E038F0225F
:1006D900A3F8E0C5F025F0F0E582158270021583D4
:0606E900E0C838F0E82231
:0E06EF00C3E49FFFE49EFEE49DFDE49CFC221C
:1006FD00EB9FF5F0EA9E42F0E99D42F0EC6480C874
:06070D0064809845F02213
:10071300E86010ECA2E713FCED13FDEE13FEEF13FC
:04072300FFD8F022E9
:10072700E8600FEFC333FFEE33FEED33FDEC33FC30
:03073700D8F122D4
:10073A00BB010DE58229F582E5833AF58302084972
:10074A005007E92582F802083DBBFE07E92582F831
:10075A00020855E58229F582E5833AF583020861A4
:10076A00BB010DE58229F582E5833AF58302078EFE
:10077A005007E92582F8020871BBFE07E92582F8CD
:04078A0002087D22C2
:0C078E00ECF0A3EDF0A3EEF0A3EFF022DE
:10079A00A8828583F0D083D0821207B11207B112E2
:1007AA0007B11207B1E473E493A3C583C5F0C58307
:1007BA00C8C582C8F0A3C583C5F0C583C8C582C8A9
:0107CA00220C
:1007CB00F8E0FBA3A3E0F925F0F0E58215827002B7
:0707DB001583E0FA38F0225B
:0907E200EBF0A3EAF0A3E9F02218
:1007EB00D083D082F8E4937012740193700DA3A39D
:1007FB0093F8740193F5828883E4737402936860B1
:06080B00EFA3A3A380DFB0
:101D5D00EFB40A07740D121D68740A309811A89912
:101D6D00B8130CC2983098FDA899C298B811F630E6
:071D7D0099FDC299F59922BE
:10081100EF4E6012EF60010EEDBB010B89828A83FE
:10082100F0A3DFFCDEFA2289F05007F709DFFCA90B
:0C083100F022BBFEFCF309DFFCA9F02262
:101BE000021656E493A3F8E493A34003F68001F2AF
:101BF00008DFF48029E493A3F85407240CC8C33306
:101C0000C4540F4420C8834004F456800146F6DFD4
:101C1000E4800B0102040810204080901B45E47E04
:101C2000019360BCA3FF543F30E509541FFEE493C9
:101C3000A360010ECF54C025E060A840B8E493A390
:101C4000FAE493A3F8E493A3C8C582C8CAC583CABB
:101C5000F0A3C8C582C8CAC583CADFE9DEE780BE73
:011BD3000011
:0C083D00E6FC08E6FD08E6FE08E6FF22E7
:0C084900E0FCA3E0FDA3E0FEA3E0FF2222
:0C085500E2FC08E2FD08E2FE08E2FF22DF
:10086100E493FC740193FD740293FE740393FF22DD
:0C087100ECF608EDF608EEF608EFF622B3
:0C087D00ECF208EDF208EEF208EFF222B7
:00000001FF
