:10349E002D2D2D2D2D002D2D2D2D2D2D0042414A62
:1034AE0041202000202020424154004C4F57202024
:1034BE002000202042415454004C4F5720004241DE
:1034CE00545400204F46460042414A41200042419A
:1034DE00540020204F4646002566000000000000E4
:0C34EE00000000000000000000000000D2
:07211500440002000000007D
:101A2100E49001EBF078EC7C017D017BFF7A347965
:101A3100E9FE7F071206239001F31208010000005E
:101A4100009001F712080100000000E49001FBF092
:101A5100A3F01239051238A012396612386912350D
:101A6100529000007403F0900000E024FE607524A1
:101A7100FC7003021C04147003021BA01470030207
:101A81001C4524FE7003021BD5147003021C402464
:101A9100FD7003021C5D240B70CD90008C7401F06D
:101AA100E4A3F01224E2122C871235527BFF7A3420
:101AB100799E7D011223287BFF7A34799E7D021263
:101AC10023287BFF7A3479A4E4FD1223287FF47E56
:101AD100011237DFE49000A0F01239589000007431
:101AE10002F08083122FD89001EBEFF06404606460
:101AF100E06403703112000390006AE07BFFB401DF
:101B0100117A3479AB7D021223287BFF7A3479B2C2
:101B1100800F7A3479B97D021223287BFF7A3479D8
:101B2100C0E4FD1223289001EBE0601A90008EE0E2
:101B310070149000DF04F090008BE0600990009A2F
:101B41007401F04390209000C47401F0900000747F
:101B510007F0804112000390006AE07BFF70117A68
:101B61003479C77D011223287BFF7A3479CC800F29
:101B71007A3479D67D011223287BFF7A3479DC7D92
:101B8100021223287BFF7A3479D1E4FD12232890B5
:101B910000007402F07F887E131237DF021A681288
:101BA1001361EF701B9000007408F09000F4741E34
:101BB100F0A37493F090008CE06003021A68804CEB
:101BC100900098E064016003021A68900000740AB2
:101BD100F0021A681200009001EBEFF090008CE027
:101BE100700280289001EBE0FF7009900000740BF7
:101BF100F0021A68EF900000B401067406F0021AB0
:101C010068805312000090008CE070059000008005
:101C1100457BFF7A3479E07D0212232890009BE016
:101C2100701875AA0575AA0A75A91F122A3990009C
:101C31008CE070E8900000740EF090000080179026
:101C41000000801290008CE0B401087F01120000B6
:101C5100021A68900000740EF0021A68E490008A7B
:101C6100F0120003E490009AF05390DF122FD89005
:101C710001EBEFF06026C39001FCE094D09001FBF2
:101C8100E094075017A3E004F070069001FBE00414
:101C9100F075AA0575AA0A75A91F80DAE49000CA31
:101CA100F09000C804F09000CAE0700B75AA0575A9
:101CB100AA0A75A91F80EF9000007401F012384C38
:031CC100021A689C
:103869004394205395DFE4F59A759B20759C057563
:0C3879009D03759E045390DF43901022C5
:10390500C2AF75AA0575AA0A75A91FD2AF75AA0512
:0739150075AA0A75A91F2223
:1038A00075800C75904075A0117592F0E4F59375D4
:0A38B00094BFF5957596EEF597228A
:0A3966005392DF4393204380202298
:10391C0075A88275B802E4F589F58A758C7F758E69
:05392C00044388102295
:10388500E4FFFE75AB09E5AB20E20843AB04E5AB0D
:0A38950020E2FBAFAC7E0053ABF75E
:01389F002206
:03000B000232FAC4
:1032FA00C0E0C083C082C0D09000BCE060129000E1
:10330A00E6E4F0A374C8F09000BD7401F0A3E4F001
:10331A009000BDE060369000BCE0B40105E4F043E3
:10332A009010D39000E7E094009000E6E064809467
:10333A0080400EA3E024FFF09000E6E034FFF08026
:10334A000B9000BDE4F0A304F05390EF758ACF759B
:0E335A008CAF438810D0D0D082D083D0E03228
:101F010090033D7474F0A3E4F078437C037D017B7E
:101F1100FF7A3479F0FE7F0A12062390034D1208EE
:101F2100013DF5C28FE4900351F0A3F09003B77423
:101F3100AAF09003B87455F09003621208010000F2
:101F4100000090033DE0FEA3E0FF122DF190033E5F
:101F5100E0240BFF90033DE03400FEC006C0079073
:101F6100036212080100000000D007D006122DF113
:101F7100900351E4F0A304F0900351E0FEA3E0FFCD
:101F8100C3940BEE940050E8EF7802C333CE33CE06
:101F9100D8F9FF90033EE02FFF90033DE03EFEC0E5
:101FA10006C00790034DE0FCA3E0FDA3E0FEA3E023
:101FB100FF9003621207F5D007D006122DF19003AE
:101FC10051E0FEA3E07802C333CE33CED8F9FF90BF
:101FD100033EE02FFF90033DE03ECF24FCCF34FFD2
:101FE100FE1235E090033F1207F590021474FFF0E2
:101FF100A37434F0A374E6F090033FE0FCA3E0FD8A
:10200100A3E0FEA3E0FF9002171207F57B017A031C
:102011007943120AFA7B017A0379437D011223285D
:10202100900351E0FEA3E07802C333CE33CED8F95A
:10203100FF90033EE02FFF90033DE03EFE1235E0AE
:1020410090033F1207F590021474FFF0A37434F06B
:10205100A374E6F090033FE0FCA3E0FDA3E0FEA340
:10206100E0FF9002171207F57B017A037943120A08
:10207100FA7B017A037943E4FD122328900351E0AE
:10208100FEA3E07802C333CE33CED8F9FF90033EEE
:10209100E02FFF90033DE03ECF2404CF3400FE1239
:1020A10035E090033F1207F590021474FFF0A3741A
:1020B10034F0A374E6F090033FE0FCA3E0FDA3E05D
:1020C100FEA3E0FF9002171207F57B017A03794323
:1020D100120AFA7B017A0379437D021223289003C5
:1020E1004DE0FCA3E0FDA3E0FEA3E0FFE4FBFA79F1
:1020F10080783F12001590034D1207F57FE87E03AB
:102101001237DF900352E004F07006900351E004AF
:04211100F0021F7940
:1036690025362E306C660025352E306C66002537E0
:103679002E316C660025362E316C660025372E32C8
:103689006C660025362E326C660025372E336C6643
:103699000025362E336C6600000000000000000093
:10211C004A027E5F503D79726B6F517F735C029CFB
:10212C00776E0F7C2F276F76505C360E00645F370E
:0C213C0073246B2E5E4C0000723D2000EE
:0938ED0053A0FB1238F643A004BD
:0E38F600E4FFFE0FBF00010EEF64054E70F5FB
:0139040022A0
:1035520043A00243A00443A0081238F61238F6E44E
:10356200900288F0A304F078177C02FDFB7A0279BE
:10357200887E00122BEF9002897403F0122BE190E7
:1035820002897428F0122BE19002897429F0122B1F
:08359200E1122BC4E4FEFF224C
:02382F00AD07E3
:10383100E4FCED20E70553A0F7800343A00812380C
:0A384100EDED25E0FD0CECB408E805
:01384B00225A
:102BC4009002887401F0E490029AF0A37410F07DEE
:102BD400007E00FF7B017A02798A120A1D7E00784A
:102BE400177C027D017B017A0279887F1412062307
:102BF400E4FB43A00243A00443A0081238F653A008
:102C0400FD1238F61238ED53A0F71238ED90021782
:102C1400E0700553A0F7800343A0081238ED90023A
:102C240017E0700BA3E0FF12382F1238ED8048E450
:102C3400900229F0FB53A0FB900229E020E7055302
:102C4400A0F7800343A0081238F0900229E025E0A1
:102C5400F00BEBB406DFE4FBEBFFC3740F9FFFE460
:102C64009400FE74192FF58274023EF583E0FF127E
:102C7400382F0BEBB410E143A00243A00843A00497
:032C84000238F61D
:10384C00122BC4E4900288F0A37402F0122BE1E472
:0D385C00900289F0FE122BE37E007F012216
:08000300122BC47E007F0122D4
:1038D4009002887401F0E490029AF0A37410F07DD1
:0938E400FF122BD57E007F0122AA
:0C362600E0FF900214E0FDA3E0FB14F0B4
:10363200E4FEEDB40100EDB402027E0BED70027EF9
:1036420005C374059B2EFD3395E0FC748A2DF5822B
:1036520074023CF583E05480F0748A2DF582740282
:063662003CF583E04FF08F
:01366800223F
:102D3E00AC07ED7003022DC424FE60400460030254
:102D4E002DEEECB40311EB90028BB40106E044803F
:102D5E00F08004E0547FF0ECB40211EB90028CB4DE
:102D6E000106E04480F08004E0547FF0EC640170D2
:102D7E006FEB90028DB40102805C8060ECB40311A5
:102D8E00EB900296B40106E04480F08004E0547F9C
:102D9E00F0ECB40211EB900297B40106E04480F01F
:102DAE008004E0547FF0EC64017035EB900298B42F
:102DBE00010280228026ECB40211EB900291B40144
:102DCE0006E04480F08004E0547FF0ECB40111EB97
:102DDE00900292B40106E04480F08004E0547FF04B
:032DEE000238BAEE
:10277600EF24FEB40900400302286E90278F75F0FF
:1027860003A4C58325F0C583730227E70227DB026E
:1027960027F20227FD0228080227B70227C30227CD
:1027A600CF0227AAED90028FB4010302283A02282D
:1027B6006AED900293B40102807A02286AED9002D3
:1027C60090B40102806E02286AED900294B4010270
:1027D600806202286AED90028EB4010280560228B9
:1027E6006AED90028AB40102804A8078ED900299DF
:1027F600B40102803F806DED900295B401028034F1
:102806008062ED640190028F7030E04480F09002A7
:1028160093E04480F0900290E04480F0900294E0CF
:102826004480F090028AE04480F0900295E0448073
:10283600F0900299E04480F0802EE0547FF0900200
:1028460093E0547FF0900290E0547FF0900294E081
:10285600547FF090028AE0547FF0900295E0547F16
:10286600F0900299E0547FF09002887401F0E490B1
:0A287600029AF0A37410F00238BAC1
:06295E009002031207F5D0
:1029640078097C027D017BFF7A3679A17E007F089D
:10297400120623900207E014602E14604C14606A5F
:1029840024036003022A2B900208E0900214700CC6
:1029940074FFF0A37436F0A37469806D74FFF0A320
:1029A4007436F0A374708061900208E09002147091
:1029B4000C74FFF0A37436F0A37477800A74FFF0EC
:1029C400A37436F0A3747E8040900208E090021451
:1029D400700C74FFF0A37436F0A37485800A74FF3E
:1029E400F0A37436F0A3748C801F900208E0900268
:1029F40014700C74FFF0A37436F0A37493800A74FB
:102A0400FFF0A37436F0A3749AF0900203E0FCA3E1
:102A1400E0FDA3E0FEA3E0FF9002171207F57B019F
:102A24007A027909120AFA7B017A0279099002087A
:052A3400E0FD02232873
:0E232800900211EBF0A3EAF0A3E9F0A3EDF0B0
:10233600A37405F0E4A3F0ED700C900291E0547FD5
:10234600F0A3E0547FF0900214E0FDB40211900275
:1023560096E0547FF0A3E0547FF0A3E0547FF0EDC5
:10236600B4011190028BE0547FF0A3E0547FF0A3F8
:10237600E0547FF0900211E0FBA3E0FAA3E0F9122B
:102386000649FF70030224D0C3648094B0401AD378
:10239600EF648094B95012EF3395E0FE744E2FF53A
:1023A6008274023EF583123626900211E0FBA3E00A
:1023B600FAA3E0F9120649B42D069002B6123626A3
:1023C600900211E0FBA3E0FAA3E0F9120649B4205B
:1023D60013900214E0FDA3E0FBE4FF1236329002F4
:1023E60015E014F0900211E0FBA3E0FAA3E0F91265
:1023F6000649FFC3648094C1402AD3EF648094DA0F
:102406005022EF3395E0FE745B2FF58274023EF5A1
:1024160083E0FF900214E0FDA3E0FB123632900247
:1024260015E014F0900211E0FBA3E0FAA3E0F91224
:102436000649642E60030224BD900214E0FC640287
:102446007028900216E0FEB40207900296E04480DF
:10245600F0EEB40307900297E04480F0900216E095
:10246600B40407900298E04480F0EC640170289070
:102476000216E0FDB4020790028BE04480F0EDB452
:10248600030790028CE04480F0900216E0B4040743
:1024960090028DE04480F0900214E0701A900216CB
:1024A600E0FDB40407900292E04480F0EDB4030727
:1024B600900291E04480F0900216E004F09002123F
:1024C600E475F00112072A02237A9002887401F05B
:0C24D600E490029AF0A37410F00238BAEF
:1038BA009002887401F078177C02FDFB7A027988FD
:0A38CA007E007F14120623022BF487
:042148004103B5009A
:1037DF00E4FDFCC3ED9FEC9E501EE4FBFA0BBB0017
:1037EF00010AEB64A44A70F575AA0575AA0A75A9B2
:0837FF001F0DBD00010C80DB71
:01380700229E
:102A3900E4F9900001F0D281D280D290D291D29261
:102A4900E97002C281E9B40102C280E9B40202C29A
:102A590090E9B40302C291E9B40402C2927F017EF3
:102A6900001237DF20820AE925E025E00490000101
:102A7900F020A40BE925E025E02402900001F020D4
:102A8900A00BE925E025E02403900001F020960B36
:102A9900E925E025E02404900001F009E9640570C6
:102AA900959003B6E0FF700E900001E06008900376
:102AB900B57401F08037900001E0FEB5070BEE60B8
:102AC900089003B57402F080249003B6E0600E907C
:102AD9000001E070089003B57403F080109003B60C
:102AE900E0700A900001E070049003B5F0900001D5
:052AF900E09003B6F0BF
:012AFE0022B5
:0E3958009000BDE07007A3F09000BC04F022C8
:103728000000000000000000000000000000000091
:103738000000000000000000000000000000000081
:103748000000000000000000000000000000000071
:0237580000006F
:10214C004402BC000000004202C700004202C5006D
:10215C00004102C901602802CA0000000000000012
:10216C000000000000000000000000000000000063
:10217C000000000000000000000000000000000053
:10218C00004402C0000000004402B80000000041FE
:03219C0002C4007A
:0B0F1800900241EEF0A3EFF0A3EDF01B
:100F230078447C027D017BFF7A3779287E007F2815
:100F330012062390026C1208014064CCCD9002701B
:100F430012080100000000900241E0FCA3E0FDE470
:100F530012031E9002771207F590027B7406F0E4E9
:100F6300A3F0A3F090027404F0A37402F0A374CA74
:100F7300F090026CE0FCA3E0FDA3E0FEA3E0FF9091
:100F830002B8E0F8A3E0F9A3E0FAA3E0FB1200152E
:100F9300900277E0F8A3E0F9A3E0FAA3E0FB1202E2
:100FA300AC6002503290026CE0F8A3E0F9A3E0FADF
:100FB300A3E0FB9002B8E0FCA3E0FDA3E0FEA3E006
:100FC300FF120011900277E0F8A3E0F9A3E0FAA37F
:100FD300E0FB1202AC505C900243E070569002C4F6
:100FE300E0FF04F0EFD394024046E4F090027CF07B
:100FF30090027BE014FFA3E0C39F400302113890EB
:101003000277E0FCA3E0FDA3E0FEA3E0FF900274FF
:10101300E0FBA3E0FAA3E0F990027CE075F004A4FE
:10102300F58285F0831207D190027CE004F080C042
:10103300021352900243E0640170469002C4F090A0
:10104300027CF090027BE014FFA3E0C39F40030205
:101053001138900241E0FCA3E0FDE412031E90026C
:1010630074E0FBA3E0FAA3E0F990027CE075F004DE
:10107300A4F58285F0831207D190027CE004F0800E
:10108300C2900243E06402705590027CF090027BB0
:10109300E014FFA3E0FEC39F4003021138EE2401D6
:1010A300FFE433FEEF7802C333CE33CED8F9FF909B
:1010B3000274E0FBA3E0FAA3E0F98F828E831207A8
:1010C300A1900274A3A390027CE075F004A4F582BE
:1010D30085F0831207D190027CE004F080AFE490A6
:1010E30002C4F090027CF090027BE014FFA3E0FEC8
:1010F300C39F5041EE2401FFE433FEEF7802C33374
:10110300CE33CED8F9FF900274E0FBA3E0FAA3E05C
:10111300F98F828E831207A1900274A3A390027C9D
:10112300E075F004A4F58285F0831207D190027C68
:10113300E004F080B2900277E0FCA3E0FDA3E0FEC0
:10114300A3E0FFC004C005C006C007A3E024FFFF5F
:10115300E434FFFEEF7802C333CE33CED8F9FF90E9
:101163000274E0FBA3E0FAA3E0F98F828E83D00739
:10117300D006D005D0041207D1E490027CF090028F
:101183007BE0FFA3E0C39F5037900274E0FBA3E032
:10119300FAA3E0F990027CE075F004A4F58285F0EF
:1011A300831207A190027CE025E025E02444F58228
:1011B300E43402F5831207F590027CE004F080BE6C
:1011C300E490027CF090027BE014FFA3E0FEC39F57
:1011D30040030212ABEE04A3F090027BE0FF900207
:1011E3007DE0FEC39F40030212A290027CE025E053
:1011F30025E02444F582E43402F583E0F8A3E0F922
:10120300A3E0FAA3E0FBEE25E025E02444F582E425
:101213003402F583E0FCA3E0FDA3E0FEA3E0FF12AC
:1012230002AC6072407090027DE0FB25E025E02473
:1012330044F582E43402F583E0FCA3E0FDA3E0FE81
:10124300A3E0FF9002701207F590027CE0FA25E01C
:1012530025E02444F582E43402F583E0FCA3E0FDB9
:10126300A3E0FEA3E0FFEB25E025E02444F582E4C0
:101273003402F5831207F5900270E0FCA3E0FDA3AE
:10128300E0FEA3E0FFEA25E025E02444F582E43410
:1012930002F5831207F590027DE004F00211DC9061
:1012A300027CE004F00211C89002B81208010000A9
:1012B300000090027C7401F090027BE014FFA3E035
:1012C300FEC39F50389002B8E0F8A3E0F9A3E0FA18
:1012D300A3E0FBEE25E025E02444F582E43402F5A7
:1012E30083E0FCA3E0FDA3E0FEA3E0FF1200159062
:1012F30002B81207F590027CE004F080BB9002B8BC
:10130300E0FCA3E0FDA3E0FEA3E0FFC004C005C032
:1013130006C00790027BE024FEFDE434FFFCE412E8
:10132300031EA804A905AA06AB07D007D006D0055B
:10133300D00412020F9002B81207F59002B8E0FC35
:10134300A3E0FDA3E0FEA3E0FF9002C01207F59027
:0D13530002B8E0FCA3E0FDA3E0FEA3E0FF74
:01136000226A
:051CC400900325EFF084
:101CC900E4900329F0A3F0A3F0A3F0A3F0A3F0A3F9
:101CD900F0A3F0A3F0A3F078337C037D017BFF7AB6
:101CE900377950FE7F0A1206239003267401F0A368
:101CF9007403F0A37429F0E490032FF0A3F0A3F088
:101D0900A37478F030834D7F017E001237DF900392
:101D190030E004F0700690032FE004F0900331E006
:101D2900FEA3E0FFC3900330E09F90032FE09E40A5
:101D3900D39002C5E475F001120740FED3E5F09493
:101D490005EE6480948040099002C5E4F0A374050F
:101D5900F0021EF2E490032FF0A3F0C3900330E0E9
:101D6900940590032FE0940050757F017E0012378F
:101D7900DF900330E004F0700690032FE004F030A8
:101D890083D9E490032FF0A3F0A304F0A374F4F033
:101D9900900331E0FEA3E0FFC3900330E09F90037E
:101DA9002FE09E50177F017E001237DF900330E04D
:101DB90004F070DC90032FE004F080D49002C5E4B5
:101DC90075F001120740FED3E5F09402EE648094A9
:101DD9008040099002C5E4F0A37402F0021EF2D318
:101DE9009002C6E094009002C5E064809480400FA0
:101DF900A3E024FFF09002C5E034FFF0021EF27B5D
:101E0900017A037933122880900335E0FF90032685
:101E1900E0FBA3E475F001120740A9F0FAEF1206FE
:101E29008F900334E0FF900326E0FBA3E475F001F3
:101E3900120740A9F0FAEF12068F900333E0FF90E2
:101E49000326E0FBA3E475F001120740A9F0FAEFBD
:101E590012068F900326E0FBA3E0FAA3E0F9E4124F
:101E6900068F900329E0FEA3E07807CEC313CE13B3
:101E7900D8F9FF90032BEEF0A3EFF0E4FCFD7BFF14
:101E89007AFFF9F8C3120764604990032BE0FEA3B7
:101E9900E0FFE4FCFD7BFF7AFFF9F8C31207645009
:101EA9002490032BE0FEA3E0FFC3E49FFFE49EFE22
:101EB90090032BF0A3EFF0C374F49FF0747E9E900F
:101EC900032BF0800E90032CE024F4F090032BE018
:101ED900347EF090032BE0FEA3E0FF900325E0FDA4
:101EE900120F189002BC1207F59002BCE0FCA3E0A7
:071EF900FDA3E0FEA3E0FFE2
:011F000022BE
:0B288000900378EBF0A3EAF0A3E9F06E
:10288B00A312080100000000E490037FF0A3F09076
:10289B00037BE0FCA3E0FDA3E0FEA3E0FF780112C5
:1028AB00078E90037B1207F5D28490037BE0F8A38D
:1028BB00E0F9A3E0FAA3E0FBA283E433FFEB4FFFC5
:1028CB00EAFEE9FDE8FC90037B1207F5C284900356
:1028DB0080E004F0700690037FE004F090037FE04B
:1028EB007004A3E0641870A7E4FFFE0FBF00010E95
:1028FB00EF64074E70F5D284E4FEFF0FBF00010EAC
:10290B00EF64064E70F5C28490037BA3A3A3E0FF94
:10291B00900378E0FBA3E0FAA3E0F9900002EF123A
:10292B0006A190037BE0FCA3E0FDA3E0FEA3E0FF88
:10293B00780812077A900001EF1206A190037BE052
:10294B00FCA3E0FDA3E0FEA3E0FF781012077AEFF3
:03295B0002068FE2
:10320E002020202020004C4F57202000202042411B
:10321E0054540042414A4120200020202042415473
:10322E00004C4F5720004241545400204F46460058
:10323E0042414A412000424154004849474820201B
:10324E0000414C5441202000202041444150002098
:10325E00454C494E4E0020204F464600202020204F
:10326E002020002020494E49002020204F4E0020D3
:0A327E00202054430000000000006F
:10219F004403110000000044032100000000440329
:1021AF000300000000440308000000004402F33D58
:1021BF004CCCCD44031D40A47AE144031940800068
:1021CF00004403154069999A44030D406147AE419D
:0721DF0002F20041030700BA
:1024E20090008DE0D394005003022636E4F0122FC0
:1024F200D8EF14603414604C146061147003022528
:10250200D624FE700302261E2406600302263390A0
:10251200008EE0B4010BE4A3F090008EF0900090E6
:10252200F0E4900091F002263390008EE0B4010BAB
:10253200E4A3F090008EF0900090F090009174056A
:10254200F002263390008EE0B4010BE4A3F0900079
:102552008EF0900090F01233D602263390009174E0
:1025620005F090008E7401F0900090E0FFD3940883
:102572004004E4F08058EFC394074051EFD394092C
:10258200504B90008F7401F07BFF7A32790EFD126E
:10259200232890006AE07BFF70117A3279147D0261
:1025A2001223287BFF7A32791A800F7A3279217DC1
:1025B200021223287BFF7A327928E4FD122328E4D1
:1025C200FD7F02122776E4FD7F04022776E4900065
:1025D2008FF0805D12000390006AE07BFF70117A39
:1025E20032792F7D011223287BFF7A327934800FD2
:1025F2007A32793E7D011223287BFF7A3279447D3B
:10260200021223287BFF7A327939E4FD12232890C3
:1026120000CC7401F0E49000CEF0801590008EE0C2
:10262200B4010BE4A3F090008EF0900090F012340D
:042632003A12176BD6
:012636002281
:102C8700E4FFFE7D807C40900321E0F8A3E0F9A3F8
:102C9700E0FAA3E0FB1202AC40079002F27403F0E3
:102CA70022E4FFFE7D807C40900321E0F8A3E0F959
:102CB700A3E0FAA3E0FB1202AC50217466FFFEFD0D
:102CC7007C40900321E0F8A3E0F9A3E0FAA3E0FB3E
:102CD7001202AC40079002F27402F0227466FFFE03
:102CE700FD7C40900321E0F8A3E0F9A3E0FAA3E01C
:102CF700FB1202AC5021E4FFFE7D607C4090032173
:102D0700E0F8A3E0F9A3E0FAA3E0FB1202AC400766
:102D17009002F27401F022E4FFFE7D607C40900394
:102D270021E0F8A3E0F9A3E0FAA3E0FB1202AC501C
:072D370005E49002F2F02216
:10176B00900000E0640C7003021A2090008AE06481
:10177B00017003021A20900096E0B4011AE4FD7F79
:10178B0009122776E4FD7F08122776E4FD7F071206
:10179B002776E4FD0219F2900000E0640C7003025E
:1017AB001A20900096E064017003021A20900091B9
:1017BB00E070499000E2E0B4010C9002F2E004F01A
:1017CB00E0B40402E4F09000E1E070059000E00466
:1017DB00F090031DE0FCA3E0FDA3E0FEA3E0FFA35C
:1017EB00E0F8A3E0F9A3E0FAA3E0FB1202AC50038C
:1017FB000219769002F27405F00219769002F3E06A
:10180B00F8A3E0F9A3E0FAA3E0FB900319E0FCA333
:10181B00E0FDA3E0FEA3E0FF120011900321E0F82E
:10182B00A3E0F9A3E0FAA3E0FB1202AC500A90028A
:10183B00F2E0B403030218FA9002F3E0FCA3E0FD1C
:10184B00A3E0FEA3E0FF900319E0F8A3E0F9A3E007
:10185B00FAA3E0FB120015900321E0F8A3E0F9A333
:10186B00E0FAA3E0FB1202AC400D9002F2E0B402EE
:10187B00067403F00219769002F3E0F8A3E0F9A3E3
:10188B00E0FAA3E0FB900315E0FCA3E0FDA3E0FE70
:10189B00A3E0FF120011900321E0F8A3E0F9A3E00D
:1018AB00FAA3E0FB1202AC500D9002F2E0B4020678
:1018BB007401F00219769002F3E0FCA3E0FDA3E0C3
:1018CB00FEA3E0FF900315E0F8A3E0F9A3E0FAA371
:1018DB00E0FB120015900321E0F8A3E0F9A3E0FA76
:1018EB00A3E0FB1202AC400C9002F2E0B4010574D1
:1018FB0002F080779002F3E0F8A3E0F9A3E0FAA3FB
:10190B00E0FB90030DE0FCA3E0FDA3E0FEA3E0FFF2
:10191B00120011900321E0F8A3E0F9A3E0FAA3E091
:10192B00FB1202AC500B9002F2E0B40104E4F08025
:10193B003A9002F3E0FCA3E0FDA3E0FEA3E0FF90EE
:10194B00030DE0F8A3E0F9A3E0FAA3E0FB12001506
:10195B00900321E0F8A3E0F9A3E0FAA3E0FB120265
:10196B00AC40089002F2E0700204F09002F2E070DA
:10197B0018FD7F09122776E4FD7F08122776E4FD18
:10198B007F071227767D01805E9002F2E0B4011989
:10199B00E4FD7F09122776E4FD7F081227767D018F
:1019AB007F071227767D01803E9002F2E0B4021988
:1019BB00E4FD7F091227767D017F081227767D01D2
:1019CB007F071227767D01801E9002F2E0B4031C84
:1019DB007D017F091227767D017F081227767D0115
:1019EB007F071227767D017F0A0227769002F2E0AD
:1019FB00B405227D017F091227767D017F0812270E
:101A0B00767D017F071227767D017F0A122776905C
:061A1B0002F27403F02248
:102FD800123188E4FFFE7DE07C40900311E0F8A305
:102FE800E0F9A3E0FAA3E0FB1202AC600540037F1E
:102FF8000622E4FFFE7D907C40900321E0F8A3E0E8
:10300800F9A3E0FAA3E0FB1202AC505BE4FFFE7DFB
:10301800407C40900321E0F8A3E0F9A3E0FAA3E0A4
:10302800FB1202AC50037F07227FCD7ECC7D4C7C07
:1030380040900321E0F8A3E0F9A3E0FAA3E0FB1233
:1030480002AC50037F0422E4FFFE7D607C409003C5
:1030580021E0F8A3E0F9A3E0FAA3E0FB1202AC50E8
:0A306800037F03227F01227F002274
:10318800E4900201F0A3F043802075AB09E5AB2081
:10319800E20843AB04E5AB20E2FBAFAC900201E4EC
:1031A800F0A3EFF053ABF7900201E0FCA3E0FDE4DD
:1031B80012031E7B3A7A077954783C1201067B9AEF
:1031C8007A997919783E1200159003111207F59033
:1031D8000201E0FCA3E0FDE412031E7B3A7A0779C2
:1031E80054783C1201069003211207F5900311E070
:1031F800FCA3E0FDA3E0FEA3E0FF9002077402F049
:06320800A314F002295E90
:063970009003B9EFF02204
:1033D6009001FD1208010000000012355212000390
:1033E60090006AE07BFF70117A3279487D021223E1
:1033F600287BFF7A32791A800F7A32794F7D021252
:1034060023287BFF7A327928E4FD122328E4FFFE85
:103416007DC07C40900321E0F8A3E0F9A3E0FAA385
:10342600E0FB1202AC600A4008122FD8120000809E
:04343600DC020003B1
:10343A009001FD120801000000001235521200032B
:10344A0090006AE07BFF70117A3279487D0212237C
:10345A00287BFF7A327956800F7A32794F7D0212B1
:10346A0023287BFF7A32795DE4FD122328E4FFFEEC
:10347A007DE07C40900311E0F8A3E0F9A3E0FAA311
:10348A00E0FB1202AC600A4008122FD8120000803A
:04349A00DC0200034D
:1036E90012355212000390006AE07BFF70117A32A2
:1036F90079147D021223287BFF7A32791A800F7A96
:103709003279217D021223287BFF7A327928E4FD60
:0F3719001223289000CC7401F0E49000CEF0222F
:10378A00122FD8900321E0FCA3E0FDA3E0FEA3E002
:10379A00FF90003E1207F5900311E0FCA3E0FDA3A1
:0B37AA00E0FEA3E0FF9000420207F5E4
:1033680090036D1208010000000078717C037D0154
:103378007BFF7A3279837E007F0512062390031142
:10338800E0FCA3E0FDA3E0FEA3E0FF9002077403C6
:10339800F0A37401F012295E900321E0FCA3E0FD84
:1033A800A3E0FEA3E0FF9002077402F0A3F0122945
:1033B8005E900303E0FCA3E0FDA3E0FEA3E0FF9022
:0E33C80002077402F0E4A3F012295E02176BF4
:102F3A0090030CE014603614601214604B24036092
:102F4A0003022FD77BFF7A32796480067BFF7A32BD
:102F5A0079717D011223287BFF7A32790E7D021264
:102F6A0023287BFF7A32796AE4FD0223287BFF7AE1
:102F7A003279777D011223287BFF7A32790E7D021E
:102F8A001223289002FB802C7BFF7A32797D7D0107
:102F9A001223289002FFE0FCA3E0FDA3E0FEA3E0D9
:102FAA00FFEC120319E4900207F0A37402F012294D
:102FBA005E9002F7E0FCA3E0FDA3E0FEA3E0FFECD5
:0E2FCA00120319E4900207F0A3F012295E2210
:10375A00434F4445004241440052455345540020DA
:10376A002041444300202020202020004E4E554C6A
:10377A00520020204F4646000000000000000000D2
:1021E60048010B0B121311000000004801B30B0E3F
:1021F6000B02060000004801830B0E0B03010000D2
:102206000048018B0B0E0B040100000048019B0BDC
:102216000E0B04020000004801AB0B0E0B0403007A
:1022260000004801930B0E0B05010000004801BB9E
:102236000B0900000000000048016B0B1211100092
:102246000000004801730B10020600000000480160
:10225600420B10020B000000004801E30B0B030ABF
:10226600000000004801CB0B1112130000000048CB
:10227600013A0B101202010101004801A30B1012D2
:1022860002010102004801230B1010121200000087
:1022960048015A121011100000000048017B0B1073
:1022A6001212000000004801320B0B010000000072
:1022B600004801130B101011110000004801C30B58
:1022C600101011100000004801520B03050308000E
:1022D60000004801DB0B1001000000000048014A25
:1022E6000B1313110000000048011B0B1113020011
:1022F6000000004801620B060504030201004801C4
:10230600D30B0201020100000047010437363534C1
:1023160033320047012B3737393130330041016AF8
:0123260000B6
:1013610078FD7C017D017BFF7A3779827E007F08E1
:10137100120623E4FFFE9000CAF09000C804F00FAB
:10138100BF00010EEF64044E70F575AA0575AA0A37
:1013910075A91F900205E070030216711239589069
:1013A10000C87401F0FB7A0179FD123931C3EF9461
:1013B10007EE64809480501E9002097401F0A374BA
:1013C10002F0A37405F0A3E4F0A304F0FB7A017921
:1013D100FD122AFF802D1200007BFF7A37795A7D9A
:1013E100011223287BFF7A37795F7D02122328E4DB
:1013F10090009CF09000F604F0A3742CF09000D0C3
:101401007401F0780B7C017D017B017A0179FD1279
:101411000A00EF700790009804F0FF2278B37C0176
:101421007D017B017A0179FD120A00EF7003FF80D3
:101431006C78837C017D017B017A0179FD120A00C0
:10144100EF70047F018056788B7C017D017B017AEE
:101451000179FD120A00EF70047F028040789B7CC5
:10146100017D017B017A0179FD120A00EF70047F91
:1014710005802A78AB7C017D017B017A0179FD121F
:101481000A00EF70047F06801478937C017D017B54
:10149100017A0179FD120A00EF70087F0312000042
:1014A100021671786B7C017D017B017A0179FD1255
:1014B1000A00EF70057F020215FD78737C017D0142
:1014C1007B017A0179FD120A00EF70057F03021595
:1014D100FD78E37C017D017B017A0179FD120A002F
:1014E100EF70047F04801478CB7C017D017B017A4D
:1014F1000179FD120A00EF700E7F051200009000C5
:10150100CA7401F0021671783A7C017D017B017A7F
:101511000179FD120A00EF70057F060215FD78A31F
:101521007C017D017B017A0179FD120A00EF7005D2
:101531007F070215FD78237C017D017B017A01790A
:10154100FD120A00EF70057F080215FD787B7C0112
:101551007D017B017A0179FD120A00EF70057F0A96
:101561000215FD78527C017D017B017A0179FD1222
:101571000A00EF70057F0C0215FD78DB7C017D010F
:101581007B017A0179FD120A00EF70047F0D806CF6
:10159100784A7C017D017B017A0179FD120A00EF15
:1015A10070047F108056781B7C017D017B017A01DC
:1015B10079FD120A00EF70047F13804078137C01DB
:1015C1007D017B017A0179FD120A00EF70047F171A
:1015D100802A78C37C017D017B017A0179FD120AA1
:1015E10000EF70047F18801478D37C017D017B01AA
:1015F1007A0179FD120A00EF70077F19120000804D
:101601006F78327C017D017B017A0179FD120A003C
:10161100EF70237BFF7A3779637D011223287BFFEB
:101621007A3779697D021223287BFF7A37796FE453
:10163100FD122328803A78627C017D017B017A01C9
:1016410079FD120A00EF7028900069F07BFF7A376C
:1016510079767D011223287BFF7A37797C7D02120E
:1016610023287BFF7A37796FE4FD122328120000CB
:1016710090008CE07002FF229000CAE07003021318
:101681008B78BB7C017D017B017A0179FD120A0017
:10169100EF70077F01120000801A78427C017D0102
:1016A1007B017A0179FD120A00EF70089000A00415
:1016B100F0120000E49000CAF0900026E0FCA3E0E4
:1016C100FDA3E0FEA3E0FF90000E1207F590000ECF
:1016D100E0F8A3E0F9A3E0FAA3E0FBC000C001C079
:1016E10002C003E4FFFE7D107C4190002AE0F8A3D4
:1016F100E0F9A3E0FAA3E0FB120106D003D002D087
:1017010001D00012001590000E1207F590016AE059
:101711006016900022E0FCA3E0FDA3E0FEA3E0FF41
:1017210090002E1207F58003120000900075E0B4BE
:1017310001109000F67403F0A37484F09000D0744B
:1017410001F09000FCE4F0A3741EF0E49000A3F01B
:101751009000E504F090002EE0FCA3E0FDA3E0FE84
:09176100A3E0FFA31207F57F00CD
:01176A00225C
:01397600222E
:0A394600E475F001120740AFF0FE37
:073950008F828E83E493FFD8
:01395700224D
:0836A9009003A5EEF0A3EFF081
:1036B1009003A97401F0A37403F0A374A7F0E4FDCF
:1036C1009003A51239469003A9E0FBA3E475F0012C
:1036D100120740A9F0FAEF12068F0DEDB402E19046
:0736E10003A7E0FEA3E0FFD8
:0136E80022BF
:08359A00900381EEF0A3EFF0B5
:1035A2009003877401F0A37403F0A37483F0E4FD25
:1035B200900381123946900387E0FBA3E475F00182
:1035C200120740A9F0FAEF12068F0DEDB404E19054
:0D35D2000383E0FCA3E0FDA3E0FEA3E0FF07
:0135DF0022C9
:0835E00090038AEEF0A3EFF066
:1035E8009003907401F0A37403F0A3748CF0E4FDCD
:1035F80090038A123946900390E0FBA3E475F0012A
:10360800120740A9F0FAEF12068F0DEDB404E1900D
:0D361800038CE0FCA3E0FDA3E0FEA3E0FFB7
:013625002282
:10328800AFF0FEE0FBA3E475F001120740A9F0FAE5
:04329800120649FDD4
:10329C00E49003AEF09003ACEEF0A3EFF0A2AF928B
:1032AC0009C2AF9003ACE0F5C3A3E0F5C2AF058F44
:1032BC00C1E4F5C4F5C5F5C69003B7E0B4AA08A3FC
:1032CC00E0B4550375C70312397675C40575C50A84
:1032DC0075C6099003B7E0B4AA08A3E0B45503750A
:0D32EC00C703E4F5C4F5C5F5C6A20992AF0D
:0132F90022B2
:1037B5009003B1EDF09003AFEEF0A3EFF0123950A6
:1037C500EFF460089003AF7D011226399003AFE056
:0A37D500FEA3E0FFA3E0FD02329C1A
:1030FE00900395ECF0A3EDF0900393EEF0A3EFF0B8
:10310E001236A990039AEEF0A3EFF0900397740194
:10311E00F0A37403F0A3749AF0900397E0FBA3E47A
:10312E0075F001120740A9F0FA120649B4FF169085
:10313E000397E0FBA3E475F001120740A9F0FA1221
:10314E000649F4600F900393E0FEA3E0FF7D027C3E
:10315E00001226409003977401F0A37403F0A37439
:10316E0095F0E4FC900393E475F001120740900390
:09317E00971232880CECB402EB4C
:013187002225
:082E9700900353EEF0A3EFF0ED
:102E9F0012359A90035C1207F59003597401F0A351
:102EAF007403F0A3745CF0900359E0FBA3E475F096
:102EBF0001120740A9F0FA120649B4FF42900359D4
:102ECF00E0FBA3E475F001120740A9F0FA120649DE
:102EDF00B4FF2C900359E0FBA3E475F001120740F7
:102EEF00A9F0FA120649B4FF16900359E0FBA3E4C8
:102EFF0075F001120740A9F0FA120649B4FF0690C7
:102F0F0003531226379003597401F0A37403F0A3EF
:102F1F007455F0E4FC900353E475F00112074090F0
:0A2F2F0003591232880CECB404EBD5
:012F39002275
:082DF100900360EEF0A3EFF087
:102DF9001235E09003691207F59003667401F0A398
:102E09007403F0A37469F0900366E0FBA3E475F022
:102E190001120740A9F0FA120649B4FF429003666D
:102E2900E0FBA3E475F001120740A9F0FA12064984
:102E3900B4FF2C900366E0FBA3E475F00112074090
:102E4900A9F0FA120649B4FF16900366E0FBA3E461
:102E590075F001120740A9F0FA120649B4FF06906D
:102E690003601226379003667401F0A37403F0A37C
:102E79007462F0E4FC900360E475F001120740AF5E
:0D2E8900F0FE90036612328B0CECB404E8EE
:012E96002219
:1034FA00E49003B2F0A3EEF0A3EFF0A2AF920AC2F7
:10350A00AF9003B3E0F5C3A3E0F5C2E4F5C4F5C593
:10351A00F5C69003B7E0B4AA08A3E0B4550375C78B
:10352A000312397675C40575C50A75C6099003B7BD
:10353A00E0B4AA08A3E0B4550375C70CE4F5C4F5D2
:07354A00C5F5C6A20A92AF0D
:013551002257
:092637007D04E0FEA3E0FF7C003D
:1026400090039EECF0A3EDF090039CEEF0A3EFF06E
:10265000E49003A0F0A3F0A3F0A37404F0A3E4F0CB
:10266000FD7C041206D57D007C041206C3AA06ABCD
:1026700007E49003A1F0A3F09003A1E0FEA3E0FF24
:10268000C3940AEE94005025E42FFFEE3468FE1246
:102690003950EFF460077F007E681234FA9003A28D
:1026A000E004F070D39003A1E004F080CBE4900349
:1026B000A1F0A3F09003A3E0FEA3E0FF9003A1E04C
:1026C000FCA3E0FDC39FEC9E5056ED2BFFEC3AFEC1
:1026D00090039CE0B50617A3E0B50712A3E0FEA3A4
:1026E000E0FF9003A2E02FF09003A1E03EF0900302
:1026F000A2E02BFF9003A1E03AFE123950AD079003
:1027000003A2E02400FF9003A1E03468FE12329C93
:102710009003A2E004F0709C9003A1E004F0809488
:10272000AF03AE021234FAE49003A1F0A3F09003D9
:10273000A3E0FEA3E0FF9003A1E0FCA3E0FDC39FA4
:10274000EC9E502BE42DFFEC3468FE123950AD079F
:102750009003A2E02BFF9003A1E03AFE12329C907E
:1027600003A2E004F070C79003A1E004F080BF7FF3
:06277000007E680234FA4D
:10000E0002038CE86480F8E933E83360110460F091
:10001E00ED33EC337009E8FCE9FDEAFEEBFF220458
:10002E0060DED3EB9FEA9EE99DE8C2E78CF0C2F753
:10003E0095F0400CE8CCF8E9CDF9EACEFAEBCFFB1F
:10004E0012035785D0F05804700320D5B3E804701E
:10005E00075002B2D502039692D5EC0460F7E4CCB9
:10006E00C0E0C398F8603B94186008400DD0E0FBE8
:10007E0002036EE4FBFAC9FC8028E830E406E4C90A
:10008E00FBE4CAFCE830E305E4C9CACBFCE854073C
:10009E006010F8C3E913F9EA13FAEB13FBEC13FC47
:1000AE00D8F130F52FC3E49CFCEF9BFFEE9AFEEDEA
:1000BE0099FDD0E0FBEF4E4D4C701222DB03020394
:1000CE0093EC2CFCEF33FFEE33FEED33FDED30E71A
:1000DE00EB02036EEF2BFFEE3AFEED39FDD0E0FBA7
:1000EE0050130BBB0003020396ED13FDEE13FEEF50
:0800FE0013FFEC13FC02036E7A
:10010600EC4D6011E8497017ED33EC3304600DE4F3
:10011600FCFFFEFD22E933E8330470F802038C127B
:10012600035758046009E4CC24815006285009027C
:100136000396284003020393C0E0EB4A7044B9805B
:1001460006D0E0FB020382EF4E701CBD8008EBFF79
:10015600EAFEE9FD80EBE98DF0A4FEE5F00201EF91
:10016600E9CDF9EAFEEBFFEF89F0A4FCE5F0CE89D4
:10017600F0A42EFFE435F0CD89F0A42DFEE435F091
:100186008067EF4E7005BD80D780C3EF8BF0A4ACBF
:10019600F0EE8BF0A42CFCE435F0F8EF8AF0A42CFA
:1001A600E5F038FCE433CB8DF0A42CFCE5F03BF80D
:1001B600EE8AF0A42CFCE5F038F8E433CF89F0A4FD
:1001C6002CFCE5F038CF3400CE89F0A42FFFE5F003
:1001D6003EFEE433C98DF0A42EFEE5F039CD8AF05B
:1001E600A42FFFE5F03EFEE43DFD33D0E0FB5007D3
:1001F6000BBB000F020396EC2CFCEF33FFEE33FE35
:06020600ED33FD02036E62
:10020C00020396EC5D046005E85904700302038C4C
:10021C00120357580460F6EC4860F2EC7004FDFED3
:10022C00FF22C860DB2481C85009C39860025006C5
:10023C000203939850CAF582E9294B4A7005AB82A8
:10024C0002038275F0007C1A7880C3EF9BEE9AED66
:10025C0099400DC3EF9BFFEE9AFEED99FDE842F03D
:10026C00DC23ACF0D0E0FFD0E0FED0E0FDAB822090
:10027C00E7101BEB60BAEC2CFCEF33FFEE33FEED1A
:10028C0033FD02036EE803F830E705C0F075F000AB
:10029C00EF2FFFEE33FEED33FD40B830E7C280AAFE
:1002AC0074F8CC6480CCC86480C8F582046043C305
:1002BC00EB9FF5F0EA9E42F0E99D42F0E89C45F098
:1002CC0060305018E5825FFFE582F42B5582FB50BD
:1002DC00210ABA001D09B90019088016E5825BFBDA
:1002EC00E582F42F5582FF50090EBE00050DBD00AE
:1002FC00010CC3EB9FF5F0EA9E42F0E99D42F0E859
:0D030C009C45F06007CC4820E701B3EC22CF
:1003190075F020800E75F010800575F0087D007E5F
:10032900007F003392D530D503120756EC334010C5
:10033900EF33FFEE33FEED33FDEC33FCD5F0ED2268
:0E034900E5F0247EA2D513CC92E7CDCEFF22A4
:100A9500E5082414F582E43402F583E00508229084
:100AA5000211300703900214E475F00112083202B6
:100AB50006492000E97F2ED2008018EF540F2490BC
:100AC500D43440D4FF30040BEF24BFB41A005003D4
:100AD5002461FFE50960021509050CE50C700205A6
:100AE5000B30070E900211E475F001120832EF0287
:100AF500068F0238087403D2078003E4C207F5089D
:100B0500900211120849E4F509F50BF50CE50960A9
:100B1500077F20120AD880F5750AFFC201C200C2FC
:100B250002C203C205C206C208120AA4FF700D3034
:100B350007057F00120AE9AF0CAE0B22B4255FC290
:100B4500D5C204120AA4FF24D0B40A00501A75F0C5
:100B55000A780930D50508B6FF0106C6A426F62091
:100B6500D5047002D20380D924CFB41A00EF500403
:100B7500C2E5D204020DDBD20180C6D20080C0D20C
:100B85000280BCD2D580BAD20580B47F20120AD8A3
:100B95002002077401B5090040F1120A95FF120AF7
:100BA500D8020B12D208D2068095120A95FB120ABA
:100BB50095FA120A95F94A4B700679D97A0E7BFF98
:100BC50020022EE509602A7E008E827583001206BA
:100BD5006260060EEE650A70F0C2D5EBC0E0EAC0B1
:100BE500E0E9C0E0EE120E3CD0E0F9D0E0FAD0E04A
:100BF500FB120649FF60AAEBC0E0EAC0E0E9C0E0ED
:100C0500120AD8D0E02401F9D0E03400FAD0E0FB94
:100C1500E50A0460DCD50AD98087D20280A2120ECB
:100C25001E60F7E50A7001041203A1A90A600DE52B
:100C35000A600914F50A120EC6EF60F3EA30E702FE
:100C4500F404C3995079EAF4250A0430E701E40471
:100C5500F50A800D120E1E60C1EA050A250A120367
:100C6500A1EA900240F030E701E4250A04D50A0420
:100C750020050114120E3CE4C0E0120EC69002409D
:100C8500E0601320E70714F0120AC0802204F0D0B8
:100C9500E014C0E07F00120AC0E50A6007120AB737
:100CA500150A800B300503120AB7D0E0020B12D0EB
:100CB500E00480C4120E1E609EE50A041203A19092
:100CC5000240EAF0E50A2005026001042404120E40
:010CD5003CE2
:100CD60074FF04C0E0120EC6120AC0E50A2005021F
:100CE6006003120AB7D0E0B50AE87F45120ACA9037
:100CF6000240E07F2B30E7047F2DF404C0E0120AA7
:100D0600D8D0E075F00A84C0F0120AC1D0E0120A09
:100D1600C1020B12791080027908C206C208800847
:100D2600D2D5790A8004790AC2D5E50A047002F59B
:100D36000AE4FAFDFEFF120A95FC7B082001131255
:100D46000A95FD7B1030000A120A95FE120A95FFDD
:100D56007B20EC3382D592D55013C3E43000069F36
:100D6600FFE49EFEE42001039DFDE49CFCE4CBF839
:100D7600C201EC700CCFCECDCCE824F8F870F3802D
:100D860017C3EF33FFEE33FEED33FDEC33FCEB33ED
:100D9600FB994002FB0FD8E9EB300105F8D0E0C41F
:100DA60048B201C0E00AEC4D4E4F78207B0070C27D
:100DB600EAB50A0040BCC0E0120E3ED0F0D0E020FA
:100DC6000104C4C0E0C4B201C0F0120AC1D0F0D51B
:100DD600F0EB020B121208520BAF530D1A580B8090
:100DE6004C0B7C420D1E4F0D26440D26490B954398
:100DF6000D2C550C59460CB9450C23470EF9500BD2
:100E0600842D0B882E0BAB2B0B8C230BA9200EE20B
:100E16002A0B444800000BA3E50AB4FF03750A0633
:100E2600120A95FC120A95FD120A95FE120A95FF02
:100E36009002390203DE790AA2D52003143005098F
:100E4600B910020404B9080104A2D5200602500113
:100E5600042002689202B509005034C0E07F2030B9
:100E660003197F30A20272067205500F120E95C248
:100E760002C206C205C2087F30800F300503E9C0F2
:100E8600E0120AD8300503D0E0F9D0E0B509CC303D
:100E960005177F30B9100C120AD87F583004077F27
:100EA600788003B90803120AD83002057F2D020A9A
:100EB600D87F202008F87F2B2006F322920280CFCD
:100EC6007F00B40700500B2439F582E43402F58321
:100ED600E0FF22286E756C6C2900D201120A95304B
:100EE60001F8C201780930D50108F6020B442D50ED
:100EF600434958120A952403B405004001E4900EB4
:100F0600F493120AC9743A120AC9D2037509040283
:020F16000D1AB2
:10035700E9D2E7C933E833F892D5EDD2E7CD33ECEC
:0703670033FC5002B2D52265
:10036E00EC30E7100FBF000C0EBE00080DBD0004F0
:10037E000BEB6014A2D5EB13FCED92E7FD2274FF9C
:10038E00FCFDFEFF22E480F8A2D574FF13FC7D80F5
:03039E00E480EF09
:1003A100F920E73624F950037907E4F42402FBE548
:1003B10082158270021583DBF6E024FB501BE96095
:1003C10014E4F0E582158270021583E004F0B40AAA
:0D03D10008E4F0D9EE7401F00A22C2D52232
:1003DE00ED33EC3392D5FA602AB4FF33EDC2E77BEE
:1003EE00FF60067A047903E4227A04790C20D5049E
:1003FE007A047907224E614E002B494E46002D4954
:10040E004E4600E47A08F0A3DAFC7B00740722C0A3
:10041E0083C082ECC0E0EDC0E0EEC0E0EFC0E0EAE9
:10042E0075F010A4CAABF075F04DA42BFBE435F0BB
:10043E00FCEA2410FAEB34C5FBEC34D9FCEDC2E730
:10044E00FF75F056A4F42411C5F0F434C58FF0A452
:10045E002AE5F03BE43CF020E714120513D0E0FF50
:10046E00D0E0FED0E0FDD0E0FC12020F8014F404C8
:10047E00120513D0E0FFD0E0FED0E0FDD0E0FC127C
:10048E000106D082D083E0FAEDD2E7CD33EC3324EF
:10049E0082FBE4C3CF33CFCE33CECD33CD33DBF3BC
:1004AE007B0775F00A846004F0A31B0AE5F0F0A345
:1004BE008FF0740AA4FFACF08EF0740AA42CFEAC7C
:1004CE00F050010C8DF0740AA42CFDE435F0F0A36D
:0504DE00DBDE740722C3
:1004E3003F8000004120000042C80000447A000021
:1004F300461C400047C35000497424004B189680A3
:100503004CBEBC205A0E1BCA6753C21C749DC5AE99
:10051300FB60065407601C2323120541EB5438602B
:100523000912052D12053C120106ECF8EDF9EEFA5D
:10053300EFCB22EB12053C80F1543803241C9004CA
:10054300E3FE93FC0EEE93FD0EEE930ECE93FF228D
:0300000002307259
:0C307200787FE4F6D8FD7581210230B9AA
:10055300E709F608DFFA8046E709F208DFFA803E8A
:1005630088828C83E709F0A3DFFA8032E309F60877
:10057300DFFA8078E309F208DFFA807088828C83DF
:10058300E309F0A3DFFA806489828A83E0A3F60893
:10059300DFFA805889828A83E0A3F208DFFA804C6D
:1005A30080D280FA80C680D4806980F28033801044
:1005B30080A680EA809A80A880DA80E280CA8033AD
:1005C30089828A83ECFAE493A3C8C582C8CCC58325
:1005D300CCF0A3C8C582C8CCC583CCDFE9DEE780F5
:1005E3000D89828A83E493A3F608DFF9ECFAA9F074
:1005F300EDFB2289828A83ECFAE0A3C8C582C8CCCA
:10060300C583CCF0A3C8C582C8CCC583CCDFEADEE2
:10061300E880DB89828A83E493A3F208DFF980CC44
:1006230088F0EF60010E4E60C388F0ED2402B4043D
:100633000050B9F582EB2402B4040050AF232345E4
:0606430082239005A37361
:10064900BB010689828A83E0225002E722BBFE02AF
:09065900E32289828A83E49322E2
:10066200BB010CE58229F582E5833AF583E022504D
:1006720006E92582F8E622BBFE06E92582F8E22297
:0D068200E58229F582E5833AF583E49322B1
:10068F00BB010689828A83F0225002F722BBFE014A
:02069F00F32244
:1006A100F8BB010DE58229F582E5833AF583E8F08F
:1006B100225006E92582C8F622BBFE05E92582C83B
:0206C100F22223
:1006C300EF8DF0A4A8F0CF8CF0A428CE8DF0A42E4B
:0206D300FE2205
:1006D500BC000BBE0029EF8DF084FFADF022E4CC09
:1006E500F875F008EF2FFFEE33FEEC33FCEE9DECD2
:1006F500984005FCEE9DFE0FD5F0E9E4CEFD22ED18
:10070500F8F5F0EE8420D21CFEADF075F008EF2F61
:10071500FFED33FD4007985006D5F0F222C398FD52
:050725000FD5F0EA22EF
:10072A00C5F0F8A3E028F0C5F0F8E582158270025A
:06073A001583E038F022F7
:10074000A3F8E0C5F025F0F0E5821582700215836C
:06075000E0C838F0E822C9
:0E075600C3E49FFFE49EFEE49DFDE49CFC22B4
:10076400EB9FF5F0EA9E42F0E99D42F0EC6480C80C
:0607740064809845F022AC
:10077A00E86010ECA2E713FCED13FDEE13FEEF1395
:04078A00FFD8F02282
:10078E00E8600FEFC333FFEE33FEED33FDEC33FCC9
:03079E00D8F1226D
:1007A100BB010DE58229F582E5833AF583020A55FD
:1007B1005007E92582F8020A49BBFE07E92582F8BC
:1007C100020A61E58229F582E5833AF583020A6D21
:1007D100BB010DE58229F582E5833AF5830207F530
:1007E1005007E92582F8020A7DBBFE07E92582F858
:0407F100020A89224D
:0C07F500ECF0A3EDF0A3EEF0A3EFF02277
:10080100A8828583F0D083D08212081812081812AA
:100811000818120818E473E493A3C583C5F0C583CF
:10082100C8C582C8F0A3C583C5F0C583C8C582C841
:0108310022A4
:10083200F8E0FBA3A3E0F925F0F0E582158270024F
:070842001583E0FA38F022F3
:09084900EBF0A3EAF0A3E9F022B0
:10085200D083D082F8E4937012740193700DA3A335
:1008620093F8740193F5828883E473740293686049
:06087200EFA3A3A380DF49
:10380800EFB40A07740D123813740A309811A89986
:10381800B8130CC2983098FDA899C298B811F63020
:0738280099FDC299F59922F8
:102AFF00900206EBF0A3EAF0A3E9F0E490020EF0E7
:102B0F00A3F0D390020DE0940090020CE064809447
:102B1F00805003022BB8900206E0FBA3E0FAA3E07B
:102B2F00F990020EE0FEA3E0F5828E83120662603A
:102B3F001090020FE004F070DD90020EE004F080C0
:102B4F00D5900209E0FBA3E0FAA3E0F91206496071
:102B5F003E900209A3E475F001120740A9F0FA12A2
:102B6F000649FF900206E0FBA3E0FAA3E0F990020A
:102B7F000EE475F00112074085F082F583EF12061F
:102B8F00A190020C74FFF5F012072A45F070B29075
:102B9F000206E0FBA3E0FAA3E0F990020EE0FEA329
:102BAF00E0F5828E83E41206A1900206E0FBA3E01B
:052BBF00FAA3E0F92279
:10087800E3F5F009E208B5F06D606B80F3E3F5F09D
:1008880009E608B5F060605E80F387F009E608B510
:10089800F054605280F487F009E208B5F0486046E9
:1008A80080F488828C8387F009E0A3B5F03860363D
:1008B80080F488828C8387F009E493A3B5F02760DD
:1008C8002580F388828C83E3F5F009E0A3B5F01660
:1008D800601480F388828C83E3F5F009E493A3B570
:1008E800F004600280F20209A3808580E7808E8090
:1008F800D2803C8015806C807E809B80B5808B8008
:10090800A1804F8070803A0209B989828A83ECFA03
:10091800E493F5F0A3C8C582C8CCC583CCE493A3FF
:10092800C8C582C8CCC583CCB5F070606E80E1893B
:10093800828A83E493F5F0A3E208B5F05E605C80F8
:10094800F289828A83E0F5F0A3E608B5F04D604BA2
:1009580080F389828A83E0F5F0A3E208B5F03C6071
:100968003A80F389828A83E493F5F0A3E608B5F028
:100978002A602880F2805D89828A83ECFAE493F504
:10098800F0A3C8C582C8CCC583CCE0A3C8C582C8BB
:10099800CCC583CCB5F004600280E27F00F845F056
:1009A800600EE863F0806480D395F01F40027F01F9
:1009B8002289828A83ECFAE0F5F0A3C8C582C8CC04
:1009C800C583CCE0A3C8C582C8CCC583CCB5F0CB61
:1009D80060C980E389828A83ECFAE0F5F0A3C8C590
:1009E80082C8CCC583CCE493A3C8C582C8CCC583D0
:1009F800CCB5F0A760A580E288F0ED2402B404002D
:100A08005099F582EB2402B40400508F23234582C9
:050A1800239008F173BA
:10393100E4FFFE120649600C0FEF70010E09E970F9
:05394100F20A80EF22F4
:100A1D00EF4E6012EF60010EEDBB010B89828A83F0
:100A2D00F0A3DFFCDEFA2289F05007F709DFFCA9FD
:0C0A3D00F022BBFEFCF309DFFCA9F02254
:10307E00021A21E493A3F8E493A34003F68001F22D
:10308E0008DFF48029E493A3F85407240CC8C33353
:10309E00C4540F4420C8834004F456800146F6DF22
:1030AE00E4800B0102040810204080902115E47E7C
:1030BE00019360BCA3FF543F30E509541FFEE49317
:1030CE00A360010ECF54C025E060A840B8E493A3DE
:1030DE00FAE493A3F8E493A3C8C582C8CAC583CA09
:1030EE00F0A3C8C582C8CAC583CADFE9DEE780BEC1
:0123270000B5
:0C0A4900E6FC08E6FD08E6FE08E6FF22D9
:0C0A5500E0FCA3E0FDA3E0FEA3E0FF2214
:0C0A6100E2FC08E2FD08E2FE08E2FF22D1
:100A6D00E493FC740193FD740293FE740393FF22CF
:0C0A7D00ECF608EDF608EEF608EFF622A5
:0C0A8900ECF208EDF208EEF208EFF222A9
:00000001FF
