:10345E00123918123D00123CB5123D69123C7E1213
:10346E003D2D1239187FF47E011238C91222EF90C9
:10347E000046E0FCA3E0FDE412031E752B02E4F50A
:10348E002C1234F07FD07E071238C9900046E070BF
:10349E0004A3E0641E60057F02121EA1E4FFFE7D00
:1034AE00807C3F900026E0F8A3E0F9A3E0FAA3E0C9
:1034BE00FB1202AC500312163F123BBC122FE91244
:1034CE0024A17F327E001238C9900006E0FCA3E0F2
:1034DE00FDA3E0FEA3E0FF752B02752C011234F064
:0234EE0080DA82
:103C7E005390DF5390EF4394205395DFE4F59A75FC
:0C3C8E009BA0759C01759D50759E042242
:103D0000C2AF75AA0575AA0A75A91FD2AF75AA0513
:073D100075AA0A75A91F2224
:103CB50075800C75904075A0117592F0E4F59375BB
:0A3CC50094BFF5957596EEF5972271
:0A3D69005392DF4393204380202291
:103D2D0075A88275B802E4F589F58A758C7F758E54
:053D3D00044388102280
:103B6500E4900137F0A3F075AB09E5AB20E208431B
:103B7500AB04E5AB20E2FBAFAC900137E4F0A3EF7B
:0C3B8500F053ABF7900137E0FEA3E0FF27
:013B91002211
:03000B0002360DAD
:10360D00C0E0C083C082C0D075D000C006C0079096
:10361D00011AE0FEA3E0FFD39400EE9400402EEFDC
:10362D0094C8EE94005026EF64014E700343901041
:10363D0090011BE004F0700690011AE004F0900177
:10364D001AE07004A3E064C870035390EF90011E5C
:10365D00E0FEA3E0FFD39400EE94004013EF9488B6
:10366D00EE9413500BE004F0700690011EE004F090
:10367D00758ACF758CB5438810D007D006D0D0D0C1
:06368D0082D083D0E03280
:1026430090010B7474F0A3E4F09001111209483D5A
:10265300F5C28FE4900115F0A3F090013974AAF04C
:1026630090013A7455F0E4FFFE7D707C41900111B6
:10267300E0F8A3E0F9A3E0FAA3E0FB1202AC400305
:102683000227CD900115E4F0A304F0900115E0FEBC
:10269300A3E0FFC3940BEE940050CBEF7802C33357
:1026A300CE33CED8F9FF90010CE02FFF90010BE061
:1026B3003EFEC006900111E0FCA3E0FDA3E0FEA3F3
:1026C300E0F5288E278D268C25D0061236FF900143
:1026D30015E0FEA3E07802C333CE33CED8F9FF90E2
:1026E300010CE02FFF90010BE03ECF24FCCF34FF21
:1026F300FE1239FA90010D12093C90010DE0FCA382
:10270300E0FDA3E0FEA3E0FF752B02752C0112345C
:10271300F0900115E0FEA3E07802C333CE33CED8A8
:10272300F9FF90010CE02FFF90010BE03EFE123900
:10273300FA90010D12093C90010DE0FCA3E0FDA30A
:10274300E0FEA3E0FF752B02E4F52C1234F09001B8
:1027530015E0FEA3E07802C333CE33CED8F9FF9061
:10276300010CE02FFF90010BE03ECF2404CF340097
:10277300FE1239FA90010D12093C90010DE0FCA301
:10278300E0FDA3E0FEA3E0FF752B02752C021234DB
:10279300F0900111E0FCA3E0FDA3E0FEA3E0FFE461
:1027A300FBFA7980783F12001590011112093C7FE2
:1027B300E87E031238C9900116E004F06003022694
:1027C3008E900115E004F002268EE4900139F0901A
:0627D300013AF0023BBCDC
:103B350025362E30660025352E30660025372E3188
:103B4500660025362E31660025372E32660025366D
:103B55002E32660025372E33660025362E33660055
:063D1700D2A1D2A2D2A34A
:0F3D1D00E49000BCF09000BCE004F0E0B405F6C8
:013D2C002274
:103B9200E49000BBF0EF20E704C2A38002D2A3C2EC
:103BA200A2123D1DD2A2123D1DEF25E0FF9000BBE7
:093BB200E004F0E0C3940840DCDB
:013BBB0022E7
:10391800123D17123D1DE49000F9F0A304F0FB12CC
:1039280031C774031231C174281231C19000FA747E
:10393800291231C49000F97401F07E007F107D00D7
:10394800FB7A0079FB1209BB78307C007D007B0193
:0E3958007A0079F97E007F121206C20231D881
:1031C1009000FAF07B0178307C007D007A0079F97B
:0731D1007E007F121206C20E
:1031D800E49000B9F0A3F0123D17C2A1123D1DC240
:1031E800A2123D1DD2A2123D1DC2A3C2A2123D1DB4
:1031F800D2A2123D1DE5307004C2A38002D2A3C240
:10320800A2123D1DD2A2123D1DE5307011AF311240
:103218003B92C2A2123D1DD2A2123D1D8058E490DD
:1032280000BAF09000B9F0C2A29000BAE020E7041A
:10323800C2A38002D2A3123D1DD2A2123D1D90004E
:10324800BAE025E0F09000B9E004F0E0C39406404D
:10325800D6E49000B9F09000B9E0FFC3941050167E
:10326800C3740F9FFF74322FF8E6FF123B92900051
:0F327800B9E004F080E0D2A1D2A3D2A2023D1DA2
:103AC5009000F97401F07E007F107D00FB7A00798B
:103AD500FB1209BB1231C5E49000F9F0A374021280
:103AE50031C4E49000FAF078307C00FD7B017A0067
:0B3AF50079F9FE7F121206C20231D8E0
:103BBC009000F97401F07E007F107D00FB7A007993
:103BCC00FB1209BB78307C007D007B017A0079F90F
:0A3BDC007E007F121206C20231D8EB
:103BE6009000F97401F07E007F107DFFFB7A00796A
:103BF600FB1209BB78307C007D007B017A0079F9E5
:0A3C06007E007F121206C20231D8C0
:103A4100E49000B9F0BD0101F0BD02069000B97427
:103A51000BF0ED70069000B97405F0C374059BFE80
:103A61009000B9E02EF0E0FE24FBF582E43400F58D
:103A710083E05480F074FB2EF582E43400F583E09A
:023A81004FF004
:013A83002220
:10332600AC07ED607224FE603A0460030233C1BC50
:10333600030F9000FCE0BB01054480F08003547F3E
:10334600F0BC020F9000FDE0BB01054480F0800355
:10335600547FF0EC640170639000FEE0BB010280D4
:10336600528055BC030F900107E0BB01054480F075
:103376008003547FF0BC020F900108E0BB010544B6
:1033860080F08003547FF0EC6401702F900109E017
:10339600BB0102801E8021BC020F900102E0BB012E
:1033A600054480F08003547FF0BC010F900103E0D8
:0E33B600BB01054480F08003547FF0023C9A76
:102EE800EF24FEB409004003022FE0902F0175F093
:102EF80003A4C58325F0C58373022F59022F4D0201
:102F08002F64022F6F022F7A022F29022F35022FEA
:102F180041022F1C900100E0BD0103022FAD022FDA
:102F2800DD900104E0BD0102807B022FDD900101EC
:102F3800E0BD0102806F022FDD900105E0BD0102B6
:102F48008063022FDD9000FFE0BD01028057022F51
:102F5800DD9000FBE0BD0102804B807990010AE022
:102F6800BD01028040806E900106E0BD01028035FF
:102F78008063ED64019001007030E04480F09001BE
:102F880004E04480F0900101E04480F0900105E005
:102F98004480F09000FBE04480F0900106E044801B
:102FA800F090010AE04480F0802EE0547FF0900118
:102FB80004E0547FF0900101E0547FF0900105E0B7
:102FC800547FF09000FBE0547FF0900106E0547FBE
:102FD800F090010AE0547FF09000F97401F0023C8F
:012FE8009A4E
:0920D3007533017534007535AD5B
:0820DC008F308E2F8D2E8C2D0C
:1020E4009000BB1209480000000A9000BFE532F0DE
:1020F400E4A3F0A3F0A3F0FFFEFDFCAB30AA2FA9EC
:102104002EA82D1202AC50209000C17401F0AF3003
:10211400AE2FAD2EAC2DE4FBFA798078BF12010608
:102124008F308E2F8D2E8C2D9000BFE0FF14F0EF9A
:10213400601F9000BBE0FCA3E0FDA3E0FEA3E0FF72
:10214400E47B0AFAF9F81207B79000BB12093C8045
:10215400D79000BBE0FCA3E0FDA3E0FEA3E0FFE416
:10216400120319AB30AA2FA92EA82D1201061203AF
:1021740057EF2405FFE43EFEE43DFDE43CFCE47B34
:102184000AFAF9F81208429000B712093CE47B0AF3
:10219400FAF9F89000B7E0FCA3E0FDA3E0FEA3E0A9
:1021A400FF120842EB2430FFAB33AA34A935900068
:1021B400C0E0FE04F08E82758300EF1207409000A9
:1021C400B7E0FCA3E0FDA3E0FEA3E0FFE47B0AFA92
:1021D400F9F81208429000B712093C9000C2E004DA
:1021E400F0D53217AB33AA34A9359000C0E0FF0410
:1021F400F08F82758300742E120740E4FFFEFDFC0D
:102204009000B7E0F8A3E0F9A3E0FAA3E0FBD3124F
:1022140008F840030221919000C0E07E0024FFF5FD
:1022240082EE34FFF583AB33AA34A935120701B427
:102234002E179000C0E0FF04F08F82758300743085
:102244001207409000C2E004F09000C1E06016ABB9
:1022540033AA34A9359000C0E0FF04F08F8275835F
:1022640000742D801D9000C2E0C39531501FAB3324
:10227400AA34A9359000C0E0FF04F08F8275830072
:1022840074201207409000C2E004F080D8AB33AA57
:1022940034A9359000C0E0F582758300E41207404C
:1022A400E49000BF803D9000C0E0FF9000BFE0FEDE
:1022B400C39F5036AB33AA34A9358E82758300127E
:1022C4000701F5328F827583001207018E827583B0
:1022D400001207408F82758300E532120740900098
:0A22E400BFE004F0A3E014F080BC9A
:0122EE0022CD
:0834F0008F2A8E298D288C27FC
:1034F800E52B701AE52C7005753105800CAF2AAEE6
:1035080029AD28AC27753104E4F5321220D3E52B18
:103518006401701AE52CAF2AAE29AD28AC277005D6
:1035280075310680037531057532011220D3E52BFC
:103538006402701AE52CAF2AAE29AD28AC277005B5
:1035480075310680037531057532021220D3E52BDB
:103558006403701AE52CAF2AAE29AD28AC27700594
:1035680075310680037531057532031220D37B014E
:093578007A0079ADAD2C022DDDC5
:0830DC008F0B8E0A8D098C0890
:1030E400E50C7035E50D70137545FF75463B754766
:1030F400358F4B8E4A8D498C4880157545FF754632
:103104003B75473B850B4B850A4A85094985084829
:103114007B017A017922120A43E50C6401702DE5E2
:103124000D700B7545FF75463B7547418009754524
:10313400FF75463B754747850B4B850A4A85094908
:103144008508487B017A017922120A43E50C64025E
:10315400702DE50D700B7545FF75463B75474D8029
:10316400097545FF75463B754753850B4B850A4AE0
:103174008509498508487B017A017922120A43E5C9
:103184000C6403702DE50D700B7545FF75463B759A
:10319400475980097545FF75463B75475F850B4B5D
:1031A400850A4A8509498508487B017A01792212F2
:0D31B4000A437B017A017922AD0D022DDD69
:1027D900BF30037F5F22BF31037F5022BF32037FA7
:1027E9003D22BF33037F7922BF34037F7222BF3575
:1027F900037F6B22BF36037F6F22BF37037F5122CE
:10280900BF38037F7F22BF39037F7322EF64616082
:1028190003BF41037F7722EF64626003BF42037FF6
:102829006E22EF64636003BF43037F0F22EF64648A
:102839006003BF44037F7C22EF64656003BF4503E7
:102849007F2F22EF64666003BF46037F2722EF6470
:10285900676003BF47037F6F22EF64686003BF4867
:10286900037F7622EF64696003BF49037F5022EF3B
:10287900646A6003BF4A037F5C22EF646B6003BF35
:102889004B037F3622EF646C6003BF4C037F0E223B
:10289900EF646D6003BF4D037F0022EF646E600338
:1028A900BF4E037F6422EF646F6003BF4F037F5FF6
:1028B90022EF64706003BF50037F3722EF647160B9
:1028C90003BF51037F7322EF64726003BF52037F1A
:1028D9002422EF64736003BF53037F6B22EF647498
:1028E9006003BF54037F2E22EF64756003BF550355
:1028F9007F5E22EF64766003BF56037F4C22EF644C
:10290900776003BF57037F0022EF64786003BF58E5
:10291900037F0022EF64796003BF59037F7222EFBE
:10292900647A6003BF5A037F3D22EF642D6003BFC1
:0B2939005F037F2022BF20027F0022EE
:082DDD008B2D8A2E892FAC0515
:102DE5009000B77405F0E4A3F0EC700C900102E0DC
:102DF500547FF0A3E0547FF0BC0211900107E0542A
:102E05007FF0A3E0547FF0A3E0547FF0BC01119064
:102E150000FCE0547FF0A3E0547FF0A3E0547FF082
:102E2500AB2DAA2EA92F1206E8FF7003022EDF6430
:102E35002E600F1227D9AD049000B7E0FB14F012F5
:102E45003A41AB2DAA2EA92F1206E8642E7077EC15
:102E5500640270289000B8E0FFB40207900107E013
:102E65004480F0EFB40307900108E04480F090003F
:102E7500B8E0B40407900109E04480F0EC64017007
:102E8500289000B8E0FFB402079000FCE04480F011
:102E9500EFB403079000FDE04480F09000B8E0B483
:102EA50004079000FEE04480F0EC701A9000B8E052
:102EB500FFB40407900103E04480F0EFB4030790EA
:102EC5000102E04480F09000B8E004F07401252F81
:102ED500F52FE4352EF52E022E259000F97401F01C
:032EE500023C9A12
:103C9A009000F97401F078307C007D00FB7A00799D
:0B3CAA00F97E007F121206C20231D822
:0437CE00410118009D
:102FE900E490009BF0900117F090009BF090009BFB
:102FF900E0FFC39405507AD281D280D290D291D287
:1030090092EF7002C281EFB40102C280EFB40202F2
:10301900C290EFB40302C291EFB40402C2927F01DD
:103029007E001238C920820D90009BE025E025E042
:1030390004900117F020A40E90009BE025E025E004
:103049002402900117F020A00E90009BE025E025B6
:10305900E02403900117F020960E90009BE025E0F4
:1030690025E02404900117F090009BE004F0022F62
:10307900F6900119E0FF700C900117E06006A37447
:1030890001F08031900117E0FEB50709EE6006A353
:103099007402F08020900119E0600C900117E07033
:1030A90006A37403F0800E900119E07008900117CF
:1030B900E07002A3F0900117E0900119F0600A9006
:1030C9000118E0B40103123D7375AA0575AA0A75C2
:0230D900A91F2D
:0130DB0022D2
:093D730090011AE4F0A304F0220F
:013D9100220F
:030008007F002254
:103C6100E490009BF0F0123D737FFA7E001238C998
:0C3C710090009BE004F0E0C3940340EAE4
:013C7D002224
:1038C900E49000B1F0A3F0C39000B2E09F9000B182
:1038D900E09E503A75AA0575AA0A75A91FE49000D9
:1038E900B3F0A3F09000B4E004F070069000B3E0E8
:1038F90004F09000B3E07004A3E064C870E690009F
:0E390900B2E004F070C19000B1E004F080B9AB
:01391700228D
:103CE80000000000000000000000000000000000CC
:083CF8000000000000000000C4
:1037D2004400D8000000004200E300004200E10083
:1037E200005400E50000000000000000000000009E
:1037F20000000000000000004400DC000000004463
:0A38020000D4000000004100E000C7
:080E56008F2B8E2A8D298C28B8
:100E5E0078B17C007D017BFF7A3C79E87E007F14BF
:100E6E001206C2E4FFFEFD7C3F900026E0F8A3E0F0
:100E7E00F9A3E0FAA3E0FB1201069000C512093CAB
:100E8E009000C912094800000000AF2BAE2AAD2910
:100E9E00AC28E41203199000CD12093C9000D174D5
:100EAE0005F0E4A3F0A3F0752D00752EE59000C5B6
:100EBE00E0FCA3E0FDA3E0FEA3E0FF9000D4E0F889
:100ECE00A3E0F9A3E0FAA3E0FB1200159000CDE039
:100EDE00F8A3E0F9A3E0FAA3E0FB1202AC60025023
:100EEE00329000C5E0F8A3E0F9A3E0FAA3E0FB908E
:100EFE0000D4E0FCA3E0FDA3E0FEA3E0FF1200118E
:100F0E009000CDE0F8A3E0F9A3E0FAA3E0FB120213
:100F1E00AC5050E52C704C9000E0E0FF04F0EFD3A5
:100F2E009402403CE4F09000D2F09000D1E014FF27
:100F3E00A3E0F9C39F40030210679000CDE0FCA32D
:100F4E00E0FDA3E0FEA3E0FF852E82852D8375F0E4
:100F5E0004E912097912093C9000D2E004F080CA2B
:100F6E00021275E52C640170469000E0F09000D2FC
:100F7E00F09000D1E014FFA3E0C39F40030210677E
:100F8E00AF2BAE2AAD29AC28E4120319852E82852B
:100F9E002D83C083C0829000D2E0D082D08375F0C2
:100FAE000412097912093C9000D2E004F080C2E5E7
:100FBE002C640270519000D2F09000D1E014FFA387
:100FCE00E0F9C39F4003021067E92401FFE433FEFA
:100FDE00EF7802C333CE33CED8F9252EF582E52D28
:100FEE003EF583E0FCA3E0FDA3E0FEA3E0FF852E2B
:100FFE0082852D8375F004E912097912093C90005F
:10100E00D2E004F080B3E49000E0F09000D2F090D3
:10101E0000D1E014FFA3E0F9C39F503DE92401FF86
:10102E00E433FEEF7802C333CE33CED8F9252EF556
:10103E0082E52D3EF583E0FCA3E0FDA3E0FEA3E0F8
:10104E00FF852E82852D8375F004E9120979120928
:10105E003C9000D2E004F080B69000CDE0FCA3E01E
:10106E00FDA3E0FEA3E0FFC004C005C006C007A3B9
:10107E00E024FFFFE434FFFEEF7802C333CE33CE1D
:10108E00D8F9252EF582E52D3EF583D007D006D072
:10109E0005D00412093CE49000D2F09000D1E0FF9C
:1010AE00A3E0FBC39F5031852E82852D8375F004FE
:1010BE00EB120979E0FCA3E0FDA3E0FEA3E0FFEB59
:1010CE0025E025E024B1F582E43400F58312093CD5
:1010DE009000D2E004F080C3E49000D2F09000D1F2
:1010EE00E014FFA3E0FEC39F40030211CEEE04A363
:1010FE00F09000D1E0FF9000D3E0FEC39F400302CA
:10110E0011C59000D2E025E025E024B1F582E4344B
:10111E0000F583E0F8A3E0F9A3E0FAA3E0FBEE25E7
:10112E00E025E024B1F582E43400F583E0FCA3E091
:10113E00FDA3E0FEA3E0FF1202AC607240709000CF
:10114E00D3E0FB25E025E024B1F582E43400F583FD
:10115E00E0FCA3E0FDA3E0FEA3E0FF9000C91209AE
:10116E003C9000D2E0FA25E025E024B1F582E4348B
:10117E0000F583E0FCA3E0FDA3E0FEA3E0FFEB257A
:10118E00E025E024B1F582E43400F58312093C90A9
:10119E0000C9E0FCA3E0FDA3E0FEA3E0FFEA25E02A
:1011AE0025E024B1F582E43400F58312093C900069
:1011BE00D3E004F00210FF9000D2E004F00210EB36
:1011CE009000D4120948000000009000D27401F083
:1011DE009000D1E014FFA3E0FEC39F50389000D4DE
:1011EE00E0F8A3E0F9A3E0FAA3E0FBEE25E025E0AA
:1011FE0024B1F582E43400F583E0FCA3E0FDA3E026
:10120E00FEA3E0FF1200159000D412093C9000D20C
:10121E00E004F080BB9000D4E0FCA3E0FDA3E0FE70
:10122E00A3E0FFC004C005C006C0079000D1E024B3
:10123E00FEFDE434FFFCE412031EA804A905AA0671
:10124E00AB07D007D006D005D00412020F9000D401
:10125E0012093C9000D4E0FCA3E0FDA3E0FEA3E065
:10126E00FF9000DC12093C9000D4E0FCA3E0FDA34B
:05127E00E0FEA3E0FF0B
:011283002248
:022A79008F27A5
:102A7B009000AD12094800000000308342E47FFA59
:102A8B00FEFDFC9000ADE0F8A3E0F9A3E0FAA3E0B3
:102A9B00FBC31208F850287F017E001238C9900042
:102AAB00ADE0FCA3E0FDA3E0FEA3E02401FFE43EC8
:102ABB00FEE43DFDE43CFC9000AD12093C80BB30D4
:102ACB008303022B941232879000AD12093C9000C5
:102ADB00ADE0FCA3E0FDA3E0FEA3E0FF7807120945
:102AEB00099000AD12093CE47FFF7EFFFDFC9000D6
:102AFB00ADE0F8A3E0F9A3E0FAA3E0FBC31208F8FA
:102B0B00606DE47FFF7EFFFDFC9000ADE0F8A3E07D
:102B1B00F9A3E0FAA3E0FBD31208F89000ADE04074
:102B2B0032F8E49BFFE49AFE740299FDE498FC9062
:102B3B0000AD12093C9000ADE0F8A3E0F9A3E0FA78
:102B4B00A3E0FBC374F49BFF747E9AFEE499FDE44F
:102B5B00988015FCA3E0FDA3E0FEA3E024F4FFEEB8
:102B6B00347EFEE43DFDE43CFC9000AD12093C904C
:102B7B0000ADE0FCA3E0FDA3E0FEA3E0FF85272C66
:102B8B00120E569000D812093C9000D8E0FCA3E03E
:072B9B00FDA3E0FEA3E0FF33
:012BA2002210
:1032870078B37C007D017BFF7A3C79FC7E007F046C
:103297001206C27DB37C00308303023325E490001D
:1032A700B1F0A3F09000B1E0FEA3E0FFC39418EEE5
:1032B70094005041D284EF7803CEC313CE13D8F9CC
:1032C700FF24B4F58274003EF583E0FB25E0F0C2ED
:1032D7008474B42FF58274003EF583E0FFA283E483
:1032E70033FEEF4EF09000B2E004F070B79000B1FB
:1032F700E004F080AFD2849000B1E0FEA3E078054F
:10330700C333CE33CED8F9F0EE9000B1F0C2848D3E
:0E331700828C83E0FCA3E0FDA3E0FEA3E0FFB8
:013325002285
:103D56009000ACE4F0A304F0E025E0F09000ACE0C5
:023D660033F038
:013D68002238
:073D4200E42FFFEE3468FEE0
:0C3D49008F828E83E4939000ABF0E0FFCB
:013D5500224B
:043A8400AD07AC06D8
:103A88007527007528A6E49000A8F00DEDAE047027
:103A9800010C14FF123D490528E528AA27700205E4
:103AA8002714F5828A83EFF09000A8E004F0E0C3C1
:0C3AB800940240D79000A6E0FEA3E0FFBF
:013AC40022DF
:0439B300AD07AC06AA
:1039B700752900752AA4E49000A8F00DEDAE0470F7
:1039C700010C14FF123D49052AE52AAA29700205B0
:1039D7002914F5828A83EFF09000A8E004F0E0C391
:1039E700940440D79000A4E0FCA3E0FDA3E0FEA36D
:0239F700E0FFEF
:0139F90022AB
:0439FA00AD07AC0663
:1039FE0075220075238BE490008FF00DEDAE0470F0
:103A0E00010C14FF123D490523E523AA227002057D
:103A1E002214F5828A83EFF090008FE004F0E0C369
:103A2E00940440D790008BE0FCA3E0FDA3E0FEA33E
:023A3E00E0FFA7
:013A40002263
:07376B0014F5828C83E0FDE0
:10377200E49000ABF075AA0575AA0A75A91F8E2BF5
:103782008F2CA2AF9209C2AF852BC3852CC28DC1EB
:10379200F5C4F5C5F5C6900139E0B4AA08A3E0B4B2
:1037A200550375C703123D5675C40575C50A75C61E
:1037B20009900139E0B4AA08A3E0B4550375C70320
:0B37C200E4F5C4F5C5F5C6A20992AFFE
:0137CD0022D9
:063C10008E238F248D2598
:103C1600E490009BF0123D4990009BEFF0F4600B9E
:103C26007D017C00AF24AE23122BA3AD25AF24AEBD
:043C360023023772BC
:083827008E238F248C258D26D1
:10382F00123A8490009CEEF0A3EFF0F47002EEF4E5
:10383F00600B7D027C00AF24AE23122BA37B257A75
:10384F0000E490009BF00524E524AE2370020523CD
:10385F0014FF0BEBAC0270010A12376B90009BE068
:08386F0004F0E0C3940240DE06
:01387700222E
:043693008E0E8F0FF9
:1036970090012B12094800000000AF0FAE0E12393F
:1036A700B390012B12093C74FFFFFEFDFC90012B28
:1036B700E0F8A3E0F9A3E0FAA3E0FBC31208F8607F
:1036C7000B7D047C00AF0FAE0E122BA37B107A008C
:1036D700E490012AF0050FE50FAE0E7002050E14F7
:1036E700FF0BEBAC0270010A12376B90012AE00462
:0736F700F0E0C3940440DE83
:0136FE0022A9
:0436FF008E238F2463
:103703009000A012094800000000AF24AE23123934
:10371300B39000A012093C74FFFFFEFDFC9000A0D3
:10372300E0F8A3E0F9A3E0FAA3E0FBC31208F86012
:103733000B7D047C00AF24AE23122BA37B257A00E0
:10374300E490009BF00524E524AE237002052314C6
:10375300FF0BEBAC0270010A12376B90009BE00485
:07376300F0E0C3940440DE16
:01376A00223C
:10387800E49000ABF08E2B8F2CA2AF9209C2AF85DB
:103888002BC3852CC2F5C4F5C5F5C6900139E0B443
:10389800AA08A3E0B4550375C703123D5675C405BD
:1038A80075C50A75C609900139E0B4AA08A3E0B441
:1038B800550375C70CE4F5C4F5C5F5C6A20992AF62
:0138C80022DD
:082BA3008C298D2AAB07AA065C
:102BAB00E49000A6F0A3F0A3F0EA1313543FFFA3A5
:102BBB00E4F0A3EFF0E0F8E4F0E825E025E0900086
:102BCB00A9F0E49000A7F0A3F09000A7E0FEA3E02B
:102BDB00FFC3940AEE9400501E123D42EFF46007BF
:102BEB007F007E681238789000A8E004F070DA90CD
:102BFB0000A7E004F080D2E49000A7F0A3F09000CF
:102C0B00A7E0FEA3E0FFC3EE9404505CA3E0FCA39B
:102C1B00E0FDEF2DFFEE3CFEEFB50312EEB5020E1D
:102C2B009000A8E0252AF09000A7E03529F090004D
:102C3B00A7E0FEA3E0FF9000AAE02FFF9000A9E021
:102C4B003EFE123D49AD079000A8E02400FF900026
:102C5B00A7E03468FE1237729000A8E004F0709E73
:102C6B009000A7E004F080969000A9E0FEA3E0FF9F
:102C7B00123878E49000A7F0A3F09000A7E0FEA331
:102C8B00E0FFC3EE9404502C123D42AD079000A719
:102C9B00E0FEA3E0FF9000AAE02FFF9000A9E03E2A
:102CAB00FE1237729000A8E004F070CE9000A7E0FF
:0B2CBB0004F080C67F007E68023878BD
:1039660030303030300030303030303000202020E1
:10397600554E00535441424C450050524553530056
:103986005245462030004300204C4F41440043201E
:10399600202000464143544F0052002020454E440B
:0D39A60000534156454400202D452D2000C2
:10380C0044000600000000440000000000004400DA
:0A381C007D000000004200040000DF
:1022EF007F017E6C1239FA90002212093C7F057E25
:1022FF006C1239FA90001E12093C7F097E6C12395C
:10230F00FA90002612093C900016120948000000AE
:10231F00007F347E6C123D4990005BEFF07F0D7EA5
:10232F006C123D4990005CEFF07F0E7E6C123D49C0
:10233F0090005DEFF07F0F7E6C123A84900046EEB6
:10234F00F0A3EFF07F117E6C123A84900049EEF00B
:10235F00A3EFF07F137E6C123A8490004BEEF0A344
:10236F00EFF07F327E6C123A8490004DEEF0A3EFC7
:10237F00F07F357E6C123A8490004FEEF0A3EFF0B1
:10238F007F157E6C123D4990005EEFF07F167E6CDC
:10239F00123D4990005FEFF07F1E7E6C123D499019
:1023AF00007CEFF090005FE090006170057405F025
:1023BF0080037401F07F177E6C123D49900060EF2F
:1023CF00F090006270057405F080037401F07F18BF
:1023DF007E6C123D49900063EFF0E4900065F07F52
:1023EF001B7E6C123D49900066EFF07F1C7E6C12D5
:1023FF003D49900067EFF07F1D7E6C123D499000C4
:10240F0068EFF07F007E70123A84900055EEF0A3D3
:10241F00EFF07F027E70123A84900057EEF0A3EF38
:10242F00F07F1F7E6C123D4990006BEFF07F207E96
:10243F006C123D4990006DEFF07F227E6C123D498A
:10244F0090007AEFF07F047E70123A84900059EE7C
:10245F00F0A3EFF07F067E701239FA900032120966
:10246F003C7F237E6C123D49900048EFF07F317E18
:10247F006C123D49900079EFF07F0A7E70123D4952
:10248F00900089EFF07F0B7E701239FA90003E02B8
:02249F00093CF6
:101C050090013974AAF090013A7455F0EF120995D4
:101C15001CA0001C34011E6D021E0E061DF50A1CBB
:101C2500930B1DE30C1E360D1E8B0F00001E977DBA
:101C3500017F007E6C123C10900022E0FCA3E0FDC9
:101C4500A3E0FEA3E0F5288E278D268C257F017E57
:101C55006C1236FF90001EE0FCA3E0FDA3E0FEA39E
:101C6500E0F5288E278D268C257F057E6C1236FFA4
:101C7500900026E0FCA3E0FDA3E0FEA3E0F5288E9E
:101C8500278D268C257F097E6C1236FF80009000FB
:101C950055E0FCA3E0FD7F00021DED90005CE0FD3A
:101CA5007F0D7E6C123C1090005DE0FD7F0E7E6C1A
:101CB500123C10900046E0FCA3E0FD7F0F7E6C1205
:101CC5003827900049E0FCA3E0FD7F117E6C1238B7
:101CD5002790004BE0FCA3E0FD7F137E6C123827B4
:101CE50090004DE0FCA3E0FD7F327E6C123827901A
:101CF500004FE0FCA3E0FD7F357E6C123827900095
:101D05005EE0FD7F157E6C123C1090005FE0FD7F6C
:101D1500167E6C123C10900063E0FD7F187E6C12FD
:101D25003C10900065E0FD7F197E6C123C10900020
:101D350066E0FD7F1B7E6C123C10900067E0FD7F26
:101D45001C7E6C123C10900068E0FD7F1D7E6C12BD
:101D55003C1090006BE0FD7F1F7E6C123C109000E4
:101D650057E0FCA3E0FD7F027E7012382790006DDE
:101D7500E0FD7F207E6C123C1090007AE0FD7F2212
:101D85007E6C123C10900059E0FCA3E0FD7F047EC0
:101D950070123827900032E0FCA3E0FDA3E0FEA31B
:101DA500E0F5288E278D268C257F067E701236FF5E
:101DB500900048E0FD7F237E6C123C10900079E096
:101DC500FD7F317E6C123C10900089E0FD7F0A7E1C
:101DD50070123C1090005BE0FD7F34021E92900073
:101DE50057E0FCA3E0FD7F027E70123827021E97A4
:101DF50090001EE0FCA3E0FDA3E0FEA3E0F5288E25
:101E0500278D268C257F05805B900059E0FCA3E09B
:101E1500FD7F047E70123827900032E0FCA3E0FDC0
:101E2500A3E0FEA3E0F5288E278D268C257F06806E
:101E35004E900036E0FCA3E0FDA3E0FEA3E0F5280C
:101E45008E278D268C257F297E6C1236FF90003AD1
:101E5500E0FCA3E0FDA3E0FEA3E0F5288E278D2698
:101E65008C257F2D7E6C801990003EE0FCA3E0FD63
:101E7500A3E0FEA3E0F5288E278D268C257F0B7E1B
:101E8500701236FF800C90007CE0FD7F1E7E6C1288
:0C1E95003C10E4900139F090013AF0227A
:06195700E4FB7D017F05A9
:06195D008F228D238B2474
:10196300E490009BF0A3F0FCFDFEA312093C900061
:10197300A1120948000000009000A51209480000C8
:10198300000090006DE0FCE41203239000A912090B
:101993003CE4F525F52690009CF0E52470037402E1
:1019A300F0AF24122A799000A512093CAF24122A21
:1019B300799000A512093CAF24122A799000A51250
:1019C300093CAF24122A799000A512093C74FFFF49
:1019D300FEFDFC90009DE0F8A3E0F9A3E0FAA3E08C
:1019E300FBD31208E25003021BF0120008E5236444
:1019F300016003021A9F90009DE0FCA3E0FDA3E0B9
:101A0300FEA3E0FFEC4D4E4F70237BFF7A397966DE
:101A13007D01122DDD7BFF7A3979667D02122DDD82
:101A23007BFF7A39796CE4FD122DDD806FE47F67EB
:101A33007E2BFDFC90009DE0F8A3E0F9A3E0FAA360
:101A4300E0FB1207B7EC120319E4F52B752C011216
:101A530034F0E47F677E2BFDFC90009DE0F8A3E06B
:101A6300F9A3E0FAA3E0FB1207B7EC120319E4F5BC
:101A73002B752C021234F07F077EB27D017C00901F
:101A8300009DE0F8A3E0F9A3E0FAA3E0FB1207B797
:101A9300EC120319E4F52BF52C1234F0AF24122ABF
:101AA300799000A112093C9000A9E0F8A3E0F9A302
:101AB300E0FAA3E0FB9000A5E0FCA3E0FDA3E0FEB9
:101AC300A3E0FF1200119000A1E0F8A3E0F9A3E066
:101AD300FAA3E0FB1202AC40749000A9E0FCA3E07F
:101AE300FDA3E0FEA3E0FF9000A5E0F8A3E0F9A3C7
:101AF300E0FAA3E0FB1200159000A1E0F8A3E0F9DF
:101B0300A3E0FAA3E0FB1202AC6002504090009BFA
:101B1300E004F0A3E0FF90009BE0D39F5003021981
:101B2300D090009DE0FCA3E0FDA3E0FEA3E0FFEF67
:101B330024FFFFEE34FFFEED34FFFDEC34FFFC9099
:101B4300009D12093CE490009BF00219D0E5236448
:101B530001706C123BBC7BFF7A3979737D02122DC5
:101B6300DD7BFF7A397979E4FD122DDD90009D123A
:101B7300094800000000E47FF47E01FDFC90009D15
:101B8300E0F8A3E0F9A3E0FAA3E0FBC31208E250F4
:101B93002E7F017E001238C990009DE0FCA3E0FD7A
:101BA300A3E0FEA3E0FFE4FAF9F8EF2401FFEA3E25
:101BB300FEE93DFDE83CFC90009D12093C80B7E442
:101BC30090009BF0AF22FCFDFE90009D12093CAFFC
:101BD30024122A799000A512093CE5247003021906
:101BE300D0E4900088F0FFFE7DC87CC2229000887C
:101BF3007401F09000A5E0FCA3E0FDA3E0FEA3E0E8
:011C0300FFE1
:011C040022BD
:033D8E007F002291
:093D7C008F178E168D158C142290
:103B000090012F120948000000007B01E4FD7F01B5
:103B100012195D90012F12093C900088E0B4011445
:103B200090012FE0FCA3E0FDA3E0FEA3E0FF9000E6
:043B30002A12093C10
:013B3400226E
:093D85008F258E248D238C22224F
:10163F0090008B1209480000000090008F1209489B
:10164F000000000090009312094800000000900075
:10165F009712094800000000900056E004F0700651
:10166F00900055E004F07F01121C05123BBC7BFF7C
:10167F007A3979807D01122DDD7BFF7A397986E405
:10168F00FD122DDD7BFF7A39798C7D02122DDDE481
:10169F00900117F0900117E0640C6005122FE9809C
:1016AF00F3E4900117F0900117E0B40C05122FE945
:1016BF0080F47FE87E031238C912195790001E126A
:1016CF00093C90001EE0FCA3E0FDA3E0FEA3E0FFB9
:1016DF0090008F12093C123BBC7BFF7A3979807DD9
:1016EF0001122DDD7BFF7A39798EE4FD122DDD7B22
:1016FF00FF7A3979947D02122DDDE4900117F09075
:10170F000117E0640C6005122FE980F3121957904E
:10171F00002212093C900022E0FCA3E0FDA3E0FEB2
:10172F00A3E0FF90009312093C90008FE0F8A3E034
:10173F00F9A3E0FAA3E0FBA3E0FCA3E0FDA3E0FE26
:10174F00A3E0FF12001190009712093C900097E060
:10175F00F8A3E0F9A3E0FAA3E0FBC000C001C002C8
:10176F00C003900049E0FCA3E0FD7E007F641207F8
:10177F0062AC06AD07E412031ED003D002D001D035
:10178F000012010690009712093C900022E0FCA382
:10179F00E0FDA3E0FEA3E0FF90001EE0F8A3E0F958
:1017AF00A3E0FAA3E0FB12001190002212093C9073
:1017BF000022E0F8A3E0F9A3E0FAA3E0FBC000C029
:1017CF0001C002C003900049E0FCA3E0FD7E007F52
:1017DF0064120762AC06AD07E412031ED003D002F9
:1017EF00D001D00012010690002212093C90002275
:1017FF00E0FCA3E0FDA3E0FEA3E0FFA312093C90F1
:10180F000046E0FCA3E0FDE412031E90008B1209DA
:10181F003C90008BE0F8A3E0F9A3E0FAA3E0FBC053
:10182F0000C001C002C003900048E0FCE412032393
:10183F008F2D8E2C8D2B8C2A7F007E007D207C415E
:10184F00122CC6D003D002D001D000120106900096
:10185F008B12093C90008BE0FCA3E0FDA3E0FEA3FC
:10186F00E0FFC004C005C006C00790004BE0FCA31A
:10187F00E0FDE412031EA804A905AA06AB07D007D2
:10188F00D006D005D00412020F90008B12093C90A5
:10189F000026E0FCA3E0FDA3E0FEA3E0FF90008B99
:1018AF00E0F8A3E0F9A3E0FAA3E0FB12020F900027
:1018BF002612093CE4FFFEFDFC900022E0F8A3E0B5
:1018CF00F9A3E0FAA3E0FB1202AC501E900022E055
:1018DF00FCA3E0FDA3E0FEA3E0FFE4FBFA79807830
:1018EF00BF12010690002212093C123BBC7BFF7A0B
:1018FF003979997D01122DDD900026E0FCA3E0FDE2
:10190F00A3E0FEA3E0FF752B02E4F52C1234F07B6D
:10191F00FF7A39799FE4FD122DDD7B01E4FD7F0213
:10192F001233267BFF7A3979A17D02122DDD7F01DB
:10193F00121C057F0D121C05123C61123C617F8841
:08194F007E131238C9023BBCF3
:021EA1008F228E
:101EA300E490008BF0123BBC90005B7401F0A3F054
:101EB300E5227009900046F0A3740F802BE522B44D
:101EC300010A900046E4F0A37414801CE522B402D6
:101ED3000A900046E4F0A3741E8063E522B4052053
:101EE300900046E4F0A3741EF090004BE4F0A3745A
:101EF30005F0A3E4F0A37402F0A3E4F0A3048029A3
:101F0300E522B4062C900046E4F0A3741EF0900082
:101F13004BE4F0A37402F0A3E4F0A37402F0A3E48F
:101F2300F0A37402F0E490005BF090004874038027
:101F330029E522B40339900046E4F0A37428F09015
:101F4300004BE4F0A3740AF0A3E4F0A37405F0A338
:101F5300E4F0A37402F090004804F090005D740173
:101F6300F0FDE4FF122EE890007A7401F08034E56E
:101F730022B4042F900046E4F0A3743CF090004B8D
:101F8300E4F0A37402F0900048F0E490005DF09058
:101F9300005CF07D017F01122EE8E490007AF0905E
:101FA300005BF0900046E0FCA3E0FDE412031E900A
:101FB3000048E0F52B752C011234F0900049E4F051
:101FC300A37464F090005E7402F0A314F0900063B5
:101FD3007403F0E4900062F090006504F0A3F0A3B2
:101FE300F090006BF0E4A3F0A37405F0E4900059C3
:101FF300F0A3F090003212094800000000E49000C2
:1020030079F090006AF09000361209480000000051
:1020130090003A120948000000009000221209487B
:102023000000000090001E1209480000000090000C
:1020330026120948000000009000897401F0900006
:102043003E12094800000000E4900055F0A3F0A3FD
:10205300F0A3F090011EF0A304F08017900117E0A5
:1020630064086014C390011FE0948890011EE094FB
:10207300135005122FE980E4C390011FE094889068
:10208300011EE09413400280437F0D121C057F0163
:10209300121C057F02121C05E4FF121C057BFF7A4C
:1020A3003979A77D02122DDD123C61123C61801744
:1020B300900117E064086014C390011FE0948890B6
:0F20C300011EE094135005122FE980E4123BBC7C
:0120D20022EB
:050003008F187F0022B0
:013D9200220E
:013D9300220D
:1024A100E490008BF0A3F0900082E090008C600536
:1024B1007403F080037401F0E490008BF090008CC1
:1024C100E0FF90008BE0FEC3EF6480F8EE6480983B
:1024D10050137F01122A7990000612093C90008B5B
:1024E100E004F080D8900087E064016007900086E6
:1024F100E0B4010B7BFF7A3979AD7D01022DDD90CE
:102501000065E0B40117900081E07011900006E0D1
:10251100FCA3E0FDA3E0FEA3E0FF123D85900006D1
:10252100E0FCA3E0FDA3E0FEA3E0FF90000E120992
:102531003C900006E0FCA3E0FDA3E0FEA3E0FF90D9
:10254100007D12093C900006E0FCA3E0FDA3E0FE43
:10255100A3E0FF90002AE0F8A3E0F9A3E0FAA3E0EA
:10256100FB12001190000612093C900006E0FCA34A
:10257100E0FDA3E0FEA3E0FF90001A12093C9000E9
:1025810085E0B4010590000E8050900081E0B40117
:1025910046900006E0FCA3E0FDA3E0FEA3E0FF906F
:1025A100007D12093C900006E0FCA3E0FDA3E0FEE3
:1025B100A3E0FF900016E0F8A3E0F9A3E0FAA3E09E
:1025C100FB12001190000612093C900083E0700795
:1025D1007D017F03122EE8900006E0FCA3E0FDA33D
:1025E100E0FEA3E0FF12128490000612093CE4FF12
:1025F100FEFDFC900006E0F8A3E0F9A3E0FAA3E0F9
:10260100FB1202AC500D900085E07007900084042D
:10261100F0801CE4FFFEFDFC900006E0F8A3E0F969
:10262100A3E0FAA3E0FB1202AC7004900084F090E6
:102631000006E0FCA3E0FDA3E0FEA3E0FFA3120976
:012641003C5C
:012642002275
:081284008F258E248D238C229E
:10128C0090008D120948000000009000911209484E
:10129C00000000009000951209480000000090002A
:1012AC00991209480000000090009D1209480000A6
:1012BC000000E49000A1F0FFFEFDFCAB25AA24A9E0
:1012CC0023A8221202AC50209000A17401F0AF258B
:1012DC00AE24AD23AC22E4FBFA798078BF12010670
:1012EC008F258E248D238C2290005BE07052900011
:1012FC0048E0FCE41203238F2D8E2C8D2B8C2A7F3F
:10130C00007E007D207C41122CC6C004C005C006A6
:10131C00C00790004BE0FCA3E0FDE412031ED003D9
:10132C00D002D001D00012020F90009D12093C9007
:10133C000026E0F8A3E0F9A3E0FAA3E0FB021532E3
:10134C007FCD7ECC7DCC7C3D900022E0F8A3E0F9F3
:10135C00A3E0FAA3E0FB120106AB25AA24A923A85B
:10136C00221202AC6005400302141D90008D12097C
:10137C00480000000090004BE0FCA3E0FDE41203E9
:10138C001EC004C005C006C00790004FE0FCA3E0DF
:10139C00FDE412031ED003D002D001D00012020FC4
:1013AC0090008D12093C900048E0FCE41203238F5E
:1013BC002D8E2C8D2B8C2A7F007E007D207C411263
:1013CC002CC6C004C005C006C00790004FE0FCA3AB
:1013DC00E0FDE412031ED003D002D001D0001202B3
:1013EC000F90009D12093C90008DE0FCA3E0FDA342
:1013FC00E0FEA3E0FF900026E0F8A3E0F9A3E0FAFA
:10140C00A3E0FB120106A804A905AA06AB07021566
:10141C00327FCD7ECC7D4C7C3E900022E0F8A3E068
:10142C00F9A3E0FAA3E0FB120106AB25AA24A92339
:10143C00A8221202AC600540030214E390004BE0BA
:10144C00FCA3E0FDE412031EC004C005C006C007E7
:10145C0090004DE0FCA3E0FDE412031ED003D0028B
:10146C00D001D00012020F90008D12093C90004860
:10147C00E0FCE41203238F2D8E2C8D2B8C2A7F0005
:10148C007E007D207C41122CC6C004C005C006C065
:10149C000790004DE0FCA3E0FDE412031ED003D046
:1014AC0002D001D00012020F90009D12093C900056
:1014BC008DE0FCA3E0FDA3E0FEA3E0FF900026E09E
:1014CC00F8A3E0F9A3E0FAA3E0FB120106A804A933
:1014DC0005AA06AB07804F900048E0FCE4120323FA
:1014EC008F2D8E2C8D2B8C2A7F007E007D207C41B5
:1014FC00122CC6C004C005C006C00790004BE0FC0F
:10150C00A3E0FDE412031ED003D002D001D00012E0
:10151C00020F90009D12093C900026E0F8A3E0F920
:10152C00A3E0FAA3E0FBAF25AE24AD23AC2212025C
:10153C000F90009512093C900095E0FCA3E0FDA3F0
:10154C00E0FEA3E0FF12035790009912093C9000B3
:10155C0095E0FCA3E0FDA3E0FEA3E0FFC004C00502
:10156C00C006C007A3E0FCA3E0FDA3E0FEA3E0FFE0
:10157C00EC120319A804A905AA06AB07D007D006DC
:10158C00D005D00412001190009512093C900099DE
:10159C00E0F8A3E0F9A3E0FAA3E0FBC000C001C0AF
:1015AC0002C003E4FFFEFD7C40900095E0F8A3E050
:1015BC00F9A3E0FAA3E0FB120106120357D003D003
:1015CC0002D001D000EB2FFFEA3EFEE93DFDE83CE6
:1015DC00FC90009912093C900099E0FCA3E0FDA35B
:1015EC00E0FEA3E0FFEC12031990009DE0F8A3E0ED
:1015FC00F9A3E0FAA3E0FB12010690009112093C5A
:10160C009000A1E0601E900091E0FCA3E0FDA3E03F
:10161C00FEA3E0FFE4FBFA798078BF12010690008C
:10162C009112093C900091E0FCA3E0FDA3E0FEA325
:02163C00E0FFCD
:01163E002289
:103CCF0090013312094800000000900133E0FCA37B
:083CDF00E0FDA3E0FEA3E0FFFD
:013CE70022BA
:10000E000203C3E86480F8E933E83360110460F05A
:10001E00ED33EC337009E8FCE9FDEAFEEBFF220458
:10002E0060DED3EB9FEA9EE99DE8C2E78CF0C2F753
:10003E0095F0400CE8CCF8E9CDF9EACEFAEBCFFB1F
:10004E0012038E85D0F05804700320D5B3E80470E7
:10005E00075002B2D50203CD92D5EC0460F7E4CC82
:10006E00C0E0C398F8603B94186008400DD0E0FBE8
:10007E000203A5E4FBFAC9FC8028E830E406E4C9D3
:10008E00FBE4CAFCE830E305E4C9CACBFCE854073C
:10009E006010F8C3E913F9EA13FAEB13FBEC13FC47
:1000AE00D8F130F52FC3E49CFCEF9BFFEE9AFEEDEA
:1000BE0099FDD0E0FBEF4E4D4C701222DB03020394
:1000CE00CAEC2CFCEF33FFEE33FEED33FDED30E7E3
:1000DE00EB0203A5EF2BFFEE3AFEED39FDD0E0FB70
:1000EE0050130BBB00030203CDED13FDEE13FEEF19
:0800FE0013FFEC13FC0203A543
:10010600EC4D6011E8497017ED33EC3304600DE4F3
:10011600FCFFFEFD22E933E8330470F80203C31244
:10012600038E58046009E4CC248150062850090245
:1001360003CD2840030203CAC0E0EB4A7044B980ED
:1001460006D0E0FB0203B9EF4E701CBD8008EBFF42
:10015600EAFEE9FD80EBE98DF0A4FEE5F00201EF91
:10016600E9CDF9EAFEEBFFEF89F0A4FCE5F0CE89D4
:10017600F0A42EFFE435F0CD89F0A42DFEE435F091
:100186008067EF4E7005BD80D780C3EF8BF0A4ACBF
:10019600F0EE8BF0A42CFCE435F0F8EF8AF0A42CFA
:1001A600E5F038FCE433CB8DF0A42CFCE5F03BF80D
:1001B600EE8AF0A42CFCE5F038F8E433CF89F0A4FD
:1001C6002CFCE5F038CF3400CE89F0A42FFFE5F003
:1001D6003EFEE433C98DF0A42EFEE5F039CD8AF05B
:1001E600A42FFFE5F03EFEE43DFD33D0E0FB5007D3
:1001F6000BBB000F0203CDEC2CFCEF33FFEE33FEFE
:06020600ED33FD0203A52B
:10020C000203CDEC5D046005E8590470030203C3DE
:10021C0012038E580460F6EC4860F2EC7004FDFE9C
:10022C00FF22C860DB2481C85009C39860025006C5
:10023C000203CA9850CAF582E9294B4A7005AB8271
:10024C000203B975F0007C1A7880C3EF9BEE9AED2F
:10025C0099400DC3EF9BFFEE9AFEED99FDE842F03D
:10026C00DC23ACF0D0E0FFD0E0FED0E0FDAB822090
:10027C00E7101BEB60BAEC2CFCEF33FFEE33FEED1A
:10028C0033FD0203A5E803F830E705C0F075F00074
:10029C00EF2FFFEE33FEED33FD40B830E7C280AAFE
:1002AC0074F8CC6480CCC86480C8F582046043C305
:1002BC00EB9FF5F0EA9E42F0E99D42F0E89C45F098
:1002CC0060305018E5825FFFE582F42B5582FB50BD
:1002DC00210ABA001D09B90019088016E5825BFBDA
:1002EC00E582F42F5582FF50090EBE00050DBD00AE
:1002FC00010CC3EB9FF5F0EA9E42F0E99D42F0E859
:0D030C009C45F06007CC4820E701B3EC22CF
:1003190075F020800E75F010800575F0087D007E5F
:10032900007F003392D530D5031208D4EC33401046
:10033900EF33FFEE33FEED33FDEC33FCD5F0ED2268
:0E034900E5F0247EA2D513CC92E7CDCEFF22A4
:10035700EDD2E7CD33EC3392D524814006E4FFFE9E
:10036700FDFC22FCE4CFCECDCC24E0501174FF80FD
:10037700EDC3CC13CCCD13CDCE13CECF13CF04709A
:07038700F030D5DE0208D4BE
:1009E700E5592445F8E6055922784230070278454B
:1009F700E475F0011209850206E82000EB7F2ED28C
:100A0700008018EF540F2490D43440D4FF30040BE7
:100A1700EF24BFB41A0050032461FFE55A600215A2
:100A27005A055DE55D7002055C30070D7842E47597
:100A3700F001120985EF02072E023C3A7403D20730
:100A47008003E4C207F5598B428A438944E4F55A87
:100A5700F55CF55DE55A60077F20120A2280F5757F
:100A67005BFFC201C200C202C203C205C206C208BE
:100A77001209F0FF700D3007057F00120A33AF5DD2
:100A8700AE5C22B4255FC2D5C2041209F0FF24D0A0
:100A9700B40A00501A75F00A785A30D50508B6FF1F
:100AA7000106C6A426F620D5047002D20380D924F5
:100AB700CFB41A00EF5004C2E5D204020D20D201D0
:100AC70080C6D20080C0D20280BCD2D580BAD205FF
:100AD70080B47F20120A222002077401B55A004011
:100AE700F11209E7FF120A22020A5BD208D2068036
:100AF700951209E7FB1209E7FA1209E7F94A4B7061
:100B07000679177A0E7BFF20022EE55A602A7E00AF
:100B17008E8275830012070160060EEE655B70F02A
:100B2700C2D5EBC0E0EAC0E0E9C0E0EE120D80D02C
:100B3700E0F9D0E0FAD0E0FB1206E8FF60AAEBC0CC
:100B4700E0EAC0E0E9C0E0120A22D0E02401F9D0CF
:100B5700E03400FAD0E0FBE55B0460DCD55BD980CC
:100B670087D20280A2120D6360F7E55B7001041261
:100B77000403A95B600DE55B600914F55B120E0ABF
:100B8700EF60F3EA30E702F404C3995077EAF425FB
:100B97005B0430E701E404F55B800D120D6360C16F
:100BA700EA055B255B120403EA7858F630E701E4AF
:100BB700255B04D55B0420050114120D80E4C0E019
:100BC700120E0A7858E6601320E70714F6120A0A8D
:100BD700802204F6D0E014C0E07F00120A0AE55B29
:100BE7006007120A01155B800B300503120A01D05A
:100BF700E0020A5BD0E00480C5120D6360A0E55BEC
:100C0700041204037858EAF6E55B20050260010444
:050C17002404120D8011
:100C1C0074FF04C0E0120E0A120A0AE55B200502FA
:100C2C006003120A01D0E0B55BE87F45120A147824
:100C3C0058E67F2B30E7047F2DF404C0E0120A2223
:100C4C00D0E075F00A84C0F0120A0BD0E0120A0B47
:100C5C00020A5B791080027908C206C2088008D2A9
:100C6C00D5790A8004790AC2D5E55B047002F55B7C
:100C7C00E4FAFDFEFF1209E7FC7B082001131209C0
:100C8C00E7FD7B1030000A1209E7FE1209E7FF7B33
:100C9C0020EC3382D592D55013C3E43000069FFF6D
:100CAC00E49EFEE42001039DFDE49CFCE4CBF8C231
:100CBC0001EC700CCFCECDCCE824F8F870F3801793
:100CCC00C3EF33FFEE33FEED33FDEC33FCEB33FBC4
:100CDC00994002FB0FD8E9EB300105F8D0E0C4488D
:100CEC00B201C0E00AEC4D4E4F78207B0070C2EA96
:100CFC00B55B0040BCC0E0120D82D0F0D0E020010A
:100D0C0004C4C0E0C4B201C0F0120A0BD0F0D5F09C
:100D1C00EB020A5B1209950AF8530C5F580AC94C8E
:100D2C000AC5420C634F0C6B440C6B490ADE430C36
:100D3C0071550BA2460C00450B6C470E37500ACD73
:100D4C002D0AD12E0AF42B0AD5230AF2200E202AC2
:100D5C000A8D4800000AECE55BB4FF03755B0612D4
:100D6C0009E7FC1209E7FD1209E7FE1209E7FF7813
:100D7C0051020432790AA2D5200314300509B910A6
:100D8C00020404B9080104A2D52006025001042073
:100D9C0002689202B55A005034C0E07F203003192B
:100DAC007F30A20272067205500F120DD9C202C218
:100DBC0006C205C2087F30800F300503E9C0E0127F
:100DCC000A22300503D0E0F9D0E0B55ACC30051733
:100DDC007F30B9100C120A227F583004077F7880BC
:100DEC0003B90803120A223002057F2D020A227F62
:100DFC00202008F87F2B2006F322920280CF7F0060
:100E0C00B4070050052451F8E6FF22286E756C6C6F
:100E1C002900D2011209E73001F8C201785A30D505
:100E2C000108F6020A8D2D504349581209E7240394
:100E3C00B405004001E4900E3293120A13743A1276
:0A0E4C000A13D203755A04020C5F6A
:102CC6008F298E288D278C26E4FFFE7D807C3FABE6
:102CD60029AA28A927A8261202AC7009AF29AE286E
:102CE600AD27AC2622AF29AE28AD27AC261203D8D5
:102CF600FBAF2DAE2CAD2BAC2A1203D8FFBF0108BB
:102D0600E4FFFE7D807C3F22EF64046022EB6404D6
:102D1600601DBB0127E4FFFEFDFCAB2DAA2CA92BF1
:102D2600A82A1202AC60084006E4FFFEFDFC2274ED
:102D3600FFF52DF52CF52BF52A022DD4E4F52EF50D
:102D46002FFFFEFDFCAB29AA28A927A8261202AC54
:102D5600504BAF2DAE2CAD2BAC2A1203578E2E8FB7
:102D66002FAC2EAD2FEC12031EC8ECC8C9EDC9CA94
:102D7600EECACBEFCBAF2DAE2CAD2BAC2A12001189
:102D8600E4FBFAF9F81202AC70A5AF29AE28AD271C
:102D9600AC261203F28F298E288D278C26AF29AEFA
:102DA60028AD27AC26122978AB2DAA2CA92BA82A48
:102DB6001201061233FC8F2D8E2C8D2B8C2AE52FBB
:102DC60030E00B1203F28F2D8E2C8D2B8C2AAF2D1B
:072DD600AE2CAD2BAC2A224C
:10038E00E9D2E7C933E833F892D5EDD2E7CD33ECB5
:07039E0033FC5002B2D5222E
:1003A500EC30E7100FBF000C0EBE00080DBD0004B9
:1003B5000BEB6014A2D5EB13FCED92E7FD2274FF65
:1003C500FCFDFEFF22E480F8A2D574FF13FC7D80BE
:0303D500E480EFD2
:1003D800ED33EC33601004700FED547F7005740238
:0A03E80092E0227404220422E422B1
:1003F200ED33EC33600A047003BD8004ECB2E7FC19
:0104020022D7
:10040300F920E72824F950037907E4F42402FB18C0
:10041300DBFDE624FB5014E9600DE4F618E604F670
:0F042300B40A08E4F6D9F57401F60A22C2D5220C
:10043200ED33EC3392D5FA602AB4FF33EDC2E77B99
:10044200FF60067A047957E4227A04796020D504A1
:100452007A04795B224E614E002B494E46002D49AB
:100462004E4600E47A08F608DAFC7B00740722E8BC
:10047200C0E0ECC0E0EDC0E0EEC0E0EFC0E0EA7545
:10048200F010A4CAABF075F04DA42BFBE435F0FCE0
:10049200EA2410FAEB34C5FBEC34D9FCEDC2E7FFD9
:1004A20075F056A4F42411C5F0F434C58FF0A42AD3
:1004B200E5F03BE43CF620E714120565D0E0FFD0FE
:1004C200E0FED0E0FDD0E0FC12020F8014F4041232
:1004D2000565D0E0FFD0E0FED0E0FDD0E0FC1201E7
:1004E20006D0E0F8E6FAEDD2E7CD33EC332482FB16
:1004F200E4C3CF33CFCE33CECD33CD33DBF37B0763
:1005020075F00A846004F6081B0AE5F0F6088FF01D
:10051200740AA4FFACF08EF0740AA42CFEACF05066
:10052200010C8DF0740AA42CFDE435F0F608DBDE34
:0305320074072229
:1033C40033DA929E35B16011377FE5FE3921848965
:1033D4003AAEC3FF3C1D955B3D6358473E75FDF017
:1033E4003F3172183F800000C2D50203CD0203C3EF
:1033F400BD80FA50F30203CAED33EC330460F17B71
:103404003B7AAA79B8783F120106ED33EC3392D5B2
:10341400247B5011A2D570DB500BED448024045062
:1034240004A2D580CEEFFBEEFAEDF9ECF8120357C7
:10343400EFF582F404FC120323120015C0829033CA
:10344400C474091205B4ED33CC33D0F092D525F011
:0A345400A2D57001C313CC13FD22B2
:102944003E9248DA3ECCCCCD3F2AAAAB40000000F0
:102954003F8000003F9837F03FB504F33FD744FC75
:102964003E3172173EB172173F0515913EDE5BD9B9
:10297400D2098002C209EDD2E7F8CD33EC330470FA
:102984000BBD800592D50203CD0203C340FBD314D3
:1029940060F2F5F07C3FEE7A00C39496C8948B40C5
:1029A400230AC89469C8941A401A0AC89468C89437
:1029B4001F40110AC8945AC89425400805F07A00AB
:1029C400CDC2E7CDC0F08C308D318E328F33EA2307
:1029D40023C0E02454F582E43429F58312092C122F
:1029E4000015ECC0E0EDC0E0EEC0E0EFC0E012097D
:1029F4001CA830A931AA32AB33120011D0E0FBD0AD
:102A0400E0FAD0E0F9D0E0B2E7F812020F8C308D92
:102A1400318E328F3390294474031205A5A830A94E
:102A240031AA32AB33120106D0E0600F2460F58284
:102A3400E43429F58312092C1200158C308D318E63
:102A4400328F33D0E0C3947FFDE49400FC12031E64
:102A54007B187A727931783F120106A830A931AA1D
:102A640032AB3312001530090B7BD97A5B79DE78EF
:052A74003E12010622E4
:100535003F8000004120000042C80000447A0000CE
:10054500461C400047C35000497424004B18968050
:100555004CBEBC205A0E1BCA6753C21C749DC5AE47
:10056500FB60065407601C2323120593EB54386087
:100575000912057F12058E120106ECF8EDF9EEFA67
:10058500EFCB22EB12058E80F1543803241C900525
:1005950035FE93FC0EEE93FD0EEE930ECE93FF22E9
:1005A500C0E0EFFBEEFAEDF9ECF8120106D0E0F54C
:1005B500F0EFFBEEFAEDF9ECF812091CA3A3A3A3E7
:1005C500E8C0E0E9C0E0EAC0E0EBC0E0C0F012013D
:1005D5000612092CA3A3A3A3120015D0F0D0E0FBAB
:0D05E500D0E0FAD0E0F9D0E0F8D5F0D42253
:0300000002358145
:0C358100787FE4F6D8FD75815D0235C846
:1005F200E709F608DFFA8046E709F208DFFA803EEB
:1006020088828C83E709F0A3DFFA8032E309F608D7
:10061200DFFA8078E309F208DFFA807088828C833F
:10062200E309F0A3DFFA806489828A83E0A3F608F3
:10063200DFFA805889828A83E0A3F208DFFA804CCD
:1006420080D280FA80C680D4806980F280338010A4
:1006520080A680EA809A80A880DA80E280CA80330D
:1006620089828A83ECFAE493A3C8C582C8CCC58385
:10067200CCF0A3C8C582C8CCC583CCDFE9DEE78055
:100682000D89828A83E493A3F608DFF9ECFAA9F0D4
:10069200EDFB2289828A83ECFAE0A3C8C582C8CC2A
:1006A200C583CCF0A3C8C582C8CCC583CCDFEADE43
:1006B200E880DB89828A83E493A3F208DFF980CCA5
:1006C20088F0EF60010E4E60C388F0ED2402B4049E
:1006D2000050B9F582EB2402B4040050AF23234545
:0606E20082239006427322
:1006E800BB010689828A83E0225002E722BBFE0210
:0906F800E32289828A83E4932243
:10070100BB010CE58229F582E5833AF583E02250AD
:1007110006E92582F8E622BBFE06E92582F8E222F7
:0D072100E58229F582E5833AF583E4932211
:10072E00BB010689828A83F0225002F722BBFE01AA
:02073E00F322A4
:10074000F8BB010DE58229F582E5833AF583E8F0EF
:10075000225006E92582C8F622BBFE05E92582C89B
:02076000F22283
:10076200BC000BBE0029EF8DF084FFADF022E4CC7B
:10077200F875F008EF2FFFEE33FEEC33FCEE9DEC44
:10078200984005FCEE9DFE0FD5F0E9E4CEFD22ED8A
:10079200F8F5F0EE8420D21CFEADF075F008EF2FD4
:1007A200FFED33FD4007985006D5F0F222C398FDC5
:0507B2000FD5F0EA2262
:1007B700E88FF0A4CC8BF0A42CFCE98EF0A42CFCE1
:1007C7008AF0EDA42CFCEA8EF0A4CDA8F08BF0A45F
:1007D7002DCC3825F0FDE98FF0A42CCD35F0FCEBBE
:1007E7008EF0A4FEA9F0EB8FF0A4CFC5F02ECD3983
:0F07F700FEE43CFCEAA42DCE35F0FDE43CFC22F0
:1008060075F008758200EF2FFFEE33FECD33CDCCA9
:1008160033CCC58233C5829BED9AEC99E58298402C
:100826000CF582EE9BFEED9AFDEC99FC0FD5F0D609
:10083600E4CEFBE4CDFAE4CCF9A88222B800C1B933
:100846000059BA002DEC8BF084CFCECDFCE5F0CB71
:10085600F97818EF2FFFEE33FEED33FDEC33FCEBAA
:1008660033FB10D703994004EB99FB0FD8E5E4F965
:10087600FA227818EF2FFFEE33FEED33FDEC33FC52
:10088600C933C910D7059BE99A4007EC9BFCE99A46
:10089600F90FD8E0E4C9FAE4CCFB2275F010EF2F8B
:1008A600FFEE33FEED33FDCC33CCC833C810D7078B
:1008B6009BEC9AE899400AED9BFDEC9AFCE899F8C6
:0E08C6000FD5F0DAE4CDFBE4CCFAE4C8F92259
:0E08D400C3E49FFFE49EFEE49DFDE49CFC2235
:1008E200EB9FF5F0EA9E42F0E99D42F0EC6480C88D
:0608F20064809845F0222D
:1008F800EB9FF5F0EA9E42F0E99D42F0E89C45F056
:0109080022CC
:10090900E8600FECC313FCED13FDEE13FEEF13FFCC
:03091900D8F122F0
:10091C00E493FC740193FD740293FE740393FF2221
:10092C00E493F8740193F9740293FA740393FB2221
:0C093C00ECF0A3EDF0A3EEF0A3EFF0222E
:10094800A8828583F0D083D08212095F12095F12D2
:10095800095F12095FE473E493A3C583C5F0C583F7
:10096800C8C582C8F0A3C583C5F0C583C8C582C8F9
:01097800225C
:0C097900A42582F582E5F03583F5832289
:10098500FAE6FB0808E6F925F0F618E6CA3AF62273
:10099500D083D082F8E4937012740193700DA3A3F1
:1009A50093F8740193F5828883E473740293686005
:0609B500EFA3A3A380DF05
:103C3A00EFB40A07740D123C45740A309811A8991A
:103C4A00B8130CC2983098FDA899C298B811F630EA
:073C5A0099FDC299F59922C2
:1009BB00EF4E6012EF60010EEDBB010B89828A8353
:1009CB00F0A3DFFCDEFA2289F05007F709DFFCA960
:0C09DB00F022BBFEFCF309DFFCA9F022B7
:10358D0002345EE493A3F8E493A34003F68001F2C2
:10359D0008DFF48029E493A3F85407240CC8C3333F
:1035AD00C4540F4420C8834004F456800146F6DF0E
:1035BD00E4800B01020408102040809037CEE47E99
:1035CD00019360BCA3FF543F30E509541FFEE49303
:1035DD00A360010ECF54C025E060A840B8E493A3CA
:1035ED00FAE493A3F8E493A3C8C582C8CAC583CAF5
:1035FD00F0A3C8C582C8CAC583CADFE9DEE780BEAD
:0138260000A1
:00000001FF
