:104E5E002D2D2D2D2D0025660000000000000000D8
:034E6E0000000041
:104AD900124E32124DE6124EB4124DAF124E491219
:104AE9004A297BFF7A4E795E7D011233B57BFF7AC5
:104AF9004E795E7D021233B57BFF7A4E795EE4FD15
:104B09001233B57FE87E03124D70124CCB1227BECB
:084B19001241D443802080F812
:104DAF005390DF5390EF4394205395DFE4F59A75BA
:0C4DBF009BA0759C6C759D50759E042295
:104E3200C2AF75AA0575AA0A75A91FD2AF75AA05D0
:074E420075AA0A75A91F22E1
:104DE60075800C75904075A0117592F0E4F5937579
:0A4DF60094BFF5957596EEF597222F
:0A4EB4005392DF4393204380202235
:104E490075A88275B802E4F589F58A758C7F758E27
:054E5900044388102253
:104DCB00E4FFFE75AB09E5AB20E20843AB04E5ABB2
:0A4DDB0020E2FBAFAC7E0053ABF703
:014DE50022AB
:03000B0002442884
:10442800C0E0C083C082C0D09001E0E0601290017B
:10443800F4E4F0A374C8F09001E17401F0A3E4F08F
:104448009001ECE060159001F6740FF0A374A0F0F1
:104458009001ECE4F0A304F0A3E4F09001E1E06043
:10446800369001E0E0B40105E4F0439010D39001E8
:10447800F5E094009001F4E064809480400EA3E09D
:1044880024FFF09001F4E034FFF0800B9001E1E4A8
:10449800F0A304F05390EF9001EDE06025D3900174
:1044A800F7E094009001F6E09400400EA3E024FFAA
:1044B800F09001F6E034FFF080089001EDE4F0A3FD
:1044C80004F0758ACF758CB5438810D0D0D082D0CF
:0444D80083D0E0327B
:102FD4009002707474F0A3E4F078767C027D017B37
:102FE400FF7A4E7967FE7F0A1206D2900280120998
:102FF400263DF5C28FE4900284F0A3F09003087498
:10300400AAF09003097455F09002A3120926000057
:103014000000900270E0FEA3E0FF12458F90027161
:10302400E0240BFF900270E03400FEC006C007905D
:1030340002A312092600000000D007D00612458F13
:10304400900284E4F0A304F0900284E0FEA3E0FF85
:10305400C3940BEE940050E8EF7802C333CE33CE22
:10306400D8F9FF900271E02FFF900270E03EFEC09D
:1030740006C007900280E0FCA3E0FDA3E0FEA3E00D
:10308400FF9002A312091AD007D00612458F9002AE
:1030940084E0FEA3E07802C333CE33CED8F9FF90A8
:1030A4000271E02FFF900270E03ECF24FCCF34FF8A
:1030B400FE124B6790027212091A90015974FFF0C4
:1030C400A3744EF0A37464F0900272E0FCA3E0FDDC
:1030D400A3E0FEA3E0FF90015C12091A7B017A02CF
:1030E4007976120B537B017A0279767D011233B51E
:1030F400900284E0FEA3E07802C333CE33CED8F945
:10310400FF900271E02FFF900270E03EFE124B67C9
:1031140090027212091A90015974FFF0A3744EF0D0
:10312400A37464F0900272E0FCA3E0FDA3E0FEA3AC
:10313400E0FF90015C12091A7B017A027976120B86
:10314400537B017A027976E4FD1233B5900284E070
:10315400FEA3E07802C333CE33CED8F9FF900271D8
:10316400E02FFF900270E03ECF2404CF3400FE1223
:103174004B6790027212091A90015974FFF0A374FC
:103184004EF0A37464F0900272E0FCA3E0FDA3E0AF
:10319400FEA3E0FF90015C12091A7B017A027976A2
:1031A400120B537B017A0279767D021233B59002B9
:1031B40080E0FCA3E0FDA3E0FEA3E0FFE4FBFA79DA
:1031C40080783F12001590028012091A7FE87E036E
:1031D400124D70900285E004F07006900284E004C1
:0431E400F002304C79
:104C6C0025362E30660025352E306600464C4F41D9
:104C7C00540025362E31660025372E326600253637
:104C8C002E32660025372E33660025362E3366000D
:104373004A011E5F503D79726B6F517F735C013A46
:10438300776E0F7C2F276F76505C360E00645F3795
:0C43930073246B2E5E4C0000723D200075
:094E950053A0FB124E9E43A00441
:074E9E00E4FF0FEFB405FB78
:014EA50022EA
:024D9200AE076A
:104D9400E4FDEE20E70553A0F7800343A008124E7C
:0A4DA40095EE25E0FE0DEDB408E8E1
:014DAE0022E2
:104A290043A00243A00443A008124E9E124E9EE4E6
:104A3900900128F0A304F0FDFB1246E0740312462E
:104A4900D874281246D890012974291246DB90019E
:104A5900287401F07E007F107D00FB7A01792A120B
:104A69000A8678CB7C017D017B017A0179287E0059
:084A79007F121206D20246EF83
:1046D800900129F07D017B0178CB7C017A01792852
:0746E8007E007F121206D2D2
:1046EF00E4FCFE43A00243A00443A008124E9E53D5
:1046FF00A0FD124E9E124E9553A0F7124E959001AB
:10470F00CBE0700553A0F7800343A008124E95909D
:10471F0001CBE0700BA3E0FF124D92124E95803F3C
:10472F00E4FEFC53A0FBEE20E70553A0F780034304
:10473F00A008124E98EE25E0FE0CECB406E5E4FC62
:10474F00ECFFC3740F9FFFE49400FE74CD2FF5822E
:10475F0074013EF583E0FF124D920CECB410E1436F
:0B476F00A00243A00843A004024E9EDD
:104C30009001287401F07E007F107D00FB7A0179DD
:104C40002A120A861246DCE4900128F0A3740212AC
:104C500046DBE4900129F078CB7C017D017B017A71
:0C4C6000017928FE7F121206D20246EFF6
:104CCB009001287401F07E007F107D00FB7A017942
:104CDB002A120A8678CB7C017D017B017A01792827
:0A4CEB007E007F121206D20246EF8F
:104CF5009001287401F07E007F107DFFFB7A017919
:104D05002A120A8678CB7C017D017B017A017928FC
:0A4D15007E007F121206D20246EF64
:0C4BAD00E0FF9001C8E0FDA3E0FB14F065
:104BB900E4FEEDB40100EDB402027E0BED70027E5D
:104BC90005C374059B2EFD3395E0FC742A2DF582EF
:104BD90074013CF583E05480F0742A2DF582740148
:064BE9003CF583E04FF0F3
:014BEF0022A3
:1044DC00AC07ED700302456224FE604004600302E9
:1044EC00458CECB40311EB90012BB40106E0448035
:1044FC00F08004E0547FF0ECB40211EB90012CB48A
:10450C000106E04480F08004E0547FF0EC6401701C
:10451C006FEB90012DB40102805C8060ECB4031150
:10452C00EB900136B40106E04480F08004E0547F47
:10453C00F0ECB40211EB900137B40106E04480F0CA
:10454C008004E0547FF0EC64017035EB900138B4DA
:10455C00010280228026ECB40211EB900131B401EF
:10456C0006E04480F08004E0547FF0ECB40111EBE1
:10457C00900132B40106E04480F08004E0547FF0F6
:03458C00024E00DC
:103EEA00EF24FEB409004003023FE2903F0375F05D
:103EFA0003A4C58325F0C58373023F5B023F4F02CB
:103F0A003F66023F71023F7C023F2B023F37023F6E
:103F1A0043023F1EED90012FB40103023FAE023F60
:103F2A00DEED900133B40102807A023FDEED9001AA
:103F3A0030B40102806E023FDEED900134B401021A
:103F4A008062023FDEED90012EB401028056023FEC
:103F5A00DEED90012AB40102804A8078ED900139A1
:103F6A00B40102803F806DED900135B401028034C6
:103F7A008062ED640190012F7030E04480F090017E
:103F8A0033E04480F0900130E04480F0900134E066
:103F9A004480F090012AE04480F0900135E04480AA
:103FAA00F0900139E04480F0802EE0547FF09001D7
:103FBA0033E0547FF0900130E0547FF0900134E018
:103FCA00547FF090012AE0547FF0900135E0547F4D
:103FDA00F0900139E0547FF09001287401F0024E0C
:013FEA0000D6
:063DCB0090028612091AA5
:103DD10090028AE0703BA3E0900159700C74FFF0EF
:103DE100A3744CF0A3746C800A74FFF0A3744CF0BC
:103DF100A37472F0900286E0FCA3E0FDA3E0FEA3B1
:103E0100E0FF90015C12091A7B017A02798C120B96
:103E11005390028AE06401703CA3E0900159700D57
:103E210074FFF0A3744CF0A37478F0801F74FFF05A
:103E3100A3744CF0A3747EF0900286E0FCA3E0FD35
:103E4100A3E0FEA3E0FF90015C12091A7B017A0254
:103E5100798C120B5390028AE06402703BA3E090CC
:103E61000159700C74FFF0A3744CF0A37484800AA0
:103E710074FFF0A3744CF0A3748AF0900286E0FC06
:103E8100A3E0FDA3E0FEA3E0FF90015C12091A7B11
:103E9100017A02798C120B5390028AE06403703B21
:103EA100A3E0900159700C74FFF0A3744CF0A3745B
:103EB10090800A74FFF0A3744CF0A37496F0900202
:103EC10086E0FCA3E0FDA3E0FEA3E0FF90015C120D
:103ED100091A7B017A02798C120B537B017A0279E0
:093EE1008C90028BE0FD0233B568
:0E33B5009001C5EBF0A3EAF0A3E9F0A3EDF060
:1033C300A37405F0E4A3F0ED700C900131E0547F99
:1033D300F0A3E0547FF09001C8E0FDB40211900126
:1033E30036E0547FF0A3E0547FF0A3E0547FF0ED88
:1033F300B4011190012BE0547FF0A3E0547FF0A3BC
:10340300E0547FF09001C5E0FBA3E0FAA3E0F912DA
:1034130006F8FF700302354BC394304013EFD39487
:1034230039500D74EE2FF582E43400F583124BAD61
:103433009001C5E0FBA3E0FAA3E0F91206F8B42D6E
:1034430006900154124BAD9001C5E0FBA3E0FAA333
:10345300E0F91206F8B420139001C8E0FDA3E0FBE5
:10346300E4FF124BB99001C9E014F09001C5E0FBF1
:10347300A3E0FAA3E0F91206F8FFC394414023EF57
:10348300D3945A501D74F92FF582E43400F583E088
:10349300FF9001C8E0FDA3E0FB124BB99001C9E026
:1034A30014F09001C5E0FBA3E0FAA3E0F91206F8DB
:1034B300642E60030235389001C8E0FC6402702872
:1034C3009001CAE0FEB40207900136E04480F0EEBA
:1034D300B40307900137E04480F09001CAE0B404DC
:1034E30007900138E04480F0EC640170289001CA31
:1034F300E0FDB4020790012BE04480F0EDB4030734
:1035030090012CE04480F09001CAE0B404079001DC
:103513002DE04480F09001C8E0701A9001CAE0FDEC
:10352300B40407900132E04480F0EDB40307900146
:1035330031E04480F09001CAE004F09001C6E475E4
:10354300F0011207B70234079001287401F0024E0C
:013553000077
:104E00009001287401F078CB7C01FDFB7A017928B0
:0A4E10007E007F121206D20246EF68
:04439F004101DE00FA
:104D7000E4FDFCC3ED9FEC9E5017E4FB0BEBB4C3CA
:104D8000FB75AA0575AA0A75A91F0DBD00010C8047
:014D9000E240
:014D910022FF
:1041D400E4FA9001DDF0D281D280D290D291D292D1
:1041E400EA7002C281EAB40102C280EAB40202C2E5
:1041F40090EAB40302C291EAB40402C2927F017E3F
:1042040000124D7020820AEA25E025E0049001DDC9
:10421400F020A40BEA25E025E024029001DDF02043
:10422400A00BEA25E025E024039001DDF020960BA5
:10423400EA25E025E024049001DDF00AEA64057033
:10424400959001DFE0FF700C9001DDE06006A3743F
:1042540001F080319001DDE0FEB50709EE6006A3B0
:104264007402F080209001DFE0600C9001DDE070CA
:1042740006A37403F0800E9001DFE070089001DD66
:10428400E07002A3F09001DDE09001DFF0600A909D
:1042940001DEE0B40103124EA675AA0575AA0A75DB
:0242A400A91F50
:0142A60022F5
:0E4EA6009001E1E07007A3F09001E004F0221B
:0100060022D7
:030003007F002259
:104E7100E4FA124EA67FFA7E00124D700AEAB403DC
:014E8100F13F
:014E8200220D
:104E1A000000000000000000000000000000000088
:084E2A00000000000000000080
:1043A3004400C900000000602800F600000000007F
:1043B30000000000000000000000000000000000FA
:1043C30000000000000000000000000000000000EA
:1043D300000000602800CE00000000000000000084
:1043E30000000000000000000000000000000000CA
:1043F3000000000000000000000000000000004476
:0A44030000C5000000004100CD00DC
:060F710090024212091A71
:100F770090024712092640886E5590024B120926A7
:100F870000000000900242E0FCA3E0FDA3E0FEA306
:100F9700E0FFE412031990025212091A90025674E4
:100FA70006F0E4A3F0A3F090024F04F0A37400F05E
:100FB700A374F6F0900247E0FCA3E0FDA3E0FEA3D4
:100FC700E0FF9000C5E0F8A3E0F9A3E0FAA3E0FB97
:100FD700120015900252E0F8A3E0F9A3E0FAA3E0AB
:100FE700FB1202AC60025032900247E0F8A3E0F92E
:100FF700A3E0FAA3E0FB9000C5E0FCA3E0FDA3E0BB
:10100700FEA3E0FF120011900252E0F8A3E0F9A35B
:10101700E0FAA3E0FB1202AC505C900246E0705687
:101027009000CDE0FF04F0EFD394024046E4F09047
:101037000257F0900256E014FFA3E0C39F4003025B
:101047001185900252E0FCA3E0FDA3E0FEA3E0FFC0
:1010570090024FE0FBA3E0FAA3E0F9900257E07596
:10106700F004A4F58285F0831208CA900257E004C1
:10107700F080C002138B900246E06401704C900030
:10108700CDF0900257F0900256E014FFA3E0C39F03
:101097004003021185900242E0FCA3E0FDA3E0FEBD
:1010A700A3E0FFE412031990024FE0FBA3E0FAA3C9
:1010B700E0F9900257E075F004A4F58285F08312F9
:1010C70008CA900257E004F080BC900246E0640230
:1010D7007055900257F0900256E014FFA3E0FEC34C
:1010E7009F4003021185EE2401FFE433FEEF7802EF
:1010F700C333CE33CED8F9FF90024FE0FBA3E0FA1B
:10110700A3E0F98F828E8312089A90024FA3A390CF
:101117000257E075F004A4F58285F0831208CA909F
:101127000257E004F080AFE49000CDF0900257F052
:10113700900256E014FFA3E0FEC39F5041EE240146
:10114700FFE433FEEF7802C333CE33CED8F9FF90F6
:10115700024FE0FBA3E0FAA3E0F98F828E83120827
:101167009A90024FA3A3900257E075F004A4F5826A
:1011770085F0831208CA900257E004F080B290020B
:1011870052E0FCA3E0FDA3E0FEA3E0FFC004C0051E
:10119700C006C007A3E024FFFFE434FFFEEF780298
:1011A700C333CE33CED8F9FF90024FE0FBA3E0FA6A
:1011B700A3E0F98F828E83D007D006D005D0041222
:1011C70008CAE4900257F0900256E0FFA3E0C39FDD
:1011D700503790024FE0FBA3E0FAA3E0F9900257E3
:1011E700E075F004A4F58285F08312089A900257FF
:1011F700E025E025E024CEF582E43400F5831209EA
:101207001A900257E004F080BEE4900257F0900273
:1012170056E014FFA3E0FEC39F40030212F8EE045A
:10122700A3F0900256E0FF900258E0FEC39F4003F0
:101237000212EF900257E025E025E024CEF582E484
:101247003400F583E0F8A3E0F9A3E0FAA3E0FBEEAE
:1012570025E025E024CEF582E43400F583E0FCA305
:10126700E0FDA3E0FEA3E0FF1202AC6072407090C5
:101277000258E0FB25E025E024CEF582E43400F5B2
:1012870083E0FCA3E0FDA3E0FEA3E0FF90024B1286
:10129700091A900257E0FA25E025E024CEF582E40A
:1012A7003400F583E0FCA3E0FDA3E0FEA3E0FFEB41
:1012B70025E025E024CEF582E43400F58312091AEF
:1012C70090024BE0FCA3E0FDA3E0FEA3E0FFEA25CC
:1012D700E025E024CEF582E43400F58312091A9064
:1012E7000258E004F0021229900257E004F00212BB
:1012F700159000C5120926000000009002577401DE
:10130700F0900256E014FFA3E0FEC39F5038900010
:10131700C5E0F8A3E0F9A3E0FAA3E0FBEE25E0259A
:10132700E024CEF582E43400F583E0FCA3E0FDA3DE
:10133700E0FEA3E0FF1200159000C512091A900203
:1013470057E004F080BB9000C5E0FCA3E0FDA3E0FC
:10135700FEA3E0FFC004C005C006C007900256E028
:1013670024FEFDE434FFFCE412031EA804A905AA29
:1013770006AB07D007D006D005D00412020F9000A5
:10138700C512091A9000C5E0FCA3E0FDA3E0FEA387
:02139700E0FF75
:011399002231
:053FEB009001F8EFF069
:103FF000A31209260000000078FD7C017D017BFFF3
:104000007A4E791A7E007F141206D2308303024062
:10401000DA1248149001F912091A9001F9E0FCA390
:10402000E0FDA3E0FEA3E0FF78071208679001F926
:1040300012091AE47FFF7EFFFDFC9001F9E0F8A36E
:10404000E0F9A3E0FAA3E0FBC3120856606DE47F39
:10405000FF7EFFFDFC9001F9E0F8A3E0F9A3E0FA90
:10406000A3E0FBD31208569001F9E04032F8E49B3C
:10407000FFE49AFE740299FDE498FC9001F912099C
:104080001A9001F9E0F8A3E0F9A3E0FAA3E0FBC37A
:1040900074F49BFF747E9AFEE499FDE4988015FC0D
:1040A000A3E0FDA3E0FEA3E024F4FFEE347EFEE4F3
:1040B0003DFDE43CFC9001F912091A9001F9E0FC85
:1040C000A3E0FDA3E0FEA3E0FF9001F8E09002462C
:1040D000F0120F719000C912091A9000C9E0FCA3F8
:0840E000E0FDA3E0FEA3E0FFF8
:0140E80022B5
:1048140078ED7C027D017BFF7A4E792E7E007F0449
:104824001206D29002EA7401F0A37402F0A374EDAC
:10483400F0308306E4FFFEFDFC22E4FDFCD284EDAF
:10484400AE047803CEC313CE13D8F9FF24EEF58259
:1048540074023EF583E0FB25E0F0C28474EE2FF58C
:104864008274023EF583E0FFA283E433FEEF4EF050
:104874000DBD00010CED64184C70C2D284EDAE0481
:104884007805C333CE33CED8F9FDAC06C28490028A
:0C489400EAE0FBA3E0FAA3E0F912087AC6
:0148A00022F5
:0100070022D6
:0A4E8300E475F0011207CDAFF0FE58
:074E8D008F828E83E493FF86
:014E940022FB
:084BF0009002F1EEF0A3EFF0DA
:104BF8009002F57401F0A37402F0A374F3F0E4FDDD
:104C08009002F1124E839002F5E0FBA3E475F001E7
:104C18001207CDA9F0FAEF12073E0DEDB402E190AC
:074C280002F3E0FEA3E0FF30
:014C2F002262
:084B21009002AEEEF0A3EFF0EC
:104B29009002B47401F0A37402F0A374B0F0E4FD30
:104B39009002AE124E839002B4E0FBA3E475F0013B
:104B49001207CDA9F0FAEF12073E0DEDB404E1907A
:0D4B590002B0E0FCA3E0FDA3E0FEA3E0FF3E
:014B6600222C
:084B67009002B7EEF0A3EFF09D
:104B6F009002BD7401F0A37402F0A374B9F0E4FDD8
:104B7F009002B7124E839002BDE0FBA3E475F001E3
:104B8F001207CDA9F0FAEF12073E0DEDB404E19034
:0D4B9F0002B9E0FCA3E0FDA3E0FEA3E0FFEF
:014BAC0022E6
:1049B700AFF0FEE0FBA3E475F0011207CDA9F0FA12
:0449C7001206F8FDDF
:1049CB00E49002FEF09002FCEEF0A3EFF0A2AF92A7
:1049DB0009C2AF9002FCE0F5C3A3E0F5C2AF058FAF
:1049EB00C1E4F5C4F5C5F5C6900308E0B4AA08A365
:1049FB00E0B4550375C70312000775C40575C50AE6
:104A0B0075C609900308E0B4AA08A3E0B455037572
:0D4A1B00C703E4F5C4F5C5F5C6A20992AFC6
:014A2800226B
:104D1F00900301EDF09002FFEEF0A3EFF0124E8D35
:104D2F00EFF460089002FF7D01123B659002FFE0F7
:0A4D3F00FEA3E0FFA3E0FD0249CB54
:10492D009002C2ECF0A3EDF09002C0EEF0A3EFF018
:10493D00124BF09002C7EEF0A3EFF09002C4740199
:10494D00F0A37402F0A374C7F09002C4E0FBA3E4DB
:10495D0075F0011207CDA9F0FA1206F8B4FF169002
:10496D0002C4E0FBA3E475F0011207CDA9F0FA1221
:10497D0006F8F4600F9002C0E0FEA3E0FF7D027C1C
:10498D0000123B6C9002C47401F0A37402F0A37486
:10499D00C2F0E4FC9002C0E475F0011207CD900264
:0949AD00C41249B70CECB402EB92
:0149B60022DE
:08463500900294EEF0A3EFF0F7
:10463D00124B2190029D12091A90029A7401F0A357
:10464D007402F0A3749DF090029AE0FBA3E475F060
:10465D00011207CDA9F0FA1206F8B4FF4290029AA2
:10466D00E0FBA3E475F0011207CDA9F0FA1206F8EC
:10467D00B4FF2C90029AE0FBA3E475F0011207CD74
:10468D00A9F0FA1206F8B4FF1690029AE0FBA3E423
:10469D0075F0011207CDA9F0FA1206F8B4FF0690D5
:1046AD000294123B6390029A7401F0A37402F0A37A
:1046BD007496F0E4FC900294E475F0011207CD902D
:0A46CD00029A1249B70CECB404EB9A
:0146D70022C0
:08458F009002A1EEF0A3EFF091
:10459700124B679002AA12091A9002A77401F0A39E
:1045A7007402F0A374AAF09002A7E0FBA3E475F0ED
:1045B700011207CDA9F0FA1206F8B4FF429002A73C
:1045C700E0FBA3E475F0011207CDA9F0FA1206F893
:1045D700B4FF2C9002A7E0FBA3E475F0011207CD0E
:1045E700A9F0FA1206F8B4FF169002A7E0FBA3E4BD
:1045F70075F0011207CDA9F0FA1206F8B4FF06907C
:1046070002A1123B639002A77401F0A37402F0A306
:1046170074A3F0E4FC9002A1E475F0011207CDAF9A
:0D462700F0FE9002A71249BA0CECB404E8B2
:014634002263
:104A8100E4900302F0A3EEF0A3EFF0A2AF920AC20A
:104A9100AF900303E0F5C3A3E0F5C2E4F5C4F5C5A7
:104AA100F5C6900308E0B4AA08A3E0B4550375C79E
:104AB1000312000775C40575C50A75C60990030878
:104AC100E0B4AA08A3E0B4550375C70CE4F5C4F536
:074AD100C5F5C6A20A92AF71
:014AD80022BB
:093B63007D04E0FEA3E0FF7C00FC
:103B6C009002CBECF0A3EDF09002C9EEF0A3EFF0D5
:103B7C00E49002CDF0A3F0A3F0A37404F0A3E4F05E
:103B8C00FD7C041207627D007C04120750AA06AB70
:103B9C0007E49002CEF0A3F09002CEE0FEA3E0FF8B
:103BAC00C3940AEE94005025E42FFFEE3468FE1205
:103BBC004E8DEFF460077F007E68124A819002CF31
:103BCC00E004F070D39002CEE004F080CBE49002DD
:103BDC00CEF0A3F09002D0E0FEA3E0FF9002CEE086
:103BEC00FCA3E0FDC39FEC9E5056ED2BFFEC3AFE80
:103BFC009002C9E0B50617A3E0B50712A3E0FEA337
:103C0C00E0FF9002CFE02FF09002CEE03EF0900269
:103C1C00CFE02BFF9002CEE03AFE124E8DAD079016
:103C2C0002CFE02400FF9002CEE03468FE1249CBB4
:103C3C009002CFE004F0709C9002CEE004F08094EF
:103C4C00AF03AE02124A81E49002CEF0A3F09002D0
:103C5C00D0E0FEA3E0FF9002CEE0FCA3E0FDC39F0A
:103C6C00EC9E502BE42DFFEC3468FE124E8DAD070C
:103C7C009002CFE02BFF9002CEE03AFE1249CB909F
:103C8C0002CFE004F070C79002CEE004F080BF7F5A
:063C9C00007E68024A816F
:1042A7003030303030003030303030300020202097
:1042B700554E00535441424C45002020504C53006A
:1042C700554E4C4F41440048454C502000505245F4
:1042D7005353005245462030004300204C4F414481
:1042E700004320202000464143544F005200202025
:1042F700454E440020204F46460053415645440052
:104307002D2D2D2D2D00202020202D002020202098
:10431700202D0020202D2D2D002020202D2D2D009B
:1043270020202020202000534F4252450020504596
:10433700534F004F56455220002D2D2D2D2D2D006A
:1043470020202020203000202D452D20002D2D2D30
:104357002D2D2D2D2D2D2D2000202020203000004B
:0C4367000000000000000000000000004A
:10440D0044000600000000440000000000004400CD
:0A441D0090000000004200040000BF
:1031E8007F017E6C124B6790002A12091A7F057EB8
:1031F8006C124B6790002612091A7F097E6C124BDD
:103208006790002E12091A90001E1209260000006D
:10321800007F667E6C124E8D90006DEFF07F0D7E04
:103228006C124E8D90006EEFF07F0E7E6C124E8DFC
:1032380090006FEFF07F1A7E6C124E8D90008CEF2D
:10324800F07F0F7E6C124BF0900056EEF0A3EFF07B
:103258007F117E6C124BF0900059EEF0A3EFF07FD7
:10326800137E6C124BF090005BEEF0A3EFF07F64DE
:103278007E6C124BF090005DEEF0A3EFF07F6B7E5A
:103288006C124BF090005FEEF0A3EFF07F157E6CB0
:10329800124E8D900070EFF07F167E6C124E8D905E
:1032A8000071EFF07F287E6C124E8D90008FEFF04A
:1032B800900071E090007370057405F0800374014C
:1032C800F07F177E6C124E8D900072EFF0900074B4
:1032D80070057405F080037401F07F187E6C124E3F
:1032E8008D900075EFF0E4900077F07F1B7E6C12F4
:1032F8004E8D900078EFF07F1C7E6C124E8D900002
:1033080079EFF07F267E6C124E8D90007AEFF07F79
:103318001D7E70124BF0900067EEF0A3EFF07F1F58
:103328007E70124BF0900069EEF0A3EFF07F2A7EDA
:103338006C124E8D90007DEFF07F2B7E6C124BF05F
:10334800900061EEF0A3EFF07F377E6C124E8D9007
:10335800007FEFF07F3C7E6C124E8D90008DEFF079
:103368007F3D7E70124BF090006BEEF0A3EFF07F84
:103378003F7E70124B6790003E12091A7F547E6C94
:10338800124E8D900058EFF07F627E6C124E8D9039
:10339800008BEFF07F637E70124E8D9000BAEFF0D5
:0D33A8007F677E70124B6790004E02091A7D
:102A9A0090030874AAF09003097455F0EF120977AD
:102AAA002B38002ACF012D33022CAD042CBF062C63
:102ABA00940A2B2B0B2C860C2CE60D2D190E2D505F
:102ACA000F00002D5C7D017F007E6C124D1F90006F
:102ADA002AE0FCA3E0FDA3E0FEA3E0FF9002A3121C
:102AEA00091A7F017E6C12458F900026E0FCA3E054
:102AFA00FDA3E0FEA3E0FF9002A312091A7F057E60
:102B0A006C12458F90002EE0FCA3E0FDA3E0FEA32B
:102B1A00E0FF9002A312091A7F097E6C12458F808A
:102B2A0000900067E0FCA3E0FD7F1D022C9090005E
:102B3A006EE0FD7F0D7E6C124D1F90006FE0FD7FF1
:102B4A000E7E6C124D1F900056E0FCA3E0FD7F0F35
:102B5A007E6C12492D900059E0FCA3E0FD7F117EA6
:102B6A006C12492D90005BE0FCA3E0FD7F137E6CA4
:102B7A0012492D90005DE0FCA3E0FD7F647E6C129B
:102B8A00492D90005FE0FCA3E0FD7F6B7E6C12494B
:102B9A002D900070E0FD7F157E6C124D1F90007124
:102BAA00E0FD7F167E6C124D1F900075E0FD7F18C8
:102BBA007E6C124D1F900077E0FD7F197E6C124DDE
:102BCA001F900078E0FD7F1B7E6C124D1F900079EC
:102BDA00E0FD7F1C7E6C124D1F90007AE0FD7F267F
:102BEA007E6C124D1F90007DE0FD7F2A7E6C124D97
:102BFA001F900069E0FCA3E0FD7F1F7E7012492D43
:102C0A0090007FE0FD7F377E6C124D1F90008DE0B3
:102C1A00FD7F3C7E6C124D1F90006BE0FCA3E0FD33
:102C2A007F3D7E7012492D90003EE0FCA3E0FDA39B
:102C3A00E0FEA3E0FF9002A312091A7F3F7E701202
:102C4A00458F900058E0FD7F547E6C124D1F900016
:102C5A008BE0FD7F627E6C124D1F9000BAE0FD7F13
:102C6A00637E70124D1F90006DE0FD7F667E6C12D0
:102C7A004D1F90008CE0FD7F1A022D57900069E0ED
:102C8A00FCA3E0FD7F1F7E708025900026E0FCA358
:102C9A00E0FDA3E0FEA3E0FF9002A312091A7F055C
:102CAA00022D2F900061E0FCA3E0FD7F2B7E6C12C9
:102CBA00492D022D5C90006BE0FCA3E0FD7F3D7E78
:102CCA007012492D90003EE0FCA3E0FDA3E0FEA3B4
:102CDA00E0FF9002A312091A7F3F8063900042E04E
:102CEA00FCA3E0FDA3E0FEA3E0FF9002A312091AF1
:102CFA007F5A7E6C12458F900046E0FCA3E0FDA34C
:102D0A00E0FEA3E0FF9002A312091A7F5E801690EC
:102D1A00004AE0FCA3E0FDA3E0FEA3E0FF9002A3CB
:102D2A0012091A7F567E6C801890004EE0FCA3E0D0
:102D3A00FDA3E0FEA3E0FF9002A312091A7F677EBB
:102D4A007012458F800C90008FE0FD7F287E6C12F8
:0C2D5A004D1FE4900308F0900309F022E4
:0621D5007B01E4FD7F0127
:0D21DB0090025AEDF0A3EBF0900259EFF0E6
:1021E800E490025CF0A3F0FCFDFEA312091A900231
:1021F80062120926000000009002661209260000FB
:10220800000090007FE0FCE412032390026A1209A8
:102218001AE490026EF0A3F090025DF090025BE089
:10222800FF700690025D7402F0123FEB9002661296
:10223800091A74FFFFFEFDFC90025EE0F8A3E0F9C6
:10224800A3E0FAA3E0FBD312084050030224C21211
:10225800000390025AE06401600302231290025EB8
:10226800E0FCA3E0FDA3E0FEA3E0FFEC4D4E4F70C1
:10227800237BFF7A4279A77D011233B57BFF7A422F
:1022880079A77D021233B57BFF7A4279ADE4FD125E
:1022980033B58076E47F677E2BFDFC90025EE0F824
:1022A800A3E0F9A3E0FAA3E0FB1207E3EC12031999
:1022B800E490028AF0A304F0123DCBE47F677E2B02
:1022C800FDFC90025EE0F8A3E0F9A3E0FAA3E0FBCE
:1022D8001207E3EC120319E490028AF0A37402F0E7
:1022E800123DCB7F077EB27D017C0090025EE0F854
:1022F800A3E0F9A3E0FAA3E0FB1207E3EC12031949
:10230800E490028AF0A3F0123DCB90025BE0FF124A
:102318003FEB90026212091A900094E070030224C5
:10232800B790026AE0F8A3E0F9A3E0FAA3E0FB9013
:102338000266E0FCA3E0FDA3E0FEA3E0FF120011AB
:10234800900262E0F8A3E0F9A3E0FAA3E0FB12022E
:10235800AC407490026AE0FCA3E0FDA3E0FEA3E0B9
:10236800FF900266E0F8A3E0F9A3E0FAA3E0FB120D
:102378000015900262E0F8A3E0F9A3E0FAA3E0FBFD
:102388001202AC6002504090025CE004F0A3E0FF4F
:1023980090025CE0D39F500302223A90025EE0FC78
:1023A800A3E0FDA3E0FEA3E0FFEF24FFFFEE34FF70
:1023B800FEED34FFFDEC34FFFC90025E12091AE4D6
:1023C80090025CF002223A90025AE0640160030233
:1023D800248B124CCB7BFF7A4279B47D021233B541
:1023E8007BFF7A4279BAE4FD1233B590025E120996
:1023F8002600000000E47F207E4EFDFC90025EE097
:10240800F8A3E0F9A3E0FAA3E0FBC31208405027C1
:1024180090025EE0FCA3E0FDA3E0FEA3E0FFE4FA87
:10242800F9F8EF2401FFEA3EFEE93DFDE83CFC90A7
:10243800025E12091A80BE90025E12092600000090
:1024480000E47F207E4EFDFC90025EE0F8A3E0F9F8
:10245800A3E0FAA3E0FBC3120840502790025EE015
:10246800FCA3E0FDA3E0FEA3E0FFE4FAF9F8EF2403
:1024780001FFEA3EFEE93DFDE83CFC90025E1209E0
:102488001A80BEE490025CF0900259E0FFE4FCFD83
:10249800FE90025E12091A90025BE0FF123FEB9079
:1024A800026612091A90025BE0700302223AE49075
:1024B80000B8F0FFFE7DC87CC2229000B87401F01D
:0E24C800900266E0FCA3E0FDA3E0FEA3E0FFAF
:0124D60022E3
:1036EB009002D2120926000000009002D612092681
:1036FB0000000000E4FBFDFF1221DB9002D6120953
:10370B001A900094E070037F0222900026E0F8A349
:10371B00E0F9A3E0FAA3E0FB9002D6E0FCA3E0FD06
:10372B00A3E0FEA3E0FF1200119002D212091A903F
:10373B000078E070030237F87FCD7ECC7D4C7C3E69
:10374B0090002AE0F8A3E0F9A3E0FAA3E0FB120152
:10375B00069002D2E0F8A3E0F9A3E0FAA3E0FB1293
:10376B0002AC602C402AE4FFFEFD7C3F90002AE077
:10377B00F8A3E0F9A3E0FAA3E0FB1201069002D252
:10378B00E0F8A3E0F9A3E0FAA3E0FB1202AC402CB3
:10379B007FCD7ECC7D4C7CBE90002AE0F8A3E0F977
:1037AB00A3E0FAA3E0FB1201069002D2E0F8A3E03B
:1037BB00F9A3E0FAA3E0FB1202AC5031124CCB7B25
:1037CB00FF7A4279C17D011233B57BFF7A4279C70B
:1037DB00E4FD1233B575AA0575AA0A75A91F9000E9
:1037EB00A3E07006900094E070EB7F0222E4FFFEF2
:1037FB00FD7C3F90002AE0F8A3E0F9A3E0FAA3E0F8
:10380B00FB1201069002D2E0F8A3E0F9A3E0FAA3C1
:10381B00E0FB1202AC4040E4FFFEFDFC9002D2E064
:10382B00F8A3E0F9A3E0FAA3E0FB1202AC60284096
:10383B0026124CCB7BFF7A4279CE7D021233B575C3
:10384B00AA0575AA0A75A91F9000A3E0700690003F
:10385B0094E070EB7F02229002D6E0FCA3E0FDA384
:0D386B00E0FEA3E0FF90003212091A7F007A
:01387800222D
:061E9C0090022A12091A4F
:101EA20090022E120926000000009002321209262A
:101EB2000000000090023612092600000000900285
:101EC2003A1209260000000090023E120926000084
:101ED20000001221D590023A12091A9000B8E0646B
:101EE2000160030221D4FFFEFDFC90022AE0F8A368
:101EF200E0F9A3E0FAA3E0FB1202AC600250030295
:101F0200200A90009BE06003021F8E90006FE07039
:101F12003F900022E0FCA3E0FDA3E0FEA3E0FF125D
:101F220013CBC004C005C006C007900056E0FCA356
:101F3200E0FDE412031EA804A905AA06AB07D00718
:101F4200D006D005D0041202AC50030221D4802165
:101F5200900022E0FCA3E0FDA3E0FEA3E0FF121349
:101F6200CB7BE77AFB791F78411202AC5003022146
:101F7200D4900022E0FCA3E0FDA3E0FEA3E0FF90EA
:101F8200001E12091A90009B7401F02290006FE06B
:101F9200703F900022E0FCA3E0FDA3E0FEA3E0FF7F
:101FA2001213CBC004C005C006C007900056E0FC67
:101FB200A3E0FDE412031EA804A905AA06AB07D0FC
:101FC20007D006D005D0041202AC50030221D480FF
:101FD20023900022E0FCA3E0FDA3E0FEA3E0FF12B9
:101FE20013CB7BE77AFB791F78411202AC60025077
:101FF200030221D4900022E0FCA3E0FDA3E0FEA3B3
:10200200E0FF90001E02091AE4FFFEFDFC90022A86
:10201200E0F8A3E0F9A3E0FAA3E0FB1202AC40036C
:102022000221D490009BE070030221D490022AE0A6
:10203200FCA3E0FDA3E0FEA3E0FFE4FBFA798078D5
:10204200BF12010690022A12091A90006DE0640183
:1020520060030221117FCD7ECC7D4C7C3E90002A14
:10206200E0F8A3E0F9A3E0FAA3E0FB120106900076
:102072001EE0F8A3E0F9A3E0FAA3E0FB1202AC60D1
:1020820002507790005BE0FCA3E0FDE412031EA87F
:1020920004A905AA06AB0790002EE0FCA3E0FDA36D
:1020A200E0FEA3E0FF12020F90023E12091A900214
:1020B2003EE0F8A3E0F9A3E0FAA3E0FBC000C00110
:1020C200C002C00390005DE0FCA3E0FDE412031E29
:1020D200D003D002D001D00012010690023E1209B4
:1020E2001A90023E12139D90023212091AE4FFFE68
:1020F2007D407C4090023E02212412139A900232CB
:1021020012091AE4FFFE7D407C4090002E801312DB
:10211200139A90023212091AE4FFFE7D407C40902D
:10212200002EE0F8A3E0F9A3E0FAA3E0FB12010617
:1021320090001EE0F8A3E0F9A3E0FAA3E0FB12008E
:10214200151213CB90023612091A900232E0FCA348
:10215200E0FDA3E0FEA3E0FF90022AE0F8A3E0F98D
:10216200A3E0FAA3E0FB1202AC4067900236E0FC67
:10217200A3E0FDA3E0FEA3E0FF90022AE0F8A3E0C3
:10218200F9A3E0FAA3E0FB1202AC60025044E4FDC2
:102192007F03123EEA90001E12092600000000E4AE
:1021A20090009BF090000EE0FCA3E0FDA3E0FEA3F4
:1021B200E0FF90003212091A90023AE0FCA3E0FD1F
:1021C200A3E0FEA3E0FF1203579002467401F0124F
:0221D2000F718B
:0121D40022E8
:104C9C009002F8120926000000001221D59002F8AB
:104CAC0012091A9000B8E0B401149002F8E0FCA3C9
:0E4CBC00E0FDA3E0FEA3E0FF90003212091A13
:014CCA0022C7
:0B387900E0FCA3E0FDA3E0FEA3E0FFE5
:063884009002DA12091A9D
:10388A009002DE1209260000000090006DE0B401EB
:10389A005A90005BE0FCA3E0FDE412031EA804A911
:1038AA0005AA06AB0790002EE0FCA3E0FDA3E0FE0C
:1038BA00A3E0FF12020F9002DE12091A9002DEE064
:1038CA00F8A3E0F9A3E0FAA3E0FBC000C001C0023C
:1038DA00C00390005FE0FCA3E0FDE412031ED003E6
:1038EA00D002D001D000120106800E90002EE0FC1A
:1038FA00A3E0FDA3E0FEA3E0FF9002DE12091A9006
:10390A0002DEE0FCA3E0FDA3E0FEA3E0FFE4FBFA95
:10391A00F9784012020F9002DE12091AE4FFFEFD46
:10392A00FC9002DEE0F8A3E0F9A3E0FAA3E0FB12C0
:10393A0002AC501E9002DEE0FCA3E0FDA3E0FEA371
:10394A00E0FFE4FBFA798078BF1201069002DE12EA
:10395A00091A9002DEE0F8A3E0F9A3E0FAA3E0FB7B
:10396A00900032E0FCA3E0FDA3E0FEA3E0FF12001A
:10397A00119002DAE0F8A3E0F9A3E0FAA3E0FB125F
:10398A0002AC606740659002DEE0FCA3E0FDA3E0C4
:10399A00FEA3E0FF900032E0F8A3E0F9A3E0FAA367
:1039AA00E0FB1200159002DAE0F8A3E0F9A3E0FACE
:1039BA00A3E0FB1202AC5033900005E004F070065D
:1039CA00900004E004F0C3900005E0940F90000416
:1039DA00E064809480401B9002DAE0FCA3E0FDA33F
:1039EA00E0FEA3E0FF90003202091AE4900004F01E
:0239FA00A3F038
:0139FC0022A8
:1027BE009001B5120926000000009001B9120926F9
:1027CE00000000009001BD120926000000009001DB
:1027DE00C112092600000000900068E004F07006A7
:1027EE00900067E004F0124CCB7BFF7A4279D47DE7
:1027FE00011233B57BFF7A4279DAE4FD1233B57BF1
:10280E00FF7A4279E07D021233B5E49001DDF0905B
:10281E0001DDE0640C60051241D480F3900026E0E7
:10282E00FCA3E0FDA3E0FEA3E0FF9001B912091A9C
:10283E007FD07E07124D70124CCB7BFF7A4279D43B
:10284E007D011233B57BFF7A4279E2E4FD1233B596
:10285E007BFF7A4279E87D021233B5E49001DDF018
:10286E009001DDE0640C60051241D480F390002AE3
:10287E00E0FCA3E0FDA3E0FEA3E0FF9001BD120982
:10288E001A9001B9E0F8A3E0F9A3E0FAA3E0FBA3E4
:10289E00E0FCA3E0FDA3E0FEA3E0FF120011900117
:1028AE00C112091A9001C1E0F8A3E0F9A3E0FAA35E
:1028BE00E0FBC000C001C002C003900059E0FCA3C1
:1028CE00E0FD7E007F64120762AC06AD07E41203E2
:1028DE001ED003D002D001D0001201069001C11209
:1028EE00091A90002AE0FCA3E0FDA3E0FEA3E0FF9E
:1028FE00900026E0F8A3E0F9A3E0FAA3E0FB1200B3
:10290E001190002A12091A90002AE0F8A3E0F9A308
:10291E00E0FAA3E0FBC000C001C002C00390005962
:10292E00E0FCA3E0FD7E007F64120762AC06AD07FB
:10293E00E412031ED003D002D001D0001201069083
:10294E00002A12091A90002AE0FCA3E0FDA3E0FE83
:10295E00A3E0FFA312091A900056E0FCA3E0FDE4E9
:10296E0012031E9001B512091A9001B5E0F8A3E00A
:10297E00F9A3E0FAA3E0FBC000C001C002C00390BF
:10298E000058E0FCE41203239001C912091A7F00DB
:10299E007E007D207C411239FDD003D002D001D0C3
:1029AE00001201069001B512091A9001B5E0FCA3C0
:1029BE00E0FDA3E0FEA3E0FFC004C005C006C00713
:1029CE0090005BE0FCA3E0FDE412031EA804A90541
:1029DE00AA06AB07D007D006D005D00412020F907E
:1029EE0001B512091A90002EE0FCA3E0FDA3E0FE53
:1029FE00A3E0FF9001B5E0F8A3E0F9A3E0FAA3E0AD
:102A0E00FB12020F90002E12091AE4FFFEFDFC903D
:102A1E00002AE0F8A3E0F9A3E0FAA3E0FB1202AC6F
:102A2E00501E90002AE0FCA3E0FDA3E0FEA3E0FF11
:102A3E00E4FBFA798078BF12010690002A12091A77
:102A4E00124CCB7BFF7A4279ED7D011233B57BFFC1
:102A5E007A4279F3E4FD1233B57B01E4FD7F021275
:102A6E0044DC7BFF7A4279F57D021233B5124E714A
:102A7E00124E719001EC7401F0E49001EEF09001B1
:0C2A8E00EEE070051241D480F5024CCB44
:0524D700900305EFF089
:1024DC00E4900307F09001E804F0124CCB90006DEF
:1024EC007401F0A3F0900305E07009900056F0A37E
:1024FC00740F8031900305E0B4010A900056E4F0AB
:10250C00A374148020900305E0B4020A900056E4F2
:10251C00F0A3741E8069900305E0B405209000566A
:10252C00E4F0A3741EF090005BE4F0A37405F0A338
:10253C00E4F0A37402F0A3E4F0A304802B90030551
:10254C00E0B4062C900056E4F0A3741EF090005BEF
:10255C00E4F0A37402F0A3E4F0A37402F0A3E4F09B
:10256C00A37402F0E490006DF09000587403802B7B
:10257C00900305E0B40339900056E4F0A37428F0FE
:10258C0090005BE4F0A3740AF0A3E4F0A37405F0EC
:10259C00A3E4F0A37402F090005804F090006F7460
:1025AC0001F0FDE4FF123EEA90008D7401F08036DC
:1025BC00900305E0B4042F900056E4F0A3743CF0B3
:1025CC0090005BE4F0A37402F0900058F0E49000EB
:1025DC006FF090006EF07D017F01123EEAE49000F6
:1025EC008DF090006DF0900056E0FCA3E0FDE4123D
:1025FC00031E900058E090028AF0A37401F0123D83
:10260C00CB900059E4F0A37464F09000707402F065
:10261C00A314F09000757403F0E4900074F0900033
:10262C007704F0A3F0A3F090007DF0E4A3F0A37482
:10263C0005F0E490006BF0A3F090003E1209260028
:10264C00000000E490008BF0A37402F0E490007C96
:10265C00F09000421209260000000090004612097A
:10266C00260000000090002A1209260000000090AD
:10267C0000261209260000000090002E12092600E8
:10268C000000009000BA7401F090004A1209260074
:10269C0000000090004E12092600000000E490009B
:1026AC0067F0A3F0A3F0A3F09001EC04F012000388
:1026BC00900306EFF0900306E06408602B9001EEA7
:1026CC00E0702575AA0575AA0A75A91F120003905A
:1026DC000306EFF0900094E070030227BD90030610
:1026EC00E060D2124EA680CD9001EEE06401702A1B
:1026FC00124CCB7BFF7A4279FB7D021233B59000F2
:10270C00A3E0701375AA0575AA0A75A91F12000318
:10271C00900094E070E8220227B89001EEE0B4013A
:10272C0005124CCB805F7F0E122A9A7F0D122A9ACB
:10273C00E4FF122A9A7F01122A9A7F02122A9A7BAC
:10274C00FF7A4379017D021233B5124E71124E712C
:10275C00E49001EEF09001EC04F0E4900306F090AC
:10276C000306E06408601E9001EEE0701875AA057F
:10277C0075AA0A75A91F120003900306EFF09000CA
:10278C0094E070DB22124CCB7BFF7A4279FB7D020A
:10279C001233B59000A3E0701375AA0575AA0A75DB
:1027AC00A91F120003900094E070E822E4900094BA
:0127BC00F02C
:0127BD0022F9
:102D6600EFB401031200069000A4E0B4010E900037
:102D760079E0B40107E4900094F0FF22900097E018
:102D8600B401037F002290009EE07011900099E04C
:102D960070047D018002E4FD7F05123EEAE49000A6
:102DA6009FF09000B3E0640160089000B2E0640117
:102DB600701E7BFF7A4379077D011233B57BFF7A5C
:102DC60043790D7D021233B57BFF7A437913802454
:102DD6009000B4E06401702B7BFF7A4379077D0194
:102DE6001233B57BFF7A43791A7D021233B57BFF26
:102DF6007A437920E4FD1233B5E4FD7F06123EEAFC
:102E06007F002290009EE06003022EC59000ABE09A
:102E16006401703D900077E064017035FFFEFDFCB3
:102E2600900006E0F8A3E0F9A3E0FAA3E0FB1202A3
:102E3600AC701E90008BE0B40117900099E0601111
:102E460090009BE0700B121798900094E07002FFC0
:102E56002290009DE060047D018002E4FD7F041263
:102E66003EEA90006FE0B401067D01E4FF800A901F
:102E7600006FE070077D017F01123EEA7F6F7E12D0
:102E86007D037CBA900006E0F8A3E0F9A3E0FAA37C
:102E9600E0FB1202AC6021401F7F6F7E127D037C37
:102EA6003A900006E0F8A3E0F9A3E0FAA3E0FB12EB
:102EB60002AC50047D018002E4FD7F02123EEAE48A
:102EC6009000ADF09000A9E06002801DE4FFFEFDD9
:102ED600FC900006E0F8A3E0F9A3E0FAA3E0FB12F9
:102EE60002AC50051240E98003121B4A90009BE099
:102EF6006066E4FFFE7DA07C4190002EE0F8A3E032
:102F0600F9A3E0FAA3E0FB12010690001EE0F8A385
:102F1600E0F9A3E0FAA3E0FB120015900090E0F8B8
:102F2600A3E0F9A3E0FAA3E0FB1202AC401790007D
:102F360096E0701190008FE0606F9000A27401F02F
:102F46004390208064900099E07003022FD1900195
:102F5600F1E064017075806BE4FFFE7DA07C41901A
:102F6600002EE0F8A3E0F9A3E0FAA3E0FB120106C5
:102F7600900032E0F8A3E0F9A3E0FAA3E0FB120028
:102F860015900090E0F8A3E0F9A3E0FAA3E0FB12A5
:102F960002AC4021900096E0701B90008FE0600923
:102FA6009000A27401F04390209001F37401F09018
:102FB60000A2F08016900099E060109001F1E0B454
:0E2FC6000109E49000A2F05390DFF07F00229A
:101B4A009002E212092600000000900058E0FCE42E
:101B5A001203239001C912091A7F007E007D207C9E
:101B6A00411239FDC004C005C006C00790005BE001
:101B7A00FCA3E0FDE412031ED003D002D001D00082
:101B8A0012020FE4FBFA79107841120106C004C070
:101B9A0005C006C007900056E0FCA3E0FDE412036E
:101BAA001ED003D002D001D0001200159002E61216
:101BBA00091A900036E0F8A3E0F9A3E0FAA3E0FBE3
:101BCA0090000EE0FCA3E0FDA3E0FEA3E0FF1200FC
:101BDA00119002E212091A900012E0FCA3E0FDA3A0
:101BEA00E0FEA3E0FF9002E2E0F8A3E0F9A3E0FA46
:101BFA00A3E0FB1202AC600250269002E6E0FCA3CE
:101C0A00E0FDA3E0FEA3E0FF90000AE0F8A3E0F9FC
:101C1A00A3E0FAA3E0FB1202AC60025003021D101B
:101C2A009000A8E06003021D1090009EE0701390DF
:101C3A00006CE004F0700690006BE004F07F06127E
:101C4A002A9A90009E7401F0120000E4FD7F0612A9
:101C5A003EEA7BFF7A437927E4FD1233B590006EA2
:101C6A00E07BFFB401117A43792E7D011233B57BF3
:101C7A00FF7A437934800F7A43793A7D011233B57A
:101C8A007BFF7A4279E27D021233B59001E074015A
:101C9A00F0E49001E2F09001E2E0700B75AA05759C
:101CAA00AA0A75A91F80EF900036E0F8A3E0F9A30D
:101CBA00E0FAA3E0FB90000EE0FCA3E0FDA3E0FE47
:101CCA00A3E0FF12001190003EE0F8A3E0F9A3E0C0
:101CDA00FAA3E0FB1202AC4003021E9B900036E01E
:101CEA00F8A3E0F9A3E0FAA3E0FB90000EE0FCA35E
:101CFA00E0FDA3E0FEA3E0FF12001190003E1209EE
:101D0A001A7F06022A9AE490009EF090000AE0FCEC
:101D1A00A3E0FDA3E0FEA3E0FF900058E090028A52
:101D2A00F0A37401F0123DCB90009DE07047FFFED6
:101D3A00FDFC90000AE0F8A3E0F9A3E0FAA3E0FBB7
:101D4A001202AC7030FFFEFDFC900000E0F8A3E048
:101D5A00F9A3E0FAA3E0FB1202AC60194017900065
:101D6A001612092600000000E4900076F09000A701
:101D7A00F0900076F090000AE0FCA3E0FDA3E0FEFC
:101D8A00A3E0FF90000012091AE4FFFEFDFC900098
:101D9A000AE0F8A3E0F9A3E0FAA3E0FB1202AC70B0
:101DAA000E90009DE070089000B7E0700204F09079
:101DBA000075E0FBC39403900016E0FCA3E0FDA3CA
:101DCA00E0FEA3E0FF500690028AEB8007900076BF
:101DDA00E090028AF0A37402F0123DCB90000AE070
:101DEA00FCA3E0FDA3E0FEA3E0FF900016E0F8A349
:101DFA00E0F9A3E0FAA3E0FB12010690001A120927
:101E0A001A900070E0FCE41203239001C912091A27
:101E1A007F007E007D207C411239FDA804A905AA15
:101E2A0006AB077FF07E237D747C4912020F900077
:101E3A001AE0F8A3E0F9A3E0FAA3E0FB1202AC600F
:101E4A000D400B7BFF7A437940E4FD0233B5E4FF92
:101E5A00FEFDFC90001AE0F8A3E0F9A3E0FAA3E083
:101E6A00FB1202AC601D401B90001AE0FCA3E0FDCF
:101E7A00A3E0FEA3E0FF900070E090028AF0E4A3E2
:101E8A00F0800BE490028AF0A3F0FFFEFDFC123D05
:011E9A00CB7C
:011E9B002224
:1040E9009000AD7401F0E490009EF090009BE064B4
:1040F90001706790001EE0FCA3E0FDA3E0FEA3E0D1
:10410900FF1213CBC004C005C006C007E4FFFE7D43
:10411900807CBF90000AE0F8A3E0F9A3E0FAA3E0ED
:10412900FB120106A804A905AA06AB07D007D00609
:10413900D005D0041202AC6002501F90000AE0FCC6
:10414900A3E0FDA3E0FEA3E0FF900058E090028AFF
:10415900F0A37401F0123DCB800B7BFF7A43790702
:104169007D011233B590009DE060087BFF7A4379A9
:1041790040801F90001612092600000000E49000FC
:1041890076F090001A120926000000007BFF7A439E
:104199007947E4FD1233B5900075E0FBC3940390B1
:1041A9000016E0FCA3E0FDA3E0FEA3E0FF500690AB
:1041B900028AEB8007900076E090028AF0A37402ED
:0B41C900F0123DCBE4FD7F02023EEA55
:10355400E490030AF0A3F090009DE090030B600553
:103564007403F080037401F0E490030AF090030BF9
:10357400E0FF90030AE0FEC3EF6480F8EE648098F5
:1035840050137F01123FEB90000612091A90030AB0
:10359400E004F080D89000B3E0640160079000B2CA
:1035A400E0B4010B7BFF7A43794E7D010233B59081
:1035B4000077E0B4010C90009BE0700690000612C6
:1035C4003879900006E0FCA3E0FDA3E0FEA3E0FF51
:1035D40090000E12091A900006E0FCA3E0FDA3E09F
:1035E400FEA3E0FF90009012091A900006E0FCA3ED
:1035F400E0FDA3E0FEA3E0FF900032E0F8A3E0F9D1
:10360400A3E0FAA3E0FB12001190000612091A903D
:103614000006E0FCA3E0FDA3E0FEA3E0FF9000228F
:1036240012091A9000A9E0B4010590000E80509090
:10363400009BE0B40146900006E0FCA3E0FDA3E09B
:10364400FEA3E0FF90009012091A900006E0FCA38C
:10365400E0FDA3E0FEA3E0FF90001EE0F8A3E0F984
:10366400A3E0FAA3E0FB12001190000612091A90DD
:10367400009EE070077D017F03123EEA900006E0A1
:10368400FCA3E0FDA3E0FEA3E0FF1213CB90000631
:1036940012091AE4FFFEFDFC900006E0F8A3E0F92D
:1036A400A3E0FAA3E0FB1202AC500D9000A9E07075
:1036B4000790009F04F0801CE4FFFEFDFC900006D0
:1036C400E0F8A3E0F9A3E0FAA3E0FB1202AC700473
:1036D40090009FF0900006E0FCA3E0FDA3E0FEA3B1
:0636E400E0FFA312091A29
:0136EA0022BD
:10139A0090002EE4FFFE7D407C40E0F8A3E0F9A334
:1013AA00E0FAA3E0FB120106A804A905AA06AB0706
:1013BA0090001EE0FCA3E0FDA3E0FEA3E0FF120004
:0113CA001111
:0613CB0090021112091A44
:1013D1009002151209260000000090021912092638
:1013E1000000000090021D1209260000000090027A
:1013F1002112092600000000900225120926000092
:101401000000E4900229F0FFFEFDFC900211E0F8DB
:10141100A3E0F9A3E0FAA3E0FB1202AC502490028E
:10142100297401F0900211E0FCA3E0FDA3E0FEA30A
:10143100E0FFE4FBFA798078BF12010690021112F5
:10144100091A90006DE07050900058E0FCE412031E
:10145100239001C912091A7F007E007D207C411270
:1014610039FDC004C005C006C00790005BE0FCA3C5
:10147100E0FDE412031ED003D002D001D00012021D
:101481000F90022512091A90002EE0F8A3E0F9A3AB
:10149100E0FAA3E0FB0216857FCD7ECC7DCC7C3DBE
:1014A10090002AE0F8A3E0F9A3E0FAA3E0FB12011F
:1014B10006900211E0F8A3E0F9A3E0FAA3E0FB1221
:1014C10002AC6005400302156E9002151209260058
:1014D10000000090005BE0FCA3E0FDE412031EC0ED
:1014E10004C005C006C00790005FE0FCA3E0FDE476
:1014F10012031ED003D002D001D00012020F9002BD
:101501001512091A900058E0FCE41203239001C956
:1015110012091A7F007E007D207C411239FDC00432
:10152100C005C006C00790005FE0FCA3E0FDE41227
:10153100031ED003D002D001D00012020F90022569
:1015410012091A900215E0FCA3E0FDA3E0FEA3E05E
:10155100FF90002EE0F8A3E0F9A3E0FAA3E0FB126C
:101561000106A804A905AA06AB070216857FCD7E50
:10157100CC7D4C7C3E90002AE0F8A3E0F9A3E0FA90
:10158100A3E0FB120106900211E0F8A3E0F9A3E049
:10159100FAA3E0FB1202AC6005400302163890008A
:1015A1005BE0FCA3E0FDE412031EC004C005C0061D
:1015B100C00790005DE0FCA3E0FDE412031ED00330
:1015C100D002D001D00012020F90021512091A9018
:1015D1000058E0FCE41203239001C912091A7F00AC
:1015E1007E007D207C411239FDC004C005C006C0CB
:1015F1000790005DE0FCA3E0FDE412031ED003D0E0
:1016010002D001D00012020F90022512091A900295
:1016110015E0FCA3E0FDA3E0FEA3E0FF90002EE0B7
:10162100F8A3E0F9A3E0FAA3E0FB120106A804A9DC
:1016310005AA06AB07804D900058E0FCE412032395
:101641009001C912091A7F007E007D207C41123968
:10165100FDC004C005C006C00790005BE0FCA3E02C
:10166100FDE412031ED003D002D001D00012020FFC
:1016710090022512091A90002EE0F8A3E0F9A3E0E8
:10168100FAA3E0FB900211E0FCA3E0FDA3E0FEA3BE
:10169100E0FF12020F90021D12091A90021DE0FCD8
:1016A100A3E0FDA3E0FEA3E0FF1203579002211285
:1016B100091A90021DE0FCA3E0FDA3E0FEA3E0FFF8
:1016C100C004C005C006C007A3E0FCA3E0FDA3E081
:1016D100FEA3E0FFEC120319A804A905AA06AB07B3
:1016E100D007D006D005D00412001190021D1209B6
:1016F1001A900221E0F8A3E0F9A3E0FAA3E0FBC00D
:1017010000C001C002C003E4FFFEFD7C4090021D49
:10171100E0F8A3E0F9A3E0FAA3E0FB12010612034B
:1017210057D003D002D001D000EB2FFFEA3EFEE9F3
:101731003DFDE83CFC90022112091A900221E0FCD7
:10174100A3E0FDA3E0FEA3E0FFEC12031990022544
:10175100E0F8A3E0F9A3E0FAA3E0FB12010690028E
:101761001912091A900229E0601E900219E0FCA3E7
:10177100E0FDA3E0FEA3E0FFE4FBFA798078BF126D
:10178100010690021912091A900219E0FCA3E0FD6A
:06179100A3E0FEA3E0FF4F
:01179700222F
:101798009001861209260000000090018A1209268D
:1017A8000000000090018E12092600000000E4905D
:1017B8000192F0A3F0A304F078A57C01FD7BFF7AE9
:1017C8004379667E007F061206D278AB7C017D01E4
:1017D8007BFF7A43796C7E007F071206D2E4900182
:1017E800B2F0A3F0A3F078957C017D017BFF7A43EA
:1017F8007954120A6990002EE0FCA3E0FDA3E0FEF4
:10180800A3E0FF1213CB90018E12091A9001E47421
:1018180001F0E49001E6F0900192F0A3F0900192BB
:10182800E0FEA3E0FFC3940BEE648094805061C394
:10183800EF9405EE648094805019900192A3E024FF
:1018480095F58274013EF583E0FD74A52FF5827449
:10185800018028C3900193E0940B900192E064808A
:101868009480501CE0FEA3E0FF2495F58274013EAD
:10187800F583E0FD74A62FF58274013EF583EDF043
:10188800900193E004F07095900192E004F0808D4F
:10189800E49000A2F05390DFFD7F06123EEA7BFF42
:1018A8007A4379077D021233B57BFF7A437940E4A6
:1018B800FD1233B5E490028AF0A304F07F007E00A5
:1018C8007D007C00123DCB900194E07003021B2642
:1018D800900094E07007900194F0021AFB9001E6E2
:1018E800E07003021AEDE4FF123FEB900186120943
:1018F8001A900077E0B4010C90009BE0700690010C
:1019080086123879900186E0FCA3E0FDA3E0FEA3EF
:10191800E0FF90000E12091A900186E0FCA3E0FD9A
:10192800A3E0FEA3E0FF900032E0F8A3E0F9A3E013
:10193800FAA3E0FB12001190018612091A900186A1
:10194800E0FCA3E0FDA3E0FEA3E0FFA312091A90C8
:101958000186E0FCA3E0FDA3E0FEA3E0FF1213CBA9
:1019680090018612091A90018EE0FCA3E0FDA3E025
:10197800FEA3E0FF900186E0F8A3E0F9A3E0FAA354
:10198800E0FB1202AC502BE4FFFE7D807CBF90018F
:101998008EE0F8A3E0F9A3E0FAA3E0FB12010690B9
:1019A8000186E0F8A3E0F9A3E0FAA3E0FB1202AC99
:1019B8005007E4900194F0800E120003EF6008E4F1
:1019C800900194F0124EA6900194E07003021AFB65
:1019D8001200009001B4EFF060051200008005E4E9
:1019E800900194F0900097E06003021AE09001954E
:1019F800E09001B2F0E4900192F0A3F0900192E03F
:101A0800FEA3E0FF2496F58274013EF583E0FD74A1
:101A1800952FF58274013EF583EDF0900193E00473
:101A2800F07006900192E004F0900192E07004A337
:101A3800E0640E70C79001B2E090019FF0E490015D
:101A480092F0A3F0900192E0FEA3E0FFC3940BEEA6
:101A5800648094805061C3EF9405EE648094805054
:101A680019900192A3E02495F58274013EF583E074
:101A7800FD74A52FF58274018028C3900193E0942A
:101A88000B900192E064809480501CE0FEA3E0FF7C
:101A98002495F58274013EF583E0FD74A62FF58246
:101AA80074013EF583EDF0900193E004F070959099
:101AB8000192E004F0808D7BFF7A4379607D01120A
:101AC80033B57B017A0179A57D021233B57B017AA2
:101AD8000179ABE4FD1233B59001E47401F0E490B0
:101AE80001E6F0800E120003EF6008E4900194F024
:101AF800124EA6900094E07004900194F09000A417
:101B0800E0640160030218CF900079E0640160038B
:101B18000218CF900094F0900194F00218CF900032
:101B2800A2E0600F90008FE060099000A27401F0BD
:101B380043902090018AE0FCA3E0FDA3E0FEA3E02F
:011B4800FF9D
:011B49002279
:10000E000203C3E86480F8E933E83360110460F05A
:10001E00ED33EC337009E8FCE9FDEAFEEBFF220458
:10002E0060DED3EB9FEA9EE99DE8C2E78CF0C2F753
:10003E0095F0400CE8CCF8E9CDF9EACEFAEBCFFB1F
:10004E0012038E85D0F05804700320D5B3E80470E7
:10005E00075002B2D50203CD92D5EC0460F7E4CC82
:10006E00C0E0C398F8603B94186008400DD0E0FBE8
:10007E000203A5E4FBFAC9FC8028E830E406E4C9D3
:10008E00FBE4CAFCE830E305E4C9CACBFCE854073C
:10009E006010F8C3E913F9EA13FAEB13FBEC13FC47
:1000AE00D8F130F52FC3E49CFCEF9BFFEE9AFEEDEA
:1000BE0099FDD0E0FBEF4E4D4C701222DB03020394
:1000CE00CAEC2CFCEF33FFEE33FEED33FDED30E7E3
:1000DE00EB0203A5EF2BFFEE3AFEED39FDD0E0FB70
:1000EE0050130BBB00030203CDED13FDEE13FEEF19
:0800FE0013FFEC13FC0203A543
:10010600EC4D6011E8497017ED33EC3304600DE4F3
:10011600FCFFFEFD22E933E8330470F80203C31244
:10012600038E58046009E4CC248150062850090245
:1001360003CD2840030203CAC0E0EB4A7044B980ED
:1001460006D0E0FB0203B9EF4E701CBD8008EBFF42
:10015600EAFEE9FD80EBE98DF0A4FEE5F00201EF91
:10016600E9CDF9EAFEEBFFEF89F0A4FCE5F0CE89D4
:10017600F0A42EFFE435F0CD89F0A42DFEE435F091
:100186008067EF4E7005BD80D780C3EF8BF0A4ACBF
:10019600F0EE8BF0A42CFCE435F0F8EF8AF0A42CFA
:1001A600E5F038FCE433CB8DF0A42CFCE5F03BF80D
:1001B600EE8AF0A42CFCE5F038F8E433CF89F0A4FD
:1001C6002CFCE5F038CF3400CE89F0A42FFFE5F003
:1001D6003EFEE433C98DF0A42EFEE5F039CD8AF05B
:1001E600A42FFFE5F03EFEE43DFD33D0E0FB5007D3
:1001F6000BBB000F0203CDEC2CFCEF33FFEE33FEFE
:06020600ED33FD0203A52B
:10020C000203CDEC5D046005E8590470030203C3DE
:10021C0012038E580460F6EC4860F2EC7004FDFE9C
:10022C00FF22C860DB2481C85009C39860025006C5
:10023C000203CA9850CAF582E9294B4A7005AB8271
:10024C000203B975F0007C1A7880C3EF9BEE9AED2F
:10025C0099400DC3EF9BFFEE9AFEED99FDE842F03D
:10026C00DC23ACF0D0E0FFD0E0FED0E0FDAB822090
:10027C00E7101BEB60BAEC2CFCEF33FFEE33FEED1A
:10028C0033FD0203A5E803F830E705C0F075F00074
:10029C00EF2FFFEE33FEED33FD40B830E7C280AAFE
:1002AC0074F8CC6480CCC86480C8F582046043C305
:1002BC00EB9FF5F0EA9E42F0E99D42F0E89C45F098
:1002CC0060305018E5825FFFE582F42B5582FB50BD
:1002DC00210ABA001D09B90019088016E5825BFBDA
:1002EC00E582F42F5582FF50090EBE00050DBD00AE
:1002FC00010CC3EB9FF5F0EA9E42F0E99D42F0E859
:0D030C009C45F06007CC4820E701B3EC22CF
:1003190075F020800E75F010800575F0087D007E5F
:10032900007F003392D530D503120832EC334010E8
:10033900EF33FFEE33FEED33FDEC33FCD5F0ED2268
:0E034900E5F0247EA2D513CC92E7CDCEFF22A4
:10035700EDD2E7CD33EC3392D524814006E4FFFE9E
:10036700FDFC22FCE4CFCECDCC24E0501174FF80FD
:10037700EDC3CC13CCCD13CDCE13CECF13CF04709A
:07038700F030D5DE02083260
:100AEE00E5082459F582E43401F583E005082290E7
:100AFE000156300703900159E475F00112095702AF
:100B0E0006F82000E97F2ED2008018EF540F2490B3
:100B1E00D43440D4FF30040BEF24BFB41A0050037A
:100B2E002461FFE50960021509050CE50C7002054C
:100B3E000B30070E900156E475F001120957EF02C3
:100B4E00073E024D497403D2078003E4C207F5083D
:100B5E0090015612096EE4F509F50BF50CE50960E6
:100B6E00077F20120B3180F5750AFFC201C200C249
:100B7E0002C203C205C206C208120AFDFF700D3082
:100B8E0007057F00120B42AF0CAE0B22B4255FC2DD
:100B9E00D5C204120AFDFF24D0B40A00501A75F013
:100BAE000A780930D50508B6FF0106C6A426F62038
:100BBE00D5047002D20380D924CFB41A00EF5004AA
:100BCE00C2E5D204020E34D20180C6D20080C0D259
:100BDE000280BCD2D580BAD20580B47F20120B31F0
:100BEE002002077401B5090040F1120AEEFF120B44
:100BFE0031020B6BD208D2068095120AEEFB120A56
:100C0E00EEFA120AEEF94A4B700679327A0F7BFF32
:100C1E0020022EE509602A7E008E8275830012075F
:100C2E001160060EEE650A70F0C2D5EBC0E0EAC0A8
:100C3E00E0E9C0E0EE120E95D0E0F9D0E0FAD0E097
:100C4E00FB1206F8FF60AAEBC0E0EAC0E0E9C0E0E4
:100C5E00120B31D0E02401F9D0E03400FAD0E0FBE1
:100C6E00E50A0460DCD50AD98087D20280A2120E72
:100C7E007760F7E50A700104120403A90A600DE516
:100C8E000A600914F50A120F1FEF60F3EA30E7024B
:100C9E00F404C3995079EAF4250A0430E701E40418
:100CAE00F50A800D120E7760C1EA050A250A1204B4
:100CBE0003EA900185F030E701E4250A04D50A0421
:100CCE0020050114120E95E4C0E0120F1F9001854D
:100CDE00E0601320E70714F0120B19802204F0D005
:100CEE00E014C0E07F00120B19E50A6007120B102A
:100CFE00150A800B300503120B10D0E0020B6BD0DF
:100D0E00E00480C4120E77609EE50A04120403907C
:100D1E000185EAF0E50A2005026001042404120EA2
:010D2E00952F
:100D2F0074FF04C0E0120F1F120B19E50A20050211
:100D3F006003120B10D0E0B50AE87F45120B239029
:100D4F000185E07F2B30E7047F2DF404C0E0120B08
:100D5F0031D0E075F00A84C0F0120B1AD0E0120BFC
:100D6F001A020B6B791080027908C206C20880083C
:100D7F00D2D5790A8004790AC2D5E50A047002F542
:100D8F000AE4FAFDFEFF120AEEFC7B0820011312A3
:100D9F000AEEFD7B1030000A120AEEFE120AEEFF79
:100DAF007B20EC3382D592D55013C3E43000069FDD
:100DBF00FFE49EFEE42001039DFDE49CFCE4CBF8E0
:100DCF00C201EC700CCFCECDCCE824F8F870F380D4
:100DDF0017C3EF33FFEE33FEED33FDEC33FCEB3394
:100DEF00FB994002FB0FD8E9EB300105F8D0E0C4C6
:100DFF0048B201C0E00AEC4D4E4F78207B0070C224
:100E0F00EAB50A0040BCC0E0120E97D0F0D0E02047
:100E1F000104C4C0E0C4B201C0F0120B1AD0F0D567
:100E2F00F0EB020B6B1209770C08530D73580BD9AB
:100E3F004C0BD5420D774F0D7F440D7F490BEE4381
:100E4F000D85550CB2460D12450C7C470F52500BB9
:100E5F00DD2D0BE12E0C042B0BE5230C02200F3B99
:100E6F002A0B9D4800000BFCE50AB4FF03750A0628
:100E7F00120AEEFC120AEEFD120AEEFE120AEEFF45
:100E8F0090017E020440790AA2D52003143005098F
:100E9F00B910020404B9080104A2D52006025001BA
:100EAF00042002689202B509005034C0E07F203060
:100EBF0003197F30A20272067205500F120EEEC296
:100ECF0002C206C205C2087F30800F300503E9C099
:100EDF00E0120B31300503D0E0F9D0E0B509CC308A
:100EEF0005177F30B9100C120B317F583004077F74
:100EFF00788003B90803120B313002057F2D020BE6
:100F0F00317F202008F87F2B2006F322920280CF1A
:100F1F007F00B40700500B247EF582E43401F58383
:100F2F00E0FF22286E756C6C2900D201120AEE3098
:100F3F0001F8C201780930D50108F6020B9D2D503A
:100F4F00434958120AEE2403B405004001E4900F00
:100F5F004D93120B22743A120B22D203750904021D
:020F6F000D7300
:1039FD009001C512091AE4FFFE7D807C3F9001C540
:103A0D00E0F8A3E0F9A3E0FAA3E0FB1202AC700624
:103A1D009001C5023B579001C5E0FCA3E0FDA3E07A
:103A2D00FEA3E0FF1203D8FBA3E0FCA3E0FDA3E09F
:103A3D00FEA3E0FF1203D8FFB40108E4FFFE7D8072
:103A4D007C3F22EF64046029EB64046024EBB40135
:103A5D0030E4FFFEFDFC9001C9E0F8A3E0F9A3E01E
:103A6D00FAA3E0FB1202AC60084006E4FFFEFDFC89
:103A7D00229001C9120926FFFFFFFF9001C9023BE9
:103A8D0057E49001CDF0A3F0FFFEFDFC9001C5E0E1
:103A9D00F8A3E0F9A3E0FAA3E0FB1202AC505F90AB
:103AAD0001C9E0FCA3E0FDA3E0FEA3E0FF12035774
:103ABD009001CDEEF0A3EFF0FDCCEECCEC12031E99
:103ACD00C8ECC8C9EDC9CAEECACBEFCB9001C9E0AD
:103ADD00FCA3E0FDA3E0FEA3E0FF120011E4FBFA5E
:103AED00F9F81202AC708A9001C5E0FCA3E0FDA3C9
:103AFD00E0FEA3E0FF1203F29001C512091A900136
:103B0D00C5E0FCA3E0FDA3E0FEA3E0FF123CD690D0
:103B1D0001C9E0F8A3E0F9A3E0FAA3E0FB12010666
:103B2D001247B29001C912091A9001CEE030E01788
:103B3D009001C9E0FCA3E0FDA3E0FEA3E0FF1203AA
:103B4D00F29001C912091A9001C9E0FCA3E0FDA38E
:063B5D00E0FEA3E0FF22E0
:10038E00E9D2E7C933E833F892D5EDD2E7CD33ECB5
:07039E0033FC5002B2D5222E
:1003A500EC30E7100FBF000C0EBE00080DBD0004B9
:1003B5000BEB6014A2D5EB13FCED92E7FD2274FF65
:1003C500FCFDFEFF22E480F8A2D574FF13FC7D80BE
:0303D500E480EFD2
:1003D800ED33EC33601004700FED547F7005740238
:0A03E80092E0227404220422E422B1
:1003F200ED33EC33600A047003BD8004ECB2E7FC19
:0104020022D7
:10040300F920E73624F950037907E4F42402FBE5E5
:1004130082158270021583DBF6E024FB501BE96032
:1004230014E4F0E582158270021583E004F0B40A47
:0D04330008E4F0D9EE7401F00A22C2D522CF
:10044000ED33EC3392D5FA602AB4FF33EDC2E77B8B
:10045000FF60067A047965E4227A04796E20D50477
:100460007A047969224E614E002B494E46002D498F
:100470004E4600E47A08F0A3DAFC7B00740722C041
:1004800083C082ECC0E0EDC0E0EEC0E0EFC0E0EA87
:1004900075F010A4CAABF075F04DA42BFBE435F059
:1004A000FCEA2410FAEB34C5FBEC34D9FCEDC2E7CE
:1004B000FF75F056A4F42411C5F0F434C58FF0A4F0
:1004C0002AE5F03BE43CF020E714120575D0E0FF8C
:1004D000D0E0FED0E0FDD0E0FC12020F8014F40466
:1004E000120575D0E0FFD0E0FED0E0FDD0E0FC12B8
:1004F0000106D082D083E0FAEDD2E7CD33EC33248D
:1005000082FBE4C3CF33CFCE33CECD33CD33DBF359
:100510007B0775F00A846004F0A31B0AE5F0F0A3E2
:100520008FF0740AA4FFACF08EF0740AA42CFEAC19
:10053000F050010C8DF0740AA42CFDE435F0F0A30A
:05054000DBDE74072260
:10477A0033DA929E35B16011377FE5FE392184899B
:10478A003AAEC3FF3C1D955B3D6358473E75FDF04D
:10479A003F3172183F800000C2D50203CD0203C325
:1047AA00BD80FA50F30203CAED33EC330460F17BA7
:1047BA003B7AAA79B8783F120106ED33EC3392D5E9
:1047CA00247B5011A2D570DB500BED448024045099
:1047DA0004A2D580CEEFFBEEFAEDF9ECF8120357FE
:1047EA00EFF582F404FC120323120015C0829047ED
:1047FA007A74091205C4ED33CC33D0F092D525F082
:0A480A00A2D57001C313CC13FD22E8
:103CA2003E9248DA3ECCCCCD3F2AAAAB400000007F
:103CB2003F8000003F9837F03FB504F33FD744FC04
:103CC2003E3172173EB172173F0515913EDE5BD948
:103CD200D20B8002C20BEDD2E7F8CD33EC33047085
:103CE2000BBD800592D50203CD0203C340FBD31462
:103CF20060F2F5F07C3FEE7A00C39496C8948B4054
:103D0200230AC89469C8941A401A0AC89468C894C5
:103D12001F40110AC8945AC89425400805F07A0039
:103D2200CDC2E7CDC0F09001CF12091AEA2323C019
:103D3200E024B2F582E4343CF58312090A1200153C
:103D4200ECC0E0EDC0E0EEC0E0EFC0E01208EE90A3
:103D520001CF1208FE120011D0E0FBD0E0FAD0E051
:103D6200F9D0E0B2E7F812020F9001CF12091A90CF
:103D72003CA274031205B59001CF1208FE1201068F
:103D8200D0E0600F24BEF582E4343CF58312090AC8
:103D92001200159001CF12091AD0E0C3947FFDE4FE
:103DA2009400FC12031E7B187A727931783F12015B
:103DB200069001CF1208FE120015300B0B7BD97A48
:093DC2005B79DE783E1201062255
:100545003F8000004120000042C80000447A0000BE
:10055500461C400047C35000497424004B18968040
:100565004CBEBC205A0E1BCA6753C21C749DC5AE37
:10057500FB60065407601C23231205A3EB54386067
:100585000912058F12059E120106ECF8EDF9EEFA37
:10059500EFCB22EB12059E80F1543803241C900505
:1005A50045FE93FC0EEE93FD0EEE930ECE93FF22C9
:1005B500C0E0EFFBEEFAEDF9ECF8120106D0E0F53C
:1005C500F0EFFBEEFAEDF9ECF81208EEA3A3A3A306
:1005D500E8C0E0E9C0E0EAC0E0EBC0E0C0F012012D
:1005E5000612090AA3A3A3A3120015D0F0D0E0FBBD
:0D05F500D0E0FAD0E0F9D0E0F8D5F0D42243
:030000000248A112
:0C48A100787FE4F6D8FD7581210248E81C
:10060200E709F608DFFA8046E709F208DFFA803EDA
:1006120088828C83E709F0A3DFFA8032E309F608C7
:10062200DFFA8078E309F208DFFA807088828C832F
:10063200E309F0A3DFFA806489828A83E0A3F608E3
:10064200DFFA805889828A83E0A3F208DFFA804CBD
:1006520080D280FA80C680D4806980F28033801094
:1006620080A680EA809A80A880DA80E280CA8033FD
:1006720089828A83ECFAE493A3C8C582C8CCC58375
:10068200CCF0A3C8C582C8CCC583CCDFE9DEE78045
:100692000D89828A83E493A3F608DFF9ECFAA9F0C4
:1006A200EDFB2289828A83ECFAE0A3C8C582C8CC1A
:1006B200C583CCF0A3C8C582C8CCC583CCDFEADE33
:1006C200E880DB89828A83E493A3F208DFF980CC95
:1006D20088F0EF60010E4E60C388F0ED2402B4048E
:1006E2000050B9F582EB2402B4040050AF23234535
:0606F20082239006527302
:1006F800BB010689828A83E0225002E722BBFE0200
:09070800E32289828A83E4932232
:10071100BB010CE58229F582E5833AF583E022509D
:1007210006E92582F8E622BBFE06E92582F8E222E7
:0D073100E58229F582E5833AF583E4932201
:10073E00BB010689828A83F0225002F722BBFE019A
:02074E00F32294
:10075000EF8DF0A4A8F0CF8CF0A428CE8DF0A42EBD
:02076000FE2277
:10076200BC000BBE0029EF8DF084FFADF022E4CC7B
:10077200F875F008EF2FFFEE33FEEC33FCEE9DEC44
:10078200984005FCEE9DFE0FD5F0E9E4CEFD22ED8A
:10079200F8F5F0EE8420D21CFEADF075F008EF2FD4
:1007A200FFED33FD4007985006D5F0F222C398FDC5
:0507B2000FD5F0EA2262
:1007B700C5F0F8A3E028F0C5F0F8E58215827002CD
:0607C7001583E038F0226A
:1007CD00A3F8E0C5F025F0F0E582158270021583DF
:0607DD00E0C838F0E8223C
:1007E300E88FF0A4CC8BF0A42CFCE98EF0A42CFCB5
:1007F3008AF0EDA42CFCEA8EF0A4CDA8F08BF0A433
:100803002DCC3825F0FDE98FF0A42CCD35F0FCEB91
:100813008EF0A4FEA9F0EB8FF0A4CFC5F02ECD3956
:0F082300FEE43CFCEAA42DCE35F0FDE43CFC22C3
:0E083200C3E49FFFE49EFEE49DFDE49CFC22D7
:10084000EB9FF5F0EA9E42F0E99D42F0EC6480C82F
:0608500064809845F022CF
:10085600EB9FF5F0EA9E42F0E99D42F0E89C45F0F8
:01086600226F
:10086700E8600FECC313FCED13FDEE13FEEF13FF6F
:03087700D8F12293
:10087A00BB010789828A83020ABE5005E9F8020A87
:10088A00B2BBFE05E9F8020ACA89828A830208EE27
:10089A00BB010DE58229F582E5833AF583020ABE9A
:1008AA005007E92582F8020AB2BBFE07E92582F859
:1008BA00020ACAE58229F582E5833AF5830208EE3F
:1008CA00BB010DE58229F582E5833AF58302091A0F
:1008DA005007E92582F8020AD6BBFE07E92582F805
:0408EA00020AE222FA
:1008EE00E493FC740193FD740293FE740393FF2250
:0C08FE00E0F8A3E0F9A3E0FAA3E0FB227D
:10090A00E493F8740193F9740293FA740393FB2243
:0C091A00ECF0A3EDF0A3EEF0A3EFF02250
:10092600A8828583F0D083D08212093D12093D1238
:10093600093D12093DE473E493A3C583C5F0C5835D
:10094600C8C582C8F0A3C583C5F0C583C8C582C81B
:01095600227E
:10095700F8E0FBA3A3E0F925F0F0E5821582700229
:070967001583E0FA38F022CD
:09096E00EBF0A3EAF0A3E9F0228A
:10097700D083D082F8E4937012740193700DA3A30F
:1009870093F8740193F5828883E473740293686023
:06099700EFA3A3A380DF23
:104D4900EFB40A07740D124D54740A309811A899DA
:104D5900B8130CC2983098FDA899C298B811F630CA
:074D690099FDC299F59922A2
:10099D00E709F60870FA8046E709F20870FA803E1A
:1009AD0088828C83E709F0A370FA807EE309F6084C
:1009BD0070FA8076E309F20870FA806E88828C8373
:1009CD00E309F0A370FA806289828A83E0A3F608B6
:1009DD0070FA805689828A83E0A3F20870FA804A01
:1009ED0080D280FA80C680D4806580F280318010FC
:1009FD0080A680EA809A80A880DA80E280CA803161
:100A0D0089828A83ECFAE493A3C8C582C8CCC583D6
:100A1D00CCF0A3C8C582C8CCC583CC70E9800D8944
:100A2D00828A83E493A3F60870F9ECFAA9F0EDFB42
:100A3D002289828A83ECFAE0A3C8C582C8CCC5831B
:100A4D00CCF0A3C8C582C8CCC583CC70EA80DD8943
:100A5D00828A83E493A3F20870F980CE88F0ED24A6
:100A6D0002B4040050C4F582EB2402B4040050BA61
:090A7D0023234582239009ED7347
:100A8600EF4E6012EF60010EEDBB010B89828A8387
:100A9600F0A3DFFCDEFA2289F05007F709DFFCA994
:0C0AA600F022BBFEFCF309DFFCA9F022EB
:1048AD00024AD9E493A3F8E493A34003F68001F2FE
:1048BD0008DFF48029E493A3F85407240CC8C3330C
:1048CD00C4540F4420C8834004F456800146F6DFDB
:1048DD00E4800B0102040810204080904373E47EB5
:1048ED00019360BCA3FF543F30E509541FFEE493D0
:1048FD00A360010ECF54C025E060A840B8E493A397
:10490D00FAE493A3F8E493A3C8C582C8CAC583CAC1
:10491D00F0A3C8C582C8CAC583CADFE9DEE780BE79
:014427000094
:0C0AB200E6FC08E6FD08E6FE08E6FF2270
:0C0ABE00E0FCA3E0FDA3E0FEA3E0FF22AB
:0C0ACA00E2FC08E2FD08E2FE08E2FF2268
:0C0AD600ECF608EDF608EEF608EFF6224C
:0C0AE200ECF208EDF208EEF208EFF22250
:00000001FF
