:07094F0000D28200C28222E7
:1007E100781712043B00000000E4FB78171204178D
:1007F1007801120404781712042312094F3080176C
:100801007817120417EF2401FFE43EFEE43DFDE4F6
:100811003CFC78171204230BBB18D078171204176D
:10082100ED6480FDEC781712042312094F12094F71
:0B08310012094F30000500D282C20007
:01083C002299
:07093F008F828E83E493FF19
:01094600228E
:10083D008E098F0AA2AF9208C2AF8509C3850AC27D
:10084D008DC1E4F5C4F5C5F5C690000BE0FFB4AA63
:10085D000A90000CE0B4550375C7030075C4057507
:10086D00C50A75C609EFB4AA0A90000CE0B4550389
:0E087D0075C703E4F5C4F5C5F5C6A20892AF31
:01088B00224A
:10088C008E098F0AA2AF9208C2AF8509C3850AC22E
:10089C00E4F5C4F5C5F5C690000BE0FFB4AA0A90C8
:1008AC00000CE0B4550375C7030075C40575C50A83
:1008BC0075C609EFB4AA0A90000CE0B4550375C7CD
:0C08CC000CE4F5C4F5C5F5C6A20892AF17
:0108D80022FD
:10060200C2AF7F057E001209135396F05397F04351
:10061200921A5393E54394405395BF4396105397D0
:10062200EFC284C2A4C283C296C281E4FFFE120951
:100632001330A20C30A10930A30630A00302075DDB
:10064200D284D2A4D283D296D281E4FFFE120913BD
:1006520020A205751305801B20A1057513048013C4
:1006620020A305751306800B20A00575130A8003CD
:100672007513FFE513F4702AC281FFFE12091320DD
:10068200A205751302801B20A1057513018013209A
:10069200A305751303800B20A00575130C80037549
:1006A20013FFE513F4702AC296FFFE12091320A26B
:1006B2000575130E801B20A105E4F513801320A3FA
:1006C2000575130F800B20A00575130D800375139C
:1006D200FFE513F4702AC283FFFE12091320A2055C
:1006E200751308801B20A105751307801320A3052D
:1006F200751309800B20A00575130B80037513FF7A
:10070200E513F4702AC2A4FFFE12091320A2057594
:100712001317801B20A105751316801320A30575DE
:100722001318800B20A00575131980037513FFE5BC
:1007320013F4702AC284FFFE12091320A205751356
:1007420013801B20A105751312801320A3057513B6
:1007520014800B20A00575131580037513FFC205C5
:100762005392E543931A5394BF4395405396E04303
:0F077200971FD284D2A4D283D296D281D2AF2243
:10046200C2AF75AA0575AA0A75A9BFE5EBB45C0906
:10047200E5ECB4D004D2048002C2047580FF75900A
:10048200DF75A0FFC282E4F59A759BFF759C3075FB
:100492009DFF759E04F594F595F5927593FFF5947D
:1004A2007595FFF5967597FF5392DF439205439337
:1004B200215393FB4394385395CF43950875B13438
:1004C20075A218758911758C80F58AC28875A88104
:1004D20075B80575F80690000A7419F0E490000DDD
:1004E200F0A3F07FF47E01120913C2AF75AA05755D
:1004F200AA0A75A91FD2AFC2081200065392DF439F
:1005020092054393215393FB4394385395CF4395DC
:1005120008C2AF75AA0575AA0A75A91FD2AFD2A8DB
:1005220030053220012F12060290000B74AAF0E56A
:0405320013B40C21D1
:10053600A37455F07F007E7012093F8F0805087F6F
:10054600007E7012088C7D377F007E7012083DD2C7
:0105560001A3
:1005570030074AC207C3E5159460E5149409400AB9
:100567001208D9E4F514F51580080515E51570028C
:100577000514C390000EE0946090000DE0940940CC
:100587000ED208120006E490000DF0A3F0800E9042
:10059700000EE004F0700690000DE004F0E4900017
:1005A7000BF0A3F0438710C2AF5396F05397F0D2E6
:1005B700A2D2A1D2A3D2A0C284C2A4C283C296C22D
:1005C70081FFFE12091330A20F30A10C30A30930AE
:1005D700A006C205C2018002D2055392E543931AD1
:1005E7005394BF4395405396E043971FD284D2A4B8
:0B05F700D283D296D281D2AF0204FE64
:10091300E4FDFCC3ED9FEC9E5015E4FBFA0BBB001A
:0F092300010AEB64A44A70F50DBD00010C80E4DD
:0109320022A2
:1008D900C2AFD28575AB097F017E00120913E5AB62
:1008E90020E20843AB04E5AB20E2FBAFAC7E00E4B9
:1008F900FCFD7BD87A03F9F81202ADE47BFFFAF923
:09090900F812033853ABF7D2AF2A
:0109120022C2
:0300030002078170
:10078100C0E0C0F0C083C082C0D075D000C000C03E
:1007910001C002C003C004C005C006C007C2AFC289
:1007A100001207E17817120417E4FC7817120423EA
:1007B100781712041778021203F17817120423D262
:1007C10007C289D2AFD007D006D005D004D003D05C
:1007D10002D001D000D0D0D082D083D0F0D0E0328E
:10000600E4F50CF50BF50AF509F50DF50E7512F884
:10001600751102F510F50FC2AFC20053A2E743A255
:100026000775B1F45391BF781712043B0000000026
:1000360075AA0575AA0A75A91FE59130E6FB5391C5
:10004600BF900010E5B2F0A3E5B3F0A3E5B4F0E489
:1000560090000FF0E0FCA3E0FDA3E0FEA3E0FFEDBF
:100066006480FDEC90000F12042F90000FA3E0FDBA
:10007600A3E0FEA3E0FFE4FC90000F12042F900023
:100086000FE0FCA3E0FDA3E0FEA3E0FF780212036D
:10009600F190000F12042F050E90000FE0FCA3E074
:1000A600FDA3E0FEA3E0C3950CFFEE950BFEED95D8
:1000B6000AFDEC9509FC120947E4FB7A02F9F8C33C
:1000C6001203CA4026781712041790000FE0F8A30F
:1000D600E0F9A3E0FAA3E02FFFEA3EFEE93DFDE8E2
:1000E6003CFC7817120423050D802190000FE0FCDC
:1000F600A3E0FDA3E0FEA3E0F50C8E0B8D0A8C09B0
:10010600781712043B00000000E4F50DE50DC394DA
:1001160004400E781712041778021203F18F0C8030
:1001260019E50EC3940A500302003690000FE0FC56
:10013600A3E0FDA3E0FEA3E0F50C8E0B8D0A8C096F
:10014600900008E0FEA3E0FB30044BAA06E4F9F8B1
:100156007F307E5E7D377C2B12033890000F1204B1
:100166002F90000FE0FCA3E0FDA3E0FEA3E0240037
:10017600FFE43EFEED3420FDE43CFC90000F12044B
:100186002F900008E0FEA3E0FBAA06E4F9F87FAC96
:100196007EDE7D248049AA06E4F9F87FE07EDF7DD5
:1001A600697C2B12033890000F12042F90000FE089
:1001B600FCA3E0FDA3E0FEA3E02400FFE43EFEED89
:1001C6003420FDE43CFC90000F12042F900008E060
:1001D600FEA3E0FBAA06E4F9F87F907E627D26FC8A
:1001E6001203388F128E118D108C0FE490000AF0D6
:1001F60090000FE0FCA3E0FDA3E0FEA3E0FFAB0C44
:10020600AA0BA90AA809C31203E090000FE0402335
:10021600F8A3E0F9A3E0FAA3E0FBE50C9BFFE50BEE
:100226009AFEE50A99FDE50998FC7817120423C29F
:10023600098020FCA3E0FDA3E0FEA3E0C3950CFF2C
:10024600EE950BFEED950AFDEC9509FC7817120468
:1002560023D209AB12AA11A910A80FC00078171251
:100266000417D00012033890000AEFF0C36480949C
:10027600C640037446F030090790000AE0F404F023
:1002860075B13475A2185391BFE4F50D3008157594
:10029600AA0575AA0A75A91F3089FDC289050DE54B
:0602A6000DB405EBD2AF20
:0102AC00222F
:03000000020933BF
:0C093300787FE4F6D8FD75812102046293
:1002AD00E88FF0A4CC8BF0A42CFCE98EF0A42CFCF0
:1002BD008AF0EDA42CFCEA8EF0A4CDA8F08BF0A46E
:1002CD002DCC3825F0FDE98FF0A42CCD35F0FCEBCD
:1002DD008EF0A4FEA9F0EB8FF0A4CFC5F02ECD3992
:0F02ED00FEE43CFCEAA42DCE35F0FDE43CFC22FF
:1002FC0075F008758200EF2FFFEE33FECD33CDCCB9
:10030C0033CCC58233C5829BED9AEC99E58298403B
:10031C000CF582EE9BFEED9AFDEC99FC0FD5F0D618
:10032C00E4CEFBE4CDFAE4CCF9A88222B800C1B942
:10033C000059BA002DEC8BF084CFCECDFCE5F0CB80
:10034C00F97818EF2FFFEE33FEED33FDEC33FCEBB9
:10035C0033FB10D703994004EB99FB0FD8E5E4F974
:10036C00FA227818EF2FFFEE33FEED33FDEC33FC61
:10037C00C933C910D7059BE99A4007EC9BFCE99A55
:10038C00F90FD8E0E4C9FAE4CCFB2275F010EF2F9A
:10039C00FFEE33FEED33FDCC33CCC833C810D7079A
:1003AC009BEC9AE899400AED9BFDEC9AFCE899F8D5
:0E03BC000FD5F0DAE4CDFBE4CCFAE4C8F92268
:1003CA00EB9FF5F0EA9E42F0E99D42F0EC6480C8AA
:0603DA0064809845F0224A
:1003E000EB9FF5F0EA9E42F0E99D42F0E89C45F073
:0103F00022EA
:1003F100E8600FECC313FCED13FDEE13FEEF13FFEA
:03040100D8F1220D
:10040400E8600FEFC333FFEE33FEED33FDEC33FC56
:03041400D8F122FA
:0C041700E6FC08E6FD08E6FE08E6FF2211
:0C042300ECF608EDF608EEF608EFF62205
:0C042F00ECF0A3EDF0A3EEF0A3EFF02240
:10043B00D083D082E493F608740193F60874029388
:09044B00F608740393F6740473BF
:08094700EC33500312045422AA
:0E045400C3E49FFFE49EFEE49DFDE49CFC22B9
:00000001FF
