:10379100123CAE123C62123CEC123C2B123CC512A4
:1037A10038B1123B2D7F887E13123B811222099082
:1037B1000052E07004A3E0641E60057F02121FC086
:1037C100E4FFFE7D807C3F90002EE0F8A3E0F9A3AA
:1037D100E0FAA3E0FB1202AC50031216A61230ADC0
:1037E1001223C7900006E0FCA3E0FDA3E0FEA3E0E6
:0F37F100FF9000EA7402F0A314F0122D7F80DE27
:103C2B005390DF5390EF4394205395DFE4F59A754F
:0C3C3B009BA0759C6C759D50759E04222A
:103CAE00C2AF75AA0575AA0A75A91FD2AF75AA0566
:073CBE0075AA0A75A91F2277
:103C620075800C75904075A0117592F0E4F593750E
:0A3C720094BFF5957596EEF59722C4
:0A3CEC005392DF439320438020220F
:103CC50075A88275B802E4F589F58A758C7F758EBD
:053CD5000443881022E9
:103C4700E4FFFE75AB09E5AB20E20843AB04E5AB47
:0A3C570020E2FBAFAC7E0053ABF798
:013C61002240
:03000B0002358932
:10358900C0E0C083C082C0D075D000C006C007901B
:103599000177E0FEA3E0FFD39400EE9400402EEF04
:1035A90094C8EE94005026EF64014E7003439010C6
:1035B900900178E004F07006900177E004F0900142
:1035C90077E07004A3E064C870035390EF90017B27
:1035D900E0FEA3E0FFD39400EE94004013EF94883B
:1035E900EE9413500BE004F0700690017BE004F0B8
:1035F900758ACF758CB5438810D007D006D0D0D046
:0636090082D083D0E03204
:102569009001687474F0A3E4F090016E1209143DAF
:10257900F5C28FE4900172F0A3F090018774AAF07C
:102589009001887455F0E4FFFE7D707C4190016EE6
:10259900E0F8A3E0F9A3E0FAA3E0FB1202AC4003E0
:1025A9000226FE900172E4F0A304F0900172E0FEAD
:1025B900A3E0FFC3940BEE940050CBEF7802C33332
:1025C900CE33CED8F9FF900169E02FFF900168E082
:1025D9003EFEC006C00790016EE0FCA3E0FDA3E04B
:1025E900FEA3E0FF9000D2120908D007D0061236E8
:1025F9000F900172E0FEA3E07802C333CE33CED848
:10260900F9FF900169E02FFF900168E03ECF24FCBB
:10261900CF34FFFE12399690016A12090890016AB7
:10262900E0FCA3E0FDA3E0FEA3E0FF9000EA740252
:10263900F0A314F0122D7F900172E0FEA3E078025E
:10264900C333CE33CED8F9FF900169E02FFF900153
:1026590068E03EFE12399690016A12090890016AF3
:10266900E0FCA3E0FDA3E0FEA3E0FF9000EA740212
:10267900F0E4A3F0122D7F900172E0FEA3E078024E
:10268900C333CE33CED8F9FF900169E02FFF900113
:1026990068E03ECF2404CF3400FE12399690016AD7
:1026A90012090890016AE0FCA3E0FDA3E0FEA3E0A3
:1026B900FF9000EA7402F0A3F0122D7F90016EE002
:1026C900FCA3E0FDA3E0FEA3E0FFE4FBFA79807838
:1026D9003F12001590016E1209087FE87E03123B34
:1026E90081900173E004F060030225B4900172E067
:1026F90004F00225B4E4900187F0900188F0023BD0
:012709002DA2
:103AFD0025362E30660025352E306600464C4F415A
:103B0D00540025362E31660025372E3266002536B7
:103B1D002E32660025372E33660025362E3366008D
:103BF000E4FEEF20E70553A0F7800343A00853A09D
:0D3C0000FB43A004EF25E0FF0EEEB408E545
:013C0D002294
:1038B10043A00243A00443A008E4900149F0A304FB
:1038C100F0FDFB12333E7403123336742812333683
:1038D10090014A74291233399001497401F07E0034
:1038E1007F107D00FB7A01794B12098B78F97C00FE
:1038F1007D017B017A0179497E007F121206D20295
:02390100334D44
:1033360090014AF07D017B0178F97C007A01794998
:073346007E007F121206D287
:10334D00E4FDFE43A00243A00443A00853A0FD5397
:10335D00A0FB43A00453A0F753A0FB43A00490008F
:10336D00F9E0FF700553A0F7800343A00853A0FBBD
:10337D0043A004EF70109000FAE0FF123BF053A051
:10338D00FB43A004803FE4FEFD53A0FBEE20E705C8
:10339D0053A0F7800343A00843A004EE25E0FE0DE3
:1033AD00EDB406E5E4FDEDFFC3740F9FFFE494005B
:1033BD00FE74FB2FF58274003EF583E0FF123BF0A7
:0E33CD000DEDB410E143A00243A00843A0049C
:0133DB0022CF
:103A5A009001497401F07E007F107D00FB7A0179A4
:103A6A004B12098B12333AE4900149F0A374021203
:103A7A003339E490014AF078F97C007D017B017AC0
:0C3A8A00017949FE7F121206D202334D72
:103B2D009001497401F07E007F107D00FB7A0179D0
:103B3D004B12098B78F97C007D017B017A01794963
:0A3B4D007E007F121206D202334DF3
:103B57009001497401F07E007F107DFFFB7A0179A7
:103B67004B12098B78F97C007D017B017A01794939
:0A3B77007E007F121206D202334DC9
:103ACB00E4FEEDB40100EDB402027E0BED70027E5C
:103ADB0005C374059B2EFE244BF582E43401F5835C
:103AEB00E05480F0744B2EF582E43401F583E04F03
:013AFB00F0DA
:013AFC0022A7
:10328300AC07ED700302330924FE604004600302BF
:103293003333ECB40311EB90014CB40106E04480EA
:1032A300F08004E0547FF0ECB40211EB90014DB4D4
:1032B3000106E04480F08004E0547FF0EC64017088
:1032C3006FEB90014EB40102805C8060ECB403119B
:1032D300EB900157B40106E04480F08004E0547F92
:1032E300F0ECB40211EB900158B40106E04480F015
:1032F3008004E0547FF0EC64017035EB900159B425
:10330300010280228026ECB40211EB900152B40139
:1033130006E04480F08004E0547FF0ECB40111EB4C
:10332300900153B40106E04480F08004E0547FF040
:03333300023C7CDD
:102FAC00EF24FEB4090040030230A4902FC575F045
:102FBC0003A4C58325F0C5837302301D02301102B2
:102FCC00302802303302303E022FED022FF902304E
:102FDC0005022FE0ED900150B40103023070023075
:102FEC00A0ED900154B40102807A0230A0ED900162
:102FFC0051B40102806E0230A0ED900155B4010273
:10300C0080620230A0ED90014FB401028056023074
:10301C00A0ED90014BB40102804A8078ED90015AEA
:10302C00B40102803F806DED900156B401028034F2
:10303C008062ED64019001507030E04480F09001AA
:10304C0054E04480F0900151E04480F0900155E050
:10305C004480F090014BE04480F0900156E04480B5
:10306C00F090015AE04480F0802EE0547FF0900103
:10307C0054E0547FF0900151E0547FF0900155E002
:10308C00547FF090014BE0547FF0900156E0547F58
:10309C00F090015AE0547FF09001497401F0023C29
:0130AC007CA7
:062D7F009000E6120908B5
:102D85009000EAE0703BA3E09000F7700C74FFF050
:102D9500A3743AF0A374FD800A74FFF0A3743BF0AA
:102DA500A37403F09000E6E0FCA3E0FDA3E0FEA31E
:102DB500E0FF9000FA1209087B017A0079EC120A0B
:102DC500589000EAE06401703CA3E09000F7700DB4
:102DD50074FFF0A3743BF0A37409F0801F74FFF037
:102DE500A3743BF0A3740FF09000E6E0FCA3E0FDB4
:102DF500A3E0FEA3E0FF9000FA1209087B017A0028
:102E050079EC120A589000EAE06402703BA3E09066
:102E150000F7700C74FFF0A3743BF0A37415800ADF
:102E250074FFF0A3743BF0A3741BF09000E6E0FC84
:102E3500A3E0FDA3E0FEA3E0FF9000FA1209087BE2
:102E4500017A0079EC120A589000EAE06403703BBD
:102E5500A3E09000F7700C74FFF0A3743BF0A3742B
:102E650021800A74FFF0A3743BF0A37427F090004F
:102E7500E6E0FCA3E0FDA3E0FEA3E0FF9000FA126C
:102E850009087B017A0079EC120A587B017A0079EE
:092E9500EC9000EBE0FD022E9E22
:10270A00EFB430037F5F22EFB431037F5022EFB47E
:10271A0032037F3D22EFB433037F7922EFB43403CF
:10272A007F7222EFB435037F6B22EFB436037F6FDB
:10273A0022EFB437037F5122EFB438037F7F22EFB1
:10274A00B439037F7322EF64616004EFB441037FFD
:10275A007722EF64626004EFB442037F6E22EF6473
:10276A00636004EFB443037F0F22EF64646004EFF5
:10277A00B444037F7C22EF64656004EFB445037FB1
:10278A002F22EF64666004EFB446037F2722EF64CA
:10279A00676004EFB447037F6F22EF64686004EF59
:1027AA00B448037F7622EF64696004EFB449037F7B
:1027BA005022EF646A6004EFB44A037F5C22EF643C
:1027CA006B6004EFB44B037F3622EF646C6004EF56
:1027DA00B44C037F0E22EF646D6004EFB44D037FA7
:1027EA000022EF646E6004EFB44E037F6422EF644C
:1027FA006F6004EFB44F037F5F22EF64706004EFF1
:10280A00B450037F3722EF64716004EFB451037F41
:10281A007322EF64726004EFB452037F2422EF64E0
:10282A00736004EFB453037F6B22EF64746004EFA8
:10283A00B454037F2E22EF64756004EFB455037F0E
:10284A005E22EF64766004EFB456037F4C22EF6495
:10285A00776004EFB457037F0022EF64786004EFD7
:10286A00B458037F0022EF64796004EFB459037F00
:10287A007222EF647A6004EFB45A037F3D22EF6458
:10288A002D6004EFB45F037F2022EFB420027F00A3
:01289A00221B
:0E2E9E009000F4EBF0A3EAF0A3E9F0A3EDF04E
:102EAC00A37405F0E4FCED700C900152E0547FF03B
:102EBC00A3E0547FF09000F7E0FEB40211900157AC
:102ECC00E0547FF0A3E0547FF0A3E0547FF0EEB425
:102EDC00011190014CE0547FF0A3E0547FF0A3E08B
:102EEC00547FF09000F4E0FBA3E0FAA3E0F91206A3
:102EFC00F8FF7003022FA3642E601012270A9000B3
:102F0C00F7E0FDA3E0FB14F0123ACB9000F4E0FBE9
:102F1C00A3E0FAA3E0F91206F8642E706C9000F7A7
:102F2C00E0FF64027021ECB40207900157E044808A
:102F3C00F0ECB40307900158E04480F0ECB40407C3
:102F4C00900159E04480F0EF64017021ECB4020769
:102F5C0090014CE04480F0ECB4030790014DE04448
:102F6C0080F0ECB4040790014EE04480F09000F740
:102F7C00E07016ECB40407900153E04480F0ECB41C
:102F8C000307900152E04480F00C9000F5E475F0DA
:102F9C00011207A5022EEF9001497401F0023C7C4E
:103C7C009001497401F078F97C00FDFB7A017949D7
:0A3C8C007E007F121206D202334DB3
:04380000410175000D
:1030AD00E49000CFF0900174F09000CFF09000CF3D
:1030BD00E0FFC39405507AD281D280D290D291D2C2
:1030CD0092EF7002C281EFB40102C280EFB402022E
:1030DD00C290EFB40302C291EFB40402C2927F0119
:1030ED007E00123B8120820D9000CFE025E025E08F
:1030FD0004900174F020A40E9000CFE025E025E0AF
:10310D002402900174F020A00E9000CFE025E02560
:10311D00E02403900174F020960E9000CFE025E09E
:10312D0025E02404900174F09000CFE004F002300B
:10313D00BA900176E0FF700C900174E06006A37404
:10314D0001F08031900174E0FEB50709EE6006A331
:10315D007402F08020900176E0600C900174E070B4
:10316D0006A37403F0800E900176E0700890017450
:10317D00E07002A3F0900174E0900176F0600A9087
:10318D000175E0B40103123CF675AA0575AA0A751E
:02319D00A91F68
:01319F00220D
:093CF600900177E4F0A304F02230
:013D1A002286
:033D14007F00220B
:103C0E00E49000CFF0F0123CF67FFA7E00123B817A
:0C3C1E009000CFE004F0E0C3940340EA03
:013C2A002277
:103B8100E4FDFCC3ED9FEC9E501E75AA0575AA0AC3
:103B910075A91FE4FBFA0BBB00010AEB64C84A706C
:083BA100F50DBD00010C80DBF5
:013BA90022F9
:103C9600000000000000000000000000000000001E
:083CA600000000000000000016
:10380400440128000000004201330000420131005D
:10381400005401350000000000000000000000001A
:10382400000000000000000044012C0000000044DF
:0A38340001240000000041013000F3
:060E76009000EB120908D8
:100E7C0078F07C007D017BFF7A3C79967E007F14B4
:100E8C001206D2E4FFFEFD7C3F90002EE0F8A3E0BA
:100E9C00F9A3E0FAA3E0FB12010690010412090881
:100EAC00900108120914000000009000EBE0FCA374
:100EBC00E0FDA3E0FEA3E0FFE412031990010F1282
:100ECC0009089001137405F0E4A3F0A3F090010C51
:100EDC0004F0A37401F0A37435F0900104E0FCA3BA
:100EEC00E0FDA3E0FEA3E0FF900124E0F8A3E0F90D
:100EFC00A3E0FAA3E0FB12001590010FE0F8A3E0C9
:100F0C00F9A3E0FAA3E0FB1202AC600250329001AC
:100F1C0004E0F8A3E0F9A3E0FAA3E0FB900124E0DD
:100F2C00FCA3E0FDA3E0FEA3E0FF12001190010F73
:100F3C00E0F8A3E0F9A3E0FAA3E0FB1202AC505CEA
:100F4C009000EFE07056900130E0FF04F0EFD39486
:100F5C00024046E4F0900114F0900113E014FFA35A
:100F6C00E0C39F40030210B090010FE0FCA3E0FD32
:100F7C00A3E0FEA3E0FF90010CE0FBA3E0FAA3E0EA
:100F8C00F9900114E075F004A4F58285F083120841
:100F9C00B8900114E004F080C00212CA9000EFE097
:100FAC006401704C900130F0900114F0900113E04A
:100FBC0014FFA3E0C39F40030210B09000EBE0FCD1
:100FCC00A3E0FDA3E0FEA3E0FFE412031990010CE3
:100FDC00E0FBA3E0FAA3E0F9900114E075F004A49F
:100FEC00F58285F0831208B8900114E004F080BCFF
:100FFC009000EFE064027055900114F0900113E042
:10100C0014FFA3E0FEC39F40030210B0EE2401FFC7
:10101C00E433FEEF7802C333CE33CED8F9FF900120
:10102C000CE0FBA3E0FAA3E0F98F828E8312088810
:10103C0090010CA3A3900114E075F004A4F5828533
:10104C00F0831208B8900114E004F080AFE4900132
:10105C0030F0900114F0900113E014FFA3E0FEC3F4
:10106C009F5041EE2401FFE433FEEF7802C333CEF0
:10107C0033CED8F9FF90010CE0FBA3E0FAA3E0F922
:10108C008F828E8312088890010CA3A3900114E028
:10109C0075F004A4F58285F0831208B8900114E071
:1010AC0004F080B290010FE0FCA3E0FDA3E0FEA3EE
:1010BC00E0FFC004C005C006C007A3E024FFFFE4A6
:1010CC0034FFFEEF7802C333CE33CED8F9FF900154
:1010DC000CE0FBA3E0FAA3E0F98F828E83D007D05B
:1010EC0006D005D0041208B8E4900114F090011356
:1010FC00E0FFA3E0C39F503790010CE0FBA3E0FAA4
:10110C00A3E0F9900114E075F004A4F58285F08356
:10111C00120888900114E025E025E024F0F582E423
:10112C003400F583120908900114E004F080BEE449
:10113C00900114F0900113E014FFA3E0FEC39F4054
:10114C0003021223EE04A3F0900113E0FF900115AB
:10115C00E0FEC39F400302121A900114E025E02523
:10116C00E024F0F582E43400F583E0F8A3E0F9A381
:10117C00E0FAA3E0FBEE25E025E024F0F582E43470
:10118C0000F583E0FCA3E0FDA3E0FEA3E0FF120268
:10119C00AC60724070900115E0FB25E025E024F076
:1011AC00F582E43400F583E0FCA3E0FDA3E0FEA3AC
:1011BC00E0FF900108120908900114E0FA25E025DF
:1011CC00E024F0F582E43400F583E0FCA3E0FDA319
:1011DC00E0FEA3E0FFEB25E025E024F0F582E4340B
:1011EC0000F583120908900108E0FCA3E0FDA3E0E0
:1011FC00FEA3E0FFEA25E025E024F0F582E43400CC
:10120C00F583120908900115E004F00211549001C5
:10121C0014E004F0021140900124120914000000A3
:10122C00009001147401F0900113E014FFA3E0FE90
:10123C00C39F5038900124E0F8A3E0F9A3E0FAA38F
:10124C00E0FBEE25E025E024F0F582E43400F583A4
:10125C00E0FCA3E0FDA3E0FEA3E0FF12001590016B
:10126C0024120908900114E004F080BB900124E0E2
:10127C00FCA3E0FDA3E0FEA3E0FFC004C005C00694
:10128C00C007900113E024FEFDE434FFFCE41203DC
:10129C001EA804A905AA06AB07D007D006D005D016
:1012AC000412020F900124120908900124E0FCA3FF
:1012BC00E0FDA3E0FEA3E0FF90012C1209089001D1
:0C12CC0024E0FCA3E0FDA3E0FEA3E0FF93
:0112D80022F3
:052A01009000E6EFF07B
:102A0600A312091400000000308342E47FFAFEFDA1
:102A1600FC9000E7E0F8A3E0F9A3E0FAA3E0FBC32B
:102A260012084450287F017E00123B819000E7E0A7
:102A3600FCA3E0FDA3E0FEA3E02401FFE43EFEE4E8
:102A46003DFDE43CFC9000E712090880BB3083039F
:102A5600022B221235029000E71209089000E7E0E7
:102A6600FCA3E0FDA3E0FEA3E0FF78071208559063
:102A760000E7120908E47FFF7EFFFDFC9000E7E017
:102A8600F8A3E0F9A3E0FAA3E0FBC3120844606DE3
:102A9600E47FFF7EFFFDFC9000E7E0F8A3E0F9A3EA
:102AA600E0FAA3E0FBD31208449000E7E04032F8D6
:102AB600E49BFFE49AFE740299FDE498FC9000E71B
:102AC6001209089000E7E0F8A3E0F9A3E0FAA3E012
:102AD600FBC374F49BFF747E9AFEE499FDE4988030
:102AE60015FCA3E0FDA3E0FEA3E024F4FFEE347E94
:102AF600FEE43DFDE43CFC9000E71209089000E787
:102B0600E0FCA3E0FDA3E0FEA3E0FF9000E6E0907A
:102B160000EFF0120E76900128120908900128E0C5
:0A2B2600FCA3E0FDA3E0FEA3E0FF26
:012B30002282
:1035020078EE7C007D017BFF7A3C79AA7E007F0405
:103512001206D29000EB7401F0A37400F0A374EED3
:10352200F0208362E4FDFCD284EDAE047803CEC3C6
:1035320013CE13D8F9FF24EFF58274003EF583E031
:10354200FB25E0F0C28474EF2FF58274003EF58310
:10355200E0FFA283E433FEEF4EF00DBD00010CED5F
:1035620064184C70C2D284EDAE047805C333CE33F6
:10357200CED8F9FDAC06C2849000EBE0FBA3E0FAE2
:06358200A3E0F912086845
:013588002220
:103BD100435442414C3100255800435442414C3238
:0F3BE10000435442414C3300435442414C3400A2
:013D1B002285
:0A3CDA00E475F0011207BBAFF0FE25
:073CE4008F828E83E493FF41
:013CEB0022B6
:0839DC009000E1EEF0A3EFF012
:1039E4009000E57401F0A37400F0A374E3F0E4FD27
:1039F4009000E1123CDA9000E5E0FBA3E475F001ED
:103A04001207BBA9F0FAEF12073E0DEDB402E190E4
:073A140000E3E0FEA3E0FF68
:013A1B002288
:083950009000E1EEF0A3EFF09E
:103958009000E77401F0A37400F0A374E3F0E4FDB1
:103968009000E1123CDA9000E7E0FBA3E475F00177
:103978001207BBA9F0FAEF12073E0DEDB404E1906F
:0D39880000E3E0FCA3E0FDA3E0FEA3E0FFF0
:01399500220F
:083996009000BFEEF0A3EFF07A
:10399E009000C57401F0A37400F0A374C1F0E4FDAF
:1039AE009000BF123CDA9000C5E0FBA3E475F00175
:1039BE001207BBA9F0FAEF12073E0DEDB404E19029
:0D39CE0000C1E0FCA3E0FDA3E0FEA3E0FFCC
:0139DB0022C9
:10371600AFF0FEE0FBA3E475F0011207BBA9F0FAD7
:043726001206F8FD92
:10372A00E49000EAF075AA0575AA0A75A91F900027
:10373A00E8EEF0A3EFF0A2AF9200C2AF9000E8E08B
:10374A00F5C3A3E0F5C2AF058FC1E4F5C4F5C5F52D
:10375A00C6900187E0B4AA08A3E0B4550375C7036D
:10376A00123D1B75C40575C50A75C609900187E027
:10377A00B4AA08A3E0B4550375C703E4F5C4F5C5B4
:06378A00F5C6A20092AF9B
:013790002216
:0D3A1C009000D2EDF09000D0EEF0A3EFF09E
:103A2900E4FD123CE4EFF4601A9000D07D01122C01
:103A39005F7BFF7A3B79D1E4FD122E9E7FB87E0B26
:103A4900123B819000D0E0FEA3E0FFA3E0FD023726
:013A59002A42
:1031A0009000D2ECF0A3EDF09000D0EEF0A3EFF0A1
:1031B0001239DC9000D7EEF0A3EFF09000D7E0F4E6
:1031C0007003A3E0F46046122C5A9000F774FFF0ED
:1031D000A3743BF0A374D8F09000D0E0FFA3E0907C
:1031E00000FACFF0A3EFF07B017A0079D9120A58E8
:1031F0007B017A0079D97D01122E9E7BFF7A3B7983
:10320000DBE4FD122E9E7FB87E0B123B819000D036
:10321000E0FEA3E0FF1239DC9000D7EEF0A3EFF060
:103220009000D47401F0A37400F0A374D7F0900060
:10323000D4E0FBA3E475F0011207BBA9F0FA120673
:10324000F8B4FF169000D4E0FBA3E475F001120778
:10325000BBA9F0FA1206F8F46003122C5A9000D4BD
:103260007401F0A37400F0A374D2F0E4FC9000D0D9
:10327000E475F0011207BB9000D41237160CECB4C1
:0232800002EB5F
:013282002229
:0A36940090015BEEF0FAA3EFF0FBEB
:10369E0090016412091400000000AF03AE0212394B
:1036AE005090016412090874FFFFFEFDFC90016446
:1036BE00E0F8A3E0F9A3E0FAA3E0FBC3120844602C
:1036CE002190015BE0FEA3E0FF7D047C00122C66DE
:1036DE007BFF7A3B79E2E4FD122E9E7FB87E0B12C1
:1036EE003B819001617401F0A37401F0A3745DF04D
:1036FE00E4FC90015BE475F0011207BB90016112CE
:07370E0037160CECB404EBCC
:013715002291
:0A360F009000D0EEF0FAA3EFF0FBFC
:103619009000DD12091400000000AF03AE02123958
:10362900509000DD12090874FFFFFEFDFC9000DDDB
:10363900E0F8A3E0F9A3E0FAA3E0FBC312084460B1
:10364900219000D0E0FEA3E0FF7D047C00122C66EF
:103659007BFF7A3B79E9E4FD122E9E7FB87E0B123F
:103669003B819000D67401F0A37400F0A374D2F0EA
:10367900E4FC9000D0E475F0011207BBAFF0FE90B6
:0A36890000D61237190CECB404E867
:013693002214
:10385900E49000E8F0A3EEF0A3EFF0A2AF9200C26B
:10386900AF9000E9E0F5C3A3E0F5C2E4F5C4F5C5FE
:10387900F5C6900187E0B4AA08A3E0B4550375C75B
:1038890003123D1B75C40575C50A75C609900187E4
:10389900E0B4AA08A3E0B4550375C70CE4F5C4F570
:0738A900C5F5C6A20092AFB5
:0138B00022F5
:0C2C5A009000D07D02E0FEA3E0FF7C00B3
:0E2C66009000E1EEF0A3EFF0A3ECF0A3EDF090
:102C7400E4A3F0A3F0A3F09000E1E01313543F7B2E
:102C84000025E025E0FAE49000E6F0A3F09000E6E9
:102C9400E0FEA3E0FFC3940AEE94005025E42FFF66
:102CA400EE3468FE123CE4EFF460077F007E6812A5
:102CB40038599000E7E004F070D39000E6E004F0A7
:102CC40080CBE49000E6F0A3F09000E6E0FEA3E001
:102CD400FFC3EE94045056EF2BFFEE3AFE9000E152
:102CE400E0B50617A3E0B50712A3E0FEA3E0FF904A
:102CF40000E7E02FF09000E6E03EF09000E7E02BE4
:102D0400FF9000E6E03AFE123CE4AD079000E7E0F5
:102D14002400FF9000E6E03468FE12372A9000E7B2
:102D2400E004F070A49000E6E004F0809CAF03AEF1
:102D340002123859E49000E6F0A3F09000E6E0FEB9
:102D4400A3E0FFC3EE9404502BE42FFFEE3468FE9F
:102D5400123CE4AD079000E7E02BFF9000E6E03A78
:102D6400FE12372A9000E7E004F070CF9000E6E00E
:0B2D740004F080C77F007E6802385921
:103903003030303030003030303030300020202044
:10391300554E00535441424C4500505245535300B9
:103923005245462030004300204C4F414400432081
:10393300202000464143544F0052002020454E446E
:0D39430000534156454400202D452D200025
:10383E0044000600000000440000000000004400A8
:0A384E008A000000004200040000A0
:102209007F017E6C12399690002A1209087F057E9B
:102219006C1239969000261209087F097E6C1239D2
:102229009690002E12090890001E12091400000051
:10223900007F347E6C123CE4900067EFF07F0D7EE6
:102249006C123CE4900068EFF07F0E7E6C123CE467
:10225900900069EFF07F1A7E6C123CE4900086EFE3
:10226900F07F0F7E6C1239DC900052EEF0A3EFF094
:102279007F117E6C1239DC900055EEF0A3EFF07FF0
:10228900137E6C1239DC900057EEF0A3EFF07F3229
:102299007E6C1239DC900059EEF0A3EFF07F357EA9
:1022A9006C1239DC90005BEEF0A3EFF07F157E6CC9
:1022B900123CE490006AEFF07F167E6C123CE490C9
:1022C900006BEFF07F1E7E6C123CE4900089EFF00A
:1022D90090006BE090006D70057405F08003740147
:1022E900F07F177E6C123CE490006CEFF090006E6A
:1022F90070057405F080037401F07F187E6C123C40
:10230900E490006FEFF0E4900071F07F1B7E6C1297
:102319003CE4900072EFF07F1C7E6C123CE490006C
:1023290073EFF07F1D7E6C123CE4900074EFF07F38
:10233900007E701239DC900061EEF0A3EFF07F02AD
:102349007E701239DC900063EEF0A3EFF07F1F7E00
:102359006C123CE4900077EFF07F207E6C123CE435
:10236900900079EFF07F227E6C123CE4900087EFB9
:10237900F07F047E701239DC900065EEF0A3EFF077
:102389007F067E7012399690003E1209087F237EDF
:102399006C123CE4900054EFF07F317E6C123CE407
:1023A900900085EFF07F0A7E70123CE49000B4EF54
:0E23B900F07F0B7E7012399690004A020908E0
:101CFD009000CFEFF090018774AAF0900188745591
:101D0D00F07F007E681238597F007E6C1238597F43
:101D1D00007E701238597F007E741238599000CFB2
:101D2D00E01209651DB9001D50011F8D021F3106FE
:101D3D001F190A1DAC0B1F070C1F580D1FAA0F00F2
:101D4D00001FB67D017F007E6C123A1C90002AE0C8
:101D5D00FCA3E0FDA3E0FEA3E0FF9000D212090872
:101D6D007F017E6C12360F900026E0FCA3E0FDA3F0
:101D7D00E0FEA3E0FF9000D21209087F057E6C12F1
:101D8D00360F90002EE0FCA3E0FDA3E0FEA3E0FFE4
:101D9D009000D21209087F097E6C12360F800090D8
:101DAD000061E0FCA3E0FD7F00021F11900068E0E0
:101DBD00FD7F0D7E6C123A1C900069E0FD7F0E7E5A
:101DCD006C123A1C900052E0FCA3E0FD7F0F7E6C7C
:101DDD001231A0900055E0FCA3E0FD7F117E6C1246
:101DED0031A0900057E0FCA3E0FD7F137E6C123113
:101DFD00A0900059E0FCA3E0FD7F327E6C1231A073
:101E0D0090005BE0FCA3E0FD7F357E6C1231A0906D
:101E1D00006AE0FD7F157E6C123A1C90006BE0FDB0
:101E2D007F167E6C123A1C90006FE0FD7F187E6C61
:101E3D00123A1C900071E0FD7F197E6C123A1C90D5
:101E4D000072E0FD7F1B7E6C123A1C900073E0FD6A
:101E5D007F1C7E6C123A1C900074E0FD7F1D7E6C21
:101E6D00123A1C900077E0FD7F1F7E6C123A1C9099
:101E7D000063E0FCA3E0FD7F027E701231A09000B4
:101E8D0079E0FD7F207E6C123A1C900087E0FD7F8B
:101E9D00227E6C123A1C900065E0FCA3E0FD7F04ED
:101EAD007E701231A090003EE0FCA3E0FDA3E0FEA9
:101EBD00A3E0FF9000D21209087F067E7012360F44
:101ECD00900054E0FD7F237E6C123A1C900085E05B
:101EDD00FD7F317E6C123A1C9000B4E0FD7F0A7ECE
:101EED0070123A1C900067E0FD7F347E6C123A1C34
:101EFD00900086E0FD7F1A021FB1900063E0FCA305
:101F0D00E0FD7F027E701231A0021FB6900026E028
:101F1D00FCA3E0FDA3E0FEA3E0FF9000D2120908B0
:101F2D007F058058900065E0FCA3E0FD7F047E7086
:101F3D001231A090003EE0FCA3E0FDA3E0FEA3E083
:101F4D00FF9000D21209087F06804B900042E0FC02
:101F5D00A3E0FDA3E0FEA3E0FF9000D21209087FED
:101F6D00297E6C12360F900046E0FCA3E0FDA3E045
:101F7D00FEA3E0FF9000D21209087F2D7E6C801821
:101F8D0090004AE0FCA3E0FDA3E0FEA3E0FF90007B
:101F9D00D21209087F0B7E7012360F800C900089CB
:101FAD00E0FD7F1E7E6C123A1CE4900187F09001DB
:031FBD0088F02287
:061A2200E4FB7D017F05DD
:0D1A28009000D0EDF0A3EBF09000CFEFF0B8
:101A3500E49000D2F0A3F0FCFDFEA312090890008B
:101A4500D8120914000000009000DC1209140000EF
:101A55000000900079E0FCE41203239000E01209F5
:101A650008E49000E4F0A3F09000D3F09000D1E0FA
:101A7500FF70069000D37402F0122A019000DC1268
:101A850009089000D1E0FF122A019000DC12090834
:101A95009000D1E0FF122A019000DC1209089000A5
:101AA500D1E0FF122A019000DC12090874FFFFFE45
:101AB500FDFC9000D4E0F8A3E0F9A3E0FAA3E0FB75
:101AC500D312082E5003021CE8123D149000D0E0FA
:101AD50064016003021B899000D4E0FCA3E0FDA330
:101AE500E0FEA3E0FFEC4D4E4F70237BFF7A397982
:101AF500037D01122E9E7BFF7A3979037D02122E1A
:101B05009E7BFF7A397909E4FD122E9E8076E47F6B
:101B1500677E2BFDFC9000D4E0F8A3E0F9A3E0FA82
:101B2500A3E0FB1207D1EC120319E49000EAF0A33D
:101B350004F0122D7FE47F677E2BFDFC9000D4E03E
:101B4500F8A3E0F9A3E0FAA3E0FB1207D1EC120336
:101B550019E49000EAF0A37402F0122D7F7F077E4E
:101B6500B27D017C009000D4E0F8A3E0F9A3E0FA8F
:101B7500A3E0FB1207D1EC120319E49000EAF0A3ED
:101B8500F0122D7F9000D1E0FF122A019000D812AB
:101B950009089000E0E0F8A3E0F9A3E0FAA3E0FB70
:101BA5009000DCE0FCA3E0FDA3E0FEA3E0FF120053
:101BB500119000D8E0F8A3E0F9A3E0FAA3E0FB1246
:101BC50002AC40749000E0E0FCA3E0FDA3E0FEA3BE
:101BD500E0FF9000DCE0F8A3E0F9A3E0FAA3E0FB66
:101BE5001200159000D8E0F8A3E0F9A3E0FAA3E00D
:101BF500FB1202AC600250409000D2E004F0A3E07A
:101C0500FF9000D2E0D39F5003021AB19000D4E0B8
:101C1500FCA3E0FDA3E0FEA3E0FFEF24FFFFEE340D
:101C2500FFFEED34FFFDEC34FFFC9000D4120908F3
:101C3500E49000D2F0021AB19000D0E06401706C1B
:101C4500123B2D7BFF7A3979107D02122E9E7BFF88
:101C55007A397916E4FD122E9E9000D412091400EB
:101C6500000000E47F2C7E01FDFC9000D4E0F8A389
:101C7500E0F9A3E0FAA3E0FBC312082E502E7F0A79
:101C85007E00123B819000D4E0FCA3E0FDA3E0FEC2
:101C9500A3E0FFE4FAF9F8EF2401FFEA3EFEE93D8F
:101CA500FDE83CFC9000D412090880B7E49000D20E
:101CB500F09000CFE0FFE4FCFDFE9000D41209088F
:101CC5009000D1E0FF122A019000DC120908900073
:101CD500D1E07003021AB1E49000B2F0FFFE7DC8B6
:101CE5007CC2229000B27401F09000DCE0FCA3E01D
:071CF500FDA3E0FEA3E0FFE8
:011CFC0022C5
:033D17007F002208
:063D080090017F02090892
:103A9600900183120914000000007B01E4FD7F0100
:103AA600121A289001831209089000B2E0B401149A
:103AB600900183E0FCA3E0FDA3E0FEA3E0FF9000FD
:043AC60032120908A7
:013ACA0022D9
:063D0E009000C10209084B
:1016A6009000BF120914000000009000C312091434
:1016B600000000009000C71209140000000090000E
:1016C600CB12091400000000900062E004F07006DE
:1016D600900061E004F07F01121CFD123B2D7BFFA0
:1016E6007A39791D7D01122E9E7BFF7A397923E4A2
:1016F600FD122E9E7BFF7A3979297D02122E9EE4F9
:10170600900174F0900174E0640C60051230AD80B5
:10171600F3E4900174F0900174E0B40C051230AD5E
:1017260080F47FF47E01123B81121A229000261269
:101736000908900026E0FCA3E0FDA3E0FEA3E0FF7D
:101746009000EA7402F0E4A3F0122D7F7F887E13E6
:10175600123B81900026E0FCA3E0FDA3E0FEA3E09F
:10176600FF9000C3120908123B2D7BFF7A39791DC1
:101776007D01122E9E7BFF7A39792BE4FD122E9E77
:101786007BFF7A3979317D02122E9EE4900174F046
:10179600900174E0640C60051230AD80F3121A22D9
:1017A60090002A12090890002AE0FCA3E0FDA3E0BD
:1017B600FEA3E0FF9000EA7402F0E4A3F0122D7F8E
:1017C6007F887E13123B8190002AE0FCA3E0FDA3F4
:1017D600E0FEA3E0FF9000C71209089000C3E0F8FE
:1017E600A3E0F9A3E0FAA3E0FBA3E0FCA3E0FDA3DA
:1017F600E0FEA3E0FF1200119000CB120908900052
:10180600CBE0FCA3E0FDA3E0FEA3E0FF9000EA74BA
:1018160002F0E4A3F0122D7F7F887E13123B8190A5
:1018260000CBE0F8A3E0F9A3E0FAA3E0FBC000C018
:1018360001C002C003900055E0FCA3E0FD7E007FDE
:1018460064120750AC06AD07E412031ED003D002A3
:10185600D001D0001201069000CB12090890002A90
:10186600E0FCA3E0FDA3E0FEA3E0FF900026E0F885
:10187600A3E0F9A3E0FAA3E0FB12001190002A12FC
:10188600090890002AE0F8A3E0F9A3E0FAA3E0FB38
:10189600C000C001C002C003900055E0FCA3E0FDFB
:1018A6007E007F64120750AC06AD07E412031ED01B
:1018B60003D002D001D00012010690002A120908B6
:1018C60090002AE0FCA3E0FDA3E0FEA3E0FFA31244
:1018D6000908900052E0FCA3E0FDE412031E90000C
:1018E600BF1209089000BFE0F8A3E0F9A3E0FAA34D
:1018F600E0FBC000C001C002C003900054E0FCE45D
:101906001203239000DE1209087F007E007D207CF2
:101916004112289BD003D002D001D00012010690BC
:1019260000BF1209089000BFE0FCA3E0FDA3E0FEA3
:10193600A3E0FFC004C005C006C007900057E0FC46
:10194600A3E0FDE412031EA804A905AA06AB07D06E
:1019560007D006D005D00412020F9000BF12090866
:1019660090002EE0FCA3E0FDA3E0FEA3E0FF9000C4
:10197600BFE0F8A3E0F9A3E0FAA3E0FB12020F90A0
:10198600002E120908E4FFFEFDFC90002AE0F8A3F1
:10199600E0F9A3E0FAA3E0FB1202AC501E90002A85
:1019A600E0FCA3E0FDA3E0FEA3E0FFE4FBFA798000
:1019B60078BF12010690002A120908123B2D7BFF00
:1019C6007A3979367D01122E9E90002EE0FCA3E036
:1019D600FDA3E0FEA3E0FF9000EA7402F0E4A3F0AA
:1019E600122D7F7BFF7A39793CE4FD122E9E7B0116
:1019F600E4FD7F021232837BFF7A39793E7D021243
:101A06002E9E7F01121CFD7F0D121CFD123C0E1234
:0C1A16003C0E7F887E13123B81023B2DAA
:051FC0009000BFEFF0EE
:101FC500E4A3F0123B2D9000677401F0A3F090009C
:101FD500BFE07009900052F0A3740F80319000BFEC
:101FE500E0B4010A900052E4F0A37414802090003C
:101FF500BFE0B4020A900052E4F0A3741E80699019
:1020050000BFE0B40520900052E4F0A3741EF090E8
:102015000057E4F0A37405F0A3E4F0A37402F0A361
:10202500E4F0A304802B9000BFE0B4062C9000528E
:10203500E4F0A3741EF0900057E4F0A37402F0A33B
:10204500E4F0A37402F0A3E4F0A37402F0E49000BA
:1020550067F09000547403802B9000BFE0B40339FF
:10206500900052E4F0A37428F0900057E4F0A374B4
:102075000AF0A3E4F0A37405F0A3E4F0A37402F05E
:1020850090005404F09000697401F0FDE4FF122FF4
:10209500AC9000877401F080369000BFE0B4042F47
:1020A500900052E4F0A3743CF0900057E4F0A37460
:1020B50002F0900054F0E4900069F0900068F07D23
:1020C500017F01122FACE4900087F0900067F0903B
:1020D5000052E0FCA3E0FDE412031E900054E090E2
:1020E50000EAF0A37401F0122D7F900055E4F0A3EF
:1020F5007464F090006A7402F0A314F090006F7499
:1021050003F0E490006EF090007104F0A3F0A3F0EA
:10211500900077F0E4A3F0A37405F0E4900065F077
:10212500A3F090003E12091400000000E490008521
:10213500F0A37402F0E4900076F0900042120914C6
:1021450000000000900046120914000000009000F5
:102155002A1209140000000090002612091400003C
:10216500000090002E120914000000009000B474C5
:1021750001F090004A12091400000000E49000618B
:10218500F0A3F0A3F0A3F090017BF0A304F0801777
:10219500900174E064086014C390017CE094889019
:1021A500017BE0941350051230AD80E4C390017CAF
:1021B500E0948890017BE09413400280437F0D12E8
:1021C5001CFD7F01121CFD7F02121CFDE4FF121C89
:1021D500FD7BFF7A3979447D02122E9E123C0E1248
:1021E5003C0E8017900174E064086014C390017C74
:1021F500E0948890017BE0941350051230AD80E4A3
:03220500123B2D5C
:0122080022B3
:08000300900189EFF07F00225B
:013D1C002284
:013D1D002283
:1023C700E49000BFF0A3F0900097E09000C0600594
:1023D7007403F080037401F0E49000BFF09000C034
:1023E700E0FF9000BFE0FEC3EF6480F8EE648098E2
:1023F70050137F01122A019000061209089000BFAE
:10240700E004F080D89000ADE0640160079000AC74
:10241700E0B4010B7BFF7A39794A7D01022E9E9049
:102427000071E0B40117900095E07011900006E08C
:10243700FCA3E0FDA3E0FEA3E0FF123D0E90000623
:10244700E0FCA3E0FDA3E0FEA3E0FF90000E12096D
:1024570008900006E0FCA3E0FDA3E0FEA3E0FF90E8
:10246700008A120908900006E0FCA3E0FDA3E0FE45
:10247700A3E0FF900032E0F8A3E0F9A3E0FAA3E0BD
:10248700FB120011900006120908900006E0FCA359
:10249700E0FDA3E0FEA3E0FF9000221209089000F0
:1024A700A3E0B4010590000E8050900095E0B401C0
:1024B70046900006E0FCA3E0FDA3E0FEA3E0FF904A
:1024C700008A120908900006E0FCA3E0FDA3E0FEE5
:1024D700A3E0FF90001EE0F8A3E0F9A3E0FAA3E071
:1024E700FB120011900006120908900098E070078F
:1024F7007D017F03122FAC900006E0FCA3E0FDA353
:10250700E0FEA3E0FF1212D9900006120908E4FFCB
:10251700FEFDFC900006E0F8A3E0F9A3E0FAA3E0D3
:10252700FB1202AC500D9000A3E0700790009904D5
:10253700F0801CE4FFFEFDFC900006E0F8A3E0F944
:10254700A3E0FAA3E0FB1202AC7004900099F090AC
:102557000006E0FCA3E0FDA3E0FEA3E0FFA3120951
:01256700086B
:012568002250
:0612D9009000C11209089B
:1012DF009000C5120914000000009000C9120914F3
:1012EF00000000009000CD120914000000009000D3
:1012FF00D1120914000000009000D512091400004B
:10130F000000E49000D9F0FFFEFDFC9000C1E0F872
:10131F00A3E0F9A3E0FAA3E0FB1202AC5024900083
:10132F00D97401F09000C1E0FCA3E0FDA3E0FEA39F
:10133F00E0FFE4FBFA798078BF1201069000C1123A
:10134F000908900067E07050900054E0FCE412032D
:10135F00239000DE1209087F007E007D207C411261
:10136F00289BC004C005C006C007900057E0FCA32F
:10137F00E0FDE412031ED003D002D001D000120210
:10138F000F9000D512090890002EE0F8A3E0F9A302
:10139F00E0FAA3E0FB0215937FCD7ECC7DCC7C3DA4
:1013AF0090002AE0F8A3E0F9A3E0FAA3E0FB120112
:1013BF00069000C1E0F8A3E0F9A3E0FAA3E0FB1266
:1013CF0002AC6005400302147C9000C512091400A2
:1013DF00000000900057E0FCA3E0FDE412031EC0E4
:1013EF0004C005C006C00790005BE0FCA3E0FDE46D
:1013FF0012031ED003D002D001D00012020F9000B2
:10140F00C5120908900054E0FCE41203239000DE9B
:10141F001209087F007E007D207C4112289BC004AA
:10142F00C005C006C00790005BE0FCA3E0FDE4121E
:10143F00031ED003D002D001D00012020F9000D5AE
:10144F001209089000C5E0FCA3E0FDA3E0FEA3E0B5
:10145F00FF90002EE0F8A3E0F9A3E0FAA3E0FB125F
:10146F000106A804A905AA06AB070215937FCD7E36
:10147F00CC7D4C7C3E90002AE0F8A3E0F9A3E0FA83
:10148F00A3E0FB1201069000C1E0F8A3E0F9A3E08E
:10149F00FAA3E0FB1202AC60054003021546900070
:1014AF0057E0FCA3E0FDE412031EC004C005C00614
:1014BF00C007900059E0FCA3E0FDE412031ED00327
:1014CF00D002D001D00012020F9000C5120908906F
:1014DF000054E0FCE41203239000DE1209087F00A1
:1014EF007E007D207C4112289BC004C005C006C031
:1014FF0007900059E0FCA3E0FDE412031ED003D0D7
:10150F0002D001D00012020F9000D51209089000EE
:10151F00C5E0FCA3E0FDA3E0FEA3E0FF90002EE0FA
:10152F00F8A3E0F9A3E0FAA3E0FB120106A804A9CF
:10153F0005AA06AB07804D900054E0FCE41203238C
:10154F009000DE1209087F007E007D207C4112286A
:10155F009BC004C005C006C007900057E0FCA3E085
:10156F00FDE412031ED003D002D001D00012020FEF
:10157F009000D512090890002EE0F8A3E0F9A3E03F
:10158F00FAA3E0FB9000C1E0FCA3E0FDA3E0FEA303
:10159F00E0FF12020F9000CD1209089000CDE0FC81
:1015AF00A3E0FDA3E0FEA3E0FF1203579000D112CA
:1015BF0009089000CDE0FCA3E0FDA3E0FEA3E0FF4F
:1015CF00C004C005C006C007A3E0FCA3E0FDA3E074
:1015DF00FEA3E0FFEC120319A804A905AA06AB07A6
:1015EF00D007D006D005D0041200119000CD1209FB
:1015FF00089000D1E0F8A3E0F9A3E0FAA3E0FBC064
:10160F0000C001C002C003E4FFFEFD7C409000CD8E
:10161F00E0F8A3E0F9A3E0FAA3E0FB12010612033E
:10162F0057D003D002D001D000EB2FFFEA3EFEE9E6
:10163F003DFDE83CFC9000D11209089000D1E0FC80
:10164F00A3E0FDA3E0FEA3E0FFEC1203199000D589
:10165F00E0F8A3E0F9A3E0FAA3E0FB120106900083
:10166F00C91209089000D9E0601E9000C9E0FCA3E0
:10167F00E0FDA3E0FEA3E0FFE4FBFA798078BF1260
:10168F0001069000C91209089000C9E0FCA3E0FD13
:06169F00A3E0FEA3E0FF42
:0116A5002222
:083CFF007F007E007D007C00C7
:013D07002299
:10000E000203C3E86480F8E933E83360110460F05A
:10001E00ED33EC337009E8FCE9FDEAFEEBFF220458
:10002E0060DED3EB9FEA9EE99DE8C2E78CF0C2F753
:10003E0095F0400CE8CCF8E9CDF9EACEFAEBCFFB1F
:10004E0012038E85D0F05804700320D5B3E80470E7
:10005E00075002B2D50203CD92D5EC0460F7E4CC82
:10006E00C0E0C398F8603B94186008400DD0E0FBE8
:10007E000203A5E4FBFAC9FC8028E830E406E4C9D3
:10008E00FBE4CAFCE830E305E4C9CACBFCE854073C
:10009E006010F8C3E913F9EA13FAEB13FBEC13FC47
:1000AE00D8F130F52FC3E49CFCEF9BFFEE9AFEEDEA
:1000BE0099FDD0E0FBEF4E4D4C701222DB03020394
:1000CE00CAEC2CFCEF33FFEE33FEED33FDED30E7E3
:1000DE00EB0203A5EF2BFFEE3AFEED39FDD0E0FB70
:1000EE0050130BBB00030203CDED13FDEE13FEEF19
:0800FE0013FFEC13FC0203A543
:10010600EC4D6011E8497017ED33EC3304600DE4F3
:10011600FCFFFEFD22E933E8330470F80203C31244
:10012600038E58046009E4CC248150062850090245
:1001360003CD2840030203CAC0E0EB4A7044B980ED
:1001460006D0E0FB0203B9EF4E701CBD8008EBFF42
:10015600EAFEE9FD80EBE98DF0A4FEE5F00201EF91
:10016600E9CDF9EAFEEBFFEF89F0A4FCE5F0CE89D4
:10017600F0A42EFFE435F0CD89F0A42DFEE435F091
:100186008067EF4E7005BD80D780C3EF8BF0A4ACBF
:10019600F0EE8BF0A42CFCE435F0F8EF8AF0A42CFA
:1001A600E5F038FCE433CB8DF0A42CFCE5F03BF80D
:1001B600EE8AF0A42CFCE5F038F8E433CF89F0A4FD
:1001C6002CFCE5F038CF3400CE89F0A42FFFE5F003
:1001D6003EFEE433C98DF0A42EFEE5F039CD8AF05B
:1001E600A42FFFE5F03EFEE43DFD33D0E0FB5007D3
:1001F6000BBB000F0203CDEC2CFCEF33FFEE33FEFE
:06020600ED33FD0203A52B
:10020C000203CDEC5D046005E8590470030203C3DE
:10021C0012038E580460F6EC4860F2EC7004FDFE9C
:10022C00FF22C860DB2481C85009C39860025006C5
:10023C000203CA9850CAF582E9294B4A7005AB8271
:10024C000203B975F0007C1A7880C3EF9BEE9AED2F
:10025C0099400DC3EF9BFFEE9AFEED99FDE842F03D
:10026C00DC23ACF0D0E0FFD0E0FED0E0FDAB822090
:10027C00E7101BEB60BAEC2CFCEF33FFEE33FEED1A
:10028C0033FD0203A5E803F830E705C0F075F00074
:10029C00EF2FFFEE33FEED33FD40B830E7C280AAFE
:1002AC0074F8CC6480CCC86480C8F582046043C305
:1002BC00EB9FF5F0EA9E42F0E99D42F0E89C45F098
:1002CC0060305018E5825FFFE582F42B5582FB50BD
:1002DC00210ABA001D09B90019088016E5825BFBDA
:1002EC00E582F42F5582FF50090EBE00050DBD00AE
:1002FC00010CC3EB9FF5F0EA9E42F0E99D42F0E859
:0D030C009C45F06007CC4820E701B3EC22CF
:1003190075F020800E75F010800575F0087D007E5F
:10032900007F003392D530D503120820EC334010FA
:10033900EF33FFEE33FEED33FDEC33FCD5F0ED2268
:0E034900E5F0247EA2D513CC92E7CDCEFF22A4
:10035700EDD2E7CD33EC3392D524814006E4FFFE9E
:10036700FDFC22FCE4CFCECDCC24E0501174FF80FD
:10037700EDC3CC13CCCD13CDCE13CECF13CF04709A
:07038700F030D5DE02082072
:1009F300E50824F7F582E43400F583E00508229046
:100A030000F43007039000F7E475F0011209450282
:100A130006F82000E97F2ED2008018EF540F2490AF
:100A2300D43440D4FF30040BEF24BFB41A00500376
:100A33002461FFE50960021509050CE50C70020548
:100A43000B30070E9000F4E475F001120945EF0234
:100A5300073E023BAA7403D2078003E4C207F508EA
:100A63009000F412095CE4F509F50BF50CE5096057
:100A7300077F20120A3680F5750AFFC201C200C241
:100A830002C203C205C206C208120A02FF700D3079
:100A930007057F00120A47AF0CAE0B22B4255FC2D5
:100AA300D5C204120A02FF24D0B40A00501A75F00A
:100AB3000A780930D50508B6FF0106C6A426F62034
:100AC300D5047002D20380D924CFB41A00EF5004A6
:100AD300C2E5D204020D39D20180C6D20080C0D251
:100AE3000280BCD2D580BAD20580B47F20120A36E8
:100AF3002002077401B5090040F11209F3FF120A3D
:100B030036020A70D208D20680951209F3FB120945
:100B1300F3FA1209F3F94A4B700679377A0E7BFF21
:100B230020022EE509602A7E008E8275830012075B
:100B33001160060EEE650A70F0C2D5EBC0E0EAC0A4
:100B4300E0E9C0E0EE120D9AD0E0F9D0E0FAD0E08F
:100B5300FB1206F8FF60AAEBC0E0EAC0E0E9C0E0E0
:100B6300120A36D0E02401F9D0E03400FAD0E0FBD9
:100B7300E50A0460DCD50AD98087D20280A2120D6F
:100B83007C60F7E50A700104120403A90A600DE50D
:100B93000A600914F50A120E24EF60F3EA30E70243
:100BA300F404C3995079EAF4250A0430E701E40414
:100BB300F50A800D120D7C60C1EA050A250A1204AC
:100BC30003EA900123F030E701E4250A04D50A047F
:100BD30020050114120D9AE4C0E0120E24900123A3
:100BE300E0601320E70714F0120A1E802204F0D0FD
:100BF300E014C0E07F00120A1EE50A6007120A151E
:100C0300150A800B300503120A15D0E0020A70D0D2
:100C1300E00480C4120D7C609EE50A041204039074
:100C23000123EAF0E50A2005026001042404120D01
:010C33009A26
:100C340074FF04C0E0120E24120A1EE50A20050205
:100C44006003120A15D0E0B50AE87F45120A28901D
:100C54000123E07F2B30E7047F2DF404C0E0120A67
:100C640036D0E075F00A84C0F0120A1FD0E0120AF0
:100C74001F020A70791080027908C206C20880082F
:100C8400D2D5790A8004790AC2D5E50A047002F53E
:100C94000AE4FAFDFEFF1209F3FC7B08200113129B
:100CA40009F3FD7B1030000A1209F3FE1209F3FF69
:100CB4007B20EC3382D592D55013C3E43000069FD9
:100CC400FFE49EFEE42001039DFDE49CFCE4CBF8DC
:100CD400C201EC700CCFCECDCCE824F8F870F380D0
:100CE40017C3EF33FFEE33FEED33FDEC33FCEB3390
:100CF400FB994002FB0FD8E9EB300105F8D0E0C4C2
:100D040048B201C0E00AEC4D4E4F78207B0070C21F
:100D1400EAB50A0040BCC0E0120D9CD0F0D0E0203F
:100D24000104C4C0E0C4B201C0F0120A1FD0F0D55F
:100D3400F0EB020A701209650B0D530C78580ADEA9
:100D44004C0ADA420C7C4F0C84440C84490AF34369
:100D54000C8A550BB7460C17450B81470E57500AA2
:100D6400E22D0AE62E0B092B0AEA230B07200E407C
:100D74002A0AA24800000B01E50AB4FF03750A061B
:100D84001209F3FC1209F3FD1209F3FE1209F3FF31
:100D940090011C020440790AA2D5200314300509ED
:100DA400B910020404B9080104A2D52006025001B6
:100DB400042002689202B509005034C0E07F20305C
:100DC40003197F30A20272067205500F120DF3C28E
:100DD40002C206C205C2087F30800F300503E9C095
:100DE400E0120A36300503D0E0F9D0E0B509CC3082
:100DF40005177F30B9100C120A367F583004077F6C
:100E0400788003B90803120A363002057F2D020ADE
:100E1400367F202008F87F2B2006F322920280CF11
:100E24007F00B40700500B241CF582E43401F583E1
:100E3400E0FF22286E756C6C2900D2011209F33090
:100E440001F8C201780930D50108F6020AA22D5032
:100E54004349581209F32403B405004001E4900EF9
:100E64005293120A27743A120A27D203750904020C
:020E74000C78F8
:10289B009000DA120908E4FFFE7D807C3F9000DA9D
:1028AB00E0F8A3E0F9A3E0FAA3E0FB1202AC700698
:1028BB009000DA0229F59000DAE0FCA3E0FDA3E03A
:1028CB00FEA3E0FF1203D8FBA3E0FCA3E0FDA3E013
:1028DB00FEA3E0FF1203D8FFB40108E4FFFE7D80E6
:1028EB007C3F22EF64046029EB64046024EBB401A9
:1028FB0030E4FFFEFDFC9000DEE0F8A3E0F9A3E07E
:10290B00FAA3E0FB1202AC60084006E4FFFEFDFCFC
:10291B00229000DE120914FFFFFFFF9000DE022958
:10292B00F5E49000E2F0A3F0FFFEFDFC9000DAE08E
:10293B00F8A3E0F9A3E0FAA3E0FB1202AC505F901E
:10294B0000DEE0FCA3E0FDA3E0FEA3E0FF120357D3
:10295B009000E2EEF0A3EFF0FDCCEECCEC12031EF8
:10296B00C8ECC8C9EDC9CAEECACBEFCB9000DEE00C
:10297B00FCA3E0FDA3E0FEA3E0FF120011E4FBFAD1
:10298B00F9F81202AC708A9000DAE0FCA3E0FDA328
:10299B00E0FEA3E0FF1203F29000DA1209089000A8
:1029AB00DAE0FCA3E0FDA3E0FEA3E0FF122B6590B1
:1029BB0000DEE0F8A3E0F9A3E0FAA3E0FB120106C6
:1029CB001234149000DE1209089000E3E030E01797
:1029DB009000DEE0FCA3E0FDA3E0FEA3E0FF12030A
:1029EB00F29000DE1209089000DEE0FCA3E0FDA3EC
:0629FB00E0FEA3E0FF2254
:10038E00E9D2E7C933E833F892D5EDD2E7CD33ECB5
:07039E0033FC5002B2D5222E
:1003A500EC30E7100FBF000C0EBE00080DBD0004B9
:1003B5000BEB6014A2D5EB13FCED92E7FD2274FF65
:1003C500FCFDFEFF22E480F8A2D574FF13FC7D80BE
:0303D500E480EFD2
:1003D800ED33EC33601004700FED547F7005740238
:0A03E80092E0227404220422E422B1
:1003F200ED33EC33600A047003BD8004ECB2E7FC19
:0104020022D7
:10040300F920E73624F950037907E4F42402FBE5E5
:1004130082158270021583DBF6E024FB501BE96032
:1004230014E4F0E582158270021583E004F0B40A47
:0D04330008E4F0D9EE7401F00A22C2D522CF
:10044000ED33EC3392D5FA602AB4FF33EDC2E77B8B
:10045000FF60067A047965E4227A04796E20D50477
:100460007A047969224E614E002B494E46002D498F
:100470004E4600E47A08F0A3DAFC7B00740722C041
:1004800083C082ECC0E0EDC0E0EEC0E0EFC0E0EA87
:1004900075F010A4CAABF075F04DA42BFBE435F059
:1004A000FCEA2410FAEB34C5FBEC34D9FCEDC2E7CE
:1004B000FF75F056A4F42411C5F0F434C58FF0A4F0
:1004C0002AE5F03BE43CF020E714120575D0E0FF8C
:1004D000D0E0FED0E0FDD0E0FC12020F8014F40466
:1004E000120575D0E0FFD0E0FED0E0FDD0E0FC12B8
:1004F0000106D082D083E0FAEDD2E7CD33EC33248D
:1005000082FBE4C3CF33CFCE33CECD33CD33DBF359
:100510007B0775F00A846004F0A31B0AE5F0F0A3E2
:100520008FF0740AA4FFACF08EF0740AA42CFEAC19
:10053000F050010C8DF0740AA42CFDE435F0F0A30A
:05054000DBDE74072260
:1033DC0033DA929E35B16011377FE5FE392184894D
:1033EC003AAEC3FF3C1D955B3D6358473E75FDF0FF
:1033FC003F3172183F800000C2D50203CD0203C3D7
:10340C00BD80FA50F30203CAED33EC330460F17B58
:10341C003B7AAA79B8783F120106ED33EC3392D59A
:10342C00247B5011A2D570DB500BED44802404504A
:10343C0004A2D580CEEFFBEEFAEDF9ECF8120357AF
:10344C00EFF582F404FC120323120015C0829033B2
:10345C00DC74091205C4ED33CC33D0F092D525F0D1
:0A346C00A2D57001C313CC13FD229A
:102B31003E9248DA3ECCCCCD3F2AAAAB4000000001
:102B41003F8000003F9837F03FB504F33FD744FC86
:102B51003E3172173EB172173F0515913EDE5BD9CA
:102B6100D2008002C200EDD2E7F8CD33EC3304701D
:102B71000BBD800592D50203CD0203C340FBD314E4
:102B810060F2F5F07C3FEE7A00C39496C8948B40D6
:102B9100230AC89469C8941A401A0AC89468C89448
:102BA1001F40110AC8945AC89425400805F07A00BC
:102BB100CDC2E7CDC0F09000E4120908EA2323C09A
:102BC100E02441F582E4342BF5831208F812001554
:102BD100ECC0E0EDC0E0EEC0E0EFC0E01208DC9038
:102BE10000E41208EC120011D0E0FBD0E0FAD0E0D2
:102BF100F9D0E0B2E7F812020F9000E41209089050
:102C01002B3174031205B59000E41208EC12010691
:102C1100D0E0600F244DF582E4342BF5831208F8DF
:102C21001200159000E4120908D0E0C3947FFDE47E
:102C31009400FC12031E7B187A727931783F1201DD
:102C4100069000E41208EC12001530000B7BD97AD3
:092C51005B79DE783E12010622D7
:100545003F8000004120000042C80000447A0000BE
:10055500461C400047C35000497424004B18968040
:100565004CBEBC205A0E1BCA6753C21C749DC5AE37
:10057500FB60065407601C23231205A3EB54386067
:100585000912058F12059E120106ECF8EDF9EEFA37
:10059500EFCB22EB12059E80F1543803241C900505
:1005A50045FE93FC0EEE93FD0EEE930ECE93FF22C9
:1005B500C0E0EFFBEEFAEDF9ECF8120106D0E0F53C
:1005C500F0EFFBEEFAEDF9ECF81208DCA3A3A3A318
:1005D500E8C0E0E9C0E0EAC0E0EBC0E0C0F012012D
:1005E500061208F8A3A3A3A3120015D0F0D0E0FBD0
:0D05F500D0E0FAD0E0F9D0E0F8D5F0D42243
:0300000002347651
:0C347600787FE4F6D8FD7581210234BD9A
:10060200E709F608DFFA8046E709F208DFFA803EDA
:1006120088828C83E709F0A3DFFA8032E309F608C7
:10062200DFFA8078E309F208DFFA807088828C832F
:10063200E309F0A3DFFA806489828A83E0A3F608E3
:10064200DFFA805889828A83E0A3F208DFFA804CBD
:1006520080D280FA80C680D4806980F28033801094
:1006620080A680EA809A80A880DA80E280CA8033FD
:1006720089828A83ECFAE493A3C8C582C8CCC58375
:10068200CCF0A3C8C582C8CCC583CCDFE9DEE78045
:100692000D89828A83E493A3F608DFF9ECFAA9F0C4
:1006A200EDFB2289828A83ECFAE0A3C8C582C8CC1A
:1006B200C583CCF0A3C8C582C8CCC583CCDFEADE33
:1006C200E880DB89828A83E493A3F208DFF980CC95
:1006D20088F0EF60010E4E60C388F0ED2402B4048E
:1006E2000050B9F582EB2402B4040050AF23234535
:0606F20082239006527302
:1006F800BB010689828A83E0225002E722BBFE0200
:09070800E32289828A83E4932232
:10071100BB010CE58229F582E5833AF583E022509D
:1007210006E92582F8E622BBFE06E92582F8E222E7
:0D073100E58229F582E5833AF583E4932201
:10073E00BB010689828A83F0225002F722BBFE019A
:02074E00F32294
:10075000BC000BBE0029EF8DF084FFADF022E4CC8D
:10076000F875F008EF2FFFEE33FEEC33FCEE9DEC56
:10077000984005FCEE9DFE0FD5F0E9E4CEFD22ED9C
:10078000F8F5F0EE8420D21CFEADF075F008EF2FE6
:10079000FFED33FD4007985006D5F0F222C398FDD7
:0507A0000FD5F0EA2274
:1007A500C5F0F8A3E028F0C5F0F8E58215827002DF
:0607B5001583E038F0227C
:1007BB00A3F8E0C5F025F0F0E582158270021583F1
:0607CB00E0C838F0E8224E
:1007D100E88FF0A4CC8BF0A42CFCE98EF0A42CFCC7
:1007E1008AF0EDA42CFCEA8EF0A4CDA8F08BF0A445
:1007F1002DCC3825F0FDE98FF0A42CCD35F0FCEBA4
:100801008EF0A4FEA9F0EB8FF0A4CFC5F02ECD3968
:0F081100FEE43CFCEAA42DCE35F0FDE43CFC22D5
:0E082000C3E49FFFE49EFEE49DFDE49CFC22E9
:10082E00EB9FF5F0EA9E42F0E99D42F0EC6480C841
:06083E0064809845F022E1
:10084400EB9FF5F0EA9E42F0E99D42F0E89C45F00A
:010854002281
:10085500E8600FECC313FCED13FDEE13FEEF13FF81
:03086500D8F122A5
:10086800BB010789828A830209C35005E9F8020996
:10087800B7BBFE05E9F80209CF89828A830208DC42
:10088800BB010DE58229F582E5833AF5830209C3A8
:100898005007E92582F80209B7BBFE07E92582F867
:1008A8000209CFE58229F582E5833AF5830208DC5F
:1008B800BB010DE58229F582E5833AF58302090833
:1008C8005007E92582F80209DBBBFE07E92582F813
:0408D8000209E72208
:1008DC00E493FC740193FD740293FE740393FF2262
:0C08EC00E0F8A3E0F9A3E0FAA3E0FB228F
:1008F800E493F8740193F9740293FA740393FB2256
:0C090800ECF0A3EDF0A3EEF0A3EFF02262
:10091400A8828583F0D083D08212092B12092B126E
:10092400092B12092BE473E493A3C583C5F0C58393
:10093400C8C582C8F0A3C583C5F0C583C8C582C82D
:010944002290
:10094500F8E0FBA3A3E0F925F0F0E582158270023B
:070955001583E0FA38F022DF
:09095C00EBF0A3EAF0A3E9F0229C
:10096500D083D082F8E4937012740193700DA3A321
:1009750093F8740193F5828883E473740293686035
:06098500EFA3A3A380DF35
:103BAA00EFB40A07740D123BB5740A309811A8993C
:103BBA00B8130CC2983098FDA899C298B811F6307B
:073BCA0099FDC299F5992253
:10098B00EF4E6012EF60010EEDBB010B89828A8383
:10099B00F0A3DFFCDEFA2289F05007F709DFFCA990
:0C09AB00F022BBFEFCF309DFFCA9F022E7
:10348200023791E493A3F8E493A34003F68001F298
:1034920008DFF48029E493A3F85407240CC8C3334B
:1034A200C4540F4420C8834004F456800146F6DF1A
:1034B200E4800B0102040810204080903800E47E72
:1034C200019360BCA3FF543F30E509541FFEE4930F
:1034D200A360010ECF54C025E060A840B8E493A3D6
:1034E200FAE493A3F8E493A3C8C582C8CAC583CA01
:1034F200F0A3C8C582C8CAC583CADFE9DEE780BEB9
:01385800006F
:0C09B700E6FC08E6FD08E6FE08E6FF226C
:0C09C300E0FCA3E0FDA3E0FEA3E0FF22A7
:0C09CF00E2FC08E2FD08E2FE08E2FF2264
:0C09DB00ECF608EDF608EEF608EFF62248
:0C09E700ECF208EDF208EEF208EFF2224C
:00000001FF
