:104C3C00544F52520045590025642020002566200F
:104C4C00202000256600000000000000000000008D
:074C5C000000000000000051
:10421F004402540000000041024F004402500000CD
:09422F00000044025800000000E8
:1039E100781E7C017D017BFF7A4C79527E007F0736
:1039F1001206D2900125120926000000009001292B
:103A010012092600000000E490012DF0A3F0124DF0
:103A110078124CFB124DD6124CC4124D8F124CC46D
:103A2100124A337BFF7A4C793C7D011230D9124D19
:103A3100A47F2C7E01124C137BFF7A4C79417D02CD
:103A41001230D97F2C7E01124C13120003123E64F6
:103A510012414C90014074FFF0A3744CF0A37444E4
:103A6100F09001D6E0FF900143E4F0A3EFF07B0179
:103A71007A01791E120B537B017A01791EE4FD1242
:103A810030D97B017A01791E7D021230D97F327ED5
:103A910000124C13E4FF123F6390012512091A90A2
:103AA100014074FFF0A3744CF0A37449F090012518
:103AB100E0FCA3E0FDA3E0FEA3E0FF9001431209B7
:103AC1001A7B017A01791E120B537B017A01791E4F
:103AD1007D011230D9438020124CE0AC06AD07E4E1
:103AE10012031E7B3A7A077954783C120106900141
:103AF1002912091A900125E0FCA3E0FDA3E0FEA331
:103B0100E0FF9001337402F0E4A3F0123C3B023A6F
:013B11005162
:104CC4005390DF5390EF4394205395DFE4F59A75A6
:0C4CD4009BA0759C6C759D50759E042281
:104D7800C2AF75AA0575AA0A75A91FD2AF75AA058B
:074D880075AA0A75A91F229C
:104CFB0075800C75904075A0117592F0E4F5937565
:0A4D0B0094BFF5957596EEF597221A
:0A4DD6005392DF4393204380202214
:104D8F0075A88275B802E4F589F58A758C7F758EE2
:054D9F0004438810220E
:104CE000E4FFFE75AB09E5AB20E20843AB04E5AB9E
:0A4CF00020E2FBAFAC7E0053ABF7EF
:014CFA002297
:03000B0002447C30
:10447C00C0E0C083C082C0D09001D9E0601290012E
:10448C00EDE4F0A374C8F09001DA7401F0A3E4F049
:10449C009001E5E060159001EF740FF0A374A0F0AB
:1044AC009001E5E4F0A304F0A3E4F09001DAE060FD
:1044BC00369001D9E0B40105E4F0439010D390019B
:1044CC00EEE094009001EDE064809480400EA3E057
:1044DC0024FFF09001EDE034FFF0800B9001DAE462
:1044EC00F0A304F05390EF9001E6E06025D3900127
:1044FC00F0E094009001EFE09400400EA3E024FF64
:10450C00F09001EFE034FFF080089001E6E4F0A3B6
:10451C0004F0758ACF758CB5438810D0D0D082D07A
:04452C0083D0E03226
:102CF8009002397474F0A3E4F0783F7C027D017B84
:102D0800FF7A4C7959FE7F0A1206D29002491209BD
:102D1800263DF5C28FE490024DF0A3F09002D774DF
:102D2800AAF09002D87455F090026B1209260000A0
:102D38000000900239E0FEA3E0FF1245E390023A5A
:102D4800E0240BFF900239E03400FEC006C0079073
:102D5800026B12092600000000D007D0061245E3D6
:102D680090024DE4F0A304F090024DE0FEA3E0FFD2
:102D7800C3940BEE940050E8EF7802C333CE33CE01
:102D8800D8F9FF90023AE02FFF900239E03EFEC0EA
:102D980006C007900249E0FCA3E0FDA3E0FEA3E023
:102DA800FF90026B12091AD007D0061245E3900271
:102DB8004DE0FEA3E07802C333CE33CED8F9FF90BE
:102DC800023AE02FFF900239E03ECF24FCCF34FFD7
:102DD800FE124AC190023B12091A90014074FFF09A
:102DE800A3744CF0A3744FF090023BE0FCA3E0FD09
:102DF800A3E0FEA3E0FF90014312091A7B017A02C7
:102E0800793F120B537B017A02793F7D011230D949
:102E180090024DE0FEA3E07802C333CE33CED8F95A
:102E2800FF90023AE02FFF900239E03EFE124AC1BD
:102E380090023B12091A90014074FFF0A3744CF001
:102E4800A3744FF090023BE0FCA3E0FDA3E0FEA3D7
:102E5800E0FF90014312091A7B017A02793F120BB5
:102E6800537B017A02793FE4FD1230D990024DE09C
:102E7800FEA3E07802C333CE33CED8F9FF90023AEE
:102E8800E02FFF900239E03ECF2404CF3400FE1239
:102E98004AC190023B12091A90014074FFF0A374D2
:102EA8004CF0A3744FF090023BE0FCA3E0FDA3E0DC
:102EB800FEA3E0FF90014312091A7B017A02793FD1
:102EC800120B537B017A02793F7D021230D99002AE
:102ED80049E0FCA3E0FDA3E0FEA3E0FFE4FBFA79F0
:102EE80080783F12001590024912091A7FE87E0384
:102EF800124C1390024EE004F0700690024DE0046C
:042F0800F0022D7036
:104B8A0025362E30660025352E306600464C4F41BC
:104B9A00540025362E31660025372E32660025361A
:104BAA002E32660025372E33660025362E336600F0
:104238004A016D5F503D79726B6F517F735C018BE2
:10424800776E0F7C2F276F76505C360E00645F37D1
:0C42580073246B2E5E4C0000723D2000B1
:094D480053A0FB124D5143A004DD
:0E4D5100E4FFFE0FBF00010EEF64054E70F58B
:014D5F002231
:024C8A00AD0774
:104C8C00E4FCED20E70553A0F7800343A008124D88
:0A4C9C0048ED25E0FD0CECB408E83B
:014CA60022EB
:104A330043A00243A00443A008124D51124D51E478
:104A4300900177F0A304F078457C01FDFB7A0179AE
:104A5300777E001243E49001787403F01243D690FA
:104A630001787428F01243D69001787429F0124328
:084A7300D61243B9E4FEFF2254
:1043B9009001777401F0E4900189F0A37410F07D05
:1043C900007E00FF7B017A017979120A867E0078E6
:1043D900457C017D017B017A0179777F141206D230
:1043E900E4FB43A00243A00443A008124D5153A08B
:1043F900FD124D51124D4853A0F7124D48900145F9
:10440900E0700553A0F7800343A008124D489001BE
:1044190045E0700BA3E0FF124C8A124D488048E436
:10442900900157F0FB53A0FB900157E020E705539B
:10443900A0F7800343A008124D4B900157E025E0F7
:10444900F00BEBB406DFE4FBEBFFC3740F9FFFE453
:104459009400FE74472FF58274013EF583E0FF1244
:104469004C8A0BEBB410E143A00243A00843A0041B
:03447900024D51A0
:104CA7001243B9E4900177F0A37402F01243D6E4FB
:0D4CB700900178F0FE1243D87E007F0122AC
:080003001243B97E007F0122C7
:104D2F009001777401F0E4900189F0A37410F07D85
:094D3F00FF1243CA7E007F01222D
:0C4B0700E0FF900142E0FDA3E0FB14F091
:104B1300E4FEEDB40100EDB402027E0BED70027E03
:104B230005C374059B2EFD3395E0FC74792DF58246
:104B330074013CF583E05480F074792DF58274019F
:064B43003CF583E04FF099
:014B49002249
:10453000AC07ED70030245B624FE60400460030240
:1045400045E0ECB40311EB90017AB40106E044803D
:10455000F08004E0547FF0ECB40211EB90017BB4E6
:104560000106E04480F08004E0547FF0EC640170C8
:104570006FEB90017CB40102805C8060ECB40311AD
:10458000EB900185B40106E04480F08004E0547FA4
:10459000F0ECB40211EB900186B40106E04480F027
:1045A0008004E0547FF0EC64017035EB900187B437
:1045B000010280228026ECB40211EB900180B4014C
:1045C00006E04480F08004E0547FF0ECB40111EB8D
:1045D000900181B40106E04480F08004E0547FF053
:0345E000024D1574
:103D5A00EF24FEB409004003023E52903D7375F011
:103D6A0003A4C58325F0C58373023DCB023DBF0280
:103D7A003DD6023DE1023DEC023D9B023DA7023DDC
:103D8A00B3023D8EED90017EB40103023E1E023E57
:103D9A004EED900182B40102807A023E4EED90010E
:103DAA007FB40102806E023E4EED900183B401029F
:103DBA008062023E4EED90017DB401028056023EC1
:103DCA004EED900179B40102804A8078ED90018825
:103DDA00B40102803F806DED900184B40102803409
:103DEA008062ED640190017E7030E04480F09001C1
:103DFA0082E04480F090017FE04480F0900183E00B
:103E0A004480F0900179E04480F0900184E044809D
:103E1A00F0900188E04480F0802EE0547FF0900119
:103E2A0082E0547FF090017FE0547FF0900183E0BC
:103E3A00547FF0900179E0547FF0900184E0547F40
:103E4A00F0900188E0547FF09001777401F0E490DB
:0A3E5A000189F0A37410F0024D1569
:063C3B0090012F12091A8E
:103C4100900133E0703BA3E0900140700C74FFF0F1
:103C5100A3744BF0A3748A800A74FFF0A3744BF031
:103C6100A37490F090012FE0FCA3E0FDA3E0FEA37C
:103C7100E0FF90014312091A7B017A017935120B99
:103C810053900133E06401703CA3E0900140700D5A
:103C910074FFF0A3744BF0A37496F0801F74FFF0CF
:103CA100A3744BF0A3749CF090012FE0FCA3E0FD02
:103CB100A3E0FEA3E0FF90014312091A7B017A0100
:103CC1007935120B53900133E06402703BA3E0900D
:103CD1000140700C74FFF0A3744BF0A374A2800A2E
:103CE10074FFF0A3744BF0A374A8F090012FE0FCD3
:103CF100A3E0FDA3E0FEA3E0FF90014312091A7BBC
:103D0100017A017935120B53900133E06403703B62
:103D1100A3E0900140700C74FFF0A3744BF0A37406
:103D2100AE800A74FFF0A3744BF0A374B4F0900159
:103D31002FE0FCA3E0FDA3E0FEA3E0FF900143120E
:103D4100091A7B017A017935120B537B017A0179CA
:093D510035900134E0FD0230D987
:0E30D90090013FEBF0A3EAF0A3E9F0A3EDF0C5
:1030E700A37405F0E4A3F0ED700C900180E0547F29
:1030F700F0A3E0547FF0900142E0FDB4021190018B
:1031070085E0547FF0A3E0547FF0A3E0547FF0ED17
:10311700B4011190017AE0547FF0A3E0547FF0A34B
:10312700E0547FF090013FE0FBA3E0FAA3E0F9123F
:1031370006F8FF7003023281C3648094B0401AD34B
:10314700EF648094B95012EF3395E0FE743D2FF58C
:103157008274013EF583124B0790013FE0FBA3E029
:10316700FAA3E0F91206F8B42D069001A5124B0751
:1031770090013FE0FBA3E0FAA3E0F91206F8B420C0
:1031870013900142E0FDA3E0FBE4FF124B13900113
:1031970043E014F090013FE0FBA3E0FAA3E0F9124B
:1031A70006F8FFC3648094C1402AD3EF648094DAA1
:1031B7005022EF3395E0FE744A2FF58274013EF5F5
:1031C70083E0FF900142E0FDA3E0FB124B13900167
:1031D70043E014F090013FE0FBA3E0FAA3E0F9120B
:1031E70006F8642E600302326E900142E0FC64022E
:1031F7007028900144E0FEB40207900185E0448006
:10320700F0EEB40307900186E04480F0900144E0BB
:10321700B40407900187E04480F0EC6401702890C3
:103227000144E0FDB4020790017AE04480F0EDB478
:10323700030790017BE04480F0900144E0B4040769
:1032470090017CE04480F0900142E0701A900144C4
:10325700E0FDB40407900181E04480F0EDB403077A
:10326700900180E04480F0900144E004F090014038
:10327700E475F0011207B702312B9001777401F062
:0C328700E4900189F0A37410F0024D15D2
:104D15009001777401F078457C01FDFB7A01797784
:0A4D25007E007F141206D20243E95B
:044264004101D7003D
:104C1300E4FDFCC3ED9FEC9E501EE4FBFA0BBB00CE
:104C2300010AEB64C34A70F575AA0575AA0A75A94A
:084C33001F0DBD00010C80DB28
:014C3B002256
:10414C00E4F99001D6F0D281D280D290D291D29261
:10415C00E97002C281E9B40102C280E9B40202C270
:10416C0090E9B40302C291E9B40402C2927F017EC9
:10417C0000124C1320820AE925E025E0049001D6B8
:10418C00F020A40BE925E025E024029001D6F020D4
:10419C00A00BE925E025E024039001D6F020960B36
:1041AC00E925E025E024049001D6F009E9640570C6
:1041BC00959001D8E0FF700C9001D6E06006A374D6
:1041CC0001F080319001D6E0FEB50709EE6006A340
:1041DC007402F080209001D8E0600C9001D6E07061
:1041EC0006A37403F0800E9001D8E070089001D6FD
:1041FC00E07002A3F09001D6E09001D8F0600A9034
:10420C0001D7E0B40103124DC875AA0575AA0A7549
:02421C00A91FD8
:01421E00227D
:0E4DC8009001DAE07007A3F09001D904F02208
:014DE30022AD
:034DE0007F00222F
:104DA400E4F9124DC87FFA7E00124C1309E9B403EA
:014DB400F10D
:014DB50022DB
:104D60000000000000000000000000000000000043
:084D700000000000000000003B
:104268004400C900000000602800F60000000000BB
:104278000000000000000000000000000000000036
:104288000000000000000000000000000000000026
:10429800000000602800CE000000000000000000C0
:1042A8000000000000000000000000000000000006
:1042B80000000000000000000000000000000044B2
:0A42C80000C5000000004100CD0019
:060F710090014812091A6C
:100F770090014D12092640886E559001511209269D
:100F870000000000900148E0FCA3E0FDA3E0FEA301
:100F9700E0FFE412031990015812091A90015C74DA
:100FA70006F0E4A3F0A3F090015504F0A37400F059
:100FB700A374F6F090014DE0FCA3E0FDA3E0FEA3CF
:100FC700E0FF9000C5E0F8A3E0F9A3E0FAA3E0FB97
:100FD700120015900158E0F8A3E0F9A3E0FAA3E0A6
:100FE700FB1202AC6002503290014DE0F8A3E0F929
:100FF700A3E0FAA3E0FB9000C5E0FCA3E0FDA3E0BB
:10100700FEA3E0FF120011900158E0F8A3E0F9A356
:10101700E0FAA3E0FB1202AC505C90014CE0705682
:101027009000CDE0FF04F0EFD394024046E4F09047
:10103700015DF090015CE014FFA3E0C39F40030251
:101047001185900158E0FCA3E0FDA3E0FEA3E0FFBB
:10105700900155E0FBA3E0FAA3E0F990015DE0758C
:10106700F004A4F58285F0831208CA90015DE004BC
:10107700F080C002138B90014CE06401704C90002B
:10108700CDF090015DF090015CE014FFA3E0C39FF9
:101097004003021185900148E0FCA3E0FDA3E0FEB8
:1010A700A3E0FFE4120319900155E0FBA3E0FAA3C4
:1010B700E0F990015DE075F004A4F58285F08312F4
:1010C70008CA90015DE004F080BC90014CE0640226
:1010D700705590015DF090015CE014FFA3E0FEC342
:1010E7009F4003021185EE2401FFE433FEEF7802EF
:1010F700C333CE33CED8F9FF900155E0FBA3E0FA16
:10110700A3E0F98F828E8312089A900155A3A390CA
:10111700015DE075F004A4F58285F0831208CA909A
:10112700015DE004F080AFE49000CDF090015DF048
:1011370090015CE014FFA3E0FEC39F5041EE240141
:10114700FFE433FEEF7802C333CE33CED8F9FF90F6
:101157000155E0FBA3E0FAA3E0F98F828E83120822
:101167009A900155A3A390015DE075F004A4F58260
:1011770085F0831208CA90015DE004F080B2900107
:1011870058E0FCA3E0FDA3E0FEA3E0FFC004C00518
:10119700C006C007A3E024FFFFE434FFFEEF780298
:1011A700C333CE33CED8F9FF900155E0FBA3E0FA65
:1011B700A3E0F98F828E83D007D006D005D0041222
:1011C70008CAE490015DF090015CE0FFA3E0C39FD3
:1011D7005037900155E0FBA3E0FAA3E0F990015DD9
:1011E700E075F004A4F58285F08312089A90015DFA
:1011F700E025E025E024CEF582E43400F5831209EA
:101207001A90015DE004F080BEE490015DF090016A
:101217005CE014FFA3E0FEC39F40030212F8EE0454
:10122700A3F090015CE0FF90015EE0FEC39F4003E6
:101237000212EF90015DE025E025E024CEF582E47F
:101247003400F583E0F8A3E0F9A3E0FAA3E0FBEEAE
:1012570025E025E024CEF582E43400F583E0FCA305
:10126700E0FDA3E0FEA3E0FF1202AC6072407090C5
:10127700015EE0FB25E025E024CEF582E43400F5AD
:1012870083E0FCA3E0FDA3E0FEA3E0FF9001511281
:10129700091A90015DE0FA25E025E024CEF582E405
:1012A7003400F583E0FCA3E0FDA3E0FEA3E0FFEB41
:1012B70025E025E024CEF582E43400F58312091AEF
:1012C700900151E0FCA3E0FDA3E0FEA3E0FFEA25C7
:1012D700E025E024CEF582E43400F58312091A9064
:1012E700015EE004F002122990015DE004F00212B1
:1012F700159000C51209260000000090015D7401D9
:10130700F090015CE014FFA3E0FEC39F503890000B
:10131700C5E0F8A3E0F9A3E0FAA3E0FBEE25E0259A
:10132700E024CEF582E43400F583E0FCA3E0FDA3DE
:10133700E0FEA3E0FF1200159000C512091A900104
:101347005DE004F080BB9000C5E0FCA3E0FDA3E0F6
:10135700FEA3E0FFC004C005C006C00790015CE023
:1013670024FEFDE434FFFCE412031EA804A905AA29
:1013770006AB07D007D006D005D00412020F9000A5
:10138700C512091A9000C5E0FCA3E0FDA3E0FEA387
:02139700E0FF75
:011399002231
:053F630090012FEFF0BA
:103F6800A31209260000000078347C017D017BFF44
:103F78007A4D79607E007F141206D23083030240A6
:103F8800521247C690013012091A900130E0FCA382
:103F9800E0FDA3E0FEA3E0FF780712086790013078
:103FA80012091AE47FFF7EFFFDFC900130E0F8A3C0
:103FB800E0F9A3E0FAA3E0FBC3120856606DE47FC2
:103FC800FF7EFFFDFC900130E0F8A3E0F9A3E0FAE2
:103FD800A3E0FBD3120856900130E04032F8E49B8E
:103FE800FFE49AFE740299FDE498FC9001301209EE
:103FF8001A900130E0F8A3E0F9A3E0FAA3E0FBC3CC
:1040080074F49BFF747E9AFEE499FDE4988015FC95
:10401800A3E0FDA3E0FEA3E024F4FFEE347EFEE47B
:104028003DFDE43CFC90013012091A900130E0FC9F
:10403800A3E0FDA3E0FEA3E0FF90012FE090014C78
:10404800F0120F719000C912091A9000C9E0FCA380
:08405800E0FDA3E0FEA3E0FF80
:01406000223D
:1047C600784B7C017D017BFF7A4D79747E007F04F6
:1047D6001206D29001487401F0A37401F0A3744B41
:1047E600F0308306E4FFFEFDFC22E4FDFCD284EDFE
:1047F600AE047803CEC313CE13D8F9FF244CF5824A
:1048060074013EF583E0FB25E0F0C284744C2FF57D
:104816008274013EF583E0FFA283E433FEEF4EF09F
:104826000DBD00010CED64184C70C2D284EDAE04CF
:104836007805C333CE33CED8F9FDAC06C2849001D9
:0C48460048E0FBA3E0FAA3E0F912087AB6
:014852002243
:014DE40022AC
:0A4DB600E475F0011207CDAFF0FE26
:074DC0008F828E83E493FF54
:014DC70022C9
:084B4A009002BCEEF0A3EFF0B5
:104B52009002C07401F0A37402F0A374BEF0E4FDED
:104B62009002BC124DB69002C0E0FBA3E475F001C6
:104B72001207CDA9F0FAEF12073E0DEDB402E19053
:074B820002BEE0FEA3E0FF0C
:014B89002209
:084A7B00900280EEF0A3EFF0C1
:104A83009002867401F0A37402F0A37482F0E4FD33
:104A9300900280124DB6900286E0FBA3E475F0010C
:104AA3001207CDA9F0FAEF12073E0DEDB404E19021
:0D4AB3000282E0FCA3E0FDA3E0FEA3E0FF13
:014AC00022D3
:084AC100900289EEF0A3EFF072
:104AC90090028F7401F0A37402F0A3748BF0E4FDDB
:104AD900900289124DB690028FE0FBA3E475F001B4
:104AE9001207CDA9F0FAEF12073E0DEDB404E190DB
:0D4AF900028BE0FCA3E0FDA3E0FEA3E0FFC4
:014B0600228C
:10496900AFF0FEE0FBA3E475F0011207CDA9F0FA60
:044979001206F8FD2D
:10497D00E49002CDF09002CBEEF0A3EFF0A2AF9257
:10498D0009C2AF9002CBE0F5C3A3E0F5C2AF058F2E
:10499D00C1E4F5C4F5C5F5C69002D7E0B4AA08A3E5
:1049AD00E0B4550375C703124DE475C40575C50A0A
:1049BD0075C6099002D7E0B4AA08A3E0B4550375F3
:0D49CD00C703E4F5C4F5C5F5C6A20992AF15
:0149DA0022BA
:104BE9009002D0EDF09002CEEEF0A3EFF0124DC09E
:104BF900EFF460089002CE7D011238A49002CEE055
:0A4C0900FEA3E0FFA3E0FD02497DD9
:1048DF00900294ECF0A3EDF0900292EEF0A3EFF0C3
:1048EF00124B4A900299EEF0A3EFF09002967401EA
:1048FF00F0A37402F0A37499F0900296E0FBA3E486
:10490F0075F0011207CDA9F0FA1206F8B4FF169050
:10491F000296E0FBA3E475F0011207CDA9F0FA129D
:10492F0006F8F4600F900292E0FEA3E0FF7D027C98
:10493F00001238AB9002967401F0A37402F0A374C6
:10494F0094F0E4FC900292E475F0011207CD90020E
:09495F00961249690CECB402EB5C
:01496800222C
:0846890090025CEEF0A3EFF0DB
:10469100124A7B90026512091A9002627401F0A31A
:1046A1007402F0A37465F0900262E0FBA3E475F07C
:1046B100011207CDA9F0FA1206F8B4FF4290026286
:1046C100E0FBA3E475F0011207CDA9F0FA1206F898
:1046D100B4FF2C900262E0FBA3E475F0011207CD58
:1046E100A9F0FA1206F8B4FF16900262E0FBA3E407
:1046F10075F0011207CDA9F0FA1206F8B4FF069081
:10470100025C1238A29002627401F0A37402F0A359
:10471100745EF0E4FC90025CE475F0011207CD9048
:0A47210002621249690CECB404EBCB
:01472B00226B
:0845E300900269EEF0A3EFF075
:1045EB00124AC190027212091A90026F7401F0A361
:1045FB007402F0A37472F090026FE0FBA3E475F009
:10460B00011207CDA9F0FA1206F8B4FF4290026F1F
:10461B00E0FBA3E475F0011207CDA9F0FA1206F83E
:10462B00B4FF2C90026FE0FBA3E475F0011207CDF1
:10463B00A9F0FA1206F8B4FF1690026FE0FBA3E4A0
:10464B0075F0011207CDA9F0FA1206F8B4FF069027
:10465B0002691238A290026F7401F0A37402F0A3E6
:10466B00746BF0E4FC900269E475F0011207CDAFB6
:0D467B00F0FE90026F12496C0CECB404E8E4
:01468800220F
:1049DB00E49002D1F0A3EEF0A3EFF0A2AF920AC2E3
:1049EB00AF9002D2E0F5C3A3E0F5C2E4F5C4F5C580
:1049FB00F5C69002D7E0B4AA08A3E0B4550375C777
:104A0B0003124DE475C40575C50A75C6099002D726
:104A1B00E0B4AA08A3E0B4550375C70CE4F5C4F5DC
:074A2B00C5F5C6A20A92AF17
:014A32002261
:0938A2007D04E0FEA3E0FF7C00C0
:1038AB0090029DECF0A3EDF090029BEEF0A3EFF0F5
:1038BB00E490029FF0A3F0A3F0A37404F0A3E4F050
:1038CB00FD7C041207627D007C04120750AA06AB34
:1038DB0007E49002A0F0A3F09002A0E0FEA3E0FFAB
:1038EB00C3940AEE94005025E42FFFEE3468FE12C9
:1038FB004DC0EFF460077F007E681249DB9002A198
:10390B00E004F070D39002A0E004F080CBE49002CE
:10391B00A0F0A3F09002A2E0FEA3E0FF9002A0E0D3
:10392B00FCA3E0FDC39FEC9E5056ED2BFFEC3AFE43
:10393B0090029BE0B50617A3E0B50712A3E0FEA328
:10394B00E0FF9002A1E02FF09002A0E03EF0900289
:10395B00A1E02BFF9002A0E03AFE124DC0AD079004
:10396B0002A1E02400FF9002A0E03468FE12497D22
:10397B009002A1E004F0709C9002A0E004F080940F
:10398B00AF03AE021249DBE49002A0F0A3F0900269
:10399B00A2E0FEA3E0FF9002A0E0FCA3E0FDC39F2A
:1039AB00EC9E502BE42DFFEC3468FE124DC0AD079E
:1039BB009002A1E02BFF9002A0E03AFE12497D900D
:1039CB0002A1E004F070C79002A0E004F080BF7F7A
:0639DB00007E680249DBDA
:1042ED003030303030003030303030300020202051
:1042FD00554E00535441424C45002020504C530024
:10430D00554E4C4F41440048454C502000505245AD
:10431D005353005245462030004300204C4F41443A
:10432D00004320202000464143544F0052002020DE
:10433D00454E440020204F4646005341564544000B
:10434D002D2D2D2D2D00202020202D002020202052
:10435D00202D0020202D2D2D002020202D2D2D0055
:10436D0020202020202000534F4252450020504550
:10437D00534F004F56455220002D2D2D2D2D2D0024
:10438D0020202020203000202D452D20002D2D2DEA
:10439D002D2D2D2D2D2D2D20002020202030000005
:0C43AD0000000000000000000000000004
:1042D200440006000000004400000000000044000A
:0A42E20090000000004200040000FC
:102F0C007F017E6C124AC190002A12091A7F057E3D
:102F1C006C124AC190002612091A7F097E6C124A63
:102F2C00C190002E12091A90001E120926000000F2
:102F3C00007F667E6C124DC090006DEFF07F0D7EB1
:102F4C006C124DC090006EEFF07F0E7E6C124DC077
:102F5C0090006FEFF07F1A7E6C124DC090008CEFDA
:102F6C00F07F0F7E6C124B4A900056EEF0A3EFF000
:102F7C007F117E6C124B4A900059EEF0A3EFF07F5C
:102F8C00137E6C124B4A90005BEEF0A3EFF07F6463
:102F9C007E6C124B4A90005DEEF0A3EFF07F6B7EDF
:102FAC006C124B4A90005FEEF0A3EFF07F157E6C35
:102FBC00124DC0900070EFF07F167E6C124DC090D9
:102FCC000071EFF07F287E6C124DC090008FEFF0F7
:102FDC00900071E090007370057405F0800374012B
:102FEC00F07F177E6C124DC0900072EFF090007461
:102FFC0070057405F080037401F07F187E6C124D1F
:10300C00C0900075EFF0E4900077F07F1B7E6C129F
:10301C004DC0900078EFF07F1C7E6C124DC090007C
:10302C0079EFF07F267E6C124DC090007AEFF07F26
:10303C001D7E70124B4A900067EEF0A3EFF07F1FDD
:10304C007E70124B4A900069EEF0A3EFF07F2A7E5F
:10305C006C124DC090007DEFF07F2B7E6C124B4AB2
:10306C00900061EEF0A3EFF07F377E6C124DC090B4
:10307C00007FEFF07F3C7E6C124DC090008DEFF026
:10308C007F3D7E70124B4A90006BEEF0A3EFF07F09
:10309C003F7E70124AC190003E12091A7F547E6C1A
:1030AC00124DC0900058EFF07F627E6C124DC090B4
:1030BC00008BEFF07F637E70124DC09000BAEFF082
:0D30CC007F677E70124AC190004E02091A03
:1027BE009002D774AAF09002D87455F0EF120977F0
:1027CE00285C0027F3012A570229D10429E30629A0
:1027DE00B80A284F0B29AA0C2A0A0D2A3D0E2A7474
:1027EE000F00002A807D017F007E6C124BE9900065
:1027FE002AE0FCA3E0FDA3E0FEA3E0FF90026B1233
:10280E00091A7F017E6C1245E3900026E0FCA3E0DE
:10281E00FDA3E0FEA3E0FF90026B12091A7F057E76
:10282E006C1245E390002EE0FCA3E0FDA3E0FEA3B6
:10283E00E0FF90026B12091A7F097E6C1245E3804D
:10284E0000900067E0FCA3E0FD7F1D0229B490001C
:10285E006EE0FD7F0D7E6C124BE990006FE0FD7F08
:10286E000E7E6C124BE9900056E0FCA3E0FD7F0F4C
:10287E007E6C1248DF900059E0FCA3E0FD7F117ED4
:10288E006C1248DF90005BE0FCA3E0FD7F137E6CD2
:10289E001248DF90005DE0FCA3E0FD7F647E6C12C9
:1028AE0048DF90005FE0FCA3E0FD7F6B7E6C12487A
:1028BE00DF900070E0FD7F157E6C124BE990007189
:1028CE00E0FD7F167E6C124BE9900075E0FD7F18DF
:1028DE007E6C124BE9900077E0FD7F197E6C124BF7
:1028EE00E9900078E0FD7F1B7E6C124BE990007939
:1028FE00E0FD7F1C7E6C124BE990007AE0FD7F2696
:10290E007E6C124BE990007DE0FD7F2A7E6C124BAF
:10291E00E9900069E0FCA3E0FD7F1F7E701248DFA6
:10292E0090007FE0FD7F377E6C124BE990008DE0CA
:10293E00FD7F3C7E6C124BE990006BE0FCA3E0FD4A
:10294E007F3D7E701248DF90003EE0FCA3E0FDA3C9
:10295E00E0FEA3E0FF90026B12091A7F3F7E701219
:10296E0045E3900058E0FD7F547E6C124BE99000D9
:10297E008BE0FD7F627E6C124BE99000BAE0FD7F2A
:10298E00637E70124BE990006DE0FD7F667E6C12E7
:10299E004BE990008CE0FD7F1A022A7B900069E0E3
:1029AE00FCA3E0FD7F1F7E708025900026E0FCA337
:1029BE00E0FDA3E0FEA3E0FF90026B12091A7F0573
:1029CE00022A53900061E0FCA3E0FD7F2B7E6C1287
:1029DE0048DF022A8090006BE0FCA3E0FD7F3D7E85
:1029EE00701248DF90003EE0FCA3E0FDA3E0FEA3E2
:1029FE00E0FF90026B12091A7F3F8063900042E065
:102A0E00FCA3E0FDA3E0FEA3E0FF90026B12091A07
:102A1E007F5A7E6C1245E3900046E0FCA3E0FDA3D6
:102A2E00E0FEA3E0FF90026B12091A7F5E80169003
:102A3E00004AE0FCA3E0FDA3E0FEA3E0FF90026BE2
:102A4E0012091A7F567E6C801890004EE0FCA3E0AF
:102A5E00FDA3E0FEA3E0FF90026B12091A7F677ED2
:102A6E00701245E3800C90008FE0FD7F287E6C1283
:0C2A7E004BE9E49002D7F09002D8F0225F
:0621D5007B01E4FD7F0127
:0D21DB00900223EDF0A3EBF0900222EFF054
:1021E800E4900225F0A3F0FCFDFEA312091A900268
:1021F8002B1209260000000090022F120926000069
:10220800000090007FE0FCE41203239002331209DF
:102218001AE4900237F0A3F0900226F0900224E02E
:10222800FF70069002267402F0123F6390022F128C
:10223800091A74FFFFFEFDFC900227E0F8A3E0F9FD
:10224800A3E0FAA3E0FBD312084050030224C21211
:102258004DE0900223E064016003022312900227FC
:10226800E0FCA3E0FDA3E0FEA3E0FFEC4D4E4F70C1
:10227800237BFF7A4279ED7D011230D97BFF7A42C8
:1022880079ED7D021230D97BFF7A4279F3E4FD12B1
:1022980030D98076E47F677E2BFDFC900227E0F83A
:1022A800A3E0F9A3E0FAA3E0FB1207E3EC12031999
:1022B800E4900133F0A304F0123C3BE47F677E2BEB
:1022C800FDFC900227E0F8A3E0F9A3E0FAA3E0FB05
:1022D8001207E3EC120319E4900133F0A37402F03F
:1022E800123C3B7F077EB27D017C00900227E0F81C
:1022F800A3E0F9A3E0FAA3E0FB1207E3EC12031949
:10230800E4900133F0A3F0123C3B900224E0FF126A
:102318003F6390022B12091A900094E07003022484
:10232800B7900233E0F8A3E0F9A3E0FAA3E0FB904A
:10233800022FE0FCA3E0FDA3E0FEA3E0FF120011E2
:1023480090022BE0F8A3E0F9A3E0FAA3E0FB120265
:10235800AC4074900233E0FCA3E0FDA3E0FEA3E0F0
:10236800FF90022FE0F8A3E0F9A3E0FAA3E0FB1244
:10237800001590022BE0F8A3E0F9A3E0FAA3E0FB34
:102388001202AC60025040900225E004F0A3E0FF86
:10239800900225E0D39F500302223A900227E0FCE6
:1023A800A3E0FDA3E0FEA3E0FFEF24FFFFEE34FF70
:1023B800FEED34FFFDEC34FFFC90022712091AE40D
:1023C800900225F002223A900223E06401600302A1
:1023D800248B1200037BFF7A4279FA7D021230D9EE
:1023E8007BFF7A437900E4FD1230D9900227120965
:1023F8002600000000E47F207E4EFDFC900227E0CE
:10240800F8A3E0F9A3E0FAA3E0FBC31208405027C1
:10241800900227E0FCA3E0FDA3E0FEA3E0FFE4FABE
:10242800F9F8EF2401FFEA3EFEE93DFDE83CFC90A7
:10243800022712091A80BE900227120926000000FE
:1024480000E47F207E4EFDFC900227E0F8A3E0F92F
:10245800A3E0FAA3E0FBC31208405027900227E04C
:10246800FCA3E0FDA3E0FEA3E0FFE4FAF9F8EF2403
:1024780001FFEA3EFEE93DFDE83CFC900227120917
:102488001A80BEE4900225F0900222E0FFE4FCFDF1
:10249800FE90022712091A900224E0FF123F63906F
:1024A800022F12091A900224E0700302223AE490E3
:1024B80000B8F0FFFE7DC87CC2229000B87401F01D
:0E24C80090022FE0FCA3E0FDA3E0FEA3E0FFE6
:0124D60022E3
:10342A009002A4120926000000009002A8120926A0
:10343A0000000000E4FBFDFF1221DB9002A8120944
:10344A001A900094E070037F0222900026E0F8A30D
:10345A00E0F9A3E0FAA3E0FB9002A8E0FCA3E0FDF8
:10346A00A3E0FEA3E0FF1200119002A412091A9031
:10347A000078E070030235377FCD7ECC7D4C7C3EF0
:10348A0090002AE0F8A3E0F9A3E0FAA3E0FB120116
:10349A00069002A4E0F8A3E0F9A3E0FAA3E0FB1285
:1034AA0002AC602C402AE4FFFEFD7C3F90002AE03B
:1034BA00F8A3E0F9A3E0FAA3E0FB1201069002A444
:1034CA00E0F8A3E0F9A3E0FAA3E0FB1202AC402C77
:1034DA007FCD7ECC7D4C7CBE90002AE0F8A3E0F93B
:1034EA00A3E0FAA3E0FB1201069002A4E0F8A3E02D
:1034FA00F9A3E0FAA3E0FB1202AC50311200037BFD
:10350A00FF7A4379077D011230D97BFF7A43790D1F
:10351A00E4FD1230D975AA0575AA0A75A91F90008B
:10352A00A3E07006900094E070EB7F0222E4FFFEB5
:10353A00FD7C3F90002AE0F8A3E0F9A3E0FAA3E0BB
:10354A00FB1201069002A4E0F8A3E0F9A3E0FAA3B3
:10355A00E0FB1202AC4040E4FFFEFDFC9002A4E056
:10356A00F8A3E0F9A3E0FAA3E0FB1202AC6028405A
:10357A00261200037BFF7A4379147D021230D97533
:10358A00AA0575AA0A75A91F9000A3E07006900003
:10359A0094E070EB7F02229002A8E0FCA3E0FDA376
:0D35AA00E0FEA3E0FF90003212091A7F003E
:0135B70022F1
:061E9C0090020A12091A6F
:101EA20090020E120926000000009002121209266A
:101EB20000000000900216120926000000009002A5
:101EC2001A1209260000000090021E1209260000C4
:101ED20000001221D590021A12091A9000B8E0648B
:101EE2000160030221D4FFFEFDFC90020AE0F8A388
:101EF200E0F9A3E0FAA3E0FB1202AC600250030295
:101F0200200A90009BE06003021F8E90006FE07039
:101F12003F900022E0FCA3E0FDA3E0FEA3E0FF125D
:101F220013CBC004C005C006C007900056E0FCA356
:101F3200E0FDE412031EA804A905AA06AB07D00718
:101F4200D006D005D0041202AC50030221D4802165
:101F5200900022E0FCA3E0FDA3E0FEA3E0FF121349
:101F6200CB7BE77AFB791F78411202AC5003022146
:101F7200D4900022E0FCA3E0FDA3E0FEA3E0FF90EA
:101F8200001E12091A90009B7401F02290006FE06B
:101F9200703F900022E0FCA3E0FDA3E0FEA3E0FF7F
:101FA2001213CBC004C005C006C007900056E0FC67
:101FB200A3E0FDE412031EA804A905AA06AB07D0FC
:101FC20007D006D005D0041202AC50030221D480FF
:101FD20023900022E0FCA3E0FDA3E0FEA3E0FF12B9
:101FE20013CB7BE77AFB791F78411202AC60025077
:101FF200030221D4900022E0FCA3E0FDA3E0FEA3B3
:10200200E0FF90001E02091AE4FFFEFDFC90020AA6
:10201200E0F8A3E0F9A3E0FAA3E0FB1202AC40036C
:102022000221D490009BE070030221D490020AE0C6
:10203200FCA3E0FDA3E0FEA3E0FFE4FBFA798078D5
:10204200BF12010690020A12091A90006DE06401A3
:1020520060030221117FCD7ECC7D4C7C3E90002A14
:10206200E0F8A3E0F9A3E0FAA3E0FB120106900076
:102072001EE0F8A3E0F9A3E0FAA3E0FB1202AC60D1
:1020820002507790005BE0FCA3E0FDE412031EA87F
:1020920004A905AA06AB0790002EE0FCA3E0FDA36D
:1020A200E0FEA3E0FF12020F90021E12091A900234
:1020B2001EE0F8A3E0F9A3E0FAA3E0FBC000C00130
:1020C200C002C00390005DE0FCA3E0FDE412031E29
:1020D200D003D002D001D00012010690021E1209D4
:1020E2001A90021E12139D90021212091AE4FFFEA8
:1020F2007D407C4090021E02212412139A9002120B
:1021020012091AE4FFFE7D407C4090002E801312DB
:10211200139A90021212091AE4FFFE7D407C40904D
:10212200002EE0F8A3E0F9A3E0FAA3E0FB12010617
:1021320090001EE0F8A3E0F9A3E0FAA3E0FB12008E
:10214200151213CB90021612091A900212E0FCA388
:10215200E0FDA3E0FEA3E0FF90020AE0F8A3E0F9AD
:10216200A3E0FAA3E0FB1202AC4067900216E0FC87
:10217200A3E0FDA3E0FEA3E0FF90020AE0F8A3E0E3
:10218200F9A3E0FAA3E0FB1202AC60025044E4FDC2
:102192007F03123D5A90001E12092600000000E43F
:1021A20090009BF090000EE0FCA3E0FDA3E0FEA3F4
:1021B200E0FF90003212091A90021AE0FCA3E0FD3F
:1021C200A3E0FEA3E0FF12035790014C7401F0124A
:0221D2000F718B
:0121D40022E8
:104BBA009002C3120926000000001221D59002C3F8
:104BCA0012091A9000B8E0B401149002C3E0FCA3E1
:0E4BDA00E0FDA3E0FEA3E0FF90003212091AF6
:014BE80022AA
:0B35B800E0FCA3E0FDA3E0FEA3E0FFA9
:0635C3009002AC12091A8F
:1035C9009002B01209260000000090006DE0B401DD
:1035D9005A90005BE0FCA3E0FDE412031EA804A9D5
:1035E90005AA06AB0790002EE0FCA3E0FDA3E0FED0
:1035F900A3E0FF12020F9002B012091A9002B0E084
:10360900F8A3E0F9A3E0FAA3E0FBC000C001C002FF
:10361900C00390005FE0FCA3E0FDE412031ED003A9
:10362900D002D001D000120106800E90002EE0FCDD
:10363900A3E0FDA3E0FEA3E0FF9002B012091A90F7
:1036490002B0E0FCA3E0FDA3E0FEA3E0FFE4FBFA87
:10365900F9784012020F9002B012091AE4FFFEFD38
:10366900FC9002B0E0F8A3E0F9A3E0FAA3E0FB12B2
:1036790002AC501E9002B0E0FCA3E0FDA3E0FEA363
:10368900E0FFE4FBFA798078BF1201069002B012DC
:10369900091A9002B0E0F8A3E0F9A3E0FAA3E0FB6D
:1036A900900032E0FCA3E0FDA3E0FEA3E0FF1200DE
:1036B900119002ACE0F8A3E0F9A3E0FAA3E0FB1251
:1036C90002AC606740659002B0E0FCA3E0FDA3E0B6
:1036D900FEA3E0FF900032E0F8A3E0F9A3E0FAA32B
:1036E900E0FB1200159002ACE0F8A3E0F9A3E0FAC0
:1036F900A3E0FB1202AC5033900005E004F0700621
:10370900900004E004F0C3900005E0940F900004D9
:10371900E064809480401B9002ACE0FCA3E0FDA330
:10372900E0FEA3E0FF90003202091AE4900004F0E1
:02373900A3F0FB
:01373B00226B
:103E640090012F1209260000000090013312092648
:103E740000000000900137120926000000009001A4
:103E84003B12092600000000900068E004F0700670
:103E9400900067E004F01200037BFF7A43791A7DF7
:103EA400011230D97BFF7A437920E4FD1230D97BAB
:103EB400FF7A4379267D021230D99001D6E0640C52
:103EC400600512414C80F3900026E0FCA3E0FDA3C2
:103ED400E0FEA3E0FF90013312091A7FD07E07129F
:103EE4004C131200037BFF7A43791A7D011230D9F7
:103EF4007BFF7A437928E4FD1230D97BFF7A43793A
:103F04002E7D021230D99001D6E0640C6005124176
:103F14004C80F31200037BFF7A4379337D01123026
:103F2400D97BFF7A437939E4FD1230D97B01E4FD72
:103F34007F021245307BFF7A43793B7D021230D9F0
:103F4400124DA4124DA49001E57401F0E49001E730
:0F3F5400F09001E7E0700512414C80F502000388
:0524D7009002D4EFF0BB
:1024DC00E49002D6F09001E104F012000390006D3C
:1024EC007401F0A3F09002D4E07009900056F0A3B0
:1024FC00740F80319002D4E0B4010A900056E4F0DD
:10250C00A3741480209002D4E0B4020A900056E424
:10251C00F0A3741E80699002D4E0B405209000569C
:10252C00E4F0A3741EF090005BE4F0A37405F0A338
:10253C00E4F0A37402F0A3E4F0A304802B9002D483
:10254C00E0B4062C900056E4F0A3741EF090005BEF
:10255C00E4F0A37402F0A3E4F0A37402F0A3E4F09B
:10256C00A37402F0E490006DF09000587403802B7B
:10257C009002D4E0B40339900056E4F0A37428F030
:10258C0090005BE4F0A3740AF0A3E4F0A37405F0EC
:10259C00A3E4F0A37402F090005804F090006F7460
:1025AC0001F0FDE4FF123D5A90008D7401F080366D
:1025BC009002D4E0B4042F900056E4F0A3743CF0E5
:1025CC0090005BE4F0A37402F0900058F0E49000EB
:1025DC006FF090006EF07D017F01123D5AE4900087
:1025EC008DF090006DF0900056E0FCA3E0FDE4123D
:1025FC00031E900058E0900133F0A37401F0123CDC
:10260C003B900059E4F0A37464F09000707402F0F5
:10261C00A314F09000757403F0E4900074F0900033
:10262C007704F0A3F0A3F090007DF0E4A3F0A37482
:10263C0005F0E490006BF0A3F090003E1209260028
:10264C00000000E490008BF0A37402F0E490007C96
:10265C00F09000421209260000000090004612097A
:10266C00260000000090002A1209260000000090AD
:10267C0000261209260000000090002E12092600E8
:10268C000000009000BA7401F090004A1209260074
:10269C0000000090004E12092600000000E490009B
:1026AC0067F0A3F0A3F0A3F09001E504F0124DE065
:1026BC009002D5EFF09002D5E06408602B9001E712
:1026CC00E0702575AA0575AA0A75A91F124DE09030
:1026DC0002D5EFF0900094E070030227BD9002D574
:1026EC00E060D2124DC880CD9001E7E06401702A01
:1026FC001200037BFF7A4379417D021230D990009E
:10270C00A3E0701375AA0575AA0A75A91F124DE0EE
:10271C00900094E070E8220227B89001E7E0B40141
:10272C0005120003805F7F0E1227BE7F0D1227BE9D
:10273C00E4FF1227BE7F011227BE7F021227BE7B49
:10274C00FF7A4379477D021230D9124DA4124DA461
:10275C00E49001E7F09001E504F0E49002D5F090EC
:10276C0002D5E06408601E9001E7E0701875AA05B8
:10277C0075AA0A75A91F124DE09002D5EFF09000D2
:10278C0094E070DB221200037BFF7A4379417D02D7
:10279C001230D99000A3E0701375AA0575AA0A75BA
:1027AC00A91F124DE0900094E070E822E490009490
:0127BC00F02C
:0127BD0022F9
:102A8A00EFB40103124DE39000A4E0B4010E9000EC
:102A9A0079E0B40107E4900094F0FF22900097E0F7
:102AAA00B401037F002290009EE07011900099E02B
:102ABA0070047D018002E4FD7F05123D5AE4900016
:102ACA009FF09000B3E0640160089000B2E06401F6
:102ADA00701E7BFF7A43794D7D011230D97BFF7AD4
:102AEA004379537D021230D97BFF7A437959802486
:102AFA009000B4E06401702B7BFF7A43794D7D012D
:102B0A001230D97BFF7A4379607D021230D97BFF7C
:102B1A007A437966E4FD1230D9E4FD7F06123D5A04
:102B2A007F002290009EE06003022BE99000ABE058
:102B3A006401703D900077E064017035FFFEFDFC92
:102B4A00900006E0F8A3E0F9A3E0FAA3E0FB120282
:102B5A00AC701E90008BE0B40117900099E06011F0
:102B6A0090009BE0700B121798900094E07002FF9F
:102B7A002290009DE060047D018002E4FD7F041242
:102B8A003D5A90006FE0B401067D01E4FF800A908F
:102B9A00006FE070077D017F01123D5A7F6F7E1240
:102BAA007D037CBA900006E0F8A3E0F9A3E0FAA35B
:102BBA00E0FB1202AC6021401F7F6F7E127D037C16
:102BCA003A900006E0F8A3E0F9A3E0FAA3E0FB12CA
:102BDA0002AC50047D018002E4FD7F02123D5AE4FA
:102BEA009000ADF09000A9E06002801DE4FFFEFDB8
:102BFA00FC900006E0F8A3E0F9A3E0FAA3E0FB12D8
:102C0A0002AC50051240618003121B4A90009BE0FF
:102C1A006066E4FFFE7DA07C4190002EE0F8A3E010
:102C2A00F9A3E0FAA3E0FB12010690001EE0F8A364
:102C3A00E0F9A3E0FAA3E0FB120015900090E0F897
:102C4A00A3E0F9A3E0FAA3E0FB1202AC401790005C
:102C5A0096E0701190008FE0606F9000A27401F00E
:102C6A004390208064900099E07003022CF5900153
:102C7A00EAE064017075806BE4FFFE7DA07C419000
:102C8A00002EE0F8A3E0F9A3E0FAA3E0FB120106A4
:102C9A00900032E0F8A3E0F9A3E0FAA3E0FB120007
:102CAA0015900090E0F8A3E0F9A3E0FAA3E0FB1284
:102CBA0002AC4021900096E0701B90008FE0600902
:102CCA009000A27401F04390209001EC7401F090FE
:102CDA0000A2F08016900099E060109001EAE0B43A
:0E2CEA000109E49000A2F05390DFF07F002279
:101B4A009002B412092600000000900058E0FCE45C
:101B5A0012032390027A12091A7F007E007D207CEC
:101B6A004112373CC004C005C006C00790005BE0C4
:101B7A00FCA3E0FDE412031ED003D002D001D00082
:101B8A0012020FE4FBFA79107841120106C004C070
:101B9A0005C006C007900056E0FCA3E0FDE412036E
:101BAA001ED003D002D001D0001200159002B81244
:101BBA00091A900036E0F8A3E0F9A3E0FAA3E0FBE3
:101BCA0090000EE0FCA3E0FDA3E0FEA3E0FF1200FC
:101BDA00119002B412091A900012E0FCA3E0FDA3CE
:101BEA00E0FEA3E0FF9002B4E0F8A3E0F9A3E0FA74
:101BFA00A3E0FB1202AC600250269002B8E0FCA3FC
:101C0A00E0FDA3E0FEA3E0FF90000AE0F8A3E0F9FC
:101C1A00A3E0FAA3E0FB1202AC60025003021D101B
:101C2A009000A8E06003021D1090009EE0701390DF
:101C3A00006CE004F0700690006BE004F07F06127E
:101C4A0027BE90009E7401F0120000E4FD7F061288
:101C5A003D5A7BFF7A43796DE4FD1230D990006ECC
:101C6A00E07BFFB401117A4379747D011230D97B8C
:101C7A00FF7A43797A800F7A4379807D011230D9CD
:101C8A007BFF7A4379287D021230D99001D97401F9
:101C9A00F0E49001DBF09001DBE0700B75AA0575AA
:101CAA00AA0A75A91F80EF900036E0F8A3E0F9A30D
:101CBA00E0FAA3E0FB90000EE0FCA3E0FDA3E0FE47
:101CCA00A3E0FF12001190003EE0F8A3E0F9A3E0C0
:101CDA00FAA3E0FB1202AC4003021E9B900036E01E
:101CEA00F8A3E0F9A3E0FAA3E0FB90000EE0FCA35E
:101CFA00E0FDA3E0FEA3E0FF12001190003E1209EE
:101D0A001A7F060227BEE490009EF090000AE0FCCB
:101D1A00A3E0FDA3E0FEA3E0FF900058E0900133AA
:101D2A00F0A37401F0123C3B90009DE07047FFFE67
:101D3A00FDFC90000AE0F8A3E0F9A3E0FAA3E0FBB7
:101D4A001202AC7030FFFEFDFC900000E0F8A3E048
:101D5A00F9A3E0FAA3E0FB1202AC60194017900065
:101D6A001612092600000000E4900076F09000A701
:101D7A00F0900076F090000AE0FCA3E0FDA3E0FEFC
:101D8A00A3E0FF90000012091AE4FFFEFDFC900098
:101D9A000AE0F8A3E0F9A3E0FAA3E0FB1202AC70B0
:101DAA000E90009DE070089000B7E0700204F09079
:101DBA000075E0FBC39403900016E0FCA3E0FDA3CA
:101DCA00E0FEA3E0FF5006900133EB800790007617
:101DDA00E0900133F0A37402F0123C3B90000AE059
:101DEA00FCA3E0FDA3E0FEA3E0FF900016E0F8A349
:101DFA00E0F9A3E0FAA3E0FB12010690001A120927
:101E0A001A900070E0FCE412032390027A12091A75
:101E1A007F007E007D207C4112373CA804A905AAD8
:101E2A0006AB077FF07E237D747C4912020F900077
:101E3A001AE0F8A3E0F9A3E0FAA3E0FB1202AC600F
:101E4A000D400B7BFF7A437986E4FD0230D9E4FF2B
:101E5A00FEFDFC90001AE0F8A3E0F9A3E0FAA3E083
:101E6A00FB1202AC601D401B90001AE0FCA3E0FDCF
:101E7A00A3E0FEA3E0FF900070E0900133F0E4A33A
:101E8A00F0800BE4900133F0A3F0FFFEFDFC123C5E
:011E9A003B0C
:011E9B002224
:104061009000AD7401F0E490009EF090009BE0643C
:1040710001706790001EE0FCA3E0FDA3E0FEA3E059
:10408100FF1213CBC004C005C006C007E4FFFE7DCC
:10409100807CBF90000AE0F8A3E0F9A3E0FAA3E076
:1040A100FB120106A804A905AA06AB07D007D00692
:1040B100D005D0041202AC6002501F90000AE0FC4F
:1040C100A3E0FDA3E0FEA3E0FF900058E0900133E0
:1040D100F0A37401F0123C3B800B7BFF7A43794DD6
:1040E1007D011230D990009DE060087BFF7A437911
:1040F10086801F90001612092600000000E490003F
:1041010076F090001A120926000000007BFF7A4326
:10411100798DE4FD1230D9900075E0FBC3940390D2
:104121000016E0FCA3E0FDA3E0FEA3E0FF50069033
:104131000133EB8007900076E0900133F0A3740225
:0B414100F0123C3BE4FD7F02023D5AFF
:10329300E49002D9F0A3F090009DE09002DA60057B
:1032A3007403F080037401F0E49002D9F09002DA21
:1032B300E0FF9002D9E0FEC3EF6480F8EE648098EB
:1032C30050137F01123F6390000612091A9002D92E
:1032D300E004F080D89000B3E0640160079000B28E
:1032E300E0B4010B7BFF7A4379947D010230D990DE
:1032F3000077E0B4010C90009BE07006900006128A
:1033030035B8900006E0FCA3E0FDA3E0FEA3E0FFD8
:1033130090000E12091A900006E0FCA3E0FDA3E062
:10332300FEA3E0FF90009012091A900006E0FCA3B0
:10333300E0FDA3E0FEA3E0FF900032E0F8A3E0F994
:10334300A3E0FAA3E0FB12001190000612091A9001
:103353000006E0FCA3E0FDA3E0FEA3E0FF90002253
:1033630012091A9000A9E0B4010590000E80509054
:10337300009BE0B40146900006E0FCA3E0FDA3E05F
:10338300FEA3E0FF90009012091A900006E0FCA350
:10339300E0FDA3E0FEA3E0FF90001EE0F8A3E0F948
:1033A300A3E0FAA3E0FB12001190000612091A90A1
:1033B300009EE070077D017F03123D5A900006E0F6
:1033C300FCA3E0FDA3E0FEA3E0FF1213CB900006F5
:1033D30012091AE4FFFEFDFC900006E0F8A3E0F9F1
:1033E300A3E0FAA3E0FB1202AC500D9000A9E07039
:1033F3000790009F04F0801CE4FFFEFDFC90000694
:10340300E0F8A3E0F9A3E0FAA3E0FB1202AC700436
:1034130090009FF0900006E0FCA3E0FDA3E0FEA374
:06342300E0FFA312091AEC
:013429002280
:10139A0090002EE4FFFE7D407C40E0F8A3E0F9A334
:1013AA00E0FAA3E0FB120106A804A905AA06AB0706
:1013BA0090001EE0FCA3E0FDA3E0FEA3E0FF120004
:0113CA001111
:0613CB009001F112091A65
:1013D1009001F5120926000000009001F91209267A
:1013E100000000009001FD1209260000000090029B
:1013F10001120926000000009002051209260000D2
:101401000000E4900209F0FFFEFDFC9001F1E0F81C
:10141100A3E0F9A3E0FAA3E0FB1202AC502490028E
:10142100097401F09001F1E0FCA3E0FDA3E0FEA34B
:10143100E0FFE4FBFA798078BF1201069001F11216
:10144100091A90006DE07050900058E0FCE412031E
:101451002390027A12091A7F007E007D207C4112BE
:10146100373CC004C005C006C00790005BE0FCA388
:10147100E0FDE412031ED003D002D001D00012021D
:101481000F90020512091A90002EE0F8A3E0F9A3CB
:10149100E0FAA3E0FB0216857FCD7ECC7DCC7C3DBE
:1014A10090002AE0F8A3E0F9A3E0FAA3E0FB12011F
:1014B100069001F1E0F8A3E0F9A3E0FAA3E0FB1242
:1014C10002AC6005400302156E9001F51209260079
:1014D10000000090005BE0FCA3E0FDE412031EC0ED
:1014E10004C005C006C00790005FE0FCA3E0FDE476
:1014F10012031ED003D002D001D00012020F9001BE
:10150100F512091A900058E0FCE412032390027AC4
:1015110012091A7F007E007D207C4112373CC004F5
:10152100C005C006C00790005FE0FCA3E0FDE41227
:10153100031ED003D002D001D00012020F90020589
:1015410012091A9001F5E0FCA3E0FDA3E0FEA3E07F
:10155100FF90002EE0F8A3E0F9A3E0FAA3E0FB126C
:101561000106A804A905AA06AB070216857FCD7E50
:10157100CC7D4C7C3E90002AE0F8A3E0F9A3E0FA90
:10158100A3E0FB1201069001F1E0F8A3E0F9A3E06A
:10159100FAA3E0FB1202AC6005400302163890008A
:1015A1005BE0FCA3E0FDE412031EC004C005C0061D
:1015B100C00790005DE0FCA3E0FDE412031ED00330
:1015C100D002D001D00012020F9001F512091A9039
:1015D1000058E0FCE412032390027A12091A7F00FA
:1015E1007E007D207C4112373CC004C005C006C08E
:1015F1000790005DE0FCA3E0FDE412031ED003D0E0
:1016010002D001D00012020F90020512091A9001B6
:10161100F5E0FCA3E0FDA3E0FEA3E0FF90002EE0D7
:10162100F8A3E0F9A3E0FAA3E0FB120106A804A9DC
:1016310005AA06AB07804D900058E0FCE412032395
:1016410090027A12091A7F007E007D207C411237B8
:101651003CC004C005C006C00790005BE0FCA3E0ED
:10166100FDE412031ED003D002D001D00012020FFC
:1016710090020512091A90002EE0F8A3E0F9A3E008
:10168100FAA3E0FB9001F1E0FCA3E0FDA3E0FEA3DF
:10169100E0FF12020F9001FD12091A9001FDE0FC1A
:1016A100A3E0FDA3E0FEA3E0FF12035790020112A5
:1016B100091A9001FDE0FCA3E0FDA3E0FEA3E0FF19
:1016C100C004C005C006C007A3E0FCA3E0FDA3E081
:1016D100FEA3E0FFEC120319A804A905AA06AB07B3
:1016E100D007D006D005D0041200119001FD1209D7
:1016F1001A900201E0F8A3E0F9A3E0FAA3E0FBC02D
:1017010000C001C002C003E4FFFEFD7C409001FD6A
:10171100E0F8A3E0F9A3E0FAA3E0FB12010612034B
:1017210057D003D002D001D000EB2FFFEA3EFEE9F3
:101731003DFDE83CFC90020112091A900201E0FC17
:10174100A3E0FDA3E0FEA3E0FFEC12031990020564
:10175100E0F8A3E0F9A3E0FAA3E0FB12010690018F
:10176100F912091A900209E0601E9001F9E0FCA348
:10177100E0FDA3E0FEA3E0FFE4FBFA798078BF126D
:1017810001069001F912091A9001F9E0FCA3E0FDAC
:06179100A3E0FEA3E0FF4F
:01179700222F
:101798009001A7120926000000009001AB1209264B
:1017A800000000009001AF12092600000000E4903C
:1017B80001B3F0A3F0A304F078C67C01FD7BFF7AA7
:1017C8004379AC7E007F061206D278CC7C017D017D
:1017D8007BFF7A4379B27E007F071206D2E490013C
:1017E800D3F0A3F0A3F078B67C017D017BFF7A43A8
:1017F800799A120A6990002EE0FCA3E0FDA3E0FEAE
:10180800A3E0FF1213CB9001AF12091A9001DD7407
:1018180001F0E49001DFF09001B3F0A3F09001B380
:10182800E0FEA3E0FFC3940BEE648094805061C394
:10183800EF9405EE6480948050199001B3A3E024DE
:10184800B6F58274013EF583E0FD74C62FF5827407
:10185800018028C39001B4E0940B9001B3E0648048
:101868009480501CE0FEA3E0FF24B6F58274013E8C
:10187800F583E0FD74C72FF58274013EF583EDF022
:101888009001B4E004F070959001B3E004F0808D0D
:10189800E49000A2F05390DFFD7F06123D5A7BFFD3
:1018A8007A43794D7D021230D97BFF7A437986E4F9
:1018B800FD1230D9E4900133F0A304F07F007E00DC
:1018C8007D007C00123C3B9001B5E07003021B26B2
:1018D800900094E070079001B5F0021AFB9001DFC8
:1018E800E07003021AEDE4FF123F639001A71209AA
:1018F8001A900077E0B4010C90009BE0700690010C
:10190800A71235B89001A7E0FCA3E0FDA3E0FEA371
:10191800E0FF90000E12091A9001A7E0FCA3E0FD79
:10192800A3E0FEA3E0FF900032E0F8A3E0F9A3E013
:10193800FAA3E0FB1200119001A712091A9001A75F
:10194800E0FCA3E0FDA3E0FEA3E0FFA312091A90C8
:1019580001A7E0FCA3E0FDA3E0FEA3E0FF1213CB88
:101968009001A712091A9001AFE0FCA3E0FDA3E0E3
:10197800FEA3E0FF9001A7E0F8A3E0F9A3E0FAA333
:10198800E0FB1202AC502BE4FFFE7D807CBF90018F
:10199800AFE0F8A3E0F9A3E0FAA3E0FB1201069098
:1019A80001A7E0F8A3E0F9A3E0FAA3E0FB1202AC78
:1019B8005007E49001B5F0800E124DE0EF6008E4A6
:1019C8009001B5F0124DC89001B5E07003021AFB02
:1019D8001200009001D5EFF060051200008005E4C8
:1019E8009001B5F0900097E06003021AE09001B60C
:1019F800E09001D3F0E49001B3F0A3F09001B3E0DC
:101A0800FEA3E0FF24B7F58274013EF583E0FD7480
:101A1800B62FF58274013EF583EDF09001B4E00431
:101A2800F070069001B3E004F09001B3E07004A3F5
:101A3800E0640E70C79001D3E09001C0F0E490011B
:101A4800B3F0A3F09001B3E0FEA3E0FFC3940BEE64
:101A5800648094805061C3EF9405EE648094805054
:101A6800199001B3A3E024B6F58274013EF583E032
:101A7800FD74C62FF58274018028C39001B4E094E8
:101A88000B9001B3E064809480501CE0FEA3E0FF5B
:101A980024B6F58274013EF583E0FD74C72FF58204
:101AA80074013EF583EDF09001B4E004F070959078
:101AB80001B3E004F0808D7BFF7A4379A67D0112A3
:101AC80030D97B017A0179C67D021230D97B017A3F
:101AD8000179CCE4FD1230D99001DD7401F0E49075
:101AE80001DFF0800E124DE0EF6008E49001B5F0E0
:101AF800124DC8900094E070049001B5F09000A4D5
:101B0800E0640160030218CF900079E0640160038B
:101B18000218CF900094F09001B5F00218CF900011
:101B2800A2E0600F90008FE060099000A27401F0BD
:101B38004390209001ABE0FCA3E0FDA3E0FEA3E00E
:011B4800FF9D
:011B49002279
:10000E000203C3E86480F8E933E83360110460F05A
:10001E00ED33EC337009E8FCE9FDEAFEEBFF220458
:10002E0060DED3EB9FEA9EE99DE8C2E78CF0C2F753
:10003E0095F0400CE8CCF8E9CDF9EACEFAEBCFFB1F
:10004E0012038E85D0F05804700320D5B3E80470E7
:10005E00075002B2D50203CD92D5EC0460F7E4CC82
:10006E00C0E0C398F8603B94186008400DD0E0FBE8
:10007E000203A5E4FBFAC9FC8028E830E406E4C9D3
:10008E00FBE4CAFCE830E305E4C9CACBFCE854073C
:10009E006010F8C3E913F9EA13FAEB13FBEC13FC47
:1000AE00D8F130F52FC3E49CFCEF9BFFEE9AFEEDEA
:1000BE0099FDD0E0FBEF4E4D4C701222DB03020394
:1000CE00CAEC2CFCEF33FFEE33FEED33FDED30E7E3
:1000DE00EB0203A5EF2BFFEE3AFEED39FDD0E0FB70
:1000EE0050130BBB00030203CDED13FDEE13FEEF19
:0800FE0013FFEC13FC0203A543
:10010600EC4D6011E8497017ED33EC3304600DE4F3
:10011600FCFFFEFD22E933E8330470F80203C31244
:10012600038E58046009E4CC248150062850090245
:1001360003CD2840030203CAC0E0EB4A7044B980ED
:1001460006D0E0FB0203B9EF4E701CBD8008EBFF42
:10015600EAFEE9FD80EBE98DF0A4FEE5F00201EF91
:10016600E9CDF9EAFEEBFFEF89F0A4FCE5F0CE89D4
:10017600F0A42EFFE435F0CD89F0A42DFEE435F091
:100186008067EF4E7005BD80D780C3EF8BF0A4ACBF
:10019600F0EE8BF0A42CFCE435F0F8EF8AF0A42CFA
:1001A600E5F038FCE433CB8DF0A42CFCE5F03BF80D
:1001B600EE8AF0A42CFCE5F038F8E433CF89F0A4FD
:1001C6002CFCE5F038CF3400CE89F0A42FFFE5F003
:1001D6003EFEE433C98DF0A42EFEE5F039CD8AF05B
:1001E600A42FFFE5F03EFEE43DFD33D0E0FB5007D3
:1001F6000BBB000F0203CDEC2CFCEF33FFEE33FEFE
:06020600ED33FD0203A52B
:10020C000203CDEC5D046005E8590470030203C3DE
:10021C0012038E580460F6EC4860F2EC7004FDFE9C
:10022C00FF22C860DB2481C85009C39860025006C5
:10023C000203CA9850CAF582E9294B4A7005AB8271
:10024C000203B975F0007C1A7880C3EF9BEE9AED2F
:10025C0099400DC3EF9BFFEE9AFEED99FDE842F03D
:10026C00DC23ACF0D0E0FFD0E0FED0E0FDAB822090
:10027C00E7101BEB60BAEC2CFCEF33FFEE33FEED1A
:10028C0033FD0203A5E803F830E705C0F075F00074
:10029C00EF2FFFEE33FEED33FD40B830E7C280AAFE
:1002AC0074F8CC6480CCC86480C8F582046043C305
:1002BC00EB9FF5F0EA9E42F0E99D42F0E89C45F098
:1002CC0060305018E5825FFFE582F42B5582FB50BD
:1002DC00210ABA001D09B90019088016E5825BFBDA
:1002EC00E582F42F5582FF50090EBE00050DBD00AE
:1002FC00010CC3EB9FF5F0EA9E42F0E99D42F0E859
:0D030C009C45F06007CC4820E701B3EC22CF
:1003190075F020800E75F010800575F0087D007E5F
:10032900007F003392D530D503120832EC334010E8
:10033900EF33FFEE33FEED33FDEC33FCD5F0ED2268
:0E034900E5F0247EA2D513CC92E7CDCEFF22A4
:10035700EDD2E7CD33EC3392D524814006E4FFFE9E
:10036700FDFC22FCE4CFCECDCC24E0501174FF80FD
:10037700EDC3CC13CCCD13CDCE13CECF13CF04709A
:07038700F030D5DE02083260
:100AEE00E5082440F582E43401F583E00508229000
:100AFE00013D300703900140E475F00112095702E1
:100B0E0006F82000E97F2ED2008018EF540F2490B3
:100B1E00D43440D4FF30040BEF24BFB41A0050037A
:100B2E002461FFE50960021509050CE50C7002054C
:100B3E000B30070E90013DE475F001120957EF02DC
:100B4E00073E024C637403D2078003E4C207F50824
:100B5E0090013D12096EE4F509F50BF50CE50960FF
:100B6E00077F20120B3180F5750AFFC201C200C249
:100B7E0002C203C205C206C208120AFDFF700D3082
:100B8E0007057F00120B42AF0CAE0B22B4255FC2DD
:100B9E00D5C204120AFDFF24D0B40A00501A75F013
:100BAE000A780930D50508B6FF0106C6A426F62038
:100BBE00D5047002D20380D924CFB41A00EF5004AA
:100BCE00C2E5D204020E34D20180C6D20080C0D259
:100BDE000280BCD2D580BAD20580B47F20120B31F0
:100BEE002002077401B5090040F1120AEEFF120B44
:100BFE0031020B6BD208D2068095120AEEFB120A56
:100C0E00EEFA120AEEF94A4B700679327A0F7BFF32
:100C1E0020022EE509602A7E008E8275830012075F
:100C2E001160060EEE650A70F0C2D5EBC0E0EAC0A8
:100C3E00E0E9C0E0EE120E95D0E0F9D0E0FAD0E097
:100C4E00FB1206F8FF60AAEBC0E0EAC0E0E9C0E0E4
:100C5E00120B31D0E02401F9D0E03400FAD0E0FBE1
:100C6E00E50A0460DCD50AD98087D20280A2120E72
:100C7E007760F7E50A700104120403A90A600DE516
:100C8E000A600914F50A120F1FEF60F3EA30E7024B
:100C9E00F404C3995079EAF4250A0430E701E40418
:100CAE00F50A800D120E7760C1EA050A250A1204B4
:100CBE0003EA90016CF030E701E4250A04D50A043A
:100CCE0020050114120E95E4C0E0120F1F90016C66
:100CDE00E0601320E70714F0120B19802204F0D005
:100CEE00E014C0E07F00120B19E50A6007120B102A
:100CFE00150A800B300503120B10D0E0020B6BD0DF
:100D0E00E00480C4120E77609EE50A04120403907C
:100D1E00016CEAF0E50A2005026001042404120EBB
:010D2E00952F
:100D2F0074FF04C0E0120F1F120B19E50A20050211
:100D3F006003120B10D0E0B50AE87F45120B239029
:100D4F00016CE07F2B30E7047F2DF404C0E0120B21
:100D5F0031D0E075F00A84C0F0120B1AD0E0120BFC
:100D6F001A020B6B791080027908C206C20880083C
:100D7F00D2D5790A8004790AC2D5E50A047002F542
:100D8F000AE4FAFDFEFF120AEEFC7B0820011312A3
:100D9F000AEEFD7B1030000A120AEEFE120AEEFF79
:100DAF007B20EC3382D592D55013C3E43000069FDD
:100DBF00FFE49EFEE42001039DFDE49CFCE4CBF8E0
:100DCF00C201EC700CCFCECDCCE824F8F870F380D4
:100DDF0017C3EF33FFEE33FEED33FDEC33FCEB3394
:100DEF00FB994002FB0FD8E9EB300105F8D0E0C4C6
:100DFF0048B201C0E00AEC4D4E4F78207B0070C224
:100E0F00EAB50A0040BCC0E0120E97D0F0D0E02047
:100E1F000104C4C0E0C4B201C0F0120B1AD0F0D567
:100E2F00F0EB020B6B1209770C08530D73580BD9AB
:100E3F004C0BD5420D774F0D7F440D7F490BEE4381
:100E4F000D85550CB2460D12450C7C470F52500BB9
:100E5F00DD2D0BE12E0C042B0BE5230C02200F3B99
:100E6F002A0B9D4800000BFCE50AB4FF03750A0628
:100E7F00120AEEFC120AEEFD120AEEFE120AEEFF45
:100E8F00900165020440790AA2D5200314300509A8
:100E9F00B910020404B9080104A2D52006025001BA
:100EAF00042002689202B509005034C0E07F203060
:100EBF0003197F30A20272067205500F120EEEC296
:100ECF0002C206C205C2087F30800F300503E9C099
:100EDF00E0120B31300503D0E0F9D0E0B509CC308A
:100EEF0005177F30B9100C120B317F583004077F74
:100EFF00788003B90803120B313002057F2D020BE6
:100F0F00317F202008F87F2B2006F322920280CF1A
:100F1F007F00B40700500B2465F582E43401F5839C
:100F2F00E0FF22286E756C6C2900D201120AEE3098
:100F3F0001F8C201780930D50108F6020B9D2D503A
:100F4F00434958120AEE2403B405004001E4900F00
:100F5F004D93120B22743A120B22D203750904021D
:020F6F000D7300
:10373C0090027612091AE4FFFE7D807C3F9002769F
:10374C00E0F8A3E0F9A3E0FAA3E0FB1202AC7006E8
:10375C00900276023896900276E0FCA3E0FDA3E09E
:10376C00FEA3E0FF1203D8FBA3E0FCA3E0FDA3E063
:10377C00FEA3E0FF1203D8FFB40108E4FFFE7D8036
:10378C007C3F22EF64046029EB64046024EBB401F9
:10379C0030E4FFFEFDFC90027AE0F8A3E0F9A3E030
:1037AC00FAA3E0FB1202AC60084006E4FFFEFDFC4D
:1037BC002290027A120926FFFFFFFF90027A02384C
:1037CC0096E490027EF0A3F0FFFEFDFC900276E002
:1037DC00F8A3E0F9A3E0FAA3E0FB1202AC505F906F
:1037EC00027AE0FCA3E0FDA3E0FEA3E0FF12035786
:1037FC0090027EEEF0A3EFF0FDCCEECCEC12031EAB
:10380C00C8ECC8C9EDC9CAEECACBEFCB90027AE0BE
:10381C00FCA3E0FDA3E0FEA3E0FF120011E4FBFA21
:10382C00F9F81202AC708A900276E0FCA3E0FDA3DA
:10383C00E0FEA3E0FF1203F290027612091A900246
:10384C0076E0FCA3E0FDA3E0FEA3E0FF123B469074
:10385C00027AE0F8A3E0F9A3E0FAA3E0FB12010678
:10386C0012476490027A12091A90027FE030E01736
:10387C0090027AE0FCA3E0FDA3E0FEA3E0FF1203BC
:10388C00F290027A12091A90027AE0FCA3E0FDA3EE
:06389C00E0FEA3E0FF22A4
:10038E00E9D2E7C933E833F892D5EDD2E7CD33ECB5
:07039E0033FC5002B2D5222E
:1003A500EC30E7100FBF000C0EBE00080DBD0004B9
:1003B5000BEB6014A2D5EB13FCED92E7FD2274FF65
:1003C500FCFDFEFF22E480F8A2D574FF13FC7D80BE
:0303D500E480EFD2
:1003D800ED33EC33601004700FED547F7005740238
:0A03E80092E0227404220422E422B1
:1003F200ED33EC33600A047003BD8004ECB2E7FC19
:0104020022D7
:10040300F920E73624F950037907E4F42402FBE5E5
:1004130082158270021583DBF6E024FB501BE96032
:1004230014E4F0E582158270021583E004F0B40A47
:0D04330008E4F0D9EE7401F00A22C2D522CF
:10044000ED33EC3392D5FA602AB4FF33EDC2E77B8B
:10045000FF60067A047965E4227A04796E20D50477
:100460007A047969224E614E002B494E46002D498F
:100470004E4600E47A08F0A3DAFC7B00740722C041
:1004800083C082ECC0E0EDC0E0EEC0E0EFC0E0EA87
:1004900075F010A4CAABF075F04DA42BFBE435F059
:1004A000FCEA2410FAEB34C5FBEC34D9FCEDC2E7CE
:1004B000FF75F056A4F42411C5F0F434C58FF0A4F0
:1004C0002AE5F03BE43CF020E714120575D0E0FF8C
:1004D000D0E0FED0E0FDD0E0FC12020F8014F40466
:1004E000120575D0E0FFD0E0FED0E0FDD0E0FC12B8
:1004F0000106D082D083E0FAEDD2E7CD33EC33248D
:1005000082FBE4C3CF33CFCE33CECD33CD33DBF359
:100510007B0775F00A846004F0A31B0AE5F0F0A3E2
:100520008FF0740AA4FFACF08EF0740AA42CFEAC19
:10053000F050010C8DF0740AA42CFDE435F0F0A30A
:05054000DBDE74072260
:10472C0033DA929E35B16011377FE5FE39218489E9
:10473C003AAEC3FF3C1D955B3D6358473E75FDF09B
:10474C003F3172183F800000C2D50203CD0203C373
:10475C00BD80FA50F30203CAED33EC330460F17BF5
:10476C003B7AAA79B8783F120106ED33EC3392D537
:10477C00247B5011A2D570DB500BED4480240450E7
:10478C0004A2D580CEEFFBEEFAEDF9ECF81203574C
:10479C00EFF582F404FC120323120015C08290473B
:1047AC002C74091205C4ED33CC33D0F092D525F01E
:0A47BC00A2D57001C313CC13FD2237
:103B12003E9248DA3ECCCCCD3F2AAAAB4000000010
:103B22003F8000003F9837F03FB504F33FD744FC95
:103B32003E3172173EB172173F0515913EDE5BD9D9
:103B4200D20B8002C20BEDD2E7F8CD33EC33047016
:103B52000BBD800592D50203CD0203C340FBD314F3
:103B620060F2F5F07C3FEE7A00C39496C8948B40E5
:103B7200230AC89469C8941A401A0AC89468C89457
:103B82001F40110AC8945AC89425400805F07A00CB
:103B9200CDC2E7CDC0F09002C712091AEA2323C0B2
:103BA200E02422F582E4343BF58312090A1200155F
:103BB200ECC0E0EDC0E0EEC0E0EFC0E01208EE9035
:103BC20002C71208FE120011D0E0FBD0E0FAD0E0EA
:103BD200F9D0E0B2E7F812020F9002C712091A9068
:103BE2003B1274031205B59002C71208FE120106B9
:103BF200D0E0600F242EF582E4343BF58312090AEB
:103C02001200159002C712091AD0E0C3947FFDE496
:103C12009400FC12031E7B187A727931783F1201EC
:103C2200069002C71208FE120015300B0B7BD97AE0
:093C32005B79DE783E12010622E6
:100545003F8000004120000042C80000447A0000BE
:10055500461C400047C35000497424004B18968040
:100565004CBEBC205A0E1BCA6753C21C749DC5AE37
:10057500FB60065407601C23231205A3EB54386067
:100585000912058F12059E120106ECF8EDF9EEFA37
:10059500EFCB22EB12059E80F1543803241C900505
:1005A50045FE93FC0EEE93FD0EEE930ECE93FF22C9
:1005B500C0E0EFFBEEFAEDF9ECF8120106D0E0F53C
:1005C500F0EFFBEEFAEDF9ECF81208EEA3A3A3A306
:1005D500E8C0E0E9C0E0EAC0E0EBC0E0C0F012012D
:1005E5000612090AA3A3A3A3120015D0F0D0E0FBBD
:0D05F500D0E0FAD0E0F9D0E0F8D5F0D42243
:0300000002485360
:0C485300787FE4F6D8FD75812102489AB8
:10060200E709F608DFFA8046E709F208DFFA803EDA
:1006120088828C83E709F0A3DFFA8032E309F608C7
:10062200DFFA8078E309F208DFFA807088828C832F
:10063200E309F0A3DFFA806489828A83E0A3F608E3
:10064200DFFA805889828A83E0A3F208DFFA804CBD
:1006520080D280FA80C680D4806980F28033801094
:1006620080A680EA809A80A880DA80E280CA8033FD
:1006720089828A83ECFAE493A3C8C582C8CCC58375
:10068200CCF0A3C8C582C8CCC583CCDFE9DEE78045
:100692000D89828A83E493A3F608DFF9ECFAA9F0C4
:1006A200EDFB2289828A83ECFAE0A3C8C582C8CC1A
:1006B200C583CCF0A3C8C582C8CCC583CCDFEADE33
:1006C200E880DB89828A83E493A3F208DFF980CC95
:1006D20088F0EF60010E4E60C388F0ED2402B4048E
:1006E2000050B9F582EB2402B4040050AF23234535
:0606F20082239006527302
:1006F800BB010689828A83E0225002E722BBFE0200
:09070800E32289828A83E4932232
:10071100BB010CE58229F582E5833AF583E022509D
:1007210006E92582F8E622BBFE06E92582F8E222E7
:0D073100E58229F582E5833AF583E4932201
:10073E00BB010689828A83F0225002F722BBFE019A
:02074E00F32294
:10075000EF8DF0A4A8F0CF8CF0A428CE8DF0A42EBD
:02076000FE2277
:10076200BC000BBE0029EF8DF084FFADF022E4CC7B
:10077200F875F008EF2FFFEE33FEEC33FCEE9DEC44
:10078200984005FCEE9DFE0FD5F0E9E4CEFD22ED8A
:10079200F8F5F0EE8420D21CFEADF075F008EF2FD4
:1007A200FFED33FD4007985006D5F0F222C398FDC5
:0507B2000FD5F0EA2262
:1007B700C5F0F8A3E028F0C5F0F8E58215827002CD
:0607C7001583E038F0226A
:1007CD00A3F8E0C5F025F0F0E582158270021583DF
:0607DD00E0C838F0E8223C
:1007E300E88FF0A4CC8BF0A42CFCE98EF0A42CFCB5
:1007F3008AF0EDA42CFCEA8EF0A4CDA8F08BF0A433
:100803002DCC3825F0FDE98FF0A42CCD35F0FCEB91
:100813008EF0A4FEA9F0EB8FF0A4CFC5F02ECD3956
:0F082300FEE43CFCEAA42DCE35F0FDE43CFC22C3
:0E083200C3E49FFFE49EFEE49DFDE49CFC22D7
:10084000EB9FF5F0EA9E42F0E99D42F0EC6480C82F
:0608500064809845F022CF
:10085600EB9FF5F0EA9E42F0E99D42F0E89C45F0F8
:01086600226F
:10086700E8600FECC313FCED13FDEE13FEEF13FF6F
:03087700D8F12293
:10087A00BB010789828A83020ABE5005E9F8020A87
:10088A00B2BBFE05E9F8020ACA89828A830208EE27
:10089A00BB010DE58229F582E5833AF583020ABE9A
:1008AA005007E92582F8020AB2BBFE07E92582F859
:1008BA00020ACAE58229F582E5833AF5830208EE3F
:1008CA00BB010DE58229F582E5833AF58302091A0F
:1008DA005007E92582F8020AD6BBFE07E92582F805
:0408EA00020AE222FA
:1008EE00E493FC740193FD740293FE740393FF2250
:0C08FE00E0F8A3E0F9A3E0FAA3E0FB227D
:10090A00E493F8740193F9740293FA740393FB2243
:0C091A00ECF0A3EDF0A3EEF0A3EFF02250
:10092600A8828583F0D083D08212093D12093D1238
:10093600093D12093DE473E493A3C583C5F0C5835D
:10094600C8C582C8F0A3C583C5F0C583C8C582C81B
:01095600227E
:10095700F8E0FBA3A3E0F925F0F0E5821582700229
:070967001583E0FA38F022CD
:09096E00EBF0A3EAF0A3E9F0228A
:10097700D083D082F8E4937012740193700DA3A30F
:1009870093F8740193F5828883E473740293686023
:06099700EFA3A3A380DF23
:104C6300EFB40A07740D124C6E740A309811A899A8
:104C7300B8130CC2983098FDA899C298B811F630B1
:074C830099FDC299F5992289
:10099D00E709F60870FA8046E709F20870FA803E1A
:1009AD0088828C83E709F0A370FA807EE309F6084C
:1009BD0070FA8076E309F20870FA806E88828C8373
:1009CD00E309F0A370FA806289828A83E0A3F608B6
:1009DD0070FA805689828A83E0A3F20870FA804A01
:1009ED0080D280FA80C680D4806580F280318010FC
:1009FD0080A680EA809A80A880DA80E280CA803161
:100A0D0089828A83ECFAE493A3C8C582C8CCC583D6
:100A1D00CCF0A3C8C582C8CCC583CC70E9800D8944
:100A2D00828A83E493A3F60870F9ECFAA9F0EDFB42
:100A3D002289828A83ECFAE0A3C8C582C8CCC5831B
:100A4D00CCF0A3C8C582C8CCC583CC70EA80DD8943
:100A5D00828A83E493A3F20870F980CE88F0ED24A6
:100A6D0002B4040050C4F582EB2402B4040050BA61
:090A7D0023234582239009ED7347
:100A8600EF4E6012EF60010EEDBB010B89828A8387
:100A9600F0A3DFFCDEFA2289F05007F709DFFCA994
:0C0AA600F022BBFEFCF309DFFCA9F022EB
:10485F000239E1E493A3F8E493A34003F68001F255
:10486F0008DFF48029E493A3F85407240CC8C3335A
:10487F00C4540F4420C8834004F456800146F6DF29
:10488F00E4800B010204081020408090421FE47E58
:10489F00019360BCA3FF543F30E509541FFEE4931E
:1048AF00A360010ECF54C025E060A840B8E493A3E5
:1048BF00FAE493A3F8E493A3C8C582C8CAC583CA10
:1048CF00F0A3C8C582C8CAC583CADFE9DEE780BEC8
:0142EC0000D1
:0C0AB200E6FC08E6FD08E6FE08E6FF2270
:0C0ABE00E0FCA3E0FDA3E0FEA3E0FF22AB
:0C0ACA00E2FC08E2FD08E2FE08E2FF2268
:0C0AD600ECF608EDF608EEF608EFF6224C
:0C0AE200ECF208EDF208EEF208EFF22250
:00000001FF
