:0D4EEA002D2D2D2D2D002D2D2D2D2D2D00CC
:104B2000124E9B124E4F124EF7124E18124EB212E8
:104B30004A70124F01124D3A7FE87E03124D8E12D9
:104B40004D107BFF7A4E79EA7D02123F847BFF7A1B
:104B50004E79EA7D01123F847BFF7A4E79F0E4FDC5
:104B6000123F847FE87E03124D8E7F02122D5C126D
:074B700031A912419380FB03
:104E18005390DF5390EF4394205395DFE4F59A7550
:0C4E28009BA0759C6C759D50759E04222B
:104E9B00C2AF75AA0575AA0A75A91FD2AF75AA0567
:074EAB0075AA0A75A91F2278
:104E4F0075800C75904075A0117592F0E4F593750F
:0A4E5F0094BFF5957596EEF59722C5
:0A4EF7005392DF43932043802022F2
:104EB20075A88275B802E4F589F58A758C7F758EBE
:054EC2000443881022EA
:104E3400E4FFFE75AB09E5AB20E20843AB04E5AB48
:0A4E440020E2FBAFAC7E0053ABF799
:014E4E002241
:03000B0002491295
:10491200C0E0C083C082C0D075D000C006C007907E
:104922000205E0FEA3E0FFD39400EE9400402EEFD8
:1049320094C8EE94005026EF64014E700343901029
:10494200900206E004F07006900205E004F0900286
:1049520005E07004A3E064C870035390EF9002096D
:10496200E0FEA3E0FFD39400EE94004013EF94889E
:10497200EE9413500BE004F07006900209E004F08C
:10498200758ACF758CB5438810D007D006D0D0D0A9
:0649920082D083D0E03268
:1031A9009000C17474F0A3E4F09000C71209143DB3
:1031B900F5C28FE49000CBF0A3F090024C74AAF012
:1031C90090024D7455F0E4FFFE7D707C419000C77C
:1031D900E0F8A3E0F9A3E0FAA3E0FB1202AC400394
:1031E90002333E9000CBE4F0A304F09000CBE0FE64
:1031F900A3E0FFC3940BEE940050CBEF7802C333E6
:10320900CE33CED8F9FF9000C2E02FFF9000C1E085
:103219003EFEC006C0079000C7E0FCA3E0FDA3E0A6
:10322900FEA3E0FF9000CF120908D007D006124490
:10323900F09000CBE0FEA3E07802C333CE33CED8C2
:10324900F9FF9000C2E02FFF9000C1E03ECF24FCBF
:10325900CF34FFFE124BBD9000C31209089000C382
:10326900E0FCA3E0FDA3E0FEA3E0FF9000D174021F
:10327900F0A314F0123E659000CBE0FEA3E07802C3
:10328900C333CE33CED8F9FF9000C2E02FFF9000B0
:10329900C1E03EFE124BBD9000C31209089000C365
:1032A900E0FCA3E0FDA3E0FEA3E0FF9000D17402DF
:1032B900F0E4A3F0123E659000CBE0FEA3E07802B3
:1032C900C333CE33CED8F9FF9000C2E02FFF900070
:1032D900C1E03ECF2404CF3400FE124BBD9000C3A1
:1032E9001209089000C3E0FCA3E0FDA3E0FEA3E0FF
:1032F900FF9000D17402F0A3F0123E659000C7E080
:10330900FCA3E0FDA3E0FEA3E0FFE4FBFA798078EB
:103319003F1200159000C71209087FE87E03124D7D
:103329008E9000CCE004F060030231F49000CBE011
:1033390004F00231F4E490024CF090024DF0024D99
:013349001073
:104CB10025362E30660025352E306600464C4F4194
:104CC100540025362E31660025372E3266002536F2
:104CD1002E32660025372E33660025362E336600C8
:094ED90053A0FB124EE243A004B9
:074EE200E4FF0FEFB405FB34
:014EE90022A6
:024DDE00AE071E
:104DE000E4FDEE20E70553A0F7800343A008124E30
:0A4DF000D9EE25E0FE0DEDB408E851
:014DFA002296
:104A700043A00243A00443A008124EE2124EE2E417
:104A80009001D3F0A304F0FDFB12464174031246DB
:104A90003974281246399001D4742912463C900189
:104AA000D37401F07E007F107D00FB7A0179D5126E
:104AB0000A7478E07C007D017B017A0179D37E0065
:084AC0007F121206D2024650DB
:104639009001D4F07D017B0178E07C007A0179D387
:074649007E007F121206D271
:10465000E4FCFE43A00243A00443A008124EE25330
:10466000A0FD124EE2124ED953A0F7124ED990007F
:10467000E0E0700553A0F7800343A008124ED990E4
:1046800000E0E0700BA3E0FF124DDE124ED9803F38
:10469000E4FEFC53A0FBEE20E70553A0F7800343A4
:1046A000A008124EDCEE25E0FE0CECB406E5E4FCBE
:1046B000ECFFC3740F9FFFE49400FE74E22FF582B9
:1046C00074003EF583E0FF124DDE0CECB410E143C4
:0B46D000A00243A00843A004024EE239
:104C43009001D37401F07E007F107D00FB7A01791F
:104C5300D5120A7412463DE49001D3F0A3740212F4
:104C6300463CE49001D4F078E07C007D017B017A3E
:0C4C73000179D3FE7F121206D2024650D7
:104D10009001D37401F07E007F107D00FB7A017951
:104D2000D5120A7478E07C007D017B017A0179D389
:0A4D30007E007F121206D2024650E8
:104D3A009001D37401F07E007F107DFFFB7A017928
:104D4A00D5120A7478E07C007D017B017A0179D35F
:0A4D5A007E007F121206D2024650BE
:104C7F00E4FEEDB40100EDB402027E0BED70027E96
:104C8F0005C374059B2EFE24D5F582E43401F5830C
:104C9F00E05480F074D52EF582E43401F583E04FB3
:014CAF00F014
:014CB00022E1
:10443D00AC07ED70030244C324FE60400460030228
:10444D0044EDECB40311EB9001D6B40106E04480C9
:10445D00F08004E0547FF0ECB40211EB9001D7B47E
:10446D000106E04480F08004E0547FF0EC640170BC
:10447D006FEB9001D8B40102805C8060ECB4031145
:10448D00EB9001E1B40106E04480F08004E0547F3C
:10449D00F0ECB40211EB9001E2B40106E04480F0BF
:1044AD008004E0547FF0EC64017035EB9001E3B4CF
:1044BD00010280228026ECB40211EB9001DCB401E4
:1044CD0006E04480F08004E0547FF0ECB40111EB81
:1044DD009001DDB40106E04480F08004E0547FF0EB
:0344ED00024E6913
:10409200EF24FEB40900400302418A9040AB75F060
:1040A20003A4C58325F0C583730241030240F702CE
:1040B200410E0241190241240240D30240DF024074
:1040C200EB0240C6ED9001DAB4010302415602410F
:1040D20086ED9001DEB40102807A024186ED900104
:1040E200DBB40102806E024186ED9001DFB4010271
:1040F2008062024186ED9001D9B4010280560241EC
:1041020086ED9001D5B40102804A8078ED9001E4F9
:10411200B40102803F806DED9001E0B40102803471
:104122008062ED64019001DA7030E04480F0900129
:10413200DEE04480F09001DBE04480F09001DFE0BB
:104142004480F09001D5E04480F09001E0E04480AA
:10415200F09001E4E04480F0802EE0547FF0900182
:10416200DEE0547FF09001DBE0547FF09001DFE06D
:10417200547FF09001D5E0547FF09001E0E0547F4D
:10418200F09001E4E0547FF09001D37401F0024E0C
:0141920069C3
:063E65009000CD120908D7
:103E6B009000D1E0703BA3E09000DE700C74FFF08B
:103E7B00A3744CF0A374B1800A74FFF0A3744CF0DC
:103E8B00A374B7F09000CDE0FCA3E0FDA3E0FEA38C
:103E9B00E0FF9000E11209087B017A0079D3120B45
:103EAB00419000D1E06401703CA3E09000DE700D06
:103EBB0074FFF0A3744CF0A374BDF0801F74FFF07B
:103ECB00A3744CF0A374C3F09000CDE0FCA3E0FD11
:103EDB00A3E0FEA3E0FF9000E11209087B017A004A
:103EEB0079D3120B419000D1E06402703BA3E090B8
:103EFB0000DE700C74FFF0A3744CF0A374C9800A3D
:103F0B0074FFF0A3744CF0A374CFF09000CDE0FCE1
:103F1B00A3E0FDA3E0FEA3E0FF9000E11209087B04
:103F2B00017A0079D3120B419000D1E06403703B0E
:103F3B00A3E09000DE700C74FFF0A3744CF0A3743C
:103F4B00D5800A74FFF0A3744CF0A374DBF09000DF
:103F5B00CDE0FCA3E0FDA3E0FEA3E0FF9000E112A7
:103F6B0009087B017A0079D3120B417B017A007926
:093F7B00D39000D2E0FD023F8466
:1034E100EFB430037F5F22EFB431037F5022EFB49A
:1034F10032037F3D22EFB433037F7922EFB43403EB
:103501007F7222EFB435037F6B22EFB436037F6FF6
:1035110022EFB437037F5122EFB438037F7F22EFCC
:10352100B439037F7322EF64616004EFB441037F18
:103531007722EF64626004EFB442037F6E22EF648E
:10354100636004EFB443037F0F22EF64646004EF10
:10355100B444037F7C22EF64656004EFB445037FCC
:103561002F22EF64666004EFB446037F2722EF64E5
:10357100676004EFB447037F6F22EF64686004EF74
:10358100B448037F7622EF64696004EFB449037F96
:103591005022EF646A6004EFB44A037F5C22EF6457
:1035A1006B6004EFB44B037F3622EF646C6004EF71
:1035B100B44C037F0E22EF646D6004EFB44D037FC2
:1035C1000022EF646E6004EFB44E037F6422EF6467
:1035D1006F6004EFB44F037F5F22EF64706004EF0C
:1035E100B450037F3722EF64716004EFB451037F5D
:1035F1007322EF64726004EFB452037F2422EF64FC
:10360100736004EFB453037F6B22EF64746004EFC3
:10361100B454037F2E22EF64756004EFB455037F29
:103621005E22EF64766004EFB456037F4C22EF64B0
:10363100776004EFB457037F0022EF64786004EFF2
:10364100B458037F0022EF64796004EFB459037F1B
:103651007222EF647A6004EFB45A037F3D22EF6473
:103661002D6004EFB45F037F2022EFB420027F00BE
:013671002236
:0E3F84009000DBEBF0A3EAF0A3E9F0A3EDF070
:103F9200A37405F0E4FCED700C9001DCE0547FF0BA
:103FA200A3E0547FF09000DEE0FEB402119001E144
:103FB200E0547FF0A3E0547FF0A3E0547FF0EEB42E
:103FC20001119001D6E0547FF0A3E0547FF0A3E00A
:103FD200547FF09000DBE0FBA3E0FAA3E0F91206C5
:103FE200F8FF7003024089642E60101234E19000E1
:103FF200DEE0FDA3E0FB14F0124C7F9000DBE0FB5F
:10400200A3E0FAA3E0F91206F8642E706C9000DEC9
:10401200E0FF64027021ECB402079001E1E0448009
:10402200F0ECB403079001E2E04480F0ECB4040742
:104032009001E3E04480F0EF64017021ECB40207E8
:104042009001D6E04480F0ECB403079001D7E0443D
:1040520080F0ECB404079001D8E04480F09000DED8
:10406200E07016ECB404079001DDE04480F0ECB49B
:1040720003079001DCE04480F00C9000DCE475F072
:10408200011207A5023FD59001D37401F0024E69D7
:104E69009001D37401F078E07C00FDFB7A0179D3DD
:0A4E79007E007F121206D20246509E
:044A13004102030059
:10419300E49000C3F0900202F09000C3F09000C3DB
:1041A300E0FFC39405507AD281D280D290D291D2CB
:1041B30092EF7002C281EFB40102C280EFB4020237
:1041C300C290EFB40302C291EFB40402C2927F0122
:1041D3007E00124D8E20820D9000C3E025E025E085
:1041E30004900202F020A40E9000C3E025E025E035
:1041F3002402900202F020A00E9000C3E025E025E7
:10420300E02403900202F020960E9000C3E025E024
:1042130025E02404900202F09000C3E004F0024180
:10422300A0900204E0FF700C900202E06006A37409
:1042330001F08031900202E0FEB50709EE6006A3AB
:104243007402F08020900204E0600C900202E0709F
:1042530006A37403F0800E900204E070089002023B
:10426300E07002A3F0900202E0900204F0600A9072
:104273000203E0B40103124F0175AA0575AA0A757A
:02428300A91F71
:014285002216
:094F0100900205E4F0A304F02283
:0100060022D7
:030003007F002259
:104DFB00E49000C3F0F0124F017FFA7E00124D8E4B
:0C4E0B009000C3E004F0E0C3940340EA10
:014E17002278
:104D8E00E4FDFCC3ED9FEC9E501E75AA0575AA0AA4
:104D9E0075A91FE4FBFA0BBB00010AEB64C84A704D
:084DAE00F50DBD00010C80DBD6
:014DB60022DA
:104E8300000000000000000000000000000000001F
:084E9300000000000000000017
:104A17004401690000000042017400004201720075
:104A270000410176015401770000000000000000FA
:104A370000000000000000000000000044016D00BD
:0E4A4700000000440165000000004101710004
:060F5F0090013A1209089E
:100F6500783F7C017D017BFF7A4E79837E007F147B
:100F75001206D290015312091440886E55900157FC
:100F85001209140000000090013AE0FCA3E0FDA363
:100F9500E0FEA3E0FFE412031990015E1209089038
:100FA50001627405F0E4A3F0A3F090015B04F0A3E3
:100FB5007401F0A37477F0900153E0FCA3E0FDA366
:100FC500E0FEA3E0FF900165E0F8A3E0F9A3E0FAF5
:100FD500A3E0FB12001590015EE0F8A3E0F9A3E0A1
:100FE500FAA3E0FB1202AC60025032900153E0F824
:100FF500A3E0F9A3E0FAA3E0FB900165E0FCA3E020
:10100500FDA3E0FEA3E0FF12001190015EE0F8A34E
:10101500E0F9A3E0FAA3E0FB1202AC505C90013EBC
:10102500E07056900171E0FF04F0EFD39402404662
:10103500E4F0900163F0900162E014FFA3E0C39F28
:10104500400302118690015EE0FCA3E0FDA3E0FEF3
:10105500A3E0FF90015BE0FBA3E0FAA3E0F99001B8
:1010650063E075F004A4F58285F0831208B8900159
:1010750063E004F080C00213A090013EE0640170BB
:101085004C900171F0900163F0900162E014FFA3B0
:10109500E0C39F400302118690013AE0FCA3E0FD06
:1010A500A3E0FEA3E0FFE412031990015BE0FBA3BC
:1010B500E0FAA3E0F9900163E075F004A4F58285F8
:1010C500F0831208B8900163E004F080BC90013E03
:1010D500E064027055900163F0900162E014FFA393
:1010E500E0FEC39F4003021186EE2401FFE433FEB8
:1010F500EF7802C333CE33CED8F9FF90015BE0FB26
:10110500A3E0FAA3E0F98F828E8312088890015B31
:10111500A3A3900163E075F004A4F58285F0831222
:1011250008B8900163E004F080AFE4900171F0909D
:101135000163F0900162E014FFA3E0FEC39F5041FC
:10114500EE2401FFE433FEEF7802C333CE33CED86D
:10115500F9FF90015BE0FBA3E0FAA3E0F98F828E33
:101165008312088890015BA3A3900163E075F004E6
:10117500A4F58285F0831208B8900163E004F0803D
:10118500B290015EE0FCA3E0FDA3E0FEA3E0FFC09A
:1011950004C005C006C007A3E024FFFFE434FFFE3A
:1011A500EF7802C333CE33CED8F9FF90015BE0FB75
:1011B500A3E0FAA3E0F98F828E83D007D006D0058D
:1011C500D0041208B8E4900163F0900162E0FFA337
:1011D500E0C39F503790015BE0FBA3E0FAA3E0F981
:1011E500900163E075F004A4F58285F08312088808
:1011F500900163E025E025E0243FF582E43401F524
:1012050083120908900163E004F080BEE490016355
:10121500F0900162E014FFA3E0FEC39F40030212B9
:10122500F9EE04A3F0900162E0FF900164E0FEC3D3
:101235009F40030212F0900163E025E025E0243F82
:10124500F582E43401F583E0F8A3E0F9A3E0FAA31D
:10125500E0FBEE25E025E0243FF582E43401F5834B
:10126500E0FCA3E0FDA3E0FEA3E0FF1202AC607288
:101275004070900164E0FB25E025E0243FF582E421
:101285003401F583E0FCA3E0FDA3E0FEA3E0FF90BD
:101295000157120908900163E0FA25E025E0243F93
:1012A500F582E43401F583E0FCA3E0FDA3E0FEA3B1
:1012B500E0FFEB25E025E0243FF582E43401F583EA
:1012C500120908900157E0FCA3E0FDA3E0FEA3E0AE
:1012D500FFEA25E025E0243FF582E43401F5831299
:1012E5000908900164E004F002122A900163E00409
:1012F500F002121690016512091400000000900119
:10130500637401F0900162E014FFA3E0FEC39F50F7
:1013150038900165E0F8A3E0F9A3E0FAA3E0FBEE5D
:1013250025E025E0243FF582E43401F583E0FCA3C4
:10133500E0FDA3E0FEA3E0FF120015900165120990
:1013450008900163E004F080BB900165E0FCA3E038
:10135500FDA3E0FEA3E0FFC004C005C006C00790E2
:101365000162E024FEFDE434FFFCE412031EA80440
:10137500A905AA06AB07D007D006D005D0041202EE
:101385000F900165120908900165E0FCA3E0FDA33B
:10139500E0FEA3E0FF90016D120908900165E0FCF5
:0913A500A3E0FDA3E0FEA3E0FFBC
:0113AE00221C
:053AEA0090023FEFF027
:103AEF00A312091400000000308342E47FFAFEFDA8
:103AFF00FC900240E0F8A3E0F9A3E0FAA3E0FBC3D7
:103B0F0012084450287F017E00124D8E900240E033
:103B1F00FCA3E0FDA3E0FEA3E02401FFE43EFEE4EE
:103B2F003DFDE43CFC90024012090880BB3083034A
:103B3F00023C0B12488B900240120908900240E0A1
:103B4F00FCA3E0FDA3E0FEA3E0FF78071208559069
:103B5F000240120908E47FFF7EFFFDFC900240E067
:103B6F00F8A3E0F9A3E0FAA3E0FBC3120844606DE9
:103B7F00E47FFF7EFFFDFC900240E0F8A3E0F9A395
:103B8F00E0FAA3E0FBD3120844900240E04032F881
:103B9F00E49BFFE49AFE740299FDE498FC900240C6
:103BAF00120908900240E0F8A3E0F9A3E0FAA3E0BD
:103BBF00FBC374F49BFF747E9AFEE499FDE4988036
:103BCF0015FCA3E0FDA3E0FEA3E024F4FFEE347E9A
:103BDF00FEE43DFDE43CFC900240120908900240D7
:103BEF00E0FCA3E0FDA3E0FEA3E0FF90023FE09026
:103BFF00013EF0120F5F900169120908900169E010
:0A3C0F00FCA3E0FDA3E0FEA3E0FF2C
:013C19002288
:10488B00783B7C027D017BFF7A4E79977E007F041B
:10489B001206D29002387401F0A37402F0A3743B99
:1048AB00F0208362E4FDFCD284EDAE047803CEC32A
:1048BB0013CE13D8F9FF243CF58274023EF583E046
:1048CB00FB25E0F0C284743C2FF58274023EF58325
:1048DB00E0FFA283E433FEEF4EF00DBD00010CEDC3
:1048EB0064184C70C2D284EDAE047805C333CE335A
:1048FB00CED8F9FDAC06C284900238E0FBA3E0FAF7
:06490B00A3E0F9120868A8
:014911002283
:0100070022D6
:0A4EC700E475F0011207BBAFF0FE26
:074ED1008F828E83E493FF42
:014ED80022B7
:084C03009000CCEEF0A3EFF0ED
:104C0B009000D07401F0A37400F0A374CEF0E4FD17
:104C1B009000CC124EC79000D0E0FBA3E475F001DE
:104C2B001207BBA9F0FAEF12073E0DEDB402E190AB
:074C3B0000CEE0FEA3E0FF44
:014C4200224F
:084B7700900217EEF0A3EFF02D
:104B7F0090021D7401F0A37402F0A37419F0E4FD08
:104B8F00900217124EC790021DE0FBA3E475F001CF
:104B9F001207BBA9F0FAEF12073E0DEDB404E19036
:0D4BAF000219E0FCA3E0FDA3E0FEA3E0FF7F
:014BBC0022D6
:084BBD009000DAEEF0A3EFF026
:104BC5009000E07401F0A37400F0A374DCF0E4FD40
:104BD5009000DA124EC79000E0E0FBA3E475F00107
:104BE5001207BBA9F0FAEF12073E0DEDB404E190F0
:0D4BF50000DCE0FCA3E0FDA3E0FEA3E0FF78
:014C0200228F
:10499800AFF0FEE0FBA3E475F0011207BBA9F0FA43
:0449A8001206F8FDFE
:1049AC00E49000E3F075AA0575AA0A75A91F90009A
:1049BC00E1EEF0A3EFF0A2AF9200C2AF9000E1E005
:1049CC00F5C3A3E0F5C2AF058FC1E4F5C4F5C5F599
:1049DC00C690024CE0B4AA08A3E0B4550375C70313
:1049EC0012000775C40575C50A75C60990024CE01E
:1049FC00B4AA08A3E0B4550375C703E4F5C4F5C520
:064A0C00F5C6A20092AF06
:014A12002281
:104D64009000C5EDF09000C3EEF0A3EFF0124ED129
:104D7400EFF460089000C37D01123D459000C3E04C
:0A4D8400FEA3E0FFA3E0FD0249AC2E
:104801009000C5ECF0A3EDF09000C3EEF0A3EFF043
:10481100124C039000CAEEF0A3EFF09000C77401B0
:10482100F0A37400F0A374CAF09000C7E0FBA3E406
:1048310075F0011207BBA9F0FA1206F8B4FF169041
:1048410000C7E0FBA3E475F0011207BBA9F0FA125F
:1048510006F8F4600F9000C3E0FEA3E0FF7D027C48
:1048610000123D4C9000C77401F0A37400F0A374D2
:10487100C5F0E4FC9000C3E475F0011207BB9000A1
:09488100C71249980CECB402EBDB
:01488A00220B
:084596009001F5EEF0A3EFF037
:10459E00124B779001FE1209089001FB7401F0A3F3
:1045AE007401F0A374FEF09001FBE0FBA3E475F040
:1045BE00011207BBA9F0FA1206F8B4FF429001FBF4
:1045CE00E0FBA3E475F0011207BBA9F0FA1206F89E
:1045DE00B4FF2C9001FBE0FBA3E475F0011207BBC6
:1045EE00A9F0FA1206F8B4FF169001FBE0FBA3E463
:1045FE0075F0011207BBA9F0FA1206F8B4FF069087
:10460E0001F5123D439001FB7401F0A37401F0A378
:10461E0074F7F0E4FC9001F5E475F0011207BB901D
:0A462E0001FB1249980CECB404EBF8
:01463800225F
:0844F0009000CDEEF0A3EFF007
:1044F800124BBD9000D61209089000D37401F0A3A6
:104508007400F0A374D6F09000D3E0FBA3E475F038
:10451800011207BBA9F0FA1206F8B4FF429000D3C3
:10452800E0FBA3E475F0011207BBA9F0FA1206F844
:10453800B4FF2C9000D3E0FBA3E475F0011207BB95
:10454800A9F0FA1206F8B4FF169000D3E0FBA3E432
:1045580075F0011207BBA9F0FA1206F8B4FF06902D
:1045680000CD123D439000D37401F0A37400F0A372
:1045780074CFF0E4FC9000CDE475F0011207BBAFF6
:0D458800F0FE9000D312499B0CECB404E847
:014595002203
:104AC800E49000E1F0A3EEF0A3EFF0A2AF9200C2F1
:104AD800AF9000E2E0F5C3A3E0F5C2E4F5C4F5C584
:104AE800F5C690024CE0B4AA08A3E0B4550375C714
:104AF8000312000775C40575C50A75C60990024CEE
:104B0800E0B4AA08A3E0B4550375C70CE4F5C4F5EE
:074B1800C5F5C6A20092AF33
:014B1F002273
:093D43007D04E0FEA3E0FF7C001A
:0E3D4C009000DAEEF0A3EFF0A3ECF0A3EDF0A0
:103D5A00E4A3F0A3F0A3F09000DAE01313543F7B3E
:103D6A000025E025E0FAE49000DFF0A3F09000DF00
:103D7A00E0FEA3E0FFC3940AEE94005025E42FFF6F
:103D8A00EE3468FE124ED1EFF460077F007E6812AF
:103D9A004AC89000E0E004F070D39000DFE004F03D
:103DAA0080CBE49000DFF0A3F09000DFE0FEA3E018
:103DBA00FFC3EE94045056EF2BFFEE3AFE9000DA62
:103DCA00E0B50617A3E0B50712A3E0FEA3E0FF9053
:103DDA0000E0E02FF09000DFE03EF09000E0E02B02
:103DEA00FF9000DFE03AFE124ED1AD079000E0E00E
:103DFA002400FF9000DFE03468FE1249AC9000E036
:103E0A00E004F070A49000DFE004F0809CAF03AE01
:103E1A0002124AC8E49000DFF0A3F09000DFE0FE4F
:103E2A00A3E0FFC3EE9404502BE42FFFEE3468FEA8
:103E3A00124ED1AD079000E0E02BFF9000DFE03A90
:103E4A00FE1249AC9000E0E004F070CF9000DFE091
:0B3E5A0004F080C77F007E68024AC8A9
:1043710030303030300030303030303000202020CC
:10438100554E00535441424C45002020504C53009F
:10439100554E4C4F41440048454C50200050524529
:1043A1005353005245462030004300204C4F4144B6
:1043B100004320202000464143544F00520020205A
:1043C100454E440053415645440020204F46460087
:1043D1002D2D2D2D2D00202020202D0020202020CE
:1043E100202D0020202D2D2D002020202D2D2D00D1
:1043F10020202020202000534F42524500205045CC
:10440100534F004F56455220002D2D2D2D2D2D009F
:1044110020202020203000202D452D20002D2D2D65
:104421002D2D2D2D2D2D2D20002020202030000080
:0C4431000000000000000000000000007F
:104A5500440006000000004400000000000044007F
:0A4A65008C00000000420004000075
:102FDC007F017E6C124BBD90002A1209087F057E82
:102FEC006C124BBD9000261209087F097E6C124BA7
:102FFC00BD90002E12090890001E1209140000004A
:10300C00007F667E6C124ED1900069EFF07F0D7ED2
:10301C006C124ED190006AEFF07F0E7E6C124ED186
:10302C0090006BEFF07F1A7E6C124ED1900088EFFF
:10303C00F07F0F7E6C124C03900052EEF0A3EFF079
:10304C007F117E6C124C03900055EEF0A3EFF07FD5
:10305C00137E6C124C03900057EEF0A3EFF07F64DC
:10306C007E6C124C03900059EEF0A3EFF07F6B7E58
:10307C006C124C0390005BEEF0A3EFF07F157E6CAE
:10308C00124ED190006CEFF07F167E6C124ED190E8
:10309C00006DEFF07F287E6C124ED190008BEFF01C
:1030AC0090006DE090006F70057405F08003740162
:1030BC00F07F177E6C124ED190006EEFF090007086
:1030CC0070057405F080037401F07F187E6C124E4D
:1030DC00D1900071EFF0E4900073F07F1B7E6C12C6
:1030EC004ED1900074EFF07F1C7E6C124ED190008C
:1030FC0075EFF07F267E6C124ED1900076EFF07F4C
:10310C001D7E70124C03900063EEF0A3EFF07F1F56
:10311C007E70124C03900065EEF0A3EFF07F2A7ED8
:10312C006C124ED1900079EFF07F2B7E6C124C0319
:10313C0090005DEEF0A3EFF07F377E6C124ED190D5
:10314C00007BEFF07F3C7E6C124ED1900089EFF04B
:10315C007F3D7E70124C03900067EEF0A3EFF07F82
:10316C003F7E70124BBD90003E1209087F547E6C5E
:10317C00124ED1900054EFF07F627E6C124ED190C3
:10318C000087EFF07F637E70124ED19000B6EFF0A7
:0D319C007F677E70124BBD90004A0209084B
:10282A0090024C74AAF090024D7455F0EF120965AB
:10283A0028C500285C012AA7022A39042A4B062A3D
:10284A00210A28B80B2A130C2A720D2AC40F000079
:10285A002AD07D017F007E6C124D6490002AE0FC34
:10286A00A3E0FDA3E0FEA3E0FF9000CF1209087FDA
:10287A00017E6C1244F0900026E0FCA3E0FDA3E088
:10288A00FEA3E0FF9000CF1209087F057E6C124478
:10289A00F090002EE0FCA3E0FDA3E0FEA3E0FF9091
:1028AA0000CF1209087F097E6C1244F08000900064
:1028BA0063E0FCA3E0FD7F1D022A1D90006AE0FD93
:1028CA007F0D7E6C124D6490006BE0FD7F0E7E6C76
:1028DA00124D64900052E0FCA3E0FD7F0F7E6C1263
:1028EA004801900055E0FCA3E0FD7F117E6C124880
:1028FA0001900057E0FCA3E0FD7F137E6C124801B3
:10290A00900059E0FCA3E0FD7F647E6C12480190C0
:10291A00005BE0FCA3E0FD7F6B7E6C124801900037
:10292A006CE0FD7F157E6C124D6490006DE0FD7FBA
:10293A00167E6C124D64900071E0FD7F187E6C1259
:10294A004D64900073E0FD7F197E6C124D64900017
:10295A0074E0FD7F1B7E6C124D64900075E0FD7F74
:10296A001C7E6C124D64900076E0FD7F267E6C1210
:10297A004D64900079E0FD7F2A7E6C124D649000D0
:10298A0065E0FCA3E0FD7F1F7E7012480190007B8A
:10299A00E0FD7F377E6C124D64900089E0FD7F3C3C
:1029AA007E6C124D64900067E0FCA3E0FD7F3D7EE3
:1029BA007012480190003EE0FCA3E0FDA3E0FEA3F4
:1029CA00E0FF9000CF1209087F3F7E701244F0901A
:1029DA000054E0FD7F547E6C124D64900087E0FD48
:1029EA007F627E6C124D649000B6E0FD7F637E705C
:1029FA00124D64900069E0FD7F667E6C124D649012
:102A0A000088E0FD7F1A022ACB900065E0FCA3E073
:102A1A00FD7F1F7E708024900026E0FCA3E0FDA3CA
:102A2A00E0FEA3E0FF9000CF1209087F05806A90BC
:102A3A00005DE0FCA3E0FD7F2B7E6C124801022AB8
:102A4A00D0900067E0FCA3E0FD7F3D7E7012480154
:102A5A0090003EE0FCA3E0FDA3E0FEA3E0FF9000AF
:102A6A00CF1209087F3F804B900042E0FCA3E0FDB3
:102A7A00A3E0FEA3E0FF9000CF1209087F5A7E6C04
:102A8A001244F0900046E0FCA3E0FDA3E0FEA3E0C0
:102A9A00FF9000CF1209087F5E7E6C801890004A72
:102AAA00E0FCA3E0FDA3E0FEA3E0FF9000CF120943
:102ABA00087F677E701244F0800C90008BE0FD7FE7
:102ACA00287E6C124D64E490024CF090024DF02284
:062556007B01E4FD7F01A2
:0F255C009001BDEDF09001BCEFF09001BEEBF0EF
:10256B00E4A3F0A3F0FCFDFEA31209089001C51231
:10257B000914000000009001C912091400000000AA
:10258B009001CD12091440A00000E49001D1F0A3FA
:10259B00F09001C0F0EB70037402F09001BEE0FF0D
:1025AB00123AEA9001C91209089001BEE0FF123AF3
:1025BB00EA9001C91209089001BEE0FF123AEA90B5
:1025CB0001C91209089001BEE0FF123AEA9001C955
:1025DB0012090874FFFFFEFDFC9001C1E0F8A3E0B7
:1025EB00F9A3E0FAA3E0FBD312082E50030228153F
:1025FB001200039001BDE0640160030226B6900156
:10260B00C1E0FCA3E0FDA3E0FEA3E0FFEC4D4E4FC9
:10261B0070237BFF7A4379717D01123F847BFF7AB4
:10262B004379717D02123F847BFF7A437977E4FD16
:10263B00123F848076E47F677E2BFDFC9001C1E026
:10264B00F8A3E0F9A3E0FAA3E0FB1207D1EC120325
:10265B0019E49000D1F0A304F0123E65E47F677E8D
:10266B002BFDFC9001C1E0F8A3E0F9A3E0FAA3E095
:10267B00FB1207D1EC120319E49000D1F0A3740202
:10268B00F0123E657F077EB27D017C009001C1E0B8
:10269B00F8A3E0F9A3E0FAA3E0FB1207D1EC1203D5
:1026AB0019E49000D1F0A3F0123E659001BEE0FF5B
:1026BB00123AEA9001C51209089001CDE0F8A3E0A7
:1026CB00F9A3E0FAA3E0FB9001C9E0FCA3E0FDA3B2
:1026DB00E0FEA3E0FF1200119001C5E0F8A3E0F9C2
:1026EB00A3E0FAA3E0FB1202AC40749001CDE0FC36
:1026FB00A3E0FDA3E0FEA3E0FF9001C9E0F8A3E097
:10270B00F9A3E0FAA3E0FB1200159001C5E0F8A3D2
:10271B00E0F9A3E0FAA3E0FB1202AC600250409098
:10272B0001BFE004F0A3E0FF9001BFE0D39F500393
:10273B000225DE9001C1E0FCA3E0FDA3E0FEA3E0D7
:10274B00FFEF24FFFFEE34FFFEED34FFFDEC34FF13
:10275B00FC9001C1120908E49001BFF00225DE9044
:10276B0001BDE06401706C124D107BFF7A43797EE2
:10277B007D02123F847BFF7A437984E4FD123F8410
:10278B009001C112091400000000E47F2C7E01FDB2
:10279B00FC9001C1E0F8A3E0F9A3E0FAA3E0FBC3CE
:1027AB0012082E502E7F0A7E00124D8E9001C1E032
:1027BB00FCA3E0FDA3E0FEA3E0FFE4FAF9F8EF24AD
:1027CB0001FFEA3EFEE93DFDE83CFC9001C1120928
:1027DB000880B7E49001BFF09001BCE0FFE4FCFD82
:1027EB00FE9001C11209089001BEE0FF123AEA9077
:1027FB0001C91209089001BEE070030225DEE490C6
:10280B0000B4F0FFFE7DC87CC2229000B47401F0CE
:0E281B009001C9E0FCA3E0FDA3E0FEA3E0FFF6
:01282900228C
:103672009002201209140000000090022412091482
:1036820000000000E4FBFDFF12255C9002241209F9
:1036920008900090E070037F0222900026E0F8A3D9
:1036A200E0F9A3E0FAA3E0FB900224E0FCA3E0FD32
:1036B200A3E0FEA3E0FF120011900220120908907D
:1036C2000074E0700302377F7FCD7ECC7D4C7C3E60
:1036D20090002AE0F8A3E0F9A3E0FAA3E0FB1201CC
:1036E20006900220E0F8A3E0F9A3E0FAA3E0FB12BF
:1036F20002AC602C402AE4FFFEFD7C3F90002AE0F1
:10370200F8A3E0F9A3E0FAA3E0FB1201069002207D
:10371200E0F8A3E0F9A3E0FAA3E0FB1202AC402C2C
:103722007FCD7ECC7D4C7CBE90002AE0F8A3E0F9F0
:10373200A3E0FAA3E0FB120106900220E0F8A3E066
:10374200F9A3E0FAA3E0FB1202AC5031124D107B58
:10375200FF7A43798B7D01123F847BFF7A43799113
:10376200E4FD123F8475AA0575AA0A75A91F900087
:103772009FE07006900090E070EB7F0222E4FFFE73
:10378200FD7C3F90002AE0F8A3E0F9A3E0FAA3E071
:10379200FB120106900220E0F8A3E0F9A3E0FAA3ED
:1037A200E0FB1202AC4040E4FFFEFDFC900220E090
:1037B200F8A3E0F9A3E0FAA3E0FB1202AC60284010
:1037C20026124D107BFF7A4379987D02123F847551
:1037D200AA0575AA0A75A91F90009FE070069000BD
:1037E20090E070EB7F0222900224E0FCA3E0FDA3B4
:0D37F200E0FEA3E0FF9000321209087F0006
:0137FF0022A7
:06221D009001A412090863
:102223009001A8120914000000009001AC120914D7
:10223300000000009001B01209140000000090019A
:10224300B4120914000000009001B8120914000030
:1022530000001225569001B41209089000B4E064FE
:10226300016003022555FFFEFDFC9001A4E0F8A3E5
:10227300E0F9A3E0FAA3E0FB1202AC600250030210
:10228300238B900097E0600302230F90006BE070B4
:102293003F900022E0FCA3E0FDA3E0FEA3E0FF12D9
:1022A30013E0C004C005C006C007900052E0FCA3C1
:1022B300E0FDE412031EA804A905AA06AB07D00794
:1022C300D006D005D0041202AC500302255580215C
:1022D300900022E0FCA3E0FDA3E0FEA3E0FF1213C5
:1022E300E07BE77AFB791F78411202AC50030225A9
:1022F30055900022E0FCA3E0FDA3E0FEA3E0FF90E5
:10230300001E1209089000977401F02290006BE000
:10231300703F900022E0FCA3E0FDA3E0FEA3E0FFFA
:102323001213E0C004C005C006C007900052E0FCD1
:10233300A3E0FDE412031EA804A905AA06AB07D077
:1023430007D006D005D0041202AC500302255580F5
:1023530023900022E0FCA3E0FDA3E0FEA3E0FF1234
:1023630013E07BE77AFB791F78411202AC600250DD
:1023730003022555900022E0FCA3E0FDA3E0FEA3A9
:10238300E0FF90001E020908E4FFFEFDFC9001A49B
:10239300E0F8A3E0F9A3E0FAA3E0FB1202AC4003E8
:1023A300022555900097E070030225559001A4E0A3
:1023B300FCA3E0FDA3E0FEA3E0FFE4FBFA79807851
:1023C300BF1201069001A4120908900069E064019C
:1023D30060030224927FCD7ECC7D4C7C3E90002A0C
:1023E300E0F8A3E0F9A3E0FAA3E0FB1201069000F2
:1023F3001EE0F8A3E0F9A3E0FAA3E0FB1202AC604D
:10240300025077900057E0FCA3E0FDE412031EA8FE
:1024130004A905AA06AB0790002EE0FCA3E0FDA3E8
:10242300E0FEA3E0FF12020F9001B8120908900129
:10243300B8E0F8A3E0F9A3E0FAA3E0FBC000C00111
:10244300C002C003900059E0FCA3E0FDE412031EA8
:10245300D003D002D001D0001201069001B81209B6
:10246300089001B81213B29001AC120908E4FFFE00
:102473007D407C409001B80224A51213AF9001ACBB
:10248300120908E4FFFE7D407C4090002E80131269
:1024930013AF9001AC120908E4FFFE7D407C40902D
:1024A300002EE0F8A3E0F9A3E0FAA3E0FB12010693
:1024B30090001EE0F8A3E0F9A3E0FAA3E0FB12000A
:1024C300151213E09001B01209089001ACE0FCA3CF
:1024D300E0FDA3E0FEA3E0FF9001A4E0F8A3E0F990
:1024E300A3E0FAA3E0FB1202AC40679001B0E0FC6A
:1024F300A3E0FDA3E0FEA3E0FF9001A4E0F8A3E0C6
:10250300F9A3E0FAA3E0FB1202AC60025044E4FD3D
:102513007F0312409290001E12091400000000E491
:10252300900097F090000EE0FCA3E0FDA3E0FEA373
:10253300E0FF9000321209089001B4E0FCA3E0FD33
:10254300A3E0FEA3E0FF12035790013E7401F012D3
:022553000F5F18
:012555002263
:104CE100900244120914000000001225569002445B
:104CF1001209089000B4E0B40114900244E0FCA34E
:0E4D0100E0FDA3E0FEA3E0FF900032120908DF
:014D0F002281
:0B380000E0FCA3E0FDA3E0FEA3E0FF5E
:06380B00900228120908DA
:1038110090022C12091400000000900069E0B4012C
:103821005A900057E0FCA3E0FDE412031EA804A98E
:1038310005AA06AB0790002EE0FCA3E0FDA3E0FE85
:10384100A3E0FF12020F90022C12090890022CE053
:10385100F8A3E0F9A3E0FAA3E0FBC000C001C002B5
:10386100C00390005BE0FCA3E0FDE412031ED00363
:10387100D002D001D000120106800E90002EE0FC93
:10388100A3E0FDA3E0FEA3E0FF90022C1209089043
:10389100022CE0FCA3E0FDA3E0FEA3E0FFE4FBFAC1
:1038A100F9784012020F90022C120908E4FFFEFD84
:1038B100FC90022CE0F8A3E0F9A3E0FAA3E0FB12EC
:1038C10002AC501E90022CE0FCA3E0FDA3E0FEA39D
:1038D100E0FFE4FBFA798078BF12010690022C1216
:1038E100090890022CE0F8A3E0F9A3E0FAA3E0FBB9
:1038F100900032E0FCA3E0FDA3E0FEA3E0FF120094
:1039010011900228E0F8A3E0F9A3E0FAA3E0FB128A
:1039110002AC6067406590022CE0FCA3E0FDA3E0EF
:10392100FEA3E0FF900032E0F8A3E0F9A3E0FAA3E0
:10393100E0FB120015900228E0F8A3E0F9A3E0FAF9
:10394100A3E0FB1202AC5033900005E004F07006D6
:10395100900004E004F0C3900005E0940F9000048F
:10396100E064809480401B900228E0FCA3E0FDA36A
:10397100E0FEA3E0FF900032020908E4900004F0A9
:02398100A3F0B1
:013983002221
:101B63009001E5120914000000009001E912091424
:101B7300000000009001ED12091400000000900124
:101B8300F112091400000000900064E004F07006F4
:101B9300900063E004F0124D107BFF7A43799E7D41
:101BA30001123F847BFF7A4379A4E4FD123F847BD7
:101BB300FF7A4379AA7D02123F84E4900202F090F7
:101BC3000202E0640C600512419380F3E490020288
:101BD300F0900202E0B40C0512419380F47FF47E8E
:101BE30001124D8EE4FB7D017F0512255C900026DA
:101BF300120908900026E0FCA3E0FDA3E0FEA3E0A9
:101C0300FF9000D17402F0E4A3F0123E657F887E5A
:101C130013124D8E900026E0FCA3E0FDA3E0FEA38B
:101C2300E0FF9001E9120908124D107BFF7A437916
:101C33009E7D01123F847BFF7A4379ACE4FD123F22
:101C4300847BFF7A4379B27D02123F84E4900202DF
:101C5300F0900202E0640C600512419380F3E4FB10
:101C63007D017F0512255C90002A12090890002A45
:101C7300E0FCA3E0FDA3E0FEA3E0FF9000D174022B
:101C8300F0E4A3F0123E657F887E13124D8E900020
:101C93002AE0FCA3E0FDA3E0FEA3E0FF9001ED1228
:101CA30009089001E9E0F8A3E0F9A3E0FAA3E0FB57
:101CB300A3E0FCA3E0FDA3E0FEA3E0FF120011906C
:101CC30001F11209089001F1E0F8A3E0F9A3E0FAA9
:101CD300A3E0FBC000C001C002C003900055E0FCBC
:101CE300A3E0FD7E007F64120750AC06AD07E4124B
:101CF300031ED003D002D001D0001201069001F1DF
:101D030012090890002AE0FCA3E0FDA3E0FEA3E093
:101D1300FF900026E0F8A3E0F9A3E0FAA3E0FB12AA
:101D2300001190002A12090890002AE0F8A3E0F9B4
:101D3300A3E0FAA3E0FBC000C001C002C00390000F
:101D430055E0FCA3E0FD7E007F64120750AC06ADB6
:101D530007E412031ED003D002D001D00012010603
:101D630090002A12090890002AE0FCA3E0FDA3E0FA
:101D7300FEA3E0FFA3120908900052E0FCA3E0FDDC
:101D8300E412031E9001E51209089001E5E0F8A3AF
:101D9300E0F9A3E0FAA3E0FBC000C001C002C00366
:101DA300900054E0FCE41203239002111209087F0F
:101DB300007E007D207C41123984D003D002D00103
:101DC300D0001201069001E51209089001E5E0FC3C
:101DD300A3E0FDA3E0FEA3E0FFC004C005C006C06E
:101DE30007900057E0FCA3E0FDE412031EA804A93A
:101DF30005AA06AB07D007D006D005D00412020F00
:101E03009001E512090890002EE0FCA3E0FDA3E099
:101E1300FEA3E0FF9001E5E0F8A3E0F9A3E0FAA355
:101E2300E0FB12020F90002E120908E4FFFEFDFCF6
:101E330090002AE0F8A3E0F9A3E0FAA3E0FB120282
:101E4300AC501E90002AE0FCA3E0FDA3E0FEA3E05B
:101E5300FFE4FBFA798078BF12010690002A120989
:101E630008124D107BFF7A4379B77D01123F8490AE
:101E7300002EE0FCA3E0FDA3E0FEA3E0FF9000D171
:101E83007402F0E4A3F0123E657BFF7A4379BDE46C
:101E9300FD123F847B01E4FD7F0212443D7BFF7A08
:101EA3004379BF7D02123F847F0112282A7F0D12DE
:101EB300282A124DFB124DFB7F887E13124D8E0292
:021EC3004D10C0
:052D5C009000C1EFF042
:102D6100E4A3F0124D109000697401F0A3F09000FB
:102D7100C1E07009900052F0A3740F80319000C13E
:102D8100E0B4010A900052E4F0A374148020900092
:102D9100C1E0B4020A900052E4F0A3741E8069906D
:102DA10000C1E0B40520900052E4F0A3741EF0903D
:102DB1000057E4F0A37405F0A3E4F0A37402F0A3B8
:102DC100E4F0A304802B9000C1E0B4062C900052E3
:102DD100E4F0A3741EF0900057E4F0A37402F0A392
:102DE100E4F0A37402F0A3E4F0A37402F0E4900011
:102DF10069F09000547403802B9000C1E0B4033952
:102E0100900052E4F0A37428F0900057E4F0A3740A
:102E11000AF0A3E4F0A37405F0A3E4F0A37402F0B4
:102E210090005404F090006B7401F0FDE4FF124037
:102E3100929000897401F080369000C1E0B4042FB3
:102E4100900052E4F0A3743CF0900057E4F0A374B6
:102E510002F0900054F0E490006BF090006AF07D75
:102E6100017F01124092E4900089F0900069F09096
:102E71000052E0FCA3E0FDE412031E900054E09038
:102E810000D1F0A37401F0123E65900055E4F0A367
:102E91007464F090006C7402F0A314F090007174EB
:102EA10003F0E4900070F090007304F0A3F0A3F03D
:102EB100900079F0E4A3F0A37405F0E4900067F0CA
:102EC100A3F090003E12091400000000E490008776
:102ED100F0A37402F0E4900078F09000421209141B
:102EE100000000009000461209140000000090004C
:102EF1002A12091400000000900026120914000093
:102F0100000090002E120914000000009000B67419
:102F110001F090004A12091400000000E4900063DF
:102F2100F0A3F0A3F0A3F0900209F0A304F080173E
:102F3100900202E064086014C390020AE094889051
:102F41000209E09413500512419380E4C390020AF0
:102F5100E09488900209E094134003024D107F0D24
:102F610012282AE4FF12282A7F0112282A7F02123E
:102F7100282A7BFF7A4379C57D02123F84124DFBDB
:102F8100124DFB124193900202E064086022C3904B
:102F9100020AE09488900209E09413501375AA057F
:102FA10075AA0A75A91F124193900090E070D7226B
:102FB100124D107BFF7A4379CB7D02123F84900240
:102FC10009E4F0A304F0C390020AE0948890020996
:0A2FD100E09413500512419380ECC8
:012FDB0022D3
:102ADA00EFB401031200069000A0E0B4010E9000CA
:102AEA0075E0B40107E4900090F0FF22900093E0B3
:102AFA00B401037F002290009AE07011900095E0E3
:102B0A0070047D018002E4FD7F05124092E490008A
:102B1A009BF09000AFE0640160089000AEE06401B1
:102B2A00701E7BFF7A4379D17D01123F847BFF7A45
:102B3A004379D77D02123F847BFF7A4379DD802473
:102B4A009000B0E06401702B7BFF7A4379D17D015C
:102B5A00123F847BFF7A4379E47D02123F847BFF34
:102B6A007A4379EAE4FD123F84E4FD7F061240923B
:102B7A007F002290009AE06003022C399000A7E0BF
:102B8A006401703D900073E064017035FFFEFDFC46
:102B9A00900006E0F8A3E0F9A3E0FAA3E0FB120232
:102BAA00AC701E900087E0B40117900095E06011A8
:102BBA00900097E0700B1217AD900090E07002FF42
:102BCA0022900099E060047D018002E4FD7F0412F6
:102BDA00409290006BE0B401067D01E4FF800A9008
:102BEA00006BE070077D017F011240927F6F7E12B9
:102BFA007D037CBA900006E0F8A3E0F9A3E0FAA30B
:102C0A00E0FB1202AC6021401F7F6F7E127D037CC5
:102C1A003A900006E0F8A3E0F9A3E0FAA3E0FB1279
:102C2A0002AC50047D018002E4FD7F02124092E46E
:102C3A009000A9F09000A5E06002801DE4FFFEFD6F
:102C4A00FC900006E0F8A3E0F9A3E0FAA3E0FB1287
:102C5A0002AC50051242868003121EC5900097E00E
:102C6A006070E4FFFE7DA07C4190002EE0F8A3E0B6
:102C7A00F9A3E0FAA3E0FB12010690001EE0F8A314
:102C8A00E0F9A3E0FAA3E0FB12001590008CE0F84B
:102C9A00A3E0F9A3E0FAA3E0FB1202AC401790000C
:102CAA0092E0701190008BE0600990009E7401F030
:102CBA00439020806E900095E07003022D59C390D6
:102CCA00020CE094E890020BE094035003022D59A1
:102CDA008074E4FFFE7DA07C4190002EE0F8A3E022
:102CEA00F9A3E0FAA3E0FB120106900032E0F8A390
:102CFA00E0F9A3E0FAA3E0FB12001590008CE0F8DB
:102D0A00A3E0F9A3E0FAA3E0FB1202AC402390008F
:102D1A0092E0701D90008BE0600990009E7401F0B3
:102D2A0043902090020BE4F0A304F090009EF08000
:102D3A001E900095E06018C390020CE094E890029F
:102D4A000BE094034009E490009EF05390DFF07F7B
:022D5A00002255
:101EC50090023012091400000000900054E0FCE478
:101ED5001203239002111209087F007E007D207CE9
:101EE50041123984C004C005C006C007900057E000
:101EF500FCA3E0FDE412031ED003D002D001D00004
:101F050012020FE4FBFA79107841120106C004C0F1
:101F150005C006C007900052E0FCA3E0FDE41203F3
:101F25001ED003D002D001D0001200159002341249
:101F35000908900036E0F8A3E0F9A3E0FAA3E0FB76
:101F450090000EE0FCA3E0FDA3E0FEA3E0FF12007D
:101F550011900230120908900012E0FCA3E0FDA3E5
:101F6500E0FEA3E0FF900230E0F8A3E0F9A3E0FA79
:101F7500A3E0FB1202AC60025026900234E0FCA301
:101F8500E0FDA3E0FEA3E0FF90000AE0F8A3E0F97E
:101F9500A3E0FAA3E0FB1202AC6002500302209119
:101FA5009000A4E0600302209190009AE0701390E5
:101FB5000068E004F07006900067E004F07F061208
:101FC500282A90009A7401F0120000E4FD7F0612A1
:101FD50040927BFF7A4379F1E4FD123F8490006AD9
:101FE500E07BFFB401117A4379F87D01123F847BD0
:101FF500FF7A4379FE800F7A4479047D01123F848C
:102005007BFF7A4379AC7D02123F84900205E4F0B0
:10201500A304F0C3900206E094C8900205E0940082
:10202500500B75AA0575AA0A75A91F80E69000369A
:10203500E0F8A3E0F9A3E0FAA3E0FB90000EE0FCD2
:10204500A3E0FDA3E0FEA3E0FF12001190003EE037
:10205500F8A3E0F9A3E0FAA3E0FB1202AC40030207
:10206500221C900036E0F8A3E0F9A3E0FAA3E0FB18
:1020750090000EE0FCA3E0FDA3E0FEA3E0FF12004C
:102085001190003E1209087F0602282AE490009A62
:10209500F090000AE0FCA3E0FDA3E0FEA3E0FF90C2
:1020A5000054E09000D1F0A37401F0123E65900059
:1020B50099E07047FFFEFDFC90000AE0F8A3E0F907
:1020C500A3E0FAA3E0FB1202AC7030FFFEFDFC902A
:1020D5000000E0F8A3E0F9A3E0FAA3E0FB1202ACEC
:1020E5006019401790001612091400000000E490D2
:1020F5000072F09000A3F0900072F090000AE0FCEE
:10210500A3E0FDA3E0FEA3E0FF900000120908E4B0
:10211500FFFEFDFC90000AE0F8A3E0F9A3E0FAA3B6
:10212500E0FB1202AC700E900099E070089000B3CD
:10213500E0700204F0900071E0FBC3940390001678
:10214500E0FCA3E0FDA3E0FEA3E0FF50069000D174
:10215500EB8007900072E09000D1F0A37402F012BA
:102165003E6590000AE0FCA3E0FDA3E0FEA3E0FFCE
:10217500900016E0F8A3E0F9A3E0FAA3E0FB120152
:102185000690001A12090890006CE0FCE412032383
:102195009002111209087F007E007D207C411239D2
:1021A50084A804A905AA06AB077FF07E237D747C6D
:1021B5004912020F90001AE0F8A3E0F9A3E0FAA390
:1021C500E0FB1202AC600D400B7BFF7A44790AE418
:1021D500FD023F84E4FFFEFDFC90001AE0F8A3E059
:1021E500F9A3E0FAA3E0FB1202AC601D401B9000CE
:1021F5001AE0FCA3E0FDA3E0FEA3E0FF90006CE085
:102205009000D1F0E4A3F0800BE49000D1F0A3F0AE
:07221500FFFEFDFC123E6517
:01221C00229F
:104286009000A97401F0E490009AF0900097E06421
:1042960001706790001EE0FCA3E0FDA3E0FEA3E032
:1042A600FF1213E0C004C005C006C007E4FFFE7D90
:1042B600807CBF90000AE0F8A3E0F9A3E0FAA3E04F
:1042C600FB120106A804A905AA06AB07D007D0066B
:1042D600D005D0041202AC6002501F90000AE0FC28
:1042E600A3E0FDA3E0FEA3E0FF900054E09000D120
:1042F600F0A37401F0123E65800B7BFF7A4379D1FF
:104306007D01123F84900099E060087BFF7A447932
:104316000A801F90001612091400000000E49000A5
:1043260072F090001A120914000000007BFF7A4414
:104336007911E4FD123F84900071E0FBC394039071
:104346000016E0FCA3E0FDA3E0FEA3E0FF5006900C
:1043560000D1EB8007900072E09000D1F0A37402C8
:0B436600F0123E65E4FD7F0202409271
:10334A00E490024EF0A3F0900099E090024F6005DD
:10335A007403F080037401F0E490024EF090024F7F
:10336A00E0FF90024EE0FEC3EF6480F8EE648098BE
:10337A0050137F01123AEA90000612090890024E91
:10338A00E004F080D89000AFE0640160079000AEDE
:10339A00E0B4010B7BFF7A4479187D01023F8490E7
:1033AA000073E0B4010C900097E0700690000612DA
:1033BA003800900006E0FCA3E0FDA3E0FEA3E0FFD6
:1033CA0090000E120908900006E0FCA3E0FDA3E0BD
:1033DA00FEA3E0FF90008C120908900006E0FCA30F
:1033EA00E0FDA3E0FEA3E0FF900032E0F8A3E0F9DD
:1033FA00A3E0FAA3E0FB120011900006120908905C
:10340A000006E0FCA3E0FDA3E0FEA3E0FF9000229B
:10341A001209089000A5E0B4010590000E805090B2
:10342A000097E0B40146900006E0FCA3E0FDA3E0AB
:10343A00FEA3E0FF90008C120908900006E0FCA3AE
:10344A00E0FDA3E0FEA3E0FF90001EE0F8A3E0F990
:10345A00A3E0FAA3E0FB12001190000612090890FB
:10346A00009AE070077D017F03124092900006E007
:10347A00FCA3E0FDA3E0FEA3E0FF1213E090000628
:10348A00120908E4FFFEFDFC900006E0F8A3E0F94B
:10349A00A3E0FAA3E0FB1202AC500D9000A5E07085
:1034AA000790009B04F0801CE4FFFEFDFC900006E0
:1034BA00E0F8A3E0F9A3E0FAA3E0FB1202AC70047F
:1034CA0090009BF0900006E0FCA3E0FDA3E0FEA3C1
:0634DA00E0FFA312090847
:0134E00022C9
:1013AF0090002EE4FFFE7D407C40E0F8A3E0F9A31F
:1013BF00E0FAA3E0FB120106A804A905AA06AB07F1
:1013CF0090001EE0FCA3E0FDA3E0FEA3E0FF1200EF
:0113DF0011FC
:0613E00090018B120908C8
:1013E60090018F1209140000000090019312091455
:1013F60000000000900197120914000000009001FF
:101406009B1209140000000090019F1209140000AD
:101416000000E49001A3F0FFFEFDFC90018BE0F8D4
:10142600A3E0F9A3E0FAA3E0FB1202AC502490017A
:10143600A37401F090018BE0FCA3E0FDA3E0FEA302
:10144600E0FFE4FBFA798078BF12010690018B1267
:101456000908900069E07050900054E0FCE4120323
:10146600239002111209087F007E007D207C411224
:101476003984C004C005C006C007900057E0FCA32D
:10148600E0FDE412031ED003D002D001D000120208
:101496000F90019F12090890002EE0F8A3E0F9A32F
:1014A600E0FAA3E0FB02169A7FCD7ECC7DCC7C3D94
:1014B60090002AE0F8A3E0F9A3E0FAA3E0FB12010A
:1014C6000690018BE0F8A3E0F9A3E0FAA3E0FB1293
:1014D60002AC6005400302158390018F12091400C7
:1014E600000000900057E0FCA3E0FDE412031EC0DC
:1014F60004C005C006C00790005BE0FCA3E0FDE465
:1015060012031ED003D002D001D00012020F9001A8
:101516008F120908900054E0FCE412032390021194
:101526001209087F007E007D207C41123984C004A8
:10153600C005C006C00790005BE0FCA3E0FDE41216
:10154600031ED003D002D001D00012020F90019FDB
:1015560012090890018FE0FCA3E0FDA3E0FEA3E0E2
:10156600FF90002EE0F8A3E0F9A3E0FAA3E0FB1257
:101576000106A804A905AA06AB0702169A7FCD7E26
:10158600CC7D4C7C3E90002AE0F8A3E0F9A3E0FA7B
:10159600A3E0FB12010690018BE0F8A3E0F9A3E0BB
:1015A600FAA3E0FB1202AC6005400302164D900060
:1015B60057E0FCA3E0FDE412031EC004C005C0060C
:1015C600C007900059E0FCA3E0FDE412031ED0031F
:1015D600D002D001D00012020F90018F120908909C
:1015E6000054E0FCE41203239002111209087F0064
:1015F6007E007D207C41123984C004C005C006C02F
:1016060007900059E0FCA3E0FDE412031ED003D0CE
:1016160002D001D00012020F90019F12090890011A
:101626008FE0FCA3E0FDA3E0FEA3E0FF90002EE028
:10163600F8A3E0F9A3E0FAA3E0FB120106A804A9C7
:1016460005AA06AB07804D900054E0FCE412032384
:101656009002111209087F007E007D207C4112391C
:1016660084C004C005C006C007900057E0FCA3E094
:10167600FDE412031ED003D002D001D00012020FE7
:1016860090019F12090890002EE0F8A3E0F9A3E06C
:10169600FAA3E0FB90018BE0FCA3E0FDA3E0FEA330
:1016A600E0FF12020F900197120908900197E0FCE3
:1016B600A3E0FDA3E0FEA3E0FF12035790019B12F7
:1016C6000908900197E0FCA3E0FDA3E0FEA3E0FF7C
:1016D600C004C005C006C007A3E0FCA3E0FDA3E06C
:1016E600FEA3E0FFEC120319A804A905AA06AB079E
:1016F600D007D006D005D004120011900197120928
:101706000890019BE0F8A3E0F9A3E0FAA3E0FBC090
:1017160000C001C002C003E4FFFEFD7C40900197BB
:10172600E0F8A3E0F9A3E0FAA3E0FB120106120336
:1017360057D003D002D001D000EB2FFFEA3EFEE9DE
:101746003DFDE83CFC90019B12090890019BE0FCE2
:10175600A3E0FDA3E0FEA3E0FFEC12031990019FB6
:10176600E0F8A3E0F9A3E0FAA3E0FB12010690017A
:10177600931209089001A3E0601E900193E0FCA378
:10178600E0FDA3E0FEA3E0FFE4FBFA798078BF1258
:101796000106900193120908900193E0FCA3E0FD75
:0617A600A3E0FEA3E0FF3A
:0117AC00221A
:1017AD0090010B1209140000000090010F12091492
:1017BD000000000090011312091400000000E490D5
:1017CD000117F0A3F0A304F0782A7C01FD7BFF7ACA
:1017DD004479307E007F061206D278307C017D017F
:1017ED007BFF7A4479367E007F071206D2E49001A2
:1017FD0037F0A3F0A3F0781A7C017D017BFF7A44CA
:10180D00791E120A5790002EE0FCA3E0FDA3E0FE26
:10181D00A3E0FF1213E0900113120908900207E4F0
:10182D00F0A304F0E4900117F0A3F0900117E0FE8F
:10183D00A3E0FFC3940BEE648094805061C3EF94DA
:10184D0005EE648094805019900117A3E0241AF5D9
:10185D008274013EF583E0FD742A2FF582740180B8
:10186D0028C3900118E0940B900117E064809480D8
:10187D00501CE0FEA3E0FF241AF58274013EF583AF
:10188D00E0FD742B2FF58274013EF583EDF0900190
:10189D0018E004F07095900117E004F0808DE4904D
:1018AD00009EF05390DFFD7F061240927BFF7A433E
:1018BD0079D17D02123F847BFF7A44790AE4FD12CF
:1018CD003F84E49000D1F0A304F07F007E007D0002
:1018DD007C00123E65900119E07003021B3F9000E1
:1018ED0090E07007900119F0021B14C3900208E0FC
:1018FD0094F4900207E094014003021B06E4FF12EA
:10190D003AEA90010B120908900073E0B4010C90B3
:10191D000097E0700690010B12380090010BE0FC6F
:10192D00A3E0FDA3E0FEA3E0FF90000E12090890D6
:10193D00010BE0FCA3E0FDA3E0FEA3E0FF9000326D
:10194D00E0F8A3E0F9A3E0FAA3E0FB120011900187
:10195D000B12090890010BE0FCA3E0FDA3E0FEA330
:10196D00E0FFA312090890010BE0FCA3E0FDA3E04A
:10197D00FEA3E0FF1213E090010B12090890011372
:10198D00E0FCA3E0FDA3E0FEA3E0FF90010BE0F877
:10199D00A3E0F9A3E0FAA3E0FB1202AC502BE4FFA5
:1019AD00FE7D807CBF900113E0F8A3E0F9A3E0FA7F
:1019BD00A3E0FB12010690010BE0F8A3E0F9A3E010
:1019CD00FAA3E0FB1202AC5007E4900119F0800E6F
:1019DD00120003EF6008E4900119F0124F0190011D
:1019ED0019E07003021B14120000900139EFF06032
:1019FD00051200008005E4900119F0900093E0605D
:101A0D0003021AFC90011AE0900137F0E4900117DF
:101A1D00F0A3F0900117E0FEA3E0FF241BF5827404
:101A2D00013EF583E0FD741A2FF58274013EF583B6
:101A3D00EDF0900118E004F07006900117E004F04D
:101A4D00900117E07004A3E0640E70C7900137E0B9
:101A5D00900124F0E4900117F0A3F0900117E0FE3F
:101A6D00A3E0FFC3940BEE648094805061C3EF94A8
:101A7D0005EE648094805019900117A3E0241AF5A7
:101A8D008274013EF583E0FD742A2FF58274018086
:101A9D0028C3900118E0940B900117E064809480A6
:101AAD00501CE0FEA3E0FF241AF58274013EF5837D
:101ABD00E0FD742B2FF58274013EF583EDF090015E
:101ACD0018E004F07095900117E004F0808D7BFF15
:101ADD007A44792A7D01123F847B017A01792A7D2E
:101AED0002123F847B017A017930E4FD123F84902C
:101AFD000207E4F0A304F0800E120003EF6008E487
:101B0D00900119F0124F01900090E07004900119AE
:101B1D00F09000A0E0640160030218E2900075E00F
:101B2D00640160030218E2900090F0900119F00238
:101B3D0018E290009EE0600F90008BE0600990002D
:101B4D009E7401F043902090010FE0FCA3E0FDA3F3
:051B5D00E0FEA3E0FF23
:011B62002260
:10000E000203C3E86480F8E933E83360110460F05A
:10001E00ED33EC337009E8FCE9FDEAFEEBFF220458
:10002E0060DED3EB9FEA9EE99DE8C2E78CF0C2F753
:10003E0095F0400CE8CCF8E9CDF9EACEFAEBCFFB1F
:10004E0012038E85D0F05804700320D5B3E80470E7
:10005E00075002B2D50203CD92D5EC0460F7E4CC82
:10006E00C0E0C398F8603B94186008400DD0E0FBE8
:10007E000203A5E4FBFAC9FC8028E830E406E4C9D3
:10008E00FBE4CAFCE830E305E4C9CACBFCE854073C
:10009E006010F8C3E913F9EA13FAEB13FBEC13FC47
:1000AE00D8F130F52FC3E49CFCEF9BFFEE9AFEEDEA
:1000BE0099FDD0E0FBEF4E4D4C701222DB03020394
:1000CE00CAEC2CFCEF33FFEE33FEED33FDED30E7E3
:1000DE00EB0203A5EF2BFFEE3AFEED39FDD0E0FB70
:1000EE0050130BBB00030203CDED13FDEE13FEEF19
:0800FE0013FFEC13FC0203A543
:10010600EC4D6011E8497017ED33EC3304600DE4F3
:10011600FCFFFEFD22E933E8330470F80203C31244
:10012600038E58046009E4CC248150062850090245
:1001360003CD2840030203CAC0E0EB4A7044B980ED
:1001460006D0E0FB0203B9EF4E701CBD8008EBFF42
:10015600EAFEE9FD80EBE98DF0A4FEE5F00201EF91
:10016600E9CDF9EAFEEBFFEF89F0A4FCE5F0CE89D4
:10017600F0A42EFFE435F0CD89F0A42DFEE435F091
:100186008067EF4E7005BD80D780C3EF8BF0A4ACBF
:10019600F0EE8BF0A42CFCE435F0F8EF8AF0A42CFA
:1001A600E5F038FCE433CB8DF0A42CFCE5F03BF80D
:1001B600EE8AF0A42CFCE5F038F8E433CF89F0A4FD
:1001C6002CFCE5F038CF3400CE89F0A42FFFE5F003
:1001D6003EFEE433C98DF0A42EFEE5F039CD8AF05B
:1001E600A42FFFE5F03EFEE43DFD33D0E0FB5007D3
:1001F6000BBB000F0203CDEC2CFCEF33FFEE33FEFE
:06020600ED33FD0203A52B
:10020C000203CDEC5D046005E8590470030203C3DE
:10021C0012038E580460F6EC4860F2EC7004FDFE9C
:10022C00FF22C860DB2481C85009C39860025006C5
:10023C000203CA9850CAF582E9294B4A7005AB8271
:10024C000203B975F0007C1A7880C3EF9BEE9AED2F
:10025C0099400DC3EF9BFFEE9AFEED99FDE842F03D
:10026C00DC23ACF0D0E0FFD0E0FED0E0FDAB822090
:10027C00E7101BEB60BAEC2CFCEF33FFEE33FEED1A
:10028C0033FD0203A5E803F830E705C0F075F00074
:10029C00EF2FFFEE33FEED33FD40B830E7C280AAFE
:1002AC0074F8CC6480CCC86480C8F582046043C305
:1002BC00EB9FF5F0EA9E42F0E99D42F0E89C45F098
:1002CC0060305018E5825FFFE582F42B5582FB50BD
:1002DC00210ABA001D09B90019088016E5825BFBDA
:1002EC00E582F42F5582FF50090EBE00050DBD00AE
:1002FC00010CC3EB9FF5F0EA9E42F0E99D42F0E859
:0D030C009C45F06007CC4820E701B3EC22CF
:1003190075F020800E75F010800575F0087D007E5F
:10032900007F003392D530D503120820EC334010FA
:10033900EF33FFEE33FEED33FDEC33FCD5F0ED2268
:0E034900E5F0247EA2D513CC92E7CDCEFF22A4
:10035700EDD2E7CD33EC3392D524814006E4FFFE9E
:10036700FDFC22FCE4CFCECDCC24E0501174FF80FD
:10037700EDC3CC13CCCD13CDCE13CECF13CF04709A
:07038700F030D5DE02082072
:100ADC00E50824DEF582E43400F583E00508229075
:100AEC0000DB3007039000DEE475F00112094502CB
:100AFC0006F82000E97F2ED2008018EF540F2490C6
:100B0C00D43440D4FF30040BEF24BFB41A0050038C
:100B1C002461FFE50960021509050CE50C7002055E
:100B2C000B30070E9000DBE475F001120945EF0263
:100B3C00073E024DB77403D2078003E4C207F508E1
:100B4C009000DB12095CE4F509F50BF50CE5096086
:100B5C00077F20120B1F80F5750AFFC201C200C26D
:100B6C0002C203C205C206C208120AEBFF700D30A6
:100B7C0007057F00120B30AF0CAE0B22B4255FC201
:100B8C00D5C204120AEBFF24D0B40A00501A75F037
:100B9C000A780930D50508B6FF0106C6A426F6204A
:100BAC00D5047002D20380D924CFB41A00EF5004BC
:100BBC00C2E5D204020E22D20180C6D20080C0D27D
:100BCC000280BCD2D580BAD20580B47F20120B1F14
:100BDC002002077401B5090040F1120ADCFF120B68
:100BEC001F020B59D208D2068095120ADCFB120A9E
:100BFC00DCFA120ADCF94A4B700679207A0F7BFF7B
:100C0C0020022EE509602A7E008E82758300120771
:100C1C001160060EEE650A70F0C2D5EBC0E0EAC0BA
:100C2C00E0E9C0E0EE120E83D0E0F9D0E0FAD0E0BB
:100C3C00FB1206F8FF60AAEBC0E0EAC0E0E9C0E0F6
:100C4C00120B1FD0E02401F9D0E03400FAD0E0FB05
:100C5C00E50A0460DCD50AD98087D20280A2120E84
:100C6C006560F7E50A700104120403A90A600DE53A
:100C7C000A600914F50A120F0DEF60F3EA30E7026F
:100C8C00F404C3995079EAF4250A0430E701E4042A
:100C9C00F50A800D120E6560C1EA050A250A1204D8
:100CAC0003EA90010AF030E701E4250A04D50A04AE
:100CBC0020050114120E83E4C0E0120F0D90010AFE
:100CCC00E0601320E70714F0120B07802204F0D029
:100CDC00E014C0E07F00120B07E50A6007120AFE61
:100CEC00150A800B300503120AFED0E0020B59D016
:100CFC00E00480C4120E65609EE50A0412040390A1
:100D0C00010AEAF0E50A2005026001042404120E2F
:010D1C008353
:100D1D0074FF04C0E0120F0D120B07E50A20050247
:100D2D006003120AFED0E0B50AE87F45120B119060
:100D3D00010AE07F2B30E7047F2DF404C0E0120B95
:100D4D001FD0E075F00A84C0F0120B08D0E0120B32
:100D5D0008020B59791080027908C206C208800872
:100D6D00D2D5790A8004790AC2D5E50A047002F554
:100D7D000AE4FAFDFEFF120ADCFC7B0820011312C7
:100D8D000ADCFD7B1030000A120ADCFE120ADCFFC1
:100D9D007B20EC3382D592D55013C3E43000069FEF
:100DAD00FFE49EFEE42001039DFDE49CFCE4CBF8F2
:100DBD00C201EC700CCFCECDCCE824F8F870F380E6
:100DCD0017C3EF33FFEE33FEED33FDEC33FCEB33A6
:100DDD00FB994002FB0FD8E9EB300105F8D0E0C4D8
:100DED0048B201C0E00AEC4D4E4F78207B0070C236
:100DFD00EAB50A0040BCC0E0120E85D0F0D0E0206C
:100E0D000104C4C0E0C4B201C0F0120B08D0F0D58B
:100E1D00F0EB020B591209650BF6530D61580BC718
:100E2D004C0BC3420D654F0D6D440D6D490BDC43ED
:100E3D000D73550CA0460D00450C6A470F40500B25
:100E4D00CB2D0BCF2E0BF22B0BD3230BF0200F2919
:100E5D002A0B8B4800000BEAE50AB4FF03750A065E
:100E6D00120ADCFC120ADCFD120ADCFE120ADCFF9F
:100E7D00900103020440790AA2D52003143005091C
:100E8D00B910020404B9080104A2D52006025001CC
:100E9D00042002689202B509005034C0E07F203072
:100EAD0003197F30A20272067205500F120EDCC2BA
:100EBD0002C206C205C2087F30800F300503E9C0AB
:100ECD00E0120B1F300503D0E0F9D0E0B509CC30AE
:100EDD0005177F30B9100C120B1F7F583004077F98
:100EED00788003B90803120B1F3002057F2D020B0A
:100EFD001F7F202008F87F2B2006F322920280CF3F
:100F0D007F00B40700500B2403F582E43401F58310
:100F1D00E0FF22286E756C6C2900D201120ADC30BC
:100F2D0001F8C201780930D50108F6020B8B2D505E
:100F3D00434958120ADC2403B405004001E4900F24
:100F4D003B93120B10743A120B10D2037509040265
:020F5D000D6124
:1039840090020D120908E4FFFE7D807C3F90020D39
:10399400E0F8A3E0F9A3E0FAA3E0FB1202AC70069E
:1039A40090020D023ADE90020DE0FCA3E0FDA3E0DC
:1039B400FEA3E0FF1203D8FBA3E0FCA3E0FDA3E019
:1039C400FEA3E0FF1203D8FFB40108E4FFFE7D80EC
:1039D4007C3F22EF64046029EB64046024EBB401AF
:1039E40030E4FFFEFDFC900211E0F8A3E0F9A3E04F
:1039F400FAA3E0FB1202AC60084006E4FFFEFDFC03
:103A040022900211120914FFFFFFFF900211023AE3
:103A1400DEE4900215F0A3F0FFFEFDFC90020DE041
:103A2400F8A3E0F9A3E0FAA3E0FB1202AC505F9024
:103A34000211E0FCA3E0FDA3E0FEA3E0FF120357A4
:103A4400900215EEF0A3EFF0FDCCEECCEC12031EC9
:103A5400C8ECC8C9EDC9CAEECACBEFCB900211E0DD
:103A6400FCA3E0FDA3E0FEA3E0FF120011E4FBFAD7
:103A7400F9F81202AC708A90020DE0FCA3E0FDA3F9
:103A8400E0FEA3E0FF1203F290020D120908900277
:103A94000DE0FCA3E0FDA3E0FEA3E0FF123C4E908A
:103AA4000211E0F8A3E0F9A3E0FAA3E0FB12010697
:103AB400124713900211120908900216E030E01721
:103AC400900211E0FCA3E0FDA3E0FEA3E0FF1203DB
:103AD400F2900211120908900211E0FCA3E0FDA388
:063AE400E0FEA3E0FF225A
:10038E00E9D2E7C933E833F892D5EDD2E7CD33ECB5
:07039E0033FC5002B2D5222E
:1003A500EC30E7100FBF000C0EBE00080DBD0004B9
:1003B5000BEB6014A2D5EB13FCED92E7FD2274FF65
:1003C500FCFDFEFF22E480F8A2D574FF13FC7D80BE
:0303D500E480EFD2
:1003D800ED33EC33601004700FED547F7005740238
:0A03E80092E0227404220422E422B1
:1003F200ED33EC33600A047003BD8004ECB2E7FC19
:0104020022D7
:10040300F920E73624F950037907E4F42402FBE5E5
:1004130082158270021583DBF6E024FB501BE96032
:1004230014E4F0E582158270021583E004F0B40A47
:0D04330008E4F0D9EE7401F00A22C2D522CF
:10044000ED33EC3392D5FA602AB4FF33EDC2E77B8B
:10045000FF60067A047965E4227A04796E20D50477
:100460007A047969224E614E002B494E46002D498F
:100470004E4600E47A08F0A3DAFC7B00740722C041
:1004800083C082ECC0E0EDC0E0EEC0E0EFC0E0EA87
:1004900075F010A4CAABF075F04DA42BFBE435F059
:1004A000FCEA2410FAEB34C5FBEC34D9FCEDC2E7CE
:1004B000FF75F056A4F42411C5F0F434C58FF0A4F0
:1004C0002AE5F03BE43CF020E714120575D0E0FF8C
:1004D000D0E0FED0E0FDD0E0FC12020F8014F40466
:1004E000120575D0E0FFD0E0FED0E0FDD0E0FC12B8
:1004F0000106D082D083E0FAEDD2E7CD33EC33248D
:1005000082FBE4C3CF33CFCE33CECD33CD33DBF359
:100510007B0775F00A846004F0A31B0AE5F0F0A3E2
:100520008FF0740AA4FFACF08EF0740AA42CFEAC19
:10053000F050010C8DF0740AA42CFDE435F0F0A30A
:05054000DBDE74072260
:1046DB0033DA929E35B16011377FE5FE392184893B
:1046EB003AAEC3FF3C1D955B3D6358473E75FDF0ED
:1046FB003F3172183F800000C2D50203CD0203C3C5
:10470B00BD80FA50F30203CAED33EC330460F17B46
:10471B003B7AAA79B8783F120106ED33EC3392D588
:10472B00247B5011A2D570DB500BED448024045038
:10473B0004A2D580CEEFFBEEFAEDF9ECF81203579D
:10474B00EFF582F404FC120323120015C08290468D
:10475B00DB74091205C4ED33CC33D0F092D525F0C0
:0A476B00A2D57001C313CC13FD2288
:103C1A003E9248DA3ECCCCCD3F2AAAAB4000000007
:103C2A003F8000003F9837F03FB504F33FD744FC8C
:103C3A003E3172173EB172173F0515913EDE5BD9D0
:103C4A00D2098002C209EDD2E7F8CD33EC33047011
:103C5A000BBD800592D50203CD0203C340FBD314EA
:103C6A0060F2F5F07C3FEE7A00C39496C8948B40DC
:103C7A00230AC89469C8941A401A0AC89468C8944E
:103C8A001F40110AC8945AC89425400805F07A00C2
:103C9A00CDC2E7CDC0F0900248120908EA2323C03A
:103CAA00E0242AF582E4343CF5831208F812001560
:103CBA00ECC0E0EDC0E0EEC0E0EFC0E01208DC903E
:103CCA0002481208EC120011D0E0FBD0E0FAD0E072
:103CDA00F9D0E0B2E7F812020F90024812090890F0
:103CEA003C1A74031205B59002481208EC12010638
:103CFA00D0E0600F2436F582E4343CF5831208F8EC
:103D0A00120015900248120908D0E0C3947FFDE41E
:103D1A009400FC12031E7B187A727931783F1201E3
:103D2A00069002481208EC12001530090B7BD97A6A
:093D3A005B79DE783E12010622DD
:100545003F8000004120000042C80000447A0000BE
:10055500461C400047C35000497424004B18968040
:100565004CBEBC205A0E1BCA6753C21C749DC5AE37
:10057500FB60065407601C23231205A3EB54386067
:100585000912058F12059E120106ECF8EDF9EEFA37
:10059500EFCB22EB12059E80F1543803241C900505
:1005A50045FE93FC0EEE93FD0EEE930ECE93FF22C9
:1005B500C0E0EFFBEEFAEDF9ECF8120106D0E0F53C
:1005C500F0EFFBEEFAEDF9ECF81208DCA3A3A3A318
:1005D500E8C0E0E9C0E0EAC0E0EBC0E0C0F012012D
:1005E500061208F8A3A3A3A3120015D0F0D0E0FBD0
:0D05F500D0E0FAD0E0F9D0E0F8D5F0D42243
:030000000247753F
:0C477500787FE4F6D8FD7581210247BC76
:10060200E709F608DFFA8046E709F208DFFA803EDA
:1006120088828C83E709F0A3DFFA8032E309F608C7
:10062200DFFA8078E309F208DFFA807088828C832F
:10063200E309F0A3DFFA806489828A83E0A3F608E3
:10064200DFFA805889828A83E0A3F208DFFA804CBD
:1006520080D280FA80C680D4806980F28033801094
:1006620080A680EA809A80A880DA80E280CA8033FD
:1006720089828A83ECFAE493A3C8C582C8CCC58375
:10068200CCF0A3C8C582C8CCC583CCDFE9DEE78045
:100692000D89828A83E493A3F608DFF9ECFAA9F0C4
:1006A200EDFB2289828A83ECFAE0A3C8C582C8CC1A
:1006B200C583CCF0A3C8C582C8CCC583CCDFEADE33
:1006C200E880DB89828A83E493A3F208DFF980CC95
:1006D20088F0EF60010E4E60C388F0ED2402B4048E
:1006E2000050B9F582EB2402B4040050AF23234535
:0606F20082239006527302
:1006F800BB010689828A83E0225002E722BBFE0200
:09070800E32289828A83E4932232
:10071100BB010CE58229F582E5833AF583E022509D
:1007210006E92582F8E622BBFE06E92582F8E222E7
:0D073100E58229F582E5833AF583E4932201
:10073E00BB010689828A83F0225002F722BBFE019A
:02074E00F32294
:10075000BC000BBE0029EF8DF084FFADF022E4CC8D
:10076000F875F008EF2FFFEE33FEEC33FCEE9DEC56
:10077000984005FCEE9DFE0FD5F0E9E4CEFD22ED9C
:10078000F8F5F0EE8420D21CFEADF075F008EF2FE6
:10079000FFED33FD4007985006D5F0F222C398FDD7
:0507A0000FD5F0EA2274
:1007A500C5F0F8A3E028F0C5F0F8E58215827002DF
:0607B5001583E038F0227C
:1007BB00A3F8E0C5F025F0F0E582158270021583F1
:0607CB00E0C838F0E8224E
:1007D100E88FF0A4CC8BF0A42CFCE98EF0A42CFCC7
:1007E1008AF0EDA42CFCEA8EF0A4CDA8F08BF0A445
:1007F1002DCC3825F0FDE98FF0A42CCD35F0FCEBA4
:100801008EF0A4FEA9F0EB8FF0A4CFC5F02ECD3968
:0F081100FEE43CFCEAA42DCE35F0FDE43CFC22D5
:0E082000C3E49FFFE49EFEE49DFDE49CFC22E9
:10082E00EB9FF5F0EA9E42F0E99D42F0EC6480C841
:06083E0064809845F022E1
:10084400EB9FF5F0EA9E42F0E99D42F0E89C45F00A
:010854002281
:10085500E8600FECC313FCED13FDEE13FEEF13FF81
:03086500D8F122A5
:10086800BB010789828A83020AAC5005E9F8020AAB
:10087800A0BBFE05E9F8020AB889828A830208DC6F
:10088800BB010DE58229F582E5833AF583020AACBE
:100898005007E92582F8020AA0BBFE07E92582F87D
:1008A800020AB8E58229F582E5833AF5830208DC75
:1008B800BB010DE58229F582E5833AF58302090833
:1008C8005007E92582F8020AC4BBFE07E92582F829
:0408D800020AD0221E
:1008DC00E493FC740193FD740293FE740393FF2262
:0C08EC00E0F8A3E0F9A3E0FAA3E0FB228F
:1008F800E493F8740193F9740293FA740393FB2256
:0C090800ECF0A3EDF0A3EEF0A3EFF02262
:10091400A8828583F0D083D08212092B12092B126E
:10092400092B12092BE473E493A3C583C5F0C58393
:10093400C8C582C8F0A3C583C5F0C583C8C582C82D
:010944002290
:10094500F8E0FBA3A3E0F925F0F0E582158270023B
:070955001583E0FA38F022DF
:09095C00EBF0A3EAF0A3E9F0229C
:10096500D083D082F8E4937012740193700DA3A321
:1009750093F8740193F5828883E473740293686035
:06098500EFA3A3A380DF35
:104DB700EFB40A07740D124DC2740A309811A899FE
:104DC700B8130CC2983098FDA899C298B811F6305C
:074DD70099FDC299F5992234
:10098B00E709F60870FA8046E709F20870FA803E2C
:10099B0088828C83E709F0A370FA807EE309F6085E
:1009AB0070FA8076E309F20870FA806E88828C8385
:1009BB00E309F0A370FA806289828A83E0A3F608C8
:1009CB0070FA805689828A83E0A3F20870FA804A13
:1009DB0080D280FA80C680D4806580F2803180100E
:1009EB0080A680EA809A80A880DA80E280CA803173
:1009FB0089828A83ECFAE493A3C8C582C8CCC583E9
:100A0B00CCF0A3C8C582C8CCC583CC70E9800D8956
:100A1B00828A83E493A3F60870F9ECFAA9F0EDFB54
:100A2B002289828A83ECFAE0A3C8C582C8CCC5832D
:100A3B00CCF0A3C8C582C8CCC583CC70EA80DD8955
:100A4B00828A83E493A3F20870F980CE88F0ED24B8
:100A5B0002B4040050C4F582EB2402B4040050BA73
:090A6B0023234582239009DB736B
:100A7400EF4E6012EF60010EEDBB010B89828A8399
:100A8400F0A3DFFCDEFA2289F05007F709DFFCA9A6
:0C0A9400F022BBFEFCF309DFFCA9F022FD
:10478100024B20E493A3F8E493A34003F68001F2E3
:1047910008DFF48029E493A3F85407240CC8C33339
:1047A100C4540F4420C8834004F456800146F6DF08
:1047B100E4800B0102040810204080904A13E47E3B
:1047C100019360BCA3FF543F30E509541FFEE493FD
:1047D100A360010ECF54C025E060A840B8E493A3C4
:1047E100FAE493A3F8E493A3C8C582C8CAC583CAEF
:1047F100F0A3C8C582C8CAC583CADFE9DEE780BEA7
:014A6F000046
:0C0AA000E6FC08E6FD08E6FE08E6FF2282
:0C0AAC00E0FCA3E0FDA3E0FEA3E0FF22BD
:0C0AB800E2FC08E2FD08E2FE08E2FF227A
:0C0AC400ECF608EDF608EEF608EFF6225E
:0C0AD000ECF208EDF208EEF208EFF22262
:00000001FF
