:102285002D202D202D002D2D2D2D2D002D2D2D2DED
:102295002D2D002566000000000000000000000054
:101F470012232D1222F912239C1222C212234412A9
:101F57001E977BFF7A2279857D011213127BFF7A08
:101F670022798B7D021213127BFF7A227991E4FD8D
:101F77001213127FE87E031222631221BE1218EA9F
:101F8700E4FF1217FF90000012076643802080EDE0
:1022C2005390DF5390EF4394205395DFE4F59A75D2
:0C22D2009BA0759C6C759D50759E0422AD
:10232D00C2AF75AA0575AA0A75A91FD2AF75AA0500
:07233D0075AA0A75A91F2211
:1022F90075800C75904075A0117592F0E4F5937591
:0A23090094BFF5957596EEF5972246
:0A239C005392DF4393204380202278
:1023440075A88275B802E4F589F58A758C7F758E57
:05235400044388102283
:1022DE00E4FFFE75AB09E5AB20E20843AB04E5ABCA
:0A22EE0020E2FBAFAC7E0053ABF71B
:0122F80022C3
:03000B000219BD1A
:1019BD00C0E0C083C082C0D09000B7E0601290003C
:1019CD00CBE4F0A374C8F09000B87401F0A3E4F078
:1019DD009000C3E060159000CD740FF0A374A0F0DB
:1019ED009000C3E4F0A304F0A3E4F09000B8E0602D
:1019FD00369000B7E0B40105E4F0439010D39000A9
:101A0D00CCE094009000CBE064809480400EA3E085
:101A1D0024FFF09000CBE034FFF0800B9000B8E491
:101A2D00F0A304F05390EF9000C4E06025D3900034
:101A3D00CEE094009000CDE09400400EA3E024FF92
:101A4D00F09000CDE034FFF080089000C4E4F0A3E6
:101A5D0004F0758ACF758CB5438810D0D0D082D064
:041A6D0083D0E03210
:1010FE009000CF7474F0A3E4F078D57C007D017B72
:10110E00FF7A22799BFE7F0A1206239000DF1207D8
:10111E00723DF5C28FE49000E3F0A3F090014574A8
:10112E00AAF09001467455F0900102120772000069
:10113E0000009000CFE0FEA3E0FF121B249000D031
:10114E00E0240BFF9000CFE03400FEC006C00790F5
:10115E00010212077200000000D007D006121B24F5
:10116E009000E3E4F0A304F09000E3E0FEA3E0FFC0
:10117E00C3940BEE940050E8EF7802C333CE33CE17
:10118E00D8F9FF9000D0E02FFF9000CFE03EFEC0D8
:10119E0006C0079000DFE0FCA3E0FDA3E0FEA3E0A5
:1011AE00FF900102120766D007D006121B24900092
:1011BE00E3E0FEA3E07802C333CE33CED8F9FF903E
:1011CE0000D0E02FFF9000CFE03ECF24FCCF34FFC5
:1011DE00FE12202B9000D112076690008774FFF04C
:1011EE00A37422F0A37498F09000D1E0FCA3E0FD6C
:1011FE00A3E0FEA3E0FF90008A1207667B017A004F
:10120E0079D51208867B017A0079D57D01121312E9
:10121E009000E3E0FEA3E07802C333CE33CED8F9DC
:10122E00FF9000D0E02FFF9000CFE03EFE12202B6B
:10123E009000D112076690008774FFF0A37422F01D
:10124E00A37498F09000D1E0FCA3E0FDA3E0FEA310
:10125E00E0FF90008A1207667B017A0079D51208AA
:10126E00867B017A0079D5E4FD1213129000E3E03B
:10127E00FEA3E07802C333CE33CED8F9FF9000D070
:10128E00E02FFF9000CFE03ECF2404CF3400FE12BB
:10129E00202B9000D112076690008774FFF0A37484
:1012AE0022F0A37498F09000D1E0FCA3E0FDA3E03F
:1012BE00FEA3E0FF90008A1207667B017A0079D5C3
:1012CE001208867B017A0079D57D021213129000E6
:1012DE00DFE0FCA3E0FDA3E0FEA3E0FFE4FBFA7970
:1012EE0080783F1200159000DF1207667FE87E03BC
:1012FE001222639000E4E004F070069000E3E00434
:04130E00F002117662
:1021620025362E30660025352E306600464C4F410E
:10217200540025362E31660025372E32660025366C
:102182002E32660025372E33660025362E33660042
:10212A004A004C5F503D79726B6F517F735C006857
:10213A00776E0F7C2F276F76505C360E00645F3700
:0C214A0073246B2E5E4C0000723D2000E0
:09237D0053A0FB12238643A004C7
:07238600E4FF0FEFB405FBBB
:01238D00222D
:0222A500AE0782
:1022A700E4FDEE20E70553A0F7800343A0081223BF
:0A22B7007DEE25E0FE0DEDB408E811
:0122C10022FA
:101E970043A00243A00443A008122386122386E42A
:101EA700900056F0A304F0FDFB121C757403121C7E
:101EB7006D7428121C6D9000577429121C709000C5
:101EC700567401F07E007F107D00FB7A007958126E
:101ED70007F578097C007D017B017A0079567E0041
:081EE7007F12120623021C8485
:101C6D00900057F07D017B0178097C007A00795650
:071C7D007E007F1212062316
:101C8400E4FCFE43A00243A00443A00812238653AD
:101C9400A0FD12238612237D53A0F712237D90000A
:101CA40009E0700553A0F7800343A00812237D9038
:101CB4000009E0700BA3E0FF1222A512237D803FF0
:101CC400E4FEFC53A0FBEE20E70553A0F78003439A
:101CD400A008122380EE25E0FE0CECB406E5E4FC3B
:101CE400ECFFC3740F9FFFE49400FE740B2FF58286
:101CF40074003EF583E0FF1222A50CECB410E1431E
:0B1D0400A00243A00843A004022386B5
:1020EE009000567401F07E007F107D00FB7A00791F
:1020FE00581207F5121C71E4900056F0A3740212E8
:10210E001C70E4900057F078097C007D017B017A09
:0C211E00007956FE7F12120623021C847A
:1021BE009000567401F07E007F107D00FB7A00794E
:1021CE00581207F578097C007D017B017A0079565B
:0A21DE007E007F12120623021C840B
:1021E8009000567401F07E007F107DFFFB7A007925
:1021F800581207F578097C007D017B017A00795631
:0A2208007E007F12120623021C84E0
:0B20B100E0FFAD04900007E0FB14F01E
:1020BC00E4FEEDB40100EDB402027E0BED70027E85
:1020CC0005C374059B2EFE2458F582E43400F58379
:1020DC00E05480F074582EF582E43400F583E04F20
:0120EC00F003
:0120ED0022D0
:101A7100AC07ED7003021AF724FE60400460030214
:101A81001B21ECB40311EB900059B40106E0448032
:101A9100F08004E0547FF0ECB40211EB90005AB4F2
:101AA1000106E04480F08004E0547FF0EC640170B2
:101AB1006FEB90005BB40102805C8060ECB40311B9
:101AC100EB900064B40106E04480F08004E0547FB0
:101AD100F0ECB40211EB900065B40106E04480F033
:101AE1008004E0547FF0EC64017035EB900066B443
:101AF100010280228026ECB40211EB90005FB40158
:101B010006E04480F08004E0547FF0ECB40111EB76
:101B1100900060B40106E04480F08004E0547FF05E
:031B210002231389
:1016FE00EF24FEB4090040030217F690171775F099
:10170E0003A4C58325F0C5837302176F0217630206
:10171E00177A02178502179002173F02174B02170E
:10172E0057021732ED90005DB401030217C2021783
:10173E00F2ED900061B40102807A0217F2ED900092
:10174E005EB40102806E0217F2ED900062B40102E7
:10175E0080620217F2ED90005CB40102805602170F
:10176E00F2ED900058B40102804A8078ED90006747
:10177E00B40102803F806DED900063B401028034AD
:10178E008062ED640190005D7030E04480F0900066
:10179E0061E04480F090005EE04480F0900062E0F2
:1017AE004480F0900058E04480F0900063E0448064
:1017BE00F0900067E04480F0802EE0547FF09000BF
:1017CE0061E0547FF090005EE0547FF0900062E0A4
:1017DE00547FF0900058E0547FF0900063E0547F07
:1017EE00F0900067E0547FF09000567401F00223F1
:0117FE0013D7
:0615DF009000E512076612
:1015E5009000E9E0703BA3E0900087700C74FFF079
:1015F500A37421F0A37462800A74FFF0A37421F030
:10160500A37468F09000E5E0FCA3E0FDA3E0FEA371
:10161500E0FF90008A1207667B017A0079EB1208D9
:10162500869000E9E06401703CA3E0900087700DAE
:1016350074FFF0A37421F0A3746EF0801F74FFF0A3
:10164500A37421F0A37474F09000E5E0FCA3E0FD21
:10165500A3E0FEA3E0FF90008A1207667B017A00F3
:1016650079EB1208869000E9E06402703BA3E090F4
:101675000087700C74FFF0A37421F0A3747A800ABC
:1016850074FFF0A37421F0A37480F09000E5E0FCF2
:10169500A3E0FDA3E0FEA3E0FF90008A1207667BAE
:1016A500017A0079EB1208869000E9E06403703B4B
:1016B500A3E0900087700C74FFF0A37421F0A3746D
:1016C50086800A74FFF0A37421F0A3748CF0900057
:1016D500E5E0FCA3E0FDA3E0FEA3E0FF90008A1295
:1016E50007667B017A0079EB1208867B017A00791F
:0916F500EB9000EAE0FD02131283
:0D131200900004EBF0A3EAF0A3E9F0AC05B5
:10131F00A37405F0E4A3F0EC700C90005FE0547F31
:10132F00F0A3E0547FF0ECB40211900064E0547F1E
:10133F00F0A3E0547FF0A3E0547FF0ECB4011190E0
:10134F000059E0547FF0A3E0547FF0A3E0547FF006
:10135F00900004E0FBA3E0FAA3E0F9120649FF7046
:10136F0003021497C394304013EFD39439500D7484
:10137F001C2FF582E43400F5831220B1900004E0B5
:10138F00FBA3E0FAA3E0F9120649B42D0690008200
:10139F001220B1900004E0FBA3E0FAA3E0F91206DB
:1013AF0049B42012AD04900007E0FBE4FF1220BC0B
:1013BF00900007E014F0900004E0FBA3E0FAA3E034
:1013CF00F9120649FFC394414022EFD3945A501C9F
:1013DF0074272FF582E43400F583E0FFAD0490000D
:1013EF0007E0FB1220BC900007E014F0900004E02F
:1013FF00FBA3E0FAA3E0F9120649642E7077EC64C0
:10140F00027028900008E0FFB40207900064E044E7
:10141F0080F0EFB40307900065E04480F09000087F
:10142F00E0B40407900066E04480F0EC640170289B
:10143F00900008E0FFB40207900059E04480F0EFFD
:10144F00B4030790005AE04480F0900008E0B40421
:10145F000790005BE04480F0EC701A900008E0FF0A
:10146F00B40407900060E04480F0EFB403079000ED
:10147F005FE04480F0900008E004F0900005E47510
:10148F00F00112070802135F9000567401F0022357
:01149F001339
:102313009000567401F078097C00FDFB7A00795631
:0A2323007E007F12120623021C84C4
:042156004100B5008F
:10226300E4FDFCC3ED9FEC9E5017E4FB0BEBB4C302
:10227300FB75AA0575AA0A75A91F0DBD00010C807F
:01228300E278
:012284002237
:1018EA00E4FA9000B4F0D281D280D290D291D2920E
:1018FA00EA7002C281EAB40102C280EAB40202C2F8
:10190A0090EAB40302C291EAB40402C2927F017E51
:10191A000012226320820AEA25E025E0049000B43E
:10192A00F020A40BEA25E025E024029000B4F02080
:10193A00A00BEA25E025E024039000B4F020960BE2
:10194A00EA25E025E024049000B4F00AEA64057070
:10195A00959000B6E0FF700C9000B4E06006A374A6
:10196A0001F080319000B4E0FEB50709EE6006A3ED
:10197A007402F080209000B6E0600C9000B4E07031
:10198A0006A37403F0800E9000B6E070089000B4CD
:10199A00E07002A3F09000B4E09000B6F0600A9004
:1019AA0000B5E0B4010312238E75AA0575AA0A755B
:0219BA00A91F63
:0119BC002208
:0E238E009000B8E07007A3F09000B704F022B2
:0100060022D7
:030003007F002259
:10235900E4FA12238E7FFA7E001222630AEAB4039A
:01236900F182
:01236A002250
:10219200000000000000000000000000000000003D
:1021A200000000000000000000000000000000002D
:0C21B20000000000000000000000000021
:07215A004401380000000001
:060CA40090000912076632
:100CAA0090000E1207720000000078127C007D018D
:100CBA007BFF7A2179927E007F1412062378267CA4
:100CCA00007D017BFF7A2179A67E007F141206231C
:100CDA00E490003AF0A312077240886E5590003FE4
:100CEA0012077200000000900009E0FCA3E0FDA3D7
:100CFA00E0FEA3E0FFE4120213900045120766909B
:100D0A0000497405F0E4A3F0A3F09000437400F0E6
:100D1A00A37412F090003BE0FCA3E0FDA3E0FEA365
:100D2A00E0FF90000EE0F8A3E0F9A3E0FAA3E0FBED
:100D3A00120015900045E0F8A3E0F9A3E0FAA3E059
:100D4A00FB1201A66002503290003BE0F8A3E0F9E2
:100D5A00A3E0FAA3E0FB90000EE0FCA3E0FDA3E011
:100D6A00FEA3E0FF120011900045E0F8A3E0F9A30A
:100D7A00E0FAA3E0FB1201A6505790000DE0705173
:100D8A0090003AE0FF04F0EFD394024041E4F0907F
:100D9A00004AF0900049E014FFA3E0F9C39F400322
:100DAA00020EEA900045E0FCA3E0FDA3E0FEA3E00A
:100DBA00FF900043E0FAA3E0F5828A8375F004E924
:100DCA001207A312076690004AE004F080C50210D9
:100DDA00EF90000DE06401705190003AF090004AE3
:100DEA00F0900049E014FFA3E0C39F4003020EEA1B
:100DFA00900009E0FCA3E0FDA3E0FEA3E0FFE412FB
:100E0A000213900043E0FAA3E0F5828A83C083C00C
:100E1A008290004AE0D082D08375F0041207A312B0
:100E2A00076690004AE004F080B790000DE0640283
:100E3A00705690004AF0900049E014FFA3E0F9C30D
:100E4A009F4003020EEAE92401FFE433FEEF780231
:100E5A00C333CE33CED8F9FF900043E0FAA3E0FBC8
:100E6A002FF582EA3EF583E0FCA3E0FDA3E0FEA3B2
:100E7A00E0FF8B828A8375F004E91207A3120766E2
:100E8A0090004AE004F080AEE490003AF090004A04
:100E9A00F0900049E014FFA3E0F9C39F5042E9240F
:100EAA0001FFE433FEEF7802C333CE33CED8F9FF25
:100EBA00900043E0FAA3E0FB2FF582EA3EF583E0D7
:100ECA00FCA3E0FDA3E0FEA3E0FF8B828A8375F01A
:100EDA0004E91207A312076690004AE004F080B101
:100EEA00900045E0FCA3E0FDA3E0FEA3E0FFC00400
:100EFA00C005C006C007A3E024FFFFE434FFFEEFED
:100F0A007802C333CE33CED8F9FF900043E0FCA376
:100F1A00E02FF582EC3EF583D007D006D005D00449
:100F2A00120766E490004AF0900049E0FFA3E0FB54
:100F3A00C39F5036900043E0FEA3E0F5828E83758E
:100F4A00F004EB1207A3E0FCA3E0FDA3E0FEA3E09C
:100F5A00FFEB25E025E02426F582E43400F5831230
:100F6A00076690004AE004F080BEE490004AF090E0
:100F7A000049E014FFA3E0FEC39F400302105CEEA9
:100F8A0004A3F0900049E0FF90004BE0FEC39F40AD
:100F9A000302105390004AE025E025E02426F5825A
:100FAA00E43400F583E0F8A3E0F9A3E0FAA3E0FB58
:100FBA00EE25E025E02426F582E43400F583E0FC02
:100FCA00A3E0FDA3E0FEA3E0FF1201A66072407059
:100FDA0090004BE0FB25E025E02426F582E434006E
:100FEA00F583E0FCA3E0FDA3E0FEA3E0FF90003F51
:100FFA0012076690004AE0FA25E025E02426F582E9
:10100A00E43400F583E0FCA3E0FDA3E0FEA3E0FFE7
:10101A00EB25E025E02426F582E43400F583120767
:10102A006690003FE0FCA3E0FDA3E0FEA3E0FFEA38
:10103A0025E025E02426F582E43400F583120766CC
:10104A0090004BE004F0020F8D90004AE004F00299
:10105A000F7990000E1207720000000090004A7487
:10106A0001F0900049E014FFA3E0FEC39F503890BE
:10107A00000EE0F8A3E0F9A3E0FAA3E0FBEE25E016
:10108A0025E02426F582E43400F583E0FCA3E0FDA4
:10109A00A3E0FEA3E0FF12001590000E120766906F
:1010AA00004AE004F080BB90000EE0FCA3E0FDA340
:1010BA00E0FEA3E0FFC004C005C006C007900049D7
:1010CA00E024FEFDE434FFFCE4120218A804A9059A
:1010DA00AA06AB07D007D006D005D00412010990A2
:1010EA00000E12076690000EE0FCA3E0FDA3E0FEEE
:0310FA00A3E0FF71
:0110FD0022D0
:0517FF00900004EFF072
:10180400A3120772000000003083030218DB7B017F
:101814007A007905121F97900005E0FCA3E0FDA370
:10182400E0FEA3E0FF780712075390000512076655
:10183400E47FFF7EFFFDFC900005E0F8A3E0F9A340
:10184400E0FAA3E0FBC3120742606DE47FFF7EFF72
:10185400FDFC900005E0F8A3E0F9A3E0FAA3E0FBA7
:10186400D3120742900005E04032F8E49BFFE49A6B
:10187400FE740299FDE498FC90000512076690003E
:1018840005E0F8A3E0F9A3E0FAA3E0FBC374F49B3A
:10189400FF747E9AFEE499FDE4988015FCA3E0FDB4
:1018A400A3E0FEA3E024F4FFEE347EFEE43DFDE479
:1018B4003CFC900005120766900005E0FCA3E0FDE7
:1018C400A3E0FEA3E0FF900004E090000DF0120CF2
:1018D400A4900138120766900138E0FCA3E0FDA350
:0518E400E0FEA3E0FF9F
:0118E90022DC
:101F970078097C007D017BFF7A2179BA7E007F0476
:101FA700120623208337E4FFD284EF131313541F41
:101FB700FE240AF582E43400F583E025E0F0C284CC
:101FC700740A2EF582E43400F583E0FEA283E4333D
:0D1FD700FDEE4DF00FEFB418CFD284C284A0
:011FE40022DA
:0100070022D6
:0A236B00E475F00112071EAFF0FE4A
:072375008F828E83E493FFC9
:01237C00223E
:08207100900131EEF0A3EFF045
:102079009001357401F0A37401F0A37433F0E4FD09
:1020890090013112236B900135E0FBA3E475F00157
:1020990012071EA9F0FAEF12068F0DEDB402E190B6
:0720A9000133E0FEA3E0FF9C
:0120B000220D
:081FE50090010DEEF0A3EFF0F6
:101FED009001137401F0A37401F0A3740FF0E4FDDC
:101FFD0090010D12236B900113E0FBA3E475F0012A
:10200D0012071EA9F0FAEF12068F0DEDB404E19040
:0D201D00010FE0FCA3E0FDA3E0FEA3E0FF47
:01202A002293
:08202B00900116EEF0A3EFF0A6
:1020330090011C7401F0A37401F0A37418F0E4FD83
:1020430090011612236B90011CE0FBA3E475F001D1
:1020530012071EA9F0FAEF12068F0DEDB404E190FA
:0D2063000118E0FCA3E0FDA3E0FEA3E0FFF8
:01207000224D
:101E2500AFF0FEE0FBA3E475F00112071EA9F0FA7E
:041E3500120649FD4B
:101E3900E490013EF090013CEEF0A3EFF0A2AF92E6
:101E490009C2AF90013CE0F5C3A3E0F5C2AF058F2D
:101E5900C1E4F5C4F5C5F5C6900145E0B4AA08A3E7
:101E6900E0B4550375C70312000775C40575C50AA3
:101E790075C609900145E0B4AA08A3E0B4550375F5
:0D1E8900C703E4F5C4F5C5F5C6A20992AF84
:011E96002229
:10221200900141EDF090013FEEF0A3EFF012237533
:10222200EFF4600890013F7D011214A290013FE09B
:0A223200FEA3E0FFA3E0FD021E3949
:101D9B00900121ECF0A3EDF090011FEEF0A3EFF01A
:101DAB00122071900126EEF0A3EFF0900123740145
:101DBB00F0A37401F0A37426F0900123E0FBA3E4DD
:101DCB0075F00112071EA9F0FA120649B4FF16901E
:101DDB000123E0FBA3E475F00112071EA9F0FA1230
:101DEB000649F4600F90011FE0FEA3E0FF7D027C2B
:101DFB00001214A99001237401F0A37401F0A374D1
:101E0B0021F0E4FC90011FE475F00112071E900114
:091E1B0023121E250CECB402EBAD
:011E2400229B
:081BCA009000F3EEF0A3EFF030
:101BD200121FE59000FC1207669000F97401F0A351
:101BE2007400F0A374FCF09000F9E0FBA3E475F03C
:101BF2000112071EA9F0FA120649B4FF429000F939
:101C0200E0FBA3E475F00112071EA9F0FA120649DF
:101C1200B4FF2C9000F9E0FBA3E475F00112071E5B
:101C2200A9F0FA120649B4FF169000F9E0FBA3E40A
:101C320075F00112071EA9F0FA120649B4FF0690C8
:101C420000F31214A09000F97401F0A37400F0A341
:101C520074F5F0E4FC9000F3E475F00112071E90B5
:0A1C620000F9121E250CECB404EB8F
:011C6C002255
:081B2400900100EEF0A3EFF0C8
:101B2C0012202B9001091207669001067401F0A394
:101B3C007401F0A37409F0900106E0FBA3E475F0C6
:101B4C000112071EA9F0FA120649B4FF42900106D1
:101B5C00E0FBA3E475F00112071EA9F0FA12064986
:101B6C00B4FF2C900106E0FBA3E475F00112071EF4
:101B7C00A9F0FA120649B4FF16900106E0FBA3E4A3
:101B8C0075F00112071EA9F0FA120649B4FF06906F
:101B9C0001001214A09001067401F0A37401F0A3CB
:101BAC007402F0E4FC900100E475F00112071EAF22
:0D1BBC00F0FE900106121E280CECB404E8A7
:011BC90022F9
:101EEF00E4900142F0A3EEF0A3EFF0A2AF920AC28A
:101EFF00AF900143E0F5C3A3E0F5C2E4F5C4F5C527
:101F0F00F5C6900145E0B4AA08A3E0B4550375C720
:101F1F000312000775C40575C50A75C609900145FA
:101F2F00E0B4AA08A3E0B4550375C70CE4F5C4F5F3
:071F3F00C5F5C6A20A92AF2E
:011F46002278
:0914A0007D04E0FEA3E0FF7C00E6
:1014A90090012AECF0A3EDF0900128EEF0A3EFF003
:1014B900E490012CF0A3F0A3F0A37404F0A3E4F0EA
:1014C900FD7C041206B37D007C041206A1AA06ABBA
:1014D90007E490012DF0A3F090012DE0FEA3E0FFB9
:1014E900C3940AEE94005025E42FFFEE3468FE12EF
:1014F9002375EFF460077F007E68121EEF90012EBE
:10150900E004F070D390012DE004F080CBE4900169
:101519002DF0A3F090012FE0FEA3E0FF90012DE054
:10152900FCA3E0FDC39FEC9E5056ED2BFFEC3AFE69
:10153900900128E0B50617A3E0B50712A3E0FEA3C2
:10154900E0FF90012EE02FF090012DE03EF0900198
:101559002EE02BFF90012DE03AFE122375AD079086
:10156900012EE02400FF90012DE03468FE121E399F
:1015790090012EE004F0709C90012DE004F080941D
:10158900AF03AE02121EEFE490012DF0A3F090011B
:101599002FE0FEA3E0FF90012DE0FCA3E0FDC39F37
:1015A900EC9E502BE42DFFEC3468FE122375AD0739
:1015B90090012EE02BFF90012DE03AFE121E39908A
:1015C900012EE004F070C790012DE004F080BF7F88
:0615D900007E68021EEF17
:10000E00020286E86480F8E933E83360110460F098
:10001E00ED33EC337009E8FCE9FDEAFEEBFF220458
:10002E0060DED3EB9FEA9EE99DE8C2E78CF0C2F753
:10003E0095F0400CE8CCF8E9CDF9EACEFAEBCFFB1F
:10004E0012025185D0F05804700320D5B3E8047025
:10005E00075002B2D502029092D5EC0460F7E4CCC0
:10006E00C0E0C398F8603B94186008400DD0E0FBE8
:10007E00020268E4FBFAC9FC8028E830E406E4C911
:10008E00FBE4CAFCE830E305E4C9CACBFCE854073C
:10009E006010F8C3E913F9EA13FAEB13FBEC13FC47
:1000AE00D8F130F52FC3E49CFCEF9BFFEE9AFEEDEA
:1000BE0099FDD0E0FBEF4E4D4C701222DB03020295
:1000CE008DEC2CFCEF33FFEE33FEED33FDED30E720
:1000DE00EB020268EF2BFFEE3AFEED39FDD0E0FBAE
:1000EE0050130BBB0003020290ED13FDEE13FEEF57
:0800FE0013FFEC13FC02026881
:10010600020290EC5D046005E85904700302028661
:10011600120251580460F6EC4860F2EC7004FDFEE1
:10012600FF22C860DB2481C85009C39860025006CC
:1001360002028D9850CAF582E9294B4A7005AB82B6
:1001460002027C75F0007C1A7880C3EF9BEE9AED74
:1001560099400DC3EF9BFFEE9AFEED99FDE842F044
:10016600DC23ACF0D0E0FFD0E0FED0E0FDAB822097
:10017600E7101BEB60BAEC2CFCEF33FFEE33FEED21
:1001860033FD020268E803F830E705C0F075F000B9
:10019600EF2FFFEE33FEED33FD40B830E7C280AA05
:1001A60074F8CC6480CCC86480C8F582046043C30C
:1001B600EB9FF5F0EA9E42F0E99D42F0E89C45F09F
:1001C60060305018E5825FFFE582F42B5582FB50C4
:1001D600210ABA001D09B90019088016E5825BFBE1
:1001E600E582F42F5582FF50090EBE00050DBD00B5
:1001F600010CC3EB9FF5F0EA9E42F0E99D42F0E860
:0D0206009C45F06007CC4820E701B3EC22D6
:1002130075F020800E75F010800575F0087D007E66
:10022300007F003392D530D503120734EC334010EE
:10023300EF33FFEE33FEED33FDEC33FCD5F0ED226F
:0E024300E5F0247EA2D513CC92E7CDCEFF22AB
:10082100E5082487F582E43400F583E00508229089
:100831000084300703900087E475F0011207AF02CE
:1008410006492000E97F2ED2008018EF540F249032
:10085100D43440D4FF30040BEF24BFB41A0050034A
:100861002461FFE50960021509050CE50C7002051C
:100871000B30070E900084E475F0011207AFEF0210
:10088100068F02223C7403D2078003E4C207F508F5
:100891009000841207C6E4F509F50BF50CE5096033
:1008A100077F2012086480F5750AFFC201C200C2E9
:1008B10002C203C205C206C208120830FF700D3021
:1008C10007057F00120875AF0CAE0B22B4255FC27D
:1008D100D5C204120830FF24D0B40A00501A75F0B2
:1008E1000A780930D50508B6FF0106C6A426F62008
:1008F100D5047002D20380D924CFB41A00EF50047A
:10090100C2E5D204020B67D20180C6D20080C0D2F8
:100911000280BCD2D580BAD20580B47F201208648F
:100921002002077401B5090040F1120821FF1208E5
:100931006402089ED208D2068095120821FB120893
:1009410021FA120821F94A4B700679657A0C7BFF6E
:1009510020022EE509602A7E008E82758300120630
:100961006260060EEE650A70F0C2D5EBC0E0EAC027
:10097100E0E9C0E0EE120BC8D0E0F9D0E0FAD0E037
:10098100FB120649FF60AAEBC0E0EAC0E0E9C0E063
:10099100120864D0E02401F9D0E03400FAD0E0FB81
:1009A100E50A0460DCD50AD98087D20280A2120B45
:1009B100AA60F7E50A70010412029BA90A600DE51D
:1009C1000A600914F50A120C52EF60F3EA30E702EB
:1009D100F404C3995079EAF4250A0430E701E404E8
:1009E100F50A800D120BAA60C1EA050A250A120256
:1009F1009BEA9000B3F030E701E4250A04D50A042C
:100A010020050114120BC8E4C0E0120C529000B38F
:100A1100E0601320E70714F012084C802204F0D0A4
:100A2100E014C0E07F0012084CE50A600712084399
:100A3100150A800B300503120843D0E002089ED04E
:100A4100E00480C4120BAA609EE50A0412029B9086
:100A510000B3EAF0E50A2005026001042404120B48
:010A6100C8CC
:100A620074FF04C0E0120C5212084CE50A20050281
:100A72006003120843D0E0B50AE87F451208569099
:100A820000B3E07F2B30E7047F2DF404C0E01208AE
:100A920064D0E075F00A84C0F012084DD0E012086C
:100AA2004D02089E791080027908C206C2088008A9
:100AB200D2D5790A8004790AC2D5E50A047002F512
:100AC2000AE4FAFDFEFF120821FC7B082001131242
:100AD2000821FD7B1030000A120821FE120821FFB6
:100AE2007B20EC3382D592D55013C3E43000069FAD
:100AF200FFE49EFEE42001039DFDE49CFCE4CBF8B0
:100B0200C201EC700CCFCECDCCE824F8F870F380A3
:100B120017C3EF33FFEE33FEED33FDEC33FCEB3363
:100B2200FB994002FB0FD8E9EB300105F8D0E0C495
:100B320048B201C0E00AEC4D4E4F78207B0070C2F3
:100B4200EAB50A0040BCC0E0120BCAD0F0D0E020E7
:100B52000104C4C0E0C4B201C0F012084DD0F0D507
:100B6200F0EB02089E1207CF093B530AA658090C64
:100B72004C0908420AAA4F0AB2440AB2490921435F
:100B82000AB85509E5460A454509AF470C8550099B
:100B9200102D09142E09372B0918230935200C6E44
:100BA2002A08D0480000092FE50AB4FF03750A0697
:100BB200120821FC120821FD120821FE120821FF51
:100BC2009000AC0202D8790AA2D52003143005099C
:100BD200B910020404B9080104A2D520060250018A
:100BE200042002689202B509005034C0E07F203030
:100BF20003197F30A20272067205500F120C21C235
:100C020002C206C205C2087F30800F300503E9C068
:100C1200E0120864300503D0E0F9D0E0B509CC3029
:100C220005177F30B9100C1208647F583004077F13
:100C3200788003B908031208643002057F2D020888
:100C4200647F202008F87F2B2006F322920280CFB7
:100C52007F00B40700500B24ACF582E43400F58326
:100C6200E0FF22286E756C6C2900D2011208213037
:100C720001F8C201780930D50108F60208D02D50DA
:100C82004349581208212403B405004001E4900CA2
:100C92008093120855743A120855D203750904025A
:020CA2000AA6A0
:10025100E9D2E7C933E833F892D5EDD2E7CD33ECF3
:0702610033FC5002B2D5226C
:10026800EC30E7100FBF000C0EBE00080DBD0004F7
:100278000BEB6014A2D5EB13FCED92E7FD2274FFA3
:10028800FCFDFEFF22E480F8A2D574FF13FC7D80FC
:03029800E480EF10
:10029B00F920E73624F950037907E4F42402FBE54F
:1002AB0082158270021583DBF6E024FB501BE9609C
:1002BB0014E4F0E582158270021583E004F0B40AB1
:0D02CB0008E4F0D9EE7401F00A22C2D52239
:1002D800ED33EC3392D5FA602AB4FF33EDC2E77BF5
:1002E800FF60067A0279FDE4227A03790620D504B4
:1002F8007A037901224E614E002B494E46002D4962
:100308004E4600E47A08F0A3DAFC7B00740722C0AA
:1003180083C082ECC0E0EDC0E0EEC0E0EFC0E0EAF0
:1003280075F010A4CAABF075F04DA42BFBE435F0C2
:10033800FCEA2410FAEB34C5FBEC34D9FCEDC2E737
:10034800FF75F056A4F42411C5F0F434C58FF0A459
:100358002AE5F03BE43CF020E714120513D0E0FF57
:10036800D0E0FED0E0FDD0E0FC1201098014F404D6
:10037800120513D0E0FFD0E0FED0E0FDD0E0FC1283
:1003880003DDD082D083E0FAEDD2E7CD33EC33241D
:1003980082FBE4C3CF33CFCE33CECD33CD33DBF3C3
:1003A8007B0775F00A846004F0A31B0AE5F0F0A34C
:1003B8008FF0740AA4FFACF08EF0740AA42CFEAC83
:1003C800F050010C8DF0740AA42CFDE435F0F0A374
:0503D800DBDE740722CA
:1003DD00EC4D6011E8497017ED33EC3304600DE41A
:1003ED00FCFFFEFD22E933E8330470F802028612A9
:1003FD00025158046009E4CC2481500628500902AA
:10040D00029028400302028DC0E0EB4A7044B9808F
:10041D0006D0E0FB02027CEF4E701CBD8008EBFFA6
:10042D00EAFEE9FD80EBE98DF0A4FEE5F00204C6DD
:10043D00E9CDF9EAFEEBFFEF89F0A4FCE5F0CE89FA
:10044D00F0A42EFFE435F0CD89F0A42DFEE435F0B7
:10045D008067EF4E7005BD80D780C3EF8BF0A4ACE5
:10046D00F0EE8BF0A42CFCE435F0F8EF8AF0A42C20
:10047D00E5F038FCE433CB8DF0A42CFCE5F03BF833
:10048D00EE8AF0A42CFCE5F038F8E433CF89F0A423
:10049D002CFCE5F038CF3400CE89F0A42FFFE5F029
:1004AD003EFEE433C98DF0A42EFEE5F039CD8AF081
:1004BD00A42FFFE5F03EFEE43DFD33D0E0FB5007F9
:1004CD000BBB000F020290EC2CFCEF33FFEE33FE62
:0604DD00ED33FD02026890
:1004E3003F8000004120000042C80000447A000021
:1004F300461C400047C35000497424004B189680A3
:100503004CBEBC205A0E1BCA6753C21C749DC5AE99
:10051300FB60065407601C2323120541EB5438602B
:100523000912052D12053C1203DDECF8EDF9EEFA84
:10053300EFCB22EB12053C80F1543803241C9004CA
:10054300E3FE93FC0EEE93FD0EEE930ECE93FF228D
:03000000021D0FCF
:0C1D0F00787FE4F6D8FD758121021D5696
:10055300E709F608DFFA8046E709F208DFFA803E8A
:1005630088828C83E709F0A3DFFA8032E309F60877
:10057300DFFA8078E309F208DFFA807088828C83DF
:10058300E309F0A3DFFA806489828A83E0A3F60893
:10059300DFFA805889828A83E0A3F208DFFA804C6D
:1005A30080D280FA80C680D4806980F28033801044
:1005B30080A680EA809A80A880DA80E280CA8033AD
:1005C30089828A83ECFAE493A3C8C582C8CCC58325
:1005D300CCF0A3C8C582C8CCC583CCDFE9DEE780F5
:1005E3000D89828A83E493A3F608DFF9ECFAA9F074
:1005F300EDFB2289828A83ECFAE0A3C8C582C8CCCA
:10060300C583CCF0A3C8C582C8CCC583CCDFEADEE2
:10061300E880DB89828A83E493A3F208DFF980CC44
:1006230088F0EF60010E4E60C388F0ED2402B4043D
:100633000050B9F582EB2402B4040050AF232345E4
:0606430082239005A37361
:10064900BB010689828A83E0225002E722BBFE02AF
:09065900E32289828A83E49322E2
:10066200BB010CE58229F582E5833AF583E022504D
:1006720006E92582F8E622BBFE06E92582F8E22297
:0D068200E58229F582E5833AF583E49322B1
:10068F00BB010689828A83F0225002F722BBFE014A
:02069F00F32244
:1006A100EF8DF0A4A8F0CF8CF0A428CE8DF0A42E6D
:0206B100FE2227
:1006B300BC000BBE0029EF8DF084FFADF022E4CC2B
:1006C300F875F008EF2FFFEE33FEEC33FCEE9DECF4
:1006D300984005FCEE9DFE0FD5F0E9E4CEFD22ED3A
:1006E300F8F5F0EE8420D21CFEADF075F008EF2F84
:1006F300FFED33FD4007985006D5F0F222C398FD75
:050703000FD5F0EA2211
:10070800C5F0F8A3E028F0C5F0F8E582158270027C
:060718001583E038F02219
:10071E00A3F8E0C5F025F0F0E5821582700215838E
:06072E00E0C838F0E822EB
:0E073400C3E49FFFE49EFEE49DFDE49CFC22D6
:10074200EB9FF5F0EA9E42F0E99D42F0E89C45F00D
:010752002284
:10075300E8600FECC313FCED13FDEE13FEEF13FF84
:03076300D8F122A8
:0C076600ECF0A3EDF0A3EEF0A3EFF02206
:10077200A8828583F0D083D082120789120789125A
:100782000789120789E473E493A3C583C5F0C5837F
:10079200C8C582C8F0A3C583C5F0C583C8C582C8D1
:0107A2002234
:0C07A300A42582F582E5F03583F5832261
:1007AF00F8E0FBA3A3E0F925F0F0E58215827002D3
:0707BF001583E0FA38F02277
:0907C600EBF0A3EAF0A3E9F02234
:1007CF00D083D082F8E4937012740193700DA3A3B9
:1007DF0093F8740193F5828883E4737402936860CD
:0607EF00EFA3A3A380DFCD
:10223C00EFB40A07740D122247740A309811A8994A
:10224C00B8130CC2983098FDA899C298B811F63002
:07225C0099FDC299F59922DA
:1007F500EF4E6012EF60010EEDBB010B89828A831B
:10080500F0A3DFFCDEFA2289F05007F709DFFCA927
:0C081500F022BBFEFCF309DFFCA9F0227E
:101D1B00021F47E493A3F8E493A34003F68001F278
:101D2B0008DFF48029E493A3F85407240CC8C333C9
:101D3B00C4540F4420C8834004F456800146F6DF98
:101D4B00E4800B010204081020408090212AE47EDD
:101D5B00019360BCA3FF543F30E509541FFEE4938D
:101D6B00A360010ECF54C025E060A840B8E493A354
:101D7B00FAE493A3F8E493A3C8C582C8CAC583CA7F
:101D8B00F0A3C8C582C8CAC583CADFE9DEE780BE37
:01216100007D
:00000001FF
