:1032EC0012390B123C96123C32123CFF123C161255
:1032FC003CC312390B7FF47E0112386F12233390CA
:10330C000046E0FCA3E0FDE412031E752B02E4F57D
:10331C002C12337E7FD07E0712386F900046E070FF
:10332C0004A3E0641E60057F02121EE5E4FFFE7D2F
:10333C00807C3F900026E0F8A3E0F9A3E0FAA3E03C
:10334C00FB1202AC5003121683123B82122E211276
:10335C0024E57F327E0012386F900006E0FCA3E07B
:10336C00FDA3E0FEA3E0FF752B02752C0112337E4A
:02337C0080DAF5
:103C16005390DF5390EF4394205395DFE4F59A7564
:0C3C26009BA0759C01759D50759E0422AA
:103C9600C2AF75AA0575AA0A75A91FD2AF75AA057E
:073CA60075AA0A75A91F228F
:103C320075800C75904075A0117592F0E4F593753E
:0A3C420094BFF5957596EEF59722F4
:0A3CFF005392DF43932043802022FC
:103CC30075A88275B802E4F589F58A758C7F758EBF
:053CD3000443881022EB
:103B0100E4900125F0A3F075AB09E5AB20E2084391
:103B1100AB04E5AB20E2FBAFAC900125E4F0A3EFF1
:0C3B2100F053ABF7900125E0FEA3E0FF9D
:013B2D002275
:03000B0002352B90
:10352B00C0E0C083C082C0D075D000C006C0079079
:10353B000108E0FEA3E0FFD39400EE94004031EFCE
:10354B0094C8EE94005029EF64014E700343901021
:10355B00900109E004F07006900108E004F0C390BC
:10356B000109E094C8900108E0940040035390EFE8
:10357B0090010CE0FEA3E0FFD39400EE9400401307
:10358B00EF9488EE9413500BE004F0700690010C4E
:10359B00E004F0758ACF758CB5438810D007D00640
:0935AB00D0D0D082D083D0E032F0
:102687009000F97474F0A3E4F09000FF1209683D1C
:10269700F5C28FE4900103F0A3F090012774AAF02C
:1026A7009001287455F0E4FFFE7D707C419000FF97
:1026B700E0F8A3E0F9A3E0FAA3E0FB1202AC4003C1
:1026C700022811900103E4F0A304F0900103E0FE57
:1026D700A3E0FFC3940BEE940050CBEF7802C33313
:1026E700CE33CED8F9FF9000FAE02FFF9000F9E043
:1026F7003EFEC0069000FFE0FCA3E0FDA3E0FEA3C2
:10270700E0F5288E278D268C25D0061236A5900158
:1027170003E0FEA3E07802C333CE33CED8F9FF90AF
:1027270000FAE02FFF9000F9E03ECF24FCCF34FF02
:10273700FE12399E9000FB12095C9000FBE0FCA39F
:10274700E0FDA3E0FEA3E0FF752B02752C01123319
:102757007E900103E0FEA3E07802C333CE33CED8E8
:10276700F9FF9000FAE02FFF9000F9E03EFE1239E2
:102777009E9000FB12095C9000FBE0FCA3E0FDA328
:10278700E0FEA3E0FF752B02E4F52C12337E9001E7
:1027970003E0FEA3E07802C333CE33CED8F9FF902F
:1027A70000FAE02FFF9000F9E03ECF2404CF340079
:1027B700FE12399E9000FB12095C9000FBE0FCA31F
:1027C700E0FDA3E0FEA3E0FF752B02752C02123398
:1027D7007E9000FFE0FCA3E0FDA3E0FEA3E0FFE4A2
:1027E700FBFA7980783F1200159000FF12095C7F91
:1027F700E87E0312386F900104E004F060030226BC
:10280700D2900103E004F00226D2E4900127F09071
:062817000128F0023B82E3
:103AD10025362E30660025352E30660025372E31ED
:103AE100660025362E31660025372E3266002536D2
:103AF1002E32660025372E33660025362E336600BA
:063CAD00D2A1D2A2D2A3B5
:0F3CB300E49000BCF09000BCE004F0E0B405F633
:013CC20022DF
:103B2E00E49000BBF0EF20E704C2A38002D2A3C250
:103B3E00A2123CB3D2A2123CB3EF25E0FF9000BB21
:093B4E00E004F0E0C3940840DC3F
:013B5700224B
:10390B00123CAD123CB3E4F508750901FDFBFE1248
:10391B00319675090312319075092812319075098A
:10392B00291231907508017E007F107D007B007A93
:10393B0000790A1209DB78307C007D007B007A006D
:0C394B0079087E007F121206C20231A330
:103190007D007B007E0078307C007A0079087F1209
:0331A0001206C252
:1031A300E49000B9F0A3F0123CADC2A1123CB3C24B
:1031B300A2123CB3D2A2123CB3C2A3C2A2123CB32A
:1031C300D2A2123CB3E5307004C2A38002D2A3C2E0
:1031D300A2123CB3D2A2123CB3E5307011AF31124C
:1031E3003B2EC2A2123CB3D2A2123CB38058E4904D
:1031F30000BAF09000B9F0C2A29000BAE020E70450
:10320300C2A38002D2A3123CB3D2A2123CB3900059
:10321300BAE025E0F09000B9E004F0E0C394064082
:10322300D6E49000B9F09000B9E0FFC394105016B3
:10323300C3740F9FFF74322FF8E6FF123B2E9000EA
:0F324300B9E004F080E0D2A1D2A3D2A2023CB342
:103A26007508017E007F107D007B007A00790A12FE
:103A360009DB123190E4F50875090278307C00FD47
:103A4600FB7A007908FE12319EE4F50978307C0095
:0F3A5600FDFB7A007908FE7F121206C20231A32F
:103B82007508017E007F107D007B007A00790A12A1
:103B920009DB78307C007D007B007A0079087E00AA
:083BA2007F121206C20231A3DA
:103BAA007508017E007F107DFF7B007A00790A127A
:103BBA0009DB78307C007D007B007A0079087E0082
:083BCA007F121206C20231A3B2
:103A6500E49000B9F0BD0101F0BD02069000B97403
:103A75000BF0ED70069000B97405F0C374059BFE5C
:103A85009000B9E02EF0E0FE240AF8E65480F674C2
:063A95000A2EF8E64FF6D0
:013A9B002208
:1035B400ED606324FE6031047078BF030BBB01052A
:1035C400430B808003530B7FBF020BBB0105430CED
:1035D400808003530C7FEF64017057BB0105430DDA
:1035E40080804F530D7F804ABF030BBB01054316F8
:1035F40080800353167FBF020BBB010543178080F5
:103604000353177FEF64017029BB010543188080C1
:103614002153187F801CBF020BBB0105431180801E
:103624000353117FBF010BBB010543128080035379
:05363400127F023C4C76
:102FF900EF24FEB4090040030230C290301275F08C
:1030090003A4C58325F0C5837302307002306302BF
:10301900307D02308402309102303C023049023066
:103029005602302DBD0106430F800230C2530F7F77
:103039000230C2BD0105431380807E53137F80791E
:10304900BD0105431080807153107F806CBD01055F
:10305900431480806453147F805FBD0105430E8053
:103069008057530E7F8052BD0105430A80804A5321
:103079000A7F8045BD01028026803BBD01054315BD
:1030890080803653157F8031ED64017017430F80BE
:10309900431380431080431480430A8043158043BF
:1030A90019808015530F7F53137F53107F53147F5B
:0F30B900530A7F53157F53197F750801023C4C52
:092117007533017534007535AD16
:082120008F308E2F8D2E8C2DC7
:102128009000BB1209680000000A9000BFE532F079
:10213800E4A3F0A3F0A3F0FFFEFDFCAB30AA2FA9A7
:102148002EA82D1202AC50209000C17401F0AF30BF
:10215800AE2FAD2EAC2DE4FBFA798078BF120106C4
:102168008F308E2F8D2E8C2D9000BFE0FF14F0EF56
:10217800601F9000BBE0FCA3E0FDA3E0FEA3E0FF2E
:10218800E47B0AFAF9F81207B79000BB12095C80E1
:10219800D79000BBE0FCA3E0FDA3E0FEA3E0FFE4D2
:1021A800120319AB30AA2FA92EA82D12010612036B
:1021B80057EF2405FFE43EFEE43DFDE43CFCE47BF0
:1021C8000AFAF9F81208429000B712095CE47B0A8F
:1021D800FAF9F89000B7E0FCA3E0FDA3E0FEA3E065
:1021E800FF120842EB2430FFAB33AA34A935900024
:1021F800C0E0FE04F08E82758300EF120740900065
:10220800B7E0FCA3E0FDA3E0FEA3E0FFE47B0AFA4D
:10221800F9F81208429000B712095C9000C2E00475
:10222800F0D53217AB33AA34A9359000C0E0FF04CB
:10223800F08F82758300742E120740E4FFFEFDFCC8
:102248009000B7E0F8A3E0F9A3E0FAA3E0FBD3120B
:1022580008F840030221D59000C0E07E0024FFF575
:1022680082EE34FFF583AB33AA34A935120701B4E3
:102278002E179000C0E0FF04F08F82758300743041
:102288001207409000C2E004F09000C1E06016AB75
:1022980033AA34A9359000C0E0FF04F08F8275831B
:1022A80000742D801D9000C2E0C39531501FAB33E0
:1022B800AA34A9359000C0E0FF04F08F827583002E
:1022C80074201207409000C2E004F080D8AB33AA13
:1022D80034A9359000C0E0F582758300E412074008
:1022E800E49000BF803D9000C0E0FF9000BFE0FE9A
:1022F800C39F5036AB33AA34A9358E82758300123A
:102308000701F5328F827583001207018E8275836B
:10231800001207408F82758300E532120740900053
:0A232800BFE004F0A3E014F080BC55
:012332002288
:08337E008F2A8E298D288C276F
:10338600E52B701AE52C7005753105800CAF2AAE59
:1033960029AD28AC27753104E4F532122117E52B47
:1033A6006401701AE52CAF2AAE29AD28AC2770054A
:1033B6007531068003753105753201122117E52B2B
:1033C6006402701AE52CAF2AAE29AD28AC27700529
:1033D6007531068003753105753202122117E52B0A
:1033E6006403701AE52CAF2AAE29AD28AC27700508
:1033F60075310680037531057532031221177B017D
:093406007A0079ADAD2C0230C84A
:082F14008F1D8E1C8D1B8C1A11
:102F1C00E51E7035E51F70137545FF75463A75470C
:102F2C00D18F4B8E4A8D498C4880157545FF75465F
:102F3C003A7547D7851D4B851C4A851B49851A4810
:102F4C007B017A017910120A87E51E6401702DE568
:102F5C001F700B7545FF75463A7547DD8009754541
:102F6C00FF75463A7547E3851D4B851C4A851B4901
:102F7C00851A487B017A017910120A87E51E6402D2
:102F8C00702DE51F700B7545FF75463A7547E98046
:102F9C00097545FF75463A7547EF851D4B851C4AEB
:102FAC00851B49851A487B017A017910120A87E53D
:102FBC001E6403702DE51F700B7545FF75463A7541
:102FCC0047F580097545FF75463A7547FB851D4BDE
:102FDC00851C4A851B49851A487B017A0179101298
:0D2FEC000A877B017A017910AD1F0230C801
:10281D00BF30037F5F22BF31037F5022BF32037F62
:10282D003D22BF33037F7922BF34037F7222BF3530
:10283D00037F6B22BF36037F6F22BF37037F512289
:10284D00BF38037F7F22BF39037F7322EF6461603E
:10285D0003BF41037F7722EF64626003BF42037FB2
:10286D006E22EF64636003BF43037F0F22EF646446
:10287D006003BF44037F7C22EF64656003BF4503A3
:10288D007F2F22EF64666003BF46037F2722EF642C
:10289D00676003BF47037F6F22EF64686003BF4823
:1028AD00037F7622EF64696003BF49037F5022EFF7
:1028BD00646A6003BF4A037F5C22EF646B6003BFF1
:1028CD004B037F3622EF646C6003BF4C037F0E22F7
:1028DD00EF646D6003BF4D037F0022EF646E6003F4
:1028ED00BF4E037F6422EF646F6003BF4F037F5FB2
:1028FD0022EF64706003BF50037F3722EF64716075
:10290D0003BF51037F7322EF64726003BF52037FD5
:10291D002422EF64736003BF53037F6B22EF647453
:10292D006003BF54037F2E22EF64756003BF550310
:10293D007F5E22EF64766003BF56037F4C22EF6407
:10294D00776003BF57037F0022EF64786003BF58A1
:10295D00037F0022EF64796003BF59037F7222EF7A
:10296D00647A6003BF5A037F3D22EF642D6003BF7D
:0B297D005F037F2022BF20027F0022AA
:0830C8008B2D8A2E892FAC0527
:1030D0009000B77405F0E4A3F0EC700653117F5331
:1030E000127FBC020953167F53177F53187FBC0110
:1030F00009530B7F530C7F530D7FAB2DAA2EA92FA5
:103100001206E8FF700302318A642E600F12281D38
:10311000AD049000B7E0FB14F0123A65AB2DAA2E77
:10312000A92F1206E8642E704DBC02199000B8E079
:10313000FFB40203431680EFB40303431780EFB4D8
:103140000403431880BC01199000B8E0FFB40203E7
:10315000430B80EFB40303430C80EFB40403430D2F
:1031600080EC70129000B8E0FFB40403431280EFCB
:10317000B403034311809000B8E004F07401252FDC
:10318000F52FE4352EF52E0230FA750801023C4C7D
:103C4C0075080178307C007D007B007A0079087E55
:093C5C00007F121206C20231A31E
:043774004101060009
:102E2100E490009BF0900105F090009BF090009BD6
:102E3100E0FFC39405507AD281D280D290D291D250
:102E410092EF7002C281EFB40102C280EFB40202BC
:102E5100C290EFB40302C291EFB40402C2927F01A7
:102E61007E0012386F20820D90009BE025E025E066
:102E710004900105F020A40E90009BE025E025E0E0
:102E81002402900105F020A00E90009BE025E02592
:102E9100E02403900105F020960E90009BE025E0D0
:102EA10025E02404900105F090009BE004F0022E3F
:102EB1002E900107E0FF700C900105E06006A374FD
:102EC10001F08031900105E0FEB50709EE6006A32F
:102ED1007402F08020900107E0600C900105E07021
:102EE10006A37403F0800E900107E07008900105BD
:102EF100E07002A3F0900105E0900107F0600A90F4
:102F01000106E0B40103123D0975AA0575AA0A7507
:022F1100A91FF6
:012F1300229B
:093D0900900108E4F0A304F0228B
:013D27002279
:030008007F002254
:103BF900E490009BF0F0123D097FFA7E0012386FC5
:0C3C090090009BE004F0E0C3940340EA4C
:013C1500228C
:10386F00E49000B1F0A3F0C39000B2E09F9000B1DC
:10387F00E09E503A75AA0575AA0A75A91FE4900033
:10388F00B3F0A3F09000B4E004F070069000B3E042
:10389F0004F09000B3E07004A3E064C870E69000F9
:0E38AF00B2E004F070C19000B1E004F080B906
:0138BD0022E8
:103C7E000000000000000000000000000000000036
:083C8E0000000000000000002E
:103778004400D8000000004200E300004200E100DD
:10378800005400E5000000000000000000000000F8
:1037980000000000000000004400DC0000000044BD
:0A37A80000D4000000004100E00022
:080E9A008F2B8E2A8D298C2874
:100EA20078B17C007D017BFF7A3C797E7E007F14E5
:100EB2001206C2E4FFFEFD7C3F900026E0F8A3E0AC
:100EC200F9A3E0FAA3E0FB1201069000C512095C47
:100ED2009000C912096800000000AF2BAE2AAD29AC
:100EE200AC28E41203199000CD12095C9000D17471
:100EF20005F0E4A3F0A3F0752D00752EE59000C572
:100F0200E0FCA3E0FDA3E0FEA3E0FF9000D4E0F844
:100F1200A3E0F9A3E0FAA3E0FB1200159000CDE0F4
:100F2200F8A3E0F9A3E0FAA3E0FB1202AC600250DE
:100F3200329000C5E0F8A3E0F9A3E0FAA3E0FB9049
:100F420000D4E0FCA3E0FDA3E0FEA3E0FF12001149
:100F52009000CDE0F8A3E0F9A3E0FAA3E0FB1202CF
:100F6200AC5050E52C704C9000E0E0FF04F0EFD361
:100F72009402403CE4F09000D2F09000D1E014FFE3
:100F8200A3E0F9C39F40030210AB9000CDE0FCA3A5
:100F9200E0FDA3E0FEA3E0FF852E82852D8375F0A0
:100FA20004E912099912095C9000D2E004F080CAA7
:100FB2000212B9E52C640170469000E0F09000D274
:100FC200F09000D1E014FFA3E0C39F40030210ABF6
:100FD200AF2BAE2AAD29AC28E4120319852E8285E7
:100FE2002D83C083C0829000D2E0D082D08375F07E
:100FF2000412099912095C9000D2E004F080C2E563
:101002002C640270519000D2F09000D1E014FFA342
:10101200E0F9C39F40030210ABE92401FFE433FE71
:10102200EF7802C333CE33CED8F9252EF582E52DE3
:101032003EF583E0FCA3E0FDA3E0FEA3E0FF852EE6
:1010420082852D8375F004E912099912095C9000DA
:10105200D2E004F080B3E49000E0F09000D2F0908F
:1010620000D1E014FFA3E0F9C39F503DE92401FF42
:10107200E433FEEF7802C333CE33CED8F9252EF512
:1010820082E52D3EF583E0FCA3E0FDA3E0FEA3E0B4
:10109200FF852E82852D8375F004E91209991209C4
:1010A2005C9000D2E004F080B69000CDE0FCA3E0BA
:1010B200FDA3E0FEA3E0FFC004C005C006C007A375
:1010C200E024FFFFE434FFFEEF7802C333CE33CED9
:1010D200D8F9252EF582E52D3EF583D007D006D02E
:1010E20005D00412095CE49000D2F09000D1E0FF38
:1010F200A3E0FBC39F5031852E82852D8375F004BA
:10110200EB120999E0FCA3E0FDA3E0FEA3E0FFEBF4
:1011120025E025E024B1F582E43400F58312095C70
:101122009000D2E004F080C3E49000D2F09000D1AD
:10113200E014FFA3E0FEC39F4003021212EE04A3D9
:10114200F09000D1E0FF9000D3E0FEC39F40030285
:1011520012099000D2E025E025E024B1F582E434C2
:1011620000F583E0F8A3E0F9A3E0FAA3E0FBEE25A3
:10117200E025E024B1F582E43400F583E0FCA3E04D
:10118200FDA3E0FEA3E0FF1202AC6072407090008B
:10119200D3E0FB25E025E024B1F582E43400F583B9
:1011A200E0FCA3E0FDA3E0FEA3E0FF9000C912096A
:1011B2005C9000D2E0FA25E025E024B1F582E43427
:1011C20000F583E0FCA3E0FDA3E0FEA3E0FFEB2536
:1011D200E025E024B1F582E43400F58312095C9045
:1011E20000C9E0FCA3E0FDA3E0FEA3E0FFEA25E0E6
:1011F20025E024B1F582E43400F58312095C900005
:10120200D3E004F00211439000D2E004F002112F67
:101212009000D4120968000000009000D27401F01E
:101222009000D1E014FFA3E0FEC39F50389000D499
:10123200E0F8A3E0F9A3E0FAA3E0FBEE25E025E065
:1012420024B1F582E43400F583E0FCA3E0FDA3E0E1
:10125200FEA3E0FF1200159000D412095C9000D2A8
:10126200E004F080BB9000D4E0FCA3E0FDA3E0FE2C
:10127200A3E0FFC004C005C006C0079000D1E0246F
:10128200FEFDE434FFFCE412031EA804A905AA062D
:10129200AB07D007D006D005D00412020F9000D4BD
:1012A20012095C9000D4E0FCA3E0FDA3E0FEA3E001
:1012B200FF9000DC12095C9000D4E0FCA3E0FDA3E7
:0512C200E0FEA3E0FFC7
:0112C7002204
:022ABD008F2761
:102ABF009000AD12096800000000308342E47FFAF5
:102ACF00FEFDFC9000ADE0F8A3E0F9A3E0FAA3E06F
:102ADF00FBC31208F850287F017E0012386F900058
:102AEF00ADE0FCA3E0FDA3E0FEA3E02401FFE43E84
:102AFF00FEE43DFDE43CFC9000AD12095C80BB3070
:102B0F008303022BD812340F9000AD12095C900092
:102B1F00ADE0FCA3E0FDA3E0FEA3E0FF7807120900
:102B2F00099000AD12095CE47FFF7EFFFDFC900071
:102B3F00ADE0F8A3E0F9A3E0FAA3E0FBC31208F8B5
:102B4F00606DE47FFF7EFFFDFC9000ADE0F8A3E039
:102B5F00F9A3E0FAA3E0FBD31208F89000ADE04030
:102B6F0032F8E49BFFE49AFE740299FDE498FC901E
:102B7F0000AD12095C9000ADE0F8A3E0F9A3E0FA14
:102B8F00A3E0FBC374F49BFF747E9AFEE499FDE40B
:102B9F00988015FCA3E0FDA3E0FEA3E024F4FFEE74
:102BAF00347EFEE43DFDE43CFC9000AD12095C90E8
:102BBF0000ADE0FCA3E0FDA3E0FEA3E0FF85272C22
:102BCF00120E9A9000D812095C9000D8E0FCA3E096
:072BDF00FDA3E0FEA3E0FFEF
:012BE60022CC
:10340F00782B7C007D007BFF7A3C79927E007F04D5
:10341F001206C2752800752900752A2B208370E4C7
:10342F009000B1F0A3F09000B1E0FEA3E0FFC394D1
:10343F0018EE94005036D284EF7803CEC313CE1318
:10344F00D8F9FF242CF8C000E625E0D000F6C2849E
:10345F00742C2FF8E6FFA283E4334FF69000B2E00E
:10346F0004F070C29000B1E004F080BAD2849000F2
:10347F00B1E0FEA3E07805C333CE33CED8F9F0EE3A
:0F348F009000B1F0C284AB28AA29A92A12091C07
:01349E00220B
:103CEC009000ACE4F0A304F0E025E0F09000ACE030
:023CFC0033F0A3
:013CFE0022A3
:073CD800E42FFFEE3468FE4B
:0C3CDF008F828E83E4939000ABF0E0FF36
:013CEB0022B6
:0439E500AD07AC0678
:1039E9007527007528A6E49000A8F00DEDAE0470C7
:1039F900010C14FF123CDF0528E528AA27700205EF
:103A09002714F5828A83EFF09000A8E004F0E0C360
:0C3A1900940240D79000A6E0FEA3E0FF5E
:013A2500227E
:04395700AD07AC0606
:10395B00752900752AA4E49000A8F00DEDAE047053
:10396B00010C14FF123CDF052AE52AAA2970020577
:10397B002914F5828A83EFF09000A8E004F0E0C3ED
:10398B00940440D79000A4E0FCA3E0FDA3E0FEA3C9
:02399B00E0FF4B
:01399D002207
:04399E00AD07AC06BF
:1039A20075220075238BE490008FF00DEDAE04704C
:1039B200010C14FF123CDF0523E523AA2270020545
:1039C2002214F5828A83EFF090008FE004F0E0C3C6
:1039D200940440D790008BE0FCA3E0FDA3E0FEA39B
:0239E200E0FF04
:0139E40022C0
:0737110014F5828C83E0FD3A
:10371800E49000ABF075AA0575AA0A75A91F8E2B4F
:103728008F2CA2AF9209C2AF852BC3852CC28DC145
:10373800F5C4F5C5F5C6900127E0B4AA08A3E0B41E
:10374800550375C703123CEC75C40575C50A75C6E3
:1037580009900127E0B4AA08A3E0B4550375C7038C
:0B376800E4F5C4F5C5F5C6A20992AF58
:013773002233
:063B58008E238F248D2551
:103B5E00E490009BF0123CDF90009BEFF0F4600BC2
:103B6E007D017C00AF24AE23122BE7AD25AF24AE32
:043B7E0023023718CF
:0837CD008E238F248C258D262C
:1037D5001239E590009CEEF0A3EFF0F47002EEF4E0
:1037E500600B7D027C00AF24AE23122BE77B257A8C
:1037F50000E490009BF00524E524AE237002052328
:1038050014FF0BEBAC0270010A12371190009BE01C
:0838150004F0E0C3940240DE60
:01381D002288
:043639008E5E8F5FB3
:10363D0090011912096800000000AF5FAE5E1239EB
:10364D005790011912095C74FFFFFEFDFC900119E2
:10365D00E0F8A3E0F9A3E0FAA3E0FBC31208F860D9
:10366D000B7D047C00AF5FAE5E122BE77B607A00B2
:10367D00E4900118F0055FE55FAE5E7002055E1423
:10368D00FF0BEBAC0270010A123711900118E00428
:07369D00F0E0C3940440DEDD
:0136A4002203
:0436A5008E238F24BD
:1036A9009000A012096800000000AF24AE2312396F
:1036B900579000A012095C74FFFFFEFDFC9000A06A
:1036C900E0F8A3E0F9A3E0FAA3E0FBC31208F8606D
:1036D9000B7D047C00AF24AE23122BE77B257A00F7
:1036E900E490009BF00524E524AE23700205231421
:1036F900FF0BEBAC0270010A12371190009BE0043A
:07370900F0E0C3940440DE70
:013710002296
:10381E00E49000ABF08E2B8F2CA2AF9209C2AF8535
:10382E002BC3852CC2F5C4F5C5F5C6900127E0B4AF
:10383E00AA08A3E0B4550375C703123CEC75C40582
:10384E0075C50A75C609900127E0B4AA08A3E0B4AD
:10385E00550375C70CE4F5C4F5C5F5C6A20992AFBC
:01386E002237
:082BE7008C298D2AAB07AA0618
:102BEF00E49000A6F0A3F0A3F0EA1313543FFFA361
:102BFF00E4F0A3EFF0E0F8E4F0E825E025E0900042
:102C0F00A9F0E49000A7F0A3F09000A7E0FEA3E0E6
:102C1F00FFC3940AEE9400501E123CD8EFF46007E5
:102C2F007F007E6812381E9000A8E004F070DA90E2
:102C3F0000A7E004F080D2E49000A7F0A3F090008A
:102C4F00A7E0FEA3E0FFC3EE9404505CA3E0FCA357
:102C5F00E0FDEF2DFFEE3CFEEFB50312EEB5020ED9
:102C6F009000A8E0252AF09000A7E03529F0900009
:102C7F00A7E0FEA3E0FF9000AAE02FFF9000A9E0DD
:102C8F003EFE123CDFAD079000A8E02400FF90004D
:102C9F00A7E03468FE1237189000A8E004F0709E89
:102CAF009000A7E004F080969000A9E0FEA3E0FF5B
:102CBF0012381EE49000A7F0A3F09000A7E0FEA347
:102CCF00E0FFC3EE9404502C123CD8AD079000A740
:102CDF00E0FEA3E0FF9000AAE02FFF9000A9E03EE6
:102CEF00FE1237189000A8E004F070CE9000A7E015
:0B2CFF0004F080C67F007E6802381ED3
:1038BE00303030303000303030303030002020208A
:1038CE00554E00535441424C4500505245535300FF
:1038DE005245462030004300204C4F4144004320C7
:1038EE00202000464143544F0052002020454E44B4
:0D38FE0000534156454400202D452D20006B
:1037B2004400060000000044000000000000440035
:0A37C2007D0000000042000400003A
:102333007F017E6C12399E90002212095C7F057E1C
:102343006C12399E90001E12095C7F097E6C123953
:102353009E90002612095C90001612096800000086
:10236300007F347E6C123CDF90005BEFF07F0D7ECC
:102373006C123CDF90005CEFF07F0E7E6C123CDF52
:1023830090005DEFF07F0F7E6C1239E5900046EE12
:10239300F0A3EFF07F117E6C1239E5900049EEF067
:1023A300A3EFF07F137E6C1239E590004BEEF0A3A0
:1023B300EFF07F327E6C1239E590004DEEF0A3EF23
:1023C300F07F357E6C1239E590004FEEF0A3EFF00D
:1023D3007F157E6C123CDF90005EEFF07F167E6C03
:1023E300123CDF90005FEFF07F1E7E6C123CDF90AB
:1023F300007CEFF090005FE090006170057405F0E1
:1024030080037401F07F177E6C123CDF900060EF55
:10241300F090006270057405F080037401F07F187A
:102423007E6C123CDF900063EFF0E4900065F07F78
:102433001B7E6C123CDF900066EFF07F1C7E6C12FB
:102443003CDF900067EFF07F1D7E6C123CDF900055
:1024530068EFF07F007E701239E5900055EEF0A32F
:10246300EFF07F027E701239E5900057EEF0A3EF94
:10247300F07F1F7E6C123CDF90006BEFF07F207EBD
:102483006C123CDF90006DEFF07F227E6C123CDF1C
:1024930090007AEFF07F047E701239E5900059EED8
:1024A300F0A3EFF07F067E7012399E90003212097E
:1024B3005C7F237E6C123CDF900048EFF07F317E1F
:1024C3006C123CDF900079EFF07F0A7E70123CDFE4
:1024D300900089EFF07F0B7E7012399E90003E02D0
:0224E300095C92
:101C490090012774AAF09001287455F0EF1209B594
:101C59001CE4001C78011EB1021E52061E390A1C22
:101C6900D70B1E270C1E7A0D1ECF0F00001EDB7D21
:101C7900017F007E6C123B58900022E0FCA3E0FD3E
:101C8900A3E0FEA3E0F5288E278D268C257F017E13
:101C99006C1236A590001EE0FCA3E0FDA3E0FEA3B4
:101CA900E0F5288E278D268C257F057E6C1236A5BA
:101CB900900026E0FCA3E0FDA3E0FEA3E0F5288E5A
:101CC900278D268C257F097E6C1236A58000900011
:101CD90055E0FCA3E0FD7F00021E3190005CE0FDB1
:101CE9007F0D7E6C123B5890005DE0FD7F0E7E6C8F
:101CF900123B58900046E0FCA3E0FD7F0F7E6C127A
:101D090037CD900049E0FCA3E0FD7F117E6C1237CE
:101D1900CD90004BE0FCA3E0FD7F137E6C1237CD24
:101D290090004DE0FCA3E0FD7F327E6C1237CD9030
:101D3900004FE0FCA3E0FD7F357E6C1237CD9000AB
:101D49005EE0FD7F157E6C123B5890005FE0FD7FE1
:101D5900167E6C123B58900063E0FD7F187E6C1272
:101D69003B58900065E0FD7F197E6C123B5890004E
:101D790066E0FD7F1B7E6C123B58900067E0FD7F9B
:101D89001C7E6C123B58900068E0FD7F1D7E6C1232
:101D99003B5890006BE0FD7F1F7E6C123B58900012
:101DA90057E0FCA3E0FD7F027E701237CD90006DF5
:101DB900E0FD7F207E6C123B5890007AE0FD7F2287
:101DC9007E6C123B58900059E0FCA3E0FD7F047E35
:101DD900701237CD900032E0FCA3E0FDA3E0FEA332
:101DE900E0F5288E278D268C257F067E701236A574
:101DF900900048E0FD7F237E6C123B58900079E00B
:101E0900FD7F317E6C123B58900089E0FD7F0A7E90
:101E190070123B5890005BE0FD7F34021ED69000A3
:101E290057E0FCA3E0FD7F027E701237CD021EDB76
:101E390090001EE0FCA3E0FDA3E0FEA3E0F5288EE0
:101E4900278D268C257F05805B900059E0FCA3E057
:101E5900FD7F047E701237CD900032E0FCA3E0FDD7
:101E6900A3E0FEA3E0F5288E278D268C257F06802A
:101E79004E900036E0FCA3E0FDA3E0FEA3E0F528C8
:101E89008E278D268C257F297E6C1236A590003AE7
:101E9900E0FCA3E0FDA3E0FEA3E0F5288E278D2654
:101EA9008C257F2D7E6C801990003EE0FCA3E0FD1F
:101EB900A3E0FEA3E0F5288E278D268C257F0B7ED7
:101EC900701236A5800C90007CE0FD7F1E7E6C129E
:0C1ED9003B58E4900127F0900128F02213
:06199B00E4FB7D017F0565
:0619A1008F228D238B2430
:1019A700E490009BF0A3F0FCFDFEA312095C9000FD
:1019B700A1120968000000009000A5120968000044
:1019C700000090006DE0FCE41203239000A91209C7
:1019D7005CE4F525F52690009CF0E524700374027D
:1019E700F0AF24122ABD9000A512095CAF24122A79
:1019F700BD9000A512095CAF24122ABD9000A51264
:101A0700095CAF24122ABD9000A512095C74FFFF80
:101A1700FEFDFC90009DE0F8A3E0F9A3E0FAA3E047
:101A2700FBD31208E25003021C34120008E52364BA
:101A3700016003021AE390009DE0FCA3E0FDA3E030
:101A4700FEA3E0FFEC4D4E4F70237BFF7A3879BE43
:101A57007D011230C87BFF7A3879BE7D021230C80B
:101A67007BFF7A3879C4E4FD1230C8806FE47F6762
:101A77007E2BFDFC90009DE0F8A3E0F9A3E0FAA31C
:101A8700E0FB1207B7EC120319E4F52B752C0112D2
:101A9700337EE47F677E2BFDFC90009DE0F8A3E09A
:101AA700F9A3E0FAA3E0FB1207B7EC120319E4F578
:101AB7002B752C0212337E7F077EB27D017C00904E
:101AC700009DE0F8A3E0F9A3E0FAA3E0FB1207B753
:101AD700EC120319E4F52BF52C12337EAF24122AEE
:101AE700BD9000A112095C9000A9E0F8A3E0F9A35A
:101AF700E0FAA3E0FB9000A5E0FCA3E0FDA3E0FE75
:101B0700A3E0FF1200119000A1E0F8A3E0F9A3E021
:101B1700FAA3E0FB1202AC40749000A9E0FCA3E03A
:101B2700FDA3E0FEA3E0FF9000A5E0F8A3E0F9A382
:101B3700E0FAA3E0FB1200159000A1E0F8A3E0F99A
:101B4700A3E0FAA3E0FB1202AC6002504090009BB6
:101B5700E004F0A3E0FF90009BE0D39F5003021A3C
:101B67001490009DE0FCA3E0FDA3E0FEA3E0FFEFDF
:101B770024FFFFEE34FFFEED34FFFDEC34FFFC9055
:101B8700009D12095CE490009BF0021A14E523649F
:101B970001706C123B827BFF7A3879CB7D02123061
:101BA700C87BFF7A3879D1E4FD1230C890009D12C6
:101BB700096800000000E47FF47E01FDFC90009DB1
:101BC700E0F8A3E0F9A3E0FAA3E0FBC31208E250B0
:101BD7002E7F017E0012386F90009DE0FCA3E0FD90
:101BE700A3E0FEA3E0FFE4FAF9F8EF2401FFEA3EE1
:101BF700FEE93DFDE83CFC90009D12095C80B7E4DE
:101C070090009BF0AF22FCFDFE90009D12095CAF97
:101C170024122ABD9000A512095CE5247003021A5C
:101C270014E4900088F0FFFE7DC87CC222900088F3
:101C37007401F09000A5E0FCA3E0FDA3E0FEA3E0A3
:011C4700FF9D
:011C48002279
:033D24007F0022FB
:093D12008F678E668D658C6422BA
:103A9C0090011D120968000000007B01E4FD7F010C
:103AAC001219A190011D12095C900088E0B4011458
:103ABC0090011DE0FCA3E0FDA3E0FEA3E0FF90005D
:043ACC002A12095C55
:013AD00022D3
:093D1B008F258E248D238C2222B9
:1016830090008B1209680000000090008F12096817
:101693000000000090009312096800000000900011
:1016A3009712096800000000900056E004F07006ED
:1016B300900055E004F07F01121C49123B827BFF2E
:1016C3007A3879D87D011230C87BFF7A3879DEE425
:1016D300FD1230C87BFF7A3879E47D021230C8E40A
:1016E300900105F0900105E0640C6005122E218045
:1016F300F3E4900105F0900105E0B40C05122E21EE
:1017030080F47FE87E0312386F12199B90001E123B
:10171300095C90001EE0FCA3E0FDA3E0FEA3E0FF54
:1017230090008F12095C123B827BFF7A3879D87D57
:10173300011230C87BFF7A3879E6E4FD1230C87BAA
:10174300FF7A3879EC7D021230C8E4900105F090FD
:101753000105E0640C6005122E2180F312199B90A1
:10176300002212095C900022E0FCA3E0FDA3E0FE4E
:10177300A3E0FF90009312095C90008FE0F8A3E0D0
:10178300F9A3E0FAA3E0FBA3E0FCA3E0FDA3E0FEE2
:10179300A3E0FF12001190009712095C900097E0FC
:1017A300F8A3E0F9A3E0FAA3E0FBC000C001C00284
:1017B300C003900049E0FCA3E0FD7E007F641207B4
:1017C30062AC06AD07E412031ED003D002D001D0F1
:1017D3000012010690009712095C900022E0FCA31E
:1017E300E0FDA3E0FEA3E0FF90001EE0F8A3E0F914
:1017F300A3E0FAA3E0FB12001190002212095C900F
:101803000022E0F8A3E0F9A3E0FAA3E0FBC000C0E4
:1018130001C002C003900049E0FCA3E0FD7E007F0D
:1018230064120762AC06AD07E412031ED003D002B4
:10183300D001D00012010690002212095C90002210
:10184300E0FCA3E0FDA3E0FEA3E0FFA312095C908C
:101853000046E0FCA3E0FDE412031E90008B120996
:101863005C90008BE0F8A3E0F9A3E0FAA3E0FBC0EF
:1018730000C001C002C003900048E0FCE41203234F
:101883008F2D8E2C8D2B8C2A7F007E007D207C411A
:10189300122D0AD003D002D001D00012010690000D
:1018A3008B12095C90008BE0FCA3E0FDA3E0FEA398
:1018B300E0FFC004C005C006C00790004BE0FCA3D6
:1018C300E0FDE412031EA804A905AA06AB07D0078E
:1018D300D006D005D00412020F90008B12095C9041
:1018E3000026E0FCA3E0FDA3E0FEA3E0FF90008B55
:1018F300E0F8A3E0F9A3E0FAA3E0FB12020F9000E3
:101903002612095CE4FFFEFDFC900022E0F8A3E050
:10191300F9A3E0FAA3E0FB1202AC501E900022E010
:10192300FCA3E0FDA3E0FEA3E0FFE4FBFA798078EB
:10193300BF12010690002212095C123B827BFF7AE0
:101943003879F17D011230C8900026E0FCA3E0FD58
:10195300A3E0FEA3E0FF752B02E4F52C12337E7B9C
:10196300FF7A3879F7E4FD1230C87B01E4FD7F028A
:101973001235B47BFF7A3879F97D021230C87F01C2
:10198300121C497F0D121C49123BF9123BF97FB817
:081993007E0B12386F023B824B
:021EE5008F224A
:101EE700E490008BF0123B8290005B7401F0A3F04A
:101EF700E5227009900046F0A3740F802BE522B409
:101F0700010A900046E4F0A37414801CE522B40291
:101F17000A900046E4F0A3741E8063E522B405200E
:101F2700900046E4F0A3741EF090004BE4F0A37415
:101F370005F0A3E4F0A37402F0A3E4F0A30480295E
:101F4700E522B4062C900046E4F0A3741EF090003E
:101F57004BE4F0A37402F0A3E4F0A37402F0A3E44B
:101F6700F0A37402F0E490005BF0900048740380E3
:101F770029E522B40339900046E4F0A37428F090D1
:101F8700004BE4F0A3740AF0A3E4F0A37405F0A3F4
:101F9700E4F0A37402F090004804F090005D74012F
:101FA700F0FDE4FF122FF990007A7401F08034E518
:101FB70022B4042F900046E4F0A3743CF090004B49
:101FC700E4F0A37402F0900048F0E490005DF09014
:101FD700005CF07D017F01122FF9E490007AF09008
:101FE700005BF0900046E0FCA3E0FDE412031E90C6
:101FF7000048E0F52B752C0112337E900049E4F080
:10200700A37464F090005E7402F0A314F090006370
:102017007403F0E4900062F090006504F0A3F0A36D
:10202700F090006BF0E4A3F0A37405F0E49000597E
:10203700F0A3F090003212096800000000E490005D
:1020470079F090006AF090003612096800000000ED
:1020570090003A12096800000000900022120968F7
:102067000000000090001E120968000000009000A8
:1020770026120968000000009000897401F09000A2
:102087003E12096800000000E4900055F0A3F0A399
:10209700F0A3F090010CF0A304F08017900105E085
:1020A70064086014C390010DE0948890010CE094DB
:1020B700135005122E2180E4C390010DE0948890FF
:1020C700010CE09413400280437F0D121C497F01ED
:1020D700121C497F02121C49E4FF121C497BFF7A3C
:1020E7003879FF7D021230C8123BF9123BF980178D
:1020F700900105E064086014C390010DE094889096
:0F210700010CE094135005122E2180E4123B824C
:0121160022A6
:050003008F687F002260
:013D28002278
:013D29002277
:1024E500E490008BF0A3F0900082E090008C6005F2
:1024F5007403F080037401F0E490008BF090008C7D
:10250500E0FF90008BE0FEC3EF6480F8EE648098F6
:1025150050137F01122ABD90000612095C90008BB2
:10252500E004F080D8900087E064016007900086A1
:10253500E0B4010B7BFF7A3979057D010230C89043
:102545000065E0B40117900081E07011900006E08D
:10255500FCA3E0FDA3E0FEA3E0FF123D1B900006F7
:10256500E0FCA3E0FDA3E0FEA3E0FF90000E12094E
:102575005C900006E0FCA3E0FDA3E0FEA3E0FF9075
:10258500007D12095C900006E0FCA3E0FDA3E0FEDF
:10259500A3E0FF90002AE0F8A3E0F9A3E0FAA3E0A6
:1025A500FB12001190000612095C900006E0FCA3E6
:1025B500E0FDA3E0FEA3E0FF90001A12095C900085
:1025C50085E0B4010590000E8050900081E0B401D3
:1025D50046900006E0FCA3E0FDA3E0FEA3E0FF902B
:1025E500007D12095C900006E0FCA3E0FDA3E0FE7F
:1025F500A3E0FF900016E0F8A3E0F9A3E0FAA3E05A
:10260500FB12001190000612095C900083E0700730
:102615007D017F03122FF9900006E0FCA3E0FDA3E6
:10262500E0FEA3E0FF1212C890000612095CE4FF69
:10263500FEFDFC900006E0F8A3E0F9A3E0FAA3E0B4
:10264500FB1202AC500D900085E0700790008404E9
:10265500F0801CE4FFFEFDFC900006E0F8A3E0F925
:10266500A3E0FAA3E0FB1202AC7004900084F090A2
:102675000006E0FCA3E0FDA3E0FEA3E0FFA3120932
:012685005CF8
:012686002231
:0812C8008F258E248D238C225A
:1012D00090008D12096800000000900091120968CA
:1012E00000000000900095120968000000009000C6
:1012F000991209680000000090009D120968000022
:101300000000E49000A1F0FFFEFDFCAB25AA24A99B
:1013100023A8221202AC50209000A17401F0AF2546
:10132000AE24AD23AC22E4FBFA798078BF1201062B
:101330008F258E248D238C2290005BE070529000CC
:1013400048E0FCE41203238F2D8E2C8D2B8C2A7FFA
:10135000007E007D207C41122D0AC004C005C0061D
:10136000C00790004BE0FCA3E0FDE412031ED00395
:10137000D002D001D00012020F90009D12095C90A3
:101380000026E0F8A3E0F9A3E0FAA3E0FB0215765B
:101390007FCD7ECC7DCC7C3D900022E0F8A3E0F9AF
:1013A000A3E0FAA3E0FB120106AB25AA24A923A817
:1013B000221202AC6005400302146190008D1209F4
:1013C000680000000090004BE0FCA3E0FDE4120385
:1013D0001EC004C005C006C00790004FE0FCA3E09B
:1013E000FDE412031ED003D002D001D00012020F80
:1013F00090008D12095C900048E0FCE41203238FFA
:101400002D8E2C8D2B8C2A7F007E007D207C41121E
:101410002D0AC004C005C006C00790004FE0FCA321
:10142000E0FDE412031ED003D002D001D00012026E
:101430000F90009D12095C90008DE0FCA3E0FDA3DD
:10144000E0FEA3E0FF900026E0F8A3E0F9A3E0FAB5
:10145000A3E0FB120106A804A905AA06AB07021522
:10146000767FCD7ECC7D4C7C3E900022E0F8A3E0E0
:10147000F9A3E0FAA3E0FB120106AB25AA24A923F5
:10148000A8221202AC6005400302152790004BE031
:10149000FCA3E0FDE412031EC004C005C006C007A3
:1014A00090004DE0FCA3E0FDE412031ED003D00247
:1014B000D001D00012020F90008D12095C900048FC
:1014C000E0FCE41203238F2D8E2C8D2B8C2A7F00C1
:1014D0007E007D207C41122D0AC004C005C006C0DC
:1014E0000790004DE0FCA3E0FDE412031ED003D002
:1014F00002D001D00012020F90009D12095C9000F2
:101500008DE0FCA3E0FDA3E0FEA3E0FF900026E059
:10151000F8A3E0F9A3E0FAA3E0FB120106A804A9EE
:1015200005AA06AB07804F900048E0FCE4120323B5
:101530008F2D8E2C8D2B8C2A7F007E007D207C4170
:10154000122D0AC004C005C006C00790004BE0FC85
:10155000A3E0FDE412031ED003D002D001D000129C
:10156000020F90009D12095C900026E0F8A3E0F9BC
:10157000A3E0FAA3E0FBAF25AE24AD23AC22120218
:101580000F90009512095C900095E0FCA3E0FDA38C
:10159000E0FEA3E0FF12035790009912095C90004F
:1015A00095E0FCA3E0FDA3E0FEA3E0FFC004C005BE
:1015B000C006C007A3E0FCA3E0FDA3E0FEA3E0FF9C
:1015C000EC120319A804A905AA06AB07D007D00698
:1015D000D005D00412001190009512095C9000997A
:1015E000E0F8A3E0F9A3E0FAA3E0FBC000C001C06B
:1015F00002C003E4FFFEFD7C40900095E0F8A3E00C
:10160000F9A3E0FAA3E0FB120106120357D003D0BE
:1016100002D001D000EB2FFFEA3EFEE93DFDE83CA1
:10162000FC90009912095C900099E0FCA3E0FDA3F6
:10163000E0FEA3E0FFEC12031990009DE0F8A3E0A8
:10164000F9A3E0FAA3E0FB12010690009112095CF5
:101650009000A1E0601E900091E0FCA3E0FDA3E0FB
:10166000FEA3E0FFE4FBFA798078BF120106900048
:101670009112095C900091E0FCA3E0FDA3E0FEA3C1
:02168000E0FF89
:011682002245
:103C650090012112096800000000900121E0FCA3E9
:083C7500E0FDA3E0FEA3E0FF67
:013C7D002224
:10000E000203C3E86480F8E933E83360110460F05A
:10001E00ED33EC337009E8FCE9FDEAFEEBFF220458
:10002E0060DED3EB9FEA9EE99DE8C2E78CF0C2F753
:10003E0095F0400CE8CCF8E9CDF9EACEFAEBCFFB1F
:10004E0012038E85D0F05804700320D5B3E80470E7
:10005E00075002B2D50203CD92D5EC0460F7E4CC82
:10006E00C0E0C398F8603B94186008400DD0E0FBE8
:10007E000203A5E4FBFAC9FC8028E830E406E4C9D3
:10008E00FBE4CAFCE830E305E4C9CACBFCE854073C
:10009E006010F8C3E913F9EA13FAEB13FBEC13FC47
:1000AE00D8F130F52FC3E49CFCEF9BFFEE9AFEEDEA
:1000BE0099FDD0E0FBEF4E4D4C701222DB03020394
:1000CE00CAEC2CFCEF33FFEE33FEED33FDED30E7E3
:1000DE00EB0203A5EF2BFFEE3AFEED39FDD0E0FB70
:1000EE0050130BBB00030203CDED13FDEE13FEEF19
:0800FE0013FFEC13FC0203A543
:10010600EC4D6011E8497017ED33EC3304600DE4F3
:10011600FCFFFEFD22E933E8330470F80203C31244
:10012600038E58046009E4CC248150062850090245
:1001360003CD2840030203CAC0E0EB4A7044B980ED
:1001460006D0E0FB0203B9EF4E701CBD8008EBFF42
:10015600EAFEE9FD80EBE98DF0A4FEE5F00201EF91
:10016600E9CDF9EAFEEBFFEF89F0A4FCE5F0CE89D4
:10017600F0A42EFFE435F0CD89F0A42DFEE435F091
:100186008067EF4E7005BD80D780C3EF8BF0A4ACBF
:10019600F0EE8BF0A42CFCE435F0F8EF8AF0A42CFA
:1001A600E5F038FCE433CB8DF0A42CFCE5F03BF80D
:1001B600EE8AF0A42CFCE5F038F8E433CF89F0A4FD
:1001C6002CFCE5F038CF3400CE89F0A42FFFE5F003
:1001D6003EFEE433C98DF0A42EFEE5F039CD8AF05B
:1001E600A42FFFE5F03EFEE43DFD33D0E0FB5007D3
:1001F6000BBB000F0203CDEC2CFCEF33FFEE33FEFE
:06020600ED33FD0203A52B
:10020C000203CDEC5D046005E8590470030203C3DE
:10021C0012038E580460F6EC4860F2EC7004FDFE9C
:10022C00FF22C860DB2481C85009C39860025006C5
:10023C000203CA9850CAF582E9294B4A7005AB8271
:10024C000203B975F0007C1A7880C3EF9BEE9AED2F
:10025C0099400DC3EF9BFFEE9AFEED99FDE842F03D
:10026C00DC23ACF0D0E0FFD0E0FED0E0FDAB822090
:10027C00E7101BEB60BAEC2CFCEF33FFEE33FEED1A
:10028C0033FD0203A5E803F830E705C0F075F00074
:10029C00EF2FFFEE33FEED33FD40B830E7C280AAFE
:1002AC0074F8CC6480CCC86480C8F582046043C305
:1002BC00EB9FF5F0EA9E42F0E99D42F0E89C45F098
:1002CC0060305018E5825FFFE582F42B5582FB50BD
:1002DC00210ABA001D09B90019088016E5825BFBDA
:1002EC00E582F42F5582FF50090EBE00050DBD00AE
:1002FC00010CC3EB9FF5F0EA9E42F0E99D42F0E859
:0D030C009C45F06007CC4820E701B3EC22CF
:1003190075F020800E75F010800575F0087D007E5F
:10032900007F003392D530D5031208D4EC33401046
:10033900EF33FFEE33FEED33FDEC33FCD5F0ED2268
:0E034900E5F0247EA2D513CC92E7CDCEFF22A4
:10035700EDD2E7CD33EC3392D524814006E4FFFE9E
:10036700FDFC22FCE4CFCECDCC24E0501174FF80FD
:10037700EDC3CC13CCCD13CDCE13CECF13CF04709A
:07038700F030D5DE0208D4BE
:100A2B00E5592445F8E60559227842300702784506
:100A3B00E475F0011209A50206E82000EB7F2ED227
:100A4B00008018EF540F2490D43440D4FF30040BA3
:100A5B00EF24BFB41A0050032461FFE55A6002155E
:100A6B005A055DE55D7002055C30070D7842E47553
:100A7B00F0011209A5EF02072E023BD27403D20735
:100A8B008003E4C207F5598B428A438944E4F55A43
:100A9B00F55CF55DE55A60077F20120A6680F575F7
:100AAB005BFFC201C200C202C203C205C206C2087A
:100ABB00120A34FF700D3007057F00120A77AF5D05
:100ACB00AE5C22B4255FC2D5C204120A34FF24D017
:100ADB00B40A00501A75F00A785A30D50508B6FFDB
:100AEB000106C6A426F620D5047002D20380D924B1
:100AFB00CFB41A00EF5004C2E5D204020D64D20148
:100B0B0080C6D20080C0D20280BCD2D580BAD205BA
:100B1B0080B47F20120A662002077401B55A004088
:100B2B00F1120A2BFF120A66020A9FD208D2068024
:100B3B0095120A2BFB120A2BFA120A2BF94A4B704D
:100B4B0006795B7A0E7BFF20022EE55A602A7E0027
:100B5B008E8275830012070160060EEE655B70F0E6
:100B6B00C2D5EBC0E0EAC0E0E9C0E0EE120DC4D0A4
:100B7B00E0F9D0E0FAD0E0FB1206E8FF60AAEBC088
:100B8B00E0EAC0E0E9C0E0120A66D0E02401F9D047
:100B9B00E03400FAD0E0FBE55B0460DCD55BD98088
:100BAB0087D20280A2120DA760F7E55B70010412D9
:100BBB000403A95B600DE55B600914F55B120E4E37
:100BCB00EF60F3EA30E702F404C3995077EAF425B7
:100BDB005B0430E701E404F55B800D120DA760C1E7
:100BEB00EA055B255B120403EA7858F630E701E46B
:100BFB00255B04D55B0420050114120DC4E4C0E091
:100C0B00120E4E7858E6601320E70714F6120A4EC0
:100C1B00802204F6D0E014C0E07F00120A4EE55BA0
:100C2B006007120A45155B800B300503120A45D08D
:100C3B00E0020A9FD0E00480C5120DA760A0E55B1F
:100C4B00041204037858EAF6E55B20050260010400
:050C5B002404120DC489
:100C600074FF04C0E0120E4E120A4EE55B2005022E
:100C70006003120A45D0E0B55BE87F45120A587858
:100C800058E67F2B30E7047F2DF404C0E0120A669B
:100C9000D0E075F00A84C0F0120A4FD0E0120A4F7B
:100CA000020A9F791080027908C206C2088008D221
:100CB000D5790A8004790AC2D5E55B047002F55B38
:100CC000E4FAFDFEFF120A2BFC7B08200113120A36
:100CD0002BFD7B1030000A120A2BFE120A2BFF7B21
:100CE00020EC3382D592D55013C3E43000069FFF29
:100CF000E49EFEE42001039DFDE49CFCE4CBF8C2ED
:100D000001EC700CCFCECDCCE824F8F870F380174E
:100D1000C3EF33FFEE33FEED33FDEC33FCEB33FB7F
:100D2000994002FB0FD8E9EB300105F8D0E0C44848
:100D3000B201C0E00AEC4D4E4F78207B0070C2EA51
:100D4000B55B0040BCC0E0120DC6D0F0D0E0200181
:100D500004C4C0E0C4B201C0F0120A4FD0F0D5F014
:100D6000EB020A9F1209B50B3C530CA3580B0D4C18
:100D70000B09420CA74F0CAF440CAF490B22430C9C
:100D8000B5550BE6460C44450BB0470E7B500B1196
:100D90002D0B152E0B382B0B19230B36200E642A26
:100DA0000AD14800000B30E55BB4FF03755B061207
:100DB0000A2BFC120A2BFD120A2BFE120A2BFF78BB
:100DC00051020432790AA2D5200314300509B91062
:100DD000020404B9080104A2D5200602500104202F
:100DE00002689202B55A005034C0E07F20300319E7
:100DF0007F30A20272067205500F120E1DC202C28F
:100E000006C205C2087F30800F300503E9C0E0123A
:100E10000A66300503D0E0F9D0E0B55ACC300517AA
:100E20007F30B9100C120A667F583004077F788033
:100E300003B90803120A663002057F2D020A667F95
:100E4000202008F87F2B2006F322920280CF7F001B
:100E5000B4070050052451F8E6FF22286E756C6C2B
:100E60002900D201120A2B3001F8C201785A30D57C
:100E70000108F6020AD12D50434958120A2B2403C7
:100E8000B405004001E4900E7693120A57743A12AA
:0A0E90000A57D203755A04020CA39E
:102D0A008F298E288D278C26E4FFFE7D807C3FABA1
:102D1A0029AA28A927A8261202AC7009AF29AE2829
:102D2A00AD27AC2622AF29AE28AD27AC261203D890
:102D3A00FBAF2DAE2CAD2BAC2A1203D8FFBF010876
:102D4A00E4FFFE7D807C3F22EF64046022EB640492
:102D5A00601DBB0127E4FFFEFDFCAB2DAA2CA92BAD
:102D6A00A82A1202AC60084006E4FFFEFDFC2274A9
:102D7A00FFF52DF52CF52BF52A022E18E4F52EF584
:102D8A002FFFFEFDFCAB29AA28A927A8261202AC10
:102D9A00504BAF2DAE2CAD2BAC2A1203578E2E8F73
:102DAA002FAC2EAD2FEC12031EC8ECC8C9EDC9CA50
:102DBA00EECACBEFCBAF2DAE2CAD2BAC2A12001145
:102DCA00E4FBFAF9F81202AC70A5AF29AE28AD27D8
:102DDA00AC261203F28F298E288D278C26AF29AEB6
:102DEA0028AD27AC261229BCAB2DAA2CA92BA82AC0
:102DFA0012010612328A8F2D8E2C8D2B8C2AE52FEA
:102E0A0030E00B1203F28F2D8E2C8D2B8C2AAF2DD6
:072E1A00AE2CAD2BAC2A2207
:10038E00E9D2E7C933E833F892D5EDD2E7CD33ECB5
:07039E0033FC5002B2D5222E
:1003A500EC30E7100FBF000C0EBE00080DBD0004B9
:1003B5000BEB6014A2D5EB13FCED92E7FD2274FF65
:1003C500FCFDFEFF22E480F8A2D574FF13FC7D80BE
:0303D500E480EFD2
:1003D800ED33EC33601004700FED547F7005740238
:0A03E80092E0227404220422E422B1
:1003F200ED33EC33600A047003BD8004ECB2E7FC19
:0104020022D7
:10040300F920E72824F950037907E4F42402FB18C0
:10041300DBFDE624FB5014E9600DE4F618E604F670
:0F042300B40A08E4F6D9F57401F60A22C2D5220C
:10043200ED33EC3392D5FA602AB4FF33EDC2E77B99
:10044200FF60067A047957E4227A04796020D504A1
:100452007A04795B224E614E002B494E46002D49AB
:100462004E4600E47A08F608DAFC7B00740722E8BC
:10047200C0E0ECC0E0EDC0E0EEC0E0EFC0E0EA7545
:10048200F010A4CAABF075F04DA42BFBE435F0FCE0
:10049200EA2410FAEB34C5FBEC34D9FCEDC2E7FFD9
:1004A20075F056A4F42411C5F0F434C58FF0A42AD3
:1004B200E5F03BE43CF620E714120565D0E0FFD0FE
:1004C200E0FED0E0FDD0E0FC12020F8014F4041232
:1004D2000565D0E0FFD0E0FED0E0FDD0E0FC1201E7
:1004E20006D0E0F8E6FAEDD2E7CD33EC332482FB16
:1004F200E4C3CF33CFCE33CECD33CD33DBF37B0763
:1005020075F00A846004F6081B0AE5F0F6088FF01D
:10051200740AA4FFACF08EF0740AA42CFEACF05066
:10052200010C8DF0740AA42CFDE435F0F608DBDE34
:0305320074072229
:1032520033DA929E35B16011377FE5FE39218489D8
:103262003AAEC3FF3C1D955B3D6358473E75FDF08A
:103272003F3172183F800000C2D50203CD0203C362
:10328200BD80FA50F30203CAED33EC330460F17BE4
:103292003B7AAA79B8783F120106ED33EC3392D526
:1032A200247B5011A2D570DB500BED4480240450D6
:1032B20004A2D580CEEFFBEEFAEDF9ECF81203573B
:1032C200EFF582F404FC120323120015C08290323F
:1032D2005274091205B4ED33CC33D0F092D525F0F7
:0A32E200A2D57001C313CC13FD2226
:102988003E9248DA3ECCCCCD3F2AAAAB40000000AC
:102998003F8000003F9837F03FB504F33FD744FC31
:1029A8003E3172173EB172173F0515913EDE5BD975
:1029B800D2098002C209EDD2E7F8CD33EC330470B6
:1029C8000BBD800592D50203CD0203C340FBD3148F
:1029D80060F2F5F07C3FEE7A00C39496C8948B4081
:1029E800230AC89469C8941A401A0AC89468C894F3
:1029F8001F40110AC8945AC89425400805F07A0067
:102A0800CDC2E7CDC0F08C308D318E328F33EA23C2
:102A180023C0E02498F582E43429F58312094C1286
:102A28000015ECC0E0EDC0E0EEC0E0EFC0E0120938
:102A38003CA830A931AA32AB33120011D0E0FBD048
:102A4800E0FAD0E0F9D0E0B2E7F812020F8C308D4E
:102A5800318E328F3390298874031205A5A830A9C6
:102A680031AA32AB33120106D0E0600F24A4F582FC
:102A7800E43429F58312094C1200158C308D318EFF
:102A8800328F33D0E0C3947FFDE49400FC12031E20
:102A98007B187A727931783F120106A830A931AAD9
:102AA80032AB3312001530090B7BD97A5B79DE78AB
:052AB8003E12010622A0
:100535003F8000004120000042C80000447A0000CE
:10054500461C400047C35000497424004B18968050
:100555004CBEBC205A0E1BCA6753C21C749DC5AE47
:10056500FB60065407601C2323120593EB54386087
:100575000912057F12058E120106ECF8EDF9EEFA67
:10058500EFCB22EB12058E80F1543803241C900525
:1005950035FE93FC0EEE93FD0EEE930ECE93FF22E9
:1005A500C0E0EFFBEEFAEDF9ECF8120106D0E0F54C
:1005B500F0EFFBEEFAEDF9ECF812093CA3A3A3A3C7
:1005C500E8C0E0E9C0E0EAC0E0EBC0E0C0F012013D
:1005D5000612094CA3A3A3A3120015D0F0D0E0FB8B
:0D05E500D0E0FAD0E0F9D0E0F8D5F0D42253
:0300000002349F28
:0C349F00787FE4F6D8FD7581680234E601
:1005F200E709F608DFFA8046E709F208DFFA803EEB
:1006020088828C83E709F0A3DFFA8032E309F608D7
:10061200DFFA8078E309F208DFFA807088828C833F
:10062200E309F0A3DFFA806489828A83E0A3F608F3
:10063200DFFA805889828A83E0A3F208DFFA804CCD
:1006420080D280FA80C680D4806980F280338010A4
:1006520080A680EA809A80A880DA80E280CA80330D
:1006620089828A83ECFAE493A3C8C582C8CCC58385
:10067200CCF0A3C8C582C8CCC583CCDFE9DEE78055
:100682000D89828A83E493A3F608DFF9ECFAA9F0D4
:10069200EDFB2289828A83ECFAE0A3C8C582C8CC2A
:1006A200C583CCF0A3C8C582C8CCC583CCDFEADE43
:1006B200E880DB89828A83E493A3F208DFF980CCA5
:1006C20088F0EF60010E4E60C388F0ED2402B4049E
:1006D2000050B9F582EB2402B4040050AF23234545
:0606E20082239006427322
:1006E800BB010689828A83E0225002E722BBFE0210
:0906F800E32289828A83E4932243
:10070100BB010CE58229F582E5833AF583E02250AD
:1007110006E92582F8E622BBFE06E92582F8E222F7
:0D072100E58229F582E5833AF583E4932211
:10072E00BB010689828A83F0225002F722BBFE01AA
:02073E00F322A4
:10074000F8BB010DE58229F582E5833AF583E8F0EF
:10075000225006E92582C8F622BBFE05E92582C89B
:02076000F22283
:10076200BC000BBE0029EF8DF084FFADF022E4CC7B
:10077200F875F008EF2FFFEE33FEEC33FCEE9DEC44
:10078200984005FCEE9DFE0FD5F0E9E4CEFD22ED8A
:10079200F8F5F0EE8420D21CFEADF075F008EF2FD4
:1007A200FFED33FD4007985006D5F0F222C398FDC5
:0507B2000FD5F0EA2262
:1007B700E88FF0A4CC8BF0A42CFCE98EF0A42CFCE1
:1007C7008AF0EDA42CFCEA8EF0A4CDA8F08BF0A45F
:1007D7002DCC3825F0FDE98FF0A42CCD35F0FCEBBE
:1007E7008EF0A4FEA9F0EB8FF0A4CFC5F02ECD3983
:0F07F700FEE43CFCEAA42DCE35F0FDE43CFC22F0
:1008060075F008758200EF2FFFEE33FECD33CDCCA9
:1008160033CCC58233C5829BED9AEC99E58298402C
:100826000CF582EE9BFEED9AFDEC99FC0FD5F0D609
:10083600E4CEFBE4CDFAE4CCF9A88222B800C1B933
:100846000059BA002DEC8BF084CFCECDFCE5F0CB71
:10085600F97818EF2FFFEE33FEED33FDEC33FCEBAA
:1008660033FB10D703994004EB99FB0FD8E5E4F965
:10087600FA227818EF2FFFEE33FEED33FDEC33FC52
:10088600C933C910D7059BE99A4007EC9BFCE99A46
:10089600F90FD8E0E4C9FAE4CCFB2275F010EF2F8B
:1008A600FFEE33FEED33FDCC33CCC833C810D7078B
:1008B6009BEC9AE899400AED9BFDEC9AFCE899F8C6
:0E08C6000FD5F0DAE4CDFBE4CCFAE4C8F92259
:0E08D400C3E49FFFE49EFEE49DFDE49CFC2235
:1008E200EB9FF5F0EA9E42F0E99D42F0EC6480C88D
:0608F20064809845F0222D
:1008F800EB9FF5F0EA9E42F0E99D42F0E89C45F056
:0109080022CC
:10090900E8600FECC313FCED13FDEE13FEEF13FFCC
:03091900D8F122F0
:10091C00BB010789828A83020A135005E9F8020A8F
:10092C0007BBFE05E9F8020A1F89828A8302093C8B
:10093C00E493FC740193FD740293FE740393FF2201
:10094C00E493F8740193F9740293FA740393FB2201
:0C095C00ECF0A3EDF0A3EEF0A3EFF0220E
:10096800A8828583F0D083D08212097F12097F1272
:10097800097F12097FE473E493A3C583C5F0C58397
:10098800C8C582C8F0A3C583C5F0C583C8C582C8D9
:01099800223C
:0C099900A42582F582E5F03583F5832269
:1009A500FAE6FB0808E6F925F0F618E6CA3AF62253
:1009B500D083D082F8E4937012740193700DA3A3D1
:1009C50093F8740193F5828883E4737402936860E5
:0609D500EFA3A3A380DFE5
:103BD200EFB40A07740D123BDD740A309811A899EC
:103BE200B8130CC2983098FDA899C298B811F63053
:073BF20099FDC299F599222B
:1009DB00EF4E6012EF60010EEDBB010B89828A8333
:1009EB00F0A3DFFCDEFA2289F05007F709DFFCA940
:0C09FB00F022BBFEFCF309DFFCA9F02297
:1034AB000232ECE493A3F8E493A34003F68001F219
:1034BB0008DFF48029E493A3F85407240CC8C33322
:1034CB00C4540F4420C8834004F456800146F6DFF1
:1034DB00E4800B0102040810204080903774E47ED6
:1034EB00019360BCA3FF543F30E509541FFEE493E6
:1034FB00A360010ECF54C025E060A840B8E493A3AD
:10350B00FAE493A3F8E493A3C8C582C8CAC583CAD7
:10351B00F0A3C8C582C8CAC583CADFE9DEE780BE8F
:0137CC0000FC
:0C0A0700E6FC08E6FD08E6FE08E6FF221B
:0C0A1300E0FCA3E0FDA3E0FEA3E0FF2256
:0C0A1F00E2FC08E2FD08E2FE08E2FF2213
:00000001FF
