:10233E00256600544F525200455900256620202034
:10234E00000000000000000000000000000000007F
:0B1E200044015C0000000041015B0079
:10243000E4F59A759B20759C05759D03759E042295
:1011A80090000D7474F0A3E4F078137C007D017B4B
:1011B800FF7A23794FFE7F0A12062390001D12073B
:1011C800E63DF5C28FE4900021F0A3F0900165742C
:1011D800AAF09001667455F09000251207E6000009
:1011E800000090000DE0FEA3E0FF121CD790000E57
:1011F800E0240BFF90000DE03400FEC006C007900D
:1012080000251207E600000000D007D006121CD700
:10121800900021E4F0A304F0900021E0FEA3E0FF99
:10122800C3940BEE940050E8EF7802C333CE33CE6C
:10123800D8F9FF90000EE02FFF90000DE03EFEC0B1
:1012480006C00790001DE0FCA3E0FDA3E0FEA3E0BC
:10125800FF9000251207DAD007D006121CD790009D
:1012680021E0FEA3E07802C333CE33CED8F9FF9055
:10127800000EE02FFF90000DE03ECF24FCCF34FF9E
:10128800FE1221A490000F1207DA90002674FFF0D6
:10129800A37423F0A3743EF090000FE0FCA3E0FDDC
:1012A800A3E0FEA3E0FF9000291207DA7B017A0091
:1012B800791312093A7B017A0079137D011213BC64
:1012C800900021E0FEA3E07802C333CE33CED8F9F4
:1012D800FF90000EE02FFF90000DE03EFE1221A4CB
:1012E80090000F1207DA90002674FFF0A37423F021
:1012F800A3743EF090000FE0FCA3E0FDA3E0FEA382
:10130800E0FF9000291207DA7B017A0079131209AD
:101318003A7B017A007913E4FD1213BC900021E0B6
:10132800FEA3E07802C333CE33CED8F9FF90000E87
:10133800E02FFF90000DE03ECF2404CF3400FE12D2
:1013480021A490000F1207DA90002674FFF0A3740E
:1013580023F0A3743EF090000FE0FCA3E0FDA3E0AF
:10136800FEA3E0FF9000291207DA7B017A007913C7
:1013780012093A7B017A0079137D021213BC90009E
:101388001DE0FCA3E0FDA3E0FEA3E0FFE4FBFA7987
:1013980080783F12001590001D1207DA7FE87E035F
:1013A80012235E900022E004F07006900021E00411
:0413B800F00212200D
:1017BF0078007C007D017BFF7A2379597E007F05BD
:1017CF001206239000051207E600000000900009A2
:1017DF001207E6000000007592F0E4F5937594BFD0
:1017EF00F5957596EEF5975392DF4393204394202A
:1017FF005395DF4392025393FD75800C759040759E
:10180F00A01143802075A88275B802F589F58A75F5
:10181F008C7F758E041221167FF47E0112235E7B5E
:10182F00FF7A2379417D011213BC7FF47E011223CD
:10183F005E7BFF7A2379467D021213BC7FF47E0113
:10184F0012235E1224305390DF43901043881012FE
:10185F0000031211A87F327E0012235E90002674BF
:10186F00FFF0A37423F0A37449F0900005E0FCA3EC
:10187F00E0FDA3E0FEA3E0FF9000291207DA7B0151
:10188F007A00790012093A7B017A0079007D011202
:10189F0013BC4380201223B8AC06AD07E412031E1D
:1018AF007B3A7A077954783C1201069000091207A7
:0318BF00DA809F2D
:1023B800E4FFFE75AB09E5AB20E20843AB04E5ABEF
:0A23C80020E2FBAFAC7E0053ABF740
:0123D20022E8
:03000B000224408C
:0A244000638002758ACF758CAF32FD
:10222D0025362E306C660025352E306C6600253730
:10223D002E316C660025362E316C660025372E3218
:10224D006C660025362E326C660025372E336C6693
:10225D000025362E336C66000000000000000000E3
:101E2B004A00925F503D79726B6F517F735C00B0CB
:101E3B00776E0F7C2F276F76505C360E00645F3702
:0C1E4B0073246B2E5E4C0000723D2000E2
:0924060053A0FB12240F43A004B3
:0E240F00E4FFFE0FBF00010EEF64054E70F5F6
:01241D00229C
:1021160043A00243A00443A00812240F12240FE494
:1021260090009CF0A304F078297C00FDFB7A0079EE
:102136009C7E00121B8C90009D7403F0121B7E90F7
:10214600009D7428F0121B7E90009D7429F0121BCE
:082156007E121B61E4FEFF2272
:02237E00AD07A9
:10238000E4FCED20E70553A0F7800343A0081224E6
:0A23900006ED25E0FD0CECB408E8B2
:01239A002220
:101B610090009C7401F0E49000AEF0A37410F07D3D
:101B7100007E00FF7B017A00799E12085D7E00786D
:101B8100297C007D017B017A00799C7F1412062358
:101B9100E4FB43A00243A00443A00812240F53A076
:101BA100FD12240F12240653A0F7122406900029D7
:101BB100E0700553A0F7800343A0081224069000AB
:101BC10029E0700BA3E0FF12237E1224068048E473
:101BD10090003BF0FB53A0FB90003BE020E7055356
:101BE100A0F7800343A00812240990003BE025E000
:101BF100F00BEBB406DFE4FBEBFFC3740F9FFFE4D4
:101C01009400FE742B2FF58274003EF583E0FF12E1
:101C1100237E0BEBB410E143A00243A00843A004D0
:031C210002240F8B
:10239B00121B61E490009CF0A37402F0121B7EE40C
:0D23AB0090009DF0FE121B807E007F01223D
:08000300121B617E007F012247
:1023ED0090009C7401F0E49000AEF0A37410F07DA9
:0923FD00FF121B727E007F012219
:0C21EA00E0FF900026E0FDA3E0FB14F0F5
:1021F600E4FEEDB40100EDB402027E0BED70027E4A
:1022060005C374059B2EFD3395E0FC749E2DF58267
:1022160074003CF583E05480F0749E2DF5827400C2
:062226003CF583E04FF0DF
:01222C00228F
:101C2400AC07ED7003021CAA24FE604004600302AA
:101C34001CD4ECB40311EB90009FB40106E0448083
:101C4400F08004E0547FF0ECB40211EB9000A0B4F7
:101C54000106E04480F08004E0547FF0EC640170FD
:101C64006FEB9000A1B40102805C8060ECB40311BE
:101C7400EB9000AAB40106E04480F08004E0547FB5
:101C8400F0ECB40211EB9000ABB40106E04480F038
:101C94008004E0547FF0EC64017035EB9000ACB448
:101CA400010280228026ECB40211EB9000A5B4015D
:101CB40006E04480F08004E0547FF0ECB40111EBC2
:101CC4009000A6B40106E04480F08004E0547FF064
:031CD4000223D315
:1016B500EF24FEB4090040030217AD9016CE75F075
:1016C50003A4C58325F0C5837302172602171A02E2
:1016D500173102173C0217470216F60217020217C6
:1016E5000E0216E9ED9000A3B40103021779021763
:1016F500A9ED9000A7B40102807A0217A9ED900028
:10170500A4B40102806E0217A9ED9000A8B40102ED
:1017150080620217A9ED9000A2B40102805602175B
:10172500A9ED90009EB40102804A8078ED9000AD4D
:10173500B40102803F806DED9000A9B401028034B0
:101745008062ED64019000A37030E04480F0900069
:10175500A7E04480F09000A4E04480F09000A8E069
:101765004480F090009EE04480F09000A9E0448021
:10177500F09000ADE04480F0802EE0547FF09000C2
:10178500A7E0547FF09000A4E0547FF09000A8E01B
:10179500547FF090009EE0547FF09000A9E0547FC4
:1017A500F09000ADE0547FF090009C7401F0E4905F
:0A17B50000AEF0A37410F00223D37D
:0619C00090011F1207DA7E
:1019C60078257C017D017BFF7A2279657E007F0880
:1019D600120623900123E014602E14604C14606AF2
:1019E60024036003021A8D900124E0900026700CF7
:1019F60074FFF0A37422F0A3742D806D74FFF0A31E
:101A06007422F0A374348061900124E09000267063
:101A16000C74FFF0A37422F0A3743B800A74FFF0E9
:101A2600A37422F0A374428040900124E090002623
:101A3600700C74FFF0A37422F0A37449800A74FF3B
:101A4600F0A37422F0A37450801F900124E090004C
:101A560026700C74FFF0A37422F0A37457800A74E6
:101A6600FFF0A37422F0A3745EF090011FE0FCA3C4
:101A7600E0FDA3E0FEA3E0FF9000291207DA7B0158
:101A86007A01792512093A7B017A01792590012498
:051A9600E0FD0213BC9D
:0E13BC00900023EBF0A3EAF0A3E9F0A3EDF01C
:1013CA00A37405F0E4A3F0ED700C9000A5E0547F3F
:1013DA00F0A3E0547FF0900026E0FDB402119000E3
:1013EA00AAE0547FF0A3E0547FF0A3E0547FF0ED2D
:1013FA00B4011190009FE0547FF0A3E0547FF0A362
:10140A00E0547FF0900023E0FBA3E0FAA3E0F91296
:10141A000649FF7003021564C3648094B0401AD36E
:10142A00EF648094B95012EF3395E0FE74622FF5A1
:10143A008274003EF5831221EA900023E0FBA3E0C8
:10144A00FAA3E0F9120649B42D069000CA1221EA5D
:10145A00900023E0FBA3E0FAA3E0F9120649B420C6
:10146A0013900026E0FDA3E0FBE4FF1221F69000B2
:10147A0027E014F0900023E0FBA3E0FAA3E0F912BE
:10148A000649FFC3648094C1402AD3EF648094DA8A
:10149A005022EF3395E0FE746F2FF58274003EF50B
:1014AA0083E0FF900026E0FDA3E0FB1221F6900006
:1014BA0027E014F0900023E0FBA3E0FAA3E0F9127E
:1014CA000649642E6003021551900026E0FC64026E
:1014DA007028900028E0FEB402079000AAE0448039
:1014EA00F0EEB403079000ABE04480F0900028E0EF
:1014FA00B404079000ACE04480F0EC6401702890DA
:10150A000028E0FDB4020790009FE04480F0EDB4AB
:10151A0003079000A0E04480F0900028E0B404079C
:10152A009000A1E04480F0900026E0701A90002814
:10153A00E0FDB404079000A6E04480F0EDB4030790
:10154A009000A5E04480F0900028E004F090002488
:10155A00E475F00112070802140E90009C7401F061
:0C156A00E49000AEF0A37410F00223D354
:1023D30090009C7401F078297C00FDFB7A00799CC5
:0A23E3007E007F14120623021B91F6
:041E570041016300E2
:10235E00E4FDFCC3ED9FEC9E5015E4FBFA0BBB00B5
:0F236E00010AEB64A44A70F50DBD00010C80E478
:01237D00223D
:101A9B00E4F990015AF0D281D280D290D291D292B5
:101AAB00E97002C281E9B40102C280E9B40202C248
:101ABB0090E9B40302C291E9B40402C2927F017EA1
:101ACB000012235E20820AE925E025E00490015AEA
:101ADB00F020A40BE925E025E0240290015AF02028
:101AEB00A00BE925E025E0240390015AF020960B8A
:101AFB00E925E025E0240490015AF009E96405701A
:101B0B0095900164E0FF700E90015AE0600890011F
:101B1B00637401F0803790015AE0FEB5070BEE605D
:101B2B00089001637402F08024900164E0600E90D1
:101B3B00015AE070089001637403F0801090016407
:101B4B00E0700A90015AE07004900163F090015A22
:051B5B00E0900164F0C0
:011B60002262
:10226D000000000000000000000000000000000061
:10227D000000000000000000000000000000000051
:10228D000000000000000000000000000000000041
:10229D000000000000000000000000000000000031
:101E5B004400D0000000004200DB00004200D9002B
:101E6B00004100DD01602800DE00000000000000E2
:101E7B000000000000000000000000000000000057
:101E8B000000000000000000000000000000000047
:101E9B00004400D4000000004400CC0000000041CE
:031EAB0000D8005C
:060D58009000531207DABF
:100D5E0078587C007D017BFF7A22796D7E007F289A
:100D6E001206239000801207E640886E559000848C
:100D7E001207E600000000900053E0FCA3E0FDA384
:100D8E00E0FEA3E0FFE412031990008B1207DA9045
:100D9E00008F7406F0E4A3F0A3F090008804F0A393
:100DAE007400F0A374DEF0900080E0FCA3E0FDA3DD
:100DBE00E0FEA3E0FF9000CCE0F8A3E0F9A3E0FA98
:100DCE00A3E0FB12001590008BE0F8A3E0F9A3E07E
:100DDE00FAA3E0FB1202AC60025032900080E0F801
:100DEE00A3E0F9A3E0FAA3E0FB9000CCE0FCA3E0C3
:100DFE00FDA3E0FEA3E0FF12001190008BE0F8A32C
:100E0E00E0F9A3E0FAA3E0FB1202AC505C900057AD
:100E1E00E070569000D8E0FF04F0EFD39402404605
:100E2E00E4F0900090F090008FE014FFA3E0C39FD9
:100E3E004003020F7F90008BE0FCA3E0FDA3E0FED9
:100E4E00A3E0FF900088E0FBA3E0FAA3E0F9900096
:100E5E0090E075F004A4F58285F0831207B6900039
:100E6E0090E004F080C0021199900057E064017088
:100E7E004C9000D8F0900090F090008FE014FFA3FB
:100E8E00E0C39F4003020F7F900053E0FCA3E0FD00
:100E9E00A3E0FEA3E0FFE4120319900088E0FBA399
:100EAE00E0FAA3E0F9900090E075F004A4F58285D5
:100EBE00F0831207B6900090E004F080BC900057CB
:100ECE00E064027055900090F090008FE014FFA344
:100EDE00E0FEC39F4003020F7FEE2401FFE433FECA
:100EEE00EF7802C333CE33CED8F9FF900088E0FB03
:100EFE00A3E0FAA3E0F98F828E8312078690008812
:100F0E00A3A3900090E075F004A4F58285F08312FF
:100F1E0007B6900090E004F080AFE49000D8F09017
:100F2E000090F090008FE014FFA3E0FEC39F5041AD
:100F3E00EE2401FFE433FEEF7802C333CE33CED876
:100F4E00F9FF900088E0FBA3E0FAA3E0F98F828E10
:100F5E0083120786900088A3A3900090E075F0049A
:100F6E00A4F58285F0831207B6900090E004F0801D
:100F7E00B290008BE0FCA3E0FDA3E0FEA3E0FFC077
:100F8E0004C005C006C007A3E024FFFFE434FFFE43
:100F9E00EF7802C333CE33CED8F9FF900088E0FB52
:100FAE00A3E0FAA3E0F98F828E83D007D006D00596
:100FBE00D0041207B6E4900090F090008FE0FFA3EB
:100FCE00E0C39F5037900088E0FBA3E0FAA3E0F95E
:100FDE00900090E075F004A4F58285F083120786E8
:100FEE00900090E025E025E02458F582E43400F5E9
:100FFE00831207DA900090E004F080BEE490009037
:10100E00F090008FE014FFA3E0FEC39F4003021098
:10101E00F2EE04A3F090008FE0FF900091E0FEC38B
:10102E009F40030210E9900090E025E025E024584F
:10103E00F582E43400F583E0F8A3E0F9A3E0FAA327
:10104E00E0FBEE25E025E02458F582E43400F5833C
:10105E00E0FCA3E0FDA3E0FEA3E0FF1202AC607291
:10106E004070900091E0FB25E025E02458F582E4E5
:10107E003400F583E0FCA3E0FDA3E0FEA3E0FF90C7
:10108E0000841207DA900090E0FA25E025E024585B
:10109E00F582E43400F583E0FCA3E0FDA3E0FEA3BB
:1010AE00E0FFEB25E025E02458F582E43400F583DB
:1010BE001207DA900084E0FCA3E0FDA3E0FEA3E0BB
:1010CE00FFEA25E025E02458F582E43400F583128A
:1010DE0007DA900091E004F0021023900090E004F3
:1010EE00F002100F9000CC1207E6000000009000F6
:1010FE00907401F090008FE014FFA3E0FEC39F50A8
:10110E00389000CCE0F8A3E0F9A3E0FAA3E0FBEE00
:10111E0025E025E02458F582E43400F583E0FCA3B5
:10112E00E0FDA3E0FEA3E0FF1200159000CC120735
:10113E00DA900090E004F080BB9000CCE0FCA3E0DD
:10114E00FDA3E0FEA3E0FFC004C005C006C00790EB
:10115E00008FE024FEFDE434FFFCE412031EA8041D
:10116E00A905AA06AB07D007D006D005D0041202F7
:10117E000F9000CC1207DA9000CCE0FCA3E0FDA3A8
:10118E00E0FEA3E0FF9000D41207DA9000CCE0FC62
:09119E00A3E0FDA3E0FEA3E0FFC5
:0111A7002225
:0518C200900106EFF0AB
:1018C700A31207E600000000780B7C017D017BFF77
:1018D7007A2279957E007F1412062330830302193A
:1018E700B1121FC59001071207DA900107E0FCA3A8
:1018F700E0FDA3E0FEA3E0FF78071207539001077E
:101907001207DAE47FFF7EFFFDFC900107E0F8A3F2
:10191700E0F9A3E0FAA3E0FBC3120742606DE47F9E
:10192700FF7EFFFDFC900107E0F8A3E0F9A3E0FAD2
:10193700A3E0FBD3120742900107E04032F8E49B93
:10194700FFE49AFE740299FDE498FC9001071207E0
:10195700DA900107E0F8A3E0F9A3E0FAA3E0FBC3FC
:1019670074F49BFF747E9AFEE499FDE4988015FC5D
:10197700A3E0FDA3E0FEA3E024F4FFEE347EFEE443
:101987003DFDE43CFC9001071207DA900107E0FCFB
:10199700A3E0FDA3E0FEA3E0FF900106E09000575F
:1019A700F0120D589000D01207DA9000D0E0FCA397
:0819B700E0FDA3E0FEA3E0FF48
:0119BF002205
:101FC500784F7C017D017BFF7A2279A97E007F0411
:101FD50012062390014C7401F0A37401F0A3744F11
:101FE500F0208362E4FDFCD284EDAE047803CEC319
:101FF50013CE13D8F9FF2450F58274013EF583E022
:10200500FB25E0F0C28474502FF58274013EF58300
:10201500E0FFA283E433FEEF4EF00DBD00010CEDB1
:1020250064184C70C2D284EDAE047805C333CE3348
:10203500CED8F9FDAC06C28490014CE0FBA3E0FAD2
:06204500A3E0F91207669A
:01204B002272
:01244A00226F
:0A241E00E475F00112071EAFF0FE96
:072428008F828E83E493FF15
:01242F00228A
:0822AD00900153EEF0A3EFF0E5
:1022B5009001577401F0A37401F0A37455F0E4FD87
:1022C50090015312241E900157E0FBA3E475F00121
:1022D50012071EA9F0FAEF12068F0DEDB402E19078
:0722E5000155E0FEA3E0FF3C
:0122EC0022CF
:08215E0090013AEEF0A3EFF04E
:102166009001407401F0A37401F0A3743CF0E4FD07
:1021760090013A12241E900140E0FBA3E475F001A1
:1021860012071EA9F0FAEF12068F0DEDB404E190C6
:0D219600013CE0FCA3E0FDA3E0FEA3E0FFA0
:0121A3002219
:0821A400900030EEF0A3EFF013
:1021AC009000367401F0A37400F0A37432F0E4FDD7
:1021BC0090003012241E900036E0FBA3E475F00171
:1021CC0012071EA9F0FAEF12068F0DEDB404E19080
:0D21DC000032E0FCA3E0FDA3E0FEA3E0FF65
:0121E90022D3
:10204C00AFF0FEE0FBA3E475F00112071EA9F0FA55
:04205C00120649FD22
:10206000E490003BF0900039EEF0A3EFF0A2AF92C5
:1020700000C2AF900039E0F5C3A3E0F5C2AF058F11
:10208000C1E4F5C4F5C5F5C6900165E0B4AA08A39E
:10209000E0B4550375C70312244A75C40575C50A13
:1020A00075C609900165E0B4AA08A3E0B4550375AC
:0D20B000C703E4F5C4F5C5F5C6A20092AF64
:0120BD002200
:1022ED00900162EDF0900160EEF0A3EFF012242862
:1022FD00EFF460089001607D01121578900160E0A7
:0A230D00FEA3E0FFA3E0FD02206044
:101F3B00900145ECF0A3EDF0900143EEF0A3EFF030
:101F4B001222AD90014AEEF0A3EFF090014774011D
:101F5B00F0A37401F0A3744AF0900147E0FBA3E4F3
:101F6B0075F00112071EA9F0FA120649B4FF16907C
:101F7B000147E0FBA3E475F00112071EA9F0FA126A
:101F8B000649F4600F900143E0FEA3E0FF7D027C65
:101F9B000012157F9001477401F0A37401F0A37434
:101FAB0045F0E4FC900143E475F00112071E90012B
:091FBB004712204C0CECB402EBBF
:011FC40022FA
:081D7D0090012DEEF0A3EFF040
:101D850012215E9001361207DA9001337401F0A337
:101D95007401F0A37436F0900133E0FBA3E475F011
:101DA5000112071EA9F0FA120649B4FF4290013349
:101DB500E0FBA3E475F00112071EA9F0FA1206492B
:101DC500B4FF2C900133E0FBA3E475F00112071E6C
:101DD500A9F0FA120649B4FF16900133E0FBA3E41B
:101DE50075F00112071EA9F0FA120649B4FF069014
:101DF500012D1215769001337401F0A37401F0A33F
:101E0500742FF0E4FC90012DE475F00112071E908B
:0A1E1500013312204C0CECB404EB76
:011E1F0022A0
:081CD700900023EEF0A3EFF0F2
:101CDF001221A490002C1207DA9000297401F0A3AE
:101CEF007400F0A3742CF0900029E0FBA3E475F0CE
:101CFF000112071EA9F0FA120649B4FF42900029FB
:101D0F00E0FBA3E475F00112071EA9F0FA120649D1
:101D1F00B4FF2C900029E0FBA3E475F00112071E1D
:101D2F00A9F0FA120649B4FF16900029E0FBA3E4CC
:101D3F0075F00112071EA9F0FA120649B4FF0690BA
:101D4F0000231215769000297401F0A37400F0A3FC
:101D5F007425F0E4FC900023E475F00112071EAF28
:0D1D6F00F0FE90002912204F0CECB404E8A7
:011D7C002244
:1020BE00E4900039F0A3EEF0A3EFF0A2AF9200C2CD
:1020CE00AF90003AE0F5C3A3E0F5C2E4F5C4F5C560
:1020DE00F5C6900165E0B4AA08A3E0B4550375C730
:1020EE000312244A75C40575C50A75C609900165A3
:1020FE00E0B4AA08A3E0B4550375C70CE4F5C4F523
:07210E00C5F5C6A20092AF67
:0121150022A7
:091576007D04E0FEA3E0FF7C000F
:10157F00900032ECF0A3EDF0900030EEF0A3EFF01E
:10158F00E4900034F0A3F0A3F0A37404F0A3E4F00C
:10159F00FD7C041206B37D007C041206A1AA06ABE3
:1015AF0007E4900035F0A3F0900035E0FEA3E0FFD4
:1015BF00C3940AEE94005025E42FFFEE3468FE1218
:1015CF002428EFF460077F007E681220BE9000365B
:1015DF00E004F070D3900035E004F080CBE490008D
:1015EF0035F0A3F0900037E0FEA3E0FF900035E068
:1015FF00FCA3E0FDC39FEC9E5056ED2BFFEC3AFE93
:10160F00900030E0B50617A3E0B50712A3E0FEA3E4
:10161F00E0FF900036E02FF0900035E03EF09000B4
:10162F0036E02BFF900035E03AFE122428AD0790EC
:10163F000036E02400FF900035E03468FE12206091
:10164F00900036E004F0709C900035E004F0809438
:10165F00AF03AE021220BEE4900035F0A3F090006D
:10166F0037E0FEA3E0FF900035E0FCA3E0FDC39F51
:10167F00EC9E502BE42DFFEC3468FE122428AD07AE
:10168F00900036E02BFF900035E03AFE122060907C
:10169F000036E004F070C7900035E004F080BF7FA3
:0616AF00007E680220BE6F
:10000E0002038CE86480F8E933E83360110460F091
:10001E00ED33EC337009E8FCE9FDEAFEEBFF220458
:10002E0060DED3EB9FEA9EE99DE8C2E78CF0C2F753
:10003E0095F0400CE8CCF8E9CDF9EACEFAEBCFFB1F
:10004E0012035785D0F05804700320D5B3E804701E
:10005E00075002B2D502039692D5EC0460F7E4CCB9
:10006E00C0E0C398F8603B94186008400DD0E0FBE8
:10007E0002036EE4FBFAC9FC8028E830E406E4C90A
:10008E00FBE4CAFCE830E305E4C9CACBFCE854073C
:10009E006010F8C3E913F9EA13FAEB13FBEC13FC47
:1000AE00D8F130F52FC3E49CFCEF9BFFEE9AFEEDEA
:1000BE0099FDD0E0FBEF4E4D4C701222DB03020394
:1000CE0093EC2CFCEF33FFEE33FEED33FDED30E71A
:1000DE00EB02036EEF2BFFEE3AFEED39FDD0E0FBA7
:1000EE0050130BBB0003020396ED13FDEE13FEEF50
:0800FE0013FFEC13FC02036E7A
:10010600EC4D6011E8497017ED33EC3304600DE4F3
:10011600FCFFFEFD22E933E8330470F802038C127B
:10012600035758046009E4CC24815006285009027C
:100136000396284003020393C0E0EB4A7044B9805B
:1001460006D0E0FB020382EF4E701CBD8008EBFF79
:10015600EAFEE9FD80EBE98DF0A4FEE5F00201EF91
:10016600E9CDF9EAFEEBFFEF89F0A4FCE5F0CE89D4
:10017600F0A42EFFE435F0CD89F0A42DFEE435F091
:100186008067EF4E7005BD80D780C3EF8BF0A4ACBF
:10019600F0EE8BF0A42CFCE435F0F8EF8AF0A42CFA
:1001A600E5F038FCE433CB8DF0A42CFCE5F03BF80D
:1001B600EE8AF0A42CFCE5F038F8E433CF89F0A4FD
:1001C6002CFCE5F038CF3400CE89F0A42FFFE5F003
:1001D6003EFEE433C98DF0A42EFEE5F039CD8AF05B
:1001E600A42FFFE5F03EFEE43DFD33D0E0FB5007D3
:1001F6000BBB000F020396EC2CFCEF33FFEE33FE35
:06020600ED33FD02036E62
:10020C00020396EC5D046005E85904700302038C4C
:10021C00120357580460F6EC4860F2EC7004FDFED3
:10022C00FF22C860DB2481C85009C39860025006C5
:10023C000203939850CAF582E9294B4A7005AB82A8
:10024C0002038275F0007C1A7880C3EF9BEE9AED66
:10025C0099400DC3EF9BFFEE9AFEED99FDE842F03D
:10026C00DC23ACF0D0E0FFD0E0FED0E0FDAB822090
:10027C00E7101BEB60BAEC2CFCEF33FFEE33FEED1A
:10028C0033FD02036EE803F830E705C0F075F000AB
:10029C00EF2FFFEE33FEED33FD40B830E7C280AAFE
:1002AC0074F8CC6480CCC86480C8F582046043C305
:1002BC00EB9FF5F0EA9E42F0E99D42F0E89C45F098
:1002CC0060305018E5825FFFE582F42B5582FB50BD
:1002DC00210ABA001D09B90019088016E5825BFBDA
:1002EC00E582F42F5582FF50090EBE00050DBD00AE
:1002FC00010CC3EB9FF5F0EA9E42F0E99D42F0E859
:0D030C009C45F06007CC4820E701B3EC22CF
:1003190075F020800E75F010800575F0087D007E5F
:10032900007F003392D530D503120734EC334010E7
:10033900EF33FFEE33FEED33FDEC33FCD5F0ED2268
:0E034900E5F0247EA2D513CC92E7CDCEFF22A4
:1008D500E5082426F582E43400F583E00508229036
:1008E5000023300703900026E475F0011208170273
:1008F50006492000E97F2ED2008018EF540F24907E
:10090500D43440D4FF30040BEF24BFB41A00500395
:100915002461FFE50960021509050CE50C70020567
:100925000B30070E900023E475F001120817EF0253
:10093500068F0223177403D2078003E4C207F50864
:1009450090002312082EE4F509F50BF50CE5096076
:10095500077F2012091880F5750AFFC201C200C27F
:1009650002C203C205C206C2081208E4FF700D30B8
:1009750007057F00120929AF0CAE0B22B4255FC213
:10098500D5C2041208E4FF24D0B40A00501A75F049
:100995000A780930D50508B6FF0106C6A426F62053
:1009A500D5047002D20380D924CFB41A00EF5004C5
:1009B500C2E5D204020C1BD20180C6D20080C0D28F
:1009C5000280BCD2D580BAD20580B47F2012091826
:1009D5002002077401B5090040F11208D5FF12097C
:1009E50018020952D208D20680951208D5FB1208C2
:1009F500D5FA1208D5F94A4B700679197A0D7BFF9D
:100A050020022EE509602A7E008E8275830012067B
:100A15006260060EEE650A70F0C2D5EBC0E0EAC072
:100A2500E0E9C0E0EE120C7CD0E0F9D0E0FAD0E0CD
:100A3500FB120649FF60AAEBC0E0EAC0E0E9C0E0AE
:100A4500120918D0E02401F9D0E03400FAD0E0FB17
:100A5500E50A0460DCD50AD98087D20280A2120C8F
:100A65005E60F7E50A7001041203A1A90A600DE5AD
:100A75000A600914F50A120D06EF60F3EA30E70281
:100A8500F404C3995079EAF4250A0430E701E40433
:100A9500F50A800D120C5E60C1EA050A250A1203EB
:100AA500A1EA900052F030E701E4250A04D50A04D2
:100AB50020050114120C7CE4C0E0120D06900052D2
:100AC500E0601320E70714F0120900802204F0D03B
:100AD500E014C0E07F00120900E50A60071208F77C
:100AE500150A800B3005031208F7D0E0020952D031
:100AF500E00480C4120C5E609EE50A041203A19016
:100B05000052EAF0E50A2005026001042404120CF3
:010B15007C63
:100B160074FF04C0E0120D06120900E50A20050262
:100B260060031208F7D0E0B50AE87F4512090A907B
:100B36000052E07F2B30E7047F2DF404C0E0120959
:100B460018D0E075F00A84C0F0120901D0E012094D
:100B560001020952791080027908C206C20880088B
:100B6600D2D5790A8004790AC2D5E50A047002F55D
:100B76000AE4FAFDFEFF1208D5FC7B0820011312D9
:100B860008D5FD7B1030000A1208D5FE1208D5FFE5
:100B96007B20EC3382D592D55013C3E43000069FF8
:100BA600FFE49EFEE42001039DFDE49CFCE4CBF8FB
:100BB600C201EC700CCFCECDCCE824F8F870F380EF
:100BC60017C3EF33FFEE33FEED33FDEC33FCEB33AF
:100BD600FB994002FB0FD8E9EB300105F8D0E0C4E1
:100BE60048B201C0E00AEC4D4E4F78207B0070C23F
:100BF600EAB50A0040BCC0E0120C7ED0F0D0E0207E
:100C06000104C4C0E0C4B201C0F0120901D0F0D59D
:100C1600F0EB02095212083709EF530B5A5809C074
:100C26004C09BC420B5E4F0B66440B664909D54323
:100C36000B6C550A99460AF9450A63470D3950095E
:100C4600C42D09C82E09EB2B09CC2309E9200D2256
:100C56002A098448000009E3E50AB4FF03750A0679
:100C66001208D5FC1208D5FD1208D5FE1208D5FFCC
:100C760090004B0203DE790AA2D520031430050941
:100C8600B910020404B9080104A2D52006025001D5
:100C9600042002689202B509005034C0E07F20307B
:100CA60003197F30A20272067205500F120CD5C2CC
:100CB60002C206C205C2087F30800F300503E9C0B4
:100CC600E0120918300503D0E0F9D0E0B509CC30C0
:100CD60005177F30B9100C1209187F583004077FAA
:100CE600788003B908031209183002057F2D02091E
:100CF600187F202008F87F2B2006F322920280CF4F
:100D06007F00B40700500B244BF582E43400F583D2
:100D1600E0FF22286E756C6C2900D2011208D530CE
:100D260001F8C201780930D50108F60209842D5070
:100D36004349581208D52403B405004001E4900D38
:100D46003493120909743A120909D2037509040287
:020D56000B5A36
:10035700E9D2E7C933E833F892D5EDD2E7CD33ECEC
:0703670033FC5002B2D52265
:10036E00EC30E7100FBF000C0EBE00080DBD0004F0
:10037E000BEB6014A2D5EB13FCED92E7FD2274FF9C
:10038E00FCFDFEFF22E480F8A2D574FF13FC7D80F5
:03039E00E480EF09
:1003A100F920E73624F950037907E4F42402FBE548
:1003B10082158270021583DBF6E024FB501BE96095
:1003C10014E4F0E582158270021583E004F0B40AAA
:0D03D10008E4F0D9EE7401F00A22C2D52232
:1003DE00ED33EC3392D5FA602AB4FF33EDC2E77BEE
:1003EE00FF60067A047903E4227A04790C20D5049E
:1003FE007A047907224E614E002B494E46002D4954
:10040E004E4600E47A08F0A3DAFC7B00740722C0A3
:10041E0083C082ECC0E0EDC0E0EEC0E0EFC0E0EAE9
:10042E0075F010A4CAABF075F04DA42BFBE435F0BB
:10043E00FCEA2410FAEB34C5FBEC34D9FCEDC2E730
:10044E00FF75F056A4F42411C5F0F434C58FF0A452
:10045E002AE5F03BE43CF020E714120513D0E0FF50
:10046E00D0E0FED0E0FDD0E0FC12020F8014F404C8
:10047E00120513D0E0FFD0E0FED0E0FDD0E0FC127C
:10048E000106D082D083E0FAEDD2E7CD33EC3324EF
:10049E0082FBE4C3CF33CFCE33CECD33CD33DBF3BC
:1004AE007B0775F00A846004F0A31B0AE5F0F0A345
:1004BE008FF0740AA4FFACF08EF0740AA42CFEAC7C
:1004CE00F050010C8DF0740AA42CFDE435F0F0A36D
:0504DE00DBDE740722C3
:1004E3003F8000004120000042C80000447A000021
:1004F300461C400047C35000497424004B189680A3
:100503004CBEBC205A0E1BCA6753C21C749DC5AE99
:10051300FB60065407601C2323120541EB5438602B
:100523000912052D12053C120106ECF8EDF9EEFA5D
:10053300EFCB22EB12053C80F1543803241C9004CA
:10054300E3FE93FC0EEE93FD0EEE930ECE93FF228D
:03000000021EAF2E
:0C1EAF00787FE4F6D8FD758121021EF654
:10055300E709F608DFFA8046E709F208DFFA803E8A
:1005630088828C83E709F0A3DFFA8032E309F60877
:10057300DFFA8078E309F208DFFA807088828C83DF
:10058300E309F0A3DFFA806489828A83E0A3F60893
:10059300DFFA805889828A83E0A3F208DFFA804C6D
:1005A30080D280FA80C680D4806980F28033801044
:1005B30080A680EA809A80A880DA80E280CA8033AD
:1005C30089828A83ECFAE493A3C8C582C8CCC58325
:1005D300CCF0A3C8C582C8CCC583CCDFE9DEE780F5
:1005E3000D89828A83E493A3F608DFF9ECFAA9F074
:1005F300EDFB2289828A83ECFAE0A3C8C582C8CCCA
:10060300C583CCF0A3C8C582C8CCC583CCDFEADEE2
:10061300E880DB89828A83E493A3F208DFF980CC44
:1006230088F0EF60010E4E60C388F0ED2402B4043D
:100633000050B9F582EB2402B4040050AF232345E4
:0606430082239005A37361
:10064900BB010689828A83E0225002E722BBFE02AF
:09065900E32289828A83E49322E2
:10066200BB010CE58229F582E5833AF583E022504D
:1006720006E92582F8E622BBFE06E92582F8E22297
:0D068200E58229F582E5833AF583E49322B1
:10068F00BB010689828A83F0225002F722BBFE014A
:02069F00F32244
:1006A100EF8DF0A4A8F0CF8CF0A428CE8DF0A42E6D
:0206B100FE2227
:1006B300BC000BBE0029EF8DF084FFADF022E4CC2B
:1006C300F875F008EF2FFFEE33FEEC33FCEE9DECF4
:1006D300984005FCEE9DFE0FD5F0E9E4CEFD22ED3A
:1006E300F8F5F0EE8420D21CFEADF075F008EF2F84
:1006F300FFED33FD4007985006D5F0F222C398FD75
:050703000FD5F0EA2211
:10070800C5F0F8A3E028F0C5F0F8E582158270027C
:060718001583E038F02219
:10071E00A3F8E0C5F025F0F0E5821582700215838E
:06072E00E0C838F0E822EB
:0E073400C3E49FFFE49EFEE49DFDE49CFC22D6
:10074200EB9FF5F0EA9E42F0E99D42F0E89C45F00D
:010752002284
:10075300E8600FECC313FCED13FDEE13FEEF13FF84
:03076300D8F122A8
:10076600BB010789828A830208955005E9F80208C9
:1007760089BBFE05E9F80208A189828A830208ADD1
:10078600BB010DE58229F582E5833AF583020895DA
:100796005007E92582F8020889BBFE07E92582F899
:1007A6000208A1E58229F582E5833AF5830208ADC0
:1007B600BB010DE58229F582E5833AF5830207DA66
:1007C6005007E92582F80208BDBBFE07E92582F835
:0407D6000208C9222A
:0C07DA00ECF0A3EDF0A3EEF0A3EFF02292
:1007E600A8828583F0D083D0821207FD1207FD12FE
:1007F60007FD1207FDE473E493A3C583C5F0C58323
:10080600C8C582C8F0A3C583C5F0C583C8C582C85C
:0108160022BF
:10081700F8E0FBA3A3E0F925F0F0E582158270026A
:070827001583E0FA38F0220E
:09082E00EBF0A3EAF0A3E9F022CB
:10083700D083D082F8E4937012740193700DA3A350
:1008470093F8740193F5828883E473740293686064
:06085700EFA3A3A380DF64
:10231700EFB40A07740D122322740A309811A89992
:10232700B8130CC2983098FDA899C298B811F63026
:0723370099FDC299F59922FE
:10085D00EF4E6012EF60010EEDBB010B89828A83B2
:10086D00F0A3DFFCDEFA2289F05007F709DFFCA9BF
:0C087D00F022BBFEFCF309DFFCA9F02216
:101EBB000217BFE493A3F8E493A34003F68001F267
:101ECB0008DFF48029E493A3F85407240CC8C33328
:101EDB00C4540F4420C8834004F456800146F6DFF7
:101EEB00E4800B0102040810204080901E20E47E49
:101EFB00019360BCA3FF543F30E509541FFEE493EC
:101F0B00A360010ECF54C025E060A840B8E493A3B2
:101F1B00FAE493A3F8E493A3C8C582C8CAC583CADD
:101F2B00F0A3C8C582C8CAC583CADFE9DEE780BE95
:011EAE000033
:0C088900E6FC08E6FD08E6FE08E6FF229B
:0C089500E0FCA3E0FDA3E0FEA3E0FF22D6
:0C08A100E2FC08E2FD08E2FE08E2FF2293
:1008AD00E493FC740193FD740293FE740393FF2291
:0C08BD00ECF608EDF608EEF608EFF62267
:0C08C900ECF208EDF208EEF208EFF2226B
:00000001FF
