:104DD100464F525200455900464143544F00256405
:104DE100202000256620202000256600000000000C
:0D4DF10000000000000000000000000000B5
:104407004402540000000041024F004402500000E3
:09441700000044025800000000FE
:103CBD00781E7C017D017BFF7A4D79ED7E007F07BB
:103CCD001206D2900125120926000000009001294C
:103CDD0012092600000000E490012DF0A3F0124F10
:103CED0066124EE9124FC4124EB2124F7D124EB2F1
:103CFD00124C1B7BFF7A4D79D17D011233B5124FDA
:103D0D00927F2C7E01124E287BFF7A4D79D67D0253
:103D1D001233B57BFF7A4D79D9E4FD1233B57FB8F7
:103D2D007E0B124E281200031227BE12433490014F
:103D3D004074FFF0A3744DF0A374DFF09001D6E052
:103D4D00FF900143E4F0A3EFF07B017A01791E129D
:103D5D000B537B017A01791EE4FD1233B57B017A99
:103D6D0001791E7D021233B57F327E00124E28E49A
:103D7D00FF12414B90012512091A90014074FFF07A
:103D8D00A3744DF0A374E4F0900125E0FCA3E0FDD5
:103D9D00A3E0FEA3E0FF90014312091A7B017A0113
:103DAD00791E120B537B017A01791E7D011233B5F9
:103DBD00438020124ECEAC06AD07E412031E7B3AB3
:103DCD007A077954783C12010690012912091A904C
:103DDD000125E0FCA3E0FDA3E0FEA3E0FF9001338D
:0C3DED007402F0E4A3F0123F22023D3803
:104EB2005390DF5390EF4394205395DFE4F59A75B6
:0C4EC2009BA0759C6C759D50759E042291
:104F6600C2AF75AA0575AA0A75A91FD2AF75AA059B
:074F760075AA0A75A91F22AC
:104EE90075800C75904075A0117592F0E4F5937575
:0A4EF90094BFF5957596EEF597222B
:0A4FC4005392DF4393204380202224
:104F7D0075A88275B802E4F589F58A758C7F758EF2
:054F8D0004438810221E
:104ECE00E4FFFE75AB09E5AB20E20843AB04E5ABAE
:0A4EDE0020E2FBAFAC7E0053ABF7FF
:014EE80022A7
:03000B0002466446
:10466400C0E0C083C082C0D09001D9E06012900144
:10467400EDE4F0A374C8F09001DA7401F0A3E4F05F
:104684009001E5E060159001EF740FF0A374A0F0C1
:104694009001E5E4F0A304F0A3E4F09001DAE06013
:1046A400369001D9E0B40105E4F0439010D39001B1
:1046B400EEE094009001EDE064809480400EA3E06D
:1046C40024FFF09001EDE034FFF0800B9001DAE478
:1046D400F0A304F05390EF9001E6E06025D390013D
:1046E400F0E094009001EFE09400400EA3E024FF7A
:1046F400F09001EFE034FFF080089001E6E4F0A3CD
:1047040004F0758ACF758CB5438810D0D0D082D090
:0447140083D0E0323C
:102FD4009002397474F0A3E4F0783F7C027D017BA5
:102FE400FF7A4D79F4FE7F0A1206D2900249120943
:102FF400263DF5C28FE490024DF0A3F09002C9740F
:10300400AAF09002CA7455F090026B1209260000CF
:103014000000900239E0FEA3E0FF1247CB90023A91
:10302400E0240BFF900239E03400FEC006C0079094
:10303400026B12092600000000D007D0061247CB0D
:1030440090024DE4F0A304F090024DE0FEA3E0FFF3
:10305400C3940BEE940050E8EF7802C333CE33CE22
:10306400D8F9FF90023AE02FFF900239E03EFEC00B
:1030740006C007900249E0FCA3E0FDA3E0FEA3E044
:10308400FF90026B12091AD007D0061247CB9002A8
:103094004DE0FEA3E07802C333CE33CED8F9FF90DF
:1030A400023AE02FFF900239E03ECF24FCCF34FFF8
:1030B400FE124CA990023B12091A90014074FFF0D1
:1030C400A3744DF0A374EAF090023BE0FCA3E0FD8E
:1030D400A3E0FEA3E0FF90014312091A7B017A02E8
:1030E400793F120B537B017A02793F7D011233B58C
:1030F40090024DE0FEA3E07802C333CE33CED8F97C
:10310400FF90023AE02FFF900239E03EFE124CA9F4
:1031140090023B12091A90014074FFF0A3744DF021
:10312400A374EAF090023BE0FCA3E0FDA3E0FEA35D
:10313400E0FF90014312091A7B017A02793F120BD6
:10314400537B017A02793FE4FD1233B590024DE0DE
:10315400FEA3E07802C333CE33CED8F9FF90023A0F
:10316400E02FFF900239E03ECF2404CF3400FE125A
:103174004CA990023B12091A90014074FFF0A37409
:103184004DF0A374EAF090023BE0FCA3E0FDA3E061
:10319400FEA3E0FF90014312091A7B017A02793FF2
:1031A400120B537B017A02793F7D021233B59002F0
:1031B40049E0FCA3E0FDA3E0FEA3E0FFE4FBFA7911
:1031C40080783F12001590024912091A7FE87E03A5
:1031D400124E2890024EE004F0700690024DE00476
:0431E400F002304C79
:104D720025362E30660025352E306600464C4F41D2
:104D8200540025362E31660025372E326600253630
:104D92002E32660025372E33660025362E33660006
:104420004A016D5F503D79726B6F517F735C018BF8
:10443000776E0F7C2F276F76505C360E00645F37E7
:0C44400073246B2E5E4C0000723D2000C7
:094F360053A0FB124F3F43A004FD
:0E4F3F00E4FFFE0FBF00010EEF64054E70F59B
:014F4D002241
:024E7800AD0784
:104E7A00E4FCED20E70553A0F7800343A008124F96
:0A4E8A0036ED25E0FD0CECB408E85D
:014E940022FB
:104C1B0043A00243A00443A008124F3F124F3FE4AE
:104C2B00900177F0A304F078457C01FDFB7A0179C4
:104C3B00777E001245CC9001787403F01245BE903C
:104C4B0001787428F01245BE9001787429F0124552
:084C5B00BE1245A1E4FEFF2298
:1045A1009001777401F0E4900189F0A37410F07D1B
:1045B100007E00FF7B017A017979120A867E0078FC
:1045C100457C017D017B017A0179777F141206D246
:1045D100E4FB43A00243A00443A008124F3F53A0B1
:1045E100FD124F3F124F3653A0F7124F369001453F
:1045F100E0700553A0F7800343A008124F369001E5
:1046010045E0700BA3E0FF124E78124F368048E46C
:10461100900157F0FB53A0FB900157E020E70553B1
:10462100A0F7800343A008124F39900157E025E01D
:10463100F00BEBB406DFE4FBEBFFC3740F9FFFE469
:104641009400FE74472FF58274013EF583E0FF125A
:104651004E780BEBB410E143A00243A00843A00441
:03466100024F3FC6
:104E95001245A1E4900177F0A37402F01245BEE437
:0D4EA500900178F0FE1245C07E007F0122D2
:080003001245A17E007F0122DD
:104F1D009001777401F0E4900189F0A37410F07D95
:094F2D00FF1245B27E007F012253
:0C4CEF00E0FF900142E0FDA3E0FB14F0A8
:104CFB00E4FEEDB40100EDB402027E0BED70027E1A
:104D0B0005C374059B2EFD3395E0FC74792DF5825C
:104D1B0074013CF583E05480F074792DF5827401B5
:064D2B003CF583E04FF0AF
:014D3100225F
:10471800AC07ED700302479E24FE6040046003026C
:1047280047C8ECB40311EB90017AB40106E0448069
:10473800F08004E0547FF0ECB40211EB90017BB4FC
:104748000106E04480F08004E0547FF0EC640170DE
:104758006FEB90017CB40102805C8060ECB40311C3
:10476800EB900185B40106E04480F08004E0547FBA
:10477800F0ECB40211EB900186B40106E04480F03D
:104788008004E0547FF0EC64017035EB900187B44D
:10479800010280228026ECB40211EB900180B40162
:1047A80006E04480F08004E0547FF0ECB40111EBA3
:1047B800900181B40106E04480F08004E0547FF069
:0347C800024F039A
:10404100EF24FEB40900400302413990405A75F053
:1040510003A4C58325F0C583730240B20240A602C2
:1040610040BD0240C80240D302408202408E02405D
:104071009A024075ED90017EB401030241050241AF
:1040810035ED900182B40102807A024135ED900153
:104091007FB40102806E024135ED900183B40102CB
:1040A1008062024135ED90017DB4010280560241EA
:1040B10035ED900179B40102804A8078ED90018854
:1040C100B40102803F806DED900184B4010280341F
:1040D1008062ED640190017E7030E04480F09001D7
:1040E10082E04480F090017FE04480F0900183E021
:1040F1004480F0900179E04480F0900184E04480B4
:10410100F0900188E04480F0802EE0547FF090012F
:1041110082E0547FF090017FE0547FF0900183E0D2
:10412100547FF0900179E0547FF0900184E0547F56
:10413100F0900188E0547FF09001777401F0E490F1
:0A4141000189F0A37410F0024F038F
:063F220090012F12091AA4
:103F2800900133E0703BA3E0900140700C74FFF007
:103F3800A3744DF0A37472800A74FFF0A3744DF05B
:103F4800A37478F090012FE0FCA3E0FDA3E0FEA3AA
:103F5800E0FF90014312091A7B017A017935120BAF
:103F680053900133E06401703CA3E0900140700D70
:103F780074FFF0A3744DF0A3747EF0801F74FFF0FB
:103F8800A3744DF0A37484F090012FE0FCA3E0FD2E
:103F9800A3E0FEA3E0FF90014312091A7B017A0116
:103FA8007935120B53900133E06402703BA3E09023
:103FB8000140700C74FFF0A3744DF0A3748A800A5A
:103FC80074FFF0A3744DF0A37490F090012FE0FCFF
:103FD800A3E0FDA3E0FEA3E0FF90014312091A7BD2
:103FE800017A017935120B53900133E06403703B79
:103FF800A3E0900140700C74FFF0A3744DF0A3741B
:1040080096800A74FFF0A3744DF0A3749CF090019D
:104018002FE0FCA3E0FDA3E0FEA3E0FF9001431224
:10402800091A7B017A017935120B537B017A0179E0
:0940380035900134E0FD0233B5BE
:0E33B50090013FEBF0A3EAF0A3E9F0A3EDF0E6
:1033C300A37405F0E4A3F0ED700C900180E0547F4A
:1033D300F0A3E0547FF0900142E0FDB402119001AC
:1033E30085E0547FF0A3E0547FF0A3E0547FF0ED39
:1033F300B4011190017AE0547FF0A3E0547FF0A36D
:10340300E0547FF090013FE0FBA3E0FAA3E0F91260
:1034130006F8FF700302355DC3648094B0401AD38D
:10342300EF648094B95012EF3395E0FE743D2FF5AD
:103433008274013EF583124CEF90013FE0FBA3E061
:10344300FAA3E0F91206F8B42D069001A5124CEF89
:1034530090013FE0FBA3E0FAA3E0F91206F8B420E1
:1034630013900142E0FDA3E0FBE4FF124CFB90014B
:1034730043E014F090013FE0FBA3E0FAA3E0F9126C
:1034830006F8FFC3648094C1402AD3EF648094DAC2
:103493005022EF3395E0FE744A2FF58274013EF516
:1034A30083E0FF900142E0FDA3E0FB124CFB90019F
:1034B30043E014F090013FE0FBA3E0FAA3E0F9122C
:1034C30006F8642E600302354A900142E0FC640270
:1034D3007028900144E0FEB40207900185E0448027
:1034E300F0EEB40307900186E04480F0900144E0DD
:1034F300B40407900187E04480F0EC6401702890E5
:103503000144E0FDB4020790017AE04480F0EDB499
:10351300030790017BE04480F0900144E0B404078A
:1035230090017CE04480F0900142E0701A900144E5
:10353300E0FDB40407900181E04480F0EDB403079B
:10354300900180E04480F0900144E004F090014059
:10355300E475F0011207B70234079001777401F0A4
:0C356300E4900189F0A37410F0024F0303
:104F03009001777401F078457C01FDFB7A01797794
:0A4F13007E007F141206D20245D181
:04444C004101D70053
:104E2800E4FDFCC3ED9FEC9E501EE4FBFA0BBB00B7
:104E3800010AEB64C34A70F575AA0575AA0A75A933
:084E48001F0DBD00010C80DB11
:014E5000223F
:10433400E4F99001D6F0D281D280D290D291D29277
:10434400E97002C281E9B40102C280E9B40202C286
:1043540090E9B40302C291E9B40402C2927F017EDF
:1043640000124E2820820AE925E025E0049001D6B7
:10437400F020A40BE925E025E024029001D6F020EA
:10438400A00BE925E025E024039001D6F020960B4C
:10439400E925E025E024049001D6F009E9640570DC
:1043A400959001D8E0FF700C9001D6E06006A374EC
:1043B40001F080319001D6E0FEB50709EE6006A356
:1043C4007402F080209001D8E0600C9001D6E07077
:1043D40006A37403F0800E9001D8E070089001D613
:1043E400E07002A3F09001D6E09001D8F0600A904A
:1043F40001D7E0B40103124FB675AA0575AA0A7570
:02440400A91FEE
:014406002293
:0E4FB6009001DAE07007A3F09001D904F02218
:014FD10022BD
:034FCE007F00223F
:104F9200E4F9124FB67FFA7E00124E2809E9B403F3
:014FA200F11D
:014FA30022EB
:104F4E000000000000000000000000000000000053
:084F5E0000000000000000004B
:104450004400C900000000602800F60000000000D1
:10446000000000000000000000000000000000004C
:10447000000000000000000000000000000000003C
:10448000000000602800CE000000000000000000D6
:10449000000000000000000000000000000000001C
:1044A00000000000000000000000000000000044C8
:0A44B00000C5000000004100CD002F
:060F710090014812091A6C
:100F770090014D12092640886E559001511209269D
:100F870000000000900148E0FCA3E0FDA3E0FEA301
:100F9700E0FFE412031990015812091A90015C74DA
:100FA70006F0E4A3F0A3F090015504F0A37400F059
:100FB700A374F6F090014DE0FCA3E0FDA3E0FEA3CF
:100FC700E0FF9000C5E0F8A3E0F9A3E0FAA3E0FB97
:100FD700120015900158E0F8A3E0F9A3E0FAA3E0A6
:100FE700FB1202AC6002503290014DE0F8A3E0F929
:100FF700A3E0FAA3E0FB9000C5E0FCA3E0FDA3E0BB
:10100700FEA3E0FF120011900158E0F8A3E0F9A356
:10101700E0FAA3E0FB1202AC505C90014CE0705682
:101027009000CDE0FF04F0EFD394024046E4F09047
:10103700015DF090015CE014FFA3E0C39F40030251
:101047001185900158E0FCA3E0FDA3E0FEA3E0FFBB
:10105700900155E0FBA3E0FAA3E0F990015DE0758C
:10106700F004A4F58285F0831208CA90015DE004BC
:10107700F080C002138B90014CE06401704C90002B
:10108700CDF090015DF090015CE014FFA3E0C39FF9
:101097004003021185900148E0FCA3E0FDA3E0FEB8
:1010A700A3E0FFE4120319900155E0FBA3E0FAA3C4
:1010B700E0F990015DE075F004A4F58285F08312F4
:1010C70008CA90015DE004F080BC90014CE0640226
:1010D700705590015DF090015CE014FFA3E0FEC342
:1010E7009F4003021185EE2401FFE433FEEF7802EF
:1010F700C333CE33CED8F9FF900155E0FBA3E0FA16
:10110700A3E0F98F828E8312089A900155A3A390CA
:10111700015DE075F004A4F58285F0831208CA909A
:10112700015DE004F080AFE49000CDF090015DF048
:1011370090015CE014FFA3E0FEC39F5041EE240141
:10114700FFE433FEEF7802C333CE33CED8F9FF90F6
:101157000155E0FBA3E0FAA3E0F98F828E83120822
:101167009A900155A3A390015DE075F004A4F58260
:1011770085F0831208CA90015DE004F080B2900107
:1011870058E0FCA3E0FDA3E0FEA3E0FFC004C00518
:10119700C006C007A3E024FFFFE434FFFEEF780298
:1011A700C333CE33CED8F9FF900155E0FBA3E0FA65
:1011B700A3E0F98F828E83D007D006D005D0041222
:1011C70008CAE490015DF090015CE0FFA3E0C39FD3
:1011D7005037900155E0FBA3E0FAA3E0F990015DD9
:1011E700E075F004A4F58285F08312089A90015DFA
:1011F700E025E025E024CEF582E43400F5831209EA
:101207001A90015DE004F080BEE490015DF090016A
:101217005CE014FFA3E0FEC39F40030212F8EE0454
:10122700A3F090015CE0FF90015EE0FEC39F4003E6
:101237000212EF90015DE025E025E024CEF582E47F
:101247003400F583E0F8A3E0F9A3E0FAA3E0FBEEAE
:1012570025E025E024CEF582E43400F583E0FCA305
:10126700E0FDA3E0FEA3E0FF1202AC6072407090C5
:10127700015EE0FB25E025E024CEF582E43400F5AD
:1012870083E0FCA3E0FDA3E0FEA3E0FF9001511281
:10129700091A90015DE0FA25E025E024CEF582E405
:1012A7003400F583E0FCA3E0FDA3E0FEA3E0FFEB41
:1012B70025E025E024CEF582E43400F58312091AEF
:1012C700900151E0FCA3E0FDA3E0FEA3E0FFEA25C7
:1012D700E025E024CEF582E43400F58312091A9064
:1012E700015EE004F002122990015DE004F00212B1
:1012F700159000C51209260000000090015D7401D9
:10130700F090015CE014FFA3E0FEC39F503890000B
:10131700C5E0F8A3E0F9A3E0FAA3E0FBEE25E0259A
:10132700E024CEF582E43400F583E0FCA3E0FDA3DE
:10133700E0FEA3E0FF1200159000C512091A900104
:101347005DE004F080BB9000C5E0FCA3E0FDA3E0F6
:10135700FEA3E0FFC004C005C006C00790015CE023
:1013670024FEFDE434FFFCE412031EA804A905AA29
:1013770006AB07D007D006D005D00412020F9000A5
:10138700C512091A9000C5E0FCA3E0FDA3E0FEA387
:02139700E0FF75
:011399002231
:05414B0090012FEFF0D0
:10415000A31209260000000078347C017D017BFF5A
:104160007A4F794E7E007F141206D23083030242CA
:104170003A1249AE90013012091A900130E0FCA3C6
:10418000E0FDA3E0FEA3E0FF78071208679001308E
:1041900012091AE47FFF7EFFFDFC900130E0F8A3D6
:1041A000E0F9A3E0FAA3E0FBC3120856606DE47FD8
:1041B000FF7EFFFDFC900130E0F8A3E0F9A3E0FAF8
:1041C000A3E0FBD3120856900130E04032F8E49BA4
:1041D000FFE49AFE740299FDE498FC900130120904
:1041E0001A900130E0F8A3E0F9A3E0FAA3E0FBC3E2
:1041F00074F49BFF747E9AFEE499FDE4988015FCAC
:10420000A3E0FDA3E0FEA3E024F4FFEE347EFEE491
:104210003DFDE43CFC90013012091A900130E0FCB5
:10422000A3E0FDA3E0FEA3E0FF90012FE090014C8E
:10423000F0120F719000C912091A9000C9E0FCA396
:08424000E0FDA3E0FEA3E0FF96
:014248002253
:1049AE00784B7C017D017BFF7A4F79627E007F041C
:1049BE001206D29001487401F0A37401F0A3744B57
:1049CE00F0308306E4FFFEFDFC22E4FDFCD284ED14
:1049DE00AE047803CEC313CE13D8F9FF244CF58260
:1049EE0074013EF583E0FB25E0F0C284744C2FF594
:1049FE008274013EF583E0FFA283E433FEEF4EF0B6
:104A0E000DBD00010CED64184C70C2D284EDAE04E5
:104A1E007805C333CE33CED8F9FDAC06C2849001EF
:0C4A2E0048E0FBA3E0FAA3E0F912087ACC
:014A3A002259
:014FD20022BC
:0A4FA400E475F0011207CDAFF0FE36
:074FAE008F828E83E493FF64
:014FB50022D9
:084D32009002B2EEF0A3EFF0D5
:104D3A009002B67401F0A37402F0A374B4F0E4FD17
:104D4A009002B2124FA49002B6E0FBA3E475F00100
:104D5A001207CDA9F0FAEF12073E0DEDB402E19069
:074D6A0002B4E0FEA3E0FF2C
:014D7100221F
:084C6300900276EEF0A3EFF0E1
:104C6B0090027C7401F0A37402F0A37478F0E4FD5D
:104C7B00900276124FA490027CE0FBA3E475F00146
:104C8B001207CDA9F0FAEF12073E0DEDB404E19037
:0D4C9B000278E0FCA3E0FDA3E0FEA3E0FF33
:014CA80022E9
:084CA90090027FEEF0A3EFF092
:104CB1009002857401F0A37402F0A37481F0E4FD05
:104CC10090027F124FA4900285E0FBA3E475F001EE
:104CD1001207CDA9F0FAEF12073E0DEDB404E190F1
:0D4CE1000281E0FCA3E0FDA3E0FEA3E0FFE4
:014CEE0022A3
:104B5100AFF0FEE0FBA3E475F0011207CDA9F0FA76
:044B61001206F8FD43
:104B6500E49002BFF09002BDEEF0A3EFF0A2AF9289
:104B750009C2AF9002BDE0F5C3A3E0F5C2AF058F52
:104B8500C1E4F5C4F5C5F5C69002C9E0B4AA08A309
:104B9500E0B4550375C703124FD275C40575C50A30
:104BA50075C6099002C9E0B4AA08A3E0B455037517
:0D4BB500C703E4F5C4F5C5F5C6A20992AF2B
:014BC20022D0
:104DFE009002C2EDF09002C0EEF0A3EFF0124FAEB3
:104E0E00EFF460089002C07D01123B809002C0E07A
:0A4E1E00FEA3E0FFA3E0FD024B65D8
:104AC70090028AECF0A3EDF0900288EEF0A3EFF0ED
:104AD700124D3290028FEEF0A3EFF090028C74012A
:104AE700F0A37402F0A3748FF090028CE0FBA3E4B0
:104AF70075F0011207CDA9F0FA1206F8B4FF169067
:104B0700028CE0FBA3E475F0011207CDA9F0FA12BD
:104B170006F8F4600F900288E0FEA3E0FF7D027CB8
:104B270000123B8790028C7401F0A37402F0A37407
:104B37008AF0E4FC900288E475F0011207CD900238
:094B47008C124B510CECB402EB92
:014B50002242
:0848710090025CEEF0A3EFF0F1
:10487900124C6390026512091A9002627401F0A346
:104889007402F0A37465F0900262E0FBA3E475F092
:10489900011207CDA9F0FA1206F8B4FF429002629C
:1048A900E0FBA3E475F0011207CDA9F0FA1206F8AE
:1048B900B4FF2C900262E0FBA3E475F0011207CD6E
:1048C900A9F0FA1206F8B4FF16900262E0FBA3E41D
:1048D90075F0011207CDA9F0FA1206F8B4FF069097
:1048E900025C123B7E9002627401F0A37402F0A391
:1048F900745EF0E4FC90025CE475F0011207CD905F
:0A4909000262124B510CECB404EBF7
:014913002281
:0847CB00900269EEF0A3EFF08B
:1047D300124CA990027212091A90026F7401F0A38D
:1047E3007402F0A37472F090026FE0FBA3E475F01F
:1047F300011207CDA9F0FA1206F8B4FF4290026F36
:10480300E0FBA3E475F0011207CDA9F0FA1206F854
:10481300B4FF2C90026FE0FBA3E475F0011207CD07
:10482300A9F0FA1206F8B4FF1690026FE0FBA3E4B6
:1048330075F0011207CDA9F0FA1206F8B4FF06903D
:104843000269123B7E90026F7401F0A37402F0A31D
:10485300746BF0E4FC900269E475F0011207CDAFCC
:0D486300F0FE90026F124B540CECB404E810
:014870002225
:104BC300E49002C3F0A3EEF0A3EFF0A2AF920AC207
:104BD300AF9002C4E0F5C3A3E0F5C2E4F5C4F5C5A4
:104BE300F5C69002C9E0B4AA08A3E0B4550375C79B
:104BF30003124FD275C40575C50A75C6099002C95B
:104C0300E0B4AA08A3E0B4550375C70CE4F5C4F5F2
:074C1300C5F5C6A20A92AF2D
:014C1A002277
:093B7E007D04E0FEA3E0FF7C00E1
:103B8700900293ECF0A3EDF0900291EEF0A3EFF02A
:103B9700E4900295F0A3F0A3F0A37404F0A3E4F07B
:103BA700FD7C041207627D007C04120750AA06AB55
:103BB70007E4900296F0A3F0900296E0FEA3E0FFE0
:103BC700C3940AEE94005025E42FFFEE3468FE12EA
:103BD7004FAEEFF460077F007E68124BC3900297E9
:103BE700E004F070D3900296E004F080CBE49002FA
:103BF70096F0A3F0900298E0FEA3E0FF900296E013
:103C0700FCA3E0FDC39FEC9E5056ED2BFFEC3AFE64
:103C1700900291E0B50617A3E0B50712A3E0FEA353
:103C2700E0FF900297E02FF0900296E03EF09002BE
:103C370097E02BFF900296E03AFE124FAEAD079049
:103C47000297E02400FF900296E03468FE124B656D
:103C5700900297E004F0709C900296E004F0809444
:103C6700AF03AE02124BC3E4900296F0A3F09002AA
:103C770098E0FEA3E0FF900296E0FCA3E0FDC39F5F
:103C8700EC9E502BE42DFFEC3468FE124FAEAD07CF
:103C9700900297E02BFF900296E03AFE124B659058
:103CA7000297E004F070C7900296E004F080BF7FAF
:063CB700007E68024BC311
:1044D5003030303030003030303030300020202067
:1044E500554E00535441424C45002020504C53003A
:1044F500554E4C4F41440048454C502000505245C4
:104505005353005245462030004300204C4F414450
:10451500004320202000464143544F0052002020F4
:10452500454E440020204F46460053415645440021
:104535002D2D2D2D2D00202020202D002020202068
:10454500202D0020202D2D2D002020202D2D2D006B
:1045550020202020202000534F4252450020504566
:10456500534F004F56455220002D2D2D2D2D2D003A
:1045750020202020203000202D452D20002D2D2D00
:104585002D2D2D2D2D2D2D2000202020203000001B
:0C4595000000000000000000000000001A
:1044BA004400060000000044000000000000440020
:0A44CA009000000000420004000012
:1031E8007F017E6C124CA990002A12091A7F057E75
:1031F8006C124CA990002612091A7F097E6C124C99
:10320800A990002E12091A90001E1209260000002B
:10321800007F667E6C124FAE90006DEFF07F0D7EE2
:103228006C124FAE90006EEFF07F0E7E6C124FAEB8
:1032380090006FEFF07F1A7E6C124FAE90008CEF0B
:10324800F07F0F7E6C124D32900056EEF0A3EFF037
:103258007F117E6C124D32900059EEF0A3EFF07F93
:10326800137E6C124D3290005BEEF0A3EFF07F649A
:103278007E6C124D3290005DEEF0A3EFF07F6B7E16
:103288006C124D3290005FEEF0A3EFF07F157E6C6C
:10329800124FAE900070EFF07F167E6C124FAE901A
:1032A8000071EFF07F287E6C124FAE90008FEFF028
:1032B800900071E090007370057405F0800374014C
:1032C800F07F177E6C124FAE900072EFF090007492
:1032D80070057405F080037401F07F187E6C124F3E
:1032E800AE900075EFF0E4900077F07F1B7E6C12D3
:1032F8004FAE900078EFF07F1C7E6C124FAE9000BE
:1033080079EFF07F267E6C124FAE90007AEFF07F57
:103318001D7E70124D32900067EEF0A3EFF07F1F14
:103328007E70124D32900069EEF0A3EFF07F2A7E96
:103338006C124FAE90007DEFF07F2B7E6C124D32F9
:10334800900061EEF0A3EFF07F377E6C124FAE90E5
:10335800007FEFF07F3C7E6C124FAE90008DEFF057
:103368007F3D7E70124D3290006BEEF0A3EFF07F40
:103378003F7E70124CA990003E12091A7F547E6C51
:10338800124FAE900058EFF07F627E6C124FAE90F5
:10339800008BEFF07F637E70124FAE9000BAEFF0B3
:0D33A8007F677E70124CA990004E02091A3A
:102A9A009002C974AAF09002CA7455F0EF1209772D
:102AAA002B38002ACF012D33022CAD042CBF062C63
:102ABA00940A2B2B0B2C860C2CE60D2D190E2D505F
:102ACA000F00002D5C7D017F007E6C124DFE900090
:102ADA002AE0FCA3E0FDA3E0FEA3E0FF90026B1254
:102AEA00091A7F017E6C1247CB900026E0FCA3E016
:102AFA00FDA3E0FEA3E0FF90026B12091A7F057E98
:102B0A006C1247CB90002EE0FCA3E0FDA3E0FEA3ED
:102B1A00E0FF90026B12091A7F097E6C1247CB8084
:102B2A0000900067E0FCA3E0FD7F1D022C9090005E
:102B3A006EE0FD7F0D7E6C124DFE90006FE0FD7F12
:102B4A000E7E6C124DFE900056E0FCA3E0FD7F0F56
:102B5A007E6C124AC7900059E0FCA3E0FD7F117E0B
:102B6A006C124AC790005BE0FCA3E0FD7F137E6C09
:102B7A00124AC790005DE0FCA3E0FD7F647E6C1200
:102B8A004AC790005FE0FCA3E0FD7F6B7E6C124AAF
:102B9A00C7900070E0FD7F157E6C124DFE900071AB
:102BAA00E0FD7F167E6C124DFE900075E0FD7F18E9
:102BBA007E6C124DFE900077E0FD7F197E6C124DFF
:102BCA00FE900078E0FD7F1B7E6C124DFE9000792E
:102BDA00E0FD7F1C7E6C124DFE90007AE0FD7F26A0
:102BEA007E6C124DFE90007DE0FD7F2A7E6C124DB8
:102BFA00FE900069E0FCA3E0FD7F1F7E70124AC7C9
:102C0A0090007FE0FD7F377E6C124DFE90008DE0D4
:102C1A00FD7F3C7E6C124DFE90006BE0FCA3E0FD54
:102C2A007F3D7E70124AC790003EE0FCA3E0FDA300
:102C3A00E0FEA3E0FF90026B12091A7F3F7E70123A
:102C4A0047CB900058E0FD7F547E6C124DFE9000F9
:102C5A008BE0FD7F627E6C124DFE9000BAE0FD7F34
:102C6A00637E70124DFE90006DE0FD7F667E6C12F1
:102C7A004DFE90008CE0FD7F1A022D57900069E00E
:102C8A00FCA3E0FD7F1F7E708025900026E0FCA358
:102C9A00E0FDA3E0FEA3E0FF90026B12091A7F0594
:102CAA00022D2F900061E0FCA3E0FD7F2B7E6C12C9
:102CBA004AC7022D5C90006BE0FCA3E0FD7F3D7EDD
:102CCA0070124AC790003EE0FCA3E0FDA3E0FEA319
:102CDA00E0FF90026B12091A7F3F8063900042E086
:102CEA00FCA3E0FDA3E0FEA3E0FF90026B12091A29
:102CFA007F5A7E6C1247CB900046E0FCA3E0FDA30E
:102D0A00E0FEA3E0FF90026B12091A7F5E80169024
:102D1A00004AE0FCA3E0FDA3E0FEA3E0FF90026B03
:102D2A0012091A7F567E6C801890004EE0FCA3E0D0
:102D3A00FDA3E0FEA3E0FF90026B12091A7F677EF3
:102D4A00701247CB800C90008FE0FD7F287E6C12BA
:0C2D5A004DFEE49002C9F09002CAF02285
:0621D5007B01E4FD7F0127
:0D21DB00900223EDF0A3EBF0900222EFF054
:1021E800E4900225F0A3F0FCFDFEA312091A900268
:1021F8002B1209260000000090022F120926000069
:10220800000090007FE0FCE41203239002331209DF
:102218001AE4900237F0A3F0900226F0900224E02E
:10222800FF70069002267402F012414B90022F12A2
:10223800091A74FFFFFEFDFC900227E0F8A3E0F9FD
:10224800A3E0FAA3E0FBD312084050030224C21211
:102258004FCE900223E0640160030223129002270C
:10226800E0FCA3E0FDA3E0FEA3E0FFEC4D4E4F70C1
:10227800237BFF7A4479D57D011233B57BFF7A44FD
:1022880079D57D021233B57BFF7A4479DBE4FD1200
:1022980033B58076E47F677E2BFDFC900227E0F85B
:1022A800A3E0F9A3E0FAA3E0FB1207E3EC12031999
:1022B800E4900133F0A304F0123F22E47F677E2B01
:1022C800FDFC900227E0F8A3E0F9A3E0FAA3E0FB05
:1022D8001207E3EC120319E4900133F0A37402F03F
:1022E800123F227F077EB27D017C00900227E0F832
:1022F800A3E0F9A3E0FAA3E0FB1207E3EC12031949
:10230800E4900133F0A3F0123F22900224E0FF1280
:10231800414B90022B12091A900094E0700302249A
:10232800B7900233E0F8A3E0F9A3E0FAA3E0FB904A
:10233800022FE0FCA3E0FDA3E0FEA3E0FF120011E2
:1023480090022BE0F8A3E0F9A3E0FAA3E0FB120265
:10235800AC4074900233E0FCA3E0FDA3E0FEA3E0F0
:10236800FF90022FE0F8A3E0F9A3E0FAA3E0FB1244
:10237800001590022BE0F8A3E0F9A3E0FAA3E0FB34
:102388001202AC60025040900225E004F0A3E0FF86
:10239800900225E0D39F500302223A900227E0FCE6
:1023A800A3E0FDA3E0FEA3E0FFEF24FFFFEE34FF70
:1023B800FEED34FFFDEC34FFFC90022712091AE40D
:1023C800900225F002223A900223E06401600302A1
:1023D800248B1200037BFF7A4479E27D021233B525
:1023E8007BFF7A4479E8E4FD1233B590022712099D
:1023F8002600000000E47F207E4EFDFC900227E0CE
:10240800F8A3E0F9A3E0FAA3E0FBC31208405027C1
:10241800900227E0FCA3E0FDA3E0FEA3E0FFE4FABE
:10242800F9F8EF2401FFEA3EFEE93DFDE83CFC90A7
:10243800022712091A80BE900227120926000000FE
:1024480000E47F207E4EFDFC900227E0F8A3E0F92F
:10245800A3E0FAA3E0FBC31208405027900227E04C
:10246800FCA3E0FDA3E0FEA3E0FFE4FAF9F8EF2403
:1024780001FFEA3EFEE93DFDE83CFC900227120917
:102488001A80BEE4900225F0900222E0FFE4FCFDF1
:10249800FE90022712091A900224E0FF12414B9085
:1024A800022F12091A900224E0700302223AE490E3
:1024B80000B8F0FFFE7DC87CC2229000B87401F01D
:0E24C80090022FE0FCA3E0FDA3E0FEA3E0FFE6
:0124D60022E3
:1037060090029A1209260000000090029E120926D5
:1037160000000000E4FBFDFF1221DB90029E12096F
:103726001A900094E070037F0222900026E0F8A32E
:10373600E0F9A3E0FAA3E0FB90029EE0FCA3E0FD23
:10374600A3E0FEA3E0FF12001190029A12091A905C
:103756000078E070030238137FCD7ECC7D4C7C3E32
:1037660090002AE0F8A3E0F9A3E0FAA3E0FB120137
:103776000690029AE0F8A3E0F9A3E0FAA3E0FB12B0
:1037860002AC602C402AE4FFFEFD7C3F90002AE05C
:10379600F8A3E0F9A3E0FAA3E0FB12010690029A6F
:1037A600E0F8A3E0F9A3E0FAA3E0FB1202AC402C98
:1037B6007FCD7ECC7D4C7CBE90002AE0F8A3E0F95C
:1037C600A3E0FAA3E0FB12010690029AE0F8A3E058
:1037D600F9A3E0FAA3E0FB1202AC50311200037B1E
:1037E600FF7A4479EF7D011233B57BFF7A4479F590
:1037F600E4FD1233B575AA0575AA0A75A91F9000CE
:10380600A3E07006900094E070EB7F0222E4FFFED6
:10381600FD7C3F90002AE0F8A3E0F9A3E0FAA3E0DC
:10382600FB12010690029AE0F8A3E0F9A3E0FAA3DE
:10383600E0FB1202AC4040E4FFFEFDFC90029AE081
:10384600F8A3E0F9A3E0FAA3E0FB1202AC6028407B
:10385600261200037BFF7A4479FC7D021233B5758C
:10386600AA0575AA0A75A91F9000A3E07006900024
:1038760094E070EB7F022290029EE0FCA3E0FDA3A1
:0D388600E0FEA3E0FF90003212091A7F005F
:013893002212
:061E9C0090020A12091A6F
:101EA20090020E120926000000009002121209266A
:101EB20000000000900216120926000000009002A5
:101EC2001A1209260000000090021E1209260000C4
:101ED20000001221D590021A12091A9000B8E0648B
:101EE2000160030221D4FFFEFDFC90020AE0F8A388
:101EF200E0F9A3E0FAA3E0FB1202AC600250030295
:101F0200200A90009BE06003021F8E90006FE07039
:101F12003F900022E0FCA3E0FDA3E0FEA3E0FF125D
:101F220013CBC004C005C006C007900056E0FCA356
:101F3200E0FDE412031EA804A905AA06AB07D00718
:101F4200D006D005D0041202AC50030221D4802165
:101F5200900022E0FCA3E0FDA3E0FEA3E0FF121349
:101F6200CB7BE77AFB791F78411202AC5003022146
:101F7200D4900022E0FCA3E0FDA3E0FEA3E0FF90EA
:101F8200001E12091A90009B7401F02290006FE06B
:101F9200703F900022E0FCA3E0FDA3E0FEA3E0FF7F
:101FA2001213CBC004C005C006C007900056E0FC67
:101FB200A3E0FDE412031EA804A905AA06AB07D0FC
:101FC20007D006D005D0041202AC50030221D480FF
:101FD20023900022E0FCA3E0FDA3E0FEA3E0FF12B9
:101FE20013CB7BE77AFB791F78411202AC60025077
:101FF200030221D4900022E0FCA3E0FDA3E0FEA3B3
:10200200E0FF90001E02091AE4FFFEFDFC90020AA6
:10201200E0F8A3E0F9A3E0FAA3E0FB1202AC40036C
:102022000221D490009BE070030221D490020AE0C6
:10203200FCA3E0FDA3E0FEA3E0FFE4FBFA798078D5
:10204200BF12010690020A12091A90006DE06401A3
:1020520060030221117FCD7ECC7D4C7C3E90002A14
:10206200E0F8A3E0F9A3E0FAA3E0FB120106900076
:102072001EE0F8A3E0F9A3E0FAA3E0FB1202AC60D1
:1020820002507790005BE0FCA3E0FDE412031EA87F
:1020920004A905AA06AB0790002EE0FCA3E0FDA36D
:1020A200E0FEA3E0FF12020F90021E12091A900234
:1020B2001EE0F8A3E0F9A3E0FAA3E0FBC000C00130
:1020C200C002C00390005DE0FCA3E0FDE412031E29
:1020D200D003D002D001D00012010690021E1209D4
:1020E2001A90021E12139D90021212091AE4FFFEA8
:1020F2007D407C4090021E02212412139A9002120B
:1021020012091AE4FFFE7D407C4090002E801312DB
:10211200139A90021212091AE4FFFE7D407C40904D
:10212200002EE0F8A3E0F9A3E0FAA3E0FB12010617
:1021320090001EE0F8A3E0F9A3E0FAA3E0FB12008E
:10214200151213CB90021612091A900212E0FCA388
:10215200E0FDA3E0FEA3E0FF90020AE0F8A3E0F9AD
:10216200A3E0FAA3E0FB1202AC4067900216E0FC87
:10217200A3E0FDA3E0FEA3E0FF90020AE0F8A3E0E3
:10218200F9A3E0FAA3E0FB1202AC60025044E4FDC2
:102192007F0312404190001E12092600000000E455
:1021A20090009BF090000EE0FCA3E0FDA3E0FEA3F4
:1021B200E0FF90003212091A90021AE0FCA3E0FD3F
:1021C200A3E0FEA3E0FF12035790014C7401F0124A
:0221D2000F718B
:0121D40022E8
:104DA2009002B9120926000000001221D59002B922
:104DB20012091A9000B8E0B401149002B9E0FCA301
:0E4DC200E0FDA3E0FEA3E0FF90003212091A0C
:014DD00022C0
:0B389400E0FCA3E0FDA3E0FEA3E0FFCA
:06389F009002A212091ABA
:1038A5009002A61209260000000090006DE0B40108
:1038B5005A90005BE0FCA3E0FDE412031EA804A9F6
:1038C50005AA06AB0790002EE0FCA3E0FDA3E0FEF1
:1038D500A3E0FF12020F9002A612091A9002A6E0B9
:1038E500F8A3E0F9A3E0FAA3E0FBC000C001C00221
:1038F500C00390005FE0FCA3E0FDE412031ED003CB
:10390500D002D001D000120106800E90002EE0FCFE
:10391500A3E0FDA3E0FEA3E0FF9002A612091A9022
:1039250002A6E0FCA3E0FDA3E0FEA3E0FFE4FBFAB2
:10393500F9784012020F9002A612091AE4FFFEFD63
:10394500FC9002A6E0F8A3E0F9A3E0FAA3E0FB12DD
:1039550002AC501E9002A6E0FCA3E0FDA3E0FEA38E
:10396500E0FFE4FBFA798078BF1201069002A61207
:10397500091A9002A6E0F8A3E0F9A3E0FAA3E0FB98
:10398500900032E0FCA3E0FDA3E0FEA3E0FF1200FF
:10399500119002A2E0F8A3E0F9A3E0FAA3E0FB127C
:1039A50002AC606740659002A6E0FCA3E0FDA3E0E1
:1039B500FEA3E0FF900032E0F8A3E0F9A3E0FAA34C
:1039C500E0FB1200159002A2E0F8A3E0F9A3E0FAEB
:1039D500A3E0FB1202AC5033900005E004F0700642
:1039E500900004E004F0C3900005E0940F900004FB
:1039F500E064809480401B9002A2E0FCA3E0FDA35C
:103A0500E0FEA3E0FF90003202091AE4900004F002
:023A1500A3F01C
:013A1700228C
:1027BE0090012F1209260000000090013312092605
:1027CE000000000090013712092600000000900161
:1027DE003B12092600000000900068E004F070062D
:1027EE00900067E004F01200037BFF7A4579027DCA
:1027FE00011233B57BFF7A457908E4FD1233B57BC0
:10280E00FF7A45790E7D021233B5E49001D6F09031
:10281E0001D6E0640C600512433480F3900026E08C
:10282E00FCA3E0FDA3E0FEA3E0FF90013312091A22
:10283E007FD07E07124E281200037BFF7A45790265
:10284E007D011233B57BFF7A457910E4FD1233B565
:10285E007BFF7A4579167D021233B5E49001D6F0EE
:10286E009001D6E0640C600512433480F390002A88
:10287E00E0FCA3E0FDA3E0FEA3E0FF900137120908
:10288E001A900133E0F8A3E0F9A3E0FAA3E0FBA36A
:10289E00E0FCA3E0FDA3E0FEA3E0FF120011900117
:1028AE003B12091A90013BE0F8A3E0F9A3E0FAA36A
:1028BE00E0FBC000C001C002C003900059E0FCA3C1
:1028CE00E0FD7E007F64120762AC06AD07E41203E2
:1028DE001ED003D002D001D00012010690013B128F
:1028EE00091A90002AE0FCA3E0FDA3E0FEA3E0FF9E
:1028FE00900026E0F8A3E0F9A3E0FAA3E0FB1200B3
:10290E001190002A12091A90002AE0F8A3E0F9A308
:10291E00E0FAA3E0FBC000C001C002C00390005962
:10292E00E0FCA3E0FD7E007F64120762AC06AD07FB
:10293E00E412031ED003D002D001D0001201069083
:10294E00002A12091A90002AE0FCA3E0FDA3E0FE83
:10295E00A3E0FFA312091A900056E0FCA3E0FDE4E9
:10296E0012031E90012F12091A90012FE0F8A3E016
:10297E00F9A3E0FAA3E0FBC000C001C002C00390BF
:10298E000058E0FCE412032390014312091A7F0061
:10299E007E007D207C41123A18D003D002D001D0A7
:1029AE000012010690012F12091A90012FE0FCA3CC
:1029BE00E0FDA3E0FEA3E0FFC004C005C006C00713
:1029CE0090005BE0FCA3E0FDE412031EA804A90541
:1029DE00AA06AB07D007D006D005D00412020F907E
:1029EE00012F12091A90002EE0FCA3E0FDA3E0FED9
:1029FE00A3E0FF90012FE0F8A3E0F9A3E0FAA3E033
:102A0E00FB12020F90002E12091AE4FFFEFDFC903D
:102A1E00002AE0F8A3E0F9A3E0FAA3E0FB1202AC6F
:102A2E00501E90002AE0FCA3E0FDA3E0FEA3E0FF11
:102A3E00E4FBFA798078BF12010690002A12091A77
:102A4E001200037BFF7A45791B7D011233B57BFFA4
:102A5E007A457921E4FD1233B57B01E4FD7F021244
:102A6E0047187BFF7A4579237D021233B5124F92B8
:102A7E00124F929001E57401F0E49001E7F090019D
:0C2A8E00E7E0700512433480F5020003FD
:0524D7009002C6EFF0C9
:1024DC00E49002C8F09001E104F012000390006D4A
:1024EC007401F0A3F09002C6E07009900056F0A3BE
:1024FC00740F80319002C6E0B4010A900056E4F0EB
:10250C00A3741480209002C6E0B4020A900056E432
:10251C00F0A3741E80699002C6E0B40520900056AA
:10252C00E4F0A3741EF090005BE4F0A37405F0A338
:10253C00E4F0A37402F0A3E4F0A304802B9002C691
:10254C00E0B4062C900056E4F0A3741EF090005BEF
:10255C00E4F0A37402F0A3E4F0A37402F0A3E4F09B
:10256C00A37402F0E490006DF09000587403802B7B
:10257C009002C6E0B40339900056E4F0A37428F03E
:10258C0090005BE4F0A3740AF0A3E4F0A37405F0EC
:10259C00A3E4F0A37402F090005804F090006F7460
:1025AC0001F0FDE4FF12404190008D7401F0803683
:1025BC009002C6E0B4042F900056E4F0A3743CF0F3
:1025CC0090005BE4F0A37402F0900058F0E49000EB
:1025DC006FF090006EF07D017F01124041E490009D
:1025EC008DF090006DF0900056E0FCA3E0FDE4123D
:1025FC00031E900058E0900133F0A37401F0123FD9
:10260C0022900059E4F0A37464F09000707402F00E
:10261C00A314F09000757403F0E4900074F0900033
:10262C007704F0A3F0A3F090007DF0E4A3F0A37482
:10263C0005F0E490006BF0A3F090003E1209260028
:10264C00000000E490008BF0A37402F0E490007C96
:10265C00F09000421209260000000090004612097A
:10266C00260000000090002A1209260000000090AD
:10267C0000261209260000000090002E12092600E8
:10268C000000009000BA7401F090004A1209260074
:10269C0000000090004E12092600000000E490009B
:1026AC0067F0A3F0A3F0A3F09001E504F0124FCE75
:1026BC009002C7EFF09002C7E06408602B9001E72E
:1026CC00E0702575AA0575AA0A75A91F124FCE9040
:1026DC0002C7EFF0900094E070030227BD9002C790
:1026EC00E060D2124FB680CD9001E7E06401702A11
:1026FC001200037BFF7A4579297D021233B59000D5
:10270C00A3E0701375AA0575AA0A75A91F124FCEFE
:10271C00900094E070E8220227B89001E7E0B40141
:10272C0005120003805F7F0E122A9A7F0D122A9ADF
:10273C00E4FF122A9A7F01122A9A7F02122A9A7BAC
:10274C00FF7A45792F7D021233B5124F92124F92B8
:10275C00E49001E7F09001E504F0E49002C7F090FA
:10276C0002C7E06408601E9001E7E0701875AA05C6
:10277C0075AA0A75A91F124FCE9002C7EFF09000F0
:10278C0094E070DB221200037BFF7A4579297D02ED
:10279C001233B59000A3E0701375AA0575AA0A75DB
:1027AC00A91F124FCE900094E070E822E4900094A0
:0127BC00F02C
:0127BD0022F9
:102D6600EFB40103124FD19000A4E0B4010E90001D
:102D760079E0B40107E4900094F0FF22900097E018
:102D8600B401037F002290009EE07011900099E04C
:102D960070047D018002E4FD7F05124041E490004D
:102DA6009FF09000B3E0640160089000B2E0640117
:102DB600701E7BFF7A4579357D011233B57BFF7A2C
:102DC60045793B7D021233B57BFF7A4579418024F4
:102DD6009000B4E06401702B7BFF7A4579357D0164
:102DE6001233B57BFF7A4579487D021233B57BFFF6
:102DF6007A45794EE4FD1233B5E4FD7F0612404173
:102E06007F002290009EE06003022EC59000ABE09A
:102E16006401703D900077E064017035FFFEFDFCB3
:102E2600900006E0F8A3E0F9A3E0FAA3E0FB1202A3
:102E3600AC701E90008BE0B40117900099E0601111
:102E460090009BE0700B121798900094E07002FFC0
:102E56002290009DE060047D018002E4FD7F041263
:102E6600404190006FE0B401067D01E4FF800A90C6
:102E7600006FE070077D017F011240417F6F7E1277
:102E86007D037CBA900006E0F8A3E0F9A3E0FAA37C
:102E9600E0FB1202AC6021401F7F6F7E127D037C37
:102EA6003A900006E0F8A3E0F9A3E0FAA3E0FB12EB
:102EB60002AC50047D018002E4FD7F02124041E431
:102EC6009000ADF09000A9E06002801DE4FFFEFDD9
:102ED600FC900006E0F8A3E0F9A3E0FAA3E0FB12F9
:102EE60002AC50051242498003121B4A90009BE037
:102EF6006066E4FFFE7DA07C4190002EE0F8A3E032
:102F0600F9A3E0FAA3E0FB12010690001EE0F8A385
:102F1600E0F9A3E0FAA3E0FB120015900090E0F8B8
:102F2600A3E0F9A3E0FAA3E0FB1202AC401790007D
:102F360096E0701190008FE0606F9000A27401F02F
:102F46004390208064900099E07003022FD1900195
:102F5600EAE064017075806BE4FFFE7DA07C419021
:102F6600002EE0F8A3E0F9A3E0FAA3E0FB120106C5
:102F7600900032E0F8A3E0F9A3E0FAA3E0FB120028
:102F860015900090E0F8A3E0F9A3E0FAA3E0FB12A5
:102F960002AC4021900096E0701B90008FE0600923
:102FA6009000A27401F04390209001EC7401F0901F
:102FB60000A2F08016900099E060109001EAE0B45B
:0E2FC6000109E49000A2F05390DFF07F00229A
:101B4A009002AA12092600000000900058E0FCE466
:101B5A0012032390014312091A7F007E007D207C24
:101B6A0041123A18C004C005C006C00790005BE0E5
:101B7A00FCA3E0FDE412031ED003D002D001D00082
:101B8A0012020FE4FBFA79107841120106C004C070
:101B9A0005C006C007900056E0FCA3E0FDE412036E
:101BAA001ED003D002D001D0001200159002AE124E
:101BBA00091A900036E0F8A3E0F9A3E0FAA3E0FBE3
:101BCA0090000EE0FCA3E0FDA3E0FEA3E0FF1200FC
:101BDA00119002AA12091A900012E0FCA3E0FDA3D8
:101BEA00E0FEA3E0FF9002AAE0F8A3E0F9A3E0FA7E
:101BFA00A3E0FB1202AC600250269002AEE0FCA306
:101C0A00E0FDA3E0FEA3E0FF90000AE0F8A3E0F9FC
:101C1A00A3E0FAA3E0FB1202AC60025003021D101B
:101C2A009000A8E06003021D1090009EE0701390DF
:101C3A00006CE004F0700690006BE004F07F06127E
:101C4A002A9A90009E7401F0120000E4FD7F0612A9
:101C5A0040417BFF7A457955E4FD1233B590006E19
:101C6A00E07BFFB401117A45795C7D011233B57BC3
:101C7A00FF7A457962800F7A4579687D011233B51A
:101C8A007BFF7A4579107D021233B59001D9740130
:101C9A00F0E49001DBF09001DBE0700B75AA0575AA
:101CAA00AA0A75A91F80EF900036E0F8A3E0F9A30D
:101CBA00E0FAA3E0FB90000EE0FCA3E0FDA3E0FE47
:101CCA00A3E0FF12001190003EE0F8A3E0F9A3E0C0
:101CDA00FAA3E0FB1202AC4003021E9B900036E01E
:101CEA00F8A3E0F9A3E0FAA3E0FB90000EE0FCA35E
:101CFA00E0FDA3E0FEA3E0FF12001190003E1209EE
:101D0A001A7F06022A9AE490009EF090000AE0FCEC
:101D1A00A3E0FDA3E0FEA3E0FF900058E0900133AA
:101D2A00F0A37401F0123F2290009DE07047FFFE7D
:101D3A00FDFC90000AE0F8A3E0F9A3E0FAA3E0FBB7
:101D4A001202AC7030FFFEFDFC900000E0F8A3E048
:101D5A00F9A3E0FAA3E0FB1202AC60194017900065
:101D6A001612092600000000E4900076F09000A701
:101D7A00F0900076F090000AE0FCA3E0FDA3E0FEFC
:101D8A00A3E0FF90000012091AE4FFFEFDFC900098
:101D9A000AE0F8A3E0F9A3E0FAA3E0FB1202AC70B0
:101DAA000E90009DE070089000B7E0700204F09079
:101DBA000075E0FBC39403900016E0FCA3E0FDA3CA
:101DCA00E0FEA3E0FF5006900133EB800790007617
:101DDA00E0900133F0A37402F0123F2290000AE06F
:101DEA00FCA3E0FDA3E0FEA3E0FF900016E0F8A349
:101DFA00E0F9A3E0FAA3E0FB12010690001A120927
:101E0A001A900070E0FCE412032390014312091AAD
:101E1A007F007E007D207C41123A18A804A905AAF9
:101E2A0006AB077FF07E237D747C4912020F900077
:101E3A001AE0F8A3E0F9A3E0FAA3E0FB1202AC600F
:101E4A000D400B7BFF7A45796EE4FD0233B5E4FF62
:101E5A00FEFDFC90001AE0F8A3E0F9A3E0FAA3E083
:101E6A00FB1202AC601D401B90001AE0FCA3E0FDCF
:101E7A00A3E0FEA3E0FF900070E0900133F0E4A33A
:101E8A00F0800BE4900133F0A3F0FFFEFDFC123F5B
:011E9A002225
:011E9B002224
:104249009000AD7401F0E490009EF090009BE06452
:1042590001706790001EE0FCA3E0FDA3E0FEA3E06F
:10426900FF1213CBC004C005C006C007E4FFFE7DE2
:10427900807CBF90000AE0F8A3E0F9A3E0FAA3E08C
:10428900FB120106A804A905AA06AB07D007D006A8
:10429900D005D0041202AC6002501F90000AE0FC65
:1042A900A3E0FDA3E0FEA3E0FF900058E0900133F6
:1042B900F0A37401F0123F22800B7BFF7A45793518
:1042C9007D011233B590009DE060087BFF7A457946
:1042D9006E801F90001612092600000000E490006D
:1042E90076F090001A120926000000007BFF7A453B
:1042F9007975E4FD1233B5900075E0FBC394039022
:104309000016E0FCA3E0FDA3E0FEA3E0FF50069049
:104319000133EB8007900076E0900133F0A374023B
:0B432900F0123F22E4FD7F0202404141
:10356F00E49002CBF0A3F090009DE09002CC6005B8
:10357F007403F080037401F0E49002CBF09002CC5E
:10358F00E0FF9002CBE0FEC3EF6480F8EE6480981A
:10359F0050137F0112414B90000612091A9002CB73
:1035AF00E004F080D89000B3E0640160079000B2AF
:1035BF00E0B4010B7BFF7A45797C7D010233B59036
:1035CF000077E0B4010C90009BE0700690000612AB
:1035DF003894900006E0FCA3E0FDA3E0FEA3E0FF1B
:1035EF0090000E12091A900006E0FCA3E0FDA3E084
:1035FF00FEA3E0FF90009012091A900006E0FCA3D2
:10360F00E0FDA3E0FEA3E0FF900032E0F8A3E0F9B5
:10361F00A3E0FAA3E0FB12001190000612091A9022
:10362F000006E0FCA3E0FDA3E0FEA3E0FF90002274
:10363F0012091A9000A9E0B4010590000E80509075
:10364F00009BE0B40146900006E0FCA3E0FDA3E080
:10365F00FEA3E0FF90009012091A900006E0FCA371
:10366F00E0FDA3E0FEA3E0FF90001EE0F8A3E0F969
:10367F00A3E0FAA3E0FB12001190000612091A90C2
:10368F00009EE070077D017F03124041900006E02D
:10369F00FCA3E0FDA3E0FEA3E0FF1213CB90000616
:1036AF0012091AE4FFFEFDFC900006E0F8A3E0F912
:1036BF00A3E0FAA3E0FB1202AC500D9000A9E0705A
:1036CF000790009F04F0801CE4FFFEFDFC900006B5
:1036DF00E0F8A3E0F9A3E0FAA3E0FB1202AC700458
:1036EF0090009FF0900006E0FCA3E0FDA3E0FEA396
:0636FF00E0FFA312091A0E
:0137050022A1
:10139A0090002EE4FFFE7D407C40E0F8A3E0F9A334
:1013AA00E0FAA3E0FB120106A804A905AA06AB0706
:1013BA0090001EE0FCA3E0FDA3E0FEA3E0FF120004
:0113CA001111
:0613CB009001F112091A65
:1013D1009001F5120926000000009001F91209267A
:1013E100000000009001FD1209260000000090029B
:1013F10001120926000000009002051209260000D2
:101401000000E4900209F0FFFEFDFC9001F1E0F81C
:10141100A3E0F9A3E0FAA3E0FB1202AC502490028E
:10142100097401F09001F1E0FCA3E0FDA3E0FEA34B
:10143100E0FFE4FBFA798078BF1201069001F11216
:10144100091A90006DE07050900058E0FCE412031E
:101451002390014312091A7F007E007D207C4112F6
:101461003A18C004C005C006C00790005BE0FCA3A9
:10147100E0FDE412031ED003D002D001D00012021D
:101481000F90020512091A90002EE0F8A3E0F9A3CB
:10149100E0FAA3E0FB0216857FCD7ECC7DCC7C3DBE
:1014A10090002AE0F8A3E0F9A3E0FAA3E0FB12011F
:1014B100069001F1E0F8A3E0F9A3E0FAA3E0FB1242
:1014C10002AC6005400302156E9001F51209260079
:1014D10000000090005BE0FCA3E0FDE412031EC0ED
:1014E10004C005C006C00790005FE0FCA3E0FDE476
:1014F10012031ED003D002D001D00012020F9001BE
:10150100F512091A900058E0FCE4120323900143FC
:1015110012091A7F007E007D207C41123A18C00416
:10152100C005C006C00790005FE0FCA3E0FDE41227
:10153100031ED003D002D001D00012020F90020589
:1015410012091A9001F5E0FCA3E0FDA3E0FEA3E07F
:10155100FF90002EE0F8A3E0F9A3E0FAA3E0FB126C
:101561000106A804A905AA06AB070216857FCD7E50
:10157100CC7D4C7C3E90002AE0F8A3E0F9A3E0FA90
:10158100A3E0FB1201069001F1E0F8A3E0F9A3E06A
:10159100FAA3E0FB1202AC6005400302163890008A
:1015A1005BE0FCA3E0FDE412031EC004C005C0061D
:1015B100C00790005DE0FCA3E0FDE412031ED00330
:1015C100D002D001D00012020F9001F512091A9039
:1015D1000058E0FCE412032390014312091A7F0032
:1015E1007E007D207C41123A18C004C005C006C0AF
:1015F1000790005DE0FCA3E0FDE412031ED003D0E0
:1016010002D001D00012020F90020512091A9001B6
:10161100F5E0FCA3E0FDA3E0FEA3E0FF90002EE0D7
:10162100F8A3E0F9A3E0FAA3E0FB120106A804A9DC
:1016310005AA06AB07804D900058E0FCE412032395
:1016410090014312091A7F007E007D207C41123AED
:1016510018C004C005C006C00790005BE0FCA3E011
:10166100FDE412031ED003D002D001D00012020FFC
:1016710090020512091A90002EE0F8A3E0F9A3E008
:10168100FAA3E0FB9001F1E0FCA3E0FDA3E0FEA3DF
:10169100E0FF12020F9001FD12091A9001FDE0FC1A
:1016A100A3E0FDA3E0FEA3E0FF12035790020112A5
:1016B100091A9001FDE0FCA3E0FDA3E0FEA3E0FF19
:1016C100C004C005C006C007A3E0FCA3E0FDA3E081
:1016D100FEA3E0FFEC120319A804A905AA06AB07B3
:1016E100D007D006D005D0041200119001FD1209D7
:1016F1001A900201E0F8A3E0F9A3E0FAA3E0FBC02D
:1017010000C001C002C003E4FFFEFD7C409001FD6A
:10171100E0F8A3E0F9A3E0FAA3E0FB12010612034B
:1017210057D003D002D001D000EB2FFFEA3EFEE9F3
:101731003DFDE83CFC90020112091A900201E0FC17
:10174100A3E0FDA3E0FEA3E0FFEC12031990020564
:10175100E0F8A3E0F9A3E0FAA3E0FB12010690018F
:10176100F912091A900209E0601E9001F9E0FCA348
:10177100E0FDA3E0FEA3E0FFE4FBFA798078BF126D
:1017810001069001F912091A9001F9E0FCA3E0FDAC
:06179100A3E0FEA3E0FF4F
:01179700222F
:101798009001A7120926000000009001AB1209264B
:1017A800000000009001AF12092600000000E4903C
:1017B80001B3F0A3F0A304F078C67C01FD7BFF7AA7
:1017C8004579947E007F061206D278CC7C017D0193
:1017D8007BFF7A45799A7E007F071206D2E4900152
:1017E800D3F0A3F0A3F078B67C017D017BFF7A45A6
:1017F8007982120A6990002EE0FCA3E0FDA3E0FEC6
:10180800A3E0FF1213CB9001AF12091A9001DD7407
:1018180001F0E49001DFF09001B3F0A3F09001B380
:10182800E0FEA3E0FFC3940BEE648094805061C394
:10183800EF9405EE6480948050199001B3A3E024DE
:10184800B6F58274013EF583E0FD74C62FF5827407
:10185800018028C39001B4E0940B9001B3E0648048
:101868009480501CE0FEA3E0FF24B6F58274013E8C
:10187800F583E0FD74C72FF58274013EF583EDF022
:101888009001B4E004F070959001B3E004F0808D0D
:10189800E49000A2F05390DFFD7F061240417BFFE9
:1018A8007A4579357D021233B57BFF7A45796EE446
:1018B800FD1233B5E4900133F0A304F07F007E00FD
:1018C8007D007C00123F229001B5E07003021B26C8
:1018D800900094E070079001B5F0021AFB9001DFC8
:1018E800E07003021AEDE4FF12414B9001A71209C0
:1018F8001A900077E0B4010C90009BE0700690010C
:10190800A71238949001A7E0FCA3E0FDA3E0FEA392
:10191800E0FF90000E12091A9001A7E0FCA3E0FD79
:10192800A3E0FEA3E0FF900032E0F8A3E0F9A3E013
:10193800FAA3E0FB1200119001A712091A9001A75F
:10194800E0FCA3E0FDA3E0FEA3E0FFA312091A90C8
:1019580001A7E0FCA3E0FDA3E0FEA3E0FF1213CB88
:101968009001A712091A9001AFE0FCA3E0FDA3E0E3
:10197800FEA3E0FF9001A7E0F8A3E0F9A3E0FAA333
:10198800E0FB1202AC502BE4FFFE7D807CBF90018F
:10199800AFE0F8A3E0F9A3E0FAA3E0FB1201069098
:1019A80001A7E0F8A3E0F9A3E0FAA3E0FB1202AC78
:1019B8005007E49001B5F0800E124FCEEF6008E4B6
:1019C8009001B5F0124FB69001B5E07003021AFB12
:1019D8001200009001D5EFF060051200008005E4C8
:1019E8009001B5F0900097E06003021AE09001B60C
:1019F800E09001D3F0E49001B3F0A3F09001B3E0DC
:101A0800FEA3E0FF24B7F58274013EF583E0FD7480
:101A1800B62FF58274013EF583EDF09001B4E00431
:101A2800F070069001B3E004F09001B3E07004A3F5
:101A3800E0640E70C79001D3E09001C0F0E490011B
:101A4800B3F0A3F09001B3E0FEA3E0FFC3940BEE64
:101A5800648094805061C3EF9405EE648094805054
:101A6800199001B3A3E024B6F58274013EF583E032
:101A7800FD74C62FF58274018028C39001B4E094E8
:101A88000B9001B3E064809480501CE0FEA3E0FF5B
:101A980024B6F58274013EF583E0FD74C72FF58204
:101AA80074013EF583EDF09001B4E004F070959078
:101AB80001B3E004F0808D7BFF7A45798E7D0112B9
:101AC80033B57B017A0179C67D021233B57B017A81
:101AD8000179CCE4FD1233B59001DD7401F0E49096
:101AE80001DFF0800E124FCEEF6008E49001B5F0F0
:101AF800124FB6900094E070049001B5F09000A4E5
:101B0800E0640160030218CF900079E0640160038B
:101B18000218CF900094F09001B5F00218CF900011
:101B2800A2E0600F90008FE060099000A27401F0BD
:101B38004390209001ABE0FCA3E0FDA3E0FEA3E00E
:011B4800FF9D
:011B49002279
:10000E000203C3E86480F8E933E83360110460F05A
:10001E00ED33EC337009E8FCE9FDEAFEEBFF220458
:10002E0060DED3EB9FEA9EE99DE8C2E78CF0C2F753
:10003E0095F0400CE8CCF8E9CDF9EACEFAEBCFFB1F
:10004E0012038E85D0F05804700320D5B3E80470E7
:10005E00075002B2D50203CD92D5EC0460F7E4CC82
:10006E00C0E0C398F8603B94186008400DD0E0FBE8
:10007E000203A5E4FBFAC9FC8028E830E406E4C9D3
:10008E00FBE4CAFCE830E305E4C9CACBFCE854073C
:10009E006010F8C3E913F9EA13FAEB13FBEC13FC47
:1000AE00D8F130F52FC3E49CFCEF9BFFEE9AFEEDEA
:1000BE0099FDD0E0FBEF4E4D4C701222DB03020394
:1000CE00CAEC2CFCEF33FFEE33FEED33FDED30E7E3
:1000DE00EB0203A5EF2BFFEE3AFEED39FDD0E0FB70
:1000EE0050130BBB00030203CDED13FDEE13FEEF19
:0800FE0013FFEC13FC0203A543
:10010600EC4D6011E8497017ED33EC3304600DE4F3
:10011600FCFFFEFD22E933E8330470F80203C31244
:10012600038E58046009E4CC248150062850090245
:1001360003CD2840030203CAC0E0EB4A7044B980ED
:1001460006D0E0FB0203B9EF4E701CBD8008EBFF42
:10015600EAFEE9FD80EBE98DF0A4FEE5F00201EF91
:10016600E9CDF9EAFEEBFFEF89F0A4FCE5F0CE89D4
:10017600F0A42EFFE435F0CD89F0A42DFEE435F091
:100186008067EF4E7005BD80D780C3EF8BF0A4ACBF
:10019600F0EE8BF0A42CFCE435F0F8EF8AF0A42CFA
:1001A600E5F038FCE433CB8DF0A42CFCE5F03BF80D
:1001B600EE8AF0A42CFCE5F038F8E433CF89F0A4FD
:1001C6002CFCE5F038CF3400CE89F0A42FFFE5F003
:1001D6003EFEE433C98DF0A42EFEE5F039CD8AF05B
:1001E600A42FFFE5F03EFEE43DFD33D0E0FB5007D3
:1001F6000BBB000F0203CDEC2CFCEF33FFEE33FEFE
:06020600ED33FD0203A52B
:10020C000203CDEC5D046005E8590470030203C3DE
:10021C0012038E580460F6EC4860F2EC7004FDFE9C
:10022C00FF22C860DB2481C85009C39860025006C5
:10023C000203CA9850CAF582E9294B4A7005AB8271
:10024C000203B975F0007C1A7880C3EF9BEE9AED2F
:10025C0099400DC3EF9BFFEE9AFEED99FDE842F03D
:10026C00DC23ACF0D0E0FFD0E0FED0E0FDAB822090
:10027C00E7101BEB60BAEC2CFCEF33FFEE33FEED1A
:10028C0033FD0203A5E803F830E705C0F075F00074
:10029C00EF2FFFEE33FEED33FD40B830E7C280AAFE
:1002AC0074F8CC6480CCC86480C8F582046043C305
:1002BC00EB9FF5F0EA9E42F0E99D42F0E89C45F098
:1002CC0060305018E5825FFFE582F42B5582FB50BD
:1002DC00210ABA001D09B90019088016E5825BFBDA
:1002EC00E582F42F5582FF50090EBE00050DBD00AE
:1002FC00010CC3EB9FF5F0EA9E42F0E99D42F0E859
:0D030C009C45F06007CC4820E701B3EC22CF
:1003190075F020800E75F010800575F0087D007E5F
:10032900007F003392D530D503120832EC334010E8
:10033900EF33FFEE33FEED33FDEC33FCD5F0ED2268
:0E034900E5F0247EA2D513CC92E7CDCEFF22A4
:10035700EDD2E7CD33EC3392D524814006E4FFFE9E
:10036700FDFC22FCE4CFCECDCC24E0501174FF80FD
:10037700EDC3CC13CCCD13CDCE13CECF13CF04709A
:07038700F030D5DE02083260
:100AEE00E5082440F582E43401F583E00508229000
:100AFE00013D300703900140E475F00112095702E1
:100B0E0006F82000E97F2ED2008018EF540F2490B3
:100B1E00D43440D4FF30040BEF24BFB41A0050037A
:100B2E002461FFE50960021509050CE50C7002054C
:100B3E000B30070E90013DE475F001120957EF02DC
:100B4E00073E024E517403D2078003E4C207F50834
:100B5E0090013D12096EE4F509F50BF50CE50960FF
:100B6E00077F20120B3180F5750AFFC201C200C249
:100B7E0002C203C205C206C208120AFDFF700D3082
:100B8E0007057F00120B42AF0CAE0B22B4255FC2DD
:100B9E00D5C204120AFDFF24D0B40A00501A75F013
:100BAE000A780930D50508B6FF0106C6A426F62038
:100BBE00D5047002D20380D924CFB41A00EF5004AA
:100BCE00C2E5D204020E34D20180C6D20080C0D259
:100BDE000280BCD2D580BAD20580B47F20120B31F0
:100BEE002002077401B5090040F1120AEEFF120B44
:100BFE0031020B6BD208D2068095120AEEFB120A56
:100C0E00EEFA120AEEF94A4B700679327A0F7BFF32
:100C1E0020022EE509602A7E008E8275830012075F
:100C2E001160060EEE650A70F0C2D5EBC0E0EAC0A8
:100C3E00E0E9C0E0EE120E95D0E0F9D0E0FAD0E097
:100C4E00FB1206F8FF60AAEBC0E0EAC0E0E9C0E0E4
:100C5E00120B31D0E02401F9D0E03400FAD0E0FBE1
:100C6E00E50A0460DCD50AD98087D20280A2120E72
:100C7E007760F7E50A700104120403A90A600DE516
:100C8E000A600914F50A120F1FEF60F3EA30E7024B
:100C9E00F404C3995079EAF4250A0430E701E40418
:100CAE00F50A800D120E7760C1EA050A250A1204B4
:100CBE0003EA90016CF030E701E4250A04D50A043A
:100CCE0020050114120E95E4C0E0120F1F90016C66
:100CDE00E0601320E70714F0120B19802204F0D005
:100CEE00E014C0E07F00120B19E50A6007120B102A
:100CFE00150A800B300503120B10D0E0020B6BD0DF
:100D0E00E00480C4120E77609EE50A04120403907C
:100D1E00016CEAF0E50A2005026001042404120EBB
:010D2E00952F
:100D2F0074FF04C0E0120F1F120B19E50A20050211
:100D3F006003120B10D0E0B50AE87F45120B239029
:100D4F00016CE07F2B30E7047F2DF404C0E0120B21
:100D5F0031D0E075F00A84C0F0120B1AD0E0120BFC
:100D6F001A020B6B791080027908C206C20880083C
:100D7F00D2D5790A8004790AC2D5E50A047002F542
:100D8F000AE4FAFDFEFF120AEEFC7B0820011312A3
:100D9F000AEEFD7B1030000A120AEEFE120AEEFF79
:100DAF007B20EC3382D592D55013C3E43000069FDD
:100DBF00FFE49EFEE42001039DFDE49CFCE4CBF8E0
:100DCF00C201EC700CCFCECDCCE824F8F870F380D4
:100DDF0017C3EF33FFEE33FEED33FDEC33FCEB3394
:100DEF00FB994002FB0FD8E9EB300105F8D0E0C4C6
:100DFF0048B201C0E00AEC4D4E4F78207B0070C224
:100E0F00EAB50A0040BCC0E0120E97D0F0D0E02047
:100E1F000104C4C0E0C4B201C0F0120B1AD0F0D567
:100E2F00F0EB020B6B1209770C08530D73580BD9AB
:100E3F004C0BD5420D774F0D7F440D7F490BEE4381
:100E4F000D85550CB2460D12450C7C470F52500BB9
:100E5F00DD2D0BE12E0C042B0BE5230C02200F3B99
:100E6F002A0B9D4800000BFCE50AB4FF03750A0628
:100E7F00120AEEFC120AEEFD120AEEFE120AEEFF45
:100E8F00900165020440790AA2D5200314300509A8
:100E9F00B910020404B9080104A2D52006025001BA
:100EAF00042002689202B509005034C0E07F203060
:100EBF0003197F30A20272067205500F120EEEC296
:100ECF0002C206C205C2087F30800F300503E9C099
:100EDF00E0120B31300503D0E0F9D0E0B509CC308A
:100EEF0005177F30B9100C120B317F583004077F74
:100EFF00788003B90803120B313002057F2D020BE6
:100F0F00317F202008F87F2B2006F322920280CF1A
:100F1F007F00B40700500B2465F582E43401F5839C
:100F2F00E0FF22286E756C6C2900D201120AEE3098
:100F3F0001F8C201780930D50108F6020B9D2D503A
:100F4F00434958120AEE2403B405004001E4900F00
:100F5F004D93120B22743A120B22D203750904021D
:020F6F000D7300
:103A180090013F12091AE4FFFE7D807C3F90013F30
:103A2800E0F8A3E0F9A3E0FAA3E0FB1202AC700609
:103A380090013F023B7290013FE0FCA3E0FDA3E050
:103A4800FEA3E0FF1203D8FBA3E0FCA3E0FDA3E084
:103A5800FEA3E0FF1203D8FFB40108E4FFFE7D8057
:103A68007C3F22EF64046029EB64046024EBB4011A
:103A780030E4FFFEFDFC900143E0F8A3E0F9A3E089
:103A8800FAA3E0FB1202AC60084006E4FFFEFDFC6E
:103A980022900143120926FFFFFFFF900143023BDA
:103AA80072E4900147F0A3F0FFFEFDFC90013FE0B7
:103AB800F8A3E0F9A3E0FAA3E0FB1202AC505F9090
:103AC8000143E0FCA3E0FDA3E0FEA3E0FF120357DF
:103AD800900147EEF0A3EFF0FDCCEECCEC12031E04
:103AE800C8ECC8C9EDC9CAEECACBEFCB900143E018
:103AF800FCA3E0FDA3E0FEA3E0FF120011E4FBFA43
:103B0800F9F81202AC708A90013FE0FCA3E0FDA333
:103B1800E0FEA3E0FF1203F290013F12091A9001A0
:103B28003FE0FCA3E0FDA3E0FEA3E0FF123E2D90E2
:103B38000143E0F8A3E0F9A3E0FAA3E0FB120106D1
:103B480012494C90014312091A900148E030E017DD
:103B5800900143E0FCA3E0FDA3E0FEA3E0FF120315
:103B6800F290014312091A900143E0FCA3E0FDA37F
:063B7800E0FEA3E0FF22C5
:10038E00E9D2E7C933E833F892D5EDD2E7CD33ECB5
:07039E0033FC5002B2D5222E
:1003A500EC30E7100FBF000C0EBE00080DBD0004B9
:1003B5000BEB6014A2D5EB13FCED92E7FD2274FF65
:1003C500FCFDFEFF22E480F8A2D574FF13FC7D80BE
:0303D500E480EFD2
:1003D800ED33EC33601004700FED547F7005740238
:0A03E80092E0227404220422E422B1
:1003F200ED33EC33600A047003BD8004ECB2E7FC19
:0104020022D7
:10040300F920E73624F950037907E4F42402FBE5E5
:1004130082158270021583DBF6E024FB501BE96032
:1004230014E4F0E582158270021583E004F0B40A47
:0D04330008E4F0D9EE7401F00A22C2D522CF
:10044000ED33EC3392D5FA602AB4FF33EDC2E77B8B
:10045000FF60067A047965E4227A04796E20D50477
:100460007A047969224E614E002B494E46002D498F
:100470004E4600E47A08F0A3DAFC7B00740722C041
:1004800083C082ECC0E0EDC0E0EEC0E0EFC0E0EA87
:1004900075F010A4CAABF075F04DA42BFBE435F059
:1004A000FCEA2410FAEB34C5FBEC34D9FCEDC2E7CE
:1004B000FF75F056A4F42411C5F0F434C58FF0A4F0
:1004C0002AE5F03BE43CF020E714120575D0E0FF8C
:1004D000D0E0FED0E0FDD0E0FC12020F8014F40466
:1004E000120575D0E0FFD0E0FED0E0FDD0E0FC12B8
:1004F0000106D082D083E0FAEDD2E7CD33EC33248D
:1005000082FBE4C3CF33CFCE33CECD33CD33DBF359
:100510007B0775F00A846004F0A31B0AE5F0F0A3E2
:100520008FF0740AA4FFACF08EF0740AA42CFEAC19
:10053000F050010C8DF0740AA42CFDE435F0F0A30A
:05054000DBDE74072260
:1049140033DA929E35B16011377FE5FE39218489FF
:104924003AAEC3FF3C1D955B3D6358473E75FDF0B1
:104934003F3172183F800000C2D50203CD0203C389
:10494400BD80FA50F30203CAED33EC330460F17B0B
:104954003B7AAA79B8783F120106ED33EC3392D54D
:10496400247B5011A2D570DB500BED4480240450FD
:1049740004A2D580CEEFFBEEFAEDF9ECF812035762
:10498400EFF582F404FC120323120015C08290494F
:104994001474091205C4ED33CC33D0F092D525F04C
:0A49A400A2D57001C313CC13FD224D
:103DF9003E9248DA3ECCCCCD3F2AAAAB4000000027
:103E09003F8000003F9837F03FB504F33FD744FCAB
:103E19003E3172173EB172173F0515913EDE5BD9EF
:103E2900D2008002C200EDD2E7F8CD33EC33047042
:103E39000BBD800592D50203CD0203C340FBD31409
:103E490060F2F5F07C3FEE7A00C39496C8948B40FB
:103E5900230AC89469C8941A401A0AC89468C8946D
:103E69001F40110AC8945AC89425400805F07A00E1
:103E7900CDC2E7CDC0F090014912091AEA2323C047
:103E8900E02409F582E4343EF58312090A1200158B
:103E9900ECC0E0EDC0E0EEC0E0EFC0E01208EE904B
:103EA90001491208FE120011D0E0FBD0E0FAD0E07F
:103EB900F9D0E0B2E7F812020F90014912091A90FD
:103EC9003DF974031205B59001491208FE12010665
:103ED900D0E0600F2415F582E4343EF58312090A17
:103EE90012001590014912091AD0E0C3947FFDE42C
:103EF9009400FC12031E7B187A727931783F120103
:103F0900069001491208FE12001530000B7BD97A80
:093F19005B79DE783E12010622FC
:100545003F8000004120000042C80000447A0000BE
:10055500461C400047C35000497424004B18968040
:100565004CBEBC205A0E1BCA6753C21C749DC5AE37
:10057500FB60065407601C23231205A3EB54386067
:100585000912058F12059E120106ECF8EDF9EEFA37
:10059500EFCB22EB12059E80F1543803241C900505
:1005A50045FE93FC0EEE93FD0EEE930ECE93FF22C9
:1005B500C0E0EFFBEEFAEDF9ECF8120106D0E0F53C
:1005C500F0EFFBEEFAEDF9ECF81208EEA3A3A3A306
:1005D500E8C0E0E9C0E0EAC0E0EBC0E0C0F012012D
:1005E5000612090AA3A3A3A3120015D0F0D0E0FBBD
:0D05F500D0E0FAD0E0F9D0E0F8D5F0D42243
:03000000024A3B76
:0C4A3B00787FE4F6D8FD758121024A82E4
:10060200E709F608DFFA8046E709F208DFFA803EDA
:1006120088828C83E709F0A3DFFA8032E309F608C7
:10062200DFFA8078E309F208DFFA807088828C832F
:10063200E309F0A3DFFA806489828A83E0A3F608E3
:10064200DFFA805889828A83E0A3F208DFFA804CBD
:1006520080D280FA80C680D4806980F28033801094
:1006620080A680EA809A80A880DA80E280CA8033FD
:1006720089828A83ECFAE493A3C8C582C8CCC58375
:10068200CCF0A3C8C582C8CCC583CCDFE9DEE78045
:100692000D89828A83E493A3F608DFF9ECFAA9F0C4
:1006A200EDFB2289828A83ECFAE0A3C8C582C8CC1A
:1006B200C583CCF0A3C8C582C8CCC583CCDFEADE33
:1006C200E880DB89828A83E493A3F208DFF980CC95
:1006D20088F0EF60010E4E60C388F0ED2402B4048E
:1006E2000050B9F582EB2402B4040050AF23234535
:0606F20082239006527302
:1006F800BB010689828A83E0225002E722BBFE0200
:09070800E32289828A83E4932232
:10071100BB010CE58229F582E5833AF583E022509D
:1007210006E92582F8E622BBFE06E92582F8E222E7
:0D073100E58229F582E5833AF583E4932201
:10073E00BB010689828A83F0225002F722BBFE019A
:02074E00F32294
:10075000EF8DF0A4A8F0CF8CF0A428CE8DF0A42EBD
:02076000FE2277
:10076200BC000BBE0029EF8DF084FFADF022E4CC7B
:10077200F875F008EF2FFFEE33FEEC33FCEE9DEC44
:10078200984005FCEE9DFE0FD5F0E9E4CEFD22ED8A
:10079200F8F5F0EE8420D21CFEADF075F008EF2FD4
:1007A200FFED33FD4007985006D5F0F222C398FDC5
:0507B2000FD5F0EA2262
:1007B700C5F0F8A3E028F0C5F0F8E58215827002CD
:0607C7001583E038F0226A
:1007CD00A3F8E0C5F025F0F0E582158270021583DF
:0607DD00E0C838F0E8223C
:1007E300E88FF0A4CC8BF0A42CFCE98EF0A42CFCB5
:1007F3008AF0EDA42CFCEA8EF0A4CDA8F08BF0A433
:100803002DCC3825F0FDE98FF0A42CCD35F0FCEB91
:100813008EF0A4FEA9F0EB8FF0A4CFC5F02ECD3956
:0F082300FEE43CFCEAA42DCE35F0FDE43CFC22C3
:0E083200C3E49FFFE49EFEE49DFDE49CFC22D7
:10084000EB9FF5F0EA9E42F0E99D42F0EC6480C82F
:0608500064809845F022CF
:10085600EB9FF5F0EA9E42F0E99D42F0E89C45F0F8
:01086600226F
:10086700E8600FECC313FCED13FDEE13FEEF13FF6F
:03087700D8F12293
:10087A00BB010789828A83020ABE5005E9F8020A87
:10088A00B2BBFE05E9F8020ACA89828A830208EE27
:10089A00BB010DE58229F582E5833AF583020ABE9A
:1008AA005007E92582F8020AB2BBFE07E92582F859
:1008BA00020ACAE58229F582E5833AF5830208EE3F
:1008CA00BB010DE58229F582E5833AF58302091A0F
:1008DA005007E92582F8020AD6BBFE07E92582F805
:0408EA00020AE222FA
:1008EE00E493FC740193FD740293FE740393FF2250
:0C08FE00E0F8A3E0F9A3E0FAA3E0FB227D
:10090A00E493F8740193F9740293FA740393FB2243
:0C091A00ECF0A3EDF0A3EEF0A3EFF02250
:10092600A8828583F0D083D08212093D12093D1238
:10093600093D12093DE473E493A3C583C5F0C5835D
:10094600C8C582C8F0A3C583C5F0C583C8C582C81B
:01095600227E
:10095700F8E0FBA3A3E0F925F0F0E5821582700229
:070967001583E0FA38F022CD
:09096E00EBF0A3EAF0A3E9F0228A
:10097700D083D082F8E4937012740193700DA3A30F
:1009870093F8740193F5828883E473740293686023
:06099700EFA3A3A380DF23
:104E5100EFB40A07740D124E5C740A309811A899C8
:104E6100B8130CC2983098FDA899C298B811F630C1
:074E710099FDC299F5992299
:10099D00E709F60870FA8046E709F20870FA803E1A
:1009AD0088828C83E709F0A370FA807EE309F6084C
:1009BD0070FA8076E309F20870FA806E88828C8373
:1009CD00E309F0A370FA806289828A83E0A3F608B6
:1009DD0070FA805689828A83E0A3F20870FA804A01
:1009ED0080D280FA80C680D4806580F280318010FC
:1009FD0080A680EA809A80A880DA80E280CA803161
:100A0D0089828A83ECFAE493A3C8C582C8CCC583D6
:100A1D00CCF0A3C8C582C8CCC583CC70E9800D8944
:100A2D00828A83E493A3F60870F9ECFAA9F0EDFB42
:100A3D002289828A83ECFAE0A3C8C582C8CCC5831B
:100A4D00CCF0A3C8C582C8CCC583CC70EA80DD8943
:100A5D00828A83E493A3F20870F980CE88F0ED24A6
:100A6D0002B4040050C4F582EB2402B4040050BA61
:090A7D0023234582239009ED7347
:100A8600EF4E6012EF60010EEDBB010B89828A8387
:100A9600F0A3DFFCDEFA2289F05007F709DFFCA994
:0C0AA600F022BBFEFCF309DFFCA9F022EB
:104A4700023CBDE493A3F8E493A34003F68001F28C
:104A570008DFF48029E493A3F85407240CC8C33370
:104A6700C4540F4420C8834004F456800146F6DF3F
:104A7700E4800B0102040810204080904407E47E84
:104A8700019360BCA3FF543F30E509541FFEE49334
:104A9700A360010ECF54C025E060A840B8E493A3FB
:104AA700FAE493A3F8E493A3C8C582C8CAC583CA26
:104AB700F0A3C8C582C8CAC583CADFE9DEE780BEDE
:0144D40000E7
:0C0AB200E6FC08E6FD08E6FE08E6FF2270
:0C0ABE00E0FCA3E0FDA3E0FEA3E0FF22AB
:0C0ACA00E2FC08E2FD08E2FE08E2FF2268
:0C0AD600ECF608EDF608EEF608EFF6224C
:0C0AE200ECF208EDF208EEF208EFF22250
:00000001FF
