:100B95002D544F52520045592D0030303030000051
:040BA500000000004C
:040B06007FF47E01F9
:100B0A00E4FDFCC3ED9FEC9E5015E4FBFA0BBB0021
:0F0B1A00010AEB64A44A70F50DBD00010C80E4E4
:010B290022A9
:100BBD00E4F59A759B20759C05759D03759E042221
:1007F100785C7C007D007BFF7A0B79A47E007F050D
:1008010012042F7592FB7593047594BF759540750D
:1008110096EE75971175800475904075A011120AB6
:1008210053120B067BFF7A0B79957D01120553124A
:100831000B067BFF7A0B799B7D02120553120B0687
:10084100120BBD5390DF4390107564FF75650B75F6
:10085100669F7B007A00795C12005F308203755CD1
:100861003130A403755D3130A003755E31309603DC
:10087100755F317B007A00795CE4FD120553120B40
:030881000680C628
:100AB4000A225F503D79726B6F517F731C40776ED1
:100AC4000F7C2F276F76505C360E00645F377324DB
:0A0AD4006B2E5E4C0000723D200006
:090B7D0053A0FB120B8643A004F7
:0E0B8600E4FFFE0FBF00010EEF64054E70F598
:010B9400223E
:100A530043A00243A00443A008120B86120B86E4B2
:100A6300F52C752D01FDFBFE120767752D0312078B
:100A730061752D28120761752D2912076112074C24
:040A8300E4FEFF226C
:020B4800AD07F7
:100B4A00E4FCED20E70553A0F7800343A008120B4D
:090B5A007DED25E0FD0CBC08E96D
:010B6300226F
:10074C00752C01E4F53E753F10FEFD7F10FB7A0021
:10075C00792E1204B27D007B007E0078667C007AD4
:08076C0000792C7F1412042F08
:10077400E4FB43A00243A00443A008120B8653A049
:10078400FD120B86120B7D53A0F7120B7DE56670EC
:100794000553A0F7800343A008120B7DE566700A99
:1007A400AF67120B48120B7D8037E4F578FB53A03A
:1007B400FBE57820E70553A0F7800343A008120B5C
:1007C40080E57825E0F5780BBB06E3E4FBEBFFC39B
:1007D400740F9FFF74682FF8E6FF120B480BBB10D1
:0D07E400EC43A00243A00843A004020B86D2
:100A870012074CE4F52C752D0278667C00FDFB7A85
:100A970000792CFE12076FE4F52D78667C00FDFBCC
:0D0AA7007A00792CFE12076F7E007F01227D
:080BCD0012074C7E007F01229B
:100BA900752C01E4F53E753F10FE7DFF1207577E57
:040BB900007F012296
:070BD5008F0D7E007F01225D
:100B2A00E4FEBD0100BD02027E0BED70027E05C32C
:0D0B3A0074059B2E242EF8E65480F64FF62D
:010B4700228B
:10091000ED606324FE6031047078BF030BBB0105FA
:10092000432F808003532F7FBF020BBB0105433051
:1009300080800353307FEF64017057BB0105433162
:1009400080804F53317F804ABF030BBB0105433A80
:10095000808003533A7FBF020BBB0105433B80807D
:1009600003533B7FEF64017029BB0105433C80804A
:1009700021533C7F801CBF020BBB010543358080A7
:100980000353357FBF010BBB010543368080035302
:05099000367F020B643C
:10067700EF24FEB40900400302074090069075F08E
:1006870003A4C58325F0C583730206EE0206E102C3
:1006970006FB02070202070F0206BA0206C7020696
:1006A700D40206ABBD010643338002074053337FB4
:1006B700020740BD0105433780807E53377F80792D
:1006C700BD0105433480807153347F806CBD0105C3
:1006D700433880806453387F805FBD010543328093
:1006E700805753327F8052BD0105432E80804A5385
:1006F7002E7F8045BD01028026803BBD0105433921
:1007070080803653397F8031ED6401701743338021
:10071700433780433480433880432E8043398043B6
:100727003D80801553337F53377F53347F53387F52
:10073700532E7F53397F533D7F752C01E4F53E756A
:050747003F10020B64ED
:080553008B618A628963AC052B
:10055B00756405E4F565EC700653357F53367FBC47
:10056B000209533A7F533B7F533C7FBC0109532F06
:10057B007F53307F53317FAB61AA62A9631204555D
:10058B00FF700302066BC3648094B04017D3EF6413
:10059B008094B9500F74F22FF8E6FFAD04AB6415DD
:1005AB0064120B2AAB61AA62A963120455B42D0B1A
:1005BB00AD04AB641564AF5A120B2AAB61AA62A9E6
:1005CB0063120455B4200BAD04AB64E4FF120B2A89
:1005DB001564AB61AA62A963120455FFC3648094CE
:1005EB00C14017D3EF648094DA500F74FF2FF8E6F5
:1005FB00FFAD04AB64120B2A1564AB61AA62A9634D
:10060B00120455642E7049BC0218E565B40203430D
:10061B003A80E565B40303433B80E565B4040343CB
:10062B003C80BC0118E565B40203432F80E565B43B
:10063B000303433080E565B40403433180EC701051
:10064B00E565B40403433680E565B40303433580A5
:10065B00056574012563F563E43562F56202058275
:0C066B00752C01E4F53E753F10020B6495
:100B6400752C0178667C007D007B007A00792C7EF0
:090B7400007F1412042F02077423
:070BDC0000D28200C2822258
:1009F700780F12049900000000E4FB780F120481BD
:100A0700780112046E780F12048D120BDC308017F8
:100A1700780F120481EF2401FFE43EFEE43DFDE47C
:100A27003CFC780F12048D0BBB18D0780F12048191
:100A3700ED6480FDEC780F12048D120BDC120BDCD9
:0B0A4700120BDC30090500D282C2094E
:010A52002281
:10099500E4FFF50EF509C282C2A4C2A0C296BF014A
:1009A50002D282BF0202D2A4BF0302D2A0BF0402B8
:1009B500D296308108EF25E025E004F5093080095D
:1009C500EF25E025E02402F509309009EF25E02523
:1009D500E02403F509309109EF25E025E02404F52D
:1009E50009309209EF25E025E02405F5090FBF043C
:0109F500A55C
:0109F60022DE
:030000000208846F
:0C088400787FE4F6D8FD7581790208CB7E
:10035F00E709F608DFFA8046E709F208DFFA803E80
:10036F0088828C83E709F0A3DFFA8032E309F6086D
:10037F00DFFA8078E309F208DFFA807088828C83D5
:10038F00E309F0A3DFFA806489828A83E0A3F60889
:10039F00DFFA805889828A83E0A3F208DFFA804C63
:1003AF0080D280FA80C680D4806980F2803380103A
:1003BF0080A680EA809A80A880DA80E280CA8033A3
:1003CF0089828A83ECFAE493A3C8C582C8CCC5831B
:1003DF00CCF0A3C8C582C8CCC583CCDFE9DEE780EB
:1003EF000D89828A83E493A3F608DFF9ECFAA9F06A
:1003FF00EDFB2289828A83ECFAE0A3C8C582C8CCC0
:10040F00C583CCF0A3C8C582C8CCC583CCDFEADED8
:10041F00E880DB89828A83E493A3F208DFF980CC3A
:10042F0088F0EF60010E4E60C388F0ED2402B40433
:10043F000050B9F582EB2402B4040050AF232345DA
:06044F0082239003AF734D
:10045500BB010689828A83E0225002E722BBFE02A5
:09046500E32289828A83E49322D8
:10046E00E8600FEFC333FFEE33FEED33FDEC33FCEC
:03047E00D8F12290
:0C048100E6FC08E6FD08E6FE08E6FF22A7
:0C048D00ECF608EDF608EEF608EFF6229B
:10049900D083D082E493F608740193F6087402932A
:0904A900F608740393F674047361
:10000300E5702464F8E605702278613007027864AD
:10001300E475F00112051D0204552000EB7F2ED27A
:10002300008018EF540F2490D43440D4FF30040BD5
:10003300EF24BFB41A0050032461FFE57160021579
:10004300710574E5747002057330070D7861E4750A
:10005300F00112051DEF02050B020ADF7403D2073C
:100063008003E4C207F5708B618A628963E4F571EA
:10007300F573F574E57160077F2012003E80F57516
:1000830072FFC201C200C202C203C205C206C20895
:1000930012000CFF700D3007057F0012004FAF7484
:1000A300AE7322B4255FC2D5C20412000CFF24D064
:1000B300B40A00501A75F00A787130D50508B6FFF6
:1000C3000106C6A426F620D5047002D20380D924E3
:1000D300CFB41A00EF5004C2E5D20402024FD2019A
:1000E30080C6D20080C0D20280BCD2D580BAD205ED
:1000F30080B47F2012003E2002077401B5710040D6
:10010300F1120003FF12003E020077D208D20680EC
:1001130095120003FB120003FA120003F94A4B7015
:100123000679207A037BFF20022EE571602A7E0088
:100133008E827583001204DE60060EEE657270F027
:10014300C2D5EBC0E0EAC0E0E9C0E0EE120296D00F
:10015300E0F9D0E0FAD0E0FB120455FF60AAEBC04F
:10016300E0EAC0E0E9C0E012003ED0E02401F9D0AB
:10017300E03400FAD0E0FBE5720460DCD572D9808C
:10018300877BFF7A027992D202809C791080027970
:1001930008C206C2088008D2D5790A8004790AC247
:1001A300D5E572047002F572E4FAFDFEFF12000356
:1001B300FC7B08200113120003FD7B1030000A12A0
:1001C3000003FE120003FF7B20EC3382D592D5504F
:1001D30013C3E43000069FFFE49EFEE42001039D69
:1001E300FDE49CFCE4CBF8C201EC700CCFCECDCC8B
:1001F300E824F8F870F38017C3EF33FFEE33FEED16
:1002030033FDEC33FCEB33FB994002FB0FD8E9EBF6
:10021300300105F8D0E0C448B201C0E00AEC4D4E0D
:100223004F78207B0070C2EAB5720040BCC0E01278
:100233000298D0F0D0E0200104C4C0E0C4B201C0F1
:10024300F0120027D0F0D5F0EB02007712052D0154
:100253001453018E5800E54C00E14201924F019A7C
:0F02630044019A4900FA4301A0550184460184E1
:100272004501844703405000E92D00ED2E01102B6B
:1002820000F123010E2003292A00A94800000108D9
:100292003F3F3F00790AA2D5200314300509B91067
:1002A200020404B9080104A2D52006025001042068
:1002B20002689202B571005034C0E07F2030031909
:1002C2007F30A20272067205500F1202EFC202C202
:1002D20006C205C2087F30800F300503E9C0E01274
:1002E200003E300503D0E0F9D0E0B571CC300517FF
:1002F2007F30B9100C12003E7F583004077F78809F
:1003020003B9080312003E3002057F2D02003E7F32
:10031200202008F87F2B2006F322920280CF286E3D
:10032200756C6C2900D2011200033001F8C2017809
:100332007130D50108F60200A92D50434958120028
:10034200032403B405004001E490033B9312002F01
:0D035200743A12002FD20375710402018E5F
:1004B200EF4E6012EF60010EEDBB010B89828A8361
:1004C200F0A3DFFCDEFA2289F05007F709DFFCA96E
:0C04D200F022BBFEFCF309DFFCA9F022C5
:100890000207F1E493A3F8E493A34003F68001F286
:1008A00008DFF48029E493A3F85407240CC8C33369
:1008B000C4540F4420C8834004F456800146F6DF38
:1008C000E4800B0102040810204080900AB4E47E0A
:1008D000019360BCA3FF543F30E509541FFEE4932D
:1008E000A360010ECF54C025E060A840B8E493A3F4
:1008F000FAE493A3F8E493A3C8C582C8CAC583CA1F
:10090000F0A3C8C582C8CAC583CADFE9DEE780BED6
:010ADE000017
:1004DE00BB010CE58229F582E5833AF583E02250D3
:1004EE0006E92582F8E622BBFE06E92582F8E2221D
:0D04FE00E58229F582E5833AF583E4932237
:10050B00BB010689828A83F0225002F722BBFE01CF
:02051B00F322C9
:10051D00FAE6FB0808E6F925F0F618E6CA3AF622DF
:10052D00D083D082F8E4937012740193700DA3A35D
:10053D0093F8740193F5828883E473740293686071
:06054D00EFA3A3A380DF71
:100ADF00EFB40A07740D120AEA740A309811A89934
:100AEF00B8130CC2983098FDA899C298B811F63077
:070AFF0099FDC299F599224F
:00000001FF
